:0400000007EF00F016
:100008003F8203ED19F00DEF21F0C6C0D9F0C7C04B
:10001800DAF0CAC0D9FFCBC0DAFF000EDE6E000EE0
:10002800DD6E000120EE04F0C451D926C551DA2254
:10003800DECF66F0DDCF67F0C4C0D9FFC5C0DAFFF8
:10004800DECF68F0DDCF69F0D5EC23F00001D86F82
:10005800D851D8A4120020EE02F0C451D926C551B7
:10006800DA22DFBE120020EE02F0C451D926C551B3
:10007800DA22DFA2120020EE0AF0C451D926C551B7
:10008800DA2210EE0AF0C451E126C551E222E6CF89
:10009800D0F0E6CFD1F0E6CFD2F0E6CFD3F0C8511A
:1000A800D025D46FC951D121D56F000ED221D66F7A
:1000B800000ED321D76FDE50D45DDE50D559DE5007
:1000C800D659DE50D759D8A012003BD220EE06F000
:1000D800C451D926C551DA22FF0EDE14CC6F010EA9
:1000E800DE14CD6F000EDE14CE6F000EDE14CF6F5F
:1000F800CC51CD11CE11CF11D8A466D120EE04F089
:10010800C451D926C551DA2210EE1DF0DE50E12681
:10011800DD50E22220EE03F0C451D926C551DA227F
:10012800E650DE5CD8A06DD020EE06F0C451D9268A
:10013800C551DA22DE50DE10DE10DE10D8A424D03D
:1001480020EE0EF0C451D926C551DA22DECFE1F0F7
:10015800DDCFE2F0E151E211D8A426D0000EB76F4E
:10016800000EB66FCDEC15F0B6C0E1F0B7C0E2F006
:10017800000120EE0EF0C451D926C551DA22E1C0A3
:10018800DEFFE2C0DDFF10D020EE10F0C451D9260A
:10019800C551DA22DECFB6F0DDCFB7F0CDEC15F0E1
:1001A800B6C0E1F0B7C0E2F00001E151E211D8B405
:1001B800CCD1E105E211D8B4FBD120EE04F0C45152
:1001C800D926C551DA2210EE16F0DE50E126DD50B0
:1001D800E222E650E15DE650E259D8B0E9D120EEDE
:1001E80010F0C451D926C551DA22E1C0DEFFE2C0C1
:1001F800DDFF20EE03F0C451D926C551DA22000EE6
:10020800DF6E20EE10F0C451D926C551DA22DECFB8
:100218006CF0DDCF6DF06BEC1DF0000120EE03F00B
:10022800C451D926C551DA22DF50CC6FCC516C2588
:10023800DB6F000E6D21DC6F000E6E21DD6F000E8E
:100248006F21DE6FC8C0CCF0C9C0CDF0090ECE6FEB
:10025800D890CD33CC33CE2FFBD7CCC0DFF0CDC078
:10026800E0F0DF51E011D8B470D020EE03F0C451B3
:10027800D926C551DA22DF50CC6FCC51DF25CD6F9E
:10028800000EE021CE6F20EE04F0C451D926C551EE
:10029800DA2210EE1DF0DE50E126DD50E222E750B2
:1002A800CF6FD06BCD51CF5DCE51D059D8B021D0C2
:1002B80020EE03F0C451D926C551DA22DF50CC6FA5
:1002C800CD6BCC1FCD1FCC4BCD2B20EE04F0C451F1
:1002D800D926C551DA2210EE1DF0DE50E126DD5098
:1002E800E222E750CE6FCE51CC25DF6F000ECD2134
:1002F800E06FD9C07FF0DAC080F0DBC081F0DCC0ED
:1003080082F0DDC083F0DEC084F0DFC085F0000E2F
:1003180086EC20F00009D8A44BD1000120EE03F0B0
:10032800C451D926C551DA22DF51DF26DFC0CCF00F
:10033800E0C0CDF0090ED890CC37CD37E82EFBD7EA
:10034800CCC0E3F0CDC0E4F0DFD020EE0AF0C45119
:10035800D926C551DA2210EE06F0C451E126C5515E
:10036800E222DE50E65CDE50E658DE50E658DE500B
:10037800E658D8A022D0000E8B6F000E8C6F000EAE
:100388008D6F000E8E6FADEC16F00009D8B410D149
:10039800000120EE04F0C451D926C551DA2210EE2E
:1003A80004F0DE50E126DD50E222DBC0E6FFDCC0CF
:1003B800E6FFDDC0E6FFDEC0E6FF20EE03F0C45135
:1003C800D926C551DA22DF2A20EE10F0C451D926E9
:1003D800C551DA22DECF6CF0DDCF6DF06BEC1DF08D
:1003E800000120EE03F0C451D926C551DA22DF50AE
:1003F800CC6FCC516C25CD6F000E6D21CE6F000EE9
:100408006E21CF6F000E6F21D06FFF0ECD25DB6FF1
:10041800FF0ECE21DC6FFF0ECF21DD6FFF0ED02146
:10042800DE6FDBC08BF0DCC08CF0DDC08DF0DEC091
:100438008EF0ADEC16F00009D8B4BAD0FF0E00016A
:10044800CC6F010ECD6F20EE06F0C451D926C551F0
:10045800DA22DECFCEF0DDCFCFF0CC51CE17CD51A2
:10046800CF17CE1FCF1FCE4BCF2B000ECE25E36F5D
:10047800020ECF21E46FE351C85DE451C959D8B0E9
:1004880004D0C8C0E3F0C9C0E4F0FF0ECC6F010E81
:10049800CD6F20EE06F0C451D926C551DA22DECF41
:1004A800CEF0DDCFCFF0CC51CE17CD51CF17200EE7
:1004B800CE27000ECF2320EE04F0C451D926C55113
:1004C800DA22DECFD0F0DDCFD1F0CE51D025606F6B
:1004D800CF51D121616FD9C062F0DAC063F0E3C0B7
:1004E80064F0E4C065F020EC24F0000120EE04F094
:1004F800C451D926C551DA2210EE1FF0DE50E1268C
:10050800DD50E222010EE76EE351D927E451DA23E8
:1005180020EE06F0C451D926C551DA22E351DE2671
:10052800E451DE22000EDE22DE22CAC0D9FFCBC093
:10053800DAFFE351DE26E451DD22E351C85FE451DE
:10054800C95BC851C911D8A4C1D520EE06F0C45161
:10055800D926C551DA2210EE0AF0C451E126C55158
:10056800E222DE50E65CDE50E658DE50E658DE5009
:10057800E658D8B014D020EE06F0C451D926C5519B
:10058800DA2210EE0AF0C451E126C551E222DECF8C
:10059800E6FFDECFE6FFDECFE6FFDECFE6FF20EEAA
:1005A80002F0C451D926C551DA22000EDB8A1200A6
:1005B800000120EE02F0C451D926C551DA22000EFE
:1005C800DB8E120093C0D9FF94C0DAFFDECFB1F002
:1005D800DDCFB2F003D00001B14BB22BB1C0F6FFB2
:1005E800B2C0F7FFF86A070EF76403D00800F550A9
:1005F80005D0F6CFE9FFF7CFEAFFEF50200AD8B4CD
:10060800EAD7B1C0F6FFB2C0F7FFF86A070EF76481
:1006180003D00800F55005D0F6CFE9FFF7CFEAFF81
:10062800EF502F0AD8A403D00001B14BB22B93C0CE
:10063800D9FF94C0DAFFB1C0DEFFB2C0DDFFFDC054
:10064800B9F0FEC0BAF00001B951BA11D8A402D06D
:100658000A0E120020EE1CF0B951D926BA51DA223E
:10066800DF50D8B40FD0000E44EC24F00001B46F72
:10067800B4B108D09551D8A4B4A502D0090E12007F
:10068800000E1200B9C060F0BAC061F0000E636FCE
:10069800000E626F020E656F200E646F43EC25F04A
:1006A800000EEEEC24F00001B46FB4A102D0010EEC
:1006B80012009551D8A4B4A502D0090E1200000E5C
:1006C800A96F000EAA6F000EAB6F000EAC6FA9C029
:1006D8008BF0AAC08CF0ABC08DF0ACC08EF040ECB3
:1006E80020F00001B36FB305D8A423D021EEE2F0C7
:1006F800B951D926BA51DA22DF50D8B41AD021EE2E
:10070800E6F0B951D926BA51DA22DECFA9F0DECF08
:10071800AAF0DECFABF0DECFACF0A9C08BF0AAC058
:100728008CF0ABC08DF0ACC08EF040EC20F0000136
:10073800B36FB351D8A40CD020EE2BF0B951D92601
:10074800BA51DA22DE5004E1020EDE18D8B402D023
:100758000B0E120020EE36F0B951D926BA51DA2222
:10076800DECF96F0DDCF97F096C0B5F097C0B6F023
:10077800B76BB86BB551B611B711B811D8A40ED074
:1007880020EE44F0B951D926BA51DA22DECFB5F0BD
:10079800DECFB6F0DECFB7F0DECFB8F020EE14F043
:1007A800B951D926BA51DA22B5C0DEFFB6C0DDFF8D
:1007B80020EE30F0B951D926BA51DA2210EE1EF0E7
:1007C800B951E126BA51E222DFCFE7FFB5C060F0A8
:1007D800B6C061F0B7C062F0B8C063F020EE1EF09A
:1007E800B951D926BA51DA22DF50966F9651646F03
:1007F800656B666B676B30EC23F060C0B5F061C069
:10080800B6F062C0B7F063C0B8F0000120EE2EF079
:10081800B951D926BA51DA22DECF96F0DDCF97F05A
:100828009651A925986F9751AA21996F000EAB216F
:100838009A6F000EAC219B6F20EE08F0B951D926B3
:10084800BA51DA2298C0DEFF99C0DEFF9AC0DEFFF7
:100858009BC0DEFF20EE2DF0B951D926BA51DA221D
:1008680010EE1DF0B951E126BA51E222DFCFE7FFC1
:1008780020EE31F0B951D926BA51DA2210EE02F041
:10088800B951E126BA51E222DECFE6FFDDCFE5FF1E
:1008980020EE33F0B951D926BA51DA22DECF96F0DC
:1008A800DDCF97F096C0ADF097C0AEF0AF6BB06BF0
:1008B800AD51AE11AF11B011D8A40ED020EE40F05A
:1008C800B951D926BA51DA22DECFADF0DECFAEF07B
:1008D800DECFAFF0DECFB0F020EE02F0B951D9266E
:1008E800BA51DA22DECF96F0DDCF97F0040E986F7A
:1008F800D89097339633982FFBD720EE2EF0B95126
:10090800D926BA51DA22DECF99F0DDCF9AF0995183
:1009180096259B6F9A5197219C6F9D6BD8B09D2B04
:100928009E6BB5519B259F6FB6519C21A06FB75107
:100938009D21A16FB8519E21A26F9F1FA01FA11FCB
:10094800A21F9F2B000EA023A123A223AD519F25F8
:10095800606FAE51A021616FAF51A121626FB0519C
:10096800A221636F20EE1DF0B951D926BA51DA22BF
:10097800DF50A36FA351646F656B666B676B4FECB9
:1009880021F0020E00016025A56F000E6121A66FFF
:10099800000E6221A76F000E6321A86F20EE16F0EB
:1009A800B951D926BA51DA22A5C0DEFFA6C0DDFFAB
:1009B800010EB36FA851A71106E1F70EA55D0F0E42
:1009C800A659D8A002D0020EB36FA851A71106E10C
:1009D800F70EA55DFF0EA659D8A002D00B0E120087
:1009E80020EE08F0B951D926BA51DA22DECF96F0B6
:1009F800DECF97F0DECF98F0DECF99F0B55196258F
:100A08009A6FB65197219B6FB75198219C6FB85137
:100A180099219D6F20EE0CF0B951D926BA51DA22EE
:100A28009AC0DEFF9BC0DEFF9CC0DEFF9DC0DEFFDC
:100A380020EE08F0B951D926BA51DA22DECF96F065
:100A4800DECF97F0DECF98F0DECF99F020EE02F0FF
:100A5800B951D926BA51DA22DECF9AF0DDCF9BF010
:100A6800040E9C6FD8909B339A339C2FFBD79A51D6
:100A780096259D6F9B5197219E6F000E98219F6F21
:100A8800000E9921A06FB5519D25A16FB6519E21E9
:100A9800A26FB7519F21A36FB851A021A46F20EE78
:100AA80010F0B951D926BA51DA22A1C0DEFFA2C08E
:100AB800DEFFA3C0DEFFA4C0DEFF20EE1AF0B951AE
:100AC800D926BA51DA22FF0EDE6EFF0EDD6E20EE59
:100AD8001CF0B951D926BA51DA22B3C0DFFFFB4B5B
:100AE800FC2BB9C0D9FFBAC0DAFFFBC0DEFFFCC0DF
:100AF800DDFF000E1200000120EE04F0C451D926DB
:100B0800C551DA22DECF66F0DDCF67F0C4C0D9FF69
:100B1800C5C0DAFFDECF68F0DDCF69F0D5EC23F091
:100B28000001D66FD651D8A4120020EE02F0C451AD
:100B3800D926C551DA22DFBE120020EE0AF0C451D0
:100B4800D926C551DA22C651DE5CC751DE58C851D4
:100B5800DE58C951DE58D8B016D020EE02F0C45184
:100B6800D926C551DA22DFB20ED020EE0AF0C451E0
:100B7800D926C551DA22DECFC6F0DECFC7F0DECFE8
:100B8800C8F0DECFC9F020EE06F0C451D926C55111
:100B9800DA22DECFD7F0DECFD8F0DECFD9F0DECF45
:100BA800DAF020EE06F0C451D926C551DA22DE6A01
:100BB800DE6ADE6ADD6A20EE03F0C451D926C5512B
:100BC800DA22FF0EDF6EC651C711C811C911D8B499
:100BD8009BD120EE04F0C451D926C551DA2210EE7B
:100BE8001DF0DE50E126DD50E222E750CA6FCAC090
:100BF800CBF0CC6BCD6BCE6B090ED890CB37CC3706
:100C0800CD37CE37E82EF9D7CBC0DBF0CCC0DCF03F
:100C1800CDC0DDF0CEC0DEF0D751D811D911DA1130
:100C2800D8B48FD0FF0EC625606FFF0EC721616F45
:100C3800FF0EC821626FFF0EC921636FDBC064F02D
:100C4800DCC065F0DDC066F0DEC067F04FEC21F077
:100C580060C0CAF061C0CBF062C0CCF063C0CDF018
:100C6800FF0E0001D725606FFF0ED821616FFF0EC0
:100C7800D921626FFF0EDA21636FDBC064F0DCC03C
:100C880065F0DDC066F0DEC067F04FEC21F00001D2
:100C98006051CA5D6151CB596251CC596351CD59EC
:100CA800D8A04FD0FF0EDB25CA6FFF0EDC21CB6F1B
:100CB800FF0EDD21CC6FFF0EDE21CD6FCA1FCB1FCB
:100CC800CC1FCD1FFF0ED725CE6FFF0ED821CF6FBB
:100CD800FF0ED921D06FFF0EDA21D16FCA51CE1580
:100CE800D26FCB51CF15D36FCC51D015D46FCD5116
:100CF800D115D56F20EE06F0C451D926C551DA2298
:100D0800D2C0DEFFD3C0DEFFD4C0DEFFD5C0DEFF19
:100D180020EE06F0C451D926C551DA22DE50C65F4E
:100D2800DE50C75BDE50C85BDD50C95B20EE10F0BB
:100D3800C451D926C551DA22DECFDFF0DDCFE0F08D
:100D480031D020EE0EF0C451D926C551DA22DECFBB
:100D5800DFF0DDCFE0F0DF51E011D8A419D0000EAC
:100D6800B76F000EB66FCDEC15F0B6C0DFF0B7C0A8
:100D7800E0F00001DF05E011D8B4F9D020EE0EF064
:100D8800C451D926C551DA22DFC0DEFFE0C0DDFF3D
:100D980020EE10F0C451D926C551DA22DFC0DEFF9B
:100DA800E0C0DDFFDF51E011D8A464D0ADD020EE63
:100DB80002F0C451D926C551DA22DFA218D0DFC00B
:100DC800B6F0E0C0B7F0CDEC15F0B6C0DFF0B7C0B4
:100DD800E0F00001DF51E011D8A413D0DBC0C6F069
:100DE800DCC0C7F0DDC0C8F0DEC0C9F04DD0DFC040
:100DF800A0F0E0C0A1F0D7EC13F0A0C0DFF0A1C0D4
:100E0800E0F00001E05104E1020EDF5DD8A0AFD0B0
:100E180020EE04F0C451D926C551DA2210EE16F09E
:100E2800DE50E126DD50E222E650DF5DE650E05973
:100E3800D8B09DD020EE10F0C451D926C551DA2281
:100E4800DFC0DEFFE0C0DDFF20EE06F0C451D9268A
:100E5800C551DA22DB51DE26DC51DE22DD51DE22ED
:100E6800DE51DE22DB51C65FDC51C75BDD51C85B5A
:100E7800DE51C95BC651DB5DC751DC59C851DD592C
:100E8800C951DE59D8A093D720EE06F0C451D9260F
:100E9800C551DA22C651DE26C751DE22C851DE22EC
:100EA800C951DE2220EE03F0C451D926C551DA22F9
:100EB800C6C0CAF0C7C0CBF0C8C0CCF0C9C0CDF01E
:100EC8000A0E05D0D890CD33CC33CB33CA33E82EB5
:100ED800F9D7CA51DF6EFF0EC615CA6F010EC715C6
:100EE800CB6F000EC815CC6F000EC915CD6FCA5157
:100EF800CB11CC11CD11D8B407D020EE03F0C451DA
:100F0800D926C551DA22DF2A20EE06F0C451D926A7
:100F1800C551DA2210EE0AF0C451E126C551E22289
:100F2800DE50E65CDE50E658DE50E658DE50E65805
:100F3800D8B0120020EE06F0C451D926C551DA22E5
:100F480010EE0AF0C451E126C551E222DECFE6FFD9
:100F5800DECFE6FFDECFE6FFDECFE6FF20EE02F0D3
:100F6800C451D926C551DA22000EDB8A120020EEC0
:100F780002F0C451D926C551DA22000EDB8E1200C8
:100F8800D90E03011C6F010E1D6F000E116F000EAC
:100F9800106F10C31EF311C31FF31E2903E11F298D
:100FA800D8B41200D7C1F6FFD8C1F7FF0800F5CFB3
:100FB80022F30101D74BD82B03012251D8B41200D8
:100FC800250E2219D8B415D022C3E5F00001E66B2E
:100FD800D5C1E7F0D6C1E8F004EC23F0E5C01EF374
:100FE800E6C01FF303011E2903E11F29D8B4AED1BF
:100FF80096D0000E166F16C314F3156BD7C1F6FF03
:10100800D8C1F7FF0800F5CF22F30101D74BD82B41
:10101800300E03012219D8A42ED0010E166F21D04C
:1010280014C360F015C361F0000E0001636F0A0E6F
:10103800626FB3EC25F0030122510101E16FE26B0D
:10104800000160510101E127000161510101E22322
:10105800D00EE1250301146FFF0E0101E221030107
:10106800156FD7C1F6FFD8C1F7FF0800F5CF22F3F7
:101078000101D74BD82B2F0E0301226503D0390E5F
:101088002265CED76C0E2219D8A40BD01683D7C1EF
:10109800F6FFD8C1F7FF0800F5CF22F30101D74BBF
:1010A800D82B730E03012219D8A418D01CC3D9FF5A
:1010B8001DC3DAFFDECFCFF1DDCFD0F1D5C1D1F13D
:1010C800D6C1D2F1A6EC22F0CFC11EF3D0C11FF3D6
:1010D800020E03011C27000E1D2338D1630E2219AE
:1010E800D8A422D01CC3D9FF1DC3DAFFDF500101E9
:1010F800E16FE1510001E56FE66BD5C1E7F0D6C1BC
:10110800E8F004EC23F0E5C01EF3E6C01FF3020E7E
:1011180003011C27000E1D231E2901E166D7000EBE
:101128001F6F010E1E6F12D1000E176F640E221969
:10113800D8A402D00A0E176F750E2219D8A402D0AF
:101148000A0E176F580E2219D8A402D0100E176F66
:101158001751D8B4120016A30ED01CC3D9FF1DC353
:10116800DAFFDECF18F3DECF19F3DECF1AF3DECFC6
:101178001BF3040E21D0640E2219D8B40FD01CC35F
:10118800D9FF1DC3DAFFDECFE1F1DDCFE2F1E1C126
:1011980018F3E2C119F31A6B1B6B0DD01CC3D9FFEE
:1011A8001DC3DAFFDECF18F3DDCF19F3000E19BF28
:1011B800FF0E1A6F1B6F020E1C27000E1D23640EF4
:1011C8002219D8A40DD0800E1B5DD8A009D01B1FF2
:1011D8001A1F191F186D000E19231A231B231685B1
:1011E800000E216F0F0E206F000E2025D96E030E02
:1011F8002121DA6E000EDF6E18C360F019C361F0AA
:101208001AC362F01BC363F017510001646F656B6A
:10121800666B676B3EEC22F000016051300F0301F2
:10122800226F390E226502D0070E22272007D8A088
:101238002107000E2025D96E030E2121DA6E22C364
:10124800DFFF18C360F019C361F01AC362F01BC353
:1012580063F017510001646F656B666B676B4FEC49
:1012680021F060C018F361C019F362C01AF363C0BB
:101278001BF3030120512111D8B406D018511911BC
:101288001A111B11D8A4B8D720512111D8A416A51A
:101298000BD02007D8A02107000E2025D96E030EF9
:1012A8002121DA6E2D0EDF6E010E14250101E16F8A
:1012B800000E030115210101E26FE11FE21FE14B5E
:1012C800E22B100EE1250301146F000E0101E2214B
:1012D8000301156F16D0030116B104D0000E136F69
:1012E800200E03D0000E136F300E126F2007D8A007
:1012F8002107000E2025D96E030E2121DA6E12C3B4
:10130800DFFF20512111D8B40DD02051145D1551A3
:10131800800A0101E16F03012151800A0101E159AD
:10132800D8A0D9D7000E030120250101CF6F030EE5
:10133800030121210101D06FD5C1D1F1D6C1D2F16C
:10134800A6EC22F0CFC11EF3D0C11FF303011E513A
:1013580010271F5111231E2901E121D623D6000190
:1013680020EE04F0D751D926D851DA22000EDE6ECD
:10137800000EDD6E1F0EDB17D90E936F000E946FF3
:10138800DB511E0B956FE6EC02F00101DE6FDE51BA
:10139800D8B402D0DE511200E10E0001C06F010E78
:1013A800C16FCC0EC26F010EC36FD9C0C4F0DAC0D2
:1013B800C5F0DF0EC66F010EC76FADEC0EF0010170
:1013C800DE6FDBC0DCF01C0E0001DC17D8B4F6D0F1
:1013D8000101DE51D8B442D0020EDE19D8B402D0D1
:1013E800DE511200E10E0001C46F010EC56FDF0E61
:1013F800C66F010EC76F03EC10F00101DE6FDE51FE
:10140800D8B402D0DE511200DFC160F0E0C161F053
:10141800000E0001636F000E626F000E656F200EF4
:10142800646F43EC25F0DFC160F0E0C161F0CC0EE1
:101438000001626F010E636F000E656F0B0E646F23
:1014480020EC24F0010120EE0CF0DF51D926E05108
:10145800DA22D7C1DFFF0001DB8780D00001DBA5DE
:1014680002D0070E12000101DF51E011D8B40DD0EF
:1014780020EE0BF0DF51D926E051DA22DF500001CF
:10148800DC6F110EDC17D8B402D0060E1200DBA7F1
:1014980065D0010120EE1AF0DF51D926E051DA2299
:1014A800DECFD8F1DDCFD9F120EE1AF0DF51D92601
:1014B800E051DA22000EDE6E000EDD6E20EE1CF02A
:1014C800DF51D926E051DA22DE6ADE6ADE6ADD6A99
:1014D80020EE1FF0E551D926E651DA22010EDF6E23
:1014E80020EE04F0E551D926E651DA22DECFDAF112
:1014F800DECFDBF1DECFDCF1DECFDDF1D8C1B6F037
:10150800D9C1B7F01AEC1EF00009D8B40DD0DAC171
:101518008BF0DBC18CF0DCC18DF0DDC18EF0ADEC61
:1015280016F00009D8A402D0080E1200FF0E000120
:10153800DC6FFF0EDD6FD8C1DEF0D9C1DFF0DC5102
:10154800DE27DD51DF23010120EE18F0E551D92611
:10155800E651DA22DEC0DEFFDFC0DDFF0001DBA7D7
:101568004FD0010120EE0BF0DF51D926E051DA22ED
:10157800000EDF6E14EC1CF060C0DAF161C0DBF124
:1015880062C0DCF163C0DDF1010120EE0EF0DF5135
:10159800D926E051DA22DAC1DEFFDBC1DEFFDCC189
:1015A800DEFFDDC1DEFF20EE1FF0E551D926E65152
:1015B800DA22010EDF6E0001DB8B22D00101DE5141
:1015C800D8B402D0DE511200DF51E011D8B408D0EF
:1015D80020EE0BF0DF51D926E051DA22DFA802D045
:1015E800020E12000001DBA30BD0010120EE0BF06C
:1015F800DF51D926E051DA22DFA002D0060E120010
:10160800010120EE04F0E551D926E651DA22000165
:1016180010EE16F0D751E126D851E222DECFE6FFD0
:10162800DECFE6FFDECFE6FFDECFE6FF20EE1AF0E4
:10163800D751D926D851DA22DFC1DEFFE0C1DDFF5C
:1016480020EE02F0D751D926D851DA22DBC0DFFFCD
:10165800010120EE1AF0DF51D926E051DA2200010B
:1016680010EE0EF0D751E126D851E222DECFE6FF88
:10167800DDCFE5FF010120EE1CF0DF51D926E05156
:10168800DA22000110EE0AF0D751E126D851E22201
:10169800DECFE6FFDECFE6FFDECFE6FFDECFE6FFFA
:1016A80020EE06F0D751D926D851DA22DE6ADE6A52
:1016B800DE6ADD6A20EE03F0D751D926D851DA2246
:1016C800FF0EDF6E20EE04F0D751D926D851DA226A
:1016D800E5C1DEFFE6C1DDFFE5C1D9FFE6C1DAFFFE
:1016E800D7C0E1FFD8C0E2FFDECFE6FFDDCFE5FFE0
:1016F800000E1200000E0001756F000E746F000ED0
:10170800786F000E776F000E7E6F000E7D6F000EF3
:101718007F6F100E0001736F940EE82EFED7732FA3
:10172800FCD700F0640E8CEC24F0BFEC1EF0AA0E7F
:101738000001656F010E666F000E676F000E686F1F
:10174800870E696F480E72EC22F086EC26F080EC6A
:1017580026F000017B6F7B05D8A404D07B517A6FFB
:10176800796B06D0AA0E7B19D8A402D07B517913C5
:10177800774B782BAA0E791903E17A05D8B408D0EB
:1017880078BFE5D7E80E775D030E7859D8A0DFD784
:10179800AA0E791902E17A05D8A4B1D0000E786FA3
:1017A800000E776F000E7E6F000E7D6F7F690A0E48
:1017B8008CEC24F0000E0001656F000E666F000EC1
:1017C800676F000E686F000E696F770E72EC22F07B
:1017D80000017F6986EC26F080EC26F000017F6F1F
:1017E8007D4B7E2B7F05D8B408D07EBFF5D77E51C0
:1017F80004E10A0E7D5DD8A0EFD7000E7E6F000EC3
:101808007D6F0A0E8CEC24F0000E0001656F000E4F
:10181800666F000E676F400E686F000E696F690E85
:1018280072EC22F086EC26F080EC26F000017F6F47
:101838007D4B7E2B7F51D8A4BAD77F690A0E8CECDA
:1018480024F0000E0001656F000E666F000E676FD2
:10185800000E686FFF0E696F7A0E72EC22F086EC4C
:1018680026F080EC26F000017F6F7F517F25800BEA
:101878007C6F7D4B7E2B7C51D8B40BD07C05D8B4C3
:1018880008D07EBFEED77E5104E10A0E7D5DD8A058
:10189800E8D77C51D8B403D07C05D8A483D7000EF0
:1018A800786F000E776F100E0001736F940EE82E9C
:1018B800FED7732FFCD700F0000E0001766F7C5125
:1018C800D8A4B9D00A0E8CEC24F0000E0001656F84
:1018D800020E666F000E676F000E686FFF0E696F6D
:1018E800500E72EC22F086EC26F000017F6980EC45
:1018F80026F000017F6F7F51D8B49DD0F8D7000E35
:101908007E6F000E7D6F7F69010E8CEC24F0000E57
:101918000001656F000E666F000E676F000E686F3E
:10192800FF0E696F690E72EC22F086EC26F080ECEF
:1019380026F000017F6F7D4B7E2B7F51D8A40CD001
:10194800000E626F010E91EC21F0450E0001626FEE
:10195800620E636F5CEC23F0100E0001736F940E3F
:10196800E82EFED7732FFCD700F000017F51D8B4C2
:1019780008D07EBFDCD7100E7D5D270E7E59D8A01B
:10198800D6D77F690A0E7D197E11D8A438D0000EEB
:101998007E6F000E7D6F0A0E8CEC24F0000E0001A5
:1019A800656F000E666F000E676F000E686FFF0EA2
:1019B800696F410E72EC22F086EC26F080EC26F07E
:1019C80000017F6F7D4B7E2B7F51D8A40CD0000E79
:1019D800626F010E91EC21F02F0E0001626F620E12
:1019E800636F5CEC23F000017F51D8B408D07EBF50
:1019F800E5D7100E7D5D270E7E59D8A0DFD70A0ED9
:101A08008CEC24F0000E0001656F020E666F000E6C
:101A1800676F000E686FFF0E696F500E72EC22F050
:101A280086EC26F000017F6980EC26F000017F6FCC
:101A38007F51D8A4F9D776511200FF0E0201216F09
:101A48000B0E2C6FFF0E556F230E606F170E896FEC
:101A5800230E946FF30EBD6F0B0EC86F21EEA4F02A
:101A680010EE73F00A0EDBCFE3FFE806FCE221EE8E
:101A780099F010EE7EF00A0EDBCFE3FFE806FCE2F9
:101A8800000E0001896F000E8F6F000E8E6F7AECCA
:101A980026F060C08AF061C08BF074EC26F060C05C
:101AA8008CF061C08DF0000E0001906F0A0E9065F9
:101AB80001D034D08AC0D9FF8BC0DAFF9051010D14
:101AC800730EF324E16E000EF420E26EDFCFE7FF21
:101AD8008CC0D9FF8DC0DAFF9051010D7E0EF32422
:101AE800E16E000EF420E26EDFCFE7FF8A4B8B2B0E
:101AF8008C4B8D2B902BDAD7000E906F040E9065CF
:101B080001D00BD08E51010DF70EF324D96E000EC3
:101B1800F420DA6EDF80902BF1D78E2B030E8E65C2
:101B2800EBD7000E8F6FE2D0060E906F0A0E90650D
:101B380001D0DCD09051010D730EF324D96E000E44
:101B4800F420DA6E9051010D160EF326000EF422E1
:101B5800000E6E6F020E6F6FF3506E27F4506F23F6
:101B68008F51340DF3506E25E16EF4506F21E26E03
:101B7800DE50E618D8B449D0000E8E6F0A0E906574
:101B880001D043D08F51340D160EF326000EF422E7
:101B9800000EF324666F020EF420676F98EC1CF0B9
:101BA80066C06DF067C06EF000018F51340D000EF5
:101BB800F324666F020EF420676F98EC1CF00001A6
:101BC800661F671F664B672B66516D256F6F6751E0
:101BD8006E21706F716B70BF71077151726F8F5189
:101BE800340D2C0EF326000EF422000EF324D96EC9
:101BF800020EF420DA6E6FC0DEFF70C0DEFF71C027
:101C0800DEFF72C0DEFF8E2BB9D79051010D7E0E1C
:101C1800F324D96E000EF420DA6E9051010D210ED6
:101C2800F326000EF422000E6E6F020E6F6FF35053
:101C38006E27F4506F238F51340DF3506E25E16EEB
:101C4800F4506F21E26EDE50E618D8B44DD0000E85
:101C58008E6F0A0E906501D047D08F51340D210E3A
:101C6800F326000EF422000EF324666F020EF42011
:101C7800676F98EC1CF066C06DF067C06EF00001ED
:101C88008F51340D0B0EF326000EF422000EF324B0
:101C9800666F020EF420676F98EC1CF00001661F57
:101CA800671F664B672B66516D256F6F67516E21F5
:101CB800706F716B70BF71077151726F8F51340DF6
:101CC800300EF326000EF422000EF324D96E020E15
:101CD800F420DA6E6FC0DEFF70C0DEFF71C0DEFF79
:101CE80072C0DEFF8E2BB5D7902B20D7030E8F65E1
:101CF8001BD702D0F79111D08F51340D0B0EF3265C
:101D0800000EF422000EF324D96E020EF420DA6ECF
:101D1800DF502D0AEFD7F8910BD08F51340D000EFC
:101D2800F324D96E020EF420DA6EDF502D0AF3D7B1
:101D3800F7A11200F8A11200000E626F010E91ECDB
:101D480021F0D80E0001626F610E636F5CEC23F026
:101D58001200000E0001D56F000ED66FFDC0D0F046
:101D6800FEC0D1F020EE04F0C051D926C151DA22CC
:101D7800D0C0DEFFD1C0DDFF20EE0CF0D051D92657
:101D8800D151DA22DECFD2F0DDCFD3F020EE06F04B
:101D9800C051D926C151DA22000EDE6E000EDD6E6A
:101DA80010EE08F0C051E126C151E222DECFE6FF75
:101DB800DDCFE5FFD251C86FD351C96FCA6BCB6B6A
:101DC80020EE0AF0C051D926C151DA22C8C0DEFF80
:101DD800C9C0DEFFCAC0DEFFCBC0DEFF20EE02F0C6
:101DE800C051D926C151DA22000EDE6E000EDD6E1A
:101DF800C4C0F6FFC5C0F7FFF86A070EF76403D042
:101E08000800F55005D0F6CFE9FFF7CFEAFFEF500D
:101E18000009D8A40AD0C6C0D9FFC7C0DAFF000E8F
:101E2800DE6E000EDD6E000E1200C40E0001686F3B
:101E3800000E696FC2C06AF0C3C06BF04CEC18F0BA
:101E48000001D46FD405D8A402D0040E12000001FA
:101E580020EE0AF0C051D926C151DA22DECF8BF02C
:101E6800DECF8CF0DECF8DF0DECF8EF0ADEC16F04D
:101E78000009D8A402D0080E1200000120EE02F0DA
:101E8800C051D926C151DA22DECFC8F0DDCFC9F062
:101E98000F0EC817000EC917050ED890C837C937D6
:101EA800E82EFBD7200EC827000EC923C851D0251D
:101EB800D56FC951D121D66FD5C0D9FFD6C0DAFFA9
:101EC800DF50D8A40DD0D451D8B404D0000ECD6FB3
:101ED800030E03D0000ECD6F020ECC6FCC51120052
:101EE800D5C0D9FFD6C0DAFFE50EDE18D8B41BD0AE
:101EF80020EE0BF0D551D926D651DA22DFB613D011
:101F0800D5C060F0D6C061F0C2C062F0C3C063F053
:101F1800000E656F0B0E646F11EC1FF0000160512D
:101F28006111D8B417D0C0C0B3F0C1C0B4F088EC08
:101F380017F00009D8A48BD70001D451D8B404D025
:101F4800000ECF6F030E03D0000ECF6F020ECE6FC0
:101F5800CE511200D451D8A40AD0C6C0D9FFC7C0E8
:101F6800DAFFD5C0DEFFD6C0DDFF000E120020EE7E
:101F78000BF0D551D926D651DA22DFB802D0030E9C
:101F8800120020EE1AF0D551D926D651DA22DECF2A
:101F9800D2F0DDCFD3F020EE06F0C051D926C151E2
:101FA800DA22D2C0DEFFD3C0DDFF10EE08F0C05148
:101FB800E126C151E222DECFE6FFDDCFE5FFD2C048
:101FC8006CF0D3C06DF06BEC1DF0000120EE0AF050
:101FD800C051D926C151DA226CC0DEFF6DC0DEFFC8
:101FE8006EC0DEFF6FC0DEFF20EE02F0C051D926C2
:101FF800C151DA22020EDE6E000EDD6E16D7000128
:1020080020EE04F0C451D926C551DA22DECFD4F02F
:10201800DDCFD5F020EE06F0C451D926C551DA221D
:10202800DECFD2F0DDCFD3F0D251D311D8B420D047
:1020380020EE08F0C451D926C551DA22D2C0DEFFFD
:10204800D3C0DDFFD2C06CF0D3C06DF06BEC1DF0D7
:10205800000120EE0AF0C451D926C551DA226CC01D
:10206800DEFF6DC0DEFF6EC0DEFF6FC0DEFF14D086
:1020780020EE0CF0D451D926D551DA2210EE0AF010
:10208800C451E126C551E222DECFE6FFDECFE6FFEE
:10209800DECFE6FFDECFE6FF20EE02F0C451D92600
:1020A800C551DA22000EDE6E000EDD6E000120EE54
:1020B8000AF0C451D926C551DA22DECF8BF0DECF23
:1020C8008CF0DECF8DF0DECF8EF0ADEC16F000098F
:1020D800D8A402D0080E1200000120EE02F0C4516C
:1020E800D926C551DA22DECFC8F0DDCFC9F00F0EF0
:1020F800C817000EC917050ED890C837C937E82E7B
:10210800FBD7200EC827000EC923C851D425CF6F8E
:10211800C951D521D06FCFC0D9FFD0C0DAFFDF5069
:10212800D16FD151D8B404D0E50ED119D8A40AD0B2
:10213800C6C0D9FFC7C0DAFFCFC0DEFFD0C0DDFF01
:10214800000E1200C4C0B3F0C5C0B4F088EC17F09C
:102158000009D8A4ABD70001D251D311D8B415D0F7
:1021680020EE08F0C451D926C551DA22DECFB6F0E8
:10217800DDCFB7F0CDEC15F0B6C0D2F0B7C0D3F0D4
:102188000001D251D311D8A402D0060E1200D205F4
:10219800D311D8B40DD0000E8B6F000E8C6F000ECB
:1021A8008D6F000E8E6FADEC16F00009D8A402D02A
:1021B800080E1200D2C06CF0D3C06DF06BEC1DF0AD
:1021C8006CC0CAF06DC0CBF06EC0CCF06FC0CDF063
:1021D800000120EE04F0D451D926D551DA22CAC024
:1021E800DEFFCBC0DEFFCCC0DEFFCDC0DEFF200EA1
:1021F800D425606F000ED521616F000E636F000E4D
:10220800626F020E656F000E646F43EC25F00001EB
:1022180020EE1DF0D451D926D551DA22DF50CE6FE9
:1022280020D0200ED4257F6F000ED521806FCAC024
:1022380081F0CBC082F0CCC083F0CDC084F0010E19
:10224800856F000E86EC20F00009D8B402D0080E85
:102258001200010E0001CA27000ECB23CC23CD2388
:10226800CE07CE51D8A4DDD720EE1FF0D451D92601
:10227800D551DA22010EDF6E200ED425C86F000E6C
:10228800D521C96FC6C0D9FFC7C0DAFFC8C0DEFFF5
:10229800C9C0DDFF000E12000A6E0AC00BF03BD168
:1022A8003704D8A404D0000E2D6E010E2C6E020E39
:1022B8003718D8A404D0000E2B6E010E2A6E2C50AD
:1022C8002D10D8B412002A502B10D8B41200000ECA
:1022D8002B6E000E2A6E2AC02CF02BC02DF0120097
:1022E800000E386E38C036F012003850010D620EFC
:1022F800F324D96E010EF420DA6E000EDF6E36502C
:10230800D8A430D0620E016E010E026E930E036ED9
:10231800010E046E000E066E000E056EAEEC23F084
:10232800930E016E010E026E720E036E620E046E43
:1023380068EC24F001500210D8A402D0010E11D08C
:10234800930E016E010E026E6C0E036E620E046E29
:1023580068EC24F001500210D8A402D0020E01D07B
:10236800030E376E3604D8A411D03704D8A40ED083
:10237800620E016E010E026E6E0E036E010E046E89
:10238800000E066E000E056EAEEC23F0030E361836
:10239800D8A411D03704D8A40ED0620E016E010E55
:1023A800026E550E036E010E046E000E066E010ECF
:1023B800056EAEEC23F0040E3618D8A40CD0370402
:1023C800D8A409D04E0E01016219D8A402D0300E4B
:1023D80001D02D0E556F050E3618D8A411D037042C
:1023E800D8A40ED0620E016E010E026E480E036E66
:1023F800010E046E000E066E010E056EAEEC23F0A3
:10240800060E3618D8A40CD03704D8A409D0450E27
:1024180001016219D8A402D0300E01D02D0E486FE8
:10242800070E3618D8A411D03704D8A40ED0620EDF
:10243800016E010E026E8D0E036E010E046E000E0B
:10244800066E000E056EAEEC23F0080E3618D8A402
:1024580011D03704D8A40ED0620E016E010E026EA0
:10246800870E036E010E046E000E066E000E056EDA
:10247800AEEC23F0090E3618D8A411D03704D8A42E
:102488000ED0620E016E010E026E800E036E010EFA
:10249800046E000E066E000E056EAEEC23F0070EFD
:1024A8003618D8A412D0020E3718D8A40ED0620E4F
:1024B800016E010E026E3B0E036E000E046E000EDE
:1024C800066E000E056EAEEC23F0090E3618D8A481
:1024D80012D0020E3718D8A40ED0620E016E010E6B
:1024E800026E790E036E010E046E000E066E000E6B
:1024F800056EAEEC23F0362A000E386E1200385006
:10250800010D620EF324D96E010EF420DA6E0BC0B1
:10251800DFFF382A12000B500D0AD8B4C1D6290A99
:10252800D8B4DED6080AD8B4E0D6E9D7FDC0B4F0EE
:10253800FEC0B5F0000120EE08F0B451D926B5511F
:10254800DA22DECFACF0DECFADF0DECFAEF0DECFFC
:10255800AFF011D1A0C060F0A1C061F0000E636FB0
:10256800030E626FB3EC25F0D89000016131A46FBF
:102578006031B06FA4C0B1F0B0C0A4F0B1C0A5F094
:10258800090EA66FD890A533A433A62FFBD7A45164
:10259800AC258B6FA551AD218C6F000EAE218D6FD0
:1025A800000EAF218E6FADEC16F00009D8A402D052
:1025B800000E1200FF0E0001A46F010EA56FB0C03F
:1025C800A6F0B1C0A7F0A451A617A551A717200ED1
:1025D800A627000EA723A651B425B26FA751B5218F
:1025E800B36FA0B104D0A2C0A8F0A96B1AD0A251B1
:1025F800A46FA56BA43BA53BF00EA517A4510F0B28
:10260800A513F00EA417B2C0D9FFB3C0DAFFDF508C
:102618000F0BA66FA76BA451A611A86FA551A71100
:10262800A96FB2C0D9FFB3C0DAFFA8C0DFFFB04BB3
:10263800B12B20EE1FF0B451D926B551DA22010E84
:10264800DF6EB0C0A4F0B1C0A5F0090EA66FD89097
:10265800A533A433A62FFBD7A451AC258B6FA55166
:10266800AD218C6F000EAE218D6F000EAF218E6FE5
:10267800ADEC16F00009D8A402D0000E1200FF0E2F
:102688000001A46F010EA56FB0C0A6F0B1C0A7F0FD
:10269800A451A617A551A717200EA627000EA723F9
:1026A800A651B425B26FA751B521B36FA0B113D00D
:1026B800A2C0A4F0A3C0A5F0A5C0A4F0A56B0F0EFE
:1026C800A417B2C0D9FFB3C0DAFFDF50F00BA411D2
:1026D800A66FA6510CD0A2C0A4F0A3C0A5F0040E0A
:1026E800A66FD890A533A433A62FFBD7A451AA6F01
:1026F800AB6BB2C0D9FFB3C0DAFFAAC0DFFF49D0C5
:10270800A0C0A4F0A1C0A5F0A5C0A4F0A56BA451D9
:10271800AC258B6FA551AD218C6F000EAE218D6F4E
:10272800000EAF218E6FADEC16F00009D8A402D0D0
:10273800000E1200FF0E0001A46F010EA56FA0C0CD
:10274800A6F0A1C0A7F0D890A637A737A451A6171E
:10275800A551A717200EA627000EA723A651B4251A
:10276800D96EA751B521DA6EA2C0DEFFA3C0DDFF86
:1027780010D0000E120020EE1CF0B451D926B5512D
:10278800DA22DF50010AD8B4E5D6030AD8B4B8D79C
:10279800F0D720EE1FF0B451D926B551DA22010E38
:1027A800DF6E010E1200FDC0B1F0FEC0B2F00001F4
:1027B800A15104E1020EA05DD8A000D120EE16F0D0
:1027C800B151D926B251DA22DE50A05DDE50A159AE
:1027D800D8B0F4D020EE08F0B151D926B251DA229F
:1027E800DECFABF0DECFACF0DECFADF0DECFAEF0BB
:1027F800D8D0A0C060F0A1C061F0000E636F030ED6
:10280800626FB3EC25F0D89000016131A26F60319E
:10281800AF6FA2C0B0F0AFC0A2F0B0C0A3F0090E75
:10282800A46FD890A333A233A42FFBD7A251AB2512
:102838008B6FA351AC218C6F000EAD218D6F000EF4
:10284800AE218E6FADEC16F00009D8B4B7D0FF0EEC
:102858000001A26F010EA36FAFC0A4F0B0C0A5F035
:10286800A251A417A351A517200EA427000EA52333
:10287800A451B125D96EA551B221DA6EDF50A66FE9
:10288800A651A96FAA6BAF4BB02BAFC0A2F0B0C0D6
:10289800A3F0090EA46FD890A333A233A42FFBD7BB
:1028A800A251AB258B6FA351AC218C6F000EAD21CB
:1028B8008D6F000EAE218E6FADEC16F00009D8B406
:1028C8007DD0FF0E0001A26F010EA36FAFC0A4F070
:1028D800B0C0A5F0A251A417A351A517200EA42794
:1028E800000EA523A451B125D96EA551B221DA6EE7
:1028F800DF50A66FA651A86FA76BA751A913A851BF
:10290800AA13A0B107D0FF0EA915A06F0F0EAA1524
:10291800A16F1200A9C0A2F0AAC0A3F0040EA46F70
:10292800D890A333A233A42FFBD7A2C0A0F0A3C092
:10293800A1F01200A0C0A2F0A1C0A3F0A3C0A2F011
:10294800A36BA251AB258B6FA351AC218C6F000EEA
:10295800AD218D6F000EAE218E6FADEC16F0000923
:10296800D8B42CD0FF0E0001A26F010EA36FA0C037
:10297800A4F0A1C0A5F0D890A437A537A251A417F8
:10298800A351A517200EA427000EA523A451B125F5
:10299800D96EA551B221DA6EDECFA0F0DDCFA1F05D
:1029A800120020EE1CF0B151D926B251DA22DF50C4
:1029B800010AD8B41ED7030AD8B4BCD7000E000148
:1029C800A16F010EA06F1200000E0001786F000EBB
:1029D800776F000E7A6F000E796F010E72656CD0FA
:1029E8008B9E8A980A0E8CEC24F000017251656F58
:1029F800666B676B686BFF0E696F570E72EC22F09F
:102A080086EC26F080EC26F000017E6F7E51D8A47B
:102A1800F9D70A0E8CEC24F06EC073F06FC074F016
:102A280070C075F071C076F0090ED8900001733748
:102A3800743775377637E82EF8D773C065F074C0E9
:102A480066F075C067F076C068F0FF0E696F590EC2
:102A580072EC22F086EC26F080EC26F000017E6F06
:102A68007E51D8A4F9D7010E8CEC24F0FC0E38EC7A
:102A780026F0000E00017D6F000E7C6F7DBF04D034
:102A8800020E7D5DD8B00DD06CC0D9FF6DC0DAFFE5
:102A9800DF5038EC26F000016C4B6D2B7C4B7D2B06
:102AA800EDD78CEC26F08CEC26F0010E8CEC24F0A3
:102AB800FD0E38EC26F06AD08B9E8A980A0E8CECB4
:102AC80024F06EC073F06FC074F070C075F071C000
:102AD80076F0090ED890000173377437753776375A
:102AE800E82EF8D773C065F074C066F075C067F05B
:102AF80076C068F0000E696F580E72EC22F086EC12
:102B080026F080EC26F000017E6F7E51D8A4F9D71C
:102B18008A988B9E010E8CEC24F0FE0E38EC26F081
:102B2800000E00017D6F000E7C6F7DBF04D0020E89
:102B38007D5DD8B00DD06CC0D9FF6DC0DAFFDF5015
:102B480038EC26F000016C4B6D2B7C4B7D2BEDD7C0
:102B58008CEC26F08CEC26F00A0E8CEC24F0000E9F
:102B68000001656F000E666F000E676F000E686FDC
:102B7800000E696F4D0E72EC22F086EC26F080ECA8
:102B880026F000017E6F7E51D8A4F9D700017B5151
:102B98001200FDC0BCF0FEC0BDF0000120EE16F032
:102BA800BC51D926BD51DA22DECFBAF0DDCFBBF059
:102BB800B651B711D8A41BD020EE18F0BC51D926B5
:102BC800BD51DA22DECFC0F0DDCFC1F0C15104E142
:102BD800020EC05DD8A006D0BA51C05DBB51C15924
:102BE800D8A02AD0000EC16F010EC06F25D0B6C084
:102BF800A0F0B7C0A1F0D7EC13F0A0C0BEF0A1C000
:102C0800BFF00001BF5109E1020EBE5DD8B005D08A
:102C1800000EB76F010EB66F1200BA51BE5DBB5100
:102C2800BF59D8B005D0BEC0B6F0BFC0B7F01200CB
:102C3800B6C0C0F0B7C0C1F0C0C0C2F0C1C0C3F0D8
:102C4800C24BC32BBA51C25DBB51C359D8A00FD0D8
:102C5800000EC36F020EC26FC251C05DC351C1598D
:102C6800D8B005D0000EB76F000EB66F1200C2C004
:102C7800A0F0C3C0A1F0D7EC13F0A0C0BEF0A1C073
:102C8800BFF00001BE51BF11D8B415D0BE05BF11A9
:102C9800D8A405D0000EB76F010EB66F1200C05150
:102CA800C219CEE1C151C319D8A4CAD7000EB76F53
:102CB800000EB66F1200C2C0A0F0C3C0A1F0FF0E94
:102CC800A36FA2699AEC12F00009D8A406D0000EEE
:102CD8000001B76F010EB66F12000001B651B711AF
:102CE800D8B413D0B6C0A0F0B7C0A1F0C2C0A2F04B
:102CF800C3C0A3F09AEC12F00009D8A406D0000EC5
:102D08000001B76F010EB66F1200000120EE18F037
:102D1800BC51D926BD51DA22C2C0DEFFC3C0DDFFD7
:102D280020EE1AF0BC51D926BD51DA22DE2803E183
:102D3800DE28D8B409D020EE1AF0BC51D926BD51EE
:102D4800DA22DE06000EDD5AC2C0B6F0C3C0B7F004
:102D58001200FDC09EF0FEC09FF0000120EE04F0BE
:102D68009E51D9269F51DA22DECF9AF0DECF9BF012
:102D7800DECF9CF0DECF9DF08B519A190AE18C5181
:102D88009B1907E18D519C1904E18E519D19D8B406
:102D9800B9D020EE1FF09E51D9269F51DA22DF507C
:102DA800D8B483D0200E9E257F6F000E9F21806FA0
:102DB8009AC081F09BC082F09CC083F09DC084F0D3
:102DC800010E856F000E86EC20F00009D8B402D001
:102DD800000E1200000120EE1FF09E51D9269F51CF
:102DE800DA22000EDF6E20EE08F09E51D9269F51A0
:102DF800DA22DECF8FF0DECF90F0DECF91F0DECF9B
:102E080092F020EE14F09E51D9269F51DA22DECF9F
:102E180093F0DDCF94F093518F25956F94519021C5
:102E2800966F000E9121976F000E9221986F955121
:102E38009A5D96519B5997519C5998519D59D8B074
:102E480034D020EE1EF09E51D9269F51DA22DF5051
:102E5800996F020E996101D028D020EE14F09E518E
:102E6800D9269F51DA22DECF8FF0DDCF90F08F5137
:102E78009A2790519B23000E9C23000E9D23200E21
:102E88009E257F6F000E9F21806F9AC081F09BC0A6
:102E980082F09CC083F09DC084F0010E856F000E07
:102EA80086EC20F000019907D4D78B518C118D1135
:102EB8008E11D8B427D0200E9E257F6F000E9F213B
:102EC800806F8BC081F08CC082F08DC083F08EC083
:102ED80084F0010E856F000EB2EC1FF00009D8B423
:102EE80002D0000E1200000120EE04F09E51D926F7
:102EF8009F51DA228BC0DEFF8CC0DEFF8DC0DEFF63
:102F08008EC0DEFF010E1200000120EE02F0B35168
:102F1800D926B451DA22DECFB5F0DDCFB6F0010EF6
:102F2800B525BE6F000EB621BF6F0F0EBE15B56F6B
:102F3800000EBF15B66FB551B611D8A49DD020EEBE
:102F48000AF0B351D926B451DA22DE2A000EDE2265
:102F5800DE22DE2220EE08F0B351D926B451DA225F
:102F6800DE50DE10D8A414D020EE04F0B351D926D8
:102F7800B451DA2210EE02F0DE50E126DD50E222F2
:102F8800E650BE5DE650BF59D8A076D0000E1200BC
:102F9800BEC0B5F0BFC0B6F0040EB76FD890B63358
:102FA800B533B72FFBD7FF0EB86FFF0EB96F20EE02
:102FB80004F0B351D926B451DA2210EE1DF0DE50D8
:102FC800E126DD50E222E750BA6FBB6BB851BA2751
:102FD800B951BB23B551BA17B651BB17BA51BB117A
:102FE800D8A44AD020EE08F0B351D926B451DA2239
:102FF800DECFA0F0DDCFA1F0D7EC13F0A0C0BCF07D
:10300800A1C0BDF00001BD5104E1020EBC5DD8A015
:1030180012D020EE04F0B351D926B451DA2210EEC2
:1030280016F0DE50E126DD50E222E650BC5DE650A7
:10303800BD59D8A002D0000E120020EE08F0B351FE
:10304800D926B451DA22BCC0DEFFBDC0DDFFBCC04A
:103058006CF0BDC06DF06BEC1DF0000120EE0AF0C5
:10306800B351D926B451DA226CC0DEFF6DC0DEFF41
:103078006EC0DEFF6FC0DEFF20EE02F0B351D9262E
:10308800B451DA22BEC0DEFFBFC0DDFF010E120060
:103098006AC060F06BC061F0000E0001636F200E23
:1030A800626F000E656F0B0E646F43EC25F0000E27
:1030B8000001726F180E706F000E736F080E716F3B
:1030C80068C0D9FF69C0DAFFDFCF6CF0010EDE26D9
:1030D800DFCF6DF0000EDD226CC0F6FF6DC0F7FF8C
:1030E800F86A070EF76403D00800F55005D0F6CF4C
:1030F800E9FFF7CFEAFFEF500001746F7451D8B4BD
:1031080004D02F0E7419D8A413D07351D8B475D025
:10311800725170156C6F6C516E6F6F6B20EE0BF007
:103128006A51D9266B51DA226EC0DFFF7451120042
:10313800200E746562D07F0E7419D8B45ED02E0E3E
:103148007419D8A40CD072B158D07351D8B455D0D2
:10315800090E736152D0080E736F0B0EB0D7220E92
:103168007419D8B44AD02A0E746101D035D02D0E06
:10317800746101D042D03A0E746101D02DD0400E56
:10318800746101D03AD072B127D07C0E7419D8B4CA
:1031980034D05A0E746504D05E0E746101D02DD0FF
:1031A800400E74650AD05B0E746107D0080E711961
:1031B800D8A402D0709701D07099600E74650CD0B5
:1031C8007B0E746109D0200E745F080E7119D8A4A3
:1031D80002D0728701D0728972917151735DD8B033
:1031E8000CD07351010DF3506A25D96EF4506B2140
:1031F800DA6E74C0DFFF732B63D7010E120006006E
:10320800FACF0EF0FBCF0FF0E9CF10F0EACF11F0B4
:10321800E1CF12F0E2CF13F0D9CF14F0DACF15F0E6
:10322800F3CF16F0F4CF17F0F6CF18F0F7CF19F068
:10323800F8CF1AF0F5CF1BF03FC01CF040C01DF0CE
:1032480041C01EF042C01FF09DBA9EAA14D09E9A9B
:103258005DEC26F03A6E3A5050EC11F081B403D090
:103268000C6A0C2A01D00C6A0C460C4681500C18CA
:10327800FB0B0C18816EF2B4F2A43ED0F294010E4E
:103288000001FF6F000E206E020E206401D020D0D6
:103298002050020D220EF324D96E000EF420DA6EAF
:1032A800DE50DE10D8B40BD02050020D220EF324CD
:1032B800D96E000EF420DA6EDE06000EDD5A2E50AE
:1032C8002F10D8B403D02E06D8A02F06202ADCD77A
:1032D8003904D8A40BD03006D8A0310630503110AC
:1032E800D8A404D0000EFA6E000EF96E000E026E1D
:1032F800830E016E54EC26F0F2B2F2A801D0F292DD
:103308001FC042F01EC041F01DC040F01CC03FF07D
:103318001BC0F5FF1AC0F8FF19C0F7FF18C0F6FF69
:1033280017C0F4FF16C0F3FF15C0DAFF14C0D9FFA9
:1033380013C0E2FF12C0E1FF11C0EAFF10C0E9FFAD
:103348000FC0FBFF0EC0FAFF3F921100000E0001F4
:10335800776F0A0E8CEC24F06EC073F06FC074F0B7
:1033680070C075F071C076F0090ED89000017337FF
:10337800743775377637E82EF8D773C078F074C08D
:1033880079F075C07AF076C07BF06E056F11701118
:103398007111D8B41DD00A0E8CEC24F078C065F0F9
:1033A80079C066F07AC067F07BC068F0000E000153
:1033B800696F520E72EC22F086EC26F080EC26F053
:1033C80000017E6F7E51D8A4F9D786EC26F021D073
:1033D8000A0E8CEC24F06EC065F06FC066F070C009
:1033E80067F071C068F0000E0001696F510E72EC51
:1033F80022F086EC26F080EC26F000017E6F7E51EC
:10340800D8A4F9D786EC26F004D080EC26F0000189
:103418007E6FFE0E00017E19D8A4F7D7000E7D6FCF
:10342800000E7C6F0CD07C516C25D96E7D516D21BE
:10343800DA6E80EC26F0DF6E00017C4B7D2B7DBFC1
:10344800F2D7020E7D5DD8A0EED7000E7D6F000E7C
:103458007C6F0A0E8CEC24F0000E0001656F000EE4
:10346800666F000E676F000E686F000E696F4C0E76
:1034780072EC22F086EC26F080EC26F000017E6FDC
:103488007E29D8A4F9D7000E7D6F000E7C6F000E40
:1034980012006EC072F06FC073F070C074F071C02B
:1034A80075F0060ED8900001723773377437753788
:1034B800E82EF8D7721F731F741F751F722B000E2A
:1034C800732374237523000E7225606F6C0E7321AD
:1034D800616FDC0E7421626F020E7521636F6EC01E
:1034E80076F06FC077F070C078F071C079F0060E92
:1034F800D8907637773778377937E82EF9D776C086
:1035080064F077C065F078C066F079C067F004ECC5
:103518001DF060C07AF061C07BF000017B05D8A087
:1035280044D06EC072F06FC073F070C074F071C098
:1035380075F0040ED8907237733774377537E82EE4
:10354800F9D7721F731F741F751F722B000E732318
:1035580074237523000E7225606F6C0E7321616FE2
:10356800DC0E7421626F020E7521636F6EC076F0F7
:103578006FC077F070C078F071C079F0040ED89001
:103588007637773778377937E82EF9D776C064F009
:1035980077C065F078C066F079C067F004EC1DF07C
:1035A80060C07AF061C07BF0AC8400017B05D8B0C4
:1035B80012007AC0AFFFAC98AB8E948E949CAB8807
:1035C800AC8A12000001686F66C060F067C061F0E5
:1035D800CFEC24F000016051696F7CD0000E6A6F57
:1035E800050E6A6501D0120066C0D9FF67C0DAFF10
:1035F8006A51010D070EF324E16E010EF420E26E0C
:10360800DFCFE7FF664B672B6A2BEAD7000E6A6F9E
:10361800050E6A6501D012D066C0D9FF67C0DAFF0F
:103628006A51010D000EF324E16E010EF420E26EE2
:10363800DFCFE7FF664B672B6A2BEAD7010E356EA3
:103648001200000E6A6F0C0E6A6501D0120066C087
:10365800D9FF67C0DAFF6A51010D120EF324E16E3B
:10366800010EF420E26EDFCFE7FF664B672B6A2B73
:10367800EAD7000E6A6F0C0E6A6501D0120066C0A8
:10368800D9FF67C0DAFF6A51010D1F0EF324E16EFE
:10369800010EF420E26EDFCFE7FF664B672B6A2B43
:1036A800EAD7000E6A6F11D066C0D9FF67C0DAFF8B
:1036B8006A51010D1F0EF324E16E010EF420E26E33
:1036C800DFCFE7FF664B672B6A2B69516A5DD8B07D
:1036D8001200EAD76851000AD8B480D7010AD8B4D2
:1036E80095D7030AD8B4ADD7010AD8B4C2D7070A08
:1036F800D8A41200D6D7000120EE04F0A251D92692
:10370800A351DA22DECF66F0DDCF67F0A2C0D9FF81
:10371800A3C0DAFFDECF68F0DDCF69F0D5EC23F087
:103728000001A86FA851D8A479D020EE02F0A251C8
:10373800D926A351DA22DFAA71D020EE16F0A251C1
:10374800D926A351DA22DECF8BF0DECF8CF0DECF84
:103758008DF0DECF8EF0ADEC16F00009D8A402D0C3
:10376800080E1200000120EE1AF0A251D926A3512A
:10377800DA22DECFA9F0DDCFAAF020EE0BF0A951B6
:10378800D926AA51DA22000EDB8A20EE0AF0A251CD
:10379800D926A351DA2210EE1CF0A951E126AA512C
:1037A800E222DECFE6FFDECFE6FFDECFE6FFDECFAA
:1037B800E6FF20EE0EF0A251D926A351DA2210EE30
:1037C8001AF0A951E126AA51E222DECFE6FFDDCFA9
:1037D800E5FF14EC1CF060C0A4F061C0A5F062C065
:1037E800A6F063C0A7F0000120EE16F0A951D92673
:1037F800AA51DA22A4C0DEFFA5C0DEFFA6C0DEFF04
:10380800A7C0DEFF20EE02F0A251D926A351DA228A
:10381800DF0EDF16D7EC22F00001A86FA8511200C6
:10382800D89000018F31656F8E31646F8C51666F4F
:103838008D51676F686B696B050ED890663767376F
:1038480068376937E82EF9D78A516A6F8B516B6FE1
:103858006C6B6D6B0B0ED8906A376B376C376D37A6
:10386800E82EF9D791C06EF06F6B706B716B6FC0FB
:1038780071F06EC070F06F6B6E6B91C072F0736B0D
:10388800746B756B150ED89072377337743775373C
:10389800E82EF9D792C076F0776B786B796B190EB2
:1038A800D8907637773778377937E82EF9D7725145
:1038B80076117A6F735177117B6F745178117C6F21
:1038C800755179117D6F6E517A117E6F6F517B1131
:1038D8007F6F70517C11806F71517D11816F6A51BA
:1038E8007E11826F6B517F11836F6C518011846FD1
:1038F8006D518111856F66518211866F67518311F1
:10390800876F68518411886F69518511896F645177
:103918008611606F65518711616F000E8811626FA3
:10392800000E8911636F120003D00001664B672BEC
:1039380066C0D9FF67C0DAFF200EDE18D8B4F5D705
:1039480066C0D9FF67C0DAFF090EDE18D8B4EDD714
:10395800000E00016C6F000E6B6F000E6A6F66C080
:10396800D9FF67C0DAFF2D0EDE18D8A402D06A2B63
:1039780026D066C0D9FF67C0DAFF2B0EDE18D8A4A0
:1039880020D01DD06BC060F06CC061F0000E00014B
:10399800636F0A0E626FB3EC25F066C0D9FF67C08B
:1039A800DAFFDF500001686F696B60516827615169
:1039B8006923D00E68256B6FFF0E69216C6F664B0B
:1039C800672B66C0D9FF67C0DAFFDF50D9EC25F056
:1039D800D8B0D8D700016A51D8B40DD06BC068F000
:1039E8006CC069F0681F691F684B692B68C066F076
:1039F80069C067F012006BC066F06CC067F0120017
:103A0800000E0001696F67AF0AD0671F661F651F48
:103A1800646D000E652366236723010E696F63AF2B
:103A28000AD0631F621F611F606D000E612362234D
:103A38006323010E691B000E6A6F000E6B6F000E88
:103A48006C6F000E6D6F6451651166116711D8B403
:103A58002AD0010E686F06D0D8906437653766376C
:103A68006737682B67AFF8D7D8906A376B376C37EA
:103A78006D376451605D655161596651625967518E
:103A88006359D8A009D06451605F6551615B665184
:103A9800625B6751635B6A81D890673366336533CD
:103AA8006433682FE1D76951D8B408D06D1F6C1FF3
:103AB8006B1F6A6D000E6B236C236D236AC060F068
:103AC8006BC061F06CC062F06DC063F01200FDC0A5
:103AD80075F0FEC076F0020E00016C5F000E6D5BA3
:103AE800FE0E706FFF0E716F20EE16F07551D9261D
:103AF8007651DA22DECF72F0DDCF73F07051722783
:103B08007151732372516C5D73516D59D8A009D0EE
:103B1800000E6C6F000E6D6F000E6E6F000E6F6FF3
:103B2800120020EE10F07551D9267651DA22DECF38
:103B380070F0DECF71F0DECF72F0DECF73F06CC0C4
:103B480060F06DC061F0626B636B20EE1DF0755123
:103B5800D9267651DA22DF50746F7451646F656B21
:103B6800666B676B30EC23F00001705160256C6F59
:103B7800715161216D6F725162216E6F73516321B2
:103B88006F6F120081966DEC26F0EAEC25F0230E9B
:103B98000001606F030E616F000EFBEC23F02C0E2A
:103BA8000001D76F010ED86FBD0ED96F010EDA6F05
:103BB800120EDB6FB3EC09F00009D8A431D02C0E3B
:103BC8000001C46F010EC56F36C1C6F037C1C7F01A
:103BD80038C1C8F039C1C9F07FEC05F02C0E0101DD
:103BE800D56F010ED66F810ED76F610ED86F070E95
:103BF800D96F010EDA6F000EDB6F010EDC6F120E4B
:103C0800DD6F010EDE6F1F0EDF6F010EE06FC4EC7B
:103C180007F02C0E0001AB6F010EAC6F72EC25F0B3
:103C2800818692EC26F0C7EC25F01200FDC0BCF0AE
:103C3800FEC0BDF039D0B6C0A0F0B7C0A1F0D7EC37
:103C480013F0A0C0BAF0A1C0BBF00001BA05BB11C7
:103C5800D8A402D0000E1200B6C0A0F0B7C0A1F0E0
:103C6800000EA36F000EA26F9AEC12F00009D8A400
:103C780002D0000E1200000120EE1AF0BC51D92625
:103C8800BD51DA22DE2803E1DE28D8B409D020EEBF
:103C98001AF0BC51D926BD51DA22DE2A000EDD22E7
:103CA800BAC0B6F0BBC0B7F00001B75104E1020ECC
:103CB800B65DD8A00CD020EE16F0BC51D926BD5167
:103CC800DA22DE50B65DDE50B759D8A0B4D7010E5F
:103CD8001200000E0001EA6F020EEA6501D0120020
:103CE800EA51020DF10EF324D96E000EF420DA6EBB
:103CF800DE50DE10D8B43DD0EA51020D220EF32476
:103D0800D96E000EF420DA6EDE50DE10D8A431D061
:103D1800010E396EEA0E316E600E306EEA51020DF8
:103D2800F10EF324D96E000EF420DA6E01D80AD011
:103D38000500FA6EDE50FD6EDE50FE6EF850FF6E26
:103D4800FA501200000E396E0001EA51020DEB0E16
:103D5800F324D96E000EF420DA6EEA51020D220E19
:103D6800F324E16E000EF420E26EDECFE6FFDDCF35
:103D7800E5FFEA2BB1D7000E00016D6F000E6C6FE6
:103D8800000E716F000E706F000E6F6F000E6E6F79
:103D9800000E656F000E666F000E676F000E686F8D
:103DA800950E696F400E72EC22F086EC26F080ECDE
:103DB80026F00001726F704B712B7205D8B408D0D1
:103DC80071BFF5D7715104E10A0E705DD8A0EFD725
:103DD800000E716F000E706F7205D8B419D0000E06
:103DE800626F010E91EC21F03A0E0001626F620ED3
:103DF800636F5CEC23F0000E0001626F020E91EC21
:103E080021F0AB0E0001626F610E636F5CEC23F072
:103E180000017205D8B41200BBD743D060C0D9FFE7
:103E280061C0DAFFDF500001666F62C0F6FF63C051
:103E3800F7FFF86A070EF76403D00800F55005D0BD
:103E4800F6CFE9FFF7CFEAFFEF5000016619D8B4C3
:103E580024D062C0F6FF63C0F7FFF86A070EF76464
:103E680003D00800F55005D0F6CFE9FFF7CFEAFFF9
:103E7800EF500001666F676B661F671F664B672B05
:103E880060C0D9FF61C0DAFFDF50686F68516625EE
:103E9800606F000E6721616F1200604B612B624BEF
:103EA800632B00016407D8A065076429B7E1652979
:103EB800D8A4B4D7000E616F000E606F12009594FD
:103EC800959295909598959A959C959E83948392B2
:103ED8008390839E839C838A8388EA0E0001626FA5
:103EE800C30EE82EFED7622FFCD783809EEC25F008
:103EF80083909EEC25F04E0E0001626FEB0EE82ECB
:103F0800FED7622FFCD783809EEC25F083909EEC31
:103F180025F04E0E0001626FEB0EE82EFED7622FE1
:103F2800FCD783809EEC25F083909EEC25F0839E41
:103F3800839C838A839883809EEC25F083909EECF3
:103F480025F0280EFAEC1FF0060EFAEC1FF00E0E04
:103F5800FAEC1FF0010EFAEC1FF012000001876F57
:103F680038D07FC06CF080C06DF081C06EF082C028
:103F78006FF083C070F084C071F085C072F0AAEC55
:103F880019F00001866F8651886F896B88C08AF0A6
:103F98008A5112007FC06CF080C06DF081C06EF055
:103FA80082C06FF083C070F084C071F085C072F079
:103FB800AAEC19F00001866F8651886F896B88C05A
:103FC8008AF028C07FF029C080F08A5112008A51F7
:103FD800120000018751000AD8B4C3D7010AD8B427
:103FE800D9D7030AD8B4F3D7040E1200216E8394EC
:103FF8008392839021A802D0838801D0839821AA34
:1040080002D0838A01D0839A21AC02D0838C01D05C
:10401800839C21AE02D0838E01D0839E83809EEC48
:1040280025F083909EEC25F021A002D0838801D052
:10403800839821A202D0838A01D0839A21A402D036
:10404800838C01D0839C21A602D0838E01D0839ECD
:1040580083809EEC25F083909EEC25F02104D8B453
:1040680008D0020E2118D8B404D0030E2118D8A401
:1040780012009EEC25F01200FDC091F0FEC092F0F7
:10408800200E000191257F6F000E9221806F8BC05A
:1040980081F08CC082F08DC083F08EC084F0010E58
:1040A800856F000EB2EC1FF00009D8B402D0020EE2
:1040B8001200000122EE1EF09151D9269251DA2207
:1040C800550EDE1804E1AA0EDE18D8B402D0020E8E
:1040D8001200560E9125606F000E9221616F780EC6
:1040E800626F620E636F000E656F030E646F11ECF2
:1040F8001FF0000160516111D8A402D0000E120017
:10410800010E12000001876F34D07FC06CF080C0B0
:104118006DF081C06EF082C06FF083C070F084C013
:1041280071F085C072F0E8EC14F00001866F8651DA
:10413800886F896B88C08AF08A5112007FC06CF042
:1041480080C06DF081C06EF082C06FF083C070F0E7
:1041580084C071F085C072F0E8EC14F00001866F3D
:104168008651886F896B88C08AF08A5112008A51FB
:10417800120000018751000AD8B4C7D7010AD8B481
:10418800DDD7030AD8B4F3D7040E1200700EF66E0A
:10419800610EF76E20EE67F0100E0900F5CFDEFF16
:1041A800E806FBE25F0EF66E610EF76E20EE78F021
:1041B800100E0900F5CFDEFFE806FBE2000E000155
:1041C800626F010E91EC21F0670E0001626F000E24
:1041D800636F5CEC23F0000E0001626F020E91EC3D
:1041E80021F0780E0001626F000E636F5CEC23F023
:1041F8003D0E0001666FE10E656F3F0EE82EFED79B
:10420800652FFCD7662FFAD700D0010EFAEC1FF005
:104218001200520EF66E4A0EF76E000EF86E01EEA0
:1042280099F010EE33F00900F5CFEEFFE550E150BC
:10423800FAE13A0EF66E4D0EF76E000EF86E0900B2
:10424800F5CF3EF003EE23F012EE20F0EE6AE550D3
:10425800E150FCE1E250FAE102EE00F0E40EEE6A11
:10426800E806FDE101EE00F0990EEE6AE806FDE1D0
:1042780000EEEBF0150EEE6AE806FDE100EE22F026
:104288001C0EEE6AE806FDE13F903F92000EF86EC4
:1042980000015BEF25F0000E0001686F000E696FEA
:1042A800000E6A6F000E6B6F64516511661167111D
:1042B800D8B42AD0010E6C6F06D0D8906437653711
:1042C800663767376C2B67AFF8D7D8906837693788
:1042D8006A376B376451605D65516159665162593F
:1042E80067516359D8A009D06451605F6551615B1B
:1042F8006651625B6751635B6881D8906733663348
:10430800653364336C2FE1D768C060F069C061F031
:104318006AC062F06BC063F012000001636F000EA8
:104328000001646F110E626134D022D062C064F063
:10433800645109EC22F02AD000016251400F646FE9
:10434800645109EC22F022D000016251140F646F0D
:10435800645109EC22F01AD000016251540F646FC5
:10436800645109EC22F012D0000E0001646F0ED0E7
:104378006351010AD8B4DAD7030AD8B4DDD7010AE1
:10438800D8B4E2D7070AD8B4E7D7EED70001622B32
:104398001200000E646F1200216E83948382839052
:1043A80021A802D0838801D0839821AA02D0838AC9
:1043B80001D0839A21AC02D0838C01D0839C21AE9A
:1043C80002D0838E01D0839E83809EEC25F083905B
:1043D8009EEC25F021A002D0838801D0839821A2E9
:1043E80002D0838A01D0839A21A402D0838C01D081
:1043F800839C21A602D0838E01D0839E83809EEC6D
:1044080025F083909EEC25F01200216E8394839210
:104418008390838E21A802D0838801D0839821AA13
:1044280002D0838A01D0839A21AC02D0838C01D038
:10443800839C83809EEC25F083909EEC25F021A040
:1044480002D0838801D0839821A202D0838A01D028
:10445800839A21A402D0838C01D0839C21A602D008
:10446800838E01D0839E83809EEC25F083909EEC02
:1044780025F0120000016451651166116711D8B466
:1044880024D0010E216E06D0D89064376537663780
:104498006737212A67AFF8D76451605D6551615964
:1044A8006651625967516359D8A008D06451605F5A
:1044B8006551615B6651625B6751635BD890673396
:1044C800663365336433212EE7D760C060F061C07E
:1044D80061F062C062F063C063F0120000016A6FAD
:1044E8000CEC25F0FF0AD8A404D008D00A0E8CECF6
:1044F80024F00CEC25F0FF0AD8A4F8D7FF0E38EC0E
:1045080026F000016A5138EC26F068C06BF0000113
:104518006B5138EC26F067C06BF000016B5138EC3A
:1045280026F066C06BF000016B5138EC26F065C0D0
:104538006BF000016B5138EC26F00001695138EC42
:1045480026F01200000E0101D46F000ED36F1FD0A9
:10455800CFC1D9FFD0C1DAFFDF500001E96FE951BF
:10456800E56FE66BD1C1E7F0D2C1E8F004EC23F0C7
:104578000001E52907E1E629D8A404D00101CF69A3
:10458800D06912000101CF4BD02BD34BD42BCFC114
:10459800D9FFD0C1DAFFDF50D8A4DAD7D3C1CFF121
:1045A800D4C1D0F11200FDC0A0F0FEC0A1F00001FE
:1045B80020EE1FF0A051D926A151DA22010EDF6E9C
:1045C800000E8B6F000E8C6F000E8D6F000E8E6FBD
:1045D800ADEC16F00009D8A402D0080E1200000EA7
:1045E8000001606F000E616F000E626F000E88ECB4
:1045F80025F00009D8B402D0080E1200000E1200EF
:104608000001E751E811D8A405D0E5C0E5F0E6C0FF
:10461800E6F01200E5C0CCF1E7C0C4F0E8C0C5F090
:10462800CC0EC66F010EC76F000EC96F010EC86FA2
:10463800CD0ECA6F010ECB6F09EC00F00101CD5110
:10464800CE11D8A404D00001E569E6691200E5C0DE
:10465800E5F0E6C0E6F01200000E0001686F000EFB
:10466800696F000E6A6F000E6B6F60A108D064510D
:1046780068276551692366516A2367516B23D8906F
:104688006437653766376737D89063336233613389
:1046980060336051611162116311D8A4E6D768C014
:1046A80060F069C061F06AC062F06BC063F012002C
:1046B80015D062C0F6FF63C0F7FFF86A070EF7640B
:1046C80003D00800F55005D0F6CFE9FFF7CFEAFF91
:1046D800EF50D0EC21F00001624B632B62C0F6FF73
:1046E80063C0F7FFF86A070EF76403D00800F550B7
:1046F80005D0F6CFE9FFF7CFEAFFEF500009D8B4AD
:104708001200D7D7380E0001F16F4D0EF26F5A0E16
:10471800F36F4C0EF46F420EF56F1A0EF66F130E10
:10472800EC6F880EEB6F030EEE6FE80EED6F270E41
:10473800F06F100EEF6F130E236E880E226E030EAD
:10474800256EE80E246E270E276E100E266E000EBC
:10475800396E1200000E096E0950010DF350012444
:10476800D96EF4500220DA6E09500524076E000E47
:104778000620086E07500324E16E08500420E26EFC
:10478800DFCFE7FF092A0904076E0750010DF35030
:104798000124D96EF4500220DA6EDF50D8B412002A
:1047A800DBD7000166516711D8B414D020EE1CF095
:1047B8006651D9266751DA22DF50D8B40BD066C0CB
:1047C800D9FF67C0DAFF6851DE1804E16951DE18C5
:1047D800D8B402D00C0E1200000E44EC24F00001F4
:1047E8006A6F6AA102D0010E1200000E1200216E3B
:1047F8002150D8B402D0050E12000001FD51FE115F
:10480800D8B408D020EE1CF0FD51D926FE51DA228A
:10481800000EDF6E60C0FDF061C0FEF060516111F6
:10482800D8B408D020EE1CF06051D9266151DA22A4
:10483800000EDF6E000E120062C069F063C06AF0FD
:1048480060C067F061C068F011D069C0D9FF6AC064
:10485800DAFFDF500001666F694B6A2B67C0D9FF2A
:1048680068C0DAFF66C0DFFF674B682B000164078A
:10487800D8A065076429E9E16529D8B41200E5D70D
:104888000001646F14D00001645116EC26F0000199
:10489800656F65511200645116EC26F0216E2150A7
:1048A8000001626F636B65511200655112000001CF
:1048B8006451000AD8B4E7D7010AD8B4ECD7030A80
:1048C800D8B4F3D7010E120004D0014A022A034AD1
:1048D800042A01C0D9FF02C0DAFFDF50056E03C009
:1048E800F6FF04C0F7FF0800F55000080524066E1F
:1048F8000650D8A407D001C0D9FF02C0DAFFDF50A4
:10490800D8A4E3D70650016E026A01BE020612005F
:104918000001626F100E0001606F940EE82EFED742
:10492800602FFCD700F0000E0001646F000E636F6B
:1049380007D08A888CEC26F08A980001634B642B98
:104948006251606F616B6051635D61516459D8B0A9
:104958001200EFD76E0E0001666F010E676F000E32
:10496800E6EC1AF0800E0001666F010E676F010E0B
:10497800E6EC1AF0550E0001666F010E676F020E25
:10498800E6EC1AF0480E0001666F010E676F030E21
:10499800E6EC1AF0120060C064F061C065F003D064
:1049A8000001644B652B64C0D9FF65C0DAFFDF5096
:1049B800D8A4F6D760C062F061C063F00001621F3E
:1049C800631F624B632B64516225606F65516321DD
:1049D800616F12000001806F0ED07EEC0BF00001B9
:1049E800816F815112007EEC0BF00001816F8151C3
:1049F80012008151120000018051000AD8B4EDD78D
:104A0800010AD8B4F0D7030AD8B4F3D7010E1200BC
:104A1800FF0E0001606F7F0E616F000E626F000E67
:104A2800636F8CEC26F00001646F6429D8B40BD056
:104A38006007000E615B625B635B6051611162112C
:104A48006311D8A4EED7645112002D343635332EB5
:104A580031363632322D343635332E31363632321F
:104A68003030303030300030303030303000746525
:0D4A7800737465312E747874000000000026
:104A860060C066F061C067F009D066C0D9FF67C034
:104A9600DAFF62C0DFFF0001664B672B0001640787
:104AA600D8A065076429F1E16529D8B41200EDD7CD
:104AB60022EC26F0D59E63EC1FF0CAEC20F086ECC3
:104AC60023F0C7EC25F0D58E0001FF05D8A404D04D
:104AD600000EFF6F6DEC1EF0AEEC24F0F5D7ABC008
:104AE600A2F0ACC0A3F07FEC1BF00001AD6FAD519E
:104AF600D8A4120020EE04F0AB51D926AC51DA222C
:104B0600000EDE6E000EDD6E12000001636F06D031
:104B16006451120064511200645112000001635185
:104B2600000AD8B4F5D7010AD8B4F4D7030AD8B422
:104B3600F3D7040E1200000E0001606F630E60656D
:104B460001D0120000F0000E0001616F310E6165A8
:104B560001D004D000F00001612BF8D7602BEED70E
:104B6600000160516203F3CF64F0F4CF65F0605149
:104B76006303F350652761516203F350652764C0F0
:104B860060F065C061F01200949C949E800E000156
:104B96006E6F250E6F6F000E706F000E716F4DEC0D
:104BA6001AF0200EAC6E900EAB6E12000001616F13
:104BB600000E0001606F3A0E616105D02F0E61652F
:104BC60002D0010E606F60C021F021301200939276
:104BD60093989380949E8A883F0EC716000EC66EE1
:104BE600C79EC78CC698030EC66EC68A12000F0EE5
:104BF600C16E210E936E8A68000E956E070E926E38
:104C0600110E946E030E966E1200C30ED56E000E34
:104C1600656E000E636E000E0001616F830E606F9D
:104C26004BEC26F012000001616F000E0001606F70
:104C36006151D8B402D0010E1200000E120098EC99
:104C460026F0FAEC25F008EC26F066EC26F042ECAD
:104C560026F012002E502F10D8A41200C6EC1DF01C
:104C6600750E2F6E300E2E6E12000001616FC9CFC9
:104C760060F09E9661C0C9FF9EB61200FDD7B00EC9
:104C8600F26E000EF16E000EF06E280E9D6E120092
:104C960060C062F061C063F063C0D7FF62C0D6FF38
:104CA600120001C003F002C004F004C0D7FF03C025
:104CB600D6FF12009EAAFED7ABA203D0AB9800F097
:104CC600AB88AE501200040ECA6E000ECC6E010EFA
:104CD600CB6E1200948C948E000EAC6E000EAB6EF2
:104CE6001200480E0001606F010E616F1200550E32
:104CF6000001606F010E616F12008A988CEC26F03D
:104D0600216E215012008A98FF0E38EC26F08A8810
:104D16001200C968C790C7A0FED7C9501200000E7E
:104D2600C76E000EC66EC69A1200D388D38AD38C7D
:054D36001200120058FC
:10615E00005443432D2D54454C454D545249410056
:10616E000000464154454320535420414E4452456D
:10617E000000000A2573203B202573203B20257349
:10618E00203B202573203B006F2053697374656D8F
:10619E0061206465206172717569766F00496E7356
:1061AE00697261206F2043617274616F0045727273
:1061BE006F20616F206D6F6E746172004572726F29
:1061CE0020616F2063726961720052454749414FE9
:1061DE00204E45474144410065787466656E63659F
:1061EE002E747874002D323336352E3939373331DB
:1061FE00002D323336352E3834393931002D3436C0
:10620E0035332E3136363232002D323336352E3985
:10621E0039363832002D343635332E30303437356A
:10622E00004D4D43205665722E20330053656D2070
:10623E0043617274616F005344205645522E2031D3
:10624E0000566572696669717565006F20617271BD
:10625E007569766F006F2063617274616F004750CD
:10626E00474741004750524D4300464154000D0AE6
:02627E0000001E
:020000040020DA
:08000000FFFFFFFFFFFFFFFF00
:020000040030CA
:0E00000000051F1FFF8385FF0FC00FE00F409C
:00000001FF
