:0400000007EF00F016
:0A0008004282B2ED05F03AEF08F075
:10080000005443432D2D54454C454D54524941000D
:100810000000464154454320535420414E44524524
:100820000000000A2573203B202573203B20257300
:10083000203B202573203B006F2053697374656D46
:1008400061206465206172717569766F00496E730D
:10085000697261206F2043617274616F004572722A
:100860006F20616F206D6F6E746172004572726FE0
:1008700020616F206372696172004D4D432056659F
:10088000722E20330053656D2043617274616F00D6
:100890005344205645522E203100566572696669D0
:1008A000717565006F206172717569766F006F20D8
:1008B00063617274616F004750474741004750526F
:0B08C0004D4300464154000D0A0000AB
:1008CC002A6E2AC02BF03DD11A04D8A404D0000EF5
:1008DC00126E010E116E020E1A18D8A404D0000E5E
:1008EC00106E010E0F6E11501210D8B412000F5072
:1008FC001010D8B41200000E106E000E0F6E0FC048
:10090C0011F010C012F01200000E1B6E1BC019F07B
:10091C0012001B50010D8D0EF324D96E000EF42025
:10092C00DA6E000EDF6E1950D8A430D08D0E216E09
:10093C00000E226EBE0E236E000E246E000E266E6E
:10094C00000E256E2DEC0AF0BE0E216E000E226EEE
:10095C00BD0E236E080E246E54EC0AF021502210AA
:10096C00D8A402D0010E11D0BE0E216E000E226E44
:10097C00B70E236E080E246E54EC0AF02150221090
:10098C00D8A402D0020E01D0030E1A6E1904D8A4FA
:10099C0011D01A04D8A40ED08D0E216E000E226E2A
:1009AC00990E236E000E246E000E266E000E256E20
:1009BC002DEC0AF0030E1918D8A411D01A04D8A4DF
:1009CC000ED08D0E216E000E226E4D0E236E010E7A
:1009DC00246E000E266E010E256E2DEC0AF0040E10
:1009EC001918D8A40DD01A04D8A40AD04E0E0001A0
:1009FC008D19D8A402D0300E01D02D0E01014D6FEF
:100A0C00050E1918D8A411D01A04D8A40ED08D0E26
:100A1C00216E000E226E400E236E010E246E000E0F
:100A2C00266E010E256E2DEC0AF0060E1918D8A4B0
:100A3C000DD01A04D8A40AD0450E00018D19D8A4E3
:100A4C0002D0300E01D02D0E0101406F070E191887
:100A5C00D8A411D01A04D8A40ED08D0E216E000E7D
:100A6C00226EB80E236E000E246E000E266E000E43
:100A7C00256E2DEC0AF0080E1918D8A411D01A0402
:100A8C00D8A40ED08D0E216E000E226EB20E236EE7
:100A9C00000E246E000E266E000E256E2DEC0AF054
:100AAC00090E1918D8A411D01A04D8A40ED08D0E82
:100ABC00216E000E226EAB0E236E000E246E000E05
:100ACC00266E000E256E2DEC0AF0070E1918D8A410
:100ADC0012D0020E1A18D8A40ED08D0E216E000E54
:100AEC00226E1E0E236E000E246E000E266E000E5D
:100AFC00256E2DEC0AF0090E1918D8A412D0020E8E
:100B0C001A18D8A40ED08D0E216E000E226EA40ED3
:100B1C00236E000E246E000E266E000E256E2DEC3C
:100B2C000AF0192A000E1B6E12001B50010D8D0EBF
:100B3C00F324D96E000EF420DA6E2BC0DFFF1B2AD3
:100B4C0012002B500D0AD8B4BFD6290AD8B4DCD663
:100B5C00080AD8B4DED6E9D70600FACF2EF0FBCFC0
:100B6C002FF0E9CF30F0EACF31F0E1CF32F0E2CF25
:100B7C0033F0D9CF34F0DACF35F0F3CF36F0F4CF01
:100B8C0037F0F6CF38F0F7CF39F0F8CF3AF0F5CFA1
:100B9C003BF042C03CF043C03DF044C03EF045C089
:100BAC003FF09DBA9EAA14D09E9A4BEC0BF01D6E92
:100BBC001D5066EC04F081B403D02C6A2C2A01D0B1
:100BCC002C6A2C462C4681502C18FB0B2C18816E51
:100BDC00F2B4F2A437D0F294010E0001706F000E43
:100BEC00406E010E406401D019D04050020D010E30
:100BFC00F324D96E000EF420DA6EDE50DE10D8B479
:100C0C000BD04050020D010EF324D96E000EF420CF
:100C1C00DA6EDE06000EDD5A402AE3D71C04D8A497
:100C2C000BD01306D8A0140613501410D8A404D05B
:100C3C00000EFA6E000EF96E000E226E830E216EFF
:100C4C0042EC0BF0F2B2F2A801D0F2923FC045F0A8
:100C5C003EC044F03DC043F03CC042F03BC0F5FF09
:100C6C003AC0F8FF39C0F7FF38C0F6FF37C0F4FFC1
:100C7C0036C0F3FF35C0DAFF34C0D9FF33C0E2FF12
:100C8C0032C0E1FF31C0EAFF30C0E9FF2FC0FBFFEB
:100C9C002EC0FAFF42921100D2C0D6F0D3C0D7F0CA
:100CAC00D4C0D8F0D5C0D9F0060ED8900001D637F4
:100CBC00D737D837D937E82EF8D7D61FD71FD81F34
:100CCC00D91FD62B000ED723D823D923000ED62517
:100CDC00C46F6C0ED721C56FDC0ED821C66F020E07
:100CEC00D921C76FD2C0DAF0D3C0DBF0D4C0DCF0AE
:100CFC00D5C0DDF0060ED890DA37DB37DC37DD37C0
:100D0C00E82EF9D7DAC0C8F0DBC0C9F0DCC0CAF0F5
:100D1C00DDC0CBF084EC07F0C4C0DEF0C5C0DFF062
:100D2C000001DF05D8A044D0D2C0D6F0D3C0D7F094
:100D3C00D4C0D8F0D5C0D9F0040ED890D637D73758
:100D4C00D837D937E82EF9D7D61FD71FD81FD91FB8
:100D5C00D62B000ED723D823D923000ED625C46F4B
:100D6C006C0ED721C56FDC0ED821C66F020ED921AF
:100D7C00C76FD2C0DAF0D3C0DBF0D4C0DCF0D5C082
:100D8C00DDF0040ED890DA37DB37DC37DD37E82EB0
:100D9C00F9D7DAC0C8F0DBC0C9F0DCC0CAF0DDC0DE
:100DAC00CBF084EC07F0C4C0DEF0C5C0DFF0AC843F
:100DBC000001DF05D8B01200DEC0AFFFAC98AB8EDF
:100DCC00948E949CAB88AC8A12000001CC6FCAC084
:100DDC00C4F0CBC0C5F099EC0AF00001C451CD6F42
:100DEC007CD0000ECE6F050ECE6501D01200CAC0AD
:100DFC00D9FFCBC0DAFFCE51010D070EF324E16E03
:100E0C00010EF420E26EDFCFE7FFCA4BCB2BCE2BCB
:100E1C00EAD7000ECE6F050ECE6501D012D0CAC037
:100E2C00D9FFCBC0DAFFCE51010D000EF324E16ED9
:100E3C00010EF420E26EDFCFE7FFCA4BCB2BCE2B9B
:100E4C00EAD7010E186E1200000ECE6F0C0ECE6596
:100E5C0001D01200CAC0D9FFCBC0DAFFCE51010DB0
:100E6C00120EF324E16E010EF420E26EDFCFE7FFE9
:100E7C00CA4BCB2BCE2BEAD7000ECE6F0C0ECE6509
:100E8C0001D01200CAC0D9FFCBC0DAFFCE51010D80
:100E9C001F0EF324E16E010EF420E26EDFCFE7FFAC
:100EAC00CA4BCB2BCE2BEAD7000ECE6F11D0CAC0BB
:100EBC00D9FFCBC0DAFFCE51010D1F0EF324E16E2A
:100ECC00010EF420E26EDFCFE7FFCA4BCB2BCE2B0B
:100EDC00CD51CE5DD8B01200EAD7CC51000AD8B4AF
:100EEC0080D7010AD8B495D7030AD8B4ADD7010A74
:100EFC00D8B4C2D7070AD8A41200D6D7000E000166
:100F0C00CD6FCBAF0AD0CB1FCA1FC91FC86D000E47
:100F1C00C923CA23CB23010ECD6FC7AF0AD0C71F7D
:100F2C00C61FC51FC46D000EC523C623C723010EE3
:100F3C00CD1B000ECE6F000ECF6F000ED06F000ECB
:100F4C00D16FC851C911CA11CB11D8B42AD0010E16
:100F5C00CC6F06D0D890C837C937CA37CB37CC2B13
:100F6C00CBAFF8D7D890CE37CF37D037D137C85191
:100F7C00C45DC951C559CA51C659CB51C759D8A01E
:100F8C0009D0C851C45FC951C55BCA51C65BCB51AE
:100F9C00C75BCE81D890CB33CA33C933C833CC2F7F
:100FAC00E1D7CD51D8B408D0D11FD01FCF1FCE6DF3
:100FBC00000ECF23D023D123CEC0C4F0CFC0C5F0B8
:100FCC00D0C0C6F0D1C0C7F0120095949592959000
:100FDC009598959A959C959E839483928390839EE5
:100FEC00839C838A8388EA0E0001C76FC30EE82EA8
:100FFC00FED7C72FFCD78380CFEC0AF08390CFECC1
:10100C000AF04E0E0001C76FEB0EE82EFED7C72F6D
:10101C00FCD78380CFEC0AF08390CFEC0AF04E0E15
:10102C000001C76FEB0EE82EFED7C72FFCD78380CD
:10103C00CFEC0AF08390CFEC0AF0839E839C838ADA
:10104C0083988380CFEC0AF08390CFEC0AF0280EC3
:10105C0086EC08F0060E86EC08F00E0E86EC08F016
:10106C00010E86EC08F01200A80EF66E160EF76E46
:10107C00000EF86E01EE5AF010EE0FF00900F5CFED
:10108C00EEFFE550E150FAE1B70EF66E160EF76E74
:10109C00000EF86E00EEEEF010EE0EF00900F5CF3B
:1010AC00EEFFE550E150FAE1DC0EF66E160EF76E2F
:1010BC00000EF86E0900F5CF41F001EE69F012EE6A
:1010CC0020F0EE6AE550E150FCE1E250FAE101EE6D
:1010DC0000F05A0EEE6AE806FDE100EE60F0640ED8
:1010EC00EE6AE806FDE100EE01F0200EEE6AE8067D
:1010FC00FDE142904292000EF86E0001B8EF0AF04A
:10110C000001C66F8394839283900001C6A902D01C
:10111C00838801D08398C6AB02D0838A01D0839A8E
:10112C00C6AD02D0838C01D0839CC6AF02D0838E17
:10113C0001D0839E8380CFEC0AF08390CFEC0AF031
:10114C000001C6A102D0838801D08398C6A302D027
:10115C00838A01D0839AC6A502D0838C01D0839C4C
:10116C00C6A702D0838E01D0839E8380CFEC0AF079
:10117C008390CFEC0AF00001C605D8B408D0020E5B
:10118C00C619D8B404D0030EC619D8A41200CFECDB
:10119C000AF01200120EF66E080EF76E20EECCF06E
:1011AC00100E0900F5CFDEFFE806FBE2010EF66E2D
:1011BC00080EF76E20EEDDF0100E0900F5CFDEFF05
:1011CC00E806FBE2000E0001C76F010E13EC09F0FC
:1011DC00CC0E0001C76F000EC86F03EC0AF0000EB6
:1011EC000001C76F020E13EC09F0DD0E0001C76F92
:1011FC00000EC86F03EC0AF03D0E0001CB6FE10E40
:10120C00CA6F3F0EE82EFED7CA2FFCD7CB2FFAD7CA
:10121C0000D0010E86EC08F012000001C86F000E21
:10122C000001C96F110EC76134D022D0C7C0C9F0FC
:10123C00C951CBEC09F02AD00001C751400FC96F3E
:10124C00C951CBEC09F022D00001C751140FC96F62
:10125C00C951CBEC09F01AD00001C751540FC96F1A
:10126C00C951CBEC09F012D0000E0001C96F0ED0A1
:10127C00C851010AD8B4DAD7030AD8B4DDD7010AA9
:10128C00D8B4E2D7070AD8B4E7D7EED70001C72BFA
:10129C001200000EC96F1200000E0001C66F010E85
:1012AC00C66501D01200C651020D6C0EF324D96E26
:1012BC00000EF420DA6EDE50DE10D8B428D0C65101
:1012CC00020D010EF324D96E000EF420DA6EDE50FE
:1012DC00DE10D8A41CD0010E1C6EEA0E146E600E2B
:1012EC00136E000E1C6EC651020D050EF324D96E42
:1012FC00000EF420DA6EC651020D010EF324E16EDD
:10130C00000EF420E26EDECFE6FFDDCFE5FFC62B4C
:10131C00C6D70001C66F8394838283900001C6A94F
:10132C0002D0838801D08398C6AB02D0838A01D0C7
:10133C00839AC6AD02D0838C01D0839CC6AF02D0F9
:10134C00838E01D0839E8380CFEC0AF08390CFEC08
:10135C000AF00001C6A102D0838801D08398C6A3ED
:10136C0002D0838A01D0839AC6A502D0838C01D087
:10137C00839CC6A702D0838E01D0839E8380CFEC42
:10138C000AF08390CFEC0AF012000001C66F839430
:10139C0083928390838E0001C6A902D0838801D0EA
:1013AC008398C6AB02D0838A01D0839AC6AD02D093
:1013BC00838C01D0839C8380CFEC0AF08390CFEC9C
:1013CC000AF00001C6A102D0838801D08398C6A37D
:1013DC0002D0838A01D0839AC6A502D0838C01D017
:1013EC00839CC6A702D0838E01D0839E8380CFECD2
:1013FC000AF08390CFEC0AF0120015D0C7C0F6FFAC
:10140C00C8C0F7FFF86A070EF76403D00800F55060
:10141C0005D0F6CFE9FFF7CFEAFFEF508FEC09F0DC
:10142C000001C74BC82BC7C0F6FFC8C0F7FFF86A4E
:10143C00070EF76403D00800F55005D0F6CFE9FF8E
:10144C00F7CFEAFFEF500009D8B41200D7D7000E3F
:10145C00296E2950010DF3502124D96EF45022200D
:10146C00DA6E29502524276E000E2620286E275070
:10147C002324E16E28502420E26EDFCFE7FF292AD7
:10148C002904276E2750010DF3502124D96EF450F6
:10149C002220DA6EDF50D8B41200DBD704D0214AF8
:1014AC00222A234A242A21C0D9FF22C0DAFFDF5086
:1014BC00256E23C0F6FF24C0F7FF0800F550000886
:1014CC002524266E2650D8A407D021C0D9FF22C0CF
:1014DC00DAFFDF50D8A4E3D72650216E226A21BE52
:1014EC0022061200990E0001CA6F000ECB6F000E7F
:1014FC00EBEC06F0AB0E0001CA6F000ECB6F010EC9
:10150C00EBEC06F04D0E0001CA6F010ECB6F020E14
:10151C00EBEC06F0400E0001CA6F010ECB6F030E10
:10152C00EBEC06F01200C4C0C8F0C5C0C9F003D083
:10153C000001C84BC92BC8C0D9FFC9C0DAFFDF50A6
:10154C00D8A4F6D7C4C0C6F0C5C0C7F00001C61FEA
:10155C00C71FC64BC72BC851C625C46FC951C7215D
:10156C00C56F120025EC0BF0D59EEBEC07F0D0EC20
:10157C0008F0E4EC0AF0F7EC0AF0D58E00017005E7
:10158C00D8A404D0000E706F52EC09F078EC0AF07D
:10159C00F5D7000E0001C46F630EC46501D01200B4
:1015AC0000F0000E0001C56F310EC56501D004D0EE
:1015BC0000F00001C52BF8D7C42BEED7130E066E26
:1015CC00880E056E030E086EE80E076E130E026E83
:1015DC00880E016E030E046EE80E036E000E1C6E78
:1015EC001200949C949E800E0001D26F250ED36F36
:1015FC00000ED46F000ED56F52EC06F0200EAC6EC0
:10160C00900EAB6E12000F0EC16E210E936E8A6897
:10161C00000E956E070E926E110E946E030E966E62
:10162C001200C30ED56E000E656E000E636E000EBA
:10163C000001C56F830EC46F39EC0BF012006AEC1D
:10164C000BF009EC0BF017EC0BF063EC0BF030EC3F
:10165C000BF01200B00EF26E000EF16E000EF06E7A
:10166C00280E9D6E1200C4C0C6F0C5C0C7F0C7C01E
:10167C00D7FFC6C0D6FF120021C023F022C024F031
:10168C0024C0D7FF23C0D6FF12009EAAFED7ABA260
:10169C0003D0AB9800F0AB88AE5012007465737435
:1016AC00652E74787400000000000030303030304B
:0916BC00300030303030303000D5
:1016C600040ECA6E000ECC6E010ECB6E1200D388CD
:0716D600D38AD38C1200142B
:020000040020DA
:08000000FFFFFFFFFFFFFFFF00
:020000040030CA
:0E00000000051F1FFF8385FF0FC00FE00F409C
:00000001FF
