:0400000007EF00F016
:100008004082E3ED1CF04BEF21F023EEA5F013EE58
:1000180000F02B0EDBCFE3FFE806FCE223EE79F0DD
:1000280013EE2CF02B0EDBCFE3FFE806FCE221EE0B
:10003800ACF013EE58F00A0EDBCFE3FFE806FCE263
:1000480021EEA1F013EE63F00A0EDBCFE3FFE80622
:10005800FCE2000E03016E6F000E786F000E6F6FEA
:10006800000E766FA1EC2BF060C070F361C071F3E5
:100078009BEC2BF060C072F361C073F3000E0301B8
:10008800776F0A0E776501D0A1D170C3D9FF71C30C
:10009800DAFF7751010D580EF324E16E030EF420B8
:1000A800E26EDFCFE7FF72C3D9FF73C3DAFF775180
:1000B800010D630EF324E16E030EF420E26EDFCF30
:1000C800E7FF704B712B724B732B772BDAD7010E2E
:1000D800776F040E776501D068D07851D8B404D012
:1000E800020E7819D8A45FD0000E766F040E7765DB
:1000F80001D059D07751010D630EF324D96E030E48
:10010800F420DA6E7651010D120EF326000EF42259
:10011800000E0001816F020E826FF3508127F450A8
:10012800822303017851400DF35000018125E16ECF
:10013800F4508221E26EDFCFE7FF030178510B0D07
:100148002C0E0001816F030E826FF3508127F4504B
:10015800822303017751010DF35000018125D96EE7
:10016800F4508221DA6E03017651010D060EF32652
:10017800000EF422000E0001836F020E846FF3500C
:100188008327F450842303017851400DF350000174
:100198008325E16EF4508421E26EDFCFE7FF03018F
:1001A800772B762BA3D7772B94D7010E776F040E76
:1001B800776501D064D07851D8B404D0030E78198B
:1001C800D8A45BD0000E766F040E776501D055D0A9
:1001D8007751010D580EF324D96E030EF420DA6E10
:1001E8007651010D0C0EF326000EF422000E0001CC
:1001F800816F020E826FF3508127F450822303012E
:100208007851400DF35000018125E16EF4508221B0
:10021800E26EDFCFE7FF030178510B0D000E0001FE
:10022800816F030E826FF3508127F45082230301FC
:100238007751010DF35000018125D96EF4508221C8
:10024800DA6E03017851400D000E0001836F020E33
:10025800846FF3508327F450842303017651010DF2
:10026800F35000018325E16EF4508421E26EDFCF64
:10027800E7FF0301772B762BA7D7772B98D77851F1
:10028800400D0C0EF326000EF422000EF32400019C
:10029800666F020EF420676F78EC20F066C074F386
:1002A80067C075F303017851400D000EF324000177
:1002B800666F020EF420676F78EC20F0000166C0CC
:1002C80081F067C082F0000E82BFFF0E836F846FDB
:1002D80003017851400D180EF326000EF422000E8B
:1002E800F324D96E020EF420DA6E81C0DEFF82C0DC
:1002F800DEFF83C0DEFF84C0DEFF7851400D180E9C
:10030800F326000EF422000EF324D96E020EF42018
:10031800DA6E7451DE5E7551DE5A000EDE5ADE5A10
:100328007851400D120EF326000EF422000EF3242D
:100338000001666F020EF420676F78EC20F066C04B
:1003480074F367C075F303017851400D060EF32668
:10035800000EF422000EF3240001666F020EF42052
:10036800676F78EC20F0000166C081F067C082F00A
:10037800000E82BFFF0E836F846F03017851400D1A
:100388001C0EF326000EF422000EF324D96E020E82
:10039800F420DA6E81C0DEFF82C0DEFF83C0DEFF9C
:1003A80084C0DEFF7851400D1C0EF326000EF422A7
:1003B800000EF324D96E020EF420DA6E7451DE5E5C
:1003C8007551DE5A000EDE5ADE5A782B030E786518
:1003D8007ED6000E786FB7D1060E776F0A0E776556
:1003E80001D08DD07851D8B404D0030E7819D8A490
:1003F80081D07751010D580EF324D96E030EF420E5
:10040800DA6E78510B0D000E0001826F030E836FB8
:10041800F3508227F450832303017751010DF350E1
:1004280000018225E16EF4508321E26EDE50E61869
:10043800D8B462D0000E0301766F0A0E776501D03A
:100448005BD078510B0D000E0001816F030E826F97
:10045800F3508127F450822303017751010DF350A3
:1004680000018125D96EF4508221DA6E030176519C
:10047800010D200EF326000EF422000E0001836FFA
:10048800020E846FF3508327F450842303017851BC
:10049800400DF35000018325E16EF4508421E26E93
:1004A800DFCFE7FF03017751010D580EF324D96E12
:1004B800030EF420DA6E7651010D2C0EF326000E91
:1004C800F422000E0001816F020E826FF350812723
:1004D800F450822303017851400DF3500001812527
:1004E800E16EF4508221E26EDFCFE7FF0301772B44
:1004F800762BA3D70B0E776F0301772B6FD7060EDA
:10050800776F0A0E776501D08DD07851D8B404D0B2
:10051800020E7819D8A481D07751010D630EF32407
:10052800D96E030EF420DA6E78510B0D2C0E0001F3
:10053800826F030E836FF3508227F45083230301E5
:100548007751010DF35000018225E16EF4508321AB
:10055800E26EDE50E618D8B462D0000E0301766F62
:100568000A0E776501D05BD078510B0D2C0E000177
:10057800816F030E826FF3508127F45082230301A9
:100588007751010DF35000018125D96EF450822175
:10059800DA6E03017651010D260EF326000EF422C1
:1005A800000E0001836F020E846FF3508327F4500E
:1005B800842303017851400DF35000018325E16E37
:1005C800F4508421E26EDFCFE7FF03017751010D7C
:1005D800630EF324D96E030EF420DA6E7651010D02
:1005E800320EF326000EF422000E0001816F020E77
:1005F800826FF3508127F450822303017851400D14
:10060800F35000018125E16EF4508221E26EDFCFC4
:10061800E7FF0301772B762BA3D70B0E776F030128
:10062800772B6FD77851400D200EF326000EF42259
:10063800000EF3240001666F020EF420676F78EC59
:1006480020F066C081F067C082F003017851400D48
:100658002C0EF326000EF422000EF3240001666F20
:10066800020EF420676F78EC20F00001661F671F08
:10067800664B672B66518125836F67518221846F92
:10068800856B84BF85078551866F03017851400DBE
:10069800380EF326000EF422000EF324D96E020E53
:1006A800F420DA6E83C0DEFF84C0DEFF85C0DEFF83
:1006B80086C0DEFF7851400D260EF326000EF42288
:1006C800000EF3240001666F020EF420676F78ECC9
:1006D80020F066C081F067C082F003017851400DB8
:1006E800320EF326000EF422000EF3240001666F8A
:1006F800020EF420676F78EC20F00001661F671F78
:10070800664B672B66518125836F67518221846F01
:10071800856B84BF85078551866F03017851400D2D
:100728003C0EF326000EF422000EF324D96E020EBE
:10073800F420DA6E83C0DEFF84C0DEFF85C0DEFFF2
:1007480086C0DEFF782B030E786546D64ED00201B0
:100758003FBF2CD0BFBF07D0BF51BE11BD1126E18E
:10076800BC05D8B023D01FBF21D09FBF38D09F5120
:100778009E119D111BE19C05D8A031D017D0020114
:100788003FBF07D03F513E113D1110E13C05D8B0A5
:100798000DD0BFBF0BD01BBF07D01B511A111911A9
:1007A80005E11805D8B002D09BAF19D002013C5121
:1007B8003D113E113F11D8B406D0BC51BD11BE1138
:1007C800BF11D8A40FD01C511D111E111F11D8B470
:1007D80006D09C519D119E119F11D8A403D00001F1
:1007E800F59157D00001F58154D0030163512D0ACA
:1007F800D8B4ADD7C4D702013BBF07D03B513A119B
:10080800391128E13805D8B025D0FBBF23D01BBF4C
:1008180007D01B511A1119111DE11805D8B01AD0AB
:10082800DBAF31D017D002013BBF14D0FBBF07D0DC
:10083800FB51FA11F9110EE1F805D8B00BD01BBF26
:1008480009D0DBBF20D0DB51DA11D91103E1D8057B
:10085800D8A019D00201385139113A113B11D8B436
:1008680006D0F851F911FA11FB11D8A40FD018517C
:1008780019111A111B11D8B406D0D851D911DA118F
:10088800DB11D8A403D00001F69109D00001F6814C
:1008980006D0030158512D0AD8B4ADD7C4D7F5B145
:1008A80002D0F6A11200F781000E636F010EE4EC8E
:1008B80025F0EE0E0001636F610E646F3FEC28F0C7
:1008C8000E0E0001636F020EE4EC25F00001F5A1A5
:1008D80003D0816B812B02D00001816B8151786F2D
:1008E800796BCFEC29F00F0E0001636F020EE4EC78
:1008F80025F00001F6A103D0816B812B02D0000105
:10090800816B8151786F796BCFEC29F01200C6C0EA
:10091800D9F0C7C0DAF0CAC0D9FFCBC0DAFF000EE1
:10092800DE6E000EDD6E000120EE04F0C451D92603
:10093800C551DA22DECF67F0DDCF68F0C4C0D9FF39
:10094800C5C0DAFFDECF69F0DDCF6AF0B6EC28F07B
:100958000001D86FD851D8A4120020EE02F0C4517B
:10096800D926C551DA22DFBE120020EE02F0C451AA
:10097800D926C551DA22DFA2120020EE0AF0C451AE
:10098800D926C551DA2210EE0AF0C451E126C55124
:10099800E222E6CFD0F0E6CFD1F0E6CFD2F0E6CF34
:1009A800D3F0C851D025D46FC951D121D56F000ECD
:1009B800D221D66F000ED321D76FDE50D45DDE5022
:1009C800D559DE50D659DE50D759D8A012003BD29F
:1009D80020EE06F0C451D926C551DA22FF0EDE14E6
:1009E800CC6F010EDE14CD6F000EDE14CE6F000E3C
:1009F800DE14CF6FCC51CD11CE11CF11D8A466D152
:100A080020EE04F0C451D926C551DA2210EE1DF0AB
:100A1800DE50E126DD50E22220EE03F0C451D92653
:100A2800C551DA22E650DE5CD8A06DD020EE06F083
:100A3800C451D926C551DA22DE50DE10DE10DE1090
:100A4800D8A424D020EE0EF0C451D926C551DA22FC
:100A5800DECFE1F0DDCFE2F0E151E211D8A426D0FB
:100A6800000EB76F000EB66FADEC19F0B6C0E1F02E
:100A7800B7C0E2F0000120EE0EF0C451D926C551EE
:100A8800DA22E1C0DEFFE2C0DDFF10D020EE10F078
:100A9800C451D926C551DA22DECFB6F0DDCFB7F082
:100AA800ADEC19F0B6C0E1F0B7C0E2F00001E151D9
:100AB800E211D8B4CCD1E105E211D8B4FBD120EED3
:100AC80004F0C451D926C551DA2210EE16F0DE50D2
:100AD800E126DD50E222E650E15DE650E259D8B069
:100AE800E9D120EE10F0C451D926C551DA22E1C06F
:100AF800DEFFE2C0DDFF20EE03F0C451D926C55168
:100B0800DA22000EDF6E20EE10F0C451D926C5514E
:100B1800DA22DECF6CF0DDCF6DF0A7EC21F000011A
:100B280020EE03F0C451D926C551DA22DF50CC6F2C
:100B3800CC516C25DB6F000E6D21DC6F000E6E2131
:100B4800DD6F000E6F21DE6FC8C0CCF0C9C0CDF0DC
:100B5800090ECE6FD890CD33CC33CE2FFBD7CCC077
:100B6800DFF0CDC0E0F0DF51E011D8B470D020EE56
:100B780003F0C451D926C551DA22DF50CC6FCC51CD
:100B8800DF25CD6F000EE021CE6F20EE04F0C451BA
:100B9800D926C551DA2210EE1DF0DE50E126DD50CF
:100BA800E222E750CF6FD06BCD51CF5DCE51D059F7
:100BB800D8B021D020EE03F0C451D926C551DA228D
:100BC800DF50CC6FCD6BCC1FCD1FCC4BCD2B20EE87
:100BD80004F0C451D926C551DA2210EE1DF0DE50BA
:100BE800E126DD50E222E750CE6FCE51CC25DF6FF3
:100BF800000ECD21E06FD9C07FF0DAC080F0DBC0F5
:100C080081F0DCC082F0DDC083F0DEC084F0DFC09C
:100C180085F0000E1BEC25F00009D8A44BD100018B
:100C280020EE03F0C451D926C551DA22DF51DF2660
:100C3800DFC0CCF0E0C0CDF0090ED890CC37CD376E
:100C4800E82EFBD7CCC0E3F0CDC0E4F0DFD020EE37
:100C58000AF0C451D926C551DA2210EE06F0C45163
:100C6800E126C551E222DE50E65CDE50E658DE5051
:100C7800E658DE50E658D8A022D0000E8B6F000E42
:100C88008C6F000E8D6F000E8E6F8DEC1AF00009C0
:100C9800D8B410D1000120EE04F0C451D926C551B2
:100CA800DA2210EE04F0DE50E126DD50E222DBC04D
:100CB800E6FFDCC0E6FFDDC0E6FFDEC0E6FF20EEB3
:100CC80003F0C451D926C551DA22DF2A20EE10F0EC
:100CD800C451D926C551DA22DECF6CF0DDCF6DF0D4
:100CE800A7EC21F0000120EE03F0C451D926C5512C
:100CF800DA22DF50CC6FCC516C25CD6F000E6D2100
:100D0800CE6F000E6E21CF6F000E6F21D06FFF0ED9
:100D1800CD25DB6FFF0ECE21DC6FFF0ECF21DD6FFF
:100D2800FF0ED021DE6FDBC08BF0DCC08CF0DDC0A5
:100D38008DF0DEC08EF08DEC1AF00009D8B4BAD070
:100D4800FF0E0001CC6F010ECD6F20EE06F0C451EE
:100D5800D926C551DA22DECFCEF0DDCFCFF0CC5187
:100D6800CE17CD51CF17CE1FCF1FCE4BCF2B000E96
:100D7800CE25E36F020ECF21E46FE351C85DE45145
:100D8800C959D8B004D0C8C0E3F0C9C0E4F0FF0E18
:100D9800CC6F010ECD6F20EE06F0C451D926C55197
:100DA800DA22DECFCEF0DDCFCFF0CC51CE17CD5149
:100DB800CF17200ECE27000ECF2320EE04F0C4510B
:100DC800D926C551DA22DECFD0F0DDCFD1F0CE5111
:100DD800D025606FCF51D121616FD9C062F0DAC0E0
:100DE80063F0E3C064F0E4C065F0DCEC28F00001D7
:100DF80020EE04F0C451D926C551DA2210EE1FF0B6
:100E0800DE50E126DD50E222010EE76EE351D927DC
:100E1800E451DA2320EE06F0C451D926C551DA226E
:100E2800E351DE26E451DE22000EDE22DE22CAC0B5
:100E3800D9FFCBC0DAFFE351DE26E451DD22E351CE
:100E4800C85FE451C95BC851C911D8A4C1D520EE07
:100E580006F0C451D926C551DA2210EE0AF0C45161
:100E6800E126C551E222DE50E65CDE50E658DE504F
:100E7800E658DE50E658D8B014D020EE06F0C4513B
:100E8800D926C551DA2210EE0AF0C451E126C5511F
:100E9800E222DECFE6FFDECFE6FFDECFE6FFDECFE3
:100EA800E6FF20EE02F0C451D926C551DA22000E21
:100EB800DB8A1200000120EE02F0C451D926C55188
:100EC800DA22000EDB8E120093C0D9FF94C0DAFF3D
:100ED800DECFB1F0DDCFB2F003D00001B14BB22BC1
:100EE800B1C0F6FFB2C0F7FFF86A070EF76403D087
:100EF8000800F55005D0F6CFE9FFF7CFEAFFEF502D
:100F0800200AD8B4EAD7B1C0F6FFB2C0F7FFF86A32
:100F1800070EF76403D00800F55005D0F6CFE9FFB7
:100F2800F7CFEAFFEF502F0AD8A403D00001B14B46
:100F3800B22B93C0D9FF94C0DAFFB1C0DEFFB2C0B4
:100F4800DDFFFAC0B9F0FBC0BAF00001B951BA111F
:100F5800D8A402D00A0E120020EE1CF0B951D926EE
:100F6800BA51DA22DF50D8B40FD0000E00EC29F0C5
:100F78000001B46FB4B108D09551D8A4B4A502D07B
:100F8800090E1200000E1200B9C060F0BAC061F07C
:100F9800000E636F000E626F020E656F200E646FA5
:100FA80063EC2AF0000E0EEC2AF00001B46FB4A135
:100FB80002D0010E12009551D8A4B4A502D0090E92
:100FC8001200000EA96F000EAA6F000EAB6F000E84
:100FD800AC6FA9C08BF0AAC08CF0ABC08DF0ACC0D0
:100FE8008EF0D5EC24F00001B36FB305D8A423D05C
:100FF80021EEE2F0B951D926BA51DA22DF50D8B43D
:101008001AD021EEE6F0B951D926BA51DA22DECF4C
:10101800A9F0DECFAAF0DECFABF0DECFACF0A9C0EE
:101028008BF0AAC08CF0ABC08DF0ACC08EF0D5ECC4
:1010380024F00001B36FB351D8A40CD020EE2BF0EC
:10104800B951D926BA51DA22DE5004E1020EDE186F
:10105800D8B402D00B0E120020EE36F0B951D926C2
:10106800BA51DA22DECF96F0DDCF97F096C0B5F010
:1010780097C0B6F0B76BB86BB551B611B711B811C8
:10108800D8A40ED020EE44F0B951D926BA51DA22AC
:10109800DECFB5F0DECFB6F0DECFB7F0DECFB8F0FA
:1010A80020EE14F0B951D926BA51DA22B5C0DEFFC4
:1010B800B6C0DDFF20EE30F0B951D926BA51DA2298
:1010C80010EE1EF0B951E126BA51E222DFCFE7FF58
:1010D800B5C060F0B6C061F0B7C062F0B8C063F0E8
:1010E80020EE1EF0B951D926BA51DA22DF50966F98
:1010F8009651646F656B666B676BBEEC27F060C0DA
:10110800B5F061C0B6F062C0B7F063C0B8F00001D6
:1011180020EE2EF0B951D926BA51DA22DECF96F058
:10112800DDCF97F09651A925986F9751AA21996F0D
:10113800000EAB219A6F000EAC219B6F20EE08F0D9
:10114800B951D926BA51DA2298C0DEFF99C0DEFF1C
:101158009AC0DEFF9BC0DEFF20EE2DF0B951D926E4
:10116800BA51DA2210EE1DF0B951E126BA51E22245
:10117800DFCFE7FF20EE31F0B951D926BA51DA2294
:1011880010EE02F0B951E126BA51E222DECFE6FFB5
:10119800DDCFE5FF20EE33F0B951D926BA51DA2276
:1011A800DECF96F0DDCF97F096C0ADF097C0AEF0E9
:1011B800AF6BB06BAD51AE11AF11B011D8A40ED05A
:1011C80020EE40F0B951D926BA51DA22DECFADF07F
:1011D800DECFAEF0DECFAFF0DECFB0F020EE02F023
:1011E800B951D926BA51DA22DECF96F0DDCF97F081
:1011F800040E986FD89097339633982FFBD720EE2C
:101208002EF0B951D926BA51DA22DECF99F0DDCFC6
:101218009AF0995196259B6F9A5197219C6F9D6BD7
:10122800D8B09D2B9E6BB5519B259F6FB6519C21C5
:10123800A06FB7519D21A16FB8519E21A26F9F1F2A
:10124800A01FA11FA21F9F2B000EA023A123A22332
:10125800AD519F25606FAE51A021616FAF51A121A3
:10126800626FB051A221636F20EE1DF0B951D926EB
:10127800BA51DA22DF50A36FA351646F656B666BB6
:10128800676BA2EC25F0020E00016025A56F000E29
:101298006121A66F000E6221A76F000E6321A86F5F
:1012A80020EE16F0B951D926BA51DA22A5C0DEFFD0
:1012B800A6C0DDFF010EB36FA851A71106E1F70E16
:1012C800A55D0F0EA659D8A002D0020EB36FA85183
:1012D800A71106E1F70EA55DFF0EA659D8A002D00A
:1012E8000B0E120020EE08F0B951D926BA51DA22B5
:1012F800DECF96F0DECF97F0DECF98F0DECF99F014
:10130800B55196259A6FB65197219B6FB751982181
:101318009C6FB85199219D6F20EE0CF0B951D926D8
:10132800BA51DA229AC0DEFF9BC0DEFF9CC0DEFF06
:101338009DC0DEFF20EE08F0B951D926BA51DA2255
:10134800DECF96F0DECF97F0DECF98F0DECF99F0C3
:1013580020EE02F0B951D926BA51DA22DECF9AF03E
:10136800DDCF9BF0040E9C6FD8909B339A339C2F53
:10137800FBD79A5196259D6F9B5197219E6F000E22
:1013880098219F6F000E9921A06FB5519D25A16FDF
:10139800B6519E21A26FB7519F21A36FB851A021CA
:1013A800A46F20EE10F0B951D926BA51DA22A1C0A3
:1013B800DEFFA2C0DEFFA3C0DEFFA4C0DEFF20EE7A
:1013C8001AF0B951D926BA51DA22FF0EDE6EFF0E95
:1013D800DD6E20EE1CF0B951D926BA51DA22B3C01D
:1013E800DFFFF84BF92BB9C0D9FFBAC0DAFFF8C054
:1013F800DEFFF9C0DDFF000E1200000120EE04F050
:10140800C451D926C551DA22DECF67F0DDCF68F0A6
:10141800C4C0D9FFC5C0DAFFDECF69F0DDCF6AF0FE
:10142800B6EC28F00001D66FD651D8A4120020EEF1
:1014380002F0C451D926C551DA22DFBE120020EECF
:101448000AF0C451D926C551DA22C651DE5CC7510B
:10145800DE58C851DE58C951DE58D8B016D020EE33
:1014680002F0C451D926C551DA22DFB20ED020EEDF
:101478000AF0C451D926C551DA22DECFC6F0DECF34
:10148800C7F0DECFC8F0DECFC9F020EE06F0C451B9
:10149800D926C551DA22DECFD7F0DECFD8F0DECF9D
:1014A800D9F0DECFDAF020EE06F0C451D926C551C6
:1014B800DA22DE6ADE6ADE6ADD6A20EE03F0C451F3
:1014C800D926C551DA22FF0EDF6EC651C711C811E1
:1014D800C911D8B49BD120EE04F0C451D926C55106
:1014E800DA2210EE1DF0DE50E126DD50E222E75050
:1014F800CA6FCAC0CBF0CC6BCD6BCE6B090ED8903F
:10150800CB37CC37CD37CE37E82EF9D7CBC0DBF089
:10151800CCC0DCF0CDC0DDF0CEC0DEF0D751D811A4
:10152800D911DA11D8B48FD0FF0EC625606FFF0E1F
:10153800C721616FFF0EC821626FFF0EC921636F5B
:10154800DBC064F0DCC065F0DDC066F0DEC067F0CB
:10155800A2EC25F060C0CAF061C0CBF062C0CCF04C
:1015680063C0CDF0FF0E0001D725606FFF0ED821B4
:10157800616FFF0ED921626FFF0EDA21636FDBC046
:1015880064F0DCC065F0DDC066F0DEC067F0A2EC98
:1015980025F000016051CA5D6151CB596251CC59A7
:1015A8006351CD59D8A04FD0FF0EDB25CA6FFF0E6F
:1015B800DC21CB6FFF0EDD21CC6FFF0EDE21CD6F5E
:1015C800CA1FCB1FCC1FCD1FFF0ED725CE6FFF0E16
:1015D800D821CF6FFF0ED921D06FFF0EDA21D16F3E
:1015E800CA51CE15D26FCB51CF15D36FCC51D01570
:1015F800D46FCD51D115D56F20EE06F0C451D92640
:10160800C551DA22D2C0DEFFD3C0DEFFD4C0DEFF70
:10161800D5C0DEFF20EE06F0C451D926C551DA2226
:10162800DE50C65FDE50C75BDE50C85BDD50C95B6D
:1016380020EE10F0C451D926C551DA22DECFDFF0F2
:10164800DDCFE0F031D020EE0EF0C451D926C551DF
:10165800DA22DECFDFF0DDCFE0F0DF51E011D8A4F1
:1016680019D0000EB76F000EB66FADEC19F0B6C00A
:10167800DFF0B7C0E0F00001DF05E011D8B4F9D021
:1016880020EE0EF0C451D926C551DA22DFC0DEFFA4
:10169800E0C0DDFF20EE10F0C451D926C551DA2292
:1016A800DFC0DEFFE0C0DDFFDF51E011D8A464D069
:1016B800ADD020EE02F0C451D926C551DA22DFA2FE
:1016C80018D0DFC0B6F0E0C0B7F0ADEC19F0B6C086
:1016D800DFF0B7C0E0F00001DF51E011D8A413D06B
:1016E800DBC0C6F0DCC0C7F0DDC0C8F0DEC0C9F0A2
:1016F8004DD0DFC0A0F0E0C0A1F0CDEC16F0A0C046
:10170800DFF0A1C0E0F00001E05104E1020EDF5D6E
:10171800D8A0AFD020EE04F0C451D926C551DA22A2
:1017280010EE16F0DE50E126DD50E222E650DF5DD5
:10173800E650E059D8B09DD020EE10F0C451D9261B
:10174800C551DA22DFC0DEFFE0C0DDFF20EE06F083
:10175800C451D926C551DA22DB51DE26DC51DE22FE
:10176800DD51DE22DE51DE22DB51C65FDC51C75B74
:10177800DD51C85BDE51C95BC651DB5DC751DC5921
:10178800C851DD59C951DE59D8A093D720EE06F0CB
:10179800C451D926C551DA22C651DE26C751DE22E8
:1017A800C851DE22C951DE2220EE03F0C451D926E9
:1017B800C551DA22C6C0CAF0C7C0CBF0C8C0CCF049
:1017C800C9C0CDF00A0E05D0D890CD33CC33CB3379
:1017D800CA33E82EF9D7CA51DF6EFF0EC615CA6F95
:1017E800010EC715CB6F000EC815CC6F000EC915BA
:1017F800CD6FCA51CB11CC11CD11D8B407D020EE82
:1018080003F0C451D926C551DA22DF2A20EE06F0AA
:10181800C451D926C551DA2210EE0AF0C451E12686
:10182800C551E222DE50E65CDE50E658DE50E6584E
:10183800DE50E658D8B0120020EE06F0C451D92682
:10184800C551DA2210EE0AF0C451E126C551E22250
:10185800DECFE6FFDECFE6FFDECFE6FFDECFE6FF38
:1018680020EE02F0C451D926C551DA22000EDB8AD7
:10187800120020EE02F0C451D926C551DA22000E1A
:10188800DB8E1200DE0E03011C6F010E1D6F000EB1
:10189800116F000E106F10C31EF311C31FF31E2922
:1018A80003E11F29D8B41200DCC1F6FFDDC1F7FF40
:1018B8000800F5CF22F30101DC4BDD2B0301225197
:1018C800D8B41200250E2219D8B415D022C3E5F0D9
:1018D8000001E66BDAC1E7F0DBC1E8F0EAEC27F0DB
:1018E800E5C01EF3E6C01FF303011E2903E11F290B
:1018F800D8B4AED196D0000E166F16C314F3156B7C
:10190800DCC1F6FFDDC1F7FF0800F5CF22F30101C6
:10191800DC4BDD2B300E03012219D8A42ED0010E8A
:10192800166F21D014C360F015C361F0000E0001DA
:10193800636F0A0E626FD3EC2AF003012251010192
:10194800E66FE76B000160510101E6270001615174
:101958000101E723D00EE6250301146FFF0E0101F4
:10196800E7210301156FDCC1F6FFDDC1F7FF0800B1
:10197800F5CF22F30101DC4BDD2B2F0E030122658D
:1019880003D0390E2265CED76C0E2219D8A40BD0FD
:101998001683DCC1F6FFDDC1F7FF0800F5CF22F39F
:1019A8000101DC4BDD2B730E03012219D8A418D0DA
:1019B8001CC3D9FF1DC3DAFFDECFD4F1DDCFD5F1CB
:1019C800DAC1D6F1DBC1D7F134EC27F0D4C11EF36C
:1019D800D5C11FF3020E03011C27000E1D2338D1A9
:1019E800630E2219D8A422D01CC3D9FF1DC3DAFF65
:1019F800DF500101E66FE6510001E56FE66BDAC1E1
:101A0800E7F0DBC1E8F0EAEC27F0E5C01EF3E6C03A
:101A18001FF3020E03011C27000E1D231E2901E1DE
:101A280066D7000E1F6F010E1E6F12D1000E176FC2
:101A3800640E2219D8A402D00A0E176F750E221947
:101A4800D8A402D00A0E176F580E2219D8A402D0B3
:101A5800100E176F1751D8B4120016A30ED01CC35E
:101A6800D9FF1DC3DAFFDECF18F3DECF19F3DECFBF
:101A78001AF3DECF1BF3040E21D0640E2219D8B45A
:101A88000FD01CC3D9FF1DC3DAFFDECFE6F1DDCFCF
:101A9800E7F1E6C118F3E7C119F31A6B1B6B0DD018
:101AA8001CC3D9FF1DC3DAFFDECF18F3DDCF19F34E
:101AB800000E19BFFF0E1A6F1B6F020E1C27000EB7
:101AC8001D23640E2219D8A40DD0800E1B5DD8A04A
:101AD80009D01B1F1A1F191F186D000E19231A236E
:101AE8001B231685000E216F0F0E206F000E202578
:101AF800D96E030E2121DA6E000EDF6E18C360F076
:101B080019C361F01AC362F01BC363F017510001D7
:101B1800646F656B666B676BCCEC26F000016051F7
:101B2800300F0301226F390E226502D0070E2227DB
:101B38002007D8A02107000E2025D96E030E2121E9
:101B4800DA6E22C3DFFF18C360F019C361F01AC34D
:101B580062F01BC363F017510001646F656B666B1D
:101B6800676BA2EC25F060C018F361C019F362C07E
:101B78001AF363C01BF3030120512111D8B406D016
:101B8800185119111A111B11D8A4B8D720512111B5
:101B9800D8A416A50BD02007D8A02107000E202511
:101BA800D96E030E2121DA6E2D0EDF6E010E14257B
:101BB8000101E66F000E030115210101E76FE61F21
:101BC800E71FE64BE72B100EE6250301146F000E06
:101BD8000101E7210301156F16D0030116B104D0E6
:101BE800000E136F200E03D0000E136F300E126F0D
:101BF8002007D8A02107000E2025D96E030E212129
:101C0800DA6E12C3DFFF20512111D8B40DD0205154
:101C1800145D1551800A0101E66F03012151800A04
:101C28000101E659D8A0D9D7000E030120250101EA
:101C3800D46F030E030121210101D56FDAC1D6F15A
:101C4800DBC1D7F134EC27F0D4C11EF3D5C11FF3A3
:101C580003011E5110271F5111231E2901E121D60E
:101C680023D6000120EE04F0D751D926D851DA2224
:101C7800000EDE6E000EDD6E1F0EDB17D90E936FA1
:101C8800000E946FDB511E0B956F68EC07F0010195
:101C9800E66FE651D8B402D0E6511200E90E000111
:101CA800C06F010EC16FD40EC26F010EC36FD9C0D1
:101CB800C4F0DAC0C5F0E70EC66F010EC76FA3EC1B
:101CC80011F00101E66FDBC0DCF01C0E0001DC172F
:101CD800D8B4F6D00101E651D8B442D0020EE619C4
:101CE800D8B402D0E6511200E90E0001C46F010E0B
:101CF800C56FE70EC66F010EC76FF9EC12F0010150
:101D0800E66FE651D8B402D0E6511200E7C160F0A0
:101D1800E8C161F0000E0001636F000E626F000EF3
:101D2800656F200E646F63EC2AF0E7C160F0E8C1CC
:101D380061F0D40E0001626F010E636F000E656FD3
:101D48000B0E646FDCEC28F0010120EE0CF0E7517B
:101D5800D926E851DA22DFC1DFFF0001DB8780D016
:101D68000001DBA502D0070E12000101E751E811BE
:101D7800D8B40DD020EE0BF0E751D926E851DA227D
:101D8800DF500001DC6F110EDC17D8B402D0060E4C
:101D98001200DBA765D0010120EE1AF0E751D92621
:101DA800E851DA22DECFE0F1DDCFE1F120EE1AF0E2
:101DB800E751D926E851DA22000EDE6E000EDD6EFC
:101DC80020EE1CF0E751D926E851DA22DE6ADE6AF5
:101DD800DE6ADD6A20EE1FF0ED51D926EE51DA22D7
:101DE800010EDF6E20EE04F0ED51D926EE51DA2215
:101DF800DECFE2F1DECFE3F1DECFE4F1DECFE5F1D5
:101E0800E0C1B6F0E1C1B7F0ABEC22F00009D8B4FC
:101E18000DD0E2C18BF0E3C18CF0E4C18DF0E5C1D7
:101E28008EF08DEC1AF00009D8A402D0080E12002A
:101E3800FF0E0001DC6FFF0EDD6FE0C1DEF0E1C1D7
:101E4800DFF0DC51DE27DD51DF23010120EE18F041
:101E5800ED51D926EE51DA22DEC0DEFFDFC0DDFF0C
:101E68000001DBA74FD0010120EE0BF0E751D92686
:101E7800E851DA22000EDF6EF4EC1FF060C0E2F1E8
:101E880061C0E3F162C0E4F163C0E5F1010120EE55
:101E98000EF0E751D926E851DA22E2C1DEFFE3C1AC
:101EA800DEFFE4C1DEFFE5C1DEFF20EE1FF0ED51ED
:101EB800D926EE51DA22010EDF6E0001DB8B22D02B
:101EC8000101E651D8B402D0E6511200E751E811F9
:101ED800D8B408D020EE0BF0E751D926E851DA2221
:101EE800DFA802D0020E12000001DBA30BD0010113
:101EF80020EE0BF0E751D926E851DA22DFA002D014
:101F0800060E1200010120EE04F0ED51D926EE5123
:101F1800DA22000110EE16F0D751E126D851E2225C
:101F2800DECFE6FFDECFE6FFDECFE6FFDECFE6FF61
:101F380020EE1AF0D751D926D851DA22E7C1DEFFB0
:101F4800E8C1DDFF20EE02F0D751D926D851DA22B8
:101F5800DBC0DFFF010120EE1AF0E751D926E85176
:101F6800DA22000110EE0EF0D751E126D851E22214
:101F7800DECFE6FFDDCFE5FF010120EE1CF0E751E3
:101F8800D926E851DA22000110EE0AF0D751E126ED
:101F9800D851E222DECFE6FFDECFE6FFDECFE6FF56
:101FA800DECFE6FF20EE06F0D751D926D851DA2247
:101FB800DE6ADE6ADE6ADD6A20EE03F0D751D926D2
:101FC800D851DA22FF0EDF6E20EE04F0D751D92661
:101FD800D851DA22EDC1DEFFEEC1DDFFEDC1D9FF38
:101FE800EEC1DAFFD7C0E1FFD8C0E2FFDECFE6FFDF
:101FF800DDCFE5FF000E1200000E0001756F000E28
:10200800746F000E786F000E776F000E7E6F000EF3
:102018007D6F000E7F6F100E0001736F940EE82E17
:10202800FED7732FFCD700F0640E8CEC29F050EC2F
:1020380023F0AA0E0001656F010E666F000E676F30
:10204800000E686F870E696F480E00EC27F0A7EC4A
:102058002BF08DEC2BF000017B6F7B05D8A404D00E
:102068007B517A6F796B06D0AA0E7B19D8A402D05F
:102078007B517913774B782BAA0E791903E17A05EE
:10208800D8B408D078BFE5D7E80E775D030E785945
:10209800D8A0DFD7AA0E791902E17A05D8A4B1D061
:1020A800000E786F000E776F000E7E6F000E7D6F4A
:1020B8007F690A0E8CEC29F0000E0001656F000E96
:1020C800666F000E676F000E686F000E696F770EFF
:1020D80000EC27F000017F69A7EC2BF08DEC2BF0CA
:1020E80000017F6F7D4B7E2B7F05D8B408D07EBF63
:1020F800F5D77E5104E10A0E7D5DD8A0EFD7000E1A
:102108007E6F000E7D6F0A0E8CEC29F0000E000128
:10211800656F000E666F000E676F400E686F000EE9
:10212800696F690E00EC27F0A7EC2BF08DEC2BF013
:1021380000017F6F7D4B7E2B7F51D8A4BAD77F6972
:102148000A0E8CEC29F0000E0001656F000E666F18
:10215800000E676F000E686FFF0E696F7A0E00EC55
:1021680027F0A7EC2BF08DEC2BF000017F6F7F514F
:102178007F25800B7C6F7D4B7E2B7C51D8B40BD098
:102188007C05D8B408D07EBFEED77E5104E10A0E94
:102198007D5DD8A0E8D77C51D8B403D07C05D8A4FD
:1021A80083D7000E786F000E776F100E0001736FE3
:1021B800940EE82EFED7732FFCD700F0000E000116
:1021C800766F7C51D8A4B9D00A0E8CEC29F0000E99
:1021D8000001656F020E666F000E676F000E686F74
:1021E800FF0E696F500E00EC27F0A7EC2BF00001F2
:1021F8007F698DEC2BF000017F6F7F51D8B49DD0A3
:10220800F8D7000E7E6F000E7D6F7F69010E8CEC93
:1022180029F0000E0001656F000E666F000E676FF3
:10222800000E686FFF0E696F690E00EC27F0A7ECCF
:102238002BF08DEC2BF000017F6F7D4B7E2B7F51B7
:10224800D8A40CD0000E636F010EE4EC25F01F0E2D
:102258000001636F620E646F3FEC28F0100E0001FE
:10226800736F940EE82EFED7732FFCD700F0000191
:102278007F51D8B408D07EBFDCD7100E7D5D270E05
:102288007E59D8A0D6D77F690A0E7D197E11D8A4A9
:1022980038D0000E7E6F000E7D6F0A0E8CEC29F090
:1022A800000E0001656F000E666F000E676F000E6E
:1022B800686FFF0E696F410E00EC27F0A7EC2BF05A
:1022C8008DEC2BF000017F6F7D4B7E2B7F51D8A4C6
:1022D8000CD0000E636F010EE4EC25F0090E00012E
:1022E800636F620E646F3FEC28F000017F51D8B431
:1022F80008D07EBFE5D7100E7D5D270E7E59D8A089
:10230800DFD70A0E8CEC29F0000E0001656F020E73
:10231800666F000E676F000E686FFF0E696F500ED4
:1023280000EC27F0A7EC2BF000017F698DEC2BF077
:1023380000017F6F7F51D8A4F9D776511200000EA3
:102348000001D56F000ED66FFAC0D0F0FBC0D1F0F7
:1023580020EE04F0C051D926C151DA22D0C0DEFFE8
:10236800D1C0DDFF20EE0CF0D051D926D151DA22B0
:10237800DECFD2F0DDCFD3F020EE06F0C051D92663
:10238800C151DA22000EDE6E000EDD6E10EE08F08E
:10239800C051E126C151E222DECFE6FFDDCFE5FFE5
:1023A800D251C86FD351C96FCA6BCB6B20EE0AF0FC
:1023B800C051D926C151DA22C8C0DEFFC9C0DEFF2C
:1023C800CAC0DEFFCBC0DEFF20EE02F0C051D92626
:1023D800C151DA22000EDE6E000EDD6EC4C0F6FFBB
:1023E800C5C0F7FFF86A070EF76403D00800F55078
:1023F80005D0F6CFE9FFF7CFEAFFEF500009D8A4E0
:102408000AD0C6C0D9FFC7C0DAFF000EDE6E000EC4
:10241800DD6E000E1200C40E0001686F000E696FB9
:10242800C2C06AF0C3C06BF02CEC1CF00001D46F82
:10243800D405D8A402D0040E1200000120EE0AF040
:10244800C051D926C151DA22DECF8BF0DECF8CF015
:10245800DECF8DF0DECF8EF08DEC1AF00009D8A417
:1024680002D0080E1200000120EE02F0C051D92659
:10247800C151DA22DECFC8F0DDCFC9F00F0EC81780
:10248800000EC917050ED890C837C937E82EFBD7F4
:10249800200EC827000EC923C851D025D56FC951B1
:1024A800D121D66FD5C0D9FFD6C0DAFFDF50D8A466
:1024B8000DD0D451D8B404D0000ECD6F030E03D084
:1024C800000ECD6F020ECC6FCC511200D5C0D9FFD3
:1024D800D6C0DAFFE50EDE18D8B41BD020EE0BF01C
:1024E800D551D926D651DA22DFB613D0D5C060F03F
:1024F800D6C061F0C2C062F0C3C063F0000E656F61
:102508000B0E646FA2EC23F0000160516111D8B486
:1025180017D0C0C0B3F0C1C0B4F068EC1BF000091C
:10252800D8A48BD70001D451D8B404D0000ECF6FF3
:10253800030E03D0000ECF6F020ECE6FCE511200E5
:10254800D451D8A40AD0C6C0D9FFC7C0DAFFD5C0B5
:10255800DEFFD6C0DDFF000E120020EE0BF0D551D5
:10256800D926D651DA22DFB802D0030E120020EEA7
:102578001AF0D551D926D651DA22DECFD2F0DDCFE6
:10258800D3F020EE06F0C051D926C151DA22D2C0CC
:10259800DEFFD3C0DDFF10EE08F0C051E126C151C7
:1025A800E222DECFE6FFDDCFE5FFD2C06CF0D3C07C
:1025B8006DF0A7EC21F0000120EE0AF0C051D926F9
:1025C800C151DA226CC0DEFF6DC0DEFF6EC0DEFFD7
:1025D8006FC0DEFF20EE02F0C051D926C151DA22C9
:1025E800020EDE6E000EDD6E16D7000120EE04F03E
:1025F800C451D926C551DA22DECFD4F0DDCFD5F0CB
:1026080020EE06F0C451D926C551DA22DECFD2F029
:10261800DDCFD3F0D251D311D8B420D020EE08F0BA
:10262800C451D926C551DA22D2C0DEFFD3C0DDFF9E
:10263800D2C06CF0D3C06DF0A7EC21F0000120EE01
:102648000AF0C451D926C551DA226CC0DEFF6DC02C
:10265800DEFF6EC0DEFF6FC0DEFF14D020EE0CF090
:10266800D451D926D551DA2210EE0AF0C451E12608
:10267800C551E222DECFE6FFDECFE6FFDECFE6FF82
:10268800DECFE6FF20EE02F0C451D926C551DA228A
:10269800000EDE6E000EDD6E000120EE0AF0C45161
:1026A800D926C551DA22DECF8BF0DECF8CF0DECF13
:1026B8008DF0DECF8EF08DEC1AF00009D8A402D090
:1026C800080E1200000120EE02F0C451D926C551AF
:1026D800DA22DECFC8F0DDCFC9F00F0EC817000E22
:1026E800C917050ED890C837C937E82EFBD7200E72
:1026F800C827000EC923C851D425CF6FC951D52189
:10270800D06FCFC0D9FFD0C0DAFFDF50D16FD15121
:10271800D8B404D0E50ED119D8A40AD0C6C0D9FFC0
:10272800C7C0DAFFCFC0DEFFD0C0DDFF000E120049
:10273800C4C0B3F0C5C0B4F068EC1BF00009D8A45D
:10274800ABD70001D251D311D8B415D020EE08F080
:10275800C451D926C551DA22DECFB6F0DDCFB7F0A5
:10276800ADEC19F0B6C0D2F0B7C0D3F00001D25129
:10277800D311D8A402D0060E1200D205D311D8B4B2
:102788000DD0000E8B6F000E8C6F000E8D6F000E3B
:102798008E6F8DEC1AF00009D8A402D0080E120032
:1027A800D2C06CF0D3C06DF0A7EC21F06CC0CAF0B9
:1027B8006DC0CBF06EC0CCF06FC0CDF0000120EE44
:1027C80004F0D451D926D551DA22CAC0DEFFCBC0D5
:1027D800DEFFCCC0DEFFCDC0DEFF200ED425606F4B
:1027E800000ED521616F000E636F000E626F020E3E
:1027F800656F000E646F63EC2AF0000120EE1DF097
:10280800D451D926D551DA22DF50CE6F20D0200EF0
:10281800D4257F6F000ED521806FCAC081F0CBC050
:1028280082F0CCC083F0CDC084F0010E856F000E1D
:102838001BEC25F00009D8B402D0080E1200010ED6
:102848000001CA27000ECB23CC23CD23CE07CE51BF
:10285800D8A4DDD720EE1FF0D451D926D551DA22DD
:10286800010EDF6E200ED425C86F000ED521C96F6A
:10287800C6C0D9FFC7C0DAFFC8C0DEFFC9C0DDFFC8
:10288800000E12000A6E0AC00BF03BD13904D8A41E
:1028980004D0000E2E6E010E2D6E020E3918D8A42B
:1028A80004D0000E2C6E010E2B6E2D502E10D8B4B5
:1028B80012002B502C10D8B41200000E2C6E000EF3
:1028C8002B6E2BC02DF02CC02EF01200000E3A6E8D
:1028D8003AC038F012003A50010D6A0EF324D96E4E
:1028E800010EF420DA6E000EDF6E3850D8A430D016
:1028F8006A0E016E010E026E9B0E036E010E046ECF
:10290800000E066E000E056E69EC28F09B0E016E37
:10291800010E026E5D0E036E620E046E24EC29F049
:1029280001500210D8A402D0010E11D09B0E016EE6
:10293800010E026E570E036E620E046E24EC29F02F
:1029480001500210D8A402D0020E01D0030E396E35
:102958003804D8A411D03904D8A40ED06A0E016E58
:10296800010E026E760E036E010E046E000E066EE8
:10297800000E056E69EC28F0030E3818D8A411D0A3
:102988003904D8A40ED06A0E016E010E026E5D0ED7
:10299800036E010E046E000E066E010E056E69ECE4
:1029A80028F0040E3818D8A40CD03904D8A409D0BB
:1029B8004E0E01016A19D8A402D0300E01D02D0E96
:1029C8005D6F050E3818D8A411D03904D8A40ED0DC
:1029D8006A0E016E010E026E500E036E010E046E39
:1029E800000E066E010E056E69EC28F0060E38180A
:1029F800D8A40CD03904D8A409D0450E01016A190D
:102A0800D8A402D0300E01D02D0E506F070E381802
:102A1800D8A411D03904D8A40ED06A0E016E010EC4
:102A2800026E950E036E010E046E000E066E000E09
:102A3800056E69EC28F0080E3818D8A411D03904AE
:102A4800D8A40ED06A0E016E010E026E8F0E036EB0
:102A5800010E046E000E066E000E056E69EC28F07D
:102A6800090E3818D8A411D03904D8A40ED06A0E8B
:102A7800016E010E026E880E036E010E046E000ECA
:102A8800066E000E056E69EC28F0070E3818D8A4FB
:102A980012D0020E3918D8A40ED06A0E016E010E9B
:102AA800026EFD0E036E000E046E000E066E000E22
:102AB800056E69EC28F0090E3818D8A412D0020E59
:102AC8003918D8A40ED06A0E016E010E026E810E5E
:102AD800036E010E046E000E066E000E056E69ECA4
:102AE80028F0382A000E3A6E12003A50010D6A0E8C
:102AF800F324D96E010EF420DA6E0BC0DFFF3A2AF8
:102B080012000B500D0AD8B4C1D6290AD8B4DED6A3
:102B1800080AD8B4E0D6E9D7FAC0B4F0FBC0B5F0DB
:102B2800000120EE08F0B451D926B551DA22DECFE3
:102B3800ACF0DECFADF0DECFAEF0DECFAFF011D12E
:102B4800A0C060F0A1C061F0000E636F030E626F59
:102B5800D3EC2AF0D89000016131A46F6031B06FD6
:102B6800A4C0B1F0B0C0A4F0B1C0A5F0090EA66F22
:102B7800D890A533A433A62FFBD7A451AC258B6FCF
:102B8800A551AD218C6F000EAE218D6F000EAF21C7
:102B98008E6F8DEC1AF00009D8A402D0000E120036
:102BA800FF0E0001A46F010EA56FB0C0A6F0B1C062
:102BB800A7F0A451A617A551A717200EA627000E07
:102BC800A723A651B425B26FA751B521B36FA0B101
:102BD80004D0A2C0A8F0A96B1AD0A251A46FA56B0B
:102BE800A43BA53BF00EA517A4510F0BA513F00E9F
:102BF800A417B2C0D9FFB3C0DAFFDF500F0BA66F1E
:102C0800A76BA451A611A86FA551A711A96FB2C0AF
:102C1800D9FFB3C0DAFFA8C0DFFFB04BB12B20EE5D
:102C28001FF0B451D926B551DA22010EDF6EB0C0BB
:102C3800A4F0B1C0A5F0090EA66FD890A533A433AF
:102C4800A62FFBD7A451AC258B6FA551AD218C6F56
:102C5800000EAE218D6F000EAF218E6F8DEC1AF035
:102C68000009D8A402D0000E1200FF0E0001A46FC4
:102C7800010EA56FB0C0A6F0B1C0A7F0A451A61769
:102C8800A551A717200EA627000EA723A651B425E5
:102C9800B26FA751B521B36FA0B113D0A2C0A4F0F1
:102CA800A3C0A5F0A5C0A4F0A56B0F0EA417B2C0D1
:102CB800D9FFB3C0DAFFDF50F00BA411A66FA651FD
:102CC8000CD0A2C0A4F0A3C0A5F0040EA66FD890A3
:102CD800A533A433A62FFBD7A451AA6FAB6BB2C000
:102CE800D9FFB3C0DAFFAAC0DFFF49D0A0C0A4F063
:102CF800A1C0A5F0A5C0A4F0A56BA451AC258B6F0D
:102D0800A551AD218C6F000EAE218D6F000EAF2145
:102D18008E6F8DEC1AF00009D8A402D0000E1200B4
:102D2800FF0E0001A46F010EA56FA0C0A6F0A1C000
:102D3800A7F0D890A637A737A451A617A551A7176B
:102D4800200EA627000EA723A651B425D96EA75199
:102D5800B521DA6EA2C0DEFFA3C0DDFF10D0000EE1
:102D6800120020EE1CF0B451D926B551DA22DF50FA
:102D7800010AD8B4E5D6030AD8B4B8D7F0D720EEFC
:102D88001FF0B451D926B551DA22010EDF6E010EBB
:102D98001200FAC0B1F0FBC0B2F00001A15104E189
:102DA800020EA05DD8A000D120EE16F0B151D926B0
:102DB800B251DA22DE50A05DDE50A159D8B0F4D06D
:102DC80020EE08F0B151D926B251DA22DECFABF0AD
:102DD800DECFACF0DECFADF0DECFAEF0D8D0A0C005
:102DE80060F0A1C061F0000E636F030E626FD3EC58
:102DF8002AF0D89000016131A26F6031AF6FA2C094
:102E0800B0F0AFC0A2F0B0C0A3F0090EA46FD89084
:102E1800A333A233A42FFBD7A251AB258B6FA351A9
:102E2800AC218C6F000EAD218D6F000EAE218E6F20
:102E38008DEC1AF00009D8B4B7D0FF0E0001A26FCC
:102E4800010EA36FAFC0A4F0B0C0A5F0A251A417A3
:102E5800A351A517200EA427000EA523A451B12520
:102E6800D96EA551B221DA6EDF50A66FA651A96FAF
:102E7800AA6BAF4BB02BAFC0A2F0B0C0A3F0090E45
:102E8800A46FD890A333A233A42FFBD7A251AB25AC
:102E98008B6FA351AC218C6F000EAD218D6F000E8E
:102EA800AE218E6F8DEC1AF00009D8B47DD0FF0EDC
:102EB8000001A26F010EA36FAFC0A4F0B0C0A5F0CF
:102EC800A251A417A351A517200EA427000EA523CD
:102ED800A451B125D96EA551B221DA6EDF50A66F83
:102EE800A651A86FA76BA751A913A851AA13A0B1FF
:102EF80007D0FF0EA915A06F0F0EAA15A16F12001B
:102F0800A9C0A2F0AAC0A3F0040EA46FD890A3335E
:102F1800A233A42FFBD7A2C0A0F0A3C0A1F0120037
:102F2800A0C0A2F0A1C0A3F0A3C0A2F0A36BA251BD
:102F3800AB258B6FA351AC218C6F000EAD218D6F2B
:102F4800000EAE218E6F8DEC1AF00009D8B42CD08B
:102F5800FF0E0001A26F010EA36FA0C0A4F0A1C0D4
:102F6800A5F0D890A437A537A251A417A351A51747
:102F7800200EA427000EA523A451B125D96EA55172
:102F8800B221DA6EDECFA0F0DDCFA1F0120020EE84
:102F98001CF0B151D926B251DA22DF50010AD8B457
:102FA8001ED7030AD8B4BCD7000E0001A16F010ECA
:102FB800A06F120084B003D00001F7A103D03C0435
:102FC800D8A424D03B04D8B41FD0010E3C6E010E07
:102FD80043EC24F0000E0001636F010EE4EC25F0D1
:102FE8006E0E0001636F620E646F3FEC28F0000EF6
:102FF8000001636F020EE4EC25F0690E0001636FB7
:10300800620E646F3FEC28F0010E3B6E84B203D071
:103018000001F7A104D0020E3C18D8A43FD0020E3C
:103028003B18D8B439D0020E3C6E010E43EC24F0A4
:10303800000E0001636F010EE4EC25F0460E00015E
:10304800636F620E646F3FEC28F0080E0001636F37
:10305800010EE4EC25F0770E0001636F620E646FD9
:103068003FEC28F0000E0001636F020EE4EC25F03F
:10307800630E0001636F620E646F3FEC28F0080E68
:103088000001636F020EE4EC25F0770E0001636F18
:10309800620E646F3FEC28F0020E3B6E0001F7B140
:1030A80004D0030E3C18D8A418D0030E3B18D8B48B
:1030B80012D0030E3C6E010E43EC24F0000E00010A
:1030C800636F020EE4EC25F0460E0001636F620E9A
:1030D800646F3FEC28F0030E3B6E84B22BD03C505B
:1030E800D8B428D00001F7B125D0040E3B18D8B4C5
:1030F8001FD0010E43EC24F0000E3C6E000E0001C0
:10310800636F010EE4EC25F0B00E0001636F610EF1
:10311800646F3FEC28F0000E0001636F020EE4ECD0
:1031280025F04F0E0001636F620E646F3FEC28F0CC
:10313800040E3B6E3C50D8A412000001F7B11200F7
:10314800040E3B18D8B41DD0010E43EC24F0000E39
:103158000001636F010EE4EC25F09F0E0001636F20
:10316800610E646F3FEC28F0000E0001636F020EE1
:10317800E4EC25F04F0E0001636F620E646F3FECC4
:1031880028F0040E3B6E1200000E0001786F000E4E
:10319800776F000E7A6F000E796F010E72656CD032
:1031A8008B9E8A980A0E8CEC29F000017251656F8B
:1031B800666B676B686BFF0E696F570E00EC27F044
:1031C800A7EC2BF08DEC2BF000017E6F7E51D8A47C
:1031D800F9D70A0E8CEC29F06EC073F06FC074F04A
:1031E80070C075F071C076F0090ED8900001733781
:1031F800743775377637E82EF8D773C065F074C022
:1032080066F075C067F076C068F0FF0E696F590EFA
:1032180000EC27F0A7EC2BF08DEC2BF000017E6F73
:103228007E51D8A4F9D7010E8CEC29F0FC0E58EC8D
:103238002BF0000E00017D6F000E7C6F7DBF04D067
:10324800020E7D5DD8B00DD06CC0D9FF6DC0DAFF1D
:10325800DF5058EC2BF000016C4B6D2B7C4B7D2B19
:10326800EDD7ADEC2BF0ADEC2BF0010E8CEC29F08A
:10327800FD0E58EC2BF06AD08B9E8A980A0E8CECC7
:1032880029F06EC073F06FC074F070C075F071C033
:1032980076F0090ED8900001733774377537763792
:1032A800E82EF8D773C065F074C066F075C067F093
:1032B80076C068F0000E696F580E00EC27F0A7EC96
:1032C8002BF08DEC2BF000017E6F7E51D8A4F9D73E
:1032D8008A988B9E010E8CEC29F0FE0E58EC2BF090
:1032E800000E00017D6F000E7C6F7DBF04D0020EC2
:1032F8007D5DD8B00DD06CC0D9FF6DC0DAFFDF504E
:1033080058EC2BF000016C4B6D2B7C4B7D2BEDD7D3
:10331800ADEC2BF0ADEC2BF00A0E8CEC29F0000E86
:103328000001656F000E666F000E676F000E686F14
:10333800000E696F4D0E00EC27F0A7EC2BF08DEC1A
:103348002BF000017E6F7E51D8A4F9D700017B5184
:103358001200FAC0BCF0FBC0BDF0000120EE16F070
:10336800BC51D926BD51DA22DECFBAF0DDCFBBF091
:10337800B651B711D8A41BD020EE18F0BC51D926ED
:10338800BD51DA22DECFC0F0DDCFC1F0C15104E17A
:10339800020EC05DD8A006D0BA51C05DBB51C1595C
:1033A800D8A02AD0000EC16F010EC06F25D0B6C0BC
:1033B800A0F0B7C0A1F0CDEC16F0A0C0BEF0A1C03F
:1033C800BFF00001BF5109E1020EBE5DD8B005D0C3
:1033D800000EB76F010EB66F1200BA51BE5DBB5139
:1033E800BF59D8B005D0BEC0B6F0BFC0B7F0120004
:1033F800B6C0C0F0B7C0C1F0C0C0C2F0C1C0C3F011
:10340800C24BC32BBA51C25DBB51C359D8A00FD010
:10341800000EC36F020EC26FC251C05DC351C159C5
:10342800D8B005D0000EB76F000EB66F1200C2C03C
:10343800A0F0C3C0A1F0CDEC16F0A0C0BEF0A1C0B2
:10344800BFF00001BE51BF11D8B415D0BE05BF11E1
:10345800D8A405D0000EB76F010EB66F1200C05188
:10346800C219CEE1C151C319D8A4CAD7000EB76F8B
:10347800000EB66F1200C2C0A0F0C3C0A1F0FF0ECC
:10348800A36FA26990EC15F00009D8A406D0000E2D
:103498000001B76F010EB66F12000001B651B711E7
:1034A800D8B413D0B6C0A0F0B7C0A1F0C2C0A2F083
:1034B800C3C0A3F090EC15F00009D8A406D0000E04
:1034C8000001B76F010EB66F1200000120EE18F070
:1034D800BC51D926BD51DA22C2C0DEFFC3C0DDFF10
:1034E80020EE1AF0BC51D926BD51DA22DE2803E1BC
:1034F800DE28D8B409D020EE1AF0BC51D926BD5127
:10350800DA22DE06000EDD5AC2C0B6F0C3C0B7F03C
:103518001200FAC09EF0FBC09FF0000120EE04F0FC
:103528009E51D9269F51DA22DECF9AF0DECF9BF04A
:10353800DECF9CF0DECF9DF08B519A190AE18C51B9
:103548009B1907E18D519C1904E18E519D19D8B43E
:10355800B9D020EE1FF09E51D9269F51DA22DF50B4
:10356800D8B483D0200E9E257F6F000E9F21806FD8
:103578009AC081F09BC082F09CC083F09DC084F00B
:10358800010E856F000E1BEC25F00009D8B402D09F
:10359800000E1200000120EE1FF09E51D9269F5107
:1035A800DA22000EDF6E20EE08F09E51D9269F51D8
:1035B800DA22DECF8FF0DECF90F0DECF91F0DECFD3
:1035C80092F020EE14F09E51D9269F51DA22DECFD8
:1035D80093F0DDCF94F093518F25956F94519021FE
:1035E800966F000E9121976F000E9221986F95515A
:1035F8009A5D96519B5997519C5998519D59D8B0AD
:1036080034D020EE1EF09E51D9269F51DA22DF5089
:10361800996F020E996101D028D020EE14F09E51C6
:10362800D9269F51DA22DECF8FF0DDCF90F08F516F
:103638009A2790519B23000E9C23000E9D23200E59
:103648009E257F6F000E9F21806F9AC081F09BC0DE
:1036580082F09CC083F09DC084F0010E856F000E3F
:103668001BEC25F000019907D4D78B518C118D11D3
:103678008E11D8B427D0200E9E257F6F000E9F2173
:10368800806F8BC081F08CC082F08DC083F08EC0BB
:1036980084F0010E856F000E8DEC24F00009D8B47B
:1036A80002D0000E1200000120EE04F09E51D9262F
:1036B8009F51DA228BC0DEFF8CC0DEFF8DC0DEFF9B
:1036C8008EC0DEFF010E1200000120EE02F0B351A1
:1036D800D926B451DA22DECFB5F0DDCFB6F0010E2F
:1036E800B525BE6F000EB621BF6F0F0EBE15B56FA4
:1036F800000EBF15B66FB551B611D8A49DD020EEF7
:103708000AF0B351D926B451DA22DE2A000EDE229D
:10371800DE22DE2220EE08F0B351D926B451DA2297
:10372800DE50DE10D8A414D020EE04F0B351D92610
:10373800B451DA2210EE02F0DE50E126DD50E2222A
:10374800E650BE5DE650BF59D8A076D0000E1200F4
:10375800BEC0B5F0BFC0B6F0040EB76FD890B63390
:10376800B533B72FFBD7FF0EB86FFF0EB96F20EE3A
:1037780004F0B351D926B451DA2210EE1DF0DE5010
:10378800E126DD50E222E750BA6FBB6BB851BA2789
:10379800B951BB23B551BA17B651BB17BA51BB11B2
:1037A800D8A44AD020EE08F0B351D926B451DA2271
:1037B800DECFA0F0DDCFA1F0CDEC16F0A0C0BCF0BC
:1037C800A1C0BDF00001BD5104E1020EBC5DD8A04E
:1037D80012D020EE04F0B351D926B451DA2210EEFB
:1037E80016F0DE50E126DD50E222E650BC5DE650E0
:1037F800BD59D8A002D0000E120020EE08F0B35137
:10380800D926B451DA22BCC0DEFFBDC0DDFFBCC082
:103818006CF0BDC06DF0A7EC21F0000120EE0AF0BD
:10382800B351D926B451DA226CC0DEFF6DC0DEFF79
:103838006EC0DEFF6FC0DEFF20EE02F0B351D92666
:10384800B451DA22BEC0DEFFBFC0DDFF010E120098
:103858006AC060F06BC061F0000E0001636F200E5B
:10386800626F000E656F0B0E646F63EC2AF0000E3A
:103878000001726F180E706F000E736F080E716F73
:1038880068C0D9FF69C0DAFFDFCF6CF0010EDE2611
:10389800DFCF6DF0000EDD226CC0F6FF6DC0F7FFC4
:1038A800F86A070EF76403D00800F55005D0F6CF84
:1038B800E9FFF7CFEAFFEF500001746F7451D8B4F5
:1038C80004D02F0E7419D8A413D07351D8B475D05E
:1038D800725170156C6F6C516E6F6F6B20EE0BF040
:1038E8006A51D9266B51DA226EC0DFFF745112007B
:1038F800200E746562D07F0E7419D8B45ED02E0E77
:103908007419D8A40CD072B158D07351D8B455D00A
:10391800090E736152D0080E736F0B0EB0D7220ECA
:103928007419D8B44AD02A0E746101D035D02D0E3E
:10393800746101D042D03A0E746101D02DD0400E8E
:10394800746101D03AD072B127D07C0E7419D8B402
:1039580034D05A0E746504D05E0E746101D02DD037
:10396800400E74650AD05B0E746107D0080E711999
:10397800D8A402D0709701D07099600E74650CD0ED
:103988007B0E746109D0200E745F080E7119D8A4DB
:1039980002D0728701D0728972917151735DD8B06B
:1039A8000CD07351010DF3506A25D96EF4506B2178
:1039B800DA6E74C0DFFF732B63D7010E12000600A6
:1039C800FACF0EF0FBCF0FF0E9CF10F0EACF11F0ED
:1039D800E1CF12F0E2CF13F0D9CF14F0DACF15F01F
:1039E800F3CF16F0F4CF17F0F6CF18F0F7CF19F0A1
:1039F800F8CF1AF0F5CF1BF040C01CF041C01DF005
:103A080042C01EF043C01FF09DBA9EAA14D09E9AD1
:103A18007DEC2BF03E6E3E5046EC14F081B403D0A2
:103A28000C6A0C2A01D00C6A0C460C4681500C1802
:103A3800FB0B0C18816EF2B4F2A43ED0F294010E86
:103A48000001FC6F000E206E030E206401D020D010
:103A58002050020D210EF324D96E000EF420DA6EE8
:103A6800DE50DE10D8B40BD02050020D210EF32406
:103A7800D96E000EF420DA6EDE06000EDD5A2F50E5
:103A88003010D8B403D02F06D8A03006202ADCD7AF
:103A98003D04D8A40BD03106D8A0320631503210DC
:103AA800D8A404D0000EFA6E000EF96E000E026E55
:103AB800830E016E74EC2BF0F2B2F2A801D0F292F0
:103AC8001FC043F01EC042F01DC041F01CC040F0B2
:103AD8001BC0F5FF1AC0F8FF19C0F7FF18C0F6FFA2
:103AE80017C0F4FF16C0F3FF15C0DAFF14C0D9FFE2
:103AF80013C0E2FF12C0E1FF11C0EAFF10C0E9FFE6
:103B08000FC0FBFF0EC0FAFF40921100000E00012B
:103B1800776F0A0E8CEC29F06EC073F06FC074F0EA
:103B280070C075F071C076F0090ED8900001733737
:103B3800743775377637E82EF8D773C078F074C0C5
:103B480079F075C07AF076C07BF06E056F11701150
:103B58007111D8B41DD00A0E8CEC29F078C065F02C
:103B680079C066F07AC067F07BC068F0000E00018B
:103B7800696F520E00EC27F0A7EC2BF08DEC2BF0C0
:103B880000017E6F7E51D8A4F9D7A7EC2BF021D085
:103B98000A0E8CEC29F06EC065F06FC066F070C03C
:103BA80067F071C068F0000E0001696F510E00ECFB
:103BB80027F0A7EC2BF08DEC2BF000017E6F7E51E7
:103BC800D8A4F9D7A7EC2BF004D08DEC2BF000018A
:103BD8007E6FFE0E00017E19D8A4F7D7000E7D6F08
:103BE800000E7C6F0CD07C516C25D96E7D516D21F7
:103BF800DA6E8DEC2BF0DF6E00017C4B7D2B7DBFE8
:103C0800F2D7020E7D5DD8A0EED7000E7D6F000EB4
:103C18007C6F0A0E8CEC29F0000E0001656F000E17
:103C2800666F000E676F000E686F000E696F4C0EAE
:103C380000EC27F0A7EC2BF08DEC2BF000017E6F49
:103C48007E29D8A4F9D7000E7D6F000E7C6F000E78
:103C580012006EC072F06FC073F070C074F071C063
:103C680075F0060ED89000017237733774377537C0
:103C7800E82EF8D7721F731F741F751F722B000E62
:103C8800732374237523000E7225606F6C0E7321E5
:103C9800616FDC0E7421626F020E7521636F6EC056
:103CA80076F06FC077F070C078F071C079F0060ECA
:103CB800D8907637773778377937E82EF9D776C0BE
:103CC80064F077C065F078C066F079C067F0E4EC1E
:103CD80020F060C07AF061C07BF000017B05D8A0BD
:103CE80044D06EC072F06FC073F070C074F071C0D1
:103CF80075F0040ED8907237733774377537E82E1D
:103D0800F9D7721F731F741F751F722B000E732350
:103D180074237523000E7225606F6C0E7321616F1A
:103D2800DC0E7421626F020E7521636F6EC076F02F
:103D38006FC077F070C078F071C079F0040ED89039
:103D48007637773778377937E82EF9D776C064F041
:103D580077C065F078C066F079C067F0E4EC20F0D1
:103D680060C07AF061C07BF0AC8400017B05D8B0FC
:103D780012007AC0AFFFAC98AB8E948E949CAB883F
:103D8800AC8A12000001686F66C060F067C061F01D
:103D9800EFEC29F000016051696F7CD0000E6A6F6A
:103DA800050E6A6501D0120066C0D9FF67C0DAFF48
:103DB8006A51010D0F0EF324E16E010EF420E26E3C
:103DC800DFCFE7FF664B672B6A2BEAD7000E6A6FD7
:103DD800050E6A6501D012D066C0D9FF67C0DAFF48
:103DE8006A51010D080EF324E16E010EF420E26E13
:103DF800DFCFE7FF664B672B6A2BEAD7010E366EDB
:103E08001200000E6A6F0C0E6A6501D0120066C0BF
:103E1800D9FF67C0DAFF6A51010D1A0EF324E16E6B
:103E2800010EF420E26EDFCFE7FF664B672B6A2BAB
:103E3800EAD7000E6A6F0C0E6A6501D0120066C0E0
:103E4800D9FF67C0DAFF6A51010D270EF324E16E2E
:103E5800010EF420E26EDFCFE7FF664B672B6A2B7B
:103E6800EAD7000E6A6F11D066C0D9FF67C0DAFFC3
:103E78006A51010D270EF324E16E010EF420E26E63
:103E8800DFCFE7FF664B672B6A2B69516A5DD8B0B5
:103E98001200EAD76851000AD8B480D7010AD8B40A
:103EA80095D7030AD8B4ADD7010AD8B4C2D7070A40
:103EB800D8A41200D6D7000120EE04F0A251D926CA
:103EC800A351DA22DECF67F0DDCF68F0A2C0D9FFB8
:103ED800A3C0DAFFDECF69F0DDCF6AF0B6EC28F0D8
:103EE8000001A86FA851D8A479D020EE02F0A25101
:103EF800D926A351DA22DFAA71D020EE16F0A251FA
:103F0800D926A351DA22DECF8BF0DECF8CF0DECFBC
:103F18008DF0DECF8EF08DEC1AF00009D8A402D017
:103F2800080E1200000120EE1AF0A251D926A35162
:103F3800DA22DECFA9F0DDCFAAF020EE0BF0A951EE
:103F4800D926AA51DA22000EDB8A20EE0AF0A25105
:103F5800D926A351DA2210EE1CF0A951E126AA5164
:103F6800E222DECFE6FFDECFE6FFDECFE6FFDECFE2
:103F7800E6FF20EE0EF0A251D926A351DA2210EE68
:103F88001AF0A951E126AA51E222DECFE6FFDDCFE1
:103F9800E5FFF4EC1FF060C0A4F061C0A5F062C0BA
:103FA800A6F063C0A7F0000120EE16F0A951D926AB
:103FB800AA51DA22A4C0DEFFA5C0DEFFA6C0DEFF3C
:103FC800A7C0DEFF20EE02F0A251D926A351DA22C3
:103FD800DF0EDF1665EC27F00001A86FA85112006C
:103FE800D89000018F31656F8E31646F8C51666F88
:103FF8008D51676F686B696B050ED89066376737A8
:1040080068376937E82EF9D78A516A6F8B516B6F19
:104018006C6B6D6B0B0ED8906A376B376C376D37DE
:10402800E82EF9D791C06EF06F6B706B716B6FC033
:1040380071F06EC070F06F6B6E6B91C072F0736B45
:10404800746B756B150ED890723773377437753774
:10405800E82EF9D792C076F0776B786B796B190EEA
:10406800D8907637773778377937E82EF9D772517D
:1040780076117A6F735177117B6F745178117C6F59
:10408800755179117D6F6E517A117E6F6F517B1169
:104098007F6F70517C11806F71517D11816F6A51F2
:1040A8007E11826F6B517F11836F6C518011846F09
:1040B8006D518111856F66518211866F6751831129
:1040C800876F68518411886F69518511896F6451B0
:1040D8008611606F65518711616F000E8811626FDC
:1040E800000E8911636F120003D00001664B672B25
:1040F80066C0D9FF67C0DAFF200EDE18D8B4F5D73E
:1041080066C0D9FF67C0DAFF090EDE18D8B4EDD74C
:10411800000E00016C6F000E6B6F000E6A6F66C0B8
:10412800D9FF67C0DAFF2D0EDE18D8A402D06A2B9B
:1041380026D066C0D9FF67C0DAFF2B0EDE18D8A4D8
:1041480020D01DD06BC060F06CC061F0000E000183
:10415800636F0A0E626FD3EC2AF066C0D9FF67C09E
:10416800DAFFDF500001686F696B605168276151A1
:104178006923D00E68256B6FFF0E69216C6F664B43
:10418800672B66C0D9FF67C0DAFFDF50F9EC2AF069
:10419800D8B0D8D700016A51D8B40DD06BC068F038
:1041A8006CC069F0681F691F684B692B68C066F0AE
:1041B80069C067F012006BC066F06CC067F012004F
:1041C800000E0001696F67AF0AD0671F661F651F81
:1041D800646D000E652366236723010E696F63AF64
:1041E8000AD0631F621F611F606D000E6123622386
:1041F8006323010E691B000E6A6F000E6B6F000EC1
:104208006C6F000E6D6F6451651166116711D8B43B
:104218002AD0010E686F06D0D890643765376637A4
:104228006737682B67AFF8D7D8906A376B376C3722
:104238006D376451605D65516159665162596751C6
:104248006359D8A009D06451605F6551615B6651BC
:10425800625B6751635B6A81D89067336633653305
:104268006433682FE1D76951D8B408D06D1F6C1F2B
:104278006B1F6A6D000E6B236C236D236AC060F0A0
:104288006BC061F06CC062F06DC063F01200240E68
:10429800F66E4F0EF76E000EF86E03EE79F010EE24
:1042A80058F00900F5CFEEFFE550E150FAE1920E23
:1042B800F66E540EF76E000EF86E01EEA1F010EED9
:1042C80033F00900F5CFEEFFE550E150FAE17C0E3E
:1042D800F66E570EF76E000EF86E0900F5CF3FF038
:1042E80003EEE5F012EE20F0EE6AE550E150FCE155
:1042F800E250FAE103EED1F0140EEE6AE806FDE1B1
:1043080002EE00F011EE00F0EE6AE550E150FCE13B
:10431800E250FAE101EE00F0A10EEE6AE806FDE1D6
:1043280000EEEDF0130EEE6AE806FDE100EE21F076
:104338001E0EEE6AE806FDE140904092000EF86E0F
:1043480000017BEF2AF0FAC075F0FBC076F0020E90
:1043580000016C5F000E6D5BFE0E706FFF0E716FDB
:1043680020EE16F07551D9267651DA22DECF72F09A
:10437800DDCF73F0705172277151732372516C5DE8
:1043880073516D59D8A009D0000E6C6F000E6D6F77
:10439800000E6E6F000E6F6F120020EE10F0755158
:1043A800D9267651DA22DECF70F0DECF71F0DECF7B
:1043B80072F0DECF73F06CC060F06DC061F0626BBC
:1043C800636B20EE1DF07551D9267651DA22DF5045
:1043D800746F7451646F656B666B676BBEEC27F026
:1043E8000001705160256C6F715161216D6F7251C0
:1043F80062216E6F735163216F6F120069C06DF097
:104408006AC06EF06DC060F06EC061F06BC062F0A3
:104418006CC063F015EC28F060C06DF061C06EF000
:104428000001674B682B6D516E11D8A4EBD767C09C
:10443800D9FF68C0DAFF000EDF6E6707D8A06807EB
:1044480069C060F06AC061F06BC062F06CC063F074
:104458006AEC29F0000160516F6F69C060F06AC0B2
:1044680061F06BC062F06CC063F015EC28F060C0BE
:1044780069F061C06AF0090E00016F6502D0070E8D
:104488006F27300E6F2767C0D9FF68C0DAFF6FC08B
:10449800DFFF6707D8A0680769516A11D8A4D0D789
:1044A800674B682B1200819694EC2BF00AEC2BF0EA
:1044B800E50E0001606F030E616F000E90EC28F0AE
:1044C800340E0001D76F010ED86FC50ED96F010EDB
:1044D800DA6F120EDB6F35EC0EF00009D8A431D07C
:1044E800340E0001C46F010EC56F3EC1C6F03FC156
:1044F800C7F040C1C8F041C1C9F001EC0AF0340E60
:104508000101DA6F010EDB6F750EDC6F610EDD6F76
:104518000F0EDE6F010EDF6F080EE06F010EE16F08
:104528001A0EE26F010EE36F270EE46F010EE56FBE
:1045380046EC0CF0340E0001AB6F010EAC6F92EC40
:104548002AF08186B3EC2BF0E7EC2AF01200FAC0CF
:10455800BCF0FBC0BDF039D0B6C0A0F0B7C0A1F028
:10456800CDEC16F0A0C0BAF0A1C0BBF00001BA05AE
:10457800BB11D8A402D0000E1200B6C0A0F0B7C07C
:10458800A1F0000EA36F000EA26F90EC15F00009C9
:10459800D8A402D0000E1200000120EE1AF0BC517F
:1045A800D926BD51DA22DE2803E1DE28D8B409D0A5
:1045B80020EE1AF0BC51D926BD51DA22DE2A000EAF
:1045C800DD22BAC0B6F0BBC0B7F00001B75104E1B4
:1045D800020EB65DD8A00CD020EE16F0BC51D9263C
:1045E800BD51DA22DE50B65DDE50B759D8A0B4D737
:1045F800010E1200000E0101F96F030EF96501D0DA
:104608001200F951020DED0EF324D96E000EF420BC
:10461800DA6EDE50DE10D8B43DD0F951020D210E0D
:10462800F324D96E000EF420DA6EDE50DE10D8A422
:1046380031D0010E3D6EEA0E326E600E316EF951C8
:10464800020DED0EF324D96E000EF420DA6E01D8B7
:104658000AD00500FA6EDE50FD6EDE50FE6EF85090
:10466800FF6EFA501200000E3D6E0101F951020D65
:10467800000EF324D96E010EF420DA6EF951020D02
:10468800210EF324E16E000EF420E26EDECFE6FF89
:10469800DDCFE5FFF92BB1D7000E00016D6F000EDD
:1046A8006C6F000E716F000E706F000E6F6F000E52
:1046B8006E6F000E656F000E666F000E676F000E5E
:1046C800686F950E696F400E00EC27F0A7EC2BF091
:1046D8008DEC2BF00001726F704B712B7205D8B402
:1046E80008D071BFF5D7715104E10A0E705DD8A0EA
:1046F800EFD7000E716F000E706F7205D8B419D025
:10470800000E636F010EE4EC25F0140E0001636FD8
:10471800620E646F3FEC28F0000E0001636F020E1A
:10472800E4EC25F0C10E0001636F610E646F3FEC8D
:1047380028F000017205D8B41200BBD743D060C07E
:10474800D9FF61C0DAFFDF500001666F62C0F6FF73
:1047580063C0F7FFF86A070EF76403D00800F55046
:1047680005D0F6CFE9FFF7CFEAFFEF500001661951
:10477800D8B424D062C0F6FF63C0F7FFF86A070E0A
:10478800F76403D00800F55005D0F6CFE9FFF7CF5E
:10479800EAFFEF500001666F676B661F671F664B85
:1047A800672B60C0D9FF61C0DAFFDF50686F6851BE
:1047B8006625606F000E6721616F1200604B612BE8
:1047C800624B632B00016407D8A065076429B7E131
:1047D8006529D8A4B4D7000E616F000E606F12006F
:1047E8009594959295909598959A959C959E839475
:1047F80083928390839E839C838A8388EA0E000138
:10480800636FC30EE82EFED7632FFCD78380BEEC00
:104818002AF08390BEEC2AF04E0E0001636FEB0E77
:10482800E82EFED7632FFCD78380BEEC2AF0839056
:10483800BEEC2AF04E0E0001636FEB0EE82EFED799
:10484800632FFCD78380BEEC2AF08390BEEC2AF05D
:10485800839E839C838A83988380BEEC2AF083900E
:10486800BEEC2AF0280E43EC24F0060E43EC24F0AC
:104878000E0E43EC24F0010E43EC24F0120000016C
:10488800626F839483928390000162A902D0838827
:1048980001D0839862AB02D0838A01D0839A62AD3B
:1048A80002D0838C01D0839C62AF02D0838E01D06A
:1048B800839E8380BEEC2AF08390BEEC2AF0000130
:1048C80062A102D0838801D0839862A302D0838A30
:1048D80001D0839A62A502D0838C01D0839C62A701
:1048E80002D0838E01D0839E8380BEEC2AF0839011
:1048F800BEEC2AF000016205D8B408D0020E621995
:10490800D8B404D0030E6219D8A41200BEEC2AF061
:1049180012000001876F38D07FC06CF080C06DF046
:1049280081C06EF082C06FF083C070F084C071F0F7
:1049380085C072F08AEC1DF00001866F8651886F81
:10494800896B88C08AF08A5112007FC06CF080C0E1
:104958006DF081C06EF082C06FF083C070F084C0CB
:1049680071F085C072F08AEC1DF00001866F8651E7
:10497800886F896B88C08AF029C07FF02AC080F0D0
:104988008A5112008A51120000018751000AD8B4D6
:10499800C3D7010AD8B4D9D7030AD8B4F3D7040EB9
:1049A8001200FAC091F0FBC092F0200E0001912590
:1049B8007F6F000E9221806F8BC081F08CC082F0D7
:1049C8008DC083F08EC084F0010E856F000E8DECD3
:1049D80024F00009D8B402D0020E1200000122EE21
:1049E8001EF09151D9269251DA22550EDE1804E1B3
:1049F800AA0EDE18D8B402D0020E1200560E912567
:104A0800606F000E9221616F730E626F620E636FAA
:104A1800000E656F030E646FA2EC23F00001605175
:104A28006111D8A402D0000E1200010E120000017C
:104A3800876F34D07FC06CF080C06DF081C06EF09D
:104A480082C06FF083C070F084C071F085C072F0CE
:104A5800C8EC18F00001866F8651886F896B88C092
:104A68008AF08A5112007FC06CF080C06DF081C05E
:104A78006EF082C06FF083C070F084C071F085C0A2
:104A880072F0C8EC18F00001866F8651886F896B48
:104A980088C08AF08A5112008A5112000001875199
:104AA800000AD8B4C7D7010AD8B4DDD7030AD8B4E6
:104AB800F3D7040E1200640EF66E610EF76E20EE48
:104AC80068F0100E0900F5CFDEFFE806FBE2530E92
:104AD800F66E610EF76E20EE79F0100E0900F5CF34
:104AE800DEFFE806FBE2000E0001636F010EE4EC56
:104AF80025F0680E0001636F000E646F3FEC28F02C
:104B0800000E0001636F020EE4EC25F0790E00013F
:104B1800636F000E646F3FEC28F03D0E0001676F75
:104B2800E10E666F3F0EE82EFED7662FFCD7672F83
:104B3800FAD700D0010E43EC24F01200000E000159
:104B4800686F000E696F000E6A6F000E6B6F64511C
:104B5800651166116711D8B42AD0010E6C6F06D0A2
:104B6800D89064376537663767376C2B67AFF8D7E7
:104B7800D890683769376A376B376451605D65511B
:104B880061596651625967516359D8A009D0645177
:104B9800605F6551615B6651625B6751635B688109
:104BA800D89067336633653364336C2FE1D768C0B8
:104BB80060F069C061F06AC062F06BC063F0120017
:104BC8000001646F000E0001656F110E636134D03F
:104BD80022D063C065F065515FEC26F02AD0000151
:104BE8006351400F656F65515FEC26F022D00001DC
:104BF8006351140F656F65515FEC26F01AD0000100
:104C08006351540F656F65515FEC26F012D0000EAA
:104C18000001656F0ED06451010AD8B4DAD7030ACF
:104C2800D8B4DDD7010AD8B4E2D7070AD8B4E7D791
:104C3800EED70001632B1200000E656F1200000111
:104C4800626F839483828390000162A902D0838873
:104C580001D0839862AB02D0838A01D0839A62AD77
:104C680002D0838C01D0839C62AF02D0838E01D0A6
:104C7800839E8380BEEC2AF08390BEEC2AF000016C
:104C880062A102D0838801D0839862A302D0838A6C
:104C980001D0839A62A502D0838C01D0839C62A73D
:104CA80002D0838E01D0839E8380BEEC2AF083904D
:104CB800BEEC2AF012000001626F83948392839005
:104CC800838E000162A902D0838801D0839862ABE9
:104CD80002D0838A01D0839A62AD02D0838C01D03E
:104CE800839C8380BEEC2AF08390BEEC2AF00001FE
:104CF80062A102D0838801D0839862A302D0838AFC
:104D080001D0839A62A502D0838C01D0839C62A7CC
:104D180002D0838E01D0839E8380BEEC2AF08390DC
:104D2800BEEC2AF012007A0E0001ED6F570EEE6FFE
:104D38009A0EEF6F560EF06F120EF16F000EF26FB3
:104D4800BC0EF36F2F0EF46F130E0101016F880E66
:104D5800006F030E036FE80E026F030E056FE80E77
:104D6800046F000E076F640E066F130E226E880E16
:104D7800216E030E246EE80E236E030E266EE80ED7
:104D8800256E130E286E880E276E000E3D6E1200DB
:104D980000016451651166116711D8B424D0010E61
:104DA800686F06D0D8906437653766376737682BE1
:104DB80067AFF8D76451605D6551615966516259B2
:104DC80067516359D8A008D06451605F6551615B31
:104DD8006651625B6751635BD890673366336533AE
:104DE8006433682FE7D760C060F061C061F062C0CB
:104DF80062F063C063F0120000016A6F2CEC2AF0C5
:104E0800FF0AD8A404D008D00A0E8CEC29F02CECA8
:104E18002AF0FF0AD8A4F8D7FF0E58EC2BF00001AF
:104E28006A5158EC2BF068C06BF000016B5158ECDC
:104E38002BF067C06BF000016B5158EC2BF066C08B
:104E48006BF000016B5158EC2BF065C06BF0000162
:104E58006B5158EC2BF00001695158EC2BF0120003
:104E6800000E0101D96F000ED86F1FD0D4C1D9FF31
:104E7800D5C1DAFFDF500001EC6FEC51E56FE66B4E
:104E8800D6C1E7F0D7C1E8F0EAEC27F00001E52940
:104E980007E1E629D8A404D00101D469D569120034
:104EA8000101D44BD52BD84BD92BD4C1D9FFD5C1AF
:104EB800DAFFDF50D8A4DAD7D8C1D4F1D9C1D5F1F7
:104EC8001200FAC0A0F0FBC0A1F0000120EE1FF014
:104ED800A051D926A151DA22010EDF6E000E8B6F88
:104EE800000E8C6F000E8D6F000E8E6F8DEC1AF019
:104EF8000009D8A402D0080E1200000E0001606F4D
:104F0800000E616F000E626F000EA8EC2AF0000917
:104F1800D8B402D0080E1200000E12002D34363517
:104F2800332E31363632322D343635332E30303456
:104F380037352D343635332E30303437352D343639
:104F480035332E31363632322D323336352E38342B
:104F58003939312D323336352E38343939312D320D
:104F68003336352E39393733312D323336352E39FC
:104F780039373331000E0001686F000E696F000E7B
:104F88006A6F000E6B6F60A108D064516827655185
:104F9800692366516A2367516B23D8906437653754
:104FA80066376737D8906333623361336033605153
:104FB800611162116311D8A4E6D768C060F069C0B6
:104FC80061F06AC062F06BC063F012000001E75143
:104FD800E811D8A405D0E5C0E5F0E6C0E6F0120077
:104FE800E5C0E9F0E7C0C4F0E8C0C5F0E90EC66F57
:104FF800000EC76F000EC96F010EC86FEA0ECA6FA8
:10500800000ECB6F8BEC04F00001EA51EB11D8A431
:1050180003D0E569E6691200E5C0E5F0E6C0E6F010
:105028001200000E0001666F000E656F6251631179
:10503800D8B41CD0010E646F04D0D890623763379F
:10504800642B63AFFAD7D890653766376251605DD5
:1050580063516159D8A005D06251605F6351615BAB
:105068006581D89063336233642FEDD765C060F0F3
:1050780066C061F0120015D063C0F6FF64C0F7FF88
:10508800F86A070EF76403D00800F55005D0F6CF8C
:10509800E9FFF7CFEAFFEF5023EC26F00001634B5E
:1050A800642B63C0F6FF64C0F7FFF86A070EF76465
:1050B80003D00800F55005D0F6CFE9FFF7CFEAFF97
:1050C800EF500009D8B41200D7D7000E096E095066
:1050D800010DF3500124D96EF4500220DA6E095004
:1050E8000524076E000E0620086E07500324E16EA3
:1050F80008500420E26EDFCFE7FF092A0904076E93
:105108000750010DF3500124D96EF4500220DA6ED5
:10511800DF50D8B41200DBD70001626F0001625182
:10512800D8B402D0050E1200FA51FB11D8B408D039
:1051380020EE1CF0FA51D926FB51DA22000EDF6E60
:1051480060C0FAF061C0FBF060516111D8B408D0BA
:1051580020EE1CF06051D9266151DA22000EDF6E74
:10516800000E1200000167516811D8B414D020EE67
:105178001CF06751D9266851DA22DF50D8B40BD019
:1051880067C0D9FF68C0DAFF6951DE1804E16A51C7
:10519800DE18D8B402D00C0E1200000E00EC29F074
:1051A80000016B6F6BA102D0010E1200000E1200FD
:1051B80062C069F063C06AF060C067F061C068F0FF
:1051C80011D069C0D9FF6AC0DAFFDF500001666FED
:1051D800694B6A2B67C0D9FF68C0DAFF66C0DFFF7A
:1051E800674B682B00016407D8A065076429E9E1CB
:1051F8006529D8B41200E5D70001656F14D0000105
:10520800655136EC2BF00001666F6651120065514E
:1052180036EC2BF00001626F6251636F646B66516C
:1052280012006651120000016551000AD8B4E7D790
:10523800010AD8B4ECD7030AD8B4F3D7010E120088
:1052480004D0014A022A034A042A01C0D9FF02C035
:10525800DAFFDF50056E03C0F6FF04C0F7FF080051
:10526800F55000080524066E0650D8A407D001C0E2
:10527800D9FF02C0DAFFDF50D8A4E3D70650016E89
:10528800026A01BE0206120070C076F071C077F0A3
:10529800000173AF0CD070C0D9FF71C0DAFF2D0EBA
:1052A800DF6E704B712B726D731FD8B0732B70C08B
:1052B80067F071C068F072C069F073C06AF074C0BA
:1052C8006BF075C06CF002EC22F012000001625124
:1052D8006311D8B418D0010E646F04D0D890623727
:1052E8006337642B63AFFAD76251605D63516159CC
:1052F800D8A004D06251605F6351615BD89063337A
:105308006233642FF1D760C060F061C061F01200B1
:105318000001626F100E0001606F940EE82EFED738
:10532800602FFCD700F0000E0001646F000E636F61
:1053380007D08A88ADEC2BF08A980001634B642B68
:105348006251606F616B6051635D61516459D8B09F
:105358001200EFD7760E0001666F010E676F000E20
:10536800C6EC1EF0880E0001666F010E676F010E15
:10537800C6EC1EF05D0E0001666F010E676F020E2F
:10538800C6EC1EF0500E0001666F010E676F030E2B
:10539800C6EC1EF0120021EEBEF010EE7AF0060EFA
:1053A800DBCFE3FFE806FCE27A0E0001706F000E27
:1053B800716F78C072F079C073F0000E756F0A0EC5
:1053C800746F48EC29F07A0E0001636F000E646F69
:1053D8003FEC28F0120060C064F061C065F003D0B3
:1053E8000001644B652B64C0D9FF65C0DAFFDF504C
:1053F800D8A4F6D760C062F061C063F00001621FF4
:10540800631F624B632B64516225606F6551632192
:10541800616F12000001806F0ED000EC10F00001E7
:10542800816F8151120000EC10F00001816F8151F1
:1054380012008151120000018051000AD8B4EDD742
:10544800010AD8B4F0D7030AD8B4F3D7010E120072
:10545800FF0E0001606F7F0E616F000E626F000E1D
:10546800636FADEC2BF00001646F6429D8B40BD0E6
:105478006007000E615B625B635B605161116211E2
:105488006311D8A4EED7645112002D343635332E6B
:1054980031363632302D323336352E3931393932CC
:1054A80030303030303000303030303030007465DB
:0D54B800737465312E7478740000000000DC
:1054C60060C066F061C067F009D066C0D9FF67C0EA
:1054D600DAFF62C0DFFF0001664B672B000164073D
:1054E600D8A065076429F1E16529D8B41200EDD783
:1054F60042EC2BF0D59EF4EC23F05FEC25F097EC14
:1055060026F0E7EC2AF0D58E0001FC05D8A404D0DD
:10551600000EFC6FFEEC22F0AEEC29F0F5D7ABC026
:10552600A2F0ACC0A3F05FEC1FF00001AD6FAD516F
:10553600D8A4120020EE04F0AB51D926AC51DA22E1
:10554600000EDE6E000EDD6E12000001636F06D0E7
:10555600645112006451120064511200000163513B
:10556600000AD8B4F5D7010AD8B4F4D7030AD8B4D8
:10557600F3D7040E1200000E0001606F630E606523
:1055860001D0120000F0000E0001616F310E61655E
:1055960001D004D000F00001612BF8D7602BEED7C4
:1055A600000160516203F3CF64F0F4CF65F06051FF
:1055B6006303F350652761516203F350652764C0A6
:1055C60060F065C061F01200949C949E800E00010C
:1055D6006E6F250E6F6F000E706F000E716F2DECE3
:1055E6001EF0200EAC6E900EAB6E12000001626FC4
:1055F600000E0001616F3A0E626105D02F0E6265E2
:1056060002D0010E616F61C060F0603112009392AA
:1056160093989380949E8A883F0EC716000EC66E96
:10562600C79EC78CC698030EC66EC68A12000F0E9A
:10563600C16E210E936E8A68000E956E070E926EED
:10564600110E946E030E966E1200C30ED56E000EEA
:10565600656E000E636E000E0001616F830E606F53
:105666006BEC2BF012000001616F000E0001606F01
:105676006151D8B402D0010E1200000E1200B9EC2E
:105686002BF01AEC2BF028EC2BF086EC2BF062ECCE
:105696002BF012002F503010D8A4120057EC22F035
:1056A600750E306E300E2F6E12000001616FC9CF7D
:1056B60060F09E9661C0C9FF9EB61200FDD7B00E7F
:1056C600F26E000EF16E000EF06E280E9D6E120048
:1056D60060C062F061C063F063C0D7FF62C0D6FFEE
:1056E600120001C003F002C004F004C0D7FF03C0DB
:1056F600D6FF12009EAAFED7ABA203D0AB9800F04D
:10570600AB88AE501200040ECA6E000ECC6E010EAF
:10571600CB6E12008A98ADEC2BF00001606F6051E1
:105726001200948C948E000EAC6E000EAB6E1200BE
:10573600500E0001606F010E616F12005D0E0001D8
:10574600606F010E616F12008A98FF0E58EC2BF005
:105756008A881200C968C790C7A0FED7C950120030
:10576600000EC76E000EC66EC69A1200D388D38A84
:07577600D38C120012005851
:10615200005443432D2D54454C454D545249410062
:106162000000464154454320535420414E44524579
:106172000000000A2573203B202573203B20257355
:10618200203B202573203B006F2053697374656D9B
:1061920061206465206172717569766F0042313ADF
:1061A20052504D202042323A46454E43450042313C
:1061B2003A74656C61732042323A484F4D4500494A
:1061C2006E73697261206F2043617274616F004562
:1061D20072726F20616F206D6F6E74617200457212
:1061E200726F20616F206372696172005245474984
:1061F200414F204E45474144410065787466656EC3
:1062020063652E747874004D4D43205665722E20BE
:10621200330053656D2043617274616F00534420F3
:106222005645522E20310056657269666971756550
:10623200006F206172717569766F006F2063617201
:1062420074616F00445F46656E63653A0042333A9B
:10625200484F4D45004750474741004750524D4334
:10626200004C4649583A0056454C3A0052504D3A75
:0D62720000464154004E2F44000D0A00006C
:020000040020DA
:08000000FFFFFFFFFFFFFFFF00
:020000040030CA
:0E00000000051F1FFF8385FF0FC00FE00F409C
:00000001FF
