:0400000007EF00F016
:1000080046825DED11F0EDEF16F0000E356E000E34
:10001800366ED6EC0AF000017E6F7EA102D0020E89
:100028001200000EC06F000EC16F000EC26F000EEE
:10003800C36F940E726F000E736FC0C074F0C1C0AE
:1000480075F0C2C076F0C3C077F09BEC0DF00001EC
:10005800C86FC805D8A468D0940E606F000E616F91
:10006800C0C062F0C1C063F0C2C064F0C3C065F034
:10007800010E676FBE0E666F000E696F100E686F17
:100088003CEC09F00009D8B402D0030E4BD00001B3
:100098009851D8B449D09D517F6F7E6B9EC080F037
:1000A800816B826B836B81C083F080C082F0816B2F
:1000B800806B9FC084F0856B866B876B84C087F0EC
:1000C800866B856B846B80518411886F8151851193
:1000D800896F825186118A6F835187118B6F7E5188
:1000E80088118C6F7F5189118D6F000E8A118E6F68
:1000F800000E8B118F6F9C518C11C06F8D51C16F89
:100108008E51C26F8F51C36F940E726F000E736F52
:10011800C0C074F0C1C075F0C2C076F0C3C077F03B
:100128009BEC0DF00001C86F030EC819D8A402D0CB
:10013800010E1200C851D8B402D0060E1200940E57
:10014800606F000E616FC0C062F0C1C063F0C2C0D2
:1001580064F0C3C065F0000E676F0D0E666F000E89
:10016800696F240E686F3CEC09F00009D8B402D01E
:10017800010E120000019D519EC07EF07F6B7EC073
:100188007FF07E6B7E13000E7F137EC0C4F07FC0AD
:10019800C5F0C66BC76BC451C511C611C711D8A429
:1001A80039D0AC517F6F7E6BADC080F0816B826BB4
:1001B800836B81C083F080C082F0816B806BAEC09E
:1001C80084F0856B866B876B84C087F0866B856B44
:1001D800846B80518411886F81518511896F825198
:1001E80086118A6F835187118B6F7E5188118C6FAE
:1001F8007F5189118D6F000E8A118E6F000E8B1141
:100208008F6FAB518C11C46F8D51C56F8E51C66FF6
:100218008F51C76FC4C01AF0C5C01BF0C6C01CF010
:10022800C7C01DF097511E6E1F6A206A216A1FEC15
:1002380017F01AC0C4F01BC0C5F01CC0C6F01DC022
:10024800C7F00001955196C07EF07F6B7EC07FF0AD
:100258007E6B7E13000E7F137E51C025806F7F5109
:10026800C121816F000EC221826F000EC321836FEE
:1002780020EE0AF07C51D9267D51DA2280C0DEFFBB
:1002880081C0DEFF82C0DEFF83C0DEFF20EE02F009
:100298007C51D9267D51DA2294C0DFFF985199C04C
:1002A8007EF07F6B7EC07FF07E6B7E13000E7F1327
:1002B80020EE04F07C51D9267D51DA227EC0DEFF83
:1002C8007FC0DDFF9A519BC07EF07F6B7EC07FF0C0
:1002D8007E6B7E13000E7F137EC0B8F07FC0B9F02E
:1002E800BA6BBB6BB851B911BA11BB11D8A439D0CC
:1002F800A8517F6F7E6BA9C080F0816B826B836B86
:1003080081C083F080C082F0816B806BAAC084F0CA
:10031800856B866B876B84C087F0866B856B846B77
:1003280080518411886F81518511896F825186119E
:100338008A6F835187118B6F7E5188118C6F7F5123
:1003480089118D6F000E8A118E6F000E8B118F6FC1
:10035800A7518C11B86F8D51B96F8E51BA6F8F51EB
:10036800BB6F20EE04F07C51D9267D51DA22DECF16
:100378007EF0DDCF7FF0040E806FD8907F337E3320
:10038800802FFBD7955196C081F0826B81C082F097
:10039800816B8113000E821381517E25836F8251F8
:1003A8007F21846F856BD8B0852B866BC4518325DC
:1003B800876FC5518421886FC6518521896FC751C0
:1003C80086218A6F871F881F891F8A1F872B000E27
:1003D800882389238A23B85187251A6EB951882121
:1003E8001B6EBA5189211C6EBB518A211D6E20EEED
:1003F80002F07C51D9267D51DA22DF508B6F8B5168
:100408001E6E1F6A206A216A53EC15F0020E1A2428
:100418000001BC6F000E1B20BD6F000E1C20BE6FBC
:10042800000E1D20BF6F20EE06F07C51D9267D51AD
:10043800DA22BCC0DEFFBDC0DEFFBEC0DEFFBFC02B
:10044800DEFF000EC86FBF51BE1108E1F70EBC5D9C
:100458000F0EBD59D8B002D0010EC86FBF51BE11E2
:1004680006E1F80EBC5D0F0EBD59D8A00BD0BF51E8
:10047800BE1108E1F70EBC5DFF0EBD59D8B002D021
:10048800020EC86FBF51BE1106E1F70EBC5DFF0E2C
:10049800BD59D8A002D0030EC86FC851D8A402D045
:1004A800060E12007CC0D9FF7DC0DAFFC8C0DFFF8E
:1004B800030EC819D8A448D0B4517F6F7E6BB5C05D
:1004C80080F0816B826B836B81C083F080C082F087
:1004D800816B806BB6C084F0856B866B876B84C03C
:1004E80087F0866B856B846B80518411886F81518E
:1004F8008511896F825186118A6F835187118B6F9D
:100508007E5188118C6F7F5189118D6F000E8A1171
:100518008E6F000E8B118F6FB3518C11906F8D51B0
:10052800916F8E51926F8F51936F20EE0EF07C5128
:10053800D9267D51DA2290C0DEFF91C0DEFF92C03D
:10054800DEFF93C0DEFF28D020EE0AF07C51D926CA
:100558007D51DA22DECF7EF0DECF7FF0DECF80F075
:10056800DECF81F0C4517E25826FC5517F21836F14
:10057800C6518021846FC7518121856F20EE0EF00E
:100588007C51D9267D51DA2282C0DEFF83C0DEFF8E
:1005980084C0DEFF85C0DEFF20EE0AF07C51D9263C
:1005A8007D51DA22DECF7EF0DECF7FF0DECF80F025
:1005B800DECF81F020EE04F07C51D9267D51DA227D
:1005C800DECF82F0DDCF83F0040E846FD8908333C2
:1005D8008233842FFBD782517E25856F83517F21FB
:1005E800866F000E8021876F000E8121886FC451AD
:1005F8008525896FC55186218A6FC65187218B6FE2
:10060800C75188218C6F20EE12F07C51D9267D517C
:10061800DA2289C0DEFF8AC0DEFF8BC0DEFF8CC015
:10062800DEFF20EE01F07C51D9267D51DA22000E42
:10063800DF6E7CC035F07DC036F0000E12009AC027
:10064800A8F09BC0A9F035C0B9F036C0BAF09EC07A
:10065800D9FF9FC0DAFF000EDE6E000EDD6E0001CE
:10066800B951BA11D8A402D0050E120020EE01F03B
:10067800B951D926BA51DA22DFB002D0040E1200DD
:100688009C519D11D8A431D020EE01F0B951D92642
:10069800BA51DA22DFAC1ED0000E606F000E616F17
:1006A800000E626F000E636F000E646F000E656FC0
:1006B800000E666F93EC0FF00009D8B40BD0000160
:1006C80020EE01F0B951D926BA51DA22000EDF6EB8
:1006D800010E1200000120EE01F0B951D926BA51DD
:1006E800DA22BF0EDF16000E120020EE01F0B9511B
:1006F800D926BA51DA22DFBC0ED020EE16F0B95155
:10070800D926BA51DA22000EDE16FE0EDE16FF0ECC
:10071800DE16FF0EDE1620EE1AF0B951D926BA51B0
:10072800DA22DECFA0F0DECFA1F0DECFA2F0DECF5E
:10073800A3F020EE16F0B951D926BA51DA22DECF4D
:10074800A4F0DECFA5F0DECFA6F0DECFA7F0A41F81
:10075800A51FA61FA71FA42B000EA523A623A7230A
:10076800A051A425AE6FA151A521AF6FA251A6211A
:10077800B06FA351A721B16F9C51A06F9D51A16F7C
:10078800A26BA36BA051AE5DA151AF59A251B05954
:10079800A351B159D8B0ACD1AEC09CF0AFC09DF058
:1007A800A7D1FF0EA06F010EA16F20EE16F0B95170
:1007B800D926BA51DA22DECFA2F0DDCFA3F0A051BC
:1007C800A217A151A317A251A311D8A4E9D020EED2
:1007D80016F0B951D926BA51DA22DECFA0F0DECF11
:1007E800A1F0DECFA2F0DECFA3F00A0E05D0D8909C
:1007F800A333A233A133A033E82EF9D720EE02F0B9
:10080800B951D926BA51DA22DF50A46FA405A01530
:10081800B66FB651D8A454D020EE16F0B951D926E7
:10082800BA51DA22DE50DE10DE10DE10D8A40FD066
:1008380020EE1EF0B951D926BA51DA22DECFB2F035
:10084800DECFB3F0DECFB4F0DECFB5F018D020EEB7
:1008580022F0B951D926BA51DA22DECF72F0DECFB2
:1008680073F0DECF74F0DECF75F082EC05F072C065
:10087800B2F073C0B3F074C0B4F075C0B5F0000145
:10088800B551B411B3110EE1020EB25DD8B00AD061
:1008980020EE01F0B951D926BA51DA22000EDF6EE6
:1008A800010E120020EE22F0B951D926BA51DA22EF
:1008B800B2C0DEFFB3C0DEFFB4C0DEFFB5C0DEFFEE
:1008C80020EE22F0B951D926BA51DA22DECF26F02D
:1008D800DECF27F0DECF28F0DECF29F0C1EC13F011
:1008E80026C0AAF027C0ABF028C0ACF029C0ADF0F4
:1008F8000001AA51AB11AC11AD11D8A40AD020EE59
:1009080001F0B951D926BA51DA22000EDF6E010E74
:100918001200B651AA25A06F000EAB21A16F000EE0
:10092800AC21A26F000EAD21A36F20EE26F0B951C5
:10093800D926BA51DA22A0C0DEFFA1C0DEFFA2C0CC
:10094800DEFFA3C0DEFF000E606F000E616F000EB9
:10095800626F20EE26F0B951D926BA51DA22DECFDD
:1009680063F0DECF64F0DECF65F0DECF66F093ECA7
:100978000FF00009D8B40BD0000120EE01F0B951F6
:10098800D926BA51DA22000EDF6E010E12000001DC
:1009980020EE01F0B951D926BA51DA22000EDB8CCB
:1009A800FF0EA06F010EA16F20EE16F0B951D926E7
:1009B800BA51DA22DECFA2F0DDCFA3F0A051A21700
:1009C800A151A317A21FA31FA24BA32B000EA22560
:1009D800B76F020EA321B86FB7519C5DB8519D59EE
:1009E800D8B004D09CC0B7F09DC0B8F0A8C060F0E3
:1009F800A9C061F060516111D8A4000E626F20EEA9
:100A080026F0B951D926BA51DA22DECF63F0DECF0B
:100A180064F0DECF65F0DECF66F093EC0FF00009EE
:100A2800D8B40BD0000120EE01F0B951D926BA5143
:100A3800DA22000EDF6E010E1200000120EE16F021
:100A4800B951D926BA51DA22B751DE26B851DE2279
:100A5800000EDE22DE22B751A827B851A923B751CC
:100A68009C5FB8519D5B9EC0D9FF9FC0DAFFB7510C
:100A7800DE26B851DD22FF0EA06F010EA16F20EE19
:100A880016F0B951D926BA51DA22DECFA2F0DDCF5D
:100A9800A3F0A051A217A151A317A251A311D8A442
:100AA80027D0000E606F000E616F000E626F000E9F
:100AB800636F000E646F000E656F000E666F93EC37
:100AC8000FF00009D8B40BD0000120EE01F0B951A5
:100AD800D926BA51DA22000EDF6E010E120000018B
:100AE80020EE01F0B951D926BA51DA22BF0EDF162D
:100AF8009C519D11D8A455D6000E120035C098F00F
:100B080036C099F0000175517411731104E1020E99
:100B1800725DD8A010D020EE06F09851D9269951D0
:100B2800DA22DE50725DDE507359DE507459DE50A1
:100B38007559D8A0BDD1010E726F000E736F000EEB
:100B4800746F000E756F120072C096F073C097F044
:100B5800D8909731776F9631766F7651962777517F
:100B68009723FF0E9615906F010E9715916F090E3A
:100B7800766FD89097339633762FFBD7902903E179
:100B88009105D8B42CD0920E606F000E616F20EEE4
:100B98000AF09851D9269951DA22DECF76F0DECFC5
:100BA80077F0DECF78F0DECF79F096517625626F58
:100BB80097517721636F000E7821646F000E7921B9
:100BC800656F90C066F091C067F0000E696F020E05
:100BD800686F3CEC09F00009D8A478D161D0920E76
:100BE8000001606F000E616F20EE0AF09851D9265F
:100BF8009951DA22DECF76F0DECF77F0DECF78F0CB
:100C0800DECF79F096517625626F97517721636F21
:100C1800000E7821646F000E7921656F010E676FF1
:100C28006669000E696F010E686F3CEC09F00009F7
:100C3800D8A44CD1930E0001606F000E616F20EEB6
:100C48000AF09851D9269951DA22DECF76F0DECF14
:100C580077F0DECF78F0DECF79F0965176257A6F8F
:100C6800975177217B6F000E78217C6F000E7921D8
:100C78007D6F010E7A25626F000E7B21636F000E77
:100C88007C21646F000E7D21656F000E676F000E7A
:100C9800666F000E696F010E686F3CEC09F09BD718
:100CA80000019351766F92518E6F76C08FF072B1BA
:100CB80007D0FF0E8E158C6F0F0E8F158D6F0FD00E
:100CC8008EC076F08FC077F0040E786FD8907733A7
:100CD8007633782FFBD776C08CF077C08DF08CC038
:100CE80072F08DC073F0746B756B1200920E606FAA
:100CF800000E616F20EE0AF09851D9269951DA2238
:100D0800DECF76F0DECF77F0DECF78F0DECF79F089
:100D180072C07AF073C07BF074C07CF075C07DF04F
:100D28007BC07AF07CC07BF07DC07CF07D6B765117
:100D38007A25626F77517B21636F78517C21646FCC
:100D480079517D21656FFF0E72157E6F000E731548
:100D58007F6FD8907E35666F7F35676F000E696F3D
:100D6800020E686F3CEC09F00009D8A4AFD000016E
:100D7800925193C076F0776B76C077F0766B7613E6
:100D8800000E771376C072F077C073F0746B756BD2
:100D98001200920E606F000E616F20EE0AF09851FB
:100DA800D9269951DA22DECF76F0DECF77F0DECF82
:100DB80078F0DECF79F072C07AF073C07BF074C03F
:100DC8007CF075C07DF0080E05D0D8907D337C335B
:100DD8007B337A33E82EF9D776517A25626F7751CB
:100DE8007B21636F78517C21646F79517D21656F18
:100DF8007F0E72157E6F000E73157F6FD8907E3749
:100E08007F37D8907E377F377EC066F07FC067F027
:100E1800000E696F040E686F3CEC09F00009D8A455
:100E280055D000019351776F766B94C078F0796B49
:100E38007A6B7B6B79C07BF078C07AF0796B786BD2
:100E480095C07CF07D6B7E6B7F6B7CC07FF07E6B8A
:100E58007D6B7C6B78517C11806F79517D11816F2E
:100E68007A517E11826F7B517F11836F7651801189
:100E7800846F77518111856F000E8211866F000E85
:100E88008311876F92518411886F8551896F8651BC
:100E98008A6F87518B6FFF0E8815726FFF0E891549
:100EA800736FFF0E8A15746F0F0E8B15756F120016
:100EB80098C0D9FF99C0DAFFDF50010AD8B444D6E8
:100EC800030AD8B413D7010AD8B463D7010E0001B6
:100ED800726F000E736F000E746F000E756F120044
:100EE8009AC0A9F09BC0AAF035C0BCF036C0BDF0CE
:100EF8009EC0D9FF9FC0DAFF000EDE6E000EDD6EC9
:100F08000001BC51BD11D8A402D0050E120020EE7C
:100F180001F0BC51D926BD51DA22DFB002D0040E4F
:100F2800120020EE1AF0BC51D926BD51DA22DECFCC
:100F3800A0F0DECFA1F0DECFA2F0DECFA3F020EE4E
:100F480016F0BC51D926BD51DA22DECFA4F0DECF8F
:100F5800A5F0DECFA6F0DECFA7F0A41FA51FA61F21
:100F6800A71FA42B000EA523A623A723A051A425C1
:100F7800B16FA151A521B26FA251A621B36FA351A0
:100F8800A721B46F9C51A06F9D51A16FA26BA36B59
:100F9800A051B15DA151B259A251B359A351B4594D
:100FA800D8B060D1B1C09CF0B2C09DF05BD120EE4A
:100FB80016F0BC51D926BD51DA22FF0EDE14A06FFF
:100FC800010EDE14A16F000EDE14A26F000EDE14F7
:100FD800A36FA051A111A211A311D8A4BCD020EED7
:100FE80016F0BC51D926BD51DA22DECFA0F0DECFF3
:100FF800A1F0DECFA2F0DECFA3F00A0E05D0D89084
:10100800A333A233A133A033E82EF9D720EE02F0A0
:10101800BC51D926BD51DA22DF50A46FA405A01512
:10102800B96FB951D8A454D020EE16F0BC51D926C6
:10103800BD51DA22DE50DE10DE10DE10D8A40FD04B
:1010480020EE1EF0BC51D926BD51DA22DECFB5F014
:10105800DECFB6F0DECFB7F0DECFB8F018D020EE96
:1010680022F0BC51D926BD51DA22DECF72F0DECF94
:1010780073F0DECF74F0DECF75F082EC05F072C04D
:10108800B5F073C0B6F074C0B7F075C0B8F0000121
:10109800B851B711B6110EE1020EB55DD8B00AD03D
:1010A80020EE01F0BC51D926BD51DA22000EDF6EC8
:1010B800010E120020EE22F0BC51D926BD51DA22D1
:1010C800B5C0DEFFB6C0DEFFB7C0DEFFB8C0DEFFCA
:1010D80020EE22F0BC51D926BD51DA22DECF26F00F
:1010E800DECF27F0DECF28F0DECF29F0C1EC13F0F9
:1010F80026C0ADF027C0AEF028C0AFF029C0B0F0D0
:101108000001AD51AE11AF11B011D8A40AD020EE34
:1011180001F0BC51D926BD51DA22000EDF6E010E56
:101128001200B951AD25A06F000EAE21A16F000EBF
:10113800AF21A26F000EB021A36F20EE26F0BC51A4
:10114800D926BD51DA22A0C0DEFFA1C0DEFFA2C0B1
:10115800DEFFA3C0DEFFFF0EA06F010EA16F20EE21
:1011680016F0BC51D926BD51DA22DECFA2F0DDCF70
:10117800A3F0A051A217A151A317A21FA31FA24B0E
:10118800A32B000EA225BA6F020EA321BB6FBA5182
:101198009C5DBB519D59D8B004D09CC0BAF09DC08D
:1011A800BBF09A519B11D8B405D0A9C0ABF0AAC026
:1011B800ACF004D0000EAB6F000EAC6FABC060F0AB
:1011C800ACC061F020EE26F0BC51D926BD51DA2220
:1011D800DECF62F0DECF63F0DECF64F0DECF65F005
:1011E80020EE16F0BC51D926BD51DA22DECFA0F090
:1011F800DDCFA1F0FF0EA015666F010EA115676F78
:10120800BAC068F0BBC069F03CEC09F00001A86FF7
:10121800A851D8B40AD020EE01F0BC51D926BD514E
:10122800DA22000EDF6E010E120020EE16F0BC511D
:10123800D926BD51DA22BA51DE26BB51DE22000E74
:10124800DE22DE22BA51A927BB51AA23BA519C5FDC
:10125800BB519D5B9EC0D9FF9FC0DAFFBA51DE2605
:10126800BB51DD229C519D11D8A4A1D6000E1200BD
:10127800000E00016A6F66516711D8A4A4D062C03D
:1012880028F063C029F064C02AF065C02BF0090E6D
:10129800D890283629362A362B36E82EF9D728C092
:1012A8006BF029C06CF02AC06DF02BC06EF03D0EBB
:1012B800296EE10E286E400EE82EFED7282EFCD7A8
:1012C800292EFAD7080E9DEC17F06BC021F06CC0E0
:1012D80022F06DC023F06EC024F0000E256E520E71
:1012E8004AEC17F030EC19F023EC19F000016F6F9D
:1012F8006F51D8A4F9D73D0E296EE10E286E400E25
:10130800E82EFED7282EFCD7292EFAD730EC19F074
:1013180023EC19F000016F6FFE0E6F19D8A4F8D7EF
:10132800000E716F000E706F0CD0F30E7025D96E21
:10133800010E7121DA6E23EC19F0DF6E0001704B9B
:10134800712B6851705D69517159D8A0EED73D0E67
:10135800296EE10E286E400EE82EFED7282EFCD707
:10136800292EFAD7080E9DEC17F0000E216E000EFC
:10137800226E000E236E000E246E000E256E4C0E9B
:101388004AEC17F030EC19F023EC19F000016F6FFC
:101398006F29D8A4F9D7000E716F000E706F02D0B4
:1013A800704B712BF30E7025D96E010E7121DA6E18
:1013B800DF50D8A4F5D760C0D9FF61C0DAFF70C08C
:1013C800DFFF000E120062C028F063C029F064C07D
:1013D8002AF065C02BF0090ED890283629362A360F
:1013E8002B36E82EF9D728C06BF029C06CF02AC03C
:1013F8006DF02BC06EF0000E716F000E706F0AD08A
:10140800F30E7025D96E010E7121DA6E000EDF6EB3
:10141800704B712B71BFF4D7020E715DD8A0F0D755
:101428003D0E296EE10E286E400EE82EFED7282EBE
:10143800FCD7292EFAD7080E9DEC17F06BC021F0C7
:101448006CC022F06DC023F06EC024F0000E256E33
:10145800510E4AEC17F030EC19F023EC19F00001AA
:101468006F6F6F51D8A4F9D723EC19F000016F6F93
:10147800FE0E6F19D8A4F8D7000E716F000E706FAA
:1014880048D0F30E7025D96E010E7121DA6E23EC67
:1014980019F0DF6E0001704B712B6607D8A0670743
:1014A8006629EFE16729D8B419D0EBD723EC19F0F6
:1014B80060C0D9FF61C0DAFFDF6E60C0D9FF61C0CC
:1014C800DAFFF30E00017025E16E010E7121E26E64
:1014D800DFCFE7FF604B612B704B712B6807D8A0FB
:1014E80069076829E3E16929D8B40DD0DFD7F30E7D
:1014F8007025D96E010E7121DA6E23EC19F0DF6EBA
:101508000001704B712B71BFF2D7020E715DD8A02C
:10151800EED771BFC2D7020E715DD8A0BED73D0EFF
:10152800296EE10E286E400EE82EFED7282EFCD735
:10153800292EFAD7000E216E000E226E000E236EA1
:10154800000E246E000E256E4C0E4AEC17F030EC9F
:1015580019F023EC19F000016F6F6F29D8A4F9D79F
:10156800000E716F000E706F3B043C10D8B403D0AE
:101578000CD0704B712BF30E7025D96E010E7121B2
:10158800DA6EDF50D8B40CD0F4D77A0E296EC10EBB
:10159800286E820EE82EFED7282EFCD7292EFAD7E1
:1015A800000E1200000E0001636F000E626F000E45
:1015B800656F000E646F000E686F000E676FC5ECF4
:1015C80014F01F0E0001616F710E606F1E0EE82E81
:1015D800FED7602FFCD7612FFAD700F0080E9DECDC
:1015E80017F0000E216E000E226E000E236E000E04
:1015F800246EFF0E256E410E4AEC17F030EC19F000
:1016080023EC19F00001696F6905D8A4F9D73D0EDC
:101618000001616FE10E606F3F0EE82EFED7602F6C
:10162800FCD7612FFAD700D030EC19F0000169051A
:10163800D8A496D0100E0001606F940EE82EFED745
:10164800602FFCD700F0000E0001656F000E646F7C
:10165800000E686F000E676F080E9DEC17F0000E05
:10166800216E000E226E000E236E000E246E950E63
:10167800256E770E4AEC17F00001696923EC19F022
:101688000001696F674B682B6905D8B408D068BF3B
:10169800F5D7685104E10A0E675DD8A0EFD7100EA0
:1016A8000001606F940EE82EFED7602FFCD700F083
:1016B800000E0001686F000E676F080E9DEC17F0B2
:1016C800000E216E000E226E000E236E400E246E58
:1016D800950E256E690E4AEC17F00001696930EC29
:1016E80019F023EC19F00001696F674B682B6951F9
:1016F800D8B408D068BFF5D7685104E10A0E675D11
:10170800D8A0EFD76951D8A4A3D7000E656F000EF3
:10171800646F100E0001606F940EE82EFED7602FE4
:10172800FCD700F0000E0001666F010E0DEC15F0FD
:10173800000E1D6E010E80EC16F0FB0E1D6E610E84
:101748001E6E74EC17F07A0E0001616FC10E606FA7
:10175800810EE82EFED7602FFCD7612FFAD721D053
:10176800050E00016919D8A41DD0010E666F010E7F
:101778000DEC15F0000E1D6E010E80EC16F06B0ED0
:101788001D6E620E1E6E74EC17F0B70E0001616FCD
:10179800A10E606FC30EE82EFED7602FFCD7612F15
:1017A800FAD700D03D0E0001616FE10E606F3F0E69
:1017B800E82EFED7602FFCD7612FFAD700D0080E8D
:1017C8009DEC17F0000E216E020E226E000E236EA5
:1017D800000E246EFF0E256E500E4AEC17F030EC0A
:1017E80019F023EC19F00001696F6951D8A4F9D7F1
:1017F8007A0E0001616FC10E606F810EE82EFED770
:10180800602FFCD7612FFAD700D000016651120073
:1018180035C0A3F036C0A4F09AC0D9FF9BC0DAFF48
:10182800DECF9CF0DDCF9DF0010E00019C25A96F55
:10183800000E9D21AA6FA951AA11D8B40CD020EE90
:101848000CF09A51D9269B51DA22DE50DE10DE10B8
:10185800DE10D8A402D0030E12000F0EA9159C6F3B
:10186800000EAA159D6F9C519D11D8A4A5D020EEFD
:101878000CF09A51D9269B51DA22DE2A000EDE227C
:10188800DE22DE2220EE08F09A51D9269B51DA2278
:10189800DE50DE10DE10DE10D8A40ED020EE04F0EC
:1018A800A351D926A451DA22DE50A95DDE50AA59E7
:1018B800D8A082D0030E1200A9C09CF0AAC09DF047
:1018C800040E9E6FD8909D339C339E2FFBD7FF0E3E
:1018D8009F6FFF0EA06F20EE02F0A351D926A451EE
:1018E800DA22DF50A16FA26B9F51A127A051A2233A
:1018F8009C51A1179D51A217A151A211D8A45CD047
:1019080020EE08F09A51D9269B51DA22DECF72F0E8
:10191800DECF73F0DECF74F0DECF75F082EC05F029
:1019280072C0A5F073C0A6F074C0A7F075C0A8F087
:101938000001A851A711A61106E1020EA55DD8B0B5
:1019480002D0010E120020EE06F0A351D926A451B0
:10195800DA22DE50A55DDE50A659DE50A759DE50CA
:10196800A859D8A002D0030E120020EE08F09A5110
:10197800D9269B51DA22A5C0DEFFA6C0DEFFA7C08C
:10198800DEFFA8C0DEFFA5C026F0A6C027F0A7C0CE
:1019980028F0A8C029F0C1EC13F0000120EE0CF0EB
:1019A8009A51D9269B51DA2226C0DEFF27C0DEFFD6
:1019B80028C0DEFF29C0DEFF9AC0D9FF9BC0DAFF2E
:1019C800A9C0DEFFAAC0DDFF000E1200000E1D6ECA
:1019D800010E80EC16F0170E1D6E620E1E6E74EC72
:1019E80017F0000E1D6E010E80EC16F0090E1D6E2C
:1019F800620E1E6E74EC17F0000E1D6E010E80EC68
:101A080016F0DE0E1D6E610E1E6E74EC17F0010EE0
:101A18000DEC15F030EC19F0B10E00017C6F010EE1
:101A28007D6F09EC00F00101AE6FAE51D8A479D0FA
:101A3800000E1D6E010E80EC16F0BC0E1D6E610EC0
:101A48001E6E74EC17F0570E0001BA6F620EBB6F72
:101A580049EC0EF00101AE6FAE51D8A461D0740EFE
:101A680000019A6F620E9B6F000E9D6F050E9C6FB2
:101A7800AF0E9E6F010E9F6F23EC03F00101AE6F56
:101A8800AE51D8A40CD0000E1D6E010E80EC16F0DD
:101A9800BC0E1D6E610E1E6E74EC17F00FD0010E99
:101AA8000DEC15F0000E1D6E010E80EC16F0330ED5
:101AB8001D6E620E1E6E74EC17F0FFD7010E0DEC52
:101AC80015F0000E1D6E010E80EC16F0250E1D6E31
:101AD800620E1E6E74EC17F0000E1B6E010E1A6E6D
:101AE8003CEC19F04F0E00019A6F010E9B6F000E2F
:101AF8009D6F1F0E9C6FAF0E9E6F010E9F6F74EC53
:101B080007F00101AE6FAE51D8A409D04F0EAF2532
:101B1800D96E010EB021DA6E000EDF6E03D0FFD74A
:101B2800FFD7FFD70101AE51D8A4FFD7FFD772C0A6
:101B380060F073C061F074C062F075C063F076C085
:101B480064F077C065F0010E0001676FFE0E666FE6
:101B5800000E696F020E686F3CEC09F00009D8B4FA
:101B680002D0030E1200000120EE01F07251D926B6
:101B78007351DA22DF50786F78517A6F796B72C0BF
:101B8800D9FF73C0DAFFDF507B6F7B517913000EEA
:101B98007A13550E791904E1AA0E7A19D8B402D02D
:101BA800020E120072C060F073C061F074C062F07F
:101BB80075C063F076C064F077C065F0000E676F9B
:101BC800360E666F000E696F020E686F3CEC09F006
:101BD8000009D8A41FD0000120EE01F07251D926C7
:101BE8007351DA22DF50786F78517A6F796B72C04F
:101BF800D9FF73C0DAFFDF507B6F7B517913000E7A
:101C08007A13460E791906E1410E7A19D8A402D042
:101C1800000E120072C060F073C061F074C062F010
:101C280075C063F076C064F077C065F0000E0001FF
:101C3800676F520E666F000E696F020E686F3CEC9C
:101C480009F00009D8A41FD0000120EE01F072515C
:101C5800D9267351DA22DF50786F78517A6F796B11
:101C680072C0D9FF73C0DAFFDF507B6F7B517913E5
:101C7800000E7A13460E791906E1410E7A19D8A496
:101C880002D0000E1200010E120035C09CF136C0C1
:101C98009DF101019C519D11D8A402D0050E12009E
:101CA80020EE01F09C51D9269D51DA22000EDF6EFC
:101CB8006F0EA06F010EA16F9E0E0001B36F010E93
:101CC800B46F7B0EB56F010EB66F570EB76F620E0D
:101CD800B86FECEC11F001019B6F9B51D8B402D0A6
:101CE8009B5112007B51D8B402D086A902D0030EB2
:101CF80012007B0E1A6E010E1B6E5DEC13F00101D3
:101D080020EE1EF09C51D9269D51DA221AC0DEFF22
:101D18001BC0DEFF1CC0DEFF1DC0DEFF98510001A6
:101D2800BD6FBC6B99C1BEF0BF6BC06BC16BBFC050
:101D3800C1F0BEC0C0F0BF6BBE6B9AC1C2F0C36B2E
:101D4800C46BC56BC2C0C5F0C46BC36BC26BBE515C
:101D5800C211C66FBF51C311C76FC051C411C86F3C
:101D6800C151C511C96FBC51C611CA6FBD51C71148
:101D7800CB6F000EC811CC6F000EC911CD6F0101D9
:101D880097510001CA11CE6FCB51CF6FCC51D06F94
:101D9800CD51D16F010120EE1AF09C51D9269D51E9
:101DA800DA22CEC0DEFFCFC0DEFFD0C0DEFFD1C05A
:101DB800DEFF20EE16F09C51D9269D51DA22DE6A0C
:101DC800DE6ADE6ADD6A20EE01F09C51D9269D515B
:101DD800DA22010EDF6E000E120020EE02F0225011
:101DE800D9262350DA22DECF65F0DDCF66F065C054
:101DF8001AF066C01BF0000E1D6E200E1C6E000E41
:101E08001F6E0B0E1E6E3DEC18F0000E0001676F82
:101E180067C064F0080E636F24C0D9FF25C0DAFFDD
:101E2800DECF61F0DDCF62F06451010D61C026F0B4
:101E380062C027F0F3502626F450272226C0F6FF6A
:101E480027C0F7FF0800F5CF68F0642B200E6865FF
:101E580044D02F0E6819D8B440D02E0E6819D8B4C3
:101E680004D06351675DD8A00DD0080E6319D8A4BB
:101E780034D02E0E6819D8A430D0080E676F0B0E18
:101E8800636FD2D77F0E686514D0800E266EFF0E62
:101E9800276E6851286E296A26502826275029223D
:101EA800E70E2824F66E600E2920F76E0800F5CF9D
:101EB80068F0600E686505D07B0E686102D0200E60
:101EC800685F6751010DF3506525D96EF45066219E
:101ED800DA6E68C0DFFF672BA7D76451010D61C0B8
:101EE80026F062C027F0F3502626F450272224C09B
:101EF800D9FF25C0DAFF26C0DEFF27C0DDFF20EEB0
:101F08000BF06551D9266651DA22200E686501D09A
:101F180002D0010E01D0000EDF6E000E1200000E7E
:101F28000001686F000E676F080E9DEC17F063C024
:101F380028F064C029F065C02AF066C02BF0090EAD
:101F4800D890283629362A362B36E82EF9D728C0D5
:101F580021F029C022F02AC023F02BC024F0000E63
:101F6800256E580E4AEC17F030EC19F023EC19F0F6
:101F780000016B6F6B51D8A4F9D77A0E296EC10E88
:101F8800286E820EE82EFED7282EFCD7292EFAD7E7
:101F9800080E9DEC17F0FE0EBFEC17F0000E0001C6
:101FA8006A6F000E696F6ABF04D0020E6A5DD8B00E
:101FB80024D060C0F6FF61C0F7FF62C0F8FF0800D8
:101FC800F5500009D8B412D060C0F6FF61C0F7FF21
:101FD80062C0F8FF0800F550BFEC17F00001010ED1
:101FE8006027000E6123000E622303D0000EBFECB1
:101FF80017F00001694B6A2BD6D7FF0EBFEC17F01C
:10200800FF0EBFEC17F030EC19F03D0E296EE10E13
:10201800286E400EE82EFED7282EFCD7292EFAD798
:10202800080E9DEC17F0000E216E000E226E000EB9
:10203800236E000E246E000E256E4D0E4AEC17F02E
:1020480030EC19F023EC19F000016B6F6B51D8A438
:10205800F9D7000E120028C060F029C061F02AC02C
:1020680062F02BC063F0060ED8900001603761372C
:1020780062376337E82EF8D7601F611F621F631F3E
:10208800602B000E612362236323000E60251A6E05
:102098006C0E61211B6EDC0E62211C6E020E632128
:1020A8001D6E28C064F029C065F02AC066F02BC0F8
:1020B80067F0060ED8906437653766376737E82EBD
:1020C800F9D764C01EF065C01FF066C020F067C075
:1020D80021F0F7EC12F01AC068F01BC069F000019B
:1020E8006905D8A044D028C060F029C061F02AC092
:1020F80062F02BC063F0040ED89060376137623706
:102108006337E82EF9D7601F611F621F631F602BBA
:10211800000E612362236323000E60251A6E6C0E85
:1021280061211B6EDC0E62211C6E020E63211D6E86
:1021380028C064F029C065F02AC066F02BC067F09B
:10214800040ED8906437653766376737E82EF9D7B5
:1021580064C01EF065C01FF066C020F067C021F0A3
:10216800F7EC12F01AC068F01BC069F0AC840001EB
:102178006905D8B0120068C0AFFFAC98AB8E948EDA
:10218800948CAB88AC8A120035C06FF036C070F002
:1021980065C0D9FF66C0DAFF000EDE6E000EDD6E88
:1021A800000120EE04F06551D9266651DA22DECF0F
:1021B80071F0DECF72F0DECF73F0DECF74F0710510
:1021C800721173117411D8B410D020EE06F06F514B
:1021D800D9267051DA22DE50715DDE507259DE5018
:1021E8007359DE507459D8A002D0010E12007151F3
:1021F800721173117411D8A416D06FC0D9FF70C0B2
:10220800DAFF030EDE18D8A40ED020EE0EF06F51C0
:10221800D9267051DA22DECF71F0DECF72F0DECF30
:1022280073F0DECF74F020EE08F06551D9266651C0
:10223800DA2271C0DEFF72C0DEFF73C0DEFF74C039
:10224800DEFF7151721173117411D8A40FD020EEF2
:102258000EF06F51D9267051DA22DECF6BF0DECF47
:102268006CF0DECF6DF0DECF6EF012D071C026F0CC
:1022780072C027F073C028F074C029F0C1EC13F0C5
:1022880026C06BF027C06CF028C06DF029C06EF036
:10229800000120EE0CF06551D9266651DA226BC098
:1022A800DEFF6CC0DEFF6DC0DEFF6EC0DEFF000E1D
:1022B80012000600FACF07F0FBCF08F0E9CF09F0CB
:1022C800EACF0AF0E1CF0BF0E2CF0CF0D9CF0DF056
:1022D800DACF0EF0F3CF0FF0F4CF10F0F6CF11F005
:1022E800F7CF12F0F8CF13F0F5CF14F046C015F081
:1022F80047C016F048C017F049C018F09DBA9EAA0A
:1023080004D01AEC19F0406E9E9AF2B4F2A436D0BA
:10231800F294010E3F6E000E196E010E196401D081
:1023280019D01950020D2D0EF324D96E000EF42089
:10233800DA6EDE50DE10D8B40BD01950020D2D0E17
:10234800F324D96E000EF420DA6EDE06000EDD5A94
:10235800192AE3D73E04D8A40BD03706D8A03806EC
:1023680037503810D8A404D0000EFA6E000EF96E5B
:10237800000E026E830E016E11EC19F0F2B2F2A893
:1023880001D0F29218C049F017C048F016C047F0C3
:1023980015C046F014C0F5FF13C0F8FF12C0F7FFD0
:1023A80011C0F6FF10C0F4FF0FC0F3FF0EC0DAFF34
:1023B8000DC0D9FF0CC0E2FF0BC0E1FF0AC0EAFF65
:1023C80009C0E9FF08C0FBFF07C0FAFF46921100E9
:1023D80003D00001B74BB82BB7C0F6FFB8C0F7FF62
:1023E8000800F550200AD8B4F4D7B7C0F6FFB8C033
:1023F800F7FF0800F5502F0AD8A403D00001B74B07
:10240800B82B000120EE04F0B351D926B451DA22DA
:10241800DE6ADE6ADE6ADD6AB7C0F6FFB8C0F7FFBB
:10242800200E0800F5600FD0B3C065F0B4C066F0A8
:10243800C8EC10F00001B96FB5C0D9FFB6C0DAFF1B
:10244800000EDF6E4ED0B3C022F0B4C023F0B70E3A
:10245800246E000E256EF1EC0EF00001B96FB95133
:10246800D8A43FD0B3C0ABF0B4C0ACF0B5C0ADF0A9
:10247800B6C0AEF077EC12F00001B96FB951D8A42C
:1024880030D020EE02F0B351D926B451DA2210EE42
:102498000BF0DE50E126DD50E222E750D8A421D02F
:1024A80020EE0BF0B551D926B651DA22DFB803D0A9
:1024B800030EB96F16D0B5C01AF0B6C01BF05DECAC
:1024C80013F0000120EE04F0B351D926B451DA22FA
:1024D8001AC0DEFF1BC0DEFF1CC0DEFF1DC0DEFF12
:1024E800B2D7B9511200ABC065F0ACC066F0C8EC09
:1024F80010F00001B26FB251D8B402D0B25112003C
:10250800ADC060F0AEC061F020EE0CF0AB51D92642
:10251800AC51DA22DECF62F0DECF63F0DECF64F0BA
:10252800DECF65F0ABC0D9FFACC0DAFFDECFAFF0CD
:10253800DDCFB0F00F0EAF17000EB017050ED89014
:10254800AF37B037E82EFBD7AFC066F0B0C067F042
:10255800000E696F200E686F3CEC09F00009D8B4D2
:1025680002D0010E01D0000E0001B26FB251D8A402
:1025780037D0ADC0D9FFAEC0DAFFDF50B16FB1516F
:10258800D8A403D0030EB26F2BD020EE0BF0AD51C0
:10259800D926AE51DA22DFB618D0ADC01AF0AEC0D7
:1025A8001BF020EE02F0AB51D926AC51DA22DECF77
:1025B8001CF0DDCF1DF0000E1F6E0B0E1E6E48ECDA
:1025C80016F01A501B10D8B40BD0ABC09AF0ACC0A0
:1025D8009BF00CEC0CF00001B26FB251D8B490D75C
:1025E8000001B2511200000E236E21AE0AD0211E46
:1025F800201E1F1E1E6C000E1F2220222122010EEB
:10260800236E1DAE0AD01D1E1C1E1B1E1A6C000E4A
:102618001B221C221D22010E231A000E246E000EFE
:10262800256E000E266E000E276E1E501F102010FD
:102638002110D8B42AD0010E226E06D0D8901E36AA
:102648001F3620362136222A21AEF8D7D8902436D4
:102658002536263627361E501A5C1F501B58205028
:102668001C5821501D58D8A009D01E501A5E1F5062
:102678001B5A20501C5A21501D5A2480D8902132B0
:1026880020321F321E32222EE1D72350D8B408D070
:10269800271E261E251E246C000E252226222722F0
:1026A80024C01AF025C01BF026C01CF027C01DF05E
:1026B800120035C026F036C027F0000E286E000E36
:1026C800296E000E2A6E000E2B6E26C0D9FF27C079
:1026D800DAFF030EDE18D8A425D020EE15F01A5024
:1026E800D9261B50DA22DF501E6E1E50206E1F6A3C
:1026F80020EE14F01A50D9261B50DA22DF50216E32
:1027080021501F12000E20121FC028F020C029F0EF
:102718002A6A2B6A100ED890283629362A362B3684
:10272800E82EF9D720EE1BF01A50D9261B50DA22D2
:10273800DF501E6E1E50206E1F6A20EE1AF01A50CF
:10274800D9261B50DA22DF50216E21501F10226E2D
:102758002050236E246A256A2250281223502912F9
:1027680024502A1225502B1228C01AF029C01BF019
:102778002AC01CF02BC01DF0120035C02AF036C04C
:102788002BF0020E265E000E275A285A295A20EEF0
:1027980006F02A50D9262B50DA22FE0EDE2400013C
:1027A800606FFF0EDE20616FFF0EDE20626FFF0E8E
:1027B800DE20636F6051265C6151275862512858AA
:1027C80063512958D8A009D0000E266E000E276E36
:1027D800000E286E000E296E120020EE12F02A500C
:1027E800D9262B50DA22DECF60F0DECF61F0DECFC3
:1027F80062F0DECF63F020EE02F02A50D9262B508B
:10280800DA22DF50646F64511A6E1B6A1C6A1D6AF3
:1028180026C01EF027C01FF028C020F029C021F0D4
:102828001FEC17F0000160511A24266E61511B201D
:10283800276E62511C20286E63511D20296E1200DC
:10284800000E0001D46F010ED46501D01200D451DE
:10285800020DD50EF324D96E000EF420DA6EDE5088
:10286800DE10D8B43DD0D451020D2D0EF324D96E0C
:10287800000EF420DA6EDE50DE10D8A431D0010E3E
:102888003E6EFD0E386EE80E376ED451020DD50E31
:10289800F324D96E000EF420DA6E01D80AD00500B0
:1028A800FA6EDE50FD6EDE50FE6EF850FF6EFA5086
:1028B8001200000E3E6E0001D451020D4B0EF3249F
:1028C800D96E010EF420DA6ED451020D2D0EF324C8
:1028D800E16E000EF420E26EDECFE6FFDDCFE5FF0D
:1028E800D42BB1D79594959295909598959A959C57
:1028F800959E839483928390839E839C838A838806
:10290800EA0E1D6EC30EE82EFED71D2EFCD700F072
:10291800838065EC18F0839065EC18F04E0E1D6E00
:10292800EB0EE82EFED71D2EFCD700F0838065EC59
:1029380018F0839065EC18F04E0E1D6EEB0EE82E25
:10294800FED71D2EFCD700F0838065EC18F083902D
:1029580065EC18F0839E839C838A8398838065EC5A
:1029680018F0839065EC18F0280E0DEC15F0060EA3
:102978000DEC15F00E0E0DEC15F0010E0DEC15F02A
:102988001200000E296E000E286E000E2B6E000E2F
:102998002A6E000E1D6E010E80EC16F0400E1D6EA4
:1029A800620E1E6E74EC17F0080E9DEC17F0000E08
:1029B800216E000E226E000E236E000E246E950E00
:1029C800256E400E4AEC17F030EC19F0000E1D6E23
:1029D800010E80EC16F0ED0E1D6E610E1E6E74EC8D
:1029E80017F023EC19F02C6E2A4A2B2A2C04D8B4A1
:1029F80008D02BBEF6D72B5004E10A0E2A5CD8A0CB
:102A0800F0D7000E2B6E000E2A6E2C04D8B41200DC
:102A1800CBD71C6E8394839283901CA802D08388A2
:102A280001D083981CAA02D0838A01D0839A1CAC57
:102A380002D0838C01D0839C1CAE02D0838E01D03F
:102A4800839E838065EC18F0839065EC18F01CA0D9
:102A580002D0838801D083981CA202D0838A01D037
:102A6800839A1CA402D0838C01D0839C1CA602D01C
:102A7800838E01D0839E838065EC18F0839065EC8B
:102A880018F01C04D8B408D0020E1C18D8B404D00E
:102A9800030E1C18D8A4120065EC18F01200000EE2
:102AA800226E000E236E000E246E000E256E1E5040
:102AB8001F1020102110D8B42AD0010E266E06D07F
:102AC800D8901E361F3620362136262A21AEF8D752
:102AD800D89022362336243625361E501A5C1F50CD
:102AE8001B5820501C5821501D58D8A009D01E50E2
:102AF8001A5E1F501B5A20501C5A21501D5A228002
:102B0800D890213220321F321E32262EE1D722C021
:102B18001AF023C01BF024C01CF025C01DF01200C1
:102B2800226EC69A3F0EC716000EC66E2240800B54
:102B3800C6122150C712939805D0C78C15D0C78CE0
:102B4800C68812D02050000AD8B4F7D7020AD8B4E1
:102B5800F6D7010AD8B4F4D707D0938293880CD05B
:102B680093820AD0939208D02250040AD8B4F5D799
:102B7800010AD8B4F5D7F6D79380949EC68A010E79
:102B88001D6E010E80EC16F0CD0E1D6E610E1E6ED0
:102B980074EC17F0010E0DEC15F01200780EF66EBD
:102BA800610EF76E20EE60F0100E0900F5CFDEFF23
:102BB800E806FBE2670EF66E610EF76E20EE71F026
:102BC800100E0900F5CFDEFFE806FBE2000E1D6ED1
:102BD800010E80EC16F0600E1D6E000E1E6E74EC79
:102BE80017F0000E1D6E020E80EC16F0710E1D6EB1
:102BF800000E1E6E74EC17F03D0E216EE10E206E75
:102C0800400EE82EFED7202EFCD7212EFAD7010E33
:102C18000DEC15F012001C6E8394838283901CA81F
:102C280002D0838801D083981CAA02D0838A01D05D
:102C3800839A1CAC02D0838C01D0839C1CAE02D03A
:102C4800838E01D0839E838065EC18F0839065ECB9
:102C580018F01CA002D0838801D083981CA202D04F
:102C6800838A01D0839A1CA402D0838C01D0839CD0
:102C78001CA602D0838E01D0839E838065EC18F059
:102C8800839065EC18F012001AC023F01BC024F0E2
:102C98001CC025F01DC026F0000E286E000E276E01
:102CA8001E06D8A01F061E2803E11F28D8B41FD06F
:102CB80025C0D9FF26C0DAFF254A262ADF50206E14
:102CC800216A201E211E204A212A23C0D9FF24C0A0
:102CD800DAFF234A242ADF50226E22502024276E4E
:102CE800000E2120286E27502810D8B4D9D727C025
:102CF8001AF028C01BF012001E6E000E1F6E110E77
:102D08001D602FD01ED01DC01FF01F50B8EC16F04C
:102D180026D01D50400F1F6E1F50B8EC16F01FD064
:102D28001D50140F1F6E1F50B8EC16F018D01D5010
:102D3800540F1F6E1F50B8EC16F011D0000E1F6E06
:102D48000ED01E50010AD8B4DED7030AD8B4E1D792
:102D5800010AD8B4E5D7070AD8B4E9D7EFD71D2AAE
:102D68001200000E1F6E12001C6E839483928390D3
:102D7800838E1CA802D0838801D083981CAA02D015
:102D8800838A01D0839A1CAC02D0838C01D0839CA7
:102D9800838065EC18F0839065EC18F01CA002D0D5
:102DA800838801D083981CA202D0838A01D0839A99
:102DB8001CA402D0838C01D0839C1CA602D0838ED5
:102DC80001D0839E838065EC18F0839065EC18F041
:102DD8001200BA0EF66E310EF76E000EF86E01EEA6
:102DE800DBF010EE18F00900F5CFEEFFE550E150EA
:102DF800FAE101EEF3F012EE00F0EE6AE550E15070
:102E0800FCE1E250FAE101EE00F06F0EEE6AE8062E
:102E1800FDE10001D86BD76BD66BD56B00EE2DF0BA
:102E2800190EEE6AE806FDE146904692000EF86E2D
:102E3800000103EF18F0000E226E000E236E000E44
:102E4800246E000E256E1AA008D01E5022261F5090
:102E580023222050242221502522D8901E361F36A6
:102E680020362136D8901D321C321B321A321A50A5
:102E78001B101C101D10D8A4E6D722C01AF023C0BE
:102E88001BF024C01CF025C01DF01200266E000E99
:102E98001D6E010E80EC16F0610E1D6E620E1E6E28
:102EA80074EC17F024C027F0FF0EBFEC17F0265083
:102EB800BFEC17F02750BFEC17F023C027F02750BE
:102EC800BFEC17F022C027F02750BFEC17F021C045
:102ED80027F02750BFEC17F02550BFEC17F0120071
:102EE80014D01DC0F6FF1EC0F7FFF86A070EF7647E
:102EF80003D00800F55005D0F6CFE9FFF7CFEAFF79
:102F0800EF500FEC16F01D4A1E2A1DC0F6FF1EC01A
:102F1800F7FFF86A070EF76403D00800F55005D0EC
:102F2800F6CFE9FFF7CFEAFFEF500009D8B4120057
:102F3800D8D7236E000E1D6E010E80EC16F04C0ED5
:102F48001D6E620E1E6E74EC17F0000E256E000EDC
:102F5800246E07D08A98FF0EBFEC17F08A88244A9F
:102F6800252A2350216E226A2150245C225025589C
:102F7800D8B01200EFD7206EC9CF1FF0C69EC790F9
:102F880020C0C9FFC6BE120010D0020EA8EC18F06F
:102F980036EC19F03D0E1E6EE10E1D6E400EE82E49
:102FA800FED71D2EFCD71E2EFAD7C7A0EED7000ECF
:102FB800A8EC18F036EC19F012001B6E000E1A6E11
:102FC800F29E18D01BBE02D08A9E01D08A8E1B505A
:102FD8001B241B6E780EE82EFED78A8C780EE82EFE
:102FE800FED78A9E780EE82EFED78A9C780EE82EA9
:102FF800FED71A2A070E1A64E5D7F28E1200B6EC2D
:1030080018F088EC18F076EC14F045EC19F0D2ECD6
:1030180015F020EC18F0030E206E010E216E000E44
:1030280094EC15F03F04D8A404D0000E3F6E24ECB5
:1030380014F036EC19F0F6D7A60E0001D56F300E55
:10304800D66FD40ED76F190ED86F030E01014C6FCF
:10305800E80E4B6F070E4E6FD00E4D6F030E2E6E9F
:10306800E80E2D6E070E306ED00E2F6E000E3E6EDF
:1030780012001AC020F01BC021F008D020C0D9FFD0
:1030880021C0DAFF1CC0DFFF204A212A1E06D8A073
:103098001F061E28F3E11F28D8B41200EFD73D50B1
:1030A800D8A402D0010E01D0000E3D6E3D50D8A428
:1030B80004D0000EA8EC18F01200000E99EC18F0DD
:1030C8001200000E1A6E630E1A6401D0120000F08E
:1030D800000E1B6E310E1B6401D003D000F01B2ABA
:1030E800F9D71A2AF0D70B0EC16EC198C19AC180C0
:1030F800C192C184C186C08EC090C082C084C0867F
:10310800C098C09AC2801200949C949E800E286E2B
:10311800250E296E000E2A6E000E2B6E2FEC10F075
:10312800200EAC6E900EAB6E12001C6E1CC01AF016
:10313800010E1B6E1A2A02D0D8901B361A2EFCD705
:103148001B50FF0A451612001C6E1CC01AF0010E17
:103158001B6E1A2A02D0D8901B361A2EFCD71B5089
:103168004512120041EC19F0E9EC18F0D0EC18F017
:103178002AEC19F0C3EC18F077EC18F01200E00E06
:10318800F26E000EF16E000EF06E280E9D6E9E9689
:103198009D869F86D09E1200C30ED56E000E656E6A
:1031A800000E636E000E1B6E830E1A6EFFEC18F095
:1031B8001200636865636B2E7478740030303030A9
:1031C80030300030303030303000010E936E8A6875
:1031D800000E956E070E926E110E946E030E966E8B
:1031E80012008A9A780EE82EFED78A8AF00EE82E08
:1031F800FED78A9A12001AC01CF01BC01DF01DC011
:10320800D7FF1CC0D6FF12009E96C9CF1AF0000E39
:10321800C96E9EA6FED7C950120001C003F002C0B5
:1032280004F004C0D7FF03C0D6FF12009EAAFED741
:10323800ABA203D0AB9800F0AB88AE5012008A88DE
:1032480008EC19F01B6E8A981B501200040ECA6E07
:10325800000ECC6ECB6812008A88FF0EBFEC17F008
:103268008A9812004550E1EC17F0F5EC18F01200BE
:103278001AC03BF01BC03CF01200D388D38AD38C11
:0A32880012008A9A8A9C8A9E1200A6
:1060E60000809A90418E418F804545454949498EA9
:1060F6008F9092924F994F555559999A9B9C9D9E78
:106106009F41494F55A5A5A6A7A8A9AAABAC21AE04
:10611600AFB0B1B2B3B4B5B6B7B8B9BABBBCBDBE11
:10612600BFC0C1C2C3C4C5C6C7C8C9CACBCCCDCE01
:10613600CFD0D1D2D3D4D5D6D7D8D9DADBDCDDDEF1
:10614600DFE0E1E2E3E4E5E6E7E8E9EAEBECEDEEE1
:10615600EFF0F1F2F3F4F5F6F7F8F9FAFBFCFDFED1
:10616600FF2031382F30312F3230323220202000BC
:10617600000053444361726420496E6974202020F4
:106186000000002049676E204F6E000000000000EE
:10619600000000002049676E204372616E6B0000AC
:1061A60000000000002049676E204F666600000070
:1061B6000000000000007379737420696E696369DA
:1061C600616C697A65640053504920636F6E666935
:1061D60067757261646121006D6F756E7420666902
:1061E6006C652073797300747261766F75206171C6
:1061F600756920320043617274E36F2041636569FB
:10620600746F002020202020202020202020202005
:1062160000417474656D7074696E6720746F006CEC
:10622600656E646F206172717569766F00534443C1
:10623600617264206572726F7200747261766F7536
:1062460020617175690041414141414141414141EE
:1062560000636865636B2E747874004F4F4F4F4F21
:106266004F4F4F4F004572726F72212121005344E8
:0A6276005F43617264000D0A00002E
:020000040020DA
:08000000FFFFFFFFFFFFFFFF00
:020000040030CA
:0E000000040C1F1EFF8081FF0FC00FE00F4099
:00000001FF
