:0400000007EF00F016
:1000080046824FED12F03EEF17F0000E376E000EED
:10001800386EE3EC0AF000017A6F7AA102D0020E82
:100028001200000EBC6F000EBD6F000EBE6F000EFA
:10003800BF6F900E726F000E736FBCC074F0BDC0BE
:1000480075F0BEC076F0BFC077F0F7EC0DF0000198
:10005800C46FC405D8A468D0900E606F000E616F9D
:10006800BCC062F0BDC063F0BEC064F0BFC065F044
:10007800010E676FBE0E666F000E696F100E686F17
:100088003EEC09F00009D8B402D0030E4BD00001B1
:100098009451D8B449D099517B6F7A6B9AC07CF04F
:1000A8007D6B7E6B7F6B7DC07FF07CC07EF07D6B4F
:1000B8007C6B9BC080F0816B826B836B80C083F00C
:1000C800826B816B806B7C518011846F7D518111B3
:1000D800856F7E518211866F7F518311876F7A51A8
:1000E8008411886F7B518511896F000E86118A6F84
:1000F800000E87118B6F98518811BC6F8951BD6FA5
:100108008A51BE6F8B51BF6F900E726F000E736F66
:10011800BCC074F0BDC075F0BEC076F0BFC077F04B
:10012800F7EC0DF00001C46F030EC419D8A402D077
:10013800010E1200C451D8B402D0060E1200900E5F
:10014800606F000E616FBCC062F0BDC063F0BEC0DE
:1001580064F0BFC065F0000E676F0D0E666F000E8D
:10016800696F240E686F3EEC09F00009D8B402D01C
:10017800010E1200000199519AC07AF07B6B7AC087
:100188007BF07A6B7A13000E7B137AC0C0F07BC0C9
:10019800C1F0C26BC36BC051C111C211C311D8A445
:1001A80039D0A8517B6F7A6BA9C07CF07D6B7E6BD0
:1001B8007F6B7DC07FF07CC07EF07D6B7C6BAAC0BE
:1001C80080F0816B826B836B80C083F0826B816B64
:1001D800806B7C518011846F7D518111856F7E51B8
:1001E8008211866F7F518311876F7A518411886FCE
:1001F8007B518511896F000E86118A6F000E871159
:100208008B6FA7518811C06F8951C16F8A51C26F16
:100218008B51C36FC0C01AF0C1C01BF0C2C01CF024
:10022800C3C01DF093511E6E1F6A206A216AB5EC87
:1002380018F01AC0C0F01BC0C1F01CC0C2F01DC02D
:10024800C3F00001915192C07AF07B6B7AC07BF0C9
:100258007A6B7A13000E7B137A51BC257C6F7B5125
:10026800BD217D6F000EBE217E6F000EBF217F6F06
:1002780020EE0AF07851D9267951DA227CC0DEFFC7
:100288007DC0DEFF7EC0DEFF7FC0DEFF20EE02F015
:100298007851D9267951DA2290C0DFFF945195C060
:1002A8007AF07B6B7AC07BF07A6B7A13000E7B1343
:1002B80020EE04F07851D9267951DA227AC0DEFF8F
:1002C8007BC0DDFF965197C07AF07B6B7AC07BF0DC
:1002D8007A6B7A13000E7B137AC0B4F07BC0B5F04A
:1002E800B66BB76BB451B511B611B711D8A439D0E4
:1002F800A4517B6F7A6BA5C07CF07D6B7E6B7F6BA6
:100308007DC07FF07CC07EF07D6B7C6BA6C080F0EA
:10031800816B826B836B80C083F0826B816B806B97
:100328007C518011846F7D518111856F7E518211BE
:10033800866F7F518311876F7A518411886F7B5143
:100348008511896F000E86118A6F000E87118B6FD9
:10035800A3518811B46F8951B56F8A51B66F8B510B
:10036800B76F20EE04F07851D9267951DA22DECF22
:100378007AF0DDCF7BF0040E7C6FD8907B337A3334
:100388007C2FFBD7915192C07DF07E6B7DC07EF0B3
:100398007D6B7D13000E7E137D517A257F6F7E5114
:1003A8007B21806F816BD8B0812B826BC0517F25F8
:1003B800836FC1518021846FC2518121856FC351E0
:1003C8008221866F831F841F851F861F832B000E43
:1003D800842385238623B45183251A6EB55184213D
:1003E8001B6EB65185211C6EB75186211D6E20EEFD
:1003F80002F07851D9267951DA22DF50876F875178
:100408001E6E1F6A206A216A48EC16F0020E1A2432
:100418000001B86F000E1B20B96F000E1C20BA6FC8
:10042800000E1D20BB6F20EE06F07851D9267951B9
:10043800DA22B8C0DEFFB9C0DEFFBAC0DEFFBBC03B
:10044800DEFF000EC46FBB51BA1108E1F70EB85DAC
:100458000F0EB959D8B002D0010EC46FBB51BA11F2
:1004680006E1F80EB85D0F0EB959D8A00BD0BB51F4
:10047800BA1108E1F70EB85DFF0EB959D8B002D02D
:10048800020EC46FBB51BA1106E1F70EB85DFF0E3C
:10049800B959D8A002D0030EC46FC451D8A402D051
:1004A800060E120078C0D9FF79C0DAFFC4C0DFFF9A
:1004B800030EC419D8A448D0B0517B6F7A6BB1C071
:1004C8007CF07D6B7E6B7F6B7DC07FF07CC07EF0A7
:1004D8007D6B7C6BB2C080F0816B826B836B80C05C
:1004E80083F0826B816B806B7C518011846F7D51AE
:1004F8008111856F7E518211866F7F518311876FBD
:100508007A518411886F7B518511896F000E86118D
:100518008A6F000E87118B6FAF5188118C6F8951CC
:100528008D6F8A518E6F8B518F6F20EE0EF0785140
:10053800D9267951DA228CC0DEFF8DC0DEFF8EC04D
:10054800DEFF8FC0DEFF28D020EE0AF07851D926D2
:100558007951DA22DECF7AF0DECF7BF0DECF7CF085
:10056800DECF7DF0C0517A257E6FC1517B217F6F30
:10057800C2517C21806FC3517D21816F20EE0EF026
:100588007851D9267951DA227EC0DEFF7FC0DEFF9E
:1005980080C0DEFF81C0DEFF20EE0AF07851D92648
:1005A8007951DA22DECF7AF0DECF7BF0DECF7CF035
:1005B800DECF7DF020EE04F07851D9267951DA2289
:1005C800DECF7EF0DDCF7FF0040E806FD8907F33D2
:1005D8007E33802FFBD77E517A25816F7F517B2117
:1005E800826F000E7C21836F000E7D21846FC051C5
:1005F8008125856FC1518221866FC2518321876F02
:10060800C3518421886F20EE12F07851D926795190
:10061800DA2285C0DEFF86C0DEFF87C0DEFF88C025
:10062800DEFF20EE01F07851D9267951DA22000E4A
:10063800DF6E78C037F079C038F0000E120096C02F
:10064800A4F097C0A5F037C0B5F038C0B6F09AC08E
:10065800D9FF9BC0DAFF000EDE6E000EDD6E0001D2
:10066800B551B611D8A402D0050E120020EE01F043
:10067800B551D926B651DA22DFB002D0040E1200E5
:1006880098519911D8A431D020EE01F0B551D9264E
:10069800B651DA22DFAC1ED0000E266E000E276E91
:1006A800000E286E000E296E000E2A6E000E2B6EAC
:1006B800000E2C6EEFEC0FF00009D8B40BD000013F
:1006C80020EE01F0B551D926B651DA22000EDF6EC0
:1006D800010E1200000120EE01F0B551D926B651E5
:1006E800DA22BF0EDF16000E120020EE01F0B5511F
:1006F800D926B651DA22DFBC0ED020EE16F0B5515D
:10070800D926B651DA22000EDE16FE0EDE16FF0ED0
:10071800DE16FF0EDE1620EE1AF0B551D926B651B8
:10072800DA22DECF9CF0DECF9DF0DECF9EF0DECF6A
:100738009FF020EE16F0B551D926B651DA22DECF59
:10074800A0F0DECFA1F0DECFA2F0DECFA3F0A01F95
:10075800A11FA21FA31FA02B000EA123A223A32326
:100768009C51A025AA6F9D51A121AB6F9E51A2213A
:10077800AC6F9F51A321AD6F98519C6F99519D6F9C
:100788009E6B9F6B9C51AA5D9D51AB599E51AC5974
:100798009F51AD59D8B0ACD1AAC098F0ABC099F070
:1007A800A7D1FF0E9C6F010E9D6F20EE16F0B5517C
:1007B800D926B651DA22DECF9EF0DDCF9FF09C51CC
:1007C8009E179D519F179E519F11D8A4E9D020EEE6
:1007D80016F0B551D926B651DA22DECF9CF0DECF1D
:1007E8009DF0DECF9EF0DECF9FF00A0E05D0D890A8
:1007F8009F339E339D339C33E82EF9D720EE02F0C9
:10080800B551D926B651DA22DF50A06FA0059C1544
:10081800B26FB251D8A454D020EE16F0B551D926F3
:10082800B651DA22DE50DE10DE10DE10D8A40FD06A
:1008380020EE1EF0B551D926B651DA22DECFAEF041
:10084800DECFAFF0DECFB0F0DECFB1F018D020EEC3
:1008580022F0B551D926B651DA22DECF2AF0DECF02
:100868002BF0DECF2CF0DECF2DF082EC05F02AC085
:10087800AEF02BC0AFF02CC0B0F02DC0B1F000012D
:10088800B151B011AF110EE1020EAE5DD8B00AD071
:1008980020EE01F0B551D926B651DA22000EDF6EEE
:1008A800010E120020EE22F0B551D926B651DA22F7
:1008B800AEC0DEFFAFC0DEFFB0C0DEFFB1C0DEFFFE
:1008C80020EE22F0B551D926B651DA22DECF26F035
:1008D800DECF27F0DECF28F0DECF29F0B7EC14F01A
:1008E80026C0A6F027C0A7F028C0A8F029C0A9F004
:1008F8000001A651A711A811A911D8A40AD020EE69
:1009080001F0B551D926B651DA22000EDF6E010E7C
:100918001200B251A6259C6F000EA7219D6F000EF4
:10092800A8219E6F000EA9219F6F20EE26F0B551D9
:10093800D926B651DA229CC0DEFF9DC0DEFF9EC0DC
:10094800DEFF9FC0DEFF000E266E000E276E000E33
:10095800286E20EE26F0B551D926B651DA22DECF20
:1009680029F0DECF2AF0DECF2BF0DECF2CF0EFEC33
:100978000FF00009D8B40BD0000120EE01F0B551FA
:10098800D926B651DA22000EDF6E010E12000001E0
:1009980020EE01F0B551D926B651DA22000EDB8CD3
:1009A800FF0E9C6F010E9D6F20EE16F0B551D926F3
:1009B800B651DA22DECF9EF0DDCF9FF09C519E1714
:1009C8009D519F179E1F9F1F9E4B9F2B000E9E257C
:1009D800B36F020E9F21B46FB351985DB45199590A
:1009E800D8B004D098C0B3F099C0B4F0A4C026F031
:1009F800A5C027F026502710D8A4000E286E20EE98
:100A080026F0B551D926B651DA22DECF29F0DECF4D
:100A18002AF0DECF2BF0DECF2CF0EFEC0FF0000940
:100A2800D8B40BD0000120EE01F0B551D926B6514B
:100A3800DA22000EDF6E010E1200000120EE16F021
:100A4800B551D926B651DA22B351DE26B451DE2289
:100A5800000EDE22DE22B351A427B451A523B351E0
:100A6800985FB451995B9AC0D9FF9BC0DAFFB35124
:100A7800DE26B451DD22FF0E9C6F010E9D6F20EE25
:100A880016F0B551D926B651DA22DECF9EF0DDCF69
:100A98009FF09C519E179D519F179E519F11D8A45E
:100AA80027D0000E266E000E276E000E286E000E50
:100AB800296E000E2A6E000E2B6E000E2C6EEFECC7
:100AC8000FF00009D8B40BD0000120EE01F0B551A9
:100AD800D926B651DA22000EDF6E010E120000018F
:100AE80020EE01F0B551D926B651DA22BF0EDF1635
:100AF80098519911D8A455D6000E120037C094F019
:100B080038C095F02D502C102B1004E1020E2A5CF1
:100B1800D8A011D0000120EE06F09451D9269551A5
:100B2800DA22DE502A5CDE502B58DE502C58DE507C
:100B38002D58D8A0C0D1010E2A6E000E2B6E000EC3
:100B48002C6E000E2D6E12002AC092F02BC093F06E
:100B5800D89000019331736F9231726F725192275E
:100B680073519323FF0E92158C6F010E93158D6FA1
:100B7800090E726FD89093339233722FFBD78C295A
:100B880003E18D05D8B42CD08E0E606F000E616F16
:100B980020EE0AF09451D9269551DA22DECF72F070
:100BA800DECF73F0DECF74F0DECF75F09251722590
:100BB800626F93517321636F000E7421646F000E8E
:100BC8007521656F8CC066F08DC067F0000E696F87
:100BD800020E686F3EEC09F00009D8A47AD161D002
:100BE8008E0E0001606F000E616F20EE0AF09451C6
:100BF800D9269551DA22DECF72F0DECF73F0DECF40
:100C080074F0DECF75F092517225626F93517321A3
:100C1800636F000E7421646F000E7521656F010EFD
:100C2800676F6669000E696F010E686F3EEC09F028
:100C38000009D8A44ED18F0E0001606F000E616FBD
:100C480020EE0AF09451D9269551DA22DECF72F0BF
:100C5800DECF73F0DECF74F0DECF75F092517225DF
:100C6800766F93517321776F000E7421786F000EA1
:100C78007521796F010E7625626F000E7721636FFB
:100C8800000E7821646F000E7921656F000E676F82
:100C9800000E666F000E696F010E686F3EEC09F07A
:100CA8009BD700018F51726F8E518A6F72C08BF083
:100CB8002AB007D0FF0E8A15886F0F0E8B15896F23
:100CC8000FD08AC072F08BC073F0040E746FD89086
:100CD80073337233742FFBD772C088F073C089F0F6
:100CE80088C02AF089C02BF02C6A2D6A12008E0E5B
:100CF8000001606F000E616F20EE0AF09451D92652
:100D08009551DA22DECF72F0DECF73F0DECF74F0C9
:100D1800DECF75F02AC076F02BC077F02CC078F0C3
:100D28002DC079F077C076F078C077F079C078F088
:100D3800796B72517625626F73517721636F7451A5
:100D48007821646F75517921656FFF0E2A147A6FC7
:100D5800000E2B147B6FD8907A35666F7B35676FE2
:100D6800000E696F020E686F3EEC09F00009D8A406
:100D7800B0D000018E518FC072F0736B72C073F0E7
:100D8800726B7213000E731372C02AF073C02BF0CB
:100D98002C6A2D6A12008E0E0001606F000E616FC2
:100DA80020EE0AF09451D9269551DA22DECF72F05E
:100DB800DECF73F0DECF74F0DECF75F02AC076F0A8
:100DC8002BC077F02CC078F02DC079F0080E05D034
:100DD800D8907933783377337633E82EF9D7725150
:100DE8007625626F73517721636F74517821646F30
:100DF80075517921656F7F0E2A147A6F000E2B14B6
:100E08007B6FD8907A377B37D8907A377B377AC020
:100E180066F07BC067F0000E696F040E686F3EECE9
:100E280009F00009D8A455D000018F51736F726B77
:100E380090C074F0756B766B776B75C077F074C083
:100E480076F0756B746B91C078F0796B7A6B7B6B0D
:100E580078C07BF07A6B796B786B745178117C6F02
:100E6800755179117D6F76517A117E6F77517B11AB
:100E78007F6F72517C11806F73517D11816F000EED
:100E88007E11826F000E7F11836F8E518011846FE7
:100E98008151856F8251866F8351876FFF0E84154C
:100EA8002A6EFF0E85152B6EFF0E86152C6E0F0E03
:100EB80087152D6E120094C0D9FF95C0DAFFDF5058
:100EC800010AD8B441D6030AD8B411D7010AD8B454
:100ED80062D7010E2A6E000E2B6E000E2C6E000ECD
:100EE8002D6E120096C0A5F097C0A6F037C0B8F0D6
:100EF80038C0B9F09AC0D9FF9BC0DAFF000EDE6E89
:100F0800000EDD6E0001B851B911D8A402D0050E4B
:100F1800120020EE01F0B851D926B951DA22DFB01B
:100F280002D0040E120020EE1AF0B851D926B95199
:100F3800DA22DECF9CF0DECF9DF0DECF9EF0DECF52
:100F48009FF020EE16F0B851D926B951DA22DECF3B
:100F5800A0F0DECFA1F0DECFA2F0DECFA3F0A01F7D
:100F6800A11FA21FA31FA02B000EA123A223A3230E
:100F78009C51A025AD6F9D51A121AE6F9E51A2211C
:100F8800AF6F9F51A321B06F98519C6F99519D6F7E
:100F98009E6B9F6B9C51AD5D9D51AE599E51AF5953
:100FA8009F51B059D8B060D1ADC098F0AEC099F09B
:100FB8005BD120EE16F0B851D926B951DA22FF0ECE
:100FC800DE149C6F010EDE149D6F000EDE149E6F02
:100FD800000EDE149F6F9C519D119E119F11D8A485
:100FE800BCD020EE16F0B851D926B951DA22DECF9E
:100FF8009CF0DECF9DF0DECF9EF0DECF9FF00A0E94
:1010080005D0D8909F339E339D339C33E82EF9D773
:1010180020EE02F0B851D926B951DA22DF50A06F7C
:10102800A0059C15B56FB551D8A454D020EE16F084
:10103800B851D926B951DA22DE50DE10DE10DE10A2
:10104800D8A40FD020EE1EF0B851D926B951DA2213
:10105800DECFB1F0DECFB2F0DECFB3F0DECFB4F04A
:1010680018D020EE22F0B851D926B951DA22DECFB5
:101078002AF0DECF2BF0DECF2CF0DECF2DF082EC85
:1010880005F02AC0B1F02BC0B2F02CC0B3F02DC0CF
:10109800B4F00001B451B311B2110EE1020EB15D0A
:1010A800D8B00AD020EE01F0B851D926B951DA22C9
:1010B800000EDF6E010E120020EE22F0B851D92684
:1010C800B951DA22B1C0DEFFB2C0DEFFB3C0DEFF25
:1010D800B4C0DEFF20EE22F0B851D926B951DA2289
:1010E800DECF26F0DECF27F0DECF28F0DECF29F0E6
:1010F800B7EC14F026C0A9F027C0AAF028C0ABF0BE
:1011080029C0ACF00001A951AA11AB11AC11D8A4A7
:101118000AD020EE01F0B851D926B951DA22000ED2
:10112800DF6E010E1200B551A9259C6F000EAA2191
:101138009D6F000EAB219E6F000EAC219F6F20EEBD
:1011480026F0B851D926B951DA229CC0DEFF9DC0DD
:10115800DEFF9EC0DEFF9FC0DEFFFF0E9C6F010E0C
:101168009D6F20EE16F0B851D926B951DA22DECF9C
:101178009EF0DDCF9FF09C519E179D519F179E1F9B
:101188009F1F9E4B9F2B000E9E25B66F020E9F2120
:10119800B76FB651985DB7519959D8B004D098C077
:1011A800B6F099C0B7F096519711D8B405D0A5C03C
:1011B800A7F0A6C0A8F004D0000EA76F000EA86F75
:1011C800A7C060F0A8C061F020EE26F0B851D9267B
:1011D800B951DA22DECF62F0DECF63F0DECF64F001
:1011E800DECF65F020EE16F0B851D926B951DA22D3
:1011F800DECF9CF0DDCF9DF0FF0E9C15666F010ED3
:101208009D15676FB6C068F0B7C069F03EEC09F08D
:101218000001A46FA451D8B40AD020EE01F0B8514F
:10122800D926B951DA22000EDF6E010E120020EE27
:1012380016F0B851D926B951DA22B651DE26B7517F
:10124800DE22000EDE22DE22B651A527B751A623E4
:10125800B651985FB751995B9AC0D9FF9BC0DAFF26
:10126800B651DE26B751DD2298519911D8A4A1D6DE
:10127800000E1200000E00016A6F66516711D8A4B3
:10128800A4D062C026F063C027F064C028F065C00F
:1012980029F0090ED8902636273628362936E82E22
:1012A800F9D726C06BF027C06CF028C06DF029C0B4
:1012B8006EF03D0E276EE10E266E400EE82EFED72C
:1012C800262EFCD7272EFAD7080EACEC19F06BC0E7
:1012D8001EF06CC01FF06DC020F06EC021F0000E33
:1012E800226E520E87EC18F0AAEC1AF09DEC1AF058
:1012F80000016F6F6F51D8A4F9D73D0E276EE10E2C
:10130800266E400EE82EFED7262EFCD7272EFAD7BB
:10131800AAEC1AF09DEC1AF000016F6FFE0E6F191F
:10132800D8A4F8D7000E716F000E706F0CD0AD0EF8
:101338007025D96E020E7121DA6E9DEC1AF0DF6EFF
:101348000001704B712B6851705D69517159D8A0BB
:10135800EED73D0E276EE10E266E400EE82EFED724
:10136800262EFCD7272EFAD7080EACEC19F0000E63
:101378001E6E000E1F6E000E206E000E216E000EF7
:10138800226E4C0E87EC18F0AAEC1AF09DEC1AF0BD
:1013980000016F6F6F29D8A4F9D7000E716F000E86
:1013A800706F02D0704B712BAD0E7025D96E020E86
:1013B8007121DA6EDF50D8A4F5D760C0D9FF61C0BB
:1013C800DAFF70C0DFFF000E120062C026F063C0B3
:1013D80027F064C028F065C029F0090ED890263699
:1013E800273628362936E82EF9D726C06BF027C0CD
:1013F8006CF028C06DF029C06EF0000E716F000E01
:10140800706F0AD0AD0E7025D96E020E7121DA6E9A
:10141800000EDF6E704B712B71BFF4D7020E715D39
:10142800D8A0F0D73D0E276EE10E266E400EE82EAE
:10143800FED7262EFCD7272EFAD7080EACEC19F0CB
:101448006BC01EF06CC01FF06DC020F06EC021F0A4
:10145800000E226E510E87EC18F0AAEC1AF09DECE3
:101468001AF000016F6F6F51D8A4F9D79DEC1AF0EC
:1014780000016F6FFE0E6F19D8A4F8D7000E716FB8
:10148800000E706F48D0AD0E7025D96E020E712116
:10149800DA6E9DEC1AF0DF6E0001704B712B660757
:1014A800D8A067076629EFE16729D8B419D0EBD728
:1014B8009DEC1AF060C0D9FF61C0DAFFDF6E60C032
:1014C800D9FF61C0DAFFAD0E00017025E16E020E92
:1014D8007121E26EDFCFE7FF604B612B704B712B00
:1014E8006807D8A069076829E3E16929D8B40DD04D
:1014F800DFD7AD0E7025D96E020E7121DA6E9DEC24
:101508001AF0DF6E0001704B712B71BFF2D7020E1B
:10151800715DD8A0EED771BFC2D7020E715DD8A099
:10152800BED73D0E276EE10E266E400EE82EFED782
:10153800262EFCD7272EFAD7000E1E6E000E1F6E21
:10154800000E206E000E216E000E226E4C0E87ECEF
:1015580018F0AAEC1AF09DEC1AF000016F6F6F29D1
:10156800D8A4F9D7000E716F000E706FD705D81187
:10157800D8B403D00CD0704B712BAD0E7025D96E3A
:10158800020E7121DA6EDF50D8B40CD0F4D7000EF9
:101598001D6E020EE8EC17F07C0E1D6E620E1E6EBC
:1015A800E0EC18F07A0E276EC10E266E820EE82E39
:1015B800FED7262EFCD7272EFAD7000E1200000ED3
:1015C8000001636F000E626F000E656F000E646F9E
:1015D800000E686F000E676F04EC17F01F0E000115
:1015E800616F710E606F1E0EE82EFED7602FFCD75C
:1015F800612FFAD700F0080EACEC19F0000E1E6E41
:10160800000E1F6E000E206E000E216EFF0E226E61
:10161800410E87EC18F0AAEC1AF09DEC1AF00001C4
:10162800696F6905D8A4F9D73D0E0001616FE10E15
:10163800606F3F0EE82EFED7602FFCD7612FFAD7D8
:1016480000D0AAEC1AF000016905D8A496D0100EB3
:101658000001606F940EE82EFED7602FFCD700F0D3
:10166800000E0001656F000E646F000E686F000EBB
:10167800676F080EACEC19F0000E1E6E000E1F6EA0
:10168800000E206E000E216E950E226E770E87ECEE
:1016980018F0000169699DEC1AF00001696F674B49
:1016A800682B6905D8B408D068BFF5D7685104E13C
:1016B8000A0E675DD8A0EFD7100E0001606F940E78
:1016C800E82EFED7602FFCD700F0000E0001686FEF
:1016D800000E676F080EACEC19F0000E1E6E000EBF
:1016E8001F6E000E206E400E216E950E226E690E42
:1016F80087EC18F000016969AAEC1AF09DEC1AF061
:101708000001696F674B682B6951D8B408D068BF6E
:10171800F5D7685104E10A0E675DD8A0EFD7695183
:10172800D8A4A3D7000E656F000E646F100E0001D9
:10173800606F940EE82EFED7602FFCD700F0000EE5
:101748000001666F010E02EC16F0000E1D6E010E10
:10175800E8EC17F01F0E1D6E620E1E6EE0EC18F01E
:101768007A0E0001616FC10E606F810EE82EFED700
:10177800602FFCD7612FFAD721D0050E0001691917
:10178800D8A41DD0010E666F010E02EC16F0000EF3
:101798001D6E010EE8EC17F05A0E1D6E620E1E6EDD
:1017A800E0EC18F0B70E0001616FA10E606FC30E78
:1017B800E82EFED7602FFCD7612FFAD700D03D0E58
:1017C8000001616FE10E606F3F0EE82EFED7602FBB
:1017D800FCD7612FFAD700D0080EACEC19F0000E38
:1017E8001E6E020E1F6E000E206E000E216EFF0E82
:1017F800226E500E87EC18F0AAEC1AF09DEC1AF045
:101808000001696F6951D8A4F9D7010E02EC16F0EE
:10181800000E1D6E010EE8EC17F03A0E1D6E620EFA
:101828001E6EE0EC18F0000E1D6E020EE8EC17F0CC
:10183800110E1D6E620E1E6EE0EC18F07A0E00019D
:10184800616FC10E606F810EE82EFED7602FFCD746
:10185800612FFAD700D0010E02EC16F0000E1D6EB3
:10186800010EE8EC17F06B0E1D6E620E1E6EE0ECBA
:1018780018F000016651120037C09FF038C0A0F080
:1018880096C0D9FF97C0DAFFDECF98F0DDCF99F088
:10189800010E00019825A56F000E9921A66FA5518C
:1018A800A611D8B40CD020EE0CF09651D926975139
:1018B800DA22DE50DE10DE10DE10D8A402D0030ECD
:1018C80012000F0EA515986F000EA615996F985166
:1018D8009911D8A4A5D020EE0CF09651D92697518D
:1018E800DA22DE2A000EDE22DE22DE2220EE08F0D8
:1018F8009651D9269751DA22DE50DE10DE10DE101E
:10190800D8A40ED020EE04F09F51D926A051DA2297
:10191800DE50A55DDE50A659D8A082D0030E120075
:10192800A5C098F0A6C099F0040E9A6FD890993384
:1019380098339A2FFBD7FF0E9B6FFF0E9C6F20EEFC
:1019480002F09F51D926A051DA22DF509D6F9E6B7D
:101958009B519D279C519E2398519D1799519E17E5
:101968009D519E11D8A45CD020EE08F09651D9263E
:101978009751DA22DECF2AF0DECF2BF0DECF2CF023
:10198800DECF2DF082EC05F02AC0A1F02BC0A2F02A
:101998002CC0A3F02DC0A4F00001A451A311A211E2
:1019A80006E1020EA15DD8B002D0010E120020EEB1
:1019B80006F09F51D926A051DA22DE50A15DDE50F3
:1019C800A259DE50A359DE50A459D8A002D0030E64
:1019D800120020EE08F09651D9269751DA22A1C0BC
:1019E800DEFFA2C0DEFFA3C0DEFFA4C0DEFFA1C0F1
:1019F80026F0A2C027F0A3C028F0A4C029F0B7ECB5
:101A080014F0000120EE0CF09651D9269751DA22F5
:101A180026C0DEFF27C0DEFF28C0DEFF29C0DEFFAC
:101A280096C0D9FF97C0DAFFA5C0DEFFA6C0DDFFCC
:101A3800000E1200D59E000E1D6E010EE8EC17F088
:101A4800E70E1D6E610E1E6EE0EC18F0000E1D6EA6
:101A5800020EE8EC17F0CA0E1D6E610E1E6EE0EC69
:101A680018F0010E02EC16F0AAEC1AF0830E000131
:101A7800786F020E796F09EC00F00201806F8051D7
:101A8800D8A4ABD0000E1D6E010EE8EC17F0980E2E
:101A98001D6E610E1E6EE0EC18F0470E0001B66F69
:101AA800620EB76FA5EC0EF00201806F8051D8A4CA
:101AB8007AD0630E0001966F620E976F000E996FD1
:101AC800050E986F810E9A6F020E9B6F23EC03F040
:101AD8000201806F8051D8A40CD0000E1D6E010E3B
:101AE800E8EC17F0980E1D6E610E1E6EE0EC18F013
:101AF8000FD0010E02EC16F0000E1D6E010EE8EC80
:101B080017F02D0E1D6E620E1E6EE0EC18F0FFD75A
:101B1800010E02EC16F0000E1D6E010EE8EC17F037
:101B2800030E1D6E620E1E6EE0EC18F0000E1B6EAA
:101B3800010E1A6EB6EC1AF05F0E0001966F010ED8
:101B4800976F000E996F1F0E986F810E9A6F020E95
:101B58009B6F76EC07F00201806F8051D8A409D002
:101B68005F0E8125D96E010E8221DA6E000EDF6EBE
:101B780035D0010E02EC16F0000E1D6E010EE8ECD9
:101B880017F0D90E1D6E610E1E6EE0EC18F0000EF7
:101B98001D6E020EE8EC17F0F50E1D6E610E1E6E3E
:101BA800E0EC18F0FFD7010E02EC16F0000E1D6EE7
:101BB800010EE8EC17F0D90E1D6E610E1E6EE0ECFA
:101BC80018F0000E1D6E020EE8EC17F0BA0E1D6E2E
:101BD800610E1E6EE0EC18F0FFD7FFD702018051AE
:101BE800D8A4FFD7FFD772C060F073C061F074C08B
:101BF80062F075C063F076C064F077C065F0010EDE
:101C08000001676FFE0E666F000E696F020E686F47
:101C18003EEC09F00009D8B402D0030E120000010E
:101C280020EE01F07251D9267351DA22DF502A6E64
:101C38002A502C6E2B6A72C0D9FF73C0DAFFDF50AE
:101C48002D6E2D502B12000E2C12550E2B1804E160
:101C5800AA0E2C18D8B402D0020E120072C060F07E
:101C680073C061F074C062F075C063F076C064F050
:101C780077C065F0000E676F360E666F000E696FED
:101C8800020E686F3EEC09F00009D8A41FD00001CD
:101C980020EE01F07251D9267351DA22DF502A6EF4
:101CA8002A502C6E2B6A72C0D9FF73C0DAFFDF503E
:101CB8002D6E2D502B12000E2C12460E2B1806E1FD
:101CC800410E2C18D8A402D0000E120072C060F089
:101CD80073C061F074C062F075C063F076C064F0E0
:101CE80077C065F0000E0001676F520E666F000E38
:101CF800696F020E686F3EEC09F00009D8A41FD086
:101D0800000120EE01F07251D9267351DA22DF501A
:101D18002A6E2A502C6E2B6A72C0D9FF73C0DAFF64
:101D2800DF502D6E2D502B12000E2C12460E2B1844
:101D380006E1410E2C18D8A402D0000E1200010EA4
:101D4800120037C0BBF138C0BCF10101BB51BC1156
:101D5800D8A402D0050E120020EE01F0BB51D926FE
:101D6800BC51DA22000EDF6E8E0EBF6F010EC06FFF
:101D7800BD0E0001AF6F010EB06F9A0EB16F010E6C
:101D8800B26F470EB36F620EB46FE2EC12F001014E
:101D9800BA6FBA51D8B402D0BA5112009A51D8B415
:101DA80002D0A5A902D0030E12009A0E1A6E010ED7
:101DB8001B6E53EC14F0010120EE1EF0BB51D92626
:101DC800BC51DA221AC0DEFF1BC0DEFF1CC0DEFFDA
:101DD8001DC0DEFFB7510001B96FB86BB8C1BAF0CA
:101DE800BB6BBC6BBD6BBBC0BDF0BAC0BCF0BB6B02
:101DF800BA6BB9C1BEF0BF6BC06BC16BBEC0C1F0DE
:101E0800C06BBF6BBE6BBA51BE11C26FBB51BF1165
:101E1800C36FBC51C011C46FBD51C111C56FB8515A
:101E2800C211C66FB951C311C76F000EC411C86F74
:101E3800000EC511C96F0101B6510001C611CA6F64
:101E4800C751CB6FC851CC6FC951CD6F010120EE7E
:101E58001AF0BB51D926BC51DA22CAC0DEFFCBC06A
:101E6800DEFFCCC0DEFFCDC0DEFF20EE16F0BB519A
:101E7800D926BC51DA22DE6ADE6ADE6ADD6A20EE25
:101E880001F0BB51D926BC51DA22010EDF6E000EDB
:101E9800120020EE02F02250D9262350DA22DECF9B
:101EA80065F0DDCF66F065C01AF066C01BF0000E65
:101EB8001D6E200E1C6E000E1F6E0B0E1E6EC3ECE8
:101EC80019F0000E0001676F67C064F0080E636FB9
:101ED80024C0D9FF25C0DAFFDECF61F0DDCF62F084
:101EE8006451010D61C026F062C027F0F350262628
:101EF800F450272226C0F6FF27C0F7FF0800F5CFC9
:101F080068F0642B200E686544D02F0E6819D8B489
:101F180040D02E0E6819D8B404D06351675DD8A09C
:101F28000DD0080E6319D8A434D02E0E6819D8A481
:101F380030D0080E676F0B0E636FD2D77F0E6865BF
:101F480014D0800E266EFF0E276E6851286E296AFF
:101F580026502826275029224D0E2824F66E600E7A
:101F68002920F76E0800F5CF68F0600E686505D087
:101F78007B0E686102D0200E685F6751010DF35037
:101F88006525D96EF4506621DA6E68C0DFFF672BCD
:101F9800A7D76451010D61C026F062C027F0F35045
:101FA8002626F450272224C0D9FF25C0DAFF26C0F0
:101FB800DEFF27C0DDFF20EE0BF06551D926665104
:101FC800DA22200E686501D002D0010E01D0000E81
:101FD800DF6E000E1200000E0001656F000E646FC8
:101FE800080EACEC19F029C060F02AC061F02BC0D3
:101FF80062F02CC063F0090ED89000016037613799
:1020080062376337E82EF8D760C01EF061C01FF052
:1020180062C020F063C021F0000E226E580E87ECDB
:1020280018F0AAEC1AF09DEC1AF00001686F6851DC
:10203800D8A4F9D77A0E0001616FC10E606F810EC6
:10204800E82EFED7602FFCD7612FFAD700D0080EF4
:10205800ACEC19F0FE0E09EC19F0000E0001676FE8
:10206800000E666F67BF04D0020E675DD8B023D03C
:1020780026C0F6FF27C0F7FF28C0F8FF0800F55074
:102088000009D8B411D026C0F6FF27C0F7FF28C032
:10209800F8FF0800F55009EC19F0010E2626000E8D
:1020A8002722000E282203D0000E09EC19F00001A7
:1020B800664B672BD7D7FF0E09EC19F0FF0E09EC1A
:1020C80019F0AAEC1AF03D0E0001616FE10E606F85
:1020D8003F0EE82EFED7602FFCD7612FFAD700D02D
:1020E800080EACEC19F0000E1E6E000E1F6E000EEE
:1020F800206E000E216E000E226E4D0E87EC18F039
:10210800AAEC1AF09DEC1AF00001686F6851D8A487
:10211800F9D7000E120028C060F029C061F02AC06B
:1021280062F02BC063F0060ED8900001603761376B
:1021380062376337E82EF8D7601F611F621F631F7D
:10214800602B000E612362236323000E60251A6E44
:102158006C0E61211B6EDC0E62211C6E020E632167
:102168001D6E28C064F029C065F02AC066F02BC037
:1021780067F0060ED8906437653766376737E82EFC
:10218800F9D764C01EF065C01FF066C020F067C0B4
:1021980021F0EDEC13F01AC02CF01BC02DF02D042B
:1021A800D8A045D028C060F029C061F02AC062F0EC
:1021B8002BC063F0040ED890000160376137623796
:1021C8006337E82EF8D7601F611F621F631F602BFB
:1021D800000E612362236323000E60251A6E6C0EC5
:1021E80061211B6EDC0E62211C6E020E63211D6EC6
:1021F80028C064F029C065F02AC066F02BC067F0DB
:10220800040ED8906437653766376737E82EF9D7F4
:1022180064C01EF065C01FF066C020F067C021F0E2
:10222800EDEC13F01AC02CF01BC02DF0AC842D047B
:10223800D8B012002CC0AFFFAC98AB8E948E948CA3
:10224800AB88AC8A1200000E286E010E286401D0FB
:102258001200000E276E070E276401D05DD02850AB
:1022680055EC18F02750020D010EF326000EF4224B
:10227800000E216E010E226EF3502126F450222208
:102288002850130DF3502124D96EF4502220DA6E11
:102298001AC0DEFF1BC0DDFF2750020D010EF3261A
:1022A800000EF422000E216E010E226EF35021263C
:1022B800F45022222850130DF3502124D96EF450E3
:1022C8002220DA6EDECF23F0DDCF24F02850130D64
:1022D800110EF326000EF422000EF324D96E010E1F
:1022E800F420DA6EDECF25F0DDCF26F02350252648
:1022F800245026222850130D110EF326000EF42226
:10230800000EF324D96E010EF420DA6E25C0DEFF2C
:1023180026C0DDFF272A9FD72850130D110EF3265C
:10232800000EF422000EF324D96E010EF420DA6EAA
:10233800DECF21F0DDCF22F0D89022322132D890A2
:1023480022322132D890223221322850130D110E18
:10235800F326000EF422000EF324D96E010EF420A9
:10236800DA6E21C0DEFF22C0DDFF282A6ED737C013
:102378006DF038C06EF02CC0D9FF2DC0DAFF000E0A
:10238800DE6E000EDD6E20EE04F02C50D9262D50A6
:10239800DA22DECF6FF0DECF70F0DECF71F0DECF65
:1023A80072F000016F05701171117211D8B410D05C
:1023B80020EE06F06D51D9266E51DA22DE506F5D9F
:1023C800DE507059DE507159DE507259D8A002D0D3
:1023D800010E12006F51701171117211D8A416D02C
:1023E8006DC0D9FF6EC0DAFF030EDE18D8A40ED078
:1023F80020EE0EF06D51D9266E51DA22DECF6FF045
:10240800DECF70F0DECF71F0DECF72F020EE08F094
:102418002C50D9262D50DA226FC0DEFF70C0DEFFA7
:1024280071C0DEFF72C0DEFF6F5170117111721141
:10243800D8A40FD020EE0EF06D51D9266E51DA22B5
:10244800DECF69F0DECF6AF0DECF6BF0DECF6CF066
:1024580012D06FC026F070C027F071C028F072C08B
:1024680029F0B7EC14F026C069F027C06AF028C03C
:102478006BF029C06CF020EE0CF02C50D9262D50B2
:10248800DA2269C0DEFF6AC0DEFF6BC0DEFF6CC007
:10249800DEFF000E12000600FACF07F0FBCF08F0AF
:1024A800E9CF09F0EACF0AF0E1CF0BF0E2CF0CF068
:1024B800D9CF0DF0DACF0EF0F3CF0FF0F4CF10F044
:1024C800F6CF11F0F7CF12F0F8CF13F0F5CF14F0E4
:1024D80046C015F047C016F048C017F049C018F0BC
:1024E8009DBA9EAA07D094EC1AF0406E9E9A40506E
:1024F800BBEC15F0F2B4F2A437D0F294010E3F6EA3
:10250800000E196E010E196401D019D01950020D70
:102518002E0EF324D96E000EF420DA6EDE50DE1093
:10252800D8B40BD01950020D2E0EF324D96E000E1C
:10253800F420DA6EDE06000EDD5A192AE3D73E04CF
:10254800D8A40CD00001D507D8A0D607D551D611EC
:10255800D8A404D0000EFA6E000EF96E000E026EBA
:10256800830E016E8BEC1AF0F2B2F2A801D0F2924F
:1025780018C049F017C048F016C047F015C046F01B
:1025880014C0F5FF13C0F8FF12C0F7FF11C0F6FF23
:1025980010C0F4FF0FC0F3FF0EC0DAFF0DC0D9FF63
:1025A8000CC0E2FF0BC0E1FF0AC0EAFF09C0E9FF67
:1025B80008C0FBFF07C0FAFF4692110003D00001D4
:1025C800B34BB42BB3C0F6FFB4C0F7FF0800F55007
:1025D800200AD8B4F4D7B3C0F6FFB4C0F7FF080098
:1025E800F5502F0AD8A403D00001B34BB42B000137
:1025F80020EE04F0AF51D926B051DA22DE6ADE6A45
:10260800DE6ADD6AB3C0F6FFB4C0F7FF200E08002B
:10261800F5600FD0AFC02CF0B0C02DF0BBEC11F0BE
:102628000001B56FB1C0D9FFB2C0DAFF000EDF6E8E
:102638004ED0AFC022F0B0C023F0B30E246E000E0F
:10264800256E4DEC0FF00001B56FB551D8A43FD001
:10265800AFC0A7F0B0C0A8F0B1C0A9F0B2C0AAF04E
:102668006DEC13F00001B56FB551D8A430D020EE51
:1026780002F0AF51D926B051DA2210EE0BF0DE503D
:10268800E126DD50E222E750D8A421D020EE0BF05D
:10269800B151D926B251DA22DFB803D0030EB56F93
:1026A80016D0B1C01AF0B2C01BF053EC14F0000100
:1026B80020EE04F0AF51D926B051DA221AC0DEFF5D
:1026C8001BC0DEFF1CC0DEFF1DC0DEFFB2D7B55148
:1026D8001200A7C02CF0A8C02DF0BBEC11F000012F
:1026E800AE6FAE51D8B402D0AE511200A9C060F09E
:1026F800AAC061F020EE0CF0A751D926A851DA2221
:10270800DECF62F0DECF63F0DECF64F0DECF65F0BF
:10271800A7C0D9FFA8C0DAFFDECFABF0DDCFACF0A1
:102728000F0EAB17000EAC17050ED890AB37AC37B1
:10273800E82EFBD7ABC066F0ACC067F0000E696F3F
:10274800200E686F3EEC09F00009D8B402D0010EE3
:1027580001D0000E0001AE6FAE51D8A437D0A9C089
:10276800D9FFAAC0DAFFDF50AD6FAD51D8A403D0AE
:10277800030EAE6F2BD020EE0BF0A951D926AA512B
:10278800DA22DFB618D0A9C01AF0AAC01BF020EED2
:1027980002F0A751D926A851DA22DECF1CF0DDCFEE
:1027A8001DF0000E1F6E0B0E1E6EB0EC17F01A50C7
:1027B8001B10D8B40BD0A7C096F0A8C097F040EC77
:1027C8000CF00001AE6FAE51D8B490D70001AE51F5
:1027D8001200000E236E21AE0AD0211E201E1F1EDD
:1027E8001E6C000E1F2220222122010E236E1DAE18
:1027F8000AD01D1E1C1E1B1E1A6C000E1B221C223A
:102808001D22010E231A000E246E000E256E000EE6
:10281800266E000E276E1E501F1020102110D8B4EF
:102828002AD0010E226E06D0D8901E361F362036CA
:102838002136222A21AEF8D7D890243625362636D6
:1028480027361E501A5C1F501B5820501C58215008
:102858001D58D8A009D01E501A5E1F501B5A205070
:102868001C5A21501D5A2480D890213220321F3200
:102878001E32222EE1D72350D8B408D0271E261E98
:10288800251E246C000E25222622272224C01AF099
:1028980025C01BF026C01CF027C01DF0120037C051
:1028A80026F038C027F0000E286E000E296E000EA4
:1028B8002A6E000E2B6E26C0D9FF27C0DAFF030E42
:1028C800DE18D8A425D020EE15F01A50D9261B50B2
:1028D800DA22DF501E6E1E50206E1F6A20EE14F0A2
:1028E8001A50D9261B50DA22DF50216E21501F12B0
:1028F800000E20121FC028F020C029F02A6A2B6A77
:10290800100ED890283629362A362B36E82EF9D7D5
:1029180020EE1BF01A50D9261B50DA22DF501E6E0B
:102928001E50206E1F6A20EE1AF01A50D9261B502E
:10293800DA22DF50216E21501F10226E2050236EA4
:10294800246A256A225028122350291224502A1258
:1029580025502B1228C01AF029C01BF02AC01CF0E1
:102968002BC01DF0120037C02AF038C02BF0020E21
:10297800265E000E275A285A295A20EE06F02A50B9
:10298800D9262B50DA22FE0EDE240001606FFF0EDE
:10299800DE20616FFF0EDE20626FFF0EDE20636FA8
:1029A8006051265C61512758625128586351295853
:1029B800D8A009D0000E266E000E276E000E286ED5
:1029C800000E296E120020EE12F02A50D9262B5044
:1029D800DA22DECF60F0DECF61F0DECF62F0DECF4C
:1029E80063F020EE02F02A50D9262B50DA22DF506D
:1029F800646F64511A6E1B6A1C6A1D6A26C01EF039
:102A080027C01FF028C020F029C021F0B5EC18F02D
:102A1800000160511A24266E61511B20276E6251F5
:102A28001C20286E63511D20296E1200000E000123
:102A3800D06F010ED06501D01200D051020DD10E19
:102A4800F324D96E000EF420DA6EDE50DE10D8B40E
:102A58003DD0D051020D2E0EF324D96E000EF42075
:102A6800DA6EDE50DE10D8A431D0010E3E6EFD0EB7
:102A7800D66FE80ED56FD051020DD10EF324D96E62
:102A8800000EF420DA6E01D80AD00500FA6EDE5086
:102A9800FD6EDE50FE6EF850FF6EFA501200000E0A
:102AA8003E6E0001D051020D550EF324D96E010E71
:102AB800F420DA6ED051020D2E0EF324E16E000ED2
:102AC800F420E26EDECFE6FFDDCFE5FFD02BB1D7F5
:102AD8009594959295909598959A959C959E8394A2
:102AE80083928390839E839C838A8388EA0E1D6EDB
:102AF800C30EE82EFED71D2EFCD700F08380FFEC16
:102B080019F08390FFEC19F04E0E1D6EEB0EE82EB7
:102B1800FED71D2EFCD700F08380FFEC19F08390C0
:102B2800FFEC19F04E0E1D6EEB0EE82EFED71D2E93
:102B3800FCD700F08380FFEC19F08390FFEC19F0CC
:102B4800839E839C838A83988380FFEC19F083900B
:102B5800FFEC19F0280E02EC16F0060E02EC16F047
:102B68000E0E02EC16F0010E02EC16F01200016EC9
:102B7800240E0118D8A409D0000E366E000E356E4A
:102B8800000E396E000E3A6E12003904D8A41AD01D
:102B98002C0E0118D8A40BD03A50010D260EF324A0
:102BA800D96E010EF420DA6E35C0DFFF3A2A000E26
:102BB8003524D96E020E3620DA6E01C0DFFF354AA1
:102BC800362A1200470E3218D8A411D0470E3318EF
:102BD800D8A40DD0410E3418D8A409D0010E396EEE
:102BE800000E326E000E336E000E346E120033C0CB
:102BF80032F034C033F001C034F012001C6E8394FC
:102C0800839283901CA802D0838801D083981CAA41
:102C180002D0838A01D0839A1CAC02D0838C01D065
:102C2800839C1CAE02D0838E01D0839E8380FFECF0
:102C380019F08390FFEC19F01CA002D0838801D012
:102C480083981CA202D0838A01D0839A1CA402D044
:102C5800838C01D0839C1CA602D0838E01D0839ED6
:102C68008380FFEC19F08390FFEC19F01C04D8B4B2
:102C780008D0020E1C18D8B404D0030E1C18D8A40F
:102C88001200FFEC19F01200000E226E000E236EE7
:102C9800000E246E000E256E1E501F1020102110ED
:102CA800D8B42AD0010E266E06D0D8901E361F360C
:102CB80020362136262A21AEF8D7D8902236233658
:102CC800243625361E501A5C1F501B5820501C589D
:102CD80021501D58D8A009D01E501A5E1F501B5AEB
:102CE80020501C5A21501D5A2280D890213220325F
:102CF8001F321E32262EE1D722C01AF023C01BF045
:102D080024C01CF025C01DF01200226EC69A3F0E8A
:102D1800C716000EC66E2240800BC6122150C7127D
:102D2800939805D0C78C15D0C78CC68812D0205070
:102D3800000AD8B4F7D7020AD8B4F6D7010AD8B42B
:102D4800F4D707D0938293880CD093820AD09392B9
:102D580008D02250040AD8B4F5D7010AD8B4F5D758
:102D6800F6D79380949EC68A010E1D6E010EE8EC7C
:102D780017F0A90E1D6E610E1E6EE0EC18F0010E24
:102D880002EC16F01200540EF66E610EF76E20EE8D
:102D980060F0100E0900F5CFDEFFE806FBE2430EF7
:102DA800F66E610EF76E20EE71F0100E0900F5CF89
:102DB800DEFFE806FBE2000E1D6E010EE8EC17F0E0
:102DC800600E1D6E000E1E6EE0EC18F0000E1D6EFB
:102DD800020EE8EC17F0710E1D6E000E1E6EE0EC90
:102DE80018F03D0E216EE10E206E400EE82EFED743
:102DF800202EFCD7212EFAD7010E02EC16F0120075
:102E0800000E296E000E286E000E2B6E000E2A6E24
:102E1800080EACEC19F0000E1E6E000E1F6E000EB0
:102E2800206E000E216E950E226E400E87EC18F073
:102E3800AAEC1AF02A4A2B2A2C04D8B408D02BBEA4
:102E4800F9D72B5004E10A0E2A5CD8A0F3D7000E5C
:102E58002B6E000E2A6E2C04D8A4DAD77A0E276EB1
:102E6800C10E266E820EE82EFED7262EFCD7272E00
:102E7800FAD71200980EF66E340EF76E000EF86E42
:102E880001EECDF010EE18F00900F5CFEEFFE55099
:102E9800E150FAE102EEADF012EE00F0EE6AE55014
:102EA800E150FCE1E250FAE102EE00F0800EEE6A39
:102EB800E806FDE101EE00F08E0EEE6AE806FDE19F
:102EC80000EED1F0080EEE6AE806FDE100EE2EF005
:102ED800180EEE6AE806FDE146904692000EF86E7E
:102EE800000150EF19F01C6E8394838283901CA814
:102EF80002D0838801D083981CAA02D0838A01D08B
:102F0800839A1CAC02D0838C01D0839C1CAE02D067
:102F1800838E01D0839E8380FFEC19F08390FFECB1
:102F280019F01CA002D0838801D083981CA202D07B
:102F3800838A01D0839A1CA402D0838C01D0839CFD
:102F48001CA602D0838E01D0839E8380FFEC19F0EB
:102F58008390FFEC19F012001AC023F01BC024F074
:102F68001CC025F01DC026F0000E286E000E276E2E
:102F78001E06D8A01F061E2803E11F28D8B41FD09C
:102F880025C0D9FF26C0DAFF254A262ADF50206E41
:102F9800216A201E211E204A212A23C0D9FF24C0CD
:102FA800DAFF234A242ADF50226E22502024276E7B
:102FB800000E2120286E27502810D8B4D9D727C052
:102FC8001AF028C01BF012001E6E000E1F6E110EA4
:102FD8001D602FD01ED01DC01FF01F5020EC18F010
:102FE80026D01D50400F1F6E1F5020EC18F01FD028
:102FF8001D50140F1F6E1F5020EC18F018D01D50D4
:10300800540F1F6E1F5020EC18F011D0000E1F6EC9
:103018000ED01E50010AD8B4DED7030AD8B4E1D7BF
:10302800010AD8B4E5D7070AD8B4E9D7EFD71D2ADB
:103038001200000E1F6E12001C6E83948392839000
:10304800838E1CA802D0838801D083981CAA02D042
:10305800838A01D0839A1CAC02D0838C01D0839CD4
:103068008380FFEC19F08390FFEC19F01CA002D0CC
:10307800838801D083981CA202D0838A01D0839AC6
:103088001CA402D0838C01D0839C1CA602D0838E02
:1030980001D0839E8380FFEC19F08390FFEC19F038
:1030A8001200206E09D0010E05D0050E03D0090EBE
:1030B80001D00D0EC26E0DD02050000AD8B4F3D73F
:1030C800010AD8B4F2D7030AD8B4F1D7010AD8B4A0
:1030D800F0D7C282C2B2FED7C3CF1CF0060E1D6E57
:1030E800D8901C321D2EFCD71C50C4CF1EF01F6A6E
:1030F800D8901E361F36D8901E361F361E101A6EF0
:103108001F501B6E1200246E8AA602D0010E01D039
:10311800000EFF0A236E2346234623468A502318AF
:10312800F70B23188A6E21C025F0FF0E09EC19F061
:10313800245009EC19F0255009EC19F020C025F0AD
:10314800255009EC19F01FC025F0255009EC19F09D
:103158001EC025F0255009EC19F0225009EC19F091
:103168001200000E226E000E236E000E246E000E5A
:10317800256E1AA008D01E5022261F502322205048
:10318800242221502522D8901E361F36203621367B
:10319800D8901D321C321B321A321A501B101C10C8
:1031A8001D10D8A4E6D722C01AF023C01BF024C0F3
:1031B8001CF025C01DF0120014D01DC0F6FF1EC063
:1031C800F7FFF86A070EF76403D00800F55005D03A
:1031D800F6CFE9FFF7CFEAFFEF5077EC17F01D4A7B
:1031E8001E2A1DC0F6FF1EC0F7FFF86A070EF76417
:1031F80003D00800F55005D0F6CFE9FFF7CFEAFF76
:10320800EF500009D8B41200D8D71D6EC9CF1CF0F2
:103218009E96C69EC790000EC96E040E1B6E0C0EBD
:103228001A6E340EE82EFED71A2EFCD71B2EFAD7AC
:103238001DC0C9FFC6BE12009EA6FED73D0E1B6E5E
:10324800E10E1A6E400EE82EFED71A2EFCD71B2E62
:10325800FAD712001B6E000E1A6EF29E18D01BBE13
:1032680002D08A9E01D08A8E1B501B241B6E780EBA
:10327800E82EFED78A8C780EE82EFED78A9E780E26
:10328800E82EFED78A9C780EE82EFED71A2A070E5B
:103298001A64E5D7F28E120064EC1AF011EC1AF0F9
:1032A8006CEC15F0BFEC1AF0C7EC16F08FEC19F0C7
:1032B800030E206E010E216E000E89EC16F03F04FD
:1032C800D8A404D0000E3F6E1AEC15F071EC19F07A
:1032D800B0EC1AF027EC11F0F2D7000E82B0010E14
:1032E80001014E6F000E82B2010E4F6F000E82B4C4
:1032F800010E506F000E80B4010E516F000E80BA9F
:10330800010E526F000E84B0010E536F000E84B28E
:10331800010E546F1200DA0E0001D16F330ED26F16
:103328003C0ED36F1A0ED46F030E0101566FE80ED0
:10333800556F070E586FD00E576F030E2F6EE80E9D
:103348002E6E070E316ED00E306E000E3E6E1200DD
:10335800206E000E226E000E216E07D08A98FF0E96
:1033680009EC19F08A88214A222A20501E6E1F6A09
:103378001E50215C1F502258D8B01200EFD71AC037
:1033880020F01BC021F008D020C0D9FF21C0DAFFEF
:103398001CC0DFFF204A212A1E06D8A01F061E28AF
:1033A800F3E11F28D8B41200EFD79E96C9CF1CF0BE
:1033B800000EC96E040E1B6E0C0E1A6E340EE82E2B
:1033C800FED71A2EFCD71B2EFAD79EA6FED7C950B9
:1033D80012003D50D8A402D0010E01D0000E3D6E5F
:1033E8003D50D8A404D0000E31EC1AF01200000EA3
:1033F80022EC1AF01200000E1A6E630E1A6401D045
:10340800120000F0000E1B6E310E1B6401D003D0B9
:1034180000F01B2AF9D71A2AF0D7949C949E800EA4
:10342800286E250E296E000E2A6E000E2B6E8FEC6C
:1034380010F0200EAC6E900EAB6E12001C6E1CC00D
:103448001AF0010E1B6E1A2A02D0D8901B361A2EBB
:10345800FCD71B50FF0A451612001C6E1CC01AF040
:10346800010E1B6E1A2A02D0D8901B361A2EFCD7D2
:103478001B5045121200C30ED56E000E656E000E6D
:10348800636E000E1B6E830E1A6E82EC1AF0120029
:10349800636865636B2E7478740030303030303078
:1034A8000030303030303000010E936E8A68000EE4
:1034B800956E070E926E110E946E030E966E1200A4
:1034C800BBEC1AF058EC1AF03FEC1AF0A4EC1AF026
:1034D80079EC1AF012008A9A780EE82EFED78A8ABA
:1034E800F00EE82EFED78A9A1200F00EF26E000E49
:1034F800F16E000EF06E200E9D6E12001AC01CF0C8
:103508001BC01DF01DC0D7FF1CC0D6FF120001C094
:1035180003F002C004F004C0D7FF03C0D6FF1200B6
:103528009EAAFED7ABA203D0AB9800F0AB88AE50F2
:1035380012008A88D9EC19F01D6E8A981D50120065
:10354800040ECA6E000ECC6ECB6812008A88FF0E7D
:1035580009EC19F08A98120045502EEC19F06FEC1E
:103568001AF012001AC0D7F01BC0D8F01200D38886
:0E357800D38AD38C12008A9A8A9C8A9E1200F3
:10604C0000809A90418E418F804545454949498E43
:10605C008F9092924F994F555559999A9B9C9D9E12
:10606C009F41494F55A5A5A6A7A8A9AAABAC21AE9F
:10607C00AFB0B1B2B3B4B5B6B7B8B9BABBBCBDBEAC
:10608C00BFC0C1C2C3C4C5C6C7C8C9CACBCCCDCE9C
:10609C00CFD0D1D2D3D4D5D6D7D8D9DADBDCDDDE8C
:1060AC00DFE0E1E2E3E4E5E6E7E8E9EAEBECEDEE7C
:1060BC00EFF0F1F2F3F4F5F6F7F8F9FAFBFCFDFE6C
:1060CC00FF010000000A00000064000000E803006B
:1060DC000010270000A086010040420F0080969817
:1060EC000000E1F50500CA9A3B00803F002041000A
:1060FC00C842007A44401C4650C347247449971840
:10610C004BBCBE4C6B6E4E03155079AD60F34971B0
:10611C0000803FCDCC3DD7233C12833AB7D138C653
:10612C002737388635C0D633CC2B32708930E7DB35
:10613C002EE53C1E42A20D2031382F30312F32304B
:10614C003232202020000000534443617264204905
:10615C006E69742020200000002049676E204F6E6D
:10616C00000000000000000000002049676E204382
:10617C0072616E6B000000000000002049676E2009
:10618C004F66660000000000000000007379737415
:10619C0020696E696369616C697A65640053504962
:1061AC0020636F6E6669677572616461210061625C
:1061BC00726972206F206172717569766F006D6FF4
:1061CC00756E742066696C65207379730045727204
:1061DC006F2074656E74616E646F00417474656DCC
:1061EC007074696E6720746F006C6572206F20612B
:1061FC0072717569766F006C656E646F2061727177
:10620C007569766F00427974657320637269616495
:10621C006F210043617274E36F2041636569746F91
:10622C0000534443617264206572726F7200426C59
:10623C006F636F2064652035313200636865636B72
:10624C002E7478740025643A25643A2564004572EE
:10625C00726F722121210053445F436172640049C3
:10626C006E6974204F4B00252E303566000D0A00E8
:04627C002E2E0000C2
:020000040020DA
:08000000FFFFFFFFFFFFFFFF00
:020000040030CA
:0E000000040C1F1EFF8081FF0FC00FE00F4099
:00000001FF
