:0400000007EF00F016
:100008004A82C7ED23F088EF27F0A7C0D9FFA8C020
:10001800DAFFDECFD0F0DDCFD1F003D00001D04B36
:10002800D12BD0C0F6FFD1C0F7FF0800F550200A49
:10003800D8B4F4D7D0C0F6FFD1C0F7FF0800F55008
:100048002F0AD8A403D00001D04BD12BA7C0D9FFC9
:10005800A8C0DAFFD0C0DEFFD1C0DDFF35C0D8F0C0
:1000680036C0D9F00001D8510001D911D8A402D066
:100078000A0E1200000120EE24F0D851D926D951D9
:10008800DA22DF50D8B412D0000E0001D26F00017E
:10009800D2B10CD00001A9510001D8B405D000019B
:1000A800D2A502D0090E1200000E1200D8C016F018
:1000B800D9C017F0000E196E000E186E020E1B6ED6
:1000C800280E1A6E02EC2BF0000ED5EC29F0000178
:1000D800D26F0001D2A102D0010E12000001A95175
:1000E8000001D8B405D00001D2A502D0090E120033
:1000F800000E0001CC6F000ECD6F000ECE6F000E0B
:10010800CF6FCCC08EF0CDC08FF0CEC090F0CFC0F6
:1001180091F089EC14F00001D76F000E196E010EF2
:10012800FAEC27F08C0E196E600E1A6E41EC29F06D
:10013800000E196E020EFAEC27F0790E196E600E99
:100148001A6E41EC29F00C0E196E010EFAEC27F02C
:10015800D7C02EF02F6A95EC2AF07A0E0001AB6F0B
:10016800C10E0001AA6F810EE82EFED7AA2FFCD778
:10017800AB2FFAD700D00001D705D8A4D8D00001FA
:1001880021EEEAF0D851D926D951DA22DF50D8B475
:10019800CED0EF0E0001D825D96E010E0001D9216D
:1001A800DA6EDF500001AA6F0001AA510001AC6F9E
:1001B800AB6BF00E0001D825D96E010E0001D921D4
:1001C800DA6EDF500001AD6FADC0AEF00001AF6B6D
:1001D800B06BB16BAFC0B1F0AEC0B0F00001AF6BA7
:1001E800AE6BF10E0001D825D96E010E0001D921A0
:1001F800DA6EDF500001B26FB2C0B3F00001B46B29
:10020800B56BB66BB3C0B6F00001B56BB46BB36B2E
:100218000001AE510001B3110001B76F0001AF51E9
:100228000001B4110001B86F0001B0510001B5110F
:100238000001B96F0001B1510001B6110001BA6F98
:100248000001AB510001B7110001BB6F0001AC51B7
:100258000001B8110001BC6F000E0001B9110001C6
:10026800BD6F000E0001BA110001BE6FEE0E000155
:10027800D825D96E010E0001D921DA6EDF500001B0
:10028800BF6F0001BF510001BB110001CC6F00011D
:10029800BC510001CD6F0001BD510001CE6F0001BE
:1002A800BE510001CF6FCCC08EF0CDC08FF0CEC054
:1002B80090F0CFC091F089EC14F00001D76F000ED8
:1002C8000001CC6F000ECD6F000ECE6F000ECF6F09
:1002D800CCC08EF0CDC08FF0CEC090F0CFC091F0E2
:1002E80089EC14F00001D76F000E196E020EFAECBB
:1002F80027F09F0E196E600E1A6E41EC29F00C0E55
:10030800196E020EFAEC27F0D7C02EF02F6A95EC82
:100318002AF03D0E0001AB6FE10E0001AA6F3F0EFF
:10032800E82EFED7AA2FFCD7AB2FFAD700D00001B2
:10033800D7510001D8A428D0340E0001D825D96E91
:10034800000E0001D921DA6EDF500001AA6F00010A
:10035800AA510001AC6FAB6B330E0001D825D96EE2
:10036800000E0001D921DA6EDF500001AD6F0001E7
:10037800AD510001AB13000EAC13020E0001AC1915
:100388000001AB11D8B402D00B0E12003F0E0001D1
:10039800D825D96E000E0001D921DA6EDF50000190
:1003A800AA6F0001AA510001AC6FAB6B3E0E0001B1
:1003B800D825D96E000E0001D921DA6EDF50000170
:1003C800AD6F0001AD510001AB13000EAC13ABC013
:1003D800D3F0ACC0D4F00001D56BD66B0001D3517B
:1003E8000001D4110001D5110001D611D8A48AD07A
:1003F8004D0E0001D825D96E000E0001D921DA6E04
:10040800DF500001AA6F0001AA510001AC6FAB6B6D
:100418004E0E0001D825D96E000E0001D921DA6EE2
:10042800DF500001AD6FADC0AEF00001AF6BB06B37
:10043800B16BAFC0B1F0AEC0B0F00001AF6BAE6B46
:100448004F0E0001D825D96E000E0001D921DA6EB1
:10045800DF500001B26FB2C0B3F00001B46BB56BEE
:10046800B66BB3C0B6F00001B56BB46BB36B0001EB
:10047800AE510001B3110001B76F0001AF51000187
:10048800B4110001B86F0001B0510001B5110001AD
:10049800B96F0001B1510001B6110001BA6F000136
:1004A800AB510001B7110001BB6F0001AC51000155
:1004B800B8110001BC6F000E0001B9110001BD6F39
:1004C800000E0001BA110001BE6F4C0E0001D825C4
:1004D800D96E000E0001D921DA6EDF500001BF6F1E
:1004E8000001BF510001BB110001D36F0001BC51D5
:1004F8000001D46F0001BD510001D56F0001BE514C
:100508000001D66F000120EE14F0D851D926D95138
:10051800DA22D3C0DEFFD4C0DEFFD5C0DEFFD6C0EE
:10052800DEFF000120EE38F0D851D926D951DA2261
:10053800000110EE26F0D851E126D951E222DFCF92
:10054800E7FFD3C016F0D4C017F0D5C018F0D6C056
:1005580019F0000120EE26F0D851D926D951DA2217
:10056800DF500001AA6F0001AA511A6E1B6A1C6AAB
:100578001D6AC4EC28F016C0D3F017C0D4F018C018
:10058800D5F019C0D6F0370E0001D825D96E000E67
:100598000001D921DA6EDF500001AA6F0001AA51CB
:1005A8000001AC6FAB6B360E0001D825D96E000E7A
:1005B8000001D921DA6EDF500001AD6F0001AD51A5
:1005C8000001AB13000EAC130001AB510001CC25A8
:1005D8000001AE6F0001AC510001CD210001AF6FE9
:1005E800000E0001CE210001B06F000E0001CF21E6
:1005F8000001B16F000120EE08F0D851D926D95179
:10060800DA22AEC0DEFFAFC0DEFFB0C0DEFFB1C091
:10061800DEFF000120EE35F0D851D926D951DA2273
:10062800000110EE25F0D851E126D951E222DFCFA2
:10063800E7FF3A0E0001D825D96E000E0001D92136
:10064800DA6EDF500001AA6F0001AA510001AC6FF9
:10065800AB6B390E0001D825D96E000E0001D921E7
:10066800DA6EDF500001AD6F0001AD510001AB1330
:10067800000EAC13000120EE02F0D851D926D95152
:10068800DA22ABC0DEFFACC0DDFF3C0E0001D8258E
:10069800D96E000E0001D921DA6EDF500001AA6F71
:1006A8000001AA510001AC6FAB6B3B0E0001D825CD
:1006B800D96E000E0001D921DA6EDF500001AD6F4E
:1006C8000001AD510001AB13000EAC13ABC0C8F074
:1006D800ACC0C9F00001CA6BCB6B0001C851000166
:1006E800C9110001CA110001CB11D8A48AD0490E42
:1006F8000001D825D96E000E0001D921DA6EDF502D
:100708000001AA6F0001AA510001AC6FAB6B4A0E41
:100718000001D825D96E000E0001D921DA6EDF500C
:100728000001AD6FADC0AEF00001AF6BB06BB16B47
:10073800AFC0B1F0AEC0B0F00001AF6BAE6B4B0E06
:100748000001D825D96E000E0001D921DA6EDF50DC
:100758000001B26FB2C0B3F00001B46BB56BB66BF9
:10076800B3C0B6F00001B56BB46BB36B0001AE510A
:100778000001B3110001B76F0001AF510001B411BE
:100788000001B86F0001B0510001B5110001B96F47
:100798000001B1510001B6110001BA6F0001AB515F
:1007A8000001B7110001BB6F0001AC510001B81185
:1007B8000001BC6F000E0001B9110001BD6F000EF1
:1007C8000001BA110001BE6F480E0001D825D96E8C
:1007D800000E0001D921DA6EDF500001BF6F000161
:1007E800BF510001BB110001C86F0001BC510001DD
:1007F800C96F0001BD510001CA6F0001BE5100015F
:10080800CB6F000120EE02F0D851D926D951DA2257
:10081800DECFAAF0DDCFABF0040E0001AC6F000113
:10082800D890AB33AA330001AC2FF9D7370E0001AB
:10083800D825D96E000E0001D921DA6EDF500001EB
:10084800AD6F0001AD510001AF6FAE6B360E000108
:10085800D825D96E000E0001D921DA6EDF500001CB
:10086800B06F0001B0510001AE13000EAF130001CC
:10087800AE510001AA250001B16F0001AF5100017E
:10088800AB210001B26F0001B36BD8B0B32B0001EC
:10089800B46B0001D3510001B1250001B56F00010F
:1008A800D4510001B2210001B66F0001D5510001F9
:1008B800B3210001B76F0001D6510001B421000136
:1008C800B86F0001B51FB61FB71FB81FB52B000EB4
:1008D800B623B723B8230001C8510001B525166E09
:1008E8000001C9510001B621176E0001CA5100016B
:1008F800B721186E0001CB510001B821196E000113
:1009080020EE25F0D851D926D951DA22DF5000013E
:10091800B96F0001B9511A6E1B6A1C6A1D6A0AEC8C
:1009280027F0020E16240001C46F000E17200001E4
:10093800C56F000E18200001C66F000E19200001B7
:10094800C76F000120EE18F0D851D926D951DA2204
:10095800C4C0DEFFC5C0DEFFC6C0DEFFC7C0DEFF05
:10096800010E0001D76F0001C7510001C61108E14F
:10097800F70E0001C45D0F0E0001C559D8A003D0C1
:10098800020E0001D76F0001C7510001C61108E12E
:10099800F70E0001C45DFF0E0001C559D8A003D0B1
:1009A800030E0001D76F030E0001D719D8A49AD0FF
:1009B800550E0001D825D96E000E0001D921DA6E36
:1009C800DF500001AA6F0001AA510001AC6FAB6BA8
:1009D800560E0001D825D96E000E0001D921DA6E15
:1009E800DF500001AD6FADC0AEF00001AF6BB06B72
:1009F800B16BAFC0B1F0AEC0B0F00001AF6BAE6B81
:100A0800570E0001D825D96E000E0001D921DA6EE3
:100A1800DF500001B26FB2C0B3F00001B46BB56B28
:100A2800B66BB3C0B6F00001B56BB46BB36B000125
:100A3800AE510001B3110001B76F0001AF510001C1
:100A4800B4110001B86F0001B0510001B5110001E7
:100A5800B96F0001B1510001B6110001BA6F000170
:100A6800AB510001B7110001BB6F0001AC5100018F
:100A7800B8110001BC6F000E0001B9110001BD6F73
:100A8800000E0001BA110001BE6F540E0001D825F6
:100A9800D96E000E0001D921DA6EDF500001BF6F58
:100AA8000001BF510001BB110001C06F0001BC5122
:100AB8000001C16F0001BD510001C26F0001BE51AC
:100AC8000001C36F000120EE0CF0D851D926D9518E
:100AD800DA22C0C0DEFFC1C0DEFFC2C0DEFFC3C075
:100AE800DEFF36D0000120EE08F0D851D926D951C2
:100AF800DA22DECFAAF0DECFABF0DECFACF0DECF6D
:100B0800ADF00001D3510001AA250001AE6F00012C
:100B1800D4510001AB210001AF6F0001D551000194
:100B2800AC210001B06F0001D6510001AD210001D8
:100B3800B16F000120EE0CF0D851D926D951DA2234
:100B4800AEC0DEFFAFC0DEFFB0C0DEFFB1C0DEFF6B
:100B5800000120EE08F0D851D926D951DA22DECF8B
:100B6800AAF0DECFABF0DECFACF0DECFADF0000107
:100B780020EE02F0D851D926D951DA22DECFAEF0D4
:100B8800DDCFAFF0040E0001B06F0001D890AF3395
:100B9800AE330001B02FF9D70001AE510001AA25EC
:100BA8000001B16F0001AF510001AB210001B26F2C
:100BB800000E0001AC210001B36F000E0001AD2151
:100BC8000001B46F0001D3510001B1250001B56FD8
:100BD8000001D4510001B2210001B66F0001D551C6
:100BE8000001B3210001B76F0001D6510001B42103
:100BF8000001B86F000120EE10F0D851D926D95164
:100C0800DA22B5C0DEFFB6C0DEFFB7C0DEFFB8C06F
:100C1800DEFF000120EE20F0D851D926D951DA2282
:100C2800FF0EDE6EFF0EDE6EFF0EDE6EFF0EDD6E59
:100C3800000120EE24F0D851D926D951DA22D7C0A4
:100C4800DFFF0101604B612BD8C0D9FFD9C0DAFFA3
:100C580060C1DEFF61C1DDFF000E1200010120EE60
:100C680004F09251D9269351DA22000EDE6E000E5E
:100C7800DD6E1F0E01019617940E0001A76F010E7D
:100C88000001A86F010196511E0B0001A96F09EC24
:100C980000F00101C56F0101C5510101D8B403D0AD
:100CA8000101C5511200C60E0001EE6F010E0001D0
:100CB800EF6FB10E0001F06F010E0001F16F94C1EA
:100CC800F2F095C1F3F0D80E0001F46F010E0001A7
:100CD800F56F68EC12F00101C56F96C197F11C0E13
:100CE80001019717D8B4C5D10101C5510101D8B484
:100CF80048D0020E0101C519D8B403D00101C5516D
:100D08001200C60E0001F96F010E0001FA6FD80E2D
:100D18000001FB6F010E0001FC6F0CEC1AF00101E1
:100D2800C56F0101C5510101D8B403D00101C551F6
:100D38001200D8C116F0D9C117F0000E196E000EB6
:100D4800186E000E1B6E200E1A6E02EC2BF0D8C126
:100D580016F0D9C117F0B10E186E010E196E000EFB
:100D68001B6E0B0E1A6E38EC2AF0010120EE0CF007
:100D7800D851D926D951DA22BCC1DFFF01019687A3
:100D88002DD1010196A502D0070E12000101D851FC
:100D98000101D911D8B40FD0010120EE0BF0D851C0
:100DA800D926D951DA22DF500101976F110E0101BE
:100DB8009717D8B402D0060E1200010196A70ED1DB
:100DC8001B0E0101D825D96E000E0101D921DA6E5A
:100DD800DF500101976F010197510101996F986BDD
:100DE8001A0E0101D825D96E000E0101D921DA6E3B
:100DF800DF5001019A6F01019A5101019813000E09
:100E08009913150E0101D825D96E000E0101D921BB
:100E1800DA6EDF5001019B6F01019B5101019D6F4B
:100E28009C6B140E0101D825D96E000E0101D92141
:100E3800DA6EDF5001019E6F01019E5101019C1184
:100E480001019F6F01019D510101A06F0101A16B7B
:100E58000101A26BA0C1A2F19FC1A1F10101A06B88
:100E68009F6B0101985101019F110101BD6F0101A3
:100E780099510101A0110101BE6F000E0101A111DC
:100E88000101BF6F000E0101A2110101C06F140E14
:100E98000101D825D96E000E0101D921DA6E000EA4
:100EA800DF6E150E0101D825D96E000E0101D9217A
:100EB800DA6E000EDF6E1A0E0101D825D96E000E0B
:100EC8000101D921DA6E000EDF6E1B0E0101D82553
:100ED800D96E000E0101D921DA6E000EDF6E1C0EEC
:100EE8000101D825D96E000E0101D921DA6E000E54
:100EF800DF6E1D0E0101D825D96E000E0101D92122
:100F0800DA6E000EDF6E1E0E0101D825D96E000EB6
:100F18000101D921DA6E000EDF6E1F0E0101D825FE
:100F2800D96E000E0101D921DA6E000EDF6E0101C3
:100F380020EE27F0CA51D926CB51DA22010EDF6EF6
:100F4800010120EE04F0CA51D926CB51DA22DECFB6
:100F5800C1F1DECFC2F1DECFC3F1DECFC4F1BDC136
:100F6800DFF0BEC1E0F0BFC1E1F0C0C1E2F045EC86
:100F780023F00009D8B40DD0C1C18EF0C2C18FF0E2
:100F8800C3C190F0C4C191F028EC1DF00009D8A4A9
:100F980002D0080E1200FF0E0101BD250101976F56
:100FA800FF0E0101BE210101986FFF0E0101BF2153
:100FB8000101996FFF0E0101C02101019A6F010122
:100FC80020EE1CF0CA51D926CB51DA2297C1DEFF98
:100FD80098C1DEFF99C1DEFF9AC1DEFF010196A725
:100FE80071D0010120EE0BF0D851D926D951DA225F
:100FF800000EDF6E15EC21F016C0C1F117C0C2F16A
:1010080018C0C3F119C0C4F10E0E0101D825D96E5C
:10101800000E0101D921DA6EC1C1DFFF0F0E0101F7
:10102800D825D96E000E0101D921DA6E0101C2510D
:10103800DF6E100E0101D825D96E000E0101D921ED
:10104800DA6EC3C1DFFF110E0101D825D96E000E7B
:101058000101D921DA6EC4C1DFFF010120EE27F0BA
:10106800CA51D926CB51DA22010EDF6E0101968BC7
:1010780029D00101C5510101D8B403D00101C551DE
:1010880012000101D8510101D911D8B40AD00101C7
:1010980020EE0BF0D851D926D951DA220101DFA868
:1010A80002D0020E1200010196A30CD0010120EE1D
:1010B8000BF0D851D926D951DA220101DFA002D08C
:1010C800060E1200010120EE04F0CA51D926CB51B8
:1010D800DA22010110EE1AF09251E1269351E22230
:1010E800DECFE6FFDECFE6FFDECFE6FFDECFE6FFB0
:1010F800010120EE1EF09251D9269351DA22D8C16F
:10110800DEFFD9C1DDFF010120EE02F09251D926A0
:101118009351DA2296C1DFFF1B0E0101D825D96E43
:10112800000E0101D921DA6EDF500101976F01012C
:1011380097510101996F986B1A0E0101D825D96E44
:10114800000E0101D921DA6EDF5001019A6F010109
:101158009A5101019813000E9913150E0101D82513
:10116800D96E000E0101D921DA6EDF5001019B6FA3
:1011780001019B5101019D6F9C6B140E0101D82543
:10118800D96E000E0101D921DA6EDF5001019E6F80
:1011980001019E5101019C1101019F6F01019D51A7
:1011A8000101A06F0101A16B0101A26BA0C1A2F115
:1011B8009FC1A1F10101A06B9F6B01019851010131
:1011C8009F110101A36F010199510101A0110101B2
:1011D800A46F000E0101A1110101A56F000E01010C
:1011E800A2110101A66F010120EE0EF09251D9263D
:1011F8009351DA22A3C1DEFFA4C1DEFFA5C1DEFF41
:10120800A6C1DEFF1D0E0101D825D96E000E010111
:10121800D921DA6EDF500101976F01019751010161
:10122800996F986B1E0E0101D825D96E000E010129
:10123800D921DA6EDF5001019A6F9AC19BF1010141
:101248009C6B9D6B9E6B9CC19EF19BC19DF10101A6
:101258009C6B9B6B1F0E0101D825D96E000E0101F6
:10126800D921DA6EDF5001019F6F9FC1A0F1010102
:10127800A16BA26BA36BA0C1A3F10101A26BA16B2F
:10128800A06B01019B510101A0110101A46F010193
:101298009C510101A1110101A56F01019D5101019D
:1012A800A2110101A66F01019E510101A3110101C3
:1012B800A76F010198510101A4110101A86F010153
:1012C80099510101A5110101A96F000E0101A61193
:1012D8000101AA6F000E0101A7110101AB6F1C0EDD
:1012E8000101D825D96E000E0101D921DA6EDF502F
:1012F8000101AC6F0101AC510101A8110101AD6FF1
:101308000101A9510101AE6F0101AA510101AF6F9D
:101318000101AB510101B06F010120EE0AF09251B9
:10132800D9269351DA22ADC1DEFFAEC1DEFFAFC1CF
:10133800DEFFB0C1DEFF010120EE06F09251D92692
:101348009351DA22DE6ADE6ADE6ADD6A010120EE86
:1013580003F09251D9269351DA22FF0EDF6E010174
:1013680020EE04F09251D9269351DA22CAC1DEFF49
:10137800CBC1DDFFCAC1D9FFCBC1DAFF92C1E1FF02
:1013880093C1E2FFDECFE6FFDDCFE5FF000E1200DE
:1013980035C0DDF036C0DEF00001A8510001A7110C
:1013A8000001A61105E1020E0001A55DD8A002D337
:1013B800000120EE18F0DD51D926DE51DA22DE5088
:1013C8000001A55DDE500001A659DE500001A759B5
:1013D800DE500001A859D8B0EDD2000120EE08F087
:1013E800DD51D926DE51DA22DECFD7F0DECFD8F0B4
:1013F800DECFD9F0DECFDAF0CCD2A5C016F0A6C089
:1014080017F0000E196E030E186E2CEC2BF0D89006
:1014180017300001A96F16300001DB6FA9C0DCF09E
:10142800DBC0A9F0DCC0AAF0090E0001AB6F000117
:10143800D890AA33A9330001AB2FF9D70001A951DD
:101448000001D72500018E6F0001AA510001D821A3
:1014580000018F6F000E0001D9210001906F000E6E
:101468000001DA210001916F28EC1DF00009D8B4C1
:10147800A1D2FF0E0001A96F010E0001AA6FDBC007
:10148800ABF0DCC0ACF00001A9510001AB170001C2
:10149800AA510001AC17280E0001AB27000EAC239F
:1014A8000001AB510001DD25D96E0001AC510001EE
:1014B800DE21DA6EDF500001AD6F0001AD51000191
:1014C800D56FD66B0001DB4BDC2BDBC0A9F0DCC091
:1014D800AAF0090E0001AB6F0001D890AA33A93316
:1014E8000001AB2FF9D70001A9510001D725000150
:1014F8008E6F0001AA510001D82100018F6F000EE4
:101508000001D9210001906F000E0001DA210001CD
:10151800916F28EC1DF00009D8B44CD2FF0E0001E1
:10152800A96F010E0001AA6FDBC0ABF0DCC0ACF004
:101538000001A9510001AB170001AA510001AC1725
:10154800280E0001AB27000EAC230001AB510001AF
:10155800DD25D96E0001AC510001DE21DA6EDF50C5
:101568000001AD6F0001AD510001AF6FAE6B00011E
:10157800AE510001D5130001AF510001D61300018F
:10158800A5B10BD0FF0E0001D5150001D36F0F0ECA
:101598000001D6150001D46F12D0D5C0A9F0D6C06D
:1015A800AAF0040E0001AB6F0001D890AA33A9334A
:1015B8000001AB2FF9D7A9C0D3F0AAC0D4F0D3C08B
:1015C800A5F0D4C0A6F00001A76BA86B1200A5C0B7
:1015D800A9F0A6C0AAF0A7C0ABF0A8C0ACF0AAC0FA
:1015E800A9F0ABC0AAF0ACC0ABF00001AC6B000135
:1015F800D7510001A92500018E6F0001D8510001C3
:10160800AA2100018F6F0001D9510001AB2100010F
:10161800906F0001DA510001AC210001916F28ECB4
:101628001DF00009D8B4C6D1FF0E0001A96F010E44
:101638000001AA6FA5C0ABF0A6C0ACF0D89000011D
:10164800AB37AC370001A9510001AB170001AA5113
:101658000001AC17290E0001AB27000EAC230001D6
:10166800AB510001DD25D96E0001AC510001DE212E
:10167800DA6EDF500001AD6F0001AD510001AF6FB0
:10168800AE6BFF0E0001B06F010E0001B16FA5C077
:10169800B2F0A6C0B3F0D8900001B237B33700015A
:1016A800B0510001B2170001B1510001B317280E63
:1016B8000001B227000EB3230001B2510001DD255D
:1016C800D96E0001B3510001DE21DA6EDF5000014E
:1016D800B46F0001B4510001AE13000EAF13AEC0D9
:1016E800A5F0AFC0A6F00001A76BA86B1200A5C0BB
:1016F800A9F0A6C0AAF0A7C0ABF0A8C0ACF0080E2D
:1017080006D00001D890AC33AB33AA33A933E82E06
:10171800F8D70001D7510001A92500018E6F0001FB
:10172800D8510001AA2100018F6F0001D951000191
:10173800AB210001906F0001DA510001AC210001DA
:10174800916F28EC1DF00009D8B434D1FF0E0001C8
:10175800A96F010E0001AA6FA5C0ABF0A6C0ACF03E
:101768000001D890AB37AC370001D890AB37AC3715
:101778000001A9510001AB170001AA510001AC17E3
:10178800290E0001AB27000EAC230001AB5100016C
:10179800DD25D96E0001AC510001DE21DA6EDF5083
:1017A8000001AD6F0001AD510001AF6FAE6BFF0ED0
:1017B8000001B06F010E0001B16FA5C0B2F0A6C064
:1017C800B3F00001D890B237B3370001D890B237E0
:1017D800B3370001B0510001B2170001B151000147
:1017E800B3172A0E0001B227000EB3230001B2512D
:1017F8000001DD25D96E0001B3510001DE21DA6E4A
:10180800DF500001B46FB4C0B5F00001B66BB76B20
:10181800B86BB6C0B8F0B5C0B7F00001B66BB56B21
:10182800FF0E0001B96F010E0001BA6FA5C0BBF031
:10183800A6C0BCF00001D890BB37BC370001D890D7
:10184800BB37BC370001B9510001BB170001BA51C1
:101858000001BC172B0E0001BB27000EBC230001A2
:10186800BB510001DD25D96E0001BC510001DE210C
:10187800DA6EDF500001BD6FBDC0BEF00001BF6B66
:10188800C06BC16BBEC0C1F00001C06BBF6BBE6B4B
:101898000001B5510001BE110001C26F0001B6512F
:1018A8000001BF110001C36F0001B7510001C01151
:1018B8000001C46F0001B8510001C1110001C56FDA
:1018C8000001AE510001C2110001C66F0001AF5105
:1018D8000001C3110001C76F000E0001C41100010F
:1018E800C86F000E0001C5110001C96FFF0E00018D
:1018F800CA6F010E0001CB6FA5C0CCF0A6C0CDF019
:101908000001D890CC37CD370001D890CC37CD37EF
:101918000001CA510001CC170001CB510001CD17BD
:10192800280E0001CC27000ECD230001CC51000168
:10193800DD25D96E0001CD510001DE21DA6EDF50C0
:101948000001CE6F0001CE510001C6110001CF6F1A
:101958000001C7510001D06F0001C8510001D16FCB
:101968000001C9510001D26FFF0E0001CF1500011F
:10197800A56FFF0E0001D0150001A66FFF0E000134
:10198800D1150001A76F0F0E0001D2150001A86F35
:101998001200000120EE24F0DD51D926DE51DA22B2
:1019A800DF50010AD8B429D5030AD8B410D6010AE1
:1019B800D8B49DD6010E0001A56F000EA66F000ECB
:1019C800A76F000EA86F1200000E0001796F000EBD
:1019D80000017B6F000E7A6F00017A5100017B11C4
:1019E800D8A454D170C075F071C076F072C077F089
:1019F80073C078F0090ED8900001753776377737BD
:101A08007837E82EF8D775C07CF076C07DF077C0BF
:101A18007EF078C07FF0100E0001756F940EE82EEE
:101A2800FED7752FFCD700F08A988B8E0A0EEFEC44
:101A380028F07CC067F07DC068F07EC069F07FC088
:101A48006AF0000E00016B6F520EB2EC29F08A8822
:101A5800B9EC2BF0C0EC2BF00001826F0001825131
:101A68000001D8B415D0000E196E010EFAEC27F05B
:101A7800E50E196E610E1A6E41EC29F00D0E196E05
:101A8800010EFAEC27F082C02EF02F6A95EC2AF0AE
:101A9800000182510001D8A4DDD7B9EC2BF0C0ECCD
:101AA8002BF00001826F0D0E196E020EFAEC27F072
:101AB80082C02EF02F6A95EC2AF0FE0E00018219E2
:101AC800D8B415D0000E196E020EFAEC27F0630E8A
:101AD800196E610E1A6E41EC29F00D0E196E020E88
:101AE800FAEC27F082C02EF02F6A95EC2AF0FE0E51
:101AF80000018219D8A4D3D7000E0001816F000E0F
:101B0800806F100E0001756F940EE82EFED7752FAA
:101B1800FCD700F02CD0C0EC2BF00001756F000151
:101B2800805100016E25D96E0001815100016F219D
:101B3800DA6E75C0DFFF000E196E010EFAEC27F0A1
:101B48000001805100016E25D96E0001815100010C
:101B58006F21DA6EDF500001756F766B75C019F072
:101B680076C01AF041EC29F00001804B812B00016E
:101B780081BFD1D7020E0001815DD8A0CCD78A9849
:101B8800000E0001816F000E806F0A0EEFEC28F046
:101B9800000E0001676F000E686F000E696F000E7F
:101BA8006A6F000E00016B6F4C0EB2EC29F08A8848
:101BB800B9EC2BF0C0EC2BF00001826F000E196E0F
:101BC800010EFAEC27F0D80E196E600E1A6E41EC71
:101BD80029F00D0E196E010EFAEC27F082C02EF0D6
:101BE8002F6A95EC2AF000018229D8A4E3D71F0EAA
:101BF8000001766F710E0001756F1E0EE82EFED77C
:101C0800752FFCD7762FFAD700F0000E0001816FF0
:101C1800000E806F26D0000E196E010EFAEC27F028
:101C2800F50E196E610E1A6E41EC29F00E0E196E42
:101C3800010EFAEC27F00001805100016E25D96EE3
:101C48000001815100016F21DA6EDF500001756FCC
:101C5800000175512E6E2F6A95EC2AF00001804B19
:101C6800812B0001805100016E25D96E0001815140
:101C780000016F21DA6EDF50D8A4CDD76EC0D9FF2E
:101C88006FC0DAFF80C0DFFF000E120070C075F071
:101C980071C076F072C077F073C078F0090ED890F2
:101CA80000017537763777377837E82EF8D775C05B
:101CB8007CF076C07DF077C07EF078C07FF0000EB3
:101CC8000001816F000E806F0FD00001805100016C
:101CD8006E25D96E0001815100016F21DA6E000E68
:101CE800DF6E0001804B812B000181BFEED7020E11
:101CF8000001815DD8A0E9D73D0E0001766FE10EA5
:101D08000001756F3F0EE82EFED7752FFCD7762F92
:101D1800FAD700D00A0EEFEC28F07CC067F07DC03F
:101D280068F07EC069F07FC06AF0000E00016B6F3A
:101D3800510EB2EC29F0B9EC2BF0C0EC2BF00001FD
:101D4800826F000E196E010EFAEC27F0C50E196E9F
:101D5800610E1A6E41EC29F00D0E196E010EFAECA7
:101D680027F082C02EF02F6A95EC2AF000018251EC
:101D78000001D8A4E2D7C0EC2BF00001826F000E5E
:101D8800196E010EFAEC27F0D50E196E610E1A6E57
:101D980041EC29F00D0E196E010EFAEC27F082C005
:101DA8002EF02F6A95EC2AF0FE0E00018219D8A4B5
:101DB800E2D7000E0001816F000E806F5ED0C0EC8C
:101DC8002BF00001756F0001805100016E25D96E5E
:101DD8000001815100016F21DA6E75C0DFFF00013B
:101DE800804B812B00017A07D8A07B0700017A2954
:101DF800E6E100017B29D8B41ED0E1D7C0EC2BF076
:101E08006EC0D9FF6FC0DAFFDF6E6EC0D9FF6FC03A
:101E1800DAFF0001805100016E25E16E0001815159
:101E280000016F21E26EDFCFE7FF00016E4B6F2BE1
:101E38000001804B812B0001740700017429D8B47C
:101E480014D0DCD7C0EC2BF00001756F0001805175
:101E580000016E25D96E0001815100016F21DA6EF3
:101E680075C0DFFF0001804B812B000181BFEAD7DD
:101E7800020E0001815DD8A0E5D7000181BFB2D76D
:101E8800020E0001815DD8A0ADD73D0E0001766F2E
:101E9800E10E0001756F3F0EE82EFED7752FFCD7B7
:101EA800762FFAD700D0000E0001676F000E686F1A
:101EB800000E696F000E6A6F000E00016B6F4C0E0A
:101EC800B2EC29F0B9EC2BF0C0EC2BF00001826FDA
:101ED800000E196E010EFAEC27F0D80E196E600E7E
:101EE8001A6E41EC29F00D0E196E010EFAEC27F06E
:101EF80082C02EF02F6A95EC2AF000018229D8A41E
:101F0800E3D7000E0001816F000E806F7A0E00018A
:101F1800766FC10E0001756F810EE82EFED7752F02
:101F2800FCD7762FFAD700D0000E12007A0E0001E7
:101F3800766FC10E0001756F810EE82EFED7752FE2
:101F4800FCD7762FFAD700D0120035C0BEF036C0C5
:101F5800BFF0000120EE08F0BE51D926BF51DA22A9
:101F6800DECFB6F0DECFB7F0DECFB8F0DECFB9F017
:101F78008ED2A5C016F0A6C017F0000E196E030E7B
:101F8800186E2CEC2BF0D89017300001AD6F16307E
:101F98000001BA6FADC0BBF0BAC0ADF0BBC0AEF0C7
:101FA800090E0001AF6F0001D890AE33AD330001C8
:101FB800AF2FF9D70001AD510001B62500018E6F92
:101FC8000001AE510001B72100018F6F000E000122
:101FD800B8210001906F000E0001B9210001916F36
:101FE80028EC1DF00009D8A402D0000E1200FF0E44
:101FF8000001AD6F010E0001AE6FBAC0AFF0BBC0FB
:10200800B0F00001AD510001AF170001AE51000161
:10201800B017280E0001AF27000EB0230001AF5102
:102028000001BE250001BC6F0001B0510001BF21B5
:102038000001BD6F0001A5B105D0A9C0B2F0000133
:10204800B36B24D00001A9510001AD6FAE6B000144
:10205800AD3BAE3BF00EAE17AD510F0BAE13F00E0D
:10206800AD17BCC0D9FFBDC0DAFFDF500F0B0001B0
:10207800AF6FB06B0001AD510001AF110001B26F3D
:102088000001AE510001B0110001B36FBCC0D9FF0F
:10209800BDC0DAFFB2C0DFFF0001BA4BBB2B0001A5
:1020A80020EE27F0BE51D926BF51DA22010EDF6E8D
:1020B800BAC0ADF0BBC0AEF0090E0001AF6F0001B1
:1020C800D890AE33AD330001AF2FF9D70001AD5131
:1020D8000001B62500018E6F0001AE510001B72145
:1020E80000018F6F000E0001B8210001906F000EF3
:1020F8000001B9210001916F28EC1DF00009D8A456
:1021080002D0000E1200FF0E0001AD6F010E00019B
:10211800AE6FBAC0AFF0BBC0B0F00001AD51000166
:10212800AF170001AE510001B017280E0001AF270C
:10213800000EB0230001AF510001BE250001BC6FA5
:102148000001B0510001BF210001BD6F0001A5B120
:1021580020D0A9C0ADF0AAC0AEF0ABC0AFF0ACC003
:10216800B0F0AEC0ADF0AFC0AEF0B0C0AFF000019F
:10217800B06B0F0E0001AD17BCC0D9FFBDC0DAFFB0
:10218800DF50F00B0001AD110001B16F0001B1513A
:1021980014D0A9C0ADF0AAC0AEF0ABC0AFF0ACC0CF
:1021A800B0F0050E06D00001D890B033AF33AE338F
:1021B800AD33E82EF8D70001AD510001B46FB56B0F
:1021C800BCC0D9FFBDC0DAFFB4C0DFFF72D1A5C063
:1021D800ADF0A6C0AEF0A7C0AFF0A8C0B0F0AEC0DA
:1021E800ADF0AFC0AEF0B0C0AFF00001B06B000111
:1021F800B6510001AD2500018E6F0001B7510001F5
:10220800AE2100018F6F0001B8510001AF2100011C
:10221800906F0001B9510001B0210001916F28ECC5
:102228001DF00009D8A402D0000E1200FF0E000114
:10223800AD6F010E0001AE6FA5C0AFF0A6C0B0F043
:10224800D8900001AF37B0370001AD510001AF178A
:102258000001AE510001B017280E0001AF27000E93
:10226800B0230001AF510001BE25D96E0001B05165
:102278000001BF21DA6EA9C0DFFFFF0E0001AD6FBC
:10228800010E0001AE6FA5C0AFF0A6C0B0F0D890A7
:102298000001AF37B0370001AD510001AF170001A1
:1022A800AE510001B017290E0001AF27000EB02370
:1022B8000001AF510001BE25D96E0001B0510001E7
:1022C800BF21DA6E0001AA51DF6EF3D0A5C0ADF0D0
:1022D800A6C0AEF0A7C0AFF0A8C0B0F0080E06D0F8
:1022E8000001D890B033AF33AE33AD33E82EF8D712
:1022F8000001B6510001AD2500018E6F0001B751F4
:102308000001AE2100018F6F0001B8510001AF211B
:102318000001906F0001B9510001B0210001916FD7
:1023280028EC1DF00009D8A402D0000E1200FF0E00
:102338000001AD6F010E0001AE6FA5C0AFF0A6C0E1
:10234800B0F00001D890AF37B0370001D890AF3760
:10235800B0370001AD510001AF170001AE510001C7
:10236800B017280E0001AF27000EB0230001AF51AF
:102378000001BE25D96E0001B0510001BF21DA6EFF
:10238800A9C0DFFFFF0E0001AD6F010E0001AE6FA7
:10239800A5C0AFF0A6C0B0F00001D890AF37B037F5
:1023A8000001D890AF37B0370001AD510001AF1729
:1023B8000001AE510001B017290E0001AF27000E31
:1023C800B0230001AF510001BE25D96E0001B05104
:1023D8000001BF21DA6E0001AA51DF6EFF0E000175
:1023E800AD6F010E0001AE6FA5C0AFF0A6C0B0F092
:1023F8000001D890AF37B0370001D890AF37B03769
:102408000001AD510001AF170001AE510001B01736
:102418002A0E0001AF27000EB0230001AF510001C2
:10242800BE25D96E0001B0510001BF21DA6EABC0E4
:10243800DFFFFF0E0001AD6F010E0001AE6FA5C0FA
:10244800AFF0A6C0B0F00001D890AF37B0370001A8
:10245800D890AF37B0370001AD510001AF17000178
:10246800AE510001B0172B0E0001AF27000EB023AC
:102478000001AF510001BE25D96E0001B051000125
:10248800BF21DA6EACC0DFFF14D0000E12000001CD
:1024980020EE24F0BE51D926BF51DA22DF50010ABE
:1024A800D8B467D5030AD8B492D6010AD8B40ED7DF
:1024B800ECD7000120EE27F0BE51D926BF51DA2211
:1024C800010EDF6E010E1200000E0101906F000E6A
:1024D8000101916F35C089F136C08AF1000120EE03
:1024E80004F0EE51D926EF51DA2289C1DEFF8AC104
:1024F800DDFF010120EE0CF08951D9268A51DA223C
:10250800DECF8CF1DECF8DF1DECF8EF1DECF8FF115
:10251800010120EE24F08951D9268A51DA22030ECE
:10252800DE18D8A43AD0000120EE06F0EE51D926E4
:10253800EF51DA228CC1DEFF8DC1DEFF8EC1DEFFD6
:102548008FC1DDFFDD52DD52000110EE0AF0EE51C1
:10255800E126EF51E222DECFE6FFDECFE6FFDECF57
:10256800E6FFDECFE6FF8CC122F08DC123F08EC1DD
:1025780024F08FC125F049EC24F0000120EE0EF084
:10258800EE51D926EF51DA2222C0DEFF23C0DEFF4A
:1025980024C0DEFF25C0DEFF2BD0000120EE06F0B0
:1025A800EE51D926EF51DA22DE6ADE6ADE6ADD6A8A
:1025B800DD52DD52000110EE0AF0EE51E126EF5136
:1025C800E222DECFE6FFDECFE6FFDECFE6FFDECF9C
:1025D800E6FF000120EE0EF0EE51D926EF51DA2287
:1025E8008CC1DEFF8DC1DEFF8EC1DEFF8FC1DEFF35
:1025F800000120EE02F0EE51D926EF51DA22000E4A
:10260800DE6E000EDD6EF2C0F6FFF3C0F7FF0800C5
:10261800F5500009D8A40AD0F4C0D9FFF5C0DAFFF4
:10262800000EDE6E000EDD6E000E1200F20E1E6E43
:10263800000E1F6EF0C020F0F1C021F0E0EC21F098
:1026480001018B6F01018B05D8A402D0040E120082
:10265800000120EE0EF0EE51D926EF51DA22DECF3E
:102668008EF0DECF8FF0DECF90F0DECF91F028EC49
:102678001DF00009D8A402D0080E1200000120EEB7
:1026880002F0EE51D926EF51DA22DECF79F1DDCF13
:102698007AF10F0E01017917000E7A17050ED890FE
:1026A800010179377A37E82EFAD7280E0101792700
:1026B800000E7A2301017951010189250101906FEA
:1026C80001017A5101018A210101916F90C1D9FF5D
:1026D80091C1DAFFDF50D8A412D001018B5101015A
:1026E800D8B405D0000E0101866F030E04D0000E89
:1026F8000101866F020E856F01018551120090C19C
:10270800D9FF91C1DAFFE50EDE18D8B41CD001015B
:1027180020EE0BF09051D9269151DA220101DFB653
:1027280012D090C116F091C117F0F0C018F0F1C0A6
:1027380019F0000E1B6E0B0E1A6EA4EC25F0165045
:102748001710D8B41BD0EEC0DFF0EFC0E0F03DECBE
:102758001EF00009D8A47CD701018B510101D8B41F
:1027680005D0000E0101886F030E04D0000E010190
:10277800886F020E876F01018751120001018B518A
:102788000101D8A40AD0F4C0D9FFF5C0DAFF90C17E
:10279800DEFF91C1DDFF000E1200010120EE0BF0FB
:1027A8009051D9269151DA220101DFB802D0030EE7
:1027B80012001B0E01019025D96E000E0101912116
:1027C800DA6EDF500101796F0101795101017B6FE8
:1027D8007A6B1A0E01019025D96E000E0101912124
:1027E800DA6EDF5001017C6F01017C5101017A131F
:1027F800000E7B13150E01019025D96E000E010104
:102808009121DA6EDF5001017D6F01017D510101D7
:102818007F6F7E6B140E01019025D96E000E0101A9
:102828009121DA6EDF500101806F010180510101B1
:102838007E110101816F01017F510101826F010148
:10284800836B0101846B82C184F181C183F1010131
:10285800826B816B01017A510101811101018C6F39
:1028680001017B510101821101018D6F000E0101EF
:10287800831101018E6F000E0101841101018F6F18
:10288800000120EE06F0EE51D926EF51DA228CC174
:10289800DEFF8DC1DEFF8EC1DEFF8FC1DDFFDD52A1
:1028A800DD52000110EE0AF0EE51E126EF51E2226E
:1028B800DECFE6FFDECFE6FFDECFE6FFDECFE6FFC8
:1028C8008CC122F08DC123F08EC124F08FC125F078
:1028D80049EC24F0000120EE0EF0EE51D926EF511C
:1028E800DA2222C0DEFF23C0DEFF24C0DEFF25C0BF
:1028F800DEFF000120EE02F0EE51D926EF51DA2278
:10290800020EDE6E000EDD6E91D635C0A5F036C023
:10291800A6F0280E0001A5250001836F000E000116
:10292800A6210001846F8EC085F08FC086F090C00C
:1029380087F091C088F0010E0001896F000EF2EC5B
:1029480025F00009D8B402D0020E1200000E196E4C
:10295800010EFAEC27F0030E196E620E1A6E41ECA6
:1029680029F00C0E196E010EFAEC27F0280E000162
:10297800A5250001836F000E0001A6210001846FC8
:102988008EC085F08FC086F090C087F091C088F027
:10299800010E0001896F000EF2EC25F00001926F24
:1029A8000001925100019E6F9F6B9EC02EF09FC048
:1029B8002FF095EC2AF07A0E0001936FC10E0001FA
:1029C800926F810EE82EFED7922FFCD7932FFAD75D
:1029D80000D0270E0001A525D96E020E0001A62100
:1029E800DA6EDF500001926F000192510001946F7E
:1029F800936B260E0001A525D96E020E0001A621B3
:102A0800DA6EDF500001956F0001955100019313B4
:102A1800000E9413550E0001931905E1AA0E00014A
:102A28009419D8B402D0020E1200000E196E020ECC
:102A3800FAEC27F0C50E196E600E1A6E41EC29F0FB
:102A48000A0E196E020EFAEC27F0270E0001A525D2
:102A5800D96E020E0001A621DA6EDF500001926FD6
:102A6800000192510001946F936B260E0001A52579
:102A7800D96E020E0001A621DA6EDF500001956FB3
:102A88000001955100019313000E941393C096F022
:102A980094C097F00001986B996B96C02EF097C080
:102AA8002FF095EC2AF0B70E0001936FA10E0001EC
:102AB800926FC30EE82EFED7922FFCD7932FFAD72A
:102AC80000D05E0E0001A525166E000E0001A6219D
:102AD800176E780E186E620E196E000E1B6E030EBE
:102AE8001A6EA4EC25F016501710D8A402D0000EC8
:102AF8001200000E196E010EFAEC27F0410E196E45
:102B0800610E1A6E41EC29F0080E196E010EFAECEE
:102B180027F05E0E0001A525166E000E0001A62105
:102B2800176E780E186E620E196E000E1B6E030E6D
:102B38001A6EA4EC25F016501710D8A402D0010E76
:102B480001D0000E00019A6F9B6B9C6B9D6B9AC025
:102B58002EF09BC02FF095EC2AF0B70E0001936F72
:102B6800A10E0001926FC30EE82EFED7922FFCD75C
:102B7800932FFAD700D07A0E0001A525166E000E05
:102B88000001A621176E4C0E186E620E196E000E0B
:102B98001B6E050E1A6EA4EC25F016501710D8A45B
:102BA8000CD0000120EE50F0A551D926A651DA220A
:102BB8000001DFBE02D0000E1200000E196E010ED9
:102BC800FAEC27F0B20E196E600E1A6E41EC29F07D
:102BD800080E196E010EFAEC27F07A0E0001A525F1
:102BE800166E000E0001A621176E4C0E186E620EAE
:102BF800196E000E1B6E050E1A6EA4EC25F0165009
:102C08001710D8A402D0010E01D0000E0001A16F48
:102C1800A26BA36BA46BA1C02EF0A2C02FF095EC01
:102C28002AF0000E196E020EFAEC27F0A50E196EA6
:102C3800610E1A6E41EC29F0080E196E020EFAECBC
:102C480027F0000120EE50F0A551D926A651DA222E
:102C58000001DFBE02D0010E01D0000E0001A16FFD
:102C6800A26BA36BA46BA1C02EF0A2C02FF095ECB1
:102C78002AF0B70E0001936FA10E0001926FC30EE8
:102C8800E82EFED7922FFCD7932FFAD700D0000E4C
:102C9800196E020EFAEC27F0B50E196E610E1A6E57
:102CA80041EC29F0080E196E020EFAEC27F0000E1E
:102CB8000001A06F7A0E0001A525166E000E000116
:102CC800A621176E4C0E186E620E196E000E1B6E42
:102CD800050E1A6EA4EC25F016501710D8A40DD0C6
:102CE800000120EE50F0A551D926A651DA220001A4
:102CF800DFBE03D0010E0001A06F0001A05100014A
:102D0800A16FA26BA36BA46BA1C02EF0A2C02FF081
:102D180095EC2AF0B70E0001936FA10E0001926F97
:102D2800C30EE82EFED7922FFCD7932FFAD700D0E8
:102D3800010E1200000E00016F6F000E6E6F000E84
:102D48000001746F000E736F000E0001716F000EAA
:102D5800706F9C0E346ED70EE82EFED7342EFCD73B
:102D680000F0000E0001756F8B8E8A98690E67EC73
:102D780028F0000E0001676F000E686F000E696F83
:102D8800000E6A6F950E00016B6F400EB2EC29F0D1
:102D9800080EEFEC28F08A88C0EC2BF00001756F64
:102DA8000001734B742B00017505D8B42FD0000EA9
:102DB800196E010EFAEC27F01B0E196E620E1A6ED0
:102DC80041EC29F00B0E196E010EFAEC27F075C0D4
:102DD8002EF02F6A95EC2AF0000E196E020EFAEC0E
:102DE80027F00F0E196E620E1A6E41EC29F00B0EC9
:102DF800196E020EFAEC27F073C02EF074C02FF093
:102E080095EC2AF00001734B742B16D0000E196E46
:102E1800010EFAEC27F07B0E196E600E1A6E41EC6B
:102E280029F0000E196E020EFAEC27F07B0E196ECF
:102E3800600E1A6E41EC29F000017505D8B40BD06C
:102E4800000174BFA9D70001745105E1640E0001A7
:102E5800735DD8A0A1D7000E0001746F000E736FC8
:102E6800000175698A988B8E0A0EEFEC28F0AA0E7D
:102E78000001676F010E686F000E696F000E6A6FC0
:102E8800870E00016B6F480EB2EC29F0B9EC2BF0FD
:102E98008A88C0EC2BF00001756F000E196E010EC8
:102EA800FAEC27F075C02EF02F6A95EC2AF0000195
:102EB8007505D8A4EED79C0E346ED70EE82EFED733
:102EC800342EFCD700F0000175698A988B8E0A0EA3
:102ED800EFEC28F0000E0001676F000E686F000E1F
:102EE800696F000E6A6F650E00016B6F770EB2ECAA
:102EF80029F0B9EC2BF08A889C0E346ED70EE82E98
:102F0800FED7342EFCD700F000017569000E0001D1
:102F1800746F000E736F8A988B8E0A0EEFEC28F090
:102F2800000E0001676F000E686F000E696F000EDB
:102F38006A6F000E00016B6F690EB2EC29F0B9ECF4
:102F48002BF08A889C0E346ED70EE82EFED7342ECE
:102F5800FCD700F08A988B8E0A0EEFEC28F0000E52
:102F68000001676F000E686F000E696F000E6A6FD0
:102F7800000E00016B6F410EB2EC29F0B9EC2BF09A
:102F88008A88C0EC2BF00001756F0001734B742B1D
:102F9800000175510001D8B41BD0000E196E020E45
:102FA800FAEC27F0740E196E610E1A6E41EC29F0D6
:102FB80075C02EF02F6A95EC2AF00D0E196E020ED0
:102FC800FAEC27F073C02EF074C02FF095EC2AF0BD
:102FD800000175510001D8A4D4D79C0E346ED70EC9
:102FE800E82EFED7342EFCD700F09C0E346ED70E98
:102FF800E82EFED7342EFCD700F08A988B8E0A0E66
:10300800EFEC28F0000E0001676F020E686F000EEB
:10301800696F000E6A6FFF0E00016B6F500EB2EC05
:1030280029F0B9EC2BF08A88000E0001746F000EAD
:10303800736FC0EC2BF00001756F0001734B742B9C
:10304800000175510001D8B420D0000E196E020E8F
:10305800FAEC27F0520E196E610E1A6E41EC29F047
:10306800000E196E020EFAEC27F075C02EF02F6ACA
:1030780095EC2AF00A0E196E020EFAEC27F073C0CE
:103088002EF074C02FF095EC2AF000017551000164
:10309800D8A4CFD70A0E196E020EFAEC27F072C028
:1030A8002EF02F6A95EC2AF000017251120035C0FB
:1030B800EBF036C0ECF0000120EE18F0EB51D92609
:1030C800EC51DA22DECFE7F0DECFE8F0DECFE9F030
:1030D800DECFEAF00001DF510001E0110001E1114B
:1030E8000001E211D8A437D0000120EE1CF0EB510A
:1030F800D926EC51DA22DECFF1F0DECFF2F0DECFC6
:10310800F3F0DECFF4F00001F4510001F3110001F7
:10311800F21105E1020E0001F15DD8A012D0000104
:10312800E7510001F15D0001E8510001F259000189
:10313800E9510001F3590001EA510001F459D8A0FE
:1031480055D0010E0001F16F000EF26F000EF36F03
:10315800000EF46F4BD0DFC0A5F0E0C0A6F0E1C0D0
:10316800A7F0E2C0A8F0CCEC09F0A5C0EDF0A6C02D
:10317800EEF0A7C0EFF0A8C0F0F00001F051000198
:10318800EF110001EE110FE1020E0001ED5DD8B064
:103198000AD0010E0001DF6F000EE06F000EE16F34
:1031A800000EE26F12000001E7510001ED5D000121
:1031B800E8510001EE590001E9510001EF59000101
:1031C800EA510001F059D8B009D0EDC0DFF0EEC0E7
:1031D800E0F0EFC0E1F0F0C0E2F01200DFC0F1F083
:1031E800E0C0F2F0E1C0F3F0E2C0F4F0F1C0F5F0B5
:1031F800F2C0F6F0F3C0F7F0F4C0F8F0010E0001E9
:10320800F527000EF623F723F8230001E751000104
:10321800F55D0001E8510001F6590001E95100018E
:10322800F7590001EA510001F859D8A025D0020E3B
:103238000001F56F000EF66F000EF76F000EF86FC5
:103248000001F5510001F15D0001F6510001F2594C
:103258000001F7510001F3590001F8510001F45938
:10326800D8B00AD0000E0001DF6F000EE06F000E2C
:10327800E16F000EE26F1200F5C0A5F0F6C0A6F0EF
:10328800F7C0A7F0F8C0A8F0CCEC09F0A5C0EDF0A5
:10329800A6C0EEF0A7C0EFF0A8C0F0F00001ED5115
:1032A8000001EE110001EF110001F011D8B433D084
:1032B8000001ED050001EE110001EF110001F01110
:1032C800D8A40AD0010E0001DF6F000EE06F000ED7
:1032D800E16F000EE26F12000001F1510001F519D3
:1032E8008DE10001F2510001F61988E10001F35166
:1032F8000001F71983E10001F4510001F819D8A47D
:103308007DD7000E0001DF6F000EE06F000EE16F49
:10331800000EE26F1200F5C0A5F0F6C0A6F0F7C0E7
:10332800A7F0F8C0A8F0FF0E0001A96FFF0EAA6F62
:10333800FF0EAB6F0F0EAC6FA9EC0FF00009D8A40D
:103348000AD0010E0001DF6F000EE06F000EE16F82
:10335800000EE26F12000001DF510001E0110001D0
:10336800E1110001E211D8B41FD0DFC0A5F0E0C020
:10337800A6F0E1C0A7F0E2C0A8F0F5C0A9F0F6C039
:10338800AAF0F7C0ABF0F8C0ACF0A9EC0FF0000958
:10339800D8A40AD0010E0001DF6F000EE06F000E06
:1033A800E16F000EE26F1200000120EE1CF0EB51FD
:1033B800D926EC51DA22F5C0DEFFF6C0DEFFF7C0F1
:1033C800DEFFF8C0DEFF000120EE20F0EB51D92629
:1033D800EC51DA22DE2807E1DE2805E1DE2803E1E8
:1033E800DE28D8B40CD0000120EE20F0EB51D9260D
:1033F800EC51DA22DE06000EDE5ADE5ADE5AF5C03D
:10340800DFF0F6C0E0F0F7C0E1F0F8C0E2F012003B
:10341800000120EE04F0F951D926FA51DA22DECF64
:1034280085F1DDCF86F1000120EE06F0F951D926AD
:10343800FA51DA22DECF81F1DECF82F1DECF83F1DD
:10344800DECF84F101018151010182110101831153
:1034580001018411D8B429D0000120EE0AF0F951F5
:10346800D926FA51DA2281C1DEFF82C1DEFF83C18B
:10347800DEFF84C1DEFF81C122F082C123F083C157
:1034880024F084C125F049EC24F0000120EE0EF070
:10349800F951D926FA51DA2222C0DEFF23C0DEFF15
:1034A80024C0DEFF25C0DEFF16D0010120EE0CF09F
:1034B8008551D9268651DA22000110EE0EF0F95115
:1034C800E126FA51E222DECFE6FFDECFE6FFDECFCD
:1034D800E6FFDECFE6FF000120EE02F0F951D92623
:1034E800FA51DA22000EDE6E000EDD6E000120EECB
:1034F8000EF0F951D926FA51DA22DECF8EF0DECF5E
:103508008FF0DECF90F0DECF91F028EC1DF00009AF
:10351800D8A402D0080E1200000120EE02F0F951E2
:10352800D926FA51DA22DECFFDF0DDCFFEF00F0EFC
:103538000001FD17000EFE17050ED8900001FD379B
:10354800FE37E82EFAD7280E0001FD27000EFE23CD
:103558000001FD510101852501017E6F0001FE5129
:103568000101862101017F6F7EC1D9FF7FC1DAFF8A
:10357800DF500101806F010180510101D8B405D0ED
:10358800E50E01018019D8A40AD0FBC0D9FFFCC000
:10359800DAFF7EC1DEFF7FC1DDFF000E1200F9C039
:1035A800DFF0FAC0E0F03DEC1EF00009D8A49ED789
:1035B800010181510101821101018311010184116D
:1035C800D8B423D0000120EE0AF0F951D926FA51D7
:1035D800DA22DECFDFF0DECFE0F0DECFE1F0DECFC3
:1035E800E2F05BEC18F0DFC081F1E0C082F1E1C0ED
:1035F80083F1E2C084F101018151010182110101CD
:10360800831101018411D8A402D0060E1200010111
:103618008105010182110101831101018411D8B4CE
:103628000ED0000E00018E6F000E8F6F000E906F8F
:10363800000E916F28EC1DF00009D8A402D0080EE6
:10364800120081C122F082C123F083C124F084C119
:1036580025F049EC24F022C079F123C07AF124C086
:103668007BF125C07CF1010120EE04F08551D926BB
:103678008651DA2279C1DEFF7AC1DEFF7BC1DEFF27
:103688007CC1DEFF280E01018525166E000E0101A2
:103698008621176E000E196E000E186E020E1B6E34
:1036A800000E1A6E02EC2BF0010120EE25F0855178
:1036B800D9268651DA22DF5001017D6F26D0280EE7
:1036C8000101852500017F6F000E0101862100019F
:1036D800806F79C181F07AC182F07BC183F07CC1AF
:1036E80084F0010E0001856F000E83EC26F00009BE
:1036F800D8B402D0080E1200010E01017927000E7D
:103708007A237B237C2301017D0701017D5101017F
:10371800D8A4D5D7010120EE27F08551D9268651A6
:10372800DA22010EDF6E280E010185250001FD6FEA
:10373800000E010186210001FE6FFBC0D9FFFCC00D
:10374800DAFFFDC0DEFFFEC0DDFF000E1200000143
:1037580020EE04F0A751D926A851DA22DECF1DF0B9
:10376800DDCF1EF0A7C0D9FFA8C0DAFFDECF1FF05B
:10377800DDCF20F08EEC29F00001AD6F0001AD51D6
:103788000001D8A45ED1000120EE02F0A751D9268D
:10379800A851DA220001DFAA54D1000120EE1AF064
:1037A800A751D926A851DA22DECF8EF0DECF8FF0CE
:1037B800DECF90F0DECF91F028EC1DF00009D8A400
:1037C80002D0080E1200000120EE1EF0A751D926E3
:1037D800A851DA22DECFB2F0DDCFB3F0000120EE3F
:1037E8000BF0B251D926B351DA22000EDB8A000160
:1037F80020EE0AF0A751D926A851DA221C0E0001A2
:10380800B225E16E000E0001B321E26EDFCFE7FFC3
:103818001D0E0001B225D96E000E0001B321DA6E2B
:10382800000110EE0AF0A751E126A851E222E6CFE6
:10383800A9F0E5CFAAF0AAC0A9F00001AA6B00017F
:10384800A951DF6E1E0E0001B225D96E000E0001CF
:10385800B321DA6E000110EE0AF0A751E126A85153
:10386800E222E6CFA9F0E6CFAAF0E6CFABF0E6CFAA
:10387800ACF0110E06D00001D890AC33AB33AA33AC
:10388800A933E82EF8D70001A951DF6E1F0E0001F9
:10389800B225D96E000E0001B321DA6E000110EED8
:1038A8000AF0A751E126A851E222E6CFA9F0E6CF17
:1038B800AAF0E6CFABF0E6CFACF0190E06D00001C7
:1038C800D890AC33AB33AA33A933E82EF8D700012C
:1038D800A951DF6E000120EE0EF0A751D926A8519C
:1038E800DA221A0E0001B225E16E000E0001B321A2
:1038F800E26EDFCFE7FF1B0E0001B225D96E000E86
:103908000001B321DA6E000110EE0EF0A751E12696
:10391800A851E222E6CFA9F0E5CFAAF0AAC0A9F003
:103928000001AA6B0001A951DF6E140E0001B22537
:10393800D96E000E0001B321DA6E000110EE0EF010
:10394800A751E126A851E222E6CFA9F0E6CFAAF0D6
:10395800E6CFABF0E6CFACF0110E06D00001D89060
:10396800AC33AB33AA33A933E82EF8D70001A951F9
:10397800DF6E150E0001B225D96E000E0001B321CD
:10398800DA6E000110EE0EF0A751E126A851E222EE
:10399800E6CFA9F0E6CFAAF0E6CFABF0E6CFACF0E1
:1039A800110E06D00001D890AC33AB33AA33A9333B
:1039B800E82EF8D7AAC0A9F00001AA6B0001A95106
:1039C800DF6E15EC21F016C0AEF017C0AFF018C0CE
:1039D800B0F019C0B1F0160E0001B225D96E000E74
:1039E8000001B321DA6EAEC0DFFF170E0001B22569
:1039F800D96E000E0001B321DA6E0001AF51DF6EFF
:103A0800180E0001B225D96E000E0001B321DA6E3E
:103A1800B0C0DFFF190E0001B225D96E000E0001FB
:103A2800B321DA6EB1C0DFFF000120EE02F0A7512A
:103A3800D926A851DA22DF0EDF1697EC28F000010C
:103A4800AD6F0001AD51120035C0A3F036C0A4F02F
:103A5800000120EE04F0A351D926A451DA22DECFCA
:103A68009FF0DECFA0F0DECFA1F0DECFA2F0000104
:103A78008E5100019F1910E100018F510001A0191A
:103A88000BE1000190510001A11906E100019151DB
:103A98000001A219D8B4EBD0000120EE27F0A35101
:103AA800D926A451DA22DF50D8B4ABD0280E0001B1
:103AB800A32500017F6F000E0001A4210001806F83
:103AC8009FC081F0A0C082F0A1C083F0A2C084F0A2
:103AD800010E0001856F000E83EC26F00009D8B4B2
:103AE80002D0000E1200000120EE27F0A351D926C3
:103AF800A451DA22000EDF6E000120EE14F0A3516B
:103B0800D926A451DA22DECF92F0DECF93F0DECFB1
:103B180094F0DECF95F0000120EE08F0A351D926ED
:103B2800A451DA22DECF96F0DECF97F0DECF98F000
:103B3800DECF99F0000192510001962500019A6F9D
:103B4800000193510001972100019B6F00019451DE
:103B58000001982100019C6F0001955100019921F5
:103B680000019D6F00019A5100019F5D00019B516A
:103B78000001A05900019C510001A15900019D516B
:103B88000001A259D8B03DD0000120EE26F0A35183
:103B9800D926A451DA22DF5000019E6F020E0001DF
:103BA8009E6101D02ED0000120EE14F0A351D92639
:103BB800A451DA22DE5000019F27DE500001A02325
:103BC800DE500001A123DD500001A223280E0001D0
:103BD800A32500017F6F000E0001A4210001806F62
:103BE8009FC081F0A0C082F0A1C083F0A2C084F081
:103BF800010E0001856F000E83EC26F000019E0780
:103C0800CDD700018E5100018F11000190110001E4
:103C18009111D8B42CD0280E0001A3250001836F80
:103C2800000E0001A4210001846F8EC085F08FC0B2
:103C380086F090C087F091C088F0010E0001896F6E
:103C4800000EF2EC25F00009D8B402D0000E1200E4
:103C5800000120EE04F0A351D926A451DA228EC027
:103C6800DEFF8FC0DEFF90C0DEFF91C0DEFF010ED9
:103C78001200000120EE02F0DF51D926E051DA22CD
:103C8800DECFE1F0DDCFE2F0010E0001E125000119
:103C9800EC6F000E0001E2210001ED6F0F0E000134
:103CA800EC150001E16F000E0001ED150001E26F57
:103CB8000001E1510001E211D8A4D5D0000120EEA5
:103CC8000EF0DF51D926E051DA22DE2A000EDE227C
:103CD800DE22DE22000120EE0AF0DF51D926E05173
:103CE800DA22DE50DE10DE10DE10D8A417D0000174
:103CF80020EE04F0DF51D926E051DA2210EE02F06E
:103D0800DE50E126DD50E222E6500001EC5DE6508F
:103D18000001ED59D8A0A7D0000E1200ECC0E1F0C8
:103D2800EDC0E2F0040E0001E36F0001D890E23329
:103D3800E1330001E32FF9D7FF0E0001E46FFF0E16
:103D48000001E56F000120EE04F0DF51D926E051B3
:103D5800DA2210EE25F0DE50E126DD50E222E750AF
:103D68000001E66FE76B0001E4510001E62700015E
:103D7800E5510001E7230001E1510001E6170001C8
:103D8800E2510001E7170001E6510001E711D8A44C
:103D98006AD0000120EE0AF0DF51D926E051DA227C
:103DA800DECFA5F0DECFA6F0DECFA7F0DECFA8F0FD
:103DB800CCEC09F0A5C0E8F0A6C0E9F0A7C0EAF08D
:103DC800A8C0EBF00001EB510001EA110001E91174
:103DD80005E1020E0001E85DD8A01BD0000120EE2D
:103DE80004F0DF51D926E051DA2210EE18F0DE5047
:103DF800E126DD50E222E6500001E85DE6500001D0
:103E0800E959E6500001EA59E6500001EB59D8A0FB
:103E180002D0000E1200000120EE0AF0DF51D92670
:103E2800E051DA22E8C0DEFFE9C0DEFFEAC0DEFFCB
:103E3800EBC0DEFFE8C022F0E9C023F0EAC024F0BE
:103E4800EBC025F049EC24F0000120EE0EF0DF5124
:103E5800D926E051DA2222C0DEFF23C0DEFF24C0CB
:103E6800DEFF25C0DEFF000120EE02F0DF51D9267B
:103E7800E051DA22ECC0DEFFEDC0DDFF010E1200DA
:103E8800D59E01016205D8B41200010E0101626FCE
:103E9800100E0101DA6F940EE82EFED7DA2FFCD748
:103EA80000F0300E166E030E176E000E6AEC29F045
:103EB8000201DE6F8A880201DE510201D8A423D0F4
:103EC800000E196E010EFAEC27F0850E196E610EC0
:103ED8001A6E41EC29F00E0E196E020EFAEC27F05C
:103EE800DEC22EF02F6A95EC2AF0070E0101DB6F77
:103EF800170E0101DA6F6A0EE82EFED7DA2FFCD70B
:103F0800DB2FFAD700F00201DE510201D8A412001B
:103F1800100E0101DA6F940EE82EFED7DA2FFCD7C7
:103F280000F0000E196E010EFAEC27F0950E196ECE
:103F3800610E1A6E41EC29F0B9EC2BF0DF0E01018D
:103F4800926F020E0101936F300E0101946F620EA1
:103F58000101956F000E0101966F32EC06F0020127
:103F6800DE6F000E196E020EFAEC27F0260E196E9F
:103F7800620E1A6E41EC29F00E0E196E020EFAEC62
:103F880027F0DEC22EF02F6A95EC2AF00201DE51EE
:103F98000201D8A467D00E0E196E020EFAEC27F0B3
:103FA8000201DE510101DA6FDB6BDAC119F0DBC106
:103FB8001AF041EC29F00201DE510201D8A42DD0FB
:103FC800000E196E020EFAEC27F0CA0E196E020ED8
:103FD8001A6E41EC29F0DF0E0001B46F020E0001E9
:103FE800B56FE9EC2AF0000E196E020EFAEC27F014
:103FF800EB0E196E600E1A6E41EC29F03D0E0101B0
:10400800DB6FE10E0101DA6F3F0EE82EFED7DA2FE3
:10401800FCD7DB2FFAD700D01200000E196E020E63
:10402800FAEC27F0640E196E620E1A6E41EC29F054
:10403800000E196E010EFAEC27F0DEC22EF02F6A80
:1040480095EC2AF03D0E0101DB6FE10E0101DA6FFC
:104058003F0EE82EFED7DA2FFCD7DB2FFAD700D099
:10406800D58E1200D58E1200000E0001796F000E59
:10407800786F000E00017B6F000E7A6F8B8E8A9826
:104088000A0EEFEC28F0000E0001676F000E686F53
:10409800000E696F000E6A6F000E00016B6F580EFC
:1040A800B2EC29F08A88C0EC2BF000017E6F000189
:1040B8007E510001D8A4F7D7100E0001756F940E39
:1040C800E82EFED7752FFCD700F08B8E8A98FE0E4F
:1040D80067EC28F08A88100E0001756F940EE82EA0
:1040E800FED7752FFCD700F08B8E8A986EC0D9FF4B
:1040F8006FC0DAFFDF5067EC28F000016E4B6F2BC2
:104108008A8847D0C0EC2BF000017E6F00017E51F9
:104118000001D8A4F7D7000E00017C6F1ED08B8E4B
:104128008A98020EEFEC28F0FC0E67EC28F08A88DB
:104138008B8E8A986EC0D9FF6FC0DAFFDF5067ECAC
:1041480028F000016E4B6F2B8A888B8E8A98FD0EA3
:1041580067EC28F08A8800017C2B74C016F0176A77
:10416800020E196E000E186EC8EC26F000017C5184
:104178000001756F766B16500001755D0001765170
:10418800800A0001776F1750800A00017759D8A07C
:10419800C6D7100E0001756F940EE82EFED7752F46
:1041A800FCD700F08A988B8E020EEFEC28F0000EF8
:1041B8000001676F000E686F000E696F000E6A6F6E
:1041C800FF0E00016B6F4D0EB2EC29F08A88C0EC2F
:1041D8002BF000017E6F00017E510001D8A4F7D7B3
:1041E800000E196E010EFAEC27F000017D51000156
:1041F800756F766B75C019F076C01AF041EC29F02E
:104208007A0E0001766FC10E0001756F810EE82EDF
:10421800FED7752FFCD7762FFAD700D000017D5135
:104228001200D8901F300001616F1E300001606FCE
:104238001C500001626F1D500001636F0001646B28
:104248000001656B050ED89000016237633764374B
:104258006537E82EF8D71A500001666F1B50000129
:10426800676F0001686B0001696B0B0ED890000145
:104278006637673768376937E82EF8D721C06AF09C
:1042880000016B6B6C6B6D6B6BC06DF06AC06CF092
:1042980000016B6B6A6B21C06EF000016F6B706B75
:1042A800716B150ED89000016E376F377037713704
:1042B800E82EF8D722C072F00001736B746B756B2F
:1042C800190ED89000017237733774377537E82E96
:1042D800F8D700016E51000172110001766F0001DC
:1042E8006F51000173110001776F000170510001D7
:1042F80074110001786F00017151000175110001FE
:10430800796F00016A510001761100017A6F00018E
:104318006B510001771100017B6F00016C510001A6
:10432800781100017C6F00016D51000179110001C5
:104338007D6F0001665100017A1100017E6F000156
:10434800675100017B1100017F6F00016851000176
:104358007C110001806F0001695100017D1100018D
:10436800816F0001625100017E110001826F00011E
:10437800635100017F110001836F00016451000146
:1043880080110001846F0001655100018111000155
:10439800856F0001605100018211166E00016151A4
:1043A80000018311176E000E00018411186E000EB3
:1043B80000018511196E120020C016F021C017F0F7
:1043C800000E196E200E186E000E1B6E0B0E1A6E64
:1043D80002EC2BF0000E286E180E266E000E296EC9
:1043E800080E43D01EC0D9FF1FC0DAFFDFCF22F06E
:1043F800010EDE26DFCF23F0000EDD2222C0F6FFFD
:1044080023C0F7FF0800F5CF2AF02A50D8B404D00B
:104418002F0E2A18D8A413D02950D8B48ED02850DB
:104428002614226E2250246E256A20EE0BF02050AE
:10443800D9262150DA2224C0DFFF2A501200200E8C
:104448002A647BD07F0E2A18D8B477D02E0E2A186B
:10445800D8A40DD028B071D02950D8B46ED0090E88
:1044680029606BD0080E296E0B0E276EBBD7800E05
:104478002A6403D09F0E2A6406D0DF0E2A640FD068
:10448800FD0E2A600CD02950D8A406D0E50E2A18B3
:10449800D8A402D0050E2A6E010E281A3ED0220E8C
:1044A8002A18D8B44AD02A0E2A6001D035D02D0E49
:1044B8002A6001D042D03A0E2A6001D02DD0400E99
:1044C8002A6001D03AD028B027D07C0E2A18D8B458
:1044D80034D05A0E2A6404D05E0E2A6001D02DD042
:1044E800400E2A640AD05B0E2A6007D0080E2718EF
:1044F800D8A402D0269601D02698600E2A640CD043
:104508007B0E2A6009D0200E2A5E080E2718D8A430
:1045180002D0288601D0288828902750295CD8B056
:104528000CD02950010DF3502024D96EF4502120CD
:10453800DA6E2AC0DFFF292A55D7010E1200346E21
:10454800C69A3F0EC716000EC66E3450C6123150BA
:10455800C712939805D0C78C16D0C78CC68813D0BD
:104568003050000AD8B4F7D7020AD8B4F6D7010AEF
:10457800D8B4F4D708D0938293880FD093820DD003
:10458800939293980AD03450000AD8B4F9D7040A01
:10459800D8B4F1D7010AD8B4F1D7939293989380FD
:1045A800949EC68A010E196E010EFAEC27F0300EA1
:1045B800196E610E1A6E41EC29F07A0E336EC10E37
:1045C800326E820EE82EFED7322EFCD7332EFAD763
:1045D800000E196E010EFAEC27F0FD0E196E600E32
:1045E8001A6E41EC29F00B0E196E010EFAEC27F049
:1045F80030C02EF02F6A95EC2AF0000E196E020ECC
:10460800FAEC27F00E0E196E610E1A6E41EC29F0C5
:104618000B0E196E020EFAEC27F034C02EF02F6A3A
:1046280095EC2AF07A0E336EC10E326E820EE82EA9
:10463800FED7322EFCD7332EFAD7000E196E010E94
:10464800FAEC27F01F0E196E610E1A6E41EC29F074
:104658000B0E196E010EFAEC27F031C02EF02F6AFE
:1046680095EC2AF07A0E336EC10E326E820EE82E69
:10467800FED7322EFCD7332EFAD7010E3DEC26F0AA
:10468800120035C0EBF036C0ECF05AD0DFC0A5F010
:10469800E0C0A6F0E1C0A7F0E2C0A8F0CCEC09F0B9
:1046A800A5C0E7F0A6C0E8F0A7C0E9F0A8C0EAF006
:1046B8000001E7050001E8110001E9110001EA1114
:1046C800D8A402D0000E1200DFC0A5F0E0C0A6F00A
:1046D800E1C0A7F0E2C0A8F0000E0001A96F000E2B
:1046E800AA6F000EAB6F000EAC6FA9EC0FF00009BB
:1046F800D8A402D0000E1200000120EE20F0EB51E9
:10470800D926EC51DA22DE2807E1DE2805E1DE2889
:1047180003E1DE28D8B40CD0000120EE20F0EB51E4
:10472800D926EC51DA22DE2A000EDE22DE22DE2233
:10473800E7C0DFF0E8C0E0F0E9C0E1F0EAC0E2F08D
:104748000001E2510001E1110001E01105E1020E52
:104758000001DF5DD8A015D0000120EE18F0EB5164
:10476800D926EC51DA22DE500001DF5DDE5000016F
:10477800E059DE500001E159DE500001E259D8A0AD
:1047880085D7010E12000600FACF07F0FBCF08F01C
:10479800E9CF09F0EACF0AF0E1CF0BF0E2CF0CF055
:1047A800D9CF0DF0DACF0EF0F3CF0FF0F4CF10F031
:1047B800F6CF11F0F7CF12F0F8CF13F0F5CF14F0D1
:1047C8009DBA9EAA04D0A9EC2BF0426E9E9AF2B430
:1047D800F2A439D0F294010E416E000E156E010E4E
:1047E800156401D019D01550020D4A0EF324D96E64
:1047F800010EF420DA6EDE50DE10D8B40BD015505E
:10480800020D4A0EF324D96E010EF420DA6EDE068C
:10481800000EDD5A152AE3D74004D8A40ED00101B2
:104828005E07D8A05F0701015E5101015F11D8A49E
:1048380004D0000EFA6E000EF96E000E026E830EA2
:10484800016EA0EC2BF0F2B2F2A801D0F29214C0E3
:10485800F5FF13C0F8FF12C0F7FF11C0F6FF10C034
:10486800F4FF0FC0F3FF0EC0DAFF0DC0D9FF0CC074
:10487800E2FF0BC0E1FF0AC0EAFF09C0E9FF08C078
:10488800FBFF07C0FAFF4A92110035C02BF036C073
:104898002CF0020E225E000E235A245A255A20EECE
:1048A80018F02B50D9262C50DA22FE0EDE24266E64
:1048B800FF0EDE20276EFF0EDE20286EFF0EDE20A4
:1048C800296E2650225C27502358285024582950F6
:1048D8002558D8A009D0000E226E000E236E000EB7
:1048E800246E000E256E120020EE10F02B50D926F3
:1048F8002C50DA22DECF26F0DECF27F0DECF28F0EC
:10490800DECF29F020EE25F02B50D9262C50DA22C4
:10491800DF502A6E2A50166E176A186A196A22C062
:104928001AF023C01BF024C01CF025C01DF0C4ECF5
:1049380028F026501624226E27501720236E285060
:104948001820246E29501920256E1200000E00012F
:10495800FF6F010E0001FF6501D012000001FF5139
:10496800020D520EF324D96E010EF420DA6EDE50D9
:10497800DE10D8B441D00001FF51020D4A0EF324D5
:10498800D96E010EF420DA6EDE50DE10D8A434D0D1
:10499800010E406EFD0E01015F6FE80E5E6F0001B3
:1049A800FF51020D520EF324D96E010EF420DA6E77
:1049B80001D80AD00500FA6EDE50FD6EDE50FE6E9C
:1049C800F850FF6EFA501200000E406E0001FF51C1
:1049D800020D4E0EF324D96E010EF420DA6E00019A
:1049E800FF51020D4A0EF324E16E010EF420E26E2F
:1049F800DECFE6FFDDCFE5FF0001FF2BAAD71FC002
:104A080023F020C024F023C016F024C017F021C0E2
:104A180018F022C019F018EC29F016C023F017C0BE
:104A280024F01D4A1E2A23502410D8A4ECD71DC0F8
:104A3800D9FF1EC0DAFF000EDF6E1D06D8A01E06C5
:104A48001FC016F020C017F021C018F022C019F0BE
:104A580017EC2AF01650256E1FC016F020C017F06C
:104A680021C018F022C019F018EC29F016C01FF068
:104A780017C020F0090E256402D0070E2526300E37
:104A880025261DC0D9FF1EC0DAFF25C0DFFF1D0681
:104A9800D8A01E061F502010D8A4D2D71D4A1E2AFF
:104AA80012009594959295909598959A959C959EB7
:104AB800839483928390839E839C838A8388EA0E5F
:104AC800196EC30EE82EFED7192EFCD700F083808E
:104AD8003FEC2BF083903FEC2BF04E0E196EEB0E53
:104AE800E82EFED7192EFCD700F083803FEC2BF080
:104AF80083903FEC2BF04E0E196EEB0EE82EFED78E
:104B0800192EFCD700F083803FEC2BF083903FEC0C
:104B18002BF0839E839C838A839883803FEC2BF0C1
:104B280083903FEC2BF0280E3DEC26F0060E3DEC72
:104B380026F00E0E3DEC26F0010E3DEC26F012009C
:104B480040D016C0D9FF17C0DAFFDF501C6E18C05E
:104B5800F6FF19C0F7FFF86A070EF76403D00800DC
:104B6800F55005D0F6CFE9FFF7CFEAFFEF501C1854
:104B7800D8B423D018C0F6FF19C0F7FFF86A070E9B
:104B8800F76403D00800F55005D0F6CFE9FFF7CF5A
:104B9800EAFFEF501C6E1D6A1C1E1D1E1C4A1D2AB2
:104BA80016C0D9FF17C0DAFFDF501E6E1E501C2436
:104BB800166E000E1D20176E1200164A172A184A84
:104BC800192A1A06D8A01B061A28BBE11B28D8A444
:104BD800B8D7000E176E000E166E120000018A6F0D
:104BE8003BD083C06EF084C06FF085C070F086C083
:104BF80071F087C072F088C073F089C074F0E8EC77
:104C08000CF0346E345000018B6F8C6B8BC08DF0C0
:104C180000018D51120083C06EF084C06FF085C012
:104C280070F086C071F087C072F088C073F089C0D8
:104C380074F0E8EC0CF0346E345000018B6F8C6B20
:104C48008BC08DF037C083F038C084F000018D51DF
:104C5800120000018D51120000018A51000AD8B4D7
:104C6800DAD7010AD8B4BDD7030AD8B4F2D7040EEC
:104C78001200186E83948392839018A802D08388B8
:104C880001D0839818AA02D0838A01D0839A18ACDD
:104C980002D0838C01D0839C18AE02D0838E01D0C1
:104CA800839E83803FEC2BF083903FEC2BF018A081
:104CB80002D0838801D0839818A202D0838A01D0B9
:104CC800839A18A402D0838C01D0839C18A602D0A2
:104CD800838E01D0839E83803FEC2BF083903FEC42
:104CE8002BF01804D8B408D0020E1818D8B404D081
:104CF800030E1818D8A412003FEC2BF01200000184
:104D0800866F35D07FC06EF080C06FF081C070F0C4
:104D180082C071F083C072F084C073F085C074F0F3
:104D280038EC20F0346E34500001876F886B87C0F0
:104D380089F00001895112007FC06EF080C06FF0C9
:104D480081C070F082C071F083C072F084C073F0CB
:104D580085C074F038EC20F0346E34500001876F51
:104D6800886B00018951120000018951120000016D
:104D78008651000AD8B4E0D7010AD8B4C3D7030AC9
:104D8800D8B4F2D7040E1200000E1B6E19AE06D06E
:104D9800186C191ED8B0192A010E1B6E17AE06D052
:104DA800166C171ED8B0172A010E1B1A000E1D6E9E
:104DB800000E1C6E18501910D8B41CD0010E1A6EB3
:104DC80004D0D890183619361A2A19AEFAD7D890BE
:104DD8001C361D361850165C19501758D8A005D027
:104DE8001850165E1950175A1C80D890193218326C
:104DF8001A2EEDD71B50D8B404D01C6C1D1ED8B089
:104E08001D2A1CC016F01DC017F01200000E1E6EE1
:104E1800000E1F6E000E206E000E216E1A501B1021
:104E28001C101D10D8B42AD0010E226E06D0D890BE
:104E38001A361B361C361D36222A1DAEF8D7D890D6
:104E48001E361F36203621361A50165C1B5017584E
:104E58001C5018581D501958D8A009D01A50165E61
:104E68001B50175A1C50185A1D50195A1E80D8909A
:104E78001D321C321B321A32222EE1D71EC016F008
:104E88001FC017F020C018F021C019F01200680EDA
:104E9800F66E600EF76E20EE60F0100E0900F5CF8A
:104EA800DEFFE806FBE2570EF66E600EF76E20EEA8
:104EB80071F0100E0900F5CFDEFFE806FBE2000EE8
:104EC800196E010EFAEC27F0600E196E000E1A6EBC
:104ED80041EC29F0000E196E020EFAEC27F0710E63
:104EE800196E000E1A6E41EC29F03D0E1D6EE10E92
:104EF8001C6E400EE82EFED71C2EFCD71D2EFAD7AE
:104F0800010E3DEC26F01200A20EF66E560EF76E5C
:104F1800000EF86E01EEDEF010EE1DF00900F5CF80
:104F2800EEFFE550E150FAE103EE30F012EE28F022
:104F3800EE6AE550E150FCE1E250FAE103EE00F0E0
:104F4800300EEE6AE806FDE102EE00F0DE0EEE6AD3
:104F5800E806FDE101EE00F0790EEE6AE806FDE1F3
:104F680000EE35F0150EEE6AE806FDE14A904A9229
:104F7800000EF86E0001D0EF2AF0186E8394838239
:104F8800839018A802D0838801D0839818AA02D0E9
:104F9800838A01D0839A18AC02D0838C01D0839C79
:104FA80018AE02D0838E01D0839E83803FEC2BF015
:104FB80083903FEC2BF018A002D0838801D083980F
:104FC80018A202D0838A01D0839A18A402D0838CB5
:104FD80001D0839C18A602D0838E01D0839E838043
:104FE8003FEC2BF083903FEC2BF012001A6E000E72
:104FF8001B6E110E19602FD01ED019C01BF01B504C
:1050080032EC28F026D01950400F1B6E1B5032ECA2
:1050180028F01FD01950140F1B6E1B5032EC28F0CB
:1050280018D01950540F1B6E1B5032EC28F011D0B9
:10503800000E1B6E0ED01A50010AD8B4DED7030A30
:10504800D8B4E1D7010AD8B4E5D7070AD8B4E9D764
:10505800EFD7192A1200000E1B6E1200186E8394E7
:1050680083928390838E18A802D0838801D0839876
:1050780018AA02D0838A01D0839A18AC02D0838CF4
:1050880001D0839C83803FEC2BF083903FEC2BF086
:1050980018A002D0838801D0839818A202D0838AEE
:1050A80001D0839A18A402D0838C01D0839C18A6BF
:1050B80002D0838E01D0839E83803FEC2BF08390B7
:1050C8003FEC2BF01200336EC9CF32F09E96C69E8D
:1050D800C790000EC96E040E316E0C0E306E340E81
:1050E800E82EFED7302EFCD7312EFAD733C0C9FFB1
:1050F800C6BE120015D0000E196E010EFAEC27F08C
:105108003A0E196E620E1A6E41EC29F00D0E196EE8
:10511800010EFAEC27F0C9CF2EF02F6A95EC2AF091
:105128009EB61200E8D735C0A5F036C0A6F000013B
:1051380020EE27F0A551D926A651DA22010EDF6EFE
:10514800000E00018E6F000E8F6F000E906F000E24
:10515800916F28EC1DF00009D8A402D0080E1200A7
:10516800000E166E000E176E000E186E000E18EC6C
:105178002BF00009D8B402D0080E1200000E12005D
:10518800000E1E6E000E1F6E000E206E000E216EA9
:1051980016A008D01A501E261B501F221C50202271
:1051A8001D502122D8901A361B361C361D36D89031
:1051B80019321832173216321650171018101910E3
:1051C800D8A4E6D71EC016F01FC017F020C018F0EC
:1051D80021C019F012000001696F100E0001676FFD
:1051E800940EE82EFED7672FFCD700F0000E0001C2
:1051F8006B6F000E6A6F08D08A88FF0E67EC28F084
:105208008A9800016A4B6B2B000169510001676F96
:10521800686B0001675100016A5D00016851000177
:105228006B59D8B01200E8D7000E1C6E000E1B6E2A
:1052380018501910D8B41CD0010E1A6E04D0D8908A
:10524800183619361A2A19AEFAD7D8901B361C36D2
:105258001850165C19501758D8A005D01850165E6B
:105268001950175A1B80D890193218321A2EEDD7B8
:105278001BC016F01CC017F0120014D019C0F6FF9E
:105288001AC0F7FFF86A070EF76403D00800F55054
:1052980005D0F6CFE9FFF7CFEAFFEF50C1EC27F0D2
:1052A800194A1A2A19C0F6FF1AC0F7FFF86A070E3A
:1052B800F76403D00800F55005D0F6CFE9FFF7CF23
:1052C800EAFFEF500009D8B41200D8D7186E18506A
:1052D800D8B402D0050E120035503610D8B408D014
:1052E80020EE24F03550D9263650DA22000EDF6E33
:1052F80016C035F017C036F016501710D8B408D0BD
:1053080020EE24F01650D9261750DA22000EDF6E50
:10531800000E12001D501E10D8B414D020EE24F038
:105328001D50D9261E50DA22DF50D8B40BD01DC02C
:10533800D9FF1EC0DAFF1F50DE1804E12050DE1826
:10534800D8B402D00C0E1200000E58EC2AF0216ED0
:1053580021A002D0010E1200000E120000016C6F95
:1053680000016C5167EC28F06AC06DF000016D51C6
:1053780067EC28F069C06DF000016D5167EC28F00A
:1053880068C06DF000016D5167EC28F067C06DF0E2
:1053980000016D5167EC28F000016B5167EC28F0B3
:1053A80012000001766F11D09EEC16F00001776FA5
:1053B8000001775112009EEC16F00001776F000192
:1053C8007751120000017751120000017651000A4E
:1053D800D8B4F1D7010AD8B4E7D7030AD8B4F2D7BA
:1053E800010E120026C02CF027C02DF029AE0CD0DB
:1053F80026C0D9FF27C0DAFF2D0EDF6E264A272ADE
:10540800286C291ED8B0292A26C01DF027C01EF0F6
:1054180028C01FF029C020F02AC021F02BC022F09C
:1054280003EC25F0120018501910D8B418D0010E4A
:105438001A6E04D0D890183619361A2A19AEFAD727
:105448001850165C19501758D8A004D01850165E7A
:105458001950175AD890193218321A2EF1D716C087
:1054680016F017C017F0120018C01EF019C01FF070
:1054780016C01CF017C01DF00ED01EC0D9FF1FC0EB
:10548800DAFF1CC0E1FF1DC0E2FFDFCFE7FF1E4AC5
:105498001F2A1C4A1D2A1A06D8A01B061A28EDE145
:1054A8001B28D8B41200E9D71B6E11D01B5084EC0E
:1054B8002BF01C6E1C5012001B5084EC2BF0186E45
:1054C8001850196E1A6A1C5012001C5012001B50FA
:1054D800000AD8B4F1D7010AD8B4E8D7030AD8B477
:1054E800F4D7010E12009E96C9CF30F0000EC96E97
:1054F8000AD0000E196E020EFAEC27F0C9CF2EF072
:105508002F6A95EC2AF09EA6F4D7040E196E020EA7
:10551800FAEC27F0C9CF2EF02F6A95EC2AF0C95083
:10552800120021EEF4F010EE60F0060EDBCFE3FF80
:10553800E806FCE2600E266E000E276E2EC028F0EC
:105548002FC029F0000E2B6E0A0E2A6EF6EC29F0F9
:10555800600E196E000E1A6E41EC29F01200880ECA
:105568000101526F3E0E0101536F130E01014F6F7F
:10557800880E4E6F130E0101516F880E506F130E77
:1055880001014B6F880E4A6F130E01014D6F880E93
:105598004C6F000E406E120079EC2BF055EC25F0A4
:1055A8004BEC27F0B3EC2AF0030E306E000E316E90
:1055B800000EA3EC22F00F0EC16E4104D8A4FDD753
:1055C800000E416EAAEC24F0F8D7B4C0A7F0B5C01D
:1055D800A8F0ABEC1BF00001B66F0001B65100015A
:1055E800D8A41200000120EE04F0B451D926B55118
:1055F800DA22000EDE6E000EDD6E120016C01CF000
:1056080017C01DF008D01CC0D9FF1DC0DAFF18C094
:10561800DFFF1C4A1D2A1A06D8A01B061A28F3E128
:105628001B28D8B41200EFD7196E06D01A501200F2
:105638001A5012001A5012001950000AD8B4F8D79C
:10564800010AD8B4F3D7030AD8B4F4D7040E120069
:1056580016501802F3CF1AF0F4CF1BF016501902A7
:10566800F3501B2617501802F3501B261AC016F0C9
:105678001BC017F01200000E166E630E166401D0E0
:10568800120000F0000E176E310E176401D003D01F
:1056980000F0172AF9D7162AF0D7636865636B2ECE
:1056A8007478740000000000003030303030300072
:0756B80030303030303000CB
:1056C000C30ED56E000E656E000E636E000E176E73
:1056D000830E166E97EC2BF01200210E936E8A68E3
:1056E000000E956E070E926E110E946E030E966E5E
:1056F0001200C6EC2BF06DEC2BF060EC2BF0B2EC52
:105700002BF08EEC2BF01200176E000E166E175059
:10571000D8B402D0010E1200000E1200A00EF26EDC
:10572000000EF16E000EF06E080E9D6E120016C097
:1057300018F017C019F019C0D7FF18C0D6FF120013
:1057400001C003F002C004F004C0D7FF03C0D6FFBD
:1057500012009EAAFED7ABA203D0AB9800F0AB8894
:10576000AE501200040ECA6E000ECC6E780ECB6ED8
:1057700012008A988B8EFF0E67EC28F08A88120040
:105780008A9877EC2AF0316E31501200D388D38A90
:04579000D38C1200A4
:105FE00000010000000A00000064000000E8030057
:105FF0000010270000A086010040420F0080969804
:106000000000E1F50500CA9A3B00803F00204100F6
:10601000C842007A44401C4650C34724744997182C
:106020004BBCBE4C6B6E4E03155079AD60F349719D
:1060300000803FCDCC3DD7233C12833AB7D138C640
:106040002737388635C0D633CC2B32708930E7DB22
:106050002EE53C1E42A20D20202030342F30332F5D
:1060600032303232202020002020534443617264B9
:1060700020496E697420202000202020202020202C
:1060800020202020202020202020200020666D7449
:10609000312020202020202020202020202000200F
:1060A000666D7432202020202020202020202020F7
:1060B00020004641543332203E2020202020202042
:1060C00020202020005265632E207369672E202037
:1060D000202020202020200061677561726420301C
:1060E00078464620202020202020004172717569CA
:1060F000766F2072656E6F6D6561646F00425553F7
:10610000204D4F444520202020202020200053599E
:106110004E43204D4F444520202020202020005376
:106120004D50205048415345202020202020200061
:1061300053504920636F6E666967757261646121AF
:1061400000464154203E20202020202020202020D6
:1061500020005365742E203531326220202020200B
:106160002020004167756172642030584645202028
:10617000202020004572726F2049646C65205374A2
:10618000202020200053697374656D61204D6F6E6F
:106190007461646F00437269616E646F2061727133
:1061A0007569766F00425042203E2020202020203A
:1061B00020202020004946202020203E2020202092
:1061C00020202020006167756172642030783030B3
:1061D0002020202000616775617264203078464578
:1061E0002020202000627566666572206C656974E7
:1061F0002E2020200000202D3E20202020202020A6
:106200002020004C6F616420426F6F742020004991
:106210006E732E2043617274616F0053656D20436D
:10622000617274616F00526573756C7461646F00A4
:1062300074657374652E7478740021504952424914
:1062400054530025643A25643A256400464154338A
:106250003200486F72613A00446174613A00252E41
:10626000303766004552524F0030784646004C6F3A
:106270006E3A004C61743A00464154000D0A000029
:020000040020DA
:08000000FFFFFFFFFFFFFFFF00
:020000040030CA
:0E000000040C1F1EFF8081FF0FC00FE00F4099
:00000001FF
