:0400000007EF00F016
:100008005F8209ED00F0CAEF04F00600FACF24F091
:10001800FBCF25F0E9CF26F0EACF27F0E1CF28F093
:10002800E2CF29F0D9CF2AF0DACF2BF0F3CF2CF09A
:10003800F4CF2DF0F6CF2EF0F7CF2FF0F8CF30F029
:10004800F5CF31F05FC032F060C033F061C034F0FA
:1000580062C035F09DBA9EAA1ED0EEEC07F05E6E27
:100068009E9A5E50E2EC01F08AA802D0010E01D0FF
:10007800000EFF0A226E223A8A502218EF0B22182D
:100088008A6E010E046E010E74EC05F0AECF19F005
:100098001A6AF9EC06F0F2B4F2A437D0F294010E21
:1000A8000001A06F000E366E010E366401D019D023
:1000B8003650020D3E0EF324D96E000EF420DA6E8F
:1000C800DE50DE10D8B40BD03650020D3E0EF324AD
:1000D800D96E000EF420DA6EDE06000EDD5A362ADE
:1000E800E3D75D04D8A40BD05206D8A053065250CB
:1000F8005310D8A404D0000EFA6E000EF96E000E4C
:10010800026E830E016EE5EC07F0F2B2F2A801D0A0
:10011800F29235C062F034C061F033C060F032C092
:100128005FF031C0F5FF30C0F8FF2FC0F7FF2EC0D9
:10013800F6FF2DC0F4FF2CC0F3FF2BC0DAFF2AC056
:10014800D9FF29C0E2FF28C0E1FF27C0EAFF26C087
:10015800E9FF25C0FBFF24C0FAFF5F921100BEC073
:10016800C2F0BFC0C3F0C0C0C4F0C1C0C5F0060E25
:10017800D8900001C237C337C437C537E82EF8D73F
:10018800C21FC31FC41FC51FC22B000EC323C42315
:10019800C523000EC225B06F6C0EC321B16FDC0EF3
:1001A800C421B26F020EC521B36FBEC0C6F0BFC076
:1001B800C7F0C0C0C8F0C1C0C9F0060ED890C63795
:1001C800C737C837C937E82EF9D7C6C0B4F0C7C093
:1001D800B5F0C8C0B6F0C9C0B7F068EC02F0B0C05E
:1001E800CAF0B1C0CBF00001CB05D8A044D0BEC046
:1001F800C2F0BFC0C3F0C0C0C4F0C1C0C5F0040E97
:10020800D890C237C337C437C537E82EF9D7C21FCD
:10021800C31FC41FC51FC22B000EC323C423C5237D
:10022800000EC225B06F6C0EC321B16FDC0EC42165
:10023800B26F020EC521B36FBEC0C6F0BFC0C7F013
:10024800C0C0C8F0C1C0C9F0040ED890C637C737BF
:10025800C837C937E82EF9D7C6C0B4F0C7C0B5F05B
:10026800C8C0B6F0C9C0B7F068EC02F0B0C0CAF0B8
:10027800B1C0CBF0AC840001CB05D8B01200CAC025
:10028800AFFFAC98AB8E948E949CAB88AC8A12006E
:10029800000E0001BE6F010EBE6501D01200000EF7
:1002A800BD6F070EBD6501D05ED0BE51ACEC05F048
:1002B8000001BD51020D010EF326000EF422600E5E
:1002C800B76F000EB86FF350B727F450B823BE517C
:1002D800130DF350B725D96EF450B821DA6EB0C0BB
:1002E800DEFFB1C0DDFFBD51020D010EF326000E89
:1002F800F422600EB76F000EB86FF350B727F450B2
:10030800B823BE51130DF350B725D96EF450B82158
:10031800DA6EDECFB9F0DDCFBAF0BE51130D110E93
:10032800F326000EF422600EF324D96E000EF4209A
:10033800DA6EDECFBBF0DDCFBCF0B951BB27BA51C6
:10034800BC23BE51130D110EF326000EF422600ECD
:10035800F324D96E000EF420DA6EBBC0DEFFBCC0F9
:10036800DDFFBD2B9ED7BE51130D110EF326000ED7
:10037800F422600EF324D96E000EF420DA6EDECF7C
:10038800B7F0DDCFB8F0D890B833B733D890B833DA
:10039800B733D890B833B733BE51130D110EF326C7
:1003A800000EF422600EF324D96E000EF420DA6EEB
:1003B800B7C0DEFFB8C0DDFFBE2B6DD7016E240EBF
:1003C8000118D8A410D0000E516E000E506E000E09
:1003D8004F6E000E4E6E000E596E000E586E000ED7
:1003E8005A6E000E576E5904D8A41AD02C0E011854
:1003F800D8A40BD05A50010DAA0EF324D96E010EC1
:10040800F420DA6E50C0DFFF5A2A000E5024D96E4D
:10041800010E5120DA6E01C0DFFF504A512A1BD06D
:10042800470E4518D8A411D0470E4618D8A40DD0A9
:10043800410E4718D8A409D0010E596E000E456E1A
:10044800000E466E000E476E06D046C045F047C007
:1004580046F001C047F05804D8A41AD02C0E011851
:10046800D8A40BD05750010D860EF324D96E000E78
:10047800F420DA6E4EC0DFFF572A500E4E24D96E94
:10048800010E4F20DA6E01C0DFFF4E4A4F2A1200DC
:10049800520E4218D8A411D04D0E4318D8A40DD02E
:1004A800430E4418D8A409D0010E586E000E426EAF
:1004B800000E436E000E446E120043C042F044C06A
:1004C80043F001C044F01200000E0001B96FB7AF4D
:1004D8000AD0B71FB61FB51FB46D000EB523B623DB
:1004E800B723010EB96FB3AF0AD0B31FB21FB11F44
:1004F800B06D000EB123B223B323010EB91B000E59
:10050800BA6F000EBB6F000EBC6F000EBD6FB4510A
:10051800B511B611B711D8B42AD0010EB86F06D0EC
:10052800D890B437B537B637B737B82BB7AFF8D791
:10053800D890BA37BB37BC37BD37B451B05DB55169
:10054800B159B651B259B751B359D8A009D0B4511D
:10055800B05FB551B15BB651B25BB751B35BBA810D
:10056800D890B733B633B533B433B82FE1D7B951D0
:10057800D8B408D0BD1FBC1FBB1FBA6D000EBB236B
:10058800BC23BD23BAC0B0F0BBC0B1F0BCC0B2F050
:10059800BDC0B3F01200000E0001B26F010EB265CB
:1005A80001D01200B251020D9A0EF324D96E000E3A
:1005B800F420DA6EDE50DE10D8B43DD0B251020D10
:1005C8003E0EF324D96E000EF420DA6EDE50DE10F3
:1005D800D8A431D0010E5D6EFD0E536EE80E526E3A
:1005E800B251020D9A0EF324D96E000EF420DA6E81
:1005F80001D80AD00500FA6EDE50FD6EDE50FE6EA0
:10060800F850FF6EFA501200000E5D6E0001B251F4
:10061800020D960EF324D96E000EF420DA6EB25154
:10062800020D3E0EF324E16E000EF420E26EDECFE2
:10063800E6FFDDCFE5FFB22BB1D70AC00EF00BC045
:100648000FF00EC001F00FC002F00CC003F00DC097
:1006580004F069EC06F001C00EF002C00FF0084A81
:10066800092A0E500F10D8A4ECD708C0D9FF09C02A
:10067800DAFF000EDF6E0806D8A009060AC001F0EE
:100688000BC002F00CC003F00DC004F0D8EC06F06B
:100698000150106E0AC001F00BC002F00CC003F04C
:1006A8000DC004F069EC06F001C00AF002C00BF0BE
:1006B800090E106402D0070E1026300E102608C04E
:1006C800D9FF09C0DAFF10C0DFFF0806D8A0090665
:1006D8000A500B10D8A4D2D7084A092A12009594B8
:1006E800959295909598959A959C959E83948392CA
:1006F8008390839E839C838A8388EA0E0001B36F6C
:10070800C30EE82EFED7B32FFCD783804FEC07F03B
:1007180083904FEC07F04E0E0001B36FEB0EE82EFE
:10072800FED7B32FFCD783804FEC07F083904FECB4
:1007380007F04E0E0001B36FEB0EE82EFED7B32F75
:10074800FCD783804FEC07F083904FEC07F0839E33
:10075800839C838A839883804FEC07F083904FECC7
:1007680007F0280EC2EC03F0060EC2EC03F00E0EE2
:10077800C2EC03F0010EC2EC03F012000001B26FEC
:100788008394839283900001B2A902D0838801D018
:100798008398B2AB02D0838A01D0839AB2AD02D0DB
:1007A800838C01D0839CB2AF02D0838E01D0839E0C
:1007B80083804FEC07F083904FEC07F00001B2A163
:1007C80002D0838801D08398B2A302D0838A01D053
:1007D800839AB2A502D0838C01D0839CB2A702D0A1
:1007E800838E01D0839E83804FEC07F083904FEC7B
:1007F80007F00001B205D8B408D0020EB219D8B477
:1008080004D0030EB219D8A412004FEC07F012005E
:10081800830EF66E610EF76E20EEB8F0100E09002A
:10082800F5CFDEFFE806FBE2720EF66E610EF76E9C
:1008380020EEC9F0100E0900F5CFDEFFE806FBE256
:10084800000E0001B36F010E4FEC04F0B80E00016A
:10085800B36F000EB46F16EC06F0000E0001B36F14
:10086800020E4FEC04F0C90E0001B36F000EB46F16
:1008780016EC06F03D0E0001B76FE10EB66F3F0EA5
:10088800E82EFED7B62FFCD7B72FFAD700D0010E27
:10089800C2EC03F012000001B46F000E0001B56F46
:1008A800110EB36134D022D0B3C0B5F0B5513CECD1
:1008B80005F02AD00001B351400FB56FB5513CEC9B
:1008C80005F022D00001B351140FB56FB5513CECBF
:1008D80005F01AD00001B351540FB56FB5513CEC77
:1008E80005F012D0000E0001B56F0ED0B451010A08
:1008F800D8B4DAD7030AD8B4DDD7010AD8B4E2D716
:10090800070AD8B4E7D7EED70001B32B1200000EC0
:10091800B56F12000001B26F839483828390000147
:10092800B2A902D0838801D08398B2AB02D0838A5F
:1009380001D0839AB2AD02D0838C01D0839CB2AF30
:1009480002D0838E01D0839E83804FEC07F0839082
:100958004FEC07F00001B2A102D0838801D0839840
:10096800B2A302D0838A01D0839AB2A502D0838C25
:1009780001D0839CB2A702D0838E01D0839E83804E
:100988004FEC07F083904FEC07F012004C0EF66E18
:100998000F0EF76E000EF86E00EEDAF010EE18F09B
:1009A8000900F5CFEEFFE550E150FAE102EE30F034
:1009B80012EE00F0EE6AE550E150FCE1E250FAE197
:1009C80002EE00F0300EEE6AE806FDE101EE00F0FE
:1009D800DE0EEE6AE806FDE100EE60F0500EEE6A0B
:1009E800E806FDE100EE37F0280EEE6AE806FDE1C4
:1009F8005F905F92000EF86E000134EF07F0036E0F
:100A080083948382839003A802D0838801D083983B
:100A180003AA02D0838A01D0839A03AC02D0838CC4
:100A280001D0839C03AE02D0838E01D0839E838045
:100A380076EC07F0839076EC07F003A002D0838869
:100A480001D0839803A202D0838A01D0839A03A499
:100A580002D0838C01D0839C03A602D0838E01D060
:100A6800839E838076EC07F0839076EC07F0120083
:100A78000001B26F839483928390838E0001B2A9A0
:100A880002D0838801D08398B2AB02D0838A01D088
:100A9800839AB2AD02D0838C01D0839C83804FECC3
:100AA80007F083904FEC07F00001B2A102D08388D1
:100AB80001D08398B2A302D0838A01D0839AB2A5C9
:100AC80002D0838C01D0839CB2A702D0838E01D040
:100AD800839E83804FEC07F083904FEC07F0120061
:100AE800056E000E066E110E04602FD01ED004C0D5
:100AF80006F00650E1EC05F026D00450400F066ED3
:100B08000650E1EC05F01FD00450140F066E065095
:100B1800E1EC05F018D00450540F066E0650E1ECD5
:100B280005F011D0000E066E0ED00550010AD8B49B
:100B3800DED7030AD8B4E1D7010AD8B4E5D7070A43
:100B4800D8B4E9D7EFD7042A1200000E066E1200B7
:100B58000001B66F09D0010E05D0050E03D0090EAD
:100B680001D00D0EC26E0ED00001B651000AD8B4E5
:100B7800F2D7010AD8B4F1D7030AD8B4F0D7010ADA
:100B8800D8B4EFD7C282C2B2FED7C3CFB2F0060E36
:100B98000001B36FD890B233B32FFCD7B251C4CF92
:100BA800B4F0B56BD890B437B537D890B437B537FB
:100BB800B411B06FB551B16F1200036E8394839274
:100BC8008390838E03A802D0838801D0839803AAD8
:100BD80002D0838A01D0839A03AC02D0838C01D0DF
:100BE800839C838076EC07F0839076EC07F003A073
:100BF80002D0838801D0839803A202D0838A01D0CF
:100C0800839A03A402D0838C01D0839C03A602D0CC
:100C1800838E01D0839E838076EC07F0839076ECF8
:100C280007F0120015D0B3C0F6FFB4C0F7FFF86A9A
:100C3800070EF76403D00800F55005D0F6CFE9FF9A
:100C4800F7CFEAFFEF508EEC04F00001B34BB42B62
:100C5800B3C0F6FFB4C0F7FFF86A070EF76403D015
:100C68000800F55005D0F6CFE9FFF7CFEAFFEF50BF
:100C78000009D8B41200D7D714D004C0F6FF05C0B5
:100C8800F7FFF86A070EF76403D00800F55005D09F
:100C9800F6CFE9FFF7CFEAFFEF5003EC05F0044A7F
:100CA800052A04C0F6FF05C0F7FFF86A070EF764C7
:100CB80003D00800F55005D0F6CFE9FFF7CFEAFFDB
:100CC800EF500009D8B41200D8D7000E066E000EF7
:100CD800056E03500410D8B41CD0010E076E04D062
:100CE800D89003360436072A04AEFAD7D8900536CA
:100CF80006360350015C04500258D8A005D00350B2
:100D0800015E0450025A0580D89004320332072E3F
:100D1800EDD705C001F006C002F012000001B16F66
:100D2800000E0001B06FF29E19D0B1BF02D08A9EAA
:100D380001D08A8EB151B125B16F780EE82EFED759
:100D48008A8C780EE82EFED78A9E780EE82EFED77B
:100D58008A9C780EE82EFED70001B02B070EB065EE
:100D6800E4D7F28E120011C017F012C018F014AEBA
:100D78000CD011C0D9FF12C0DAFF2D0EDF6E114A58
:100D8800122A136C141ED8B0142A11C008F012C00D
:100D980009F013C00AF014C00BF015C00CF016C00F
:100DA8000DF021EC03F0120003500410D8B418D051
:100DB800010E056E04D0D89003360436052A04AE19
:100DC800FAD70350015C04500258D8A004D003504D
:100DD800015E0450025AD89004320332052EF1D72E
:100DE80001C001F002C002F0120020EEEBF010EE9C
:100DF8001BF0060EDBCFE3FFE806FCE21B0E116ECC
:100E0800000E126E19C013F01AC014F0000E166E00
:100E18000A0E156EB7EC06F01B0E046E000E056E7A
:100E280040EC06F01200000E82B0010E376E000E84
:100E380082B2010E386E000E82B4010E396E000EB9
:100E480080B4010E3A6E000E80BA010E3B6E000EA1
:100E580084B0010E3C6E000E84B2010E3D6E12008D
:100E6800BEEC07F064EC07F073EC03F008EC08F054
:100E78000CEC04F088EC07F00001A005D8A404D01D
:100E8800000EA06FCFEC02F017EC07F0F7EC07F0BC
:100E98004CEC01F0F1D7000E0001B06F630EB065A5
:100EA80001D0120000F0000E0001B16F310EB165E3
:100EB80001D004D000F00001B12BF8D7B02BEED749
:100EC800949C949E800E0001BE6F250EBF6F000E8D
:100ED800C06F000EC16FB3EC00F0200EAC6E900E28
:100EE800AB6E1200000E016E630E016401D0120099
:100EF80000F0000E026E310E026401D003D000F043
:100F0800022AF9D7012AF0D7180E00019A6F100E9D
:100F18009B6F130E976F880E966F130E3F6E880E99
:100F28003E6E000E5D6E1200C30ED56E000E656E2D
:100F3800000E636E000E0001B16F830EB06FDCEC23
:100F480007F01200636865636B2E747874003030A4
:100F5800303030300030303030303000010E936E99
:100F68008A68000E956E070E926E110E946E030E2F
:100F7800966E120004EC08F0B2EC07F098EC07F05B
:100F8800FEEC07F0D3EC07F012008A9A780EE82EF0
:100F9800FED78A8AF00EE82EFED78A9A1200F00E43
:100FA800F26E000EF16E000EF06E200E9D6E1200B5
:100FB800B0C0B2F0B1C0B3F0B3C0D7FFB2C0D6FF73
:100FC800120001C003F002C004F004C0D7FF03C040
:100FD800D6FF12009EAAFED7ABA203D0AB9800F0B2
:100FE800AB88AE50120000019F5192EC06F0C9EC9C
:100FF80007F01200040ECA6E000ECC6ECB68120009
:10100800D388D38AD38C12008A9A8A9C8A9E12002B
:021018001200C4
:1060BE0000809A90418E418F804545454949498ED1
:1060CE008F9092924F994F555559999A9B9C9D9EA0
:1060DE009F41494F55A5A5A6A7A8A9AAABAC21AE2D
:1060EE00AFB0B1B2B3B4B5B6B7B8B9BABBBCBDBE3A
:1060FE00BFC0C1C2C3C4C5C6C7C8C9CACBCCCDCE2A
:10610E00CFD0D1D2D3D4D5D6D7D8D9DADBDCDDDE19
:10611E00DFE0E1E2E3E4E5E6E7E8E9EAEBECEDEE09
:10612E00EFF0F1F2F3F4F5F6F7F8F9FAFBFCFDFEF9
:10613E00FF2049676E204F6E000000000000000037
:10614E0000002049676E204372616E6B00000000F4
:10615E000000002049676E204F66660000000000B8
:10616E00000000002031382F30312F3230323220F3
:10617E00202000000053444361726420496E69740C
:10618E0020202000000001000A006400E803102710
:10619E0053504920636F6E66696775726164612141
:1061AE00007379737420696E696369616C697A65CD
:1061BE0064006162726972206F2061727175697616
:1061CE006F006D6F756E742066696C6520737973E0
:1061DE000042797465732063726961646F210043B4
:1061EE00617274E36F2041636569746F004572726A
:1061FE006F2074656E74616E646F00417474656DAA
:10620E007074696E6720746F006C6572206F206108
:10621E0072717569766F006C656E646F2061727154
:10622E007569766F00426C6F636F2064652035313F
:10623E003200534443617264206572726F72006360
:10624E006865636B2E747874004572726F722121CB
:10625E00210025643A25643A256400496E6974204C
:10626E004F4B0053445F43617264000D0A002E2EA3
:02627E0000001E
:020000040020DA
:08000000FFFFFFFFFFFFFFFF00
:020000040030CA
:0E000000040C1F1EFF8081FF0FC00FE00F4099
:00000001FF
