:0400000007EF00F016
:100008004682CDED20F03BEF2AF0CAC0D9FFCBC025
:10001800DAFF000EDE6E000EDD6EC8C01AF0C9C031
:100028001BF0E6EC21F01AC0DDF01BC0DEF0000189
:10003800DEAF02D00B0E1200D890DD35D96EDE355A
:10004800DA6E300ED926000EDA22DECFF4F0DDCFDC
:10005800F5F0F451F511D8A402D00C0E1200CAC064
:10006800D9FFCBC0DAFFF4C0DEFFF5C0DDFFCC91CD
:10007800F4C0D9FFF5C0DAFFDF50D8B415D020EEB0
:1000880001F0F451D926F551DA22DF50F0EC2BF0CB
:100098000001E96FE9B108D0CC51D8A4E9A502D094
:1000A8000A0E1200000E1200F4C0D9FFF5C0DAFFE4
:1000B800000EDF6E20EE01F0F451D926F551DA2258
:1000C800DDC0DFFF20EE01F0F451D926F551DA2228
:1000D800DF50A3EC2CF00001E96FE9A102D0030E78
:1000E8001200CC51D8A4E9A502D00A0E1200F4C01F
:1000F800AAF0F5C0ABF0000EAD6F000EAC6F67EC68
:100108001BF0AAC0F2F0ABC0F3F0040E0001F21924
:10011800F311D8A402D0010E1200F35104E1020E2B
:10012800F25DD8A002D00D0E120020EE2BF0F45193
:10013800D926F551DA22DECFE5F0DECFE6F0DECFC4
:10014800E7F0DECFE8F03A0EF4251A6E000EF5213E
:100158001B6E6BEC2CF0020E1B181A10D8B402D0D0
:100168000D0E1200450E0001F4251A6E000EF52141
:100178001B6E6BEC2CF01AC0EEF01BC0EFF0000108
:10018800F06BF16BEE51EF11F011F111D8A410D012
:10019800530EF4251A6E000EF5211B6E54EC25F053
:1001A8001AC0EEF01BC0EFF01CC0F0F01DC0F1F05B
:1001B800000120EE17F0F451D926F551DA22EEC0ED
:1001C800DEFFEFC0DEFFF0C0DEFFF1C0DEFF20EE95
:1001D8003FF0F451D926F551DA2210EE02F0F4512D
:1001E800E126F551E222DFCFE7FF20EE02F0F451DD
:1001F800D926F551DA22DE04D8B40CD020EE02F06C
:10020800F451D926F551DA22020EDE18D8B402D0FC
:100218000D0E1200EEC01AF0EFC01BF0F0C01CF07B
:10022800F1C01DF020EE02F0F451D926F551DA2282
:10023800DF50CD6FCD511E6E1F6A206A216AC9EC4E
:100248002AF01AC0EEF01BC0EFF01CC0F0F01DC081
:10025800F1F0000120EE3CF0F451D926F551DA22F4
:10026800DF50CD6FCE6B20EE09F0F451D926F55151
:10027800DA22CDC0DEFFCEC0DDFF20EE09F0F4515A
:10028800D926F551DA22DE50DE10D8B424D020EE7B
:1002980009F0F451D926F551DA22DECFCDF0DDCFC1
:1002A800CEF0FF0ECF6FFF0ED06F20EE09F0F451A5
:1002B800D926F551DA22DECFD1F0DDCFD2F0CF51F9
:1002C800D127D051D223CD51D117CE51D217D151E8
:1002D800D211D8B402D00D0E1200400EF4251A6EB9
:1002E800000EF5211B6E6BEC2CF0000120EE07F0E0
:1002F800F451D926F551DA221AC0DEFF1BC0DDFF02
:1003080020EE07F0F451D926F551DA22DECFCDF0F0
:10031800DDCFCEF00F0ECD17000ECE17CD51CE117A
:10032800D8B402D00D0E1200420EF4251A6E000E3B
:10033800F5211B6E6BEC2CF01AC0E1F01BC0E2F04B
:100348000001E36BE46BE151E211E311E411D8A47D
:1003580010D04F0EF4251A6E000EF5211B6E54ECCA
:1003680025F01AC0E1F01BC0E2F01CC0E3F01DC08C
:10037800E4F03D0E0001F4251A6E000EF5211B6E07
:100388006BEC2CF01AC0DFF01BC0E0F00001DF516D
:10039800E011D8A402D00D0E120020EE07F0F4519F
:1003A800D926F551DA22DECFCDF0DDCFCEF0040E1E
:1003B800CF6FD890CE33CD33CF2FFBD7DF51CD259C
:1003C800D06FE051CE21D16FD26BD8B0D22BD36B86
:1003D800EE51D025D96FEF51D121DA6FF051D221EA
:1003E800DB6FF151D321DC6FD951E15DDA51E2596C
:1003F800DB51E359DC51E459D8B002D00D0E12009C
:10040800D9C0CDF0DAC0CEF0DBC0CFF0DCC0D0F080
:10041800CD1FCE1FCF1FD01FCD2B000ECE23CF2335
:10042800D023E151CD251A6EE251CE211B6EE35146
:10043800CF211C6EE451D0211D6E20EE09F0F4513D
:10044800D926F551DA22DECFD1F0DDCFD2F0D1C0F6
:100458001EF0D2C01FF0206A216A72EC28F01AC080
:10046800EAF01BC0EBF01CC0ECF01DC0EDF0000181
:10047800EA51EB11EC11ED11D8A402D00D0E1200C7
:10048800000EF36F000EF26FF60EEA5DFF0EEB59E9
:10049800FF0EEC590F0EED59D8B004D0000EF36FD3
:1004A800030EF26FED51EC110AE1F60EEA5DFF0E54
:1004B800EB59D8B004D0000EF36F020EF26FED5175
:1004C800EC110AE1F60EEA5D0F0EEB59D8B004D034
:1004D800000EF36F010EF26FF251F311D8A402D09F
:1004E8000D0E1200020EEA25CD6F000EEB21CE6F25
:1004F800000EEC21CF6F000EED21D06F20EE13F02F
:10050800F451D926F551DA22CDC0DEFFCEC0DEFF88
:10051800CFC0DEFFD0C0DEFF20EE1BF0F451D9269D
:10052800F551DA22E5C0DEFFE6C0DEFFE7C0DEFFF8
:10053800E8C0DEFFDF51E525CD6FE051E621CE6F43
:10054800000EE721CF6F000EE821D06F20EE1FF0DC
:10055800F451D926F551DA22CDC0DEFFCEC0DEFF38
:10056800CFC0DEFFD0C0DEFFD951E525CD6FDA510F
:10057800E621CE6FDB51E721CF6FDC51E821D06F48
:1005880020EE27F0F451D926F551DA22CDC0DEFF4E
:10059800CEC0DEFFCFC0DEFFD0C0DEFF030EF219F3
:1005A800F311D8A451D0590EF4251A6E000EF52176
:1005B8001B6E6BEC2CF01A501B10D8B402D00D0E29
:1005C8001200000120EE07F0F451D926F551DA2285
:1005D800DE50DE10D8B402D00D0E12005B0EF425EA
:1005E8001A6E000EF5211B6E54EC25F0000120EE6A
:1005F80023F0F451D926F551DA221AC0DEFF1BC0C8
:10060800DEFF1CC0DEFF1DC0DEFF20EE13F0F4513C
:10061800D926F551DA22DECFCDF0DECFCEF0DECF0F
:10062800CFF0DECFD0F0020ED890CD37CE37CF370F
:10063800D037E82EF9D7CDC0D5F0CEC0D6F0CFC090
:10064800D7F0D0C0D8F094D020EE07F0F451D926D6
:10065800F551DA22DE50DE10D8A402D00D0E1200B9
:1006680020EE1FF0F451D926F551DA22DECFCDF075
:10067800DECFCEF0DECFCFF0DECFD0F0EE51CD25FD
:10068800D16FEF51CE21D26FF051CF21D36FF151FD
:10069800D021D46F20EE23F0F451D926F551DA2277
:1006A800D1C0DEFFD2C0DEFFD3C0DEFFD4C0DEFF84
:1006B800020EF219F311D8B444D020EE13F0F4511D
:1006C800D926F551DA22DECFCDF0DECFCEF0DECF5F
:1006D800CFF0DECFD0F0010ECD15D16F000ECE15C4
:1006E800D26F000ECF15D36F000ED015D46F20EE49
:1006F80013F0F451D926F551DA22DECF1AF0DECF05
:100708001BF0DECF1CF0DECF1DF0030E1E6E000EB8
:100718001F6E000E206E000E216EC9EC2AF0D890D4
:100728001D321C321B321A320001D1511A24D56FE6
:10073800D2511B20D66FD3511C20D76FD4511D2006
:1007480016D020EE13F0F451D926F551DA22DECF77
:10075800CDF0DECFCEF0DECFCFF0DECFD0F0D89028
:10076800CD35D56FCE35D66FCF35D76FD035D86F5D
:10077800FF0ED525CD6F010ED621CE6F000ED721E5
:10078800CF6F000ED821D06F0A0E05D0D890D03385
:10079800CF33CE33CD33E82EF9D720EE17F0F4510E
:1007A800D926F551DA22CD51DE5CCE51DE58CF5133
:1007B800DE58D051DE58D8B002D00D0E120020EE0F
:1007C8000FF0F451D926F551DA22FF0EDE6EFF0E36
:1007D800DE6EFF0EDE6EFF0EDD6EDD52DD5210EEB8
:1007E8000BF0F451E126F551E222DECFE6FFDECF31
:1007F800E6FFDECFE6FFDECFE6FF20EE04F0F451A1
:10080800D926F551DA22800EDF6E030EF219F311A4
:10081800D8A495D05F0EF4251A6E000EF5211B6E34
:100828006BEC2CF01A041B10D8A489D0F4C090F0FB
:10083800F5C091F0010E0001E525926F000EE6214A
:10084800936F000EE721946F000EE821956F09EC75
:1008580026F00009D8A473D0000120EE04F0F4516A
:10086800D926F551DA22000EDF6E2D0EF4251A6E08
:10087800020EF5211B6E6BEC2CF0550E1A185FE179
:10088800AA0E1B18D8A45BD02F0E0001F4251A6EEF
:10089800000EF5211B6E54EC25F0520E1A184FE18C
:1008A800520E1B184CE1610E1C1849E1410E1D182F
:1008B800D8A445D0130E0001F4251A6E020EF521B6
:1008C8001B6E54EC25F0720E1A1839E1720E1B18C3
:1008D80036E1410E1C1833E1610E1D18D8A42FD043
:1008E800170E0001F4251A6E020EF5211B6E54EC4A
:1008F80025F0000120EE0FF0F451D926F551DA2247
:100908001AC0DEFF1BC0DEFF1CC0DEFF1DC0DEFFFD
:100918001B0EF4251A6E020EF5211B6E54EC25F001
:10092800000120EE0BF0F451D926F551DA221AC055
:10093800DEFF1BC0DEFF1CC0DEFF1DC0DEFFF4C0F3
:10094800D9FFF5C0DAFFF2C0DFFF0101434B442BAA
:10095800000120EE05F0F451D926F551DA2243C101
:10096800DEFF44C1DDFF000E1200D9C078F1DAC005
:1009780079F1DDC0D9FFDEC0DAFF000EDE6E000EB1
:10098800DD6ED7C021F0D8C022F0880E236E010E8C
:10099800246E97EC24F00101776F7751D8A40DD01D
:1009A800000120EE0FF0D751D926D851DA22DF50B6
:1009B8000101776F7751D8B402D077511200000146
:1009C80020EE0EF0D751D926D851DA22DFB202D064
:1009D800070E120020EE10F0D751D926D851DA228E
:1009E80010EE10F0D751E126D851E222E6CFE3F01D
:1009F800E6CFE4F0E6CFE5F0E6CFE6F0DB51E3251D
:100A0800E76FDC51E421E86F000EE521E96F000E85
:100A1800E621EA6FDE50E75DDE50E859DE50E9591D
:100A2800DE50EA59D8B014D020EE10F0D751D926AC
:100A3800D851DA22DECFDFF0DDCFE0F0DF1FE01F94
:100A4800DF4BE02BFF0EDF25DB6FFF0EE021DC6FB5
:100A5800DB51DC11D8B47DD320EE10F0D751D92664
:100A6800D851DA22FF0EDE14DF6F010EDE14E06FBC
:100A7800000EDE14E16F000EDE14E26FDF51E011AC
:100A8800E111E211D8A489D220EE10F0D751D9266D
:100A9800D851DA22DECFDFF0DECFE0F0DECFE1F0B2
:100AA800DECFE2F00A0E05D0D890E233E133E0332E
:100AB800DF33E82EF9D7FF0EE36FFF0EE46F010175
:100AC80020EE09F08851D9268951DA22DECFE5F0E7
:100AD800DDCFE6F00001E351E527E451E623DF51DD
:100AE800E51501017A6F0001E051E61501017B6F00
:100AF8007A517B11D8A4A5D0000120EE10F0D7516F
:100B0800D926D851DA22DE50DE10DE10DE10D8A445
:100B180025D020EE06F0D751D926D851DA22DECFDB
:100B280082F1DECF83F1DECF84F1DECF85F10101E2
:100B38008251831184118511D8A42DD0D7C0BAF061
:100B4800D8C0BBF0000E0001BC6F000EBD6F000ED8
:100B5800BE6F000EBF6F9CEC0BF015D0D7C0BAF07B
:100B6800D8C0BBF0000120EE14F0D751D926D851D7
:100B7800DA22DECFBCF0DECFBDF0DECFBEF0DECFB6
:100B8800BFF09CEC0BF0BAC082F1BBC083F1BCC0D3
:100B980084F1BDC085F10101825183118411851151
:100BA800D8B4D7D28205831184118511D8A40BD06B
:100BB800000120EE0FF0D751D926D851DA22020EC3
:100BC800DF6E020E12000101822912E1832910E171
:100BD80084290EE18529D8A40BD0000120EE0FF05E
:100BE800D751D926D851DA22010EDF6E010E120034
:100BF800000120EE14F0D751D926D851DA2282C14B
:100C0800DEFF83C1DEFF84C1DEFF85C1DEFF20EE8B
:100C180006F0D751D926D851DA22DE50DE10DE1080
:100C2800DE10D8A40ED020EE06F0D751D926D85120
:100C3800DA2282C1DEFF83C1DEFF84C1DEFF85C107
:100C4800DEFF000120EE18F0D751D926D851DA225C
:100C5800010110EE2BF08851E1268951E222DE5085
:100C6800E6181EE1DE50E6181BE1DE50E61818E132
:100C7800DE50E618D8A414D088C173F089C174F086
:100C880036EC1CF00009D8B40BD0000120EE0FF0B0
:100C9800D751D926D851DA22010EDF6E010E120083
:100CA80088C126F089C127F0000120EE14F0D75141
:100CB800D926D851DA22DECF28F0DECF29F0DECFD0
:100CC8002AF0DECF2BF0D4EC23F026C07EF127C02B
:100CD8007FF128C080F129C081F101017E517F1187
:100CE80080118111D8A40BD0000120EE0FF0D7514C
:100CF800D926D851DA22020EDF6E020E1200010147
:100D08007A517E277B517F23000E8023000E81239A
:100D1800DBC0DFF0DCC0E0F0090E0001E16FD89025
:100D2800E033DF33E12FFBD7DFC07CF1E0C07DF19A
:100D380001017C517D11D8B4E7D07C517A2500019E
:100D4800DF6F01017D517B210001E06F010120EE81
:100D580009F08851D9268951DA220001DF51DE5C79
:100D6800E051DE58D8B01DD0010120EE09F08851BD
:100D7800D9268951DA22DECFDFF0DDCFE0F07AC163
:100D8800E1F07BC1E2F00001E11FE21FE14BE22B41
:100D9800DF51E12501017C6F0001E051E2210101F1
:100DA8007D6F78C168F079C169F07EC16AF07FC152
:100DB8006BF080C16CF081C16DF07CC16EF00101F7
:100DC80020EE01F08851D9268951DA22DF5030EC23
:100DD80028F00009D8B40BD0000120EE0FF0D7514D
:100DE800D926D851DA22010EDF6E010E1200010158
:100DF8007C510001DF6F01017D510001E06FE16B63
:100E0800E26B010120EE2BF08851D9268951DA22B4
:100E1800DECFE3F0DECFE4F0DECFE5F0DECFE6F0C4
:100E28007EC1E7F07FC1E8F080C1E9F081C1EAF056
:100E38000001E71FE81FE91FEA1FE72B000EE82360
:100E4800E923EA23E351E725EB6FE451E821EC6F4E
:100E5800E551E921ED6FE651EA21EE6FDF51EB5DD7
:100E6800E051EC59E151ED59E251EE59D8B03CD07E
:100E78002F0E010188251A6E000E89211B6E20EEA7
:100E88002BF08851D9268951DA22DECFDFF0DDCF69
:100E9800E0F07EC1E1F07FC1E2F00001E11FE21F56
:100EA800E14BE22BDF51E127E051E223090ED89014
:100EB800E137E237E82EFBD7E151010178251C6EB6
:100EC8000001E251010179211D6E020E1F6E000E14
:100ED8001E6E9CEC2AF0010120EE03F08851D92601
:100EE8008951DA22000EDF6E7CC1DFF07DC1E0F0AF
:100EF800090ED8900001DF37E037E82EFAD7DFC0B7
:100F080086F1E0C087F1CAD0000120EE0AF0D7517F
:100F1800D926D851DA2210EE10F0D751E126D8514F
:100F2800E222DE50E65CDE50E658DE50E658DE503F
:100F3800E658D8A023D088C173F089C174F036EC84
:100F48001CF00009D8B40BD0000120EE0FF0D751E7
:100F5800D926D851DA22010EDF6E010E12000101E6
:100F680020EE2BF08851D9268951DA227EC1DEFF86
:100F78007FC1DEFF80C1DEFF81C1DEFF000120EE00
:100F880018F0D751D926D851DA227EC1DEFF7FC1A9
:100F9800DEFF80C1DEFF81C1DEFFFF0EDF6F010EC5
:100FA800E06F20EE10F0D751D926D851DA22DECFE3
:100FB800E1F0DDCFE2F0DF51E117E051E217E11F88
:100FC800E21FE14BE22B000EE1250101866F020EC4
:100FD8000001E2210101876F86510001DB5D0101FB
:100FE80087510001DC59D8B004D0DBC086F1DCC0E1
:100FF80087F188C190F089C191F020EE18F0D7519F
:10100800D926D851DA22DECF92F0DECF93F0DECFA8
:1010180094F0DECF95F009EC26F00009D8B40BD097
:10102800000120EE0FF0D751D926D851DA22010E4F
:10103800DF6E010E1200FF0E0001DF6F010EE06F80
:1010480020EE10F0D751D926D851DA22DECFE1F0C0
:10105800DDCFE2F0DF51E117E051E2172F0EE12773
:10106800000EE223E151010188251A6E0001E251C8
:10107800010189211B6E78C11CF079C11DF086C160
:101088001EF087C11FF09CEC2AF0010120EE03F04E
:101098008851D9268951DA22010EDF6E0101865165
:1010A8000001DB5F010187510001DC5BDDC0D9FF76
:1010B800DEC0DAFF01018651DE268751DD22865126
:1010C800782787517923000120EE10F0D751D926CF
:1010D800D851DA2201018651DE268751DE22000E20
:1010E800DE22DE22000120EE10F0D751D926D85199
:1010F800DA2210EE0AF0D751E126D851E222DE506A
:10110800E65CDE50E658DE50E658DE50E658D8A0D9
:1011180003D020EE0AF002D020EE10F0D751D926E5
:10112800D851DA22DECF73F1DECF74F1DECF75F15C
:10113800DECF76F120EE0AF0D751D926D851DA223F
:1011480073C1DEFF74C1DEFF75C1DEFF76C1DEFF4D
:101158007FD4000120EE0EF0D751D926D851DA22DB
:10116800000EDB8C000E120001017F518011D8A403
:1011780002D0090E1200000E8D6F3F0E8C6F8C513D
:101188008317810E0001C86F010EC96FA60ECA6FC2
:10119800010ECB6F83C1CCF009EC00F00101A86F00
:1011A800A851D8A4B8D2A6C1A9F1A7C1AAF1A90E7D
:1011B800736F010E746F81C175F182C176F1B1EC64
:1011C8001DF00101A86FA851D8B4D0AF02D0060E07
:1011D800A86F83C184F11C0E8417D8B4F0D0A8512D
:1011E800D8B40FD0040EA819D8A409D0A90E0001AC
:1011F800FC6F010EFD6F6BEC23F00101A86F838774
:101208000CD0ADC184F1110E8417D8B402D0070EEA
:1012180003D083A502D0080EA86FA851D8B483A71D
:10122800DAD06AEC22F01AC092F11BC093F11CC00C
:1012380094F11DC095F10E0E0101C3251A6E000E22
:10124800C4211B6E92C11CF093C11DF094C11EF005
:1012580095C11FF09CEC29F0160E0101C3251A6EEA
:10126800000EC4211B6E92C11CF093C11DF094C1E5
:101278001EF095C11FF09CEC29F0A6C121F0A7C172
:1012880022F0C3C123F0C4C124F0F0EC28F021C03F
:1012980096F122C097F123C098F124C099F1010179
:1012A80020EE0BF0C351D926C451DA22200EDF6E8E
:1012B800A6C11EF0A7C11FF0C3C120F0C4C121F010
:1012C800000E226E000E236E000E246E000E256E98
:1012D800AEEC2BF01C0E0101C3251A6E000EC421C2
:1012E8001B6E000E1C6E000E1D6E000E1E6E000E94
:1012F8001F6E9CEC29F0010120EE03F0A651D926BF
:10130800A751DA22010EDF6E9651971198119911A3
:10131800D8B461D020EE2BF0A651D926A751DA22F5
:10132800DECF9AF1DECF9BF1DECF9CF1DECF9DF1CF
:10133800A90E0001BA6F010EBB6F96C1BCF097C130
:10134800BDF098C1BEF099C1BFF0000EC06F000E8D
:10135800C16F000EC26F000EC36F83EC1AF001015B
:10136800A86FA851D8A437D0A6C190F0A7C191F012
:101378009AC192F09BC193F09CC194F09DC195F0E5
:1013880009EC26F00101A86FFF0E9625846FFF0E69
:101398009721856FFF0E9821866FFF0E9921876F21
:1013A80020EE0BF0A651D926A751DA2284C1DEFF20
:1013B80085C1DEFF86C1DEFF87C1DEFF0CD0A851E4
:1013C800D8A409D0ADA902D0040E04D083B3ADA12E
:1013D80002D0070EA86FA851D8A420D083B7838D58
:1013E80020EE2BF0A651D926A751DA2210EE1CF0D8
:1013F8007F51E1268051E222DECFE6FFDECFE6FF15
:10140800DECFE6FFDECFE6FF20EE20F07F51D926C3
:101418008051DA22C3C1DEFFC4C1DDFFA851D8A4C0
:101428007AD1A6C121F0A7C122F0C3C123F0C4C15B
:1014380024F0F0EC28F0010120EE06F07F51D926C7
:101448008051DA2221C0DEFF22C0DEFF23C0DEFF8A
:1014580024C0DEFF1C0EC3251A6E000EC4211B6EAD
:1014680054EC25F0010120EE0AF07F51D926805175
:10147800DA221AC0DEFF1BC0DEFF1CC0DEFF1DC063
:10148800DEFF7FC1D9FF80C1DAFFA6C1DEFFA7C199
:10149800DDFF20EE05F0A651D926A751DA2210EE7D
:1014A80002F07F51E1268051E222DECFE6FFDDCF58
:1014B800E5FF20EE0EF07F51D9268051DA2283C154
:1014C800DFFF20EE0FF07F51D9268051DA22000E7F
:1014D800DF6E20EE18F07F51D9268051DA22DE6ABD
:1014E800DE6ADE6ADD6A20EE10F07F51D92680516F
:1014F800DA22DE6ADE6ADE6ADD6A83AB0CD120EEB0
:101508000AF07F51D9268051DA22DE50DE10DE1033
:10151800DE10D8B400D120EE0AF07F51D9268051D0
:10152800DA2210EE10F07F51E1268051E222DECF60
:10153800E6FFDECFE6FFDECFE6FFDECFE6FF20EEFA
:1015480009F0A651D926A751DA22DECF84F1DDCFE2
:1015580085F18451866F8551876F886B896B090E79
:10156800D8908637873788378937E82EF9D786C1E4
:101578008EF187C18FF188C190F189C191F120EE78
:1015880006F07F51D9268051DA22DECFA2F1DECFD4
:10159800A3F1DECFA4F1DECFA5F120EE0AF07F5152
:1015A800D9268051DA22DECF9EF1DECF9FF1DECF41
:1015B800A0F1DECFA1F134D07FC19BF080C19CF0B7
:1015C800A2C19DF0A3C19EF0A4C19FF0A5C1A0F047
:1015D80017EC12F09BC0A2F19CC0A3F19DC0A4F12E
:1015E8009EC0A5F10101A551A411A31106E1020EA7
:1015F800A25DD8B002D0020EA86FA22909E1A329E2
:1016080007E1A42905E1A529D8A402D0010EA86FF5
:101618008E519E5F8F519F5B9051A05B9151A15B52
:10162800A851D8A40AD09E518E5D9F518F59A051C0
:101638009059A1519159D8A0BFD720EE14F07F51ED
:10164800D9268051DA22A2C1DEFFA3C1DEFFA4C1E0
:10165800DEFFA5C1DEFFA851D8A45DD0FF0E9E1500
:10166800846F010E9F15856F000EA015866F000E02
:10167800A115876F8451851186118711D8B44BD075
:10168800A6C126F0A7C127F0A2C128F0A3C129F05E
:10169800A4C12AF0A5C12BF0D4EC23F026C09AF1FE
:1016A80027C09BF128C09CF129C09DF101019A51E6
:1016B8009B119C119D11D8A403D0020EA86F2BD0AA
:1016C8009EC184F19FC185F1A0C186F1A1C187F1B6
:1016D8000A0E05D0D8908733863385338433E82EB5
:1016E800F9D79A518425886F9B518521896F9C5120
:1016F80086218A6F9D5187218B6F20EE18F07F51CC
:10170800D9268051DA2288C1DEFF89C1DEFF8AC16D
:10171800DEFF8BC1DEFFA851D8B408D07FC1D9FF46
:1017280080C1DAFF000EDE6E000EDD6EA8511200D9
:10173800BAC0D9FFBBC0DAFFDECFD1F0DDCFD2F01F
:101748000001BC51BD11BE11BF11D8A42DD020EE8F
:101758000BF0D151D926D251DA22DECFC9F0DECF33
:10176800CAF0DECFCBF0DECFCCF0C951CA11CB1115
:10177800CC11D8B410D020EE13F0D151D926D251C3
:10178800DA22DE50C95DDE50CA59DE50CB59DE5030
:10179800CC59D8A064D0010EC96F000ECA6F000ED4
:1017A800CB6F000ECC6F5BD0BAC09BF0BBC09CF077
:1017B800BCC09DF0BDC09EF0BEC09FF0BFC0A0F0F1
:1017C80017EC12F09BC0D3F09CC0D4F09DC0D5F0AC
:1017D8009EC0D6F00001D651D511D4110DE1020EEC
:1017E800D35DD8B009D0010EBA6F000EBB6F000EE2
:1017F800BC6F000EBD6F1200D32910E1D4290EE191
:10180800D5290CE1D629D8A409D0D3C0BAF0D4C0C0
:10181800BBF0D5C0BCF0D6C0BDF0120020EE13F06E
:10182800D151D926D251DA22DE50D35DDE50D459B7
:10183800DE50D559DE50D659D8B009D0D3C0BAF049
:10184800D4C0BBF0D5C0BCF0D6C0BDF01200BCC03F
:10185800C9F0BDC0CAF0BEC0CBF0BFC0CCF020EE0E
:101868000FF0D151D926D251DA22DE50DE10DE1027
:10187800DE10D8A409D0000EBA6F000EBB6F000EA0
:10188800BC6F000EBD6F1200000ECD6F000ECE6F44
:10189800000ECF6F000ED06FBC51C91909E1BD51C0
:1018A800CA1906E1BE51CB1903E1BF51CC19D8A41E
:1018B8008FD0010EC925CD6F000ECA21CE6F000E44
:1018C800CB21CF6F000ECC21D06F20EE13F0D15179
:1018D800D926D251DA22DE50CD5DDE50CE59DE5007
:1018E800CF59DE50D059D8A008D0020ECD6F000EC7
:1018F800CE6F000ECF6F000ED06FBAC09BF0BBC08A
:101908009CF0CDC09DF0CEC09EF0CFC09FF0D0C05F
:10191800A0F017EC12F09BC0D3F09CC0D4F09DC08F
:10192800D5F09EC0D6F00001D305D411D511D6113B
:10193800D8B409D0D32910E1D4290EE1D5290CE176
:10194800D629D8A409D0D3C0BAF0D4C0BBF0D5C02A
:10195800BCF0D6C0BDF01200D351D411D511D611A8
:10196800D8B436D020EE0BF0D151D926D251DA2294
:10197800DECFD3F0DECFD4F0DECFD5F0DECFD6F099
:10198800D651D511D41104E1020ED35DD8A018D0D8
:1019980020EE13F0D151D926D251DA22DE50D35D90
:1019A800DE50D459DE50D559DE50D659D8B008D0BB
:1019B800D3C0C9F0D4C0CAF0D5C0CBF0D6C0CCF0E3
:1019C800000ECD6F000ECE6F000ECF6F000ED06FE1
:1019D800CD51CE11CF11D011D8A484D0C9C0CDF02B
:1019E800CAC0CEF0CBC0CFF0CCC0D0F0010ECD270E
:1019F800000ECE23CF23D02320EE13F0D151D926C9
:101A0800D251DA22DE50CD5DDE50CE59DE50CF59AC
:101A1800DE50D059D8A01BD0020ECD6F000ECE6F6D
:101A2800000ECF6F000ED06FCD51C95DCE51CA598F
:101A3800CF51CB59D051CC59D8B009D0000EBA6F7C
:101A4800000EBB6F000EBC6F000EBD6F1200BAC057
:101A58009BF0BBC09CF0CDC09DF0CEC09EF0CFC027
:101A68009FF0D0C0A0F017EC12F09BC0D3F09CC040
:101A7800D4F09DC0D5F09EC0D6F00001D351D4114A
:101A8800D511D611D8B42ED0D305D411D511D6116D
:101A9800D8B409D0D32910E1D4290EE1D5290CE115
:101AA800D629D8A409D0D3C0BAF0D4C0BBF0D5C0C9
:101AB800BCF0D6C0BDF01200C951CD1997E1CA518A
:101AC800CE1994E1CB51CF1991E1CC51D019D8A4BA
:101AD8008DD7000EBA6F000EBB6F000EBC6F000EE4
:101AE800BD6F1200D1C09BF0D2C09CF0CDC09DF05C
:101AF800CEC09EF0CFC09FF0D0C0A0F0FF0EA16F67
:101B0800FF0EA26FFF0EA36FFF0EA46F0FEC0EF077
:101B18000001C86FC851D8A41ED0BC51BD11BE1158
:101B2800BF11D8B418D0D1C09BF0D2C09CF0BCC0B3
:101B38009DF0BDC09EF0BEC09FF0BFC0A0F0CDC05C
:101B4800A1F0CEC0A2F0CFC0A3F0D0C0A4F00FEC9B
:101B58000EF00001C86FC851D8A444D020EE0BF095
:101B6800D151D926D251DA22CDC0DEFFCEC0DEFF58
:101B7800CFC0DEFFD0C0DEFF20EE0FF0D151D92656
:101B8800D251DA2210EE13F0D151E126D251E222DD
:101B9800FE0EE624C46FFF0EE620C56FFF0EE6209A
:101BA800C66FFF0EE620C76FDE50C45DDE50C55914
:101BB800DE50C659DE50C759D8A00BD020EE0FF022
:101BC800D151D926D251DA22DE06000EDE5ADE5A6B
:101BD800DE5A20EE04F0D151D926D251DA22000E75
:101BE800DB8010D0C805D8B409D0010ECD6F000E27
:101BF800CE6F000ECF6F000ED06F04D0CD69CE69C6
:101C0800CF69D069CDC0BAF0CEC0BBF0CFC0BCF0B0
:101C1800D0C0BDF01200020E0001B96FA0519F1193
:101C28009E1104E1020E9D5DD8A01ED220EE13F095
:101C38009B51D9269C51DA22DE509D5DDE509E597B
:101C4800DE509F59DE50A059D8A000D20DD29DC0B9
:101C5800B7F09EC0B8F0D890B831A66FB731A56F6D
:101C6800A551B727A651B8239BC090F09CC091F00E
:101C780020EE1FF09B51D9269C51DA22DECFA5F029
:101C8800DECFA6F0DECFA7F0DECFA8F0B7C0A9F070
:101C9800B8C0AAF0090EAB6FD890AA33A933AB2FFE
:101CA800FBD7A951A525926FAA51A621936F000EC3
:101CB800A721946F000EA821956F09EC26F000016A
:101CC800B96FB951D8A4D0D1FF0EA56F010EA66F78
:101CD800B7C0A7F0B8C0A8F0A551A717A651A81774
:101CE8002F0EA727000EA823A7519B25B56FA85133
:101CF8009C21B66FB74BB82B9DB104D0A1C0B1F0F1
:101D0800B26B1AD0A151A56FA66BA53BA63BF00EEE
:101D1800A617A5510F0BA613F00EA517B5C0D9FF2E
:101D2800B6C0DAFFDF500F0BA76FA86BA551A7113C
:101D3800B16FA651A811B26FB5C0D9FFB6C0DAFF0E
:101D4800B1C0DFFF20EE03F09B51D9269C51DA2267
:101D5800010EDF6E9BC090F09CC091F020EE1FF04A
:101D68009B51D9269C51DA22DECFA5F0DECFA6F012
:101D7800DECFA7F0DECFA8F0B7C0A9F0B8C0AAF0B0
:101D8800090EAB6FD890AA33A933AB2FFBD7A95153
:101D9800A525926FAA51A621936F000EA721946FD3
:101DA800000EA821956F09EC26F00001B96FB95112
:101DB800D8A45AD1FF0EA56F010EA66FB7C0A7F021
:101DC800B8C0A8F0A551A717A651A8172F0EA72786
:101DD800000EA823A7519B25B56FA8519C21B66F6B
:101DE8009DB11BD0A1C0A5F0A2C0A6F0A3C0A7F0CA
:101DF800A4C0A8F0A6C0A5F0A7C0A6F0A8C0A7F0E8
:101E0800A86B0F0EA517B5C0D9FFB6C0DAFFDF5013
:101E1800F00BA511A96FA95112D0A1C0A5F0A2C0BD
:101E2800A6F0A3C0A7F0A4C0A8F0050E05D0D890CE
:101E3800A833A733A633A533E82EF9D7A551B36F36
:101E4800B46BB5C0D9FFB6C0DAFFB3C0DFFF54D05A
:101E58009BC090F09CC091F020EE1FF09B51D926BA
:101E68009C51DA22DECFA5F0DECFA6F0DECFA7F0B8
:101E7800DECFA8F09DC0A9F09EC0AAF09FC0ABF02D
:101E8800A0C0ACF0AAC0A9F0ABC0AAF0ACC0ABF03F
:101E9800AC6BA551A925926FA651AA21936FA751A2
:101EA800AB21946FA851AC21956F09EC26F0000185
:101EB800B96FB951D8A4D8D0FF0EA56F010EA66F7F
:101EC8009DC0A7F09EC0A8F0D890A737A837A55105
:101ED800A717A651A8172F0EA727000EA823A751AA
:101EE8009B251A6EA8519C211B6EA1C01CF0A2C094
:101EF8001DF013EC2DF0A8D020EE03F09B51D9264D
:101F08009C51DA22010EDF6EAFD09BC090F09CC0CE
:101F180091F020EE1FF09B51D9269C51DA22DECF9A
:101F2800A5F0DECFA6F0DECFA7F0DECFA8F09DC0EB
:101F3800A9F09EC0AAF09FC0ABF0A0C0ACF0080EFC
:101F480005D0D890AC33AB33AA33A933E82EF9D7F0
:101F5800A551A925926FA651AA21936FA751AB212C
:101F6800946FA851AC21956F09EC26F00001B96F68
:101F7800B951D8A479D0FF0EA56F010EA66F9DC0E8
:101F8800A7F09EC0A8F0D890A737A837D890A73751
:101F9800A837A551A717A651A8172F0EA727000ED7
:101FA800A823A7519B251A6EA8519C211B6E54EC9F
:101FB80025F0000E1A140001A96F000E1B14AA6F59
:101FC800000E1C14AB6FF00E1D14AC6FFF0EA115A4
:101FD800AD6FFF0EA215AE6FFF0EA315AF6F0F0EFC
:101FE800A415B06FA951AD11A16FAA51AE11A26F7E
:101FF800AB51AF11A36FAC51B011A46FFF0EA56F19
:10200800010EA66F9DC0A7F09EC0A8F0D890A73774
:10201800A837D890A737A837A551A717A651A8174A
:102028002F0EA727000EA823A7519B251A6EA8518B
:102038009C211B6EA1C01CF0A2C01DF0A3C01EF005
:10204800A4C01FF09CEC29F0000156D79BC0D9FF13
:102058009CC0DAFFDF50010AD8B4F9D5030AD8B416
:10206800F7D6010AD8B451D7B9511200D7C0D9FF51
:10207800D8C0DAFFDECFEFF0DDCFF0F0000120EEC0
:102088000EF0D751D926D851DA22DECFDBF0DECFD9
:10209800DCF0DECFDDF0DECFDEF0200EDB25EB6FEF
:1020A800000EDC21EC6F000EDD21ED6F000EDE214D
:1020B800EE6F000EE76F000EE86F200EE96F000E5E
:1020C800EA6FE751EB5DE851EC59E951ED59EA51F6
:1020D800EE59D8A00AD020EE16F0D751D926D851FB
:1020E800DA22DE6ADE6ADE6ADD6A20EE16F0D75191
:1020F800D926D851DA22DE50DE10DE10DE10D8A440
:1021080002D0040E1200FF0EEB15DB6F010EEC156A
:10211800DC6F000EED15DD6F000EEE15DE6FDB5186
:10212800DC11DD11DE11D8A44CD120EE16F0D75108
:10213800D926D851DA22DE2A000EDE22DE22DE225D
:1021480020EE12F0D751D926D851DA22DE50DE100F
:10215800DE10DE10D8A437D020EE07F0EF51D926D4
:10216800F051DA22DECFDBF0DDCFDCF0DB51DD6FC2
:10217800DC51DE6FDF6BE06BEBC0E1F0ECC0E2F04E
:10218800EDC0E3F0EEC0E4F0060E05D0D890E433DD
:10219800E333E233E133E82EF9D7DD51E15DDE5177
:1021A800E259DF51E359E051E459D8A00AD120EEB1
:1021B80016F0D751D926D851DA22DE6ADE6ADE6AED
:1021C800DD6A040E1200FF0EDB6FFF0EDC6F20EEDF
:1021D80009F0EF51D926F051DA22DECFDDF0DDCF5C
:1021E800DEF0DB51DD27DC51DE23EBC0DFF0ECC095
:1021F800E0F0EDC0E1F0EEC0E2F00A0E05D0D890B4
:10220800E233E133E033DF33E82EF9D7DD51DF1570
:10221800E36FDE51E015E46F000EE115E56F000E87
:10222800E215E66FE351E411E511E611D8A4C9D02F
:10223800D7C09BF0D8C09CF020EE12F0D751D92619
:10224800D851DA22DECF9DF0DECF9EF0DECF9FF0B0
:10225800DECFA0F017EC12F09BC0F1F09CC0F2F0BA
:102268009DC0F3F09EC0F4F00001F451F311F21197
:1022780006E1020EF15DD8B002D0020E1200F1297B
:1022880009E1F22907E1F32905E1F429D8A402D0EC
:10229800010E120020EE13F0EF51D926F051DA2288
:1022A800DE50F15DDE50F259DE50F359DE50F4593C
:1022B800D8A05BD0D951DA11D8A40CD020EE16F0F2
:1022C800D751D926D851DA22DE6ADE6ADE6ADD6A9B
:1022D800040E1200D7C0BAF0D8C0BBF020EE12F03E
:1022E800D751D926D851DA22DECFBCF0DECFBDF0E7
:1022F800DECFBEF0DECFBFF09CEC0BF0BAC0F1F041
:10230800BBC0F2F0BCC0F3F0BDC0F4F00001F15165
:10231800F211F311F411D8A402D0070E1200F1053E
:10232800F211F311F411D8A402D0020E1200F1290F
:1023380009E1F22907E1F32905E1F429D8A402D03B
:10234800010E1200EFC086F0F0C087F0F1C088F0EF
:10235800F2C089F0F3C08AF0F4C08BF03CEC20F0B6
:102368000009D8B402D0010E1200000120EE12F0CC
:10237800D751D926D851DA22F1C0DEFFF2C0DEFFEC
:10238800F3C0DEFFF4C0DEFFEFC026F0F0C027F098
:10239800F1C028F0F2C029F0F3C02AF0F4C02BF005
:1023A800D4EC23F0000120EE16F0D751D926D851ED
:1023B800DA2226C0DEFF27C0DEFF28C0DEFF29C0E4
:1023C800DEFF20EE0EF0D751D926D851DA22EBC025
:1023D800DEFFECC0DEFFEDC0DEFFEEC0DEFFFF0E6D
:1023E800DB6F010EDC6FEBC0DDF0ECC0DEF0DB5123
:1023F800DD17DC51DE172F0EDD27000EDE23EFC0C0
:10240800DFF0F0C0E0F0DD51DF27DE51E02320EE01
:102418001AF0D751D926D851DA22DFC0DEFFE0C042
:10242800DDFF000E12009BC0D9FF9CC0DAFFDECF93
:10243800B3F0DDCFB4F00001A0519F119E1104E16B
:10244800020E9D5DD8A08FD120EE13F0B351D9268E
:10245800B451DA22DE509D5DDE509E59DE509F5900
:10246800DE50A059D8B07FD1AD69AE69AF69B06907
:1024780083D19DC0B1F09EC0B2F0D890B231A26FA6
:10248800B131A16FA151B127A251B223B3C090F0CD
:10249800B4C091F020EE1FF0B351D926B451DA221E
:1024A800DECFA1F0DECFA2F0DECFA3F0DECFA4F026
:1024B800B1C0A5F0B2C0A6F0090EA76FD890A63398
:1024C800A533A72FFBD7A551A125926FA651A2210D
:1024D800936F000EA321946F000EA421956F09EC51
:1024E80026F00009D8A457D1FF0E0001A16F010EF4
:1024F800A26FB1C0A3F0B2C0A4F0A151A317A2511A
:10250800A4172F0EA327000EA423A351B325D96E19
:10251800A451B421DA6EDF50A56FA551AB6FAC6B37
:10252800B14BB22BB3C090F0B4C091F020EE1FF0C5
:10253800B351D926B451DA22DECFA1F0DECFA2F012
:10254800DECFA3F0DECFA4F0B1C0A5F0B2C0A6F0F4
:10255800090EA76FD890A633A533A72FFBD7A5518F
:10256800A125926FA651A221936F000EA321946F0B
:10257800000EA421956F09EC26F00009D8A40BD110
:10258800FF0E0001A16F010EA26FB1C0A3F0B2C08F
:10259800A4F0A151A317A251A4172F0EA327000E30
:1025A800A423A351B325D96EA451B421DA6EDF5008
:1025B800A56FA551A76FA66BA651AB13A751AC1376
:1025C8009DB107D0FF0EAB15A96F0F0EAC15AA6F02
:1025D8000FD0ABC0A1F0ACC0A2F0040EA36FD8908E
:1025E800A233A133A32FFBD7A1C0A9F0A2C0AAF0A0
:1025F800A9C0ADF0AAC0AEF053D0B3C090F0B4C03B
:1026080091F020EE1FF0B351D926B451DA22DECF73
:10261800A1F0DECFA2F0DECFA3F0DECFA4F09DC004
:10262800A5F09EC0A6F09FC0A7F0A0C0A8F0A6C0C5
:10263800A5F0A7C0A6F0A8C0A7F0A86BA151A52532
:10264800926FA251A621936FA351A721946FA45111
:10265800A821956F09EC26F00009D8A49CD0FF0E9C
:102668000001A16F010EA26F9DC0A3F09EC0A4F04F
:10267800D890A337A437A151A317A251A4172F0E9E
:10268800A327000EA423A351B3251A6EA451B42185
:102698001B6E6BEC2CF01AC0ADF01BC0AEF0000145
:1026A800AF6BB06B78D0B3C090F0B4C091F020EEAF
:1026B8001FF0B351D926B451DA22DECFA1F0DECF14
:1026C800A2F0DECFA3F0DECFA4F09DC0A5F09EC09F
:1026D800A6F09FC0A7F0A0C0A8F0080E05D0D8901B
:1026E800A833A733A633A533E82EF9D7A151A525DA
:1026F800926FA251A621936FA351A721946FA45161
:10270800A821956F09EC26F00009D8A444D0FF0E43
:102718000001A16F010EA26F9DC0A3F09EC0A4F09E
:10272800D890A337A437D890A337A437A151A317BB
:10273800A251A4172F0EA327000EA423A351B3253B
:102748001A6EA451B4211B6E54EC25F0FF0E1A1416
:102758000001AD6FFF0E1B14AE6FFF0E1C14AF6FA0
:102768000F0E1D1407D0010EAD6F000EAE6F000ED8
:10277800AF6F000EB06F0FD0B3C0D9FFB4C0DAFF8F
:10278800DF50010AD8B475D6030AD8B436D7010A7F
:10279800D8B489D7E8D7ADC09BF0AEC09CF0AFC025
:1027A8009DF0B0C09EF01200000E0001616F000E97
:1027B800606F000E646F000E636F000E6A6F000E8C
:1027C800696F000E6B6F100E2A6E940EE82EFED7FE
:1027D8002A2EFCD700D0F7EC24F08A988A9E010EA6
:1027E8002EEC2CF0AA0E1C6E010E1D6E000E1E6E35
:1027F800000E1F6E870E206E480E87EC2CF0ACEC96
:102808002DF08A88A6EC2DF00001676F6705D8A423
:1028180004D06751666F656B06D0AA0E6719D8A4F5
:1028280002D067516513634B642BAA0E651903E147
:102838006605D8B408D064BFE5D7E80E635D030E1B
:102848006459D8A0DFD7AA0E651902E16605D8A495
:10285800D4D0000E646F000E636F000E6A6F000E16
:10286800696F6B698A988A9E010E2EEC2CF0000E17
:102878001C6E000E1D6E000E1E6E000E1F6EFF0EEB
:10288800206E410E87EC2CF000016B69ACEC2DF04A
:10289800A6EC2DF000016B6F694B6A2B6B05D8B461
:1028A80008D06ABFF5D76A5104E10A0E695DD8A05D
:1028B800EFD7010E2EEC2CF08A988A9EFF0E69EC59
:1028C8002BF0000E1C6E000E1D6E000E1E6E000E0C
:1028D8001F6E950E206E770E87EC2CF000016B6949
:1028E800ACEC2DF0A6EC2DF000016B6F694B6A2B58
:1028F8006B05D8B408D06ABFF5D76A5104E10A0E4F
:10290800695DD8A0EFD7000E6A6F000E696F8A98CC
:102918008A9E010E2EEC2CF0000E1C6E000E1D6E11
:10292800000E1E6E400E1F6E950E206E690E87EC0F
:102938002CF0ACEC2DF08A88A6EC2DF000016B6F22
:10294800694B6A2B6B51D8A4F7D76B69010E2EEC33
:102958002CF0000E1C6E000E1D6E000E1E6E000E7A
:102968001F6EFF0E206E7A0E87EC2CF0ACEC2DF06B
:10297800A6EC2DF000016B6F6B516B25800B686F17
:10298800694B6A2B6851D8B40BD06805D8B408D005
:102998006ABFEED76A5104E10A0E695DD8A0E8D78C
:1029A8006851D8B403D06805D8A457D7000E646F0F
:1029B800000E636F000E626F6851D8A4B4D08A9875
:1029C8008A9E0A0E2EEC2CF0000E1C6E020E1D6E56
:1029D800000E1E6E000E1F6EFF0E206E500E87EC4E
:1029E8002CF0ACEC2DF000016B69A6EC2DF0000189
:1029F8006B6F6B51D8B497D0F8D7000E6A6F000E82
:102A0800696F6B69010E2EEC2CF0000E1C6E000E27
:102A18001D6E000E1E6E000E1F6EFF0E206E690EDC
:102A280087EC2CF0ACEC2DF0A6EC2DF000016B6FD0
:102A3800694B6A2B6B51D8A40BD0000E1D6E010E8A
:102A480064EC29F0390E1D6E620E1E6E1DEC2BF023
:102A5800100E2A6E940EE82EFED72A2EFCD700D030
:102A680000016B51D8B408D06ABFDED7100E695D7B
:102A7800270E6A59D8A0D8D76B690A0E69196A1146
:102A8800D8A436D0000E6A6F000E696F0A0E2EECBD
:102A98002CF0000E1C6E000E1D6E000E1E6E000E39
:102AA8001F6EFF0E206E410E87EC2CF0ACEC2DF063
:102AB800A6EC2DF000016B6F694B6A2B6B51D8A403
:102AC8000BD0000E1D6E010E64EC29F0230E1D6E56
:102AD800620E1E6E1DEC2BF000016B51D8B408D0AD
:102AE8006ABFE6D7100E695D270E6A59D8A0E0D7ED
:102AF8000A0E2EEC2CF0000E1C6E020E1D6E000E3F
:102B08001E6E000E1F6EFF0E206E500E87EC2CF00E
:102B1800ACEC2DF000016B69A6EC2DF000016B6F99
:102B28006B51D8A4F9D762511200B5C0D9FFB6C00D
:102B3800DAFFDECFD1F0DDCFD2F0000E0001C56F95
:102B4800000EC66F200EC76F000EC86FC551B75D67
:102B5800C651B859C751B959C851BA59D8B012D085
:102B68001F0EB715BB6F000EB815BC6F000EB91558
:102B7800BD6F000EBA15BE6FBB51BC11BD11BE11A1
:102B8800D8B402D0020E120020EE0EF0B551D926AC
:102B9800B651DA22B7C0DEFFB8C0DEFFB9C0DEFF2B
:102BA800BAC0DEFF20EE06F0B551D926B651DA22BA
:102BB800DECFCDF0DECFCEF0DECFCFF0DECFD0F05F
:102BC800CD51CE11CF11D011D8A415D0D1C0D9FF75
:102BD800D2C0DAFF020EDF640ED020EE23F0D1510E
:102BE800D926D251DA22DECFCDF0DECFCEF0DECF3D
:102BF800CFF0DECFD0F0CD51CE11CF11D011D8A467
:102C080042D020EE07F0D151D926D251DA22DECFB8
:102C1800BBF0DDCFBCF0BB51BD6FBC51BE6FBF6B0D
:102C2800C06BB7C0C1F0B8C0C2F0B9C0C3F0BAC079
:102C3800C4F0060E05D0D890C433C333C233C133B1
:102C4800E82EF9D7BD51C15DBE51C259BF51C35914
:102C5800C051C459D8A002D0020E120020EE23F0B1
:102C6800D151D926D251DA2210EE16F0B551E1260B
:102C7800B651E222DECFE6FFDECFE6FFDECFE6FF8B
:102C8800DECFE6FF8CD020EE09F0D151D926D25103
:102C9800DA22DECFBBF0DDCFBCF0BB51BD6FBC513B
:102CA800BE6FBF6BC06B090ED890BD37BE37BF373C
:102CB800C037E82EF9D7BDC0C9F0BEC0CAF0BFC042
:102CC800CBF0C0C0CCF044D0B5C09BF0B6C09CF0EF
:102CD800CDC09DF0CEC09EF0CFC09FF0D0C0A0F078
:102CE80017EC12F09BC0CDF09CC0CEF09DC0CFF089
:102CF8009EC0D0F00001CD2909E1CE2907E1CF29F6
:102D080005E1D029D8A402D0010E1200D051CF116C
:102D1800CE1104E1020ECD5DD8A010D020EE13F044
:102D2800D151D926D251DA22DE50CD5DDE50CE59AE
:102D3800DE50CF59DE50D059D8A002D0020E120072
:102D4800C951B75FCA51B85BCB51B95BCC51BA5BBB
:102D5800C951B75DCA51B859CB51B959CC51BA59B3
:102D6800D8B0B2D7D1C026F0D2C027F0CDC028F055
:102D7800CEC029F0CFC02AF0D0C02BF0D4EC23F07D
:102D8800000120EE16F0B551D926B651DA2226C038
:102D9800DEFF27C0DEFF28C0DEFF29C0DEFF20EEF1
:102DA80012F0B551D926B651DA22CDC0DEFFCEC019
:102DB800DEFFCFC0DEFFD0C0DEFF20EE16F0B5513B
:102DC800D926B651DA22DE50DE10DE10DE10D8A485
:102DD80002D0020E1200B7C0BBF0B8C0BCF0B9C038
:102DE800BDF0BAC0BEF00A0E05D0D890BE33BD33D0
:102DF800BC33BB33E82EF9D720EE16F0B551D926EF
:102E0800B651DA22BB51DE26BC51DE22BD51DE228C
:102E1800BE51DE22FF0EBB6F010EBC6FB7C0BDF006
:102E2800B8C0BEF0BB51BD17BC51BE172F0EBD2791
:102E3800000EBE23D1C0BFF0D2C0C0F0BD51BF2725
:102E4800BE51C02320EE1AF0B551D926B651DA2268
:102E5800BFC0DEFFC0C0DDFF000E120024C0D9FFD6
:102E680025C0DAFFDECF65F0DDCF66F01C0E222428
:102E78000001696F000E23206A6F69C01AF06AC0EA
:102E88001BF0000E1D6E200E1C6E000E1F6E0B0E2A
:102E98001E6ED5EC2CF0000E00016C6F000E6B6FEF
:102EA8006BC067F06CC068F0000E646F080E636F4B
:102EB80067516525266E68516621276E26C0F6FF84
:102EC80027C0F7FF0800F5CF6DF0674B682B210E80
:102ED8006D6101D0B1D02F0E6D19D8B407D05C0E3A
:102EE8006D19D8B403D021D0674B682B675165257D
:102EF800266E68516621276E26C0F6FF27C0F7FFA9
:102F08000800F5502F0AD8B4EFD767516525266E0B
:102F180068516621276E26C0F6FF27C0F7FF080014
:102F2800F5505C0AD8A488D0DFD72E0E6D19D8B416
:102F380006D063516B5D64516C59D8A013D00B0E49
:102F480063196411D8B404D02E0E6D19D8B402D008
:102F5800060E1200000E6C6F080E6B6F000E646F89
:102F68000B0EA5D76D5107EC2AF01A501B10D8B4D8
:102F780040D0000167516525266E68516621276E8D
:102F880026C0F6FF27C0F7FF0800F5CF62F0674BB1
:102F9800682B62519FEC27F01A501B10D8B413D03D
:102FA800FF0E266EFF0E276E63C028F064C029F05E
:102FB8002650282627502922285000016B5D2950C9
:102FC8006C59D8A002D0060E120000016B51692579
:102FD800D96E6C516A21DA6E6DC0DFFF6B4B6C2BBA
:102FE8006B516925D96E6C516A21DA6E62C0DFFFB8
:102FF80020D0140E1A6E620E1B6E6DC01CF01D6A76
:103008004DEC2CF01A501B10D8B402D0060E12004A
:10301800600E00016D6505D07B0E6D6102D0200E3B
:103028006D5F6B516925D96E6C516A21DA6E6DC07E
:10303800DFFF6B4B6C2B3CD767516525266E6851BB
:103048006621276E24C0D9FF25C0DAFF26C0DEFF1F
:1030580027C0DDFF6B516C11D8A402D0060E1200F8
:1030680069C0D9FF6AC0DAFFE50EDE18D8A406D019
:1030780069C0D9FF6AC0DAFF050EDF6E200E6D65E4
:1030880012D067516525266E68516621276E26C0C5
:10309800F6FF27C0F7FF200E0800F56404D0000EE5
:1030A800616F000E03D0000E616F040E606F20EE9A
:1030B8000BF06951D9266A51DA2260C0DFFF000E91
:1030C8001200000120EE03F09B51D9269C51DA2210
:1030D800000EDF6E20EE2BF09B51D9269C51DA2290
:1030E800FF0EDE6EFF0EDE6EFF0EDE6EFF0EDD6E75
:1030F8009BC090F09CC091F09DC092F09EC093F050
:103108009FC094F0A0C095F009EC26F00009D8B44F
:1031180006D0000E00019C6F040E9B6F12002D0E4E
:1031280000019B251A6E020E9C211B6E6BEC2CF085
:103138001AC0A5F01BC0A6F0000120EE2FF09B518D
:10314800D9269C51DA22DF50A96FEB0EA919D8B401
:1031580008D0E90EA919D8B404D0E80EA919D8A442
:10316800CAD0550EA5191EE1AA0EA619D8A41AD0C0
:10317800810E9B251A6E000E9C211B6E430E1C6E41
:10318800620E1D6E000E1F6E080E1E6E51EC27F0AB
:103198001A501B10D8A406D0000E00019C6F000E18
:1031A8009B6F12003A0E00019B251A6E000E9C219F
:1031B8001B6E6BEC2CF01AC0A7F01BC0A8F0000126
:1031C80020EE3CF09B51D9269C51DA22DF50A96FA2
:1031D800FF0EA16FFF0EA26FA7C0A3F0A8C0A4F0B6
:1031E800A151A327A251A423A751A317A851A417FB
:1031F800A351A411D8A47FD0020EA85DD8A07BD07B
:10320800A705020EA859D8B076D0A951D8B473D062
:10321800FF0EA16FFF0EA26FA951A36FA46BA1515E
:10322800A327A251A423A951A317000EA417A351A1
:10323800A411D8A460D03D0E9B251A6E000E9C21C7
:103248001B6E6BEC2CF01A501B10D8B454D0FF0E28
:103258000001A16FFF0EA26F20EE3FF09B51D9260F
:103268009C51DA22DF50A36FA46BA151A327A2516E
:10327800A423A45140E1020EA35DD8B03CD0400E77
:103288009B251A6E000E9C211B6E6BEC2CF01A50BD
:103298001B10D8B430D0420E00019B251A6E000EC8
:1032A8009C211B6E6BEC2CF01B5012E1800E1A5CFB
:1032B800D8B00ED04F0E00019B251A6E000E9C212F
:1032C8001B6E54EC25F01D5003E11C04D8A013D04C
:1032D800450E00019B251A6E000E9C211B6E6BEC9F
:1032E8002CF01A501B10D8B406D0000E00019C6FA9
:1032F800000E9B6F1200550E0001A51904E1AA0EDD
:10330800A619D8B405D0000E9C6F030E9B6F12004F
:10331800000E9C6F020E9B6F120086C073F087C070
:1033280074F036EC1CF00001906F9051D8A4E4D0F2
:1033380086C0D9FF87C0DAFF030EDE18D8A4C7D02D
:1033480020EE04F08651D9268751DA22DE04D8A46B
:10335800BED02F0E86251A6E000E87211B6E000E1A
:103368001D6E000E1C6E020E1F6E000E1E6ED5EC3A
:103378002CF02D0E000186251A6E020E87211B6E79
:10338800AA0E1D6E550E1C6E13EC2DF02F0E0001AB
:1033980086251A6E000E87211B6E520E1C6E520E69
:1033A8001D6E610E1E6E410E1F6E9CEC29F0130EF1
:1033B800000186251A6E020E87211B6E720E1C6E86
:1033C800720E1D6E410E1E6E610E1F6E9CEC29F072
:1033D800170E000186251A6E020E87211B6E20EE3D
:1033E8000FF08651D9268751DA22DECF1CF0DECFC6
:1033F8001DF0DECF1EF0DECF1FF09CEC29F01B0E77
:10340800000186251A6E020E87211B6E20EE0BF036
:103418008651D9268751DA22DECF1CF0DECF1DF087
:10342800DECF1EF0DECF1FF09CEC29F0000120EE6D
:103438001BF08651D9268751DA22DECF88F0DECFFD
:1034480089F0DECF8AF0DECF8BF0010E88258C6FF5
:10345800000E89218D6F000E8A218E6F000E8B2140
:103468008F6F20EE2BF08651D9268751DA228CC037
:10347800DEFF8DC0DEFF8EC0DEFF8FC0DEFF2F0EA9
:103488008625686F000E8721696F20EE2BF0865124
:10349800D9268751DA22DECF6AF0DECF6BF0DECF95
:1034A8006CF0DECF6DF0010E6E6F20EE01F08651EC
:1034B800D9268751DA22DF5030EC28F0000120EEBF
:1034C80004F08651D9268751DA22000EDF6E000EED
:1034D8001A6E000E1B6E000E1C6E20EE01F0865157
:1034E800D9268751DA22DF50FFEC2CF00009D8B436
:1034F80003D0010E0001906F000190511200000EE0
:103508000001D06FBAC0D9FFBBC0DAFFDECFD1F05F
:10351800DDCFD2F0BF51BE11BD1104E1020EBC5D7A
:10352800D8A010D020EE13F0D151D926D251DA22EA
:10353800DE50BC5DDE50BD59DE50BE59DE50BF596D
:10354800D8A002D0020E1200C051C111C211C3117D
:10355800D8B41DD0D1C09BF0D2C09CF0C0C09DF0A3
:10356800C1C09EF0C2C09FF0C3C0A0F0FF0EA16F03
:10357800FF0EA26FFF0EA36FFF0EA46F0FEC0EF0ED
:103588000001D06FD051D8B402D0D0511200BAC0C7
:103598009BF0BBC09CF0BCC09DF0BDC09EF0BEC0FF
:1035A8009FF0BFC0A0F017EC12F09BC0CCF09CC0FD
:1035B800CDF09DC0CEF09EC0CFF00001CC51CD1112
:1035C800CE11CF11D8B47DD0CC05CD11CE11CF11ED
:1035D800D8A402D0020E1200CC2909E1CD2907E1B6
:1035E800CE2905E1CF29D8A402D0010E1200D1C0FE
:1035F8009BF0D2C09CF0BCC09DF0BDC09EF0BEC088
:103608009FF0BFC0A0F0000EA16F000EA26F000EC9
:10361800A36F000EA46F0FEC0EF00001D06FD05115
:10362800D8B402D0D051120020EE13F0D151D926CF
:10363800D251DA22FE0EDE24C46FFF0EDE20C56FE3
:10364800FF0EDE20C66FFF0EDE20C76F20EE0FF0E4
:10365800D151D926D251DA22C451DE5CC551DE5887
:10366800C651DE58C751DE58D8B013D020EE0FF03F
:10367800D151D926D251DA22DE2A000EDE22DE22EC
:10368800DE2220EE04F0D151D926D251DA22000EE2
:10369800DB80CCC0BCF0CDC0BDF0CEC0BEF0CFC08A
:1036A800BFF020EE13F0D151D926D251DA22DE50E4
:1036B800BC5DDE50BD59DE50BE59DE50BF59D8A0A2
:1036C80066D7000E1200AAC09BF0ABC09CF0000E9B
:1036D80000019D6F000E9E6F000E9F6F000EA06F81
:1036E80065EC18F09BC0C4F09CC0C5F0020E000148
:1036F800C419C511D8B40FD0C55108E1030EC45D73
:10370800D8B004D0AC51AD11D8A405D0C4C0AAF02B
:10371800C5C0ABF01200000EC76F000EC66FC751D0
:103728003DE1040EC65DD8B039D0F50EAE6F010E7E
:10373800AF6FC6C0B0F0C7C0B1F0B03BB13BF00E40
:10374800B117B0510F0BB113F00EB017AE51B0272F
:10375800AF51B123B051AA251A6EB151AB211B6EDE
:1037680054EC25F0B40E0001B26F000EB36FD89080
:10377800C635D96EC735DA6ED890D936DA36B25131
:10378800D926B351DA221AC0DEFF1BC0DEFF1CC0E7
:10379800DEFF1DC0DEFFC64BC72BC1D7AC51AD1134
:1037A800D8A405D0000EC76F000EC66F06D0FF0E56
:1037B800AC25C66FFF0EAD21C76FB40EAE6F000EFD
:1037C800AF6FD890C635D96EC735DA6ED890D9366E
:1037D800DA36AE51D926AF51DA22DE50DE10DE10CD
:1037E800DE10D8A405D0000EC56F030EC46F22D01A
:1037F800AAC09BF0ABC09CF0B40EAE6F000EAF6FCA
:10380800D890C635D96EC735DA6ED890D936DA363B
:10381800AE51D926AF51DA22DECF9DF0DECF9EF031
:10382800DECF9FF0DECFA0F065EC18F09BC0C4F0AF
:103838009CC0C5F00001AC51AD11D8A40ED0C55143
:1038480004E1020EC45DD8A008D0C64BC72BC751EF
:1038580004E1040EC65DD8A0B0D7C4C0AAF0C5C0A4
:10386800ABF01200000E0001856F20EE03F07351DB
:10387800D9267451DA22DF50D8B4B3D02F0E73256D
:10388800686F000E7421696F20EE2BF07351D926F2
:103898007451DA22DECF6AF0DECF6BF0DECF6CF047
:1038A800DECF6DF0010E6E6F20EE01F07351D92658
:1038B8007451DA22DF5030EC28F00009D8A48ED0F9
:1038C800000120EE03F07351D9267451DA22000E5C
:1038D800DF6E20EE17F07351D9267451DA2210EEFC
:1038E8002BF07351E1267451E222E6CF79F0E6CF4E
:1038F8007AF0E6CF7BF0E6CF7CF010EE1FF0735144
:10390800E1267451E222E6CF7DF0E6CF7EF0E6CFE5
:103918007FF0E6CF80F07D1F7E1F7F1F801F7D2BED
:10392800000E7E237F23802379517D25816F7A5174
:103938007E21826F7B517F21836F7C518021846F30
:10394800DE50815DDE508259DE508359DE50845945
:10395800D8B047D020EE02F07351D9267451DA223C
:10396800020EDE18D8A43DD02F0E7325686F000E06
:103978007421696F20EE17F07351D9267451DA2239
:10398800DECF75F0DECF76F0DECF77F0DECF78F0E1
:1039980020EE2BF07351D9267451DA22DECF79F05C
:1039A800DECF7AF0DECF7BF0DECF7CF07551792563
:1039B8006A6F76517A216B6F77517B216C6F7851E2
:1039C8007C216D6F010E6E6F20EE01F07351D926C8
:1039D8007451DA22DF5030EC28F003D0010E0001D8
:1039E800856F0001855112009BC021F09CC022F018
:1039F800A20E236E000E246E97EC24F00001A16F36
:103A0800A151D8A4A8D020EE0EF09B51D9269C51E4
:103A1800DA22DFACA0D06AEC22F01AC09DF01BC0FD
:103A28009EF01CC09FF01DC0A0F0A2C090F0A3C0E3
:103A380091F0000120EE1CF09B51D9269C51DA220E
:103A4800DECF92F0DECF93F0DECF94F0DECF95F0AC
:103A580009EC26F00001A16FA151D8A47CD020EE7A
:103A680020F09B51D9269C51DA22DECFA4F0DDCF7D
:103A7800A5F020EE0BF0A451D926A551DA22000EAC
:103A8800DB8A9BC0D9FF9CC0DAFFDECF1EF0DDCFFA
:103A98001FF0A4C020F0A5C021F020EE06F09B5135
:103AA800D9269C51DA22DECF22F0DECF23F0DECFFA
:103AB80024F0DECF25F0AEEC2BF01C0E0001A4257F
:103AC8001A6E000EA5211B6E20EE0AF09B51D92616
:103AD8009C51DA22DECF1CF0DECF1DF0DECF1EF0C7
:103AE800DECF1FF09CEC29F0160E0001A4251A6EFB
:103AF800000EA5211B6E9DC01CF09EC01DF09FC02E
:103B08001EF0A0C01FF09CEC29F0120E0001A425A5
:103B18001A6E000EA5211B6E000E1D6E000E1C6E87
:103B280013EC2DF0000120EE03F0A251D926A35189
:103B3800DA22010EDF6EA2C086F0A3C087F091ECF6
:103B480019F00001A16F20EE0EF09B51D9269C516F
:103B5800DA22BF0EDF16A151120073C1D9FF74C15A
:103B6800DAFFDECF7BF1DDCF7CF103D00101754BAD
:103B7800762B75C1F6FF76C1F7FF0800F5502F0ABE
:103B8800D8B4F4D775C1F6FF76C1F7FF0800F55031
:103B98005C0AD8B4EBD7010120EE06F07351D926A0
:103BA8007451DA22DE6ADE6ADE6ADD6A75C1F6FF02
:103BB80076C1F7FF200E0800F56019D020EE27F037
:103BC8007351D9267451DA22800EDF6E73C1B5F0B5
:103BD80074C1B6F0000E0001B76F000EB86F000E8A
:103BE800B96F000EBA6F99EC15F0010128D073C1B6
:103BF80022F074C123F0750E246E010E256E32EC8E
:103C080017F001017E6F7E51D8A459D073C1F5F029
:103C180074C1F6F008EC1FF001017E6F20EE27F06A
:103C28007351D9267451DA22DF507D6F7E51D8B492
:103C380008D0040E7E19D8B47DB541D00CD07E6F63
:103C48003ED07DB53CD020EE04F07351D926745196
:103C5800DA22DFB802D0050EF2D77BC121F07CC191
:103C680022F0FF0E776F010E786F20EE0EF0735181
:103C7800D9267451DA22DECF79F1DDCF7AF1775186
:103C8800791778517A172F0E7927000E7A237951F0
:103C98007B25236E7A517C21246EF0EC28F00101FB
:103CA80020EE06F07351D9267451DA2221C0DEFFC6
:103CB80022C0DEFF23C0DEFF24C0DEFF98D77E517E
:103CC8001200D59EACEC2DF0100E0001FE6F940E84
:103CD800E82EFED7FE2FFCD700F0270E0001F66F66
:103CE800030EF76F7B0EF86F620EF96F010EFA6F15
:103CF800B0EC25F00301046F0451D8A41200000EA3
:103D08001D6E010E64EC29F0040E1D6E620E1E6E0F
:103D18001DEC2BF0050E01017F6F030E806F550E11
:103D2800816F620E826F0A0E836FB8EC08F0030190
:103D3800046F0451D8A45BD0050E0001D76F030EA1
:103D4800D86F5C0ED96F620EDA6F00C3DBF001C367
:103D5800DCF0020EDD6F030EDE6FB9EC04F0030138
:103D6800046F0451D8A42BD0000E1D6E020E64EC13
:103D780029F0490E1D6E010E1E6E1DEC2BF0050E6E
:103D88000001A66F030EA76F46EC2BF0000E1D6E08
:103D9800020E64EC29F0B00E1D6E610E1E6E1DEC55
:103DA8002BF07A0E0001FF6FC10EFE6F810EE82E18
:103DB800FED7FE2FFCD7FF2FFAD700D01200000E37
:103DC8001D6E020E64EC29F0D30E1D6E610E1E6E80
:103DD8001DEC2BF0000E1D6E010E64EC29F004C3DF
:103DE80066F00001676B0FEC2CF0D58E1200000E08
:103DF8001D6E010E64EC29F004C366F00001676BC8
:103E08000FEC2CF0D58E1200F5C0D9FFF6C0DAFF02
:103E1800DECFF9F0DDCFFAF0F5C0B5F0F6C0B6F0B8
:103E2800000E0001B76F000EB86F000EB96F000EDC
:103E3800BA6F99EC15F00001FC6FFC51D8B402D0B0
:103E4800FC511200F9C090F0FAC091F020EE16F083
:103E5800F551D926F651DA22DECF92F0DECF93F073
:103E6800DECF94F0DECF95F009EC26F00001FC6F70
:103E7800FC51D8A463D020EE1AF0F551D926F6519A
:103E8800DA22DECFF7F0DDCFF8F0F7C0D9FFF8C0BF
:103E9800DAFFDF50FB6FFB51D8A403D0040EFC6F90
:103EA8004DD020EE04F0F551D926F651DA2210EE65
:103EB8001AF0F551E126F651E22200EE0BF0E65039
:103EC800E926E550EA22EF503F0BDF6E20EE1AF0AC
:103ED800F551D926F651DA2210EE0BF0DE50E12624
:103EE800DD50E222E7B61AD020EE1AF0F551D926B5
:103EF800F651DA22DECF1AF0DDCF1BF01C0EF525C5
:103F08001C6E000EF6211D6E000E1F6E0B0E1E6E2F
:103F180051EC27F01A501B10D8B410D0F5C0D7F0C8
:103F2800F6C0D8F0000E0001DA6F000ED96F3AEC37
:103F380010F00001FC6FFC51D8B484D70001FC518B
:103F48001200000E00017A6F71C076F072C077F02F
:103F580073C078F074C079F0090ED8907637773747
:103F680078377937E82EF9D776C07BF077C07CF0C0
:103F780078C07DF079C07EF08A9E8A980A0E2EEC71
:103F88002CF07BC01CF07CC01DF07DC01EF07EC0F4
:103F98001FF0000E206E520E87EC2CF0ACEC2DF0CA
:103FA800A6EC2DF00001826F8251D8A4F9D7ACECB1
:103FB8002DF00FD0A6EC2DF00001826F000E1D6EC3
:103FC800010E64EC29F082C066F00001676B0FEC0B
:103FD8002CF0FE0E00018219D8A4ECD7000E816FD8
:103FE800000E806F0CD080516F25D96E81517021E1
:103FF800DA6EA6EC2DF0DF6E0001804B812B81BFBD
:10400800F2D7020E815DD8A0EED73D0E0001776F82
:10401800E10E766F3F0EE82EFED7762FFCD7772F6E
:10402800FAD700D08A9E000E0001816F000E806FC3
:104038008A980A0E2EEC2CF0000E1C6E000E1D6ED7
:10404800000E1E6E000E1F6E000E206E4C0E87ECCA
:104058002CF0ACEC2DF0A6EC2DF00001826F82293B
:10406800D8A4F9D7000E816F000E806F7F5112001F
:1040780086C073F087C074F036EC1CF00009D8B421
:1040880002D0010E120086C026F087C027F088C033
:1040980028F089C029F08AC02AF08BC02BF0D4EC14
:1040A80023F026C090F027C091F028C092F029C0D4
:1040B80093F0000120EE2BF08651D9268751DA22A1
:1040C80090C0DEFF91C0DEFF92C0DEFF93C0DEFF2E
:1040D8002F0E86251A6E000E87211B6E000E1D6E90
:1040E800000E1C6E020E1F6E000E1E6ED5EC2CF01C
:1040F8002F0E000186258E6F000E87218F6F000E10
:10410800956F010E946F000E976F000E966F05D095
:104118000001945196279551972320EE09F0865176
:10412800D9268751DA22DE50965DDE509759D8B0ED
:104138001ED08EC068F08FC069F0965190256A6FC6
:10414800975191216B6F000E92216C6F000E932195
:104158006D6F94C06EF020EE01F08651D92687511C
:10416800DA22DF5030EC28F00009D8B4D1D70001AA
:1041780020EE09F08651D9268751DA229651DE18A9
:1041880004E19751DE18D8B402D0010E1200000ED7
:1041980012000600FACF07F0FBCF08F0E9CF09F0CC
:1041A800EACF0AF0E1CF0BF0E2CF0CF0D9CF0DF057
:1041B800DACF0EF0F3CF0FF0F4CF10F0F6CF11F006
:1041C800F7CF12F0F8CF13F0F5CF14F046C015F082
:1041D80047C016F048C017F049C018F09DBA9EAA0B
:1041E80004D091EC2DF0456E9E9AF2B4F2A436D02C
:1041F800F294010E446E000E196E010E196401D07E
:1042080019D01950020D340EF324D96E010EF42082
:10421800DA6EDE50DE10D8B40BD01950020D340E11
:10422800F324D96E010EF420DA6EDE06000EDD5A94
:10423800192AE3D74304D8A40BD03606D8A03706EA
:1042480036503710D8A404D0000EFA6E000EF96E5E
:10425800000E026E830E016E88EC2DF0F2B2F2A809
:1042680001D0F29218C049F017C048F016C047F0C4
:1042780015C046F014C0F5FF13C0F8FF12C0F7FFD1
:1042880011C0F6FF10C0F4FF0FC0F3FF0EC0DAFF35
:104298000DC0D9FF0CC0E2FF0BC0E1FF0AC0EAFF66
:1042A80009C0E9FF08C0FBFF07C0FAFF46921100EA
:1042B800F5C0D9FFF6C0DAFFDECF73F1DDCF74F1B8
:1042C800F5C0B5F0F6C0B6F0000E0001B76F000EED
:1042D800B86F000EB96F000EBA6F99EC15F00101B6
:1042E800776F7751D8A466D0000E766F000E756F81
:1042F80073C190F074C191F0000120EE16F0F551F1
:10430800D926F651DA22DECF92F0DECF93F0DECF57
:1043180094F0DECF95F009EC26F00101776F775124
:10432800D8A448D0000120EE1AF0F551D926F6514C
:10433800DA22DECFF9F0DDCFFAF0F9C0D9FFFAC002
:10434800DAFFE50EDE18D8B411D020EE1AF0F551D8
:10435800D926F651DA22DECFF9F0DDCFFAF0F9C02E
:10436800D9FFFAC0DAFFDF50D8A40FD00101754B8E
:10437800762B0001F751010175190CE10001F85184
:1043880001017619D8B416D005D0000E0101766F58
:10439800000E756FF5C0D7F0F6C0D8F0000E00011A
:1043A800DA6F010ED96F3AEC10F00101776F77518F
:1043B800D8B49ED7040E7719D8A402D0070E776F09
:1043C80077511200256826681AC0D9FF1BC0DAFF8A
:1043D800DECF27F0DDCF28F027C023F028C024F057
:1043E80027502810D8A405D025C01AF026C01BF0E5
:1043F800120023C0F6FF24C0F7FF0800F5CF22F013
:10440800234A242A000E1F6E210E1E6E22501C6E97
:104418001D6A1E501C5C1F501D58D8A004D03A0EAF
:104428002218D8A4E6D73A0E2218D8A446D0000EEF
:10443800216E010E206E27C0F6FF28C0F7FF2F0E51
:104448000800F56422D027C0F6FF28C0F7FF3A0E0F
:104458000800F5601AD0020E27241C6E000E2820D2
:104468001D6E23501C1811E124501D18D8A40DD01E
:1044780027C0F6FF28C0F7FF0800F5CF1CF0D00EC4
:104488001C24206E216AFF0E212221BE05D0215056
:104498000FE12004D8B00CD020C025F021C026F0B0
:1044A8001AC0D9FF1BC0DAFF23C0DEFF24C0DDFF1E
:1044B80025C01AF026C01BF01200000E266E000E52
:1044C800256E25C01AF026C01BF01200D8902330A4
:1044D8000001616F2230606F2050626F2150636F5E
:1044E800646B656B050ED890623763376437653740
:1044F800E82EF9D71E50666F1F50676F686B696B9F
:104508000B0ED8906637673768376937E82EF9D7C2
:1045180025C06AF06B6B6C6B6D6B6BC06DF06AC01D
:104528006CF06B6B6A6B25C06EF06F6B706B716BA8
:10453800150ED8906E376F3770377137E82EF9D768
:1045480026C072F0736B746B756B190ED890723746
:10455800733774377537E82EF9D76E517211766F45
:104568006F517311776F70517411786F71517511A4
:10457800796F6A5176117A6F6B5177117B6F6C5135
:1045880078117C6F6D5179117D6F66517A117E6F4C
:1045980067517B117F6F68517C11806F69517D1164
:1045A800816F62517E11826F63517F11836F6451F5
:1045B8008011846F65518111856F605182111A6E67
:1045C800615183111B6E000E84111C6E000E851143
:1045D8001D6E1200000E0001616F000E606F000E6C
:1045E800636F000E626F8A9E8A980A0E2EEC2CF07A
:1045F800000E1C6E000E1D6E000E1E6E000E1F6E4D
:10460800000E206E580E87EC2CF0ACEC2DF0A6ECCA
:104618002DF00001676F6751D8A4F9D78A988A9E50
:10462800010E2EEC2CF0FE0E69EC2BF0000E0001B2
:10463800666F000E656F66BF04D0020E665DD8B067
:1046480018D023C0F6FF24C0F7FFF86A070EF764F6
:1046580003D00800F55005D0F6CFE9FFF7CFEAFF01
:10466800EF5069EC2BF0234A242A0001654B662B96
:10467800E2D7FF0E69EC2BF0FF0E69EC2BF03D0E34
:104688002B6EE10E2A6E400EE82EFED72A2EFCD79E
:104698002B2EFAD78A988A9E0A0E2EEC2CF0000E42
:1046A8001C6E000E1D6E000E1E6E000E1F6EFF0E9D
:1046B800206E4D0E87EC2CF0ACEC2DF0A6EC2DF016
:1046C8000001676F6751D8A4F9D764511200FCC084
:1046D800D9FFFDC0DAFFDECF78F1DDCF79F1FCC07C
:1046E800F5F0FDC0F6F0000E0001F86F010EF76F4F
:1046F8005CEC21F001017A6F7A51D8A44FD078C1CF
:1047080090F079C191F0000120EE16F0FC51D92605
:10471800FD51DA22DECF92F0DECF93F0DECF94F0B7
:10472800DECF95F009EC26F001017A6F7A51D8A412
:1047380035D0000120EE1AF0FC51D926FD51DA22BD
:10474800DECF1AF0DDCF1BF0000E1D6E000E1C6EC2
:10475800000E1F6E200E1E6ED5EC2CF0000120EE10
:104768001AF0FC51D926FD51DA22DECF1AF0DDCF3E
:104778001BF01C0EFC251C6E000EFD211D6E000E8C
:104788001F6E0B0E1E6E9CEC2AF0010120EE03F04A
:104798007851D9267951DA22010EDF6E7A5112004A
:1047A800020E285E000E295A2A5A2B5A20EE13F0C0
:1047B8002650D9262750DA22FE0EDE240001606F2B
:1047C800FF0EDE20616FFF0EDE20626FFF0EDE201F
:1047D800636F6051285C6151295862512A586351AE
:1047E8002B58D8A009D0000E266E000E276E000E9A
:1047F800286E000E296E120020EE27F02650D926CA
:104808002750DA22DECF60F0DECF61F0DECF62F033
:10481800DECF63F020EE09F02650D9262750DA22A1
:10482800DECF64F0DDCF65F064C01AF065C01BF020
:104838001C6A1D6A28C01EF029C01FF02AC020F07B
:104848002BC021F0C9EC2AF0000160511A24266E11
:1048580061511B20276E62511C20286E63511D2058
:10486800296E120000018C6F51D083C06FF084C094
:1048780070F085C071F086C072F087C073F088C090
:1048880074F089C075F0A5EC1FF000018A6F8A5199
:104898008D6F8E6B8DC08FF08F51120083C06FF0BB
:1048A80084C070F085C071F086C072F087C073F064
:1048B80088C074F089C075F0A5EC1FF000018A6FFC
:1048C8008A518D6F8E6B000E1D6E010E64EC29F0FF
:1048D8008DC066F08EC067F00FEC2CF07A0E0001E8
:1048E8008B6FC10E8A6F810EE82EFED78A2FFCD7F8
:1048F8008B2FFAD700D08DC08FF045C183F046C109
:1049080084F000018F5112008F51120000018C5168
:10491800000AD8B4AAD7010AD8B4C0D7030AD8B4B1
:10492800F3D7040E1200090E2B6E21502210D8B4B2
:1049380040D021C0D9FF22C0DAFFDE50DE10D8B443
:1049480038D021C0D9FF22C0DAFFDECF25F0DDCF75
:1049580026F025C0D9FF26C0DAFFDF50D8B429D009
:1049680021C0D9FF22C0DAFF10EE05F0DE50E126A3
:10497800DD50E22220EE02F02150D9262250DA2220
:10498800E650DE1816E1E650DE18D8A412D021C091
:10499800D9FF22C0DAFF10EE01F0DE50E126DD502B
:1049A800E222E750F0EC2BF0256E25B002D0000E85
:1049B8002B6E2B50D8B405D0000E296E000E2A6E2F
:1049C80008D021C0D9FF22C0DAFFDECF29F0DDCF21
:1049D8002AF023C0D9FF24C0DAFF29C0DEFF2AC08D
:1049E800DDFF2B501200000E246E000E236E000E09
:1049F800286E000E276E000E266E000E256E0A0E1B
:104A08002EEC2CF08A98000E1C6E000E1D6E000E07
:104A18001E6E000E1F6E950E206E400E87EC2CF059
:104A2800ACEC2DF08A88A6EC2DF0296E274A282AAE
:104A38002904D8B408D028BEF6D72C0E275C010E5E
:104A48002858D8A0F0D7000E286E000E276E29042B
:104A5800D8B417D0000E1D6E010E64EC29F02E0E8E
:104A68001D6E620E1E6E1DEC2BF0000E1D6E020EEA
:104A780064EC29F0E40E1D6E610E1E6E1DEC2BF029
:104A88000BD0000E1D6E010E64EC29F0F40E1D6EA5
:104A9800610E1E6E1DEC2BF02904D8B41200AFD79E
:104AA80020EE03F01A50D9261B50DA22DF501E6E72
:104AB8001E50236E246A256A266A20EE02F01A50D8
:104AC800D9261B50DA22DF501E6E1E5023C020F05C
:104AD80024C021F025C022F01F6A1F10236E205029
:104AE800246E2150256E2250266E20EE01F01A50B9
:104AF800D9261B50DA22DF501E6E1E5023C020F02C
:104B080024C021F025C022F01F6A1F10236E2050F8
:104B1800246E2150256E2250266E1AC0D9FF1BC064
:104B2800DAFFDF501E6E1E5023C020F024C021F093
:104B380025C022F01F6A1F10236E2050246E2150BA
:104B4800256E2250266E23C01AF024C01BF025C003
:104B58001CF026C01DF01200F8C074F1F9C075F100
:104B6800740E1A6E010E1B6EE6EC21F01AC078F175
:104B78001BC079F1010179AF02D00B0E1200D89059
:104B88007835D96E7935DA6E300ED926000EDA22EC
:104B9800DECF76F1DDCF77F176517711D8B406D034
:104BA80076C1D9FF77C1DAFF000EDF6E0001F6513A
:104BB800F711D8B406D0F6C0D9FFF7C0DAFF000E57
:104BC800DF6ED89001017835D96E7935DA6E300EFE
:104BD800D926000EDA22F6C0DEFFF7C0DDFF00019D
:104BE800FA51D8A402D0000E1200F80EC86F000EB9
:104BF800C96FF60ECA6F000ECB6F000ECC6F09ECB2
:104C080000F00101736F73511200000E00019A6FDA
:104C180020EE2BF09051D9269151DA229251DE18CC
:104C28000AE19351DE1807E19451DE1804E1955129
:104C3800DE18D8B43DD090C073F091C074F036EC53
:104C48001CF000019A6F9A51D8A432D02F0E9025EB
:104C5800836F000E9121846F92C085F093C086F017
:104C680094C087F095C088F0010E896F20EE01F09E
:104C78009051D9269151DA22DF5036EC24F0000900
:104C8800D8B407D000019269936994699569010EB7
:104C98009A6F000120EE2BF09051D9269151DA221B
:104CA80092C0DEFF93C0DEFF94C0DEFF95C0DEFF3A
:104CB8009A511200000E0101D36F010ED36501D085
:104CC8001200D351020D3C0EF324D96E010EF420CC
:104CD800DA6EDE50DE10D8B43DD0D351020D340E5A
:104CE800F324D96E010EF420DA6EDE50DE10D8A45B
:104CF80031D0010E436EFD0E376EE80E366ED3517D
:104D0800020D3C0EF324D96E010EF420DA6E01D8A0
:104D18000AD00500FA6EDE50FD6EDE50FE6EF850C9
:104D2800FF6EFA501200000E436E0101D351020DBE
:104D3800380EF324D96E010EF420DA6ED351020D29
:104D4800340EF324E16E010EF420E26EDECFE6FFAE
:104D5800DDCFE5FFD32BB1D723C027F024C028F03F
:104D680027C01AF028C01BF025C01CF026C01DF073
:104D7800F4EC2AF01AC027F01BC028F0214A222A96
:104D880027502810D8A4ECD721C0D9FF22C0DAFFB9
:104D9800000EDF6E2106D8A0220623C01AF024C018
:104DA8001BF025C01CF026C01DF0CFEC2BF01A50CC
:104DB800296E23C01AF024C01BF025C01CF026C0A1
:104DC8001DF0F4EC2AF01AC023F01BC024F0090EE1
:104DD800296402D0070E2926300E292621C0D9FFC2
:104DE80022C0DAFF29C0DFFF2106D8A022062350FF
:104DF8002410D8A4D2D7214A222A12009594959239
:104E080095909598959A959C959E83948392839076
:104E1800839E839C838A8388EA0E1D6EC30EE82EC8
:104E2800FED71D2EFCD700F0838027EC2DF0839051
:104E380027EC2DF04E0E1D6EEB0EE82EFED71D2E24
:104E4800FCD700F0838027EC2DF0839027EC2DF021
:104E58004E0E1D6EEB0EE82EFED71D2EFCD700F071
:104E6800838027EC2DF0839027EC2DF0839E839C84
:104E7800838A8398838027EC2DF0839027EC2DF08C
:104E8800280EEAEC27F0060EEAEC27F00E0EEAEC04
:104E980027F0010EEAEC27F0120040D01AC0D9FF23
:104EA8001BC0DAFFDF50206E1CC0F6FF1DC0F7FFE5
:104EB800F86A070EF76403D00800F55005D0F6CF5E
:104EC800E9FFF7CFEAFFEF502018D8B423D01CC071
:104ED800F6FF1DC0F7FFF86A070EF76403D0080055
:104EE800F55005D0F6CFE9FFF7CFEAFFEF50206E77
:104EF800216A201E211E204A212A1AC0D9FF1BC060
:104F0800DAFFDF50226E225020241A6E000E212074
:104F18001B6E12001A4A1B2A1C4A1D2A1E06D8A0FC
:104F28001F061E28BBE11F28D8A4B8D7000E1B6E89
:104F3800000E1A6E12001C6EAA0EF66E610EF76E47
:104F48000900F5501C5CD8A03CD0AB0EF66E610E83
:104F5800F76E1C500900F55CD8A005D0000E1B6E3A
:104F6800010E1A6E1200AC0EF66E610EF76E090095
:104F7800F5501C5CD8A00ED0AD0EF66E610EF76E23
:104F88001C500900F55CD8A005D0000E1B6E010E60
:104F98001A6E1200AE0EF66E610EF76E0900F5502D
:104FA8001C5CD8A00ED0AF0EF66E610EF76E1C50CA
:104FB8000900F55CD8A005D0000E1B6E010E1A6E14
:104FC8001200000E1B6E000E1A6E12001C6E8394E7
:104FD800839283901CA802D0838801D083981CAA4E
:104FE80002D0838A01D0839A1CAC02D0838C01D072
:104FF800839C1CAE02D0838E01D0839E838027ECD5
:105008002DF0839027EC2DF01CA002D0838801D0CE
:1050180083981CA202D0838A01D0839A1CA402D050
:10502800838C01D0839C1CA602D0838E01D0839EE2
:10503800838027EC2DF0839027EC2DF01C04D8B446
:1050480008D0020E1C18D8B404D0030E1C18D8A41B
:10505800120027EC2DF0120000016F6F32D068C0EB
:1050680023F069C024F06AC025F06BC026F06CC03C
:1050780027F06DC028F06EC029F0EEEC22F02C6EFF
:105088002C500001706F716B70C072F07251120079
:1050980068C023F069C024F06AC025F06BC026F010
:1050A8006CC027F06DC028F06EC029F0EEEC22F03D
:1050B8002C6E2C500001706F716B7251120072517E
:1050C800120000016F51000AD8B4C9D7010AD8B438
:1050D800DFD7030AD8B4F3D7040E1200000E226EED
:1050E800000E236E000E246E000E256E1E501F103B
:1050F80020102110D8B42AD0010E266E06D0D890E0
:105108001E361F3620362136262A21AEF8D7D890EB
:1051180022362336243625361E501A5C1F501B585B
:1051280020501C5821501D58D8A009D01E501A5E76
:105138001F501B5A20501C5A21501D5A2280D890AB
:10514800213220321F321E32262EE1D722C01AF019
:1051580023C01BF024C01CF025C01DF01200950EC2
:10516800F66E610EF76E20EE60F0100E0900F5CFB6
:10517800DEFFE806FBE2840EF66E610EF76E20EEA7
:1051880071F0100E0900F5CFDEFFE806FBE2000E15
:105198001D6E010E64EC29F0600E1D6E000E1E6E71
:1051A8001DEC2BF0000E1D6E020E64EC29F0710E42
:1051B8001D6E000E1E6E1DEC2BF03D0E216EE10ED5
:1051C800206E400EE82EFED7202EFCD7212EFAD7CF
:1051D800010EEAEC27F012001A0E23241A6E000EB4
:1051E80024201B6E6BEC2CF01AC029F01BC02AF08F
:1051F8002B6A2C6A21C0D9FF22C0DAFF030EDE1801
:10520800D8A41CD0140E23241A6E000E24201B6E62
:105218006BEC2CF01A50256E1B50266E276A286AF4
:1052280026C028F025C027F0266A256A25502912AD
:1052380026502A1227502B1228502C1229C021F050
:105248002AC022F02BC023F02CC024F012001C6EC0
:105258008394838283901CA802D0838801D083988A
:105268001CAA02D0838A01D0839A1CAC02D0838CFA
:1052780001D0839C1CAE02D0838E01D0839E838094
:1052880027EC2DF0839027EC2DF01CA002D083880A
:1052980001D083981CA202D0838A01D0839A1CA4CF
:1052A80002D0838C01D0839C1CA602D0838E01D0AF
:1052B800839E838027EC2DF0839027EC2DF012003D
:1052C8001E6E000E1F6E110E1D602FD01ED01DC049
:1052D8001FF01F50D2EC29F026D01D50400F1F6E32
:1052E8001F50D2EC29F01FD01D50140F1F6E1F50F5
:1052F800D2EC29F018D01D50540F1F6E1F50D2EC5D
:1053080029F011D0000E1F6E0ED01E50010AD8B41D
:10531800DED7030AD8B4E1D7010AD8B4E5D7070A1B
:10532800D8B4E9D7EFD71D2A1200000E1F6E12005D
:105338001AC0D9FF1BC0DAFF1CC0DFFF1A4A1B2A9C
:105348001DC01CF01EC01DF01FC01EF01F6A1AC031
:10535800D9FF1BC0DAFF1CC0DFFF1A4A1B2A1DC079
:105368001CF01EC01DF01FC01EF01F6A1AC0D9FF16
:105378001BC0DAFF1CC0DFFF1A4A1B2A1DC01CF025
:105388001EC01DF01FC01EF01F6A1AC0D9FF1BC027
:10539800DAFF1CC0DFFF1A4A1B2A12001C6E839416
:1053A80083928390838E1CA802D0838801D083982F
:1053B8001CAA02D0838A01D0839A1CAC02D0838CA9
:1053C80001D0839C838027EC2DF0839027EC2DF06F
:1053D8001CA002D0838801D083981CA202D0838AA3
:1053E80001D0839A1CA402D0838C01D0839C1CA674
:1053F80002D0838E01D0839E838027EC2DF083908A
:1054080027EC2DF012001C6EA60EF66E610EF76EDC
:105418000900F5501C5CD8A025D0A70EF66E610EC9
:10542800F76E1C500900F55CD8A005D0000E1B6E65
:10543800010E1A6E1200A80EF66E610EF76E0900C4
:10544800F5501C5CD8A00ED0A90EF66E610EF76E52
:105458001C500900F55CD8A005D0000E1B6E010E8B
:105468001A6E1200000E1B6E000E1A6E1200720EDB
:10547800F66E5A0EF76E000EF86E01EED4F010EECE
:105488001DF00900F5CFEEFFE550E150FAE103EE1B
:1054980027F012EE2FF0EE6AE550E150FCE1E25001
:1054A800FAE102EE00F0FA0EEE6AE806FDE101EE1E
:1054B80000F0730EEE6AE806FDE100EE2DF0190E1D
:1054C800EE6AE806FDE146904692000EF86E00018D
:1054D800EBEF2CF0000E3A6E000E1C6EF29E22D0FE
:1054E8001C5000081A6E070E1A2681AA03D01B6AE0
:1054F8001B2A01D01B6A1A2A02D0D8901B361A2EF2
:10550800FCD71B503A120A0EE82EFED78A8C0A0ED8
:10551800E82EFED70A0EE82EFED78A9C0A0EE82E41
:10552800FED71C2A070E1C64DBD7F28E3A501200F5
:105538001CC023F01DC024F01AC021F01BC022F0AB
:105548001BD023C0F6FF24C0F7FFF86A070EF764E4
:1055580003D00800F55005D0F6CFE9FFF7CFEAFFF2
:10556800EF50206E234A242A21C0D9FF22C0DAFF37
:1055780020C0DFFF214A222A1E06D8A01F061E28A7
:10558800E0E11F28D8B41200DCD7000E226E000E0E
:10559800236E000E246E000E256E1AA008D01E5031
:1055A80022261F5023222050242221502522D89021
:1055B8001E361F3620362136D8901D321C321B323B
:1055C8001A321A501B101C101D10D8A4E6D722C07E
:1055D8001AF023C01BF024C01CF025C01DF01200D7
:1055E800000E206E000E1F6E1C501D10D8B41CD06B
:1055F800010E1E6E04D0D8901C361D361E2A1DAE14
:10560800FAD7D8901F3620361C501A5C1D501B58EC
:10561800D8A005D01C501A5E1D501B5A1F80D89068
:105628001D321C321E2EEDD71FC01AF020C01BF0F1
:10563800120014D01DC0F6FF1EC0F7FFF86A070E4F
:10564800F76403D00800F55005D0F6CFE9FFF7CF8F
:10565800EAFFEF502BEC29F01D4A1E2A1DC0F6FF69
:105668001EC0F7FFF86A070EF76403D00800F5506C
:1056780005D0F6CFE9FFF7CFEAFFEF500009D8B41D
:105688001200D8D7A6C09BF0A7C09CF0F8EC1CF07D
:105698000001AA6FAA51D8A41200A6C021F0A7C081
:1056A80022F0A80E236E000E246E97EC24F0000161
:1056B800AA6FAA51D8A41200A6C0D9FFA7C0DAFFC2
:1056C800000EDE6E000EDD6E12001B6E8A9E000E4E
:1056D8001A6EF29E18D01BBE02D08A9E01D08A8E06
:1056E8001B501B241B6E0A0EE82EFED78A8C0A0E4E
:1056F800E82EFED78A9E0A0EE82EFED78A9C0A0E4E
:10570800E82EFED71A2A070E1A64E5D7F28E120081
:1057180060C02AF061C02BF0000163AF0CD060C0FC
:10572800D9FF61C0DAFF2D0EDF6E604B612B626D11
:10573800631FD8B0632B60C021F061C022F062C043
:1057480023F063C024F064C025F065C026F0B0ECF7
:1057580026F012001A0E20241A6E000E21201B6E4D
:1057680022C01CF023C01DF013EC2DF01EC0D9FF81
:105778001FC0DAFF030EDE18D8A41200140E20246E
:105788001A6E000E21201B6E24C01CF025C01DF0CF
:1057980013EC2DF012001C501D10D8B418D0010EB7
:1057A8001E6E04D0D8901C361D361E2A1DAEFAD7A0
:1057B8001C501A5C1D501B58D8A004D01C501A5EEF
:1057C8001D501B5AD8901D321C321E2EF1D71AC0FC
:1057D8001AF01BC01BF012001F6E11D01F506CEC8A
:1057E8002DF0206E205012001F506CEC2DF01C6E16
:1057F8001C501D6E1E6A20501200205012001F50AF
:10580800000AD8B4EBD7010AD8B4EED7030AD8B443
:10581800F4D7010E120021EEEAF010EE68F0060E41
:10582800DBCFE3FFE806FCE2680E0001606F000EC4
:10583800616F66C062F067C063F0000E656F0A0EA4
:10584800646F8CEC2BF0680E1D6E000E1E6E1DEC46
:105858002BF012001E6E100E1C6E940EE82EFED752
:105868001C2EFCD700D0000E206E000E1F6E07D035
:105878008A88FF0E69EC2BF08A981F4A202A1E504E
:105888001C6E1D6A1C501F5C1D502058D8B0120099
:10589800EFD71AC0F6FF1BC0F7FF0800F5501C1819
:1058A800D8A405D01AC01AF01BC01BF012001AC0E9
:1058B800F6FF1BC0F7FF1A4A1B2A0800F55000091B
:1058C800D8A4E7D7000E1A6E000E1B6E120020EE49
:1058D80001F01A50D9261B50DA22DF501C6E1C50DA
:1058E8001F6E206A1AC0D9FF1BC0DAFFDF501C6E7A
:1058F8001F501D6E1C501F6E1DC020F01FC01AF0D7
:1059080020C01BF01200216E215069EC2BF01FC043
:1059180022F0225069EC2BF01EC022F0225069ECD4
:105928002BF01DC022F0225069EC2BF01CC022F095
:10593800225069EC2BF0205069EC2BF012002B6EF2
:105948000CD0D8EC13F02C6E2C501200D8EC13F0BD
:105958002C6E2C5012002C5012002B50000AD8B478
:10596800F0D7010AD8B4F2D7030AD8B4F4D7010E95
:105978001200CA0E01013C6F3C0E3D6F130E396FC9
:10598800880E386F130E3B6F880E3A6F130E356F03
:10599800880E346F130E376F880E366F000E436E05
:1059A80012001AC020F01BC021F008D020C0D9FF77
:1059B80021C0DAFF1CC0DFFF204A212A1E06D8A01A
:1059C8001F061E28F3E11F28D8B41200EFD761EC98
:1059D8002DF002EC27F0A0EC2DF0B3EC28F0BDEC94
:1059E8002CF00F0EC16E4404D8A4FDD7000E446EEF
:1059F8005EEC26F0F8D71D6E06D01E5012001E5021
:105A080012001E5012001D50000AD8B4F6D7010A21
:105A1800D8B4F5D7030AD8B4F4D7040E12001AC0C4
:105A2800D9FF1BC0DAFF1CC0DFFF1A4A1B2A1D5012
:105A38001C6E1D6A1AC0D9FF1BC0DAFF1CC0DFFF2D
:105A48001A4A1B2A1200000E1A6E630E1A6401D03D
:105A5800120000F0000E1B6E310E1B6401D003D043
:105A680000F01B2AF9D71A2AF0D7636865636B2EF2
:105A7800747874000000000000303030303030009E
:075A880030303030303000F7
:105A9000C30ED56E000E656E000E636E000E1B6E9B
:105AA000830E1A6E7FEC2DF01200210E936E8A6821
:105AB000000E956E070E926E110E946E030E966E8A
:105AC0001200B2EC2DF055EC2DF048EC2DF09AECD4
:105AD0002DF076EC2DF012001B6E000E1A6E1B508E
