:0400000007EF00F016
:10000800468200ED21F046EF29F099C0D9FF9AC049
:10001800DAFF000EDE6E000EDD6E97C01AF098C093
:100028001BF017EC1CF01AC0C4F01BC0C5F000018F
:10003800C5AF02D00B0E1200D890C435D96EC535A5
:10004800DA6EFC0ED926000EDA22DECFDCF0DDCF28
:10005800DDF0DC51DD11D8A402D00C0E120099C0DD
:10006800D9FF9AC0DAFFDCC0DEFFDDC0DDFF9B915F
:10007800DCC0D9FFDDC0DAFFDF50D8B415D020EEE0
:1000880001F0DC51D926DD51DA22DF5033EC2CF0B7
:100098000001CC6FCCB108D09B51D8A4CCA502D01C
:1000A8000A0E1200000E1200DCC0D9FFDDC0DAFF14
:1000B800000EDF6E20EE01F0DC51D926DD51DA2288
:1000C800C4C0DFFF20EE01F0DC51D926DD51DA2271
:1000D800DF5090EC2CF00001CC6FCCA102D0030EC5
:1000E80012009B51D8A4CCA502D00A0E1200000E13
:1000F800D56F000ED66F000ED76F000ED86FDCC01C
:1001080090F0DDC091F0D5C092F0D6C093F0D7C082
:1001180094F0D8C095F090EC21F00001DB6F0F0E41
:100128001D6E020EB8EC29F0DBC02CF02D6A71ECC4
:100138002CF07A0E00019D6FC10E9C6F810EE82E87
:10014800FED79C2FFCD79D2FFAD700D0020E0001B6
:10015800DB19D8A4B1D0000EDA6F000ED96FDA51CE
:100168005DE1040ED95DD8B059D0ED0E9C6F010E3B
:100178009D6FD9C09EF0DAC09FF09E3B9F3BF00E6A
:100188009F179E510F0B9F13F00E9E179C519E2791
:100198009D519F239E51DC25BE6F9F51DD21BF6F6E
:1001A80020EE04F0BE51D926BF51DA22DF50D8A480
:1001B80009D0000EB46F000EB56F000EB66F000EBA
:1001C800B76F10D0080EBE251A6E000EBF211B6E29
:1001D8007CEC25F01AC0B4F01BC0B5F01CC0B6F01A
:1001E8001DC0B7F0A40E00019C6F000E9D6FD89043
:1001F800D935D96EDA35DA6ED890D936DA369C51D7
:10020800D9269D51DA22B4C0DEFFB5C0DEFFB6C0E4
:10021800DEFFB7C0DEFFD94BDA2BA1D7000EDA6FAD
:10022800000ED96FD951DA11D8B403D0D907D8A0A4
:10023800DA07A40E9C6F000E9D6FD890D935D96E41
:10024800DA35DA6ED890D936DA369C51D9269D51EE
:10025800DA22DECFD5F0DECFD6F0DECFD7F0DECF94
:10026800D8F0D551D611D711D811D8A405D0000E81
:10027800B96F030EB86F13D0DCC090F0DDC091F0F9
:10028800D5C092F0D6C093F0D7C094F0D8C095F0FE
:1002980090EC21F000019C6F9C51B86FB96BB8C00D
:1002A800DBF0010EDB6508D0D94BDA2BDA5104E11B
:1002B800040ED95DD8A0BDD7040EDB19D8A402D08E
:1002C800010E1200010EDB6502D00D0E12003A0E6F
:1002D800DC251A6E000EDD211B6EAEEC2CF0020E32
:1002E8001B181A10D8B402D00D0E1200450E0001CA
:1002F800DC251A6E000EDD211B6EAEEC2CF01AC048
:10030800D1F01BC0D2F00001D36BD46BD151D21104
:10031800D311D411D8A410D0530EDC251A6E000EB8
:10032800DD211B6E7CEC25F01AC0D1F01BC0D2F089
:100338001CC0D3F01DC0D4F0000120EE17F0DC5132
:10034800D926DD51DA22D1C0DEFFD2C0DEFFD3C00C
:10035800DEFFD4C0DEFF20EE3FF0DC51D926DD51B0
:10036800DA2210EE02F0DC51E126DD51E222DFCF85
:10037800E7FF20EE02F0DC51D926DD51DA22DE0457
:10038800D8B40CD020EE02F0DC51D926DD51DA22A7
:10039800020EDE18D8B402D00D0E1200D1C01AF029
:1003A800D2C01BF0D3C01CF0D4C01DF020EE02F068
:1003B800DC51D926DD51DA22DF509C6F9C511E6E2C
:1003C8001F6A206A216ABFEC2AF01AC0D1F01BC04C
:1003D800D2F01CC0D3F01DC0D4F0000120EE3CF0D8
:1003E800DC51D926DD51DA22DF509C6F9D6B20EE5F
:1003F80009F0DC51D926DD51DA229CC0DEFF9DC010
:10040800DDFF20EE09F0DC51D926DD51DA22DE507D
:10041800DE10D8B424D020EE09F0DC51D926DD5105
:10042800DA22DECF9CF0DDCF9DF0FF0E9E6FFF0E2F
:100438009F6F20EE09F0DC51D926DD51DA22DECF9C
:10044800A0F0DDCFA1F09E51A0279F51A1239C5180
:10045800A0179D51A117A051A111D8B402D00D0E1B
:100468001200400EDC251A6E000EDD211B6EAEEC6C
:100478002CF0000120EE07F0DC51D926DD51DA22FC
:100488001AC0DEFF1BC0DDFF20EE07F0DC51D926C5
:10049800DD51DA22DECF9CF0DDCF9DF00F0E9C17E8
:1004A800000E9D179C519D11D8B402D00D0E12005C
:1004B800420EDC251A6E000EDD211B6EAEEC2CF010
:1004C8001AC0C8F01BC0C9F00001CA6BCB6BC85179
:1004D800C911CA11CB11D8A410D04F0EDC251A6E41
:1004E800000EDD211B6E7CEC25F01AC0C8F01BC085
:1004F800C9F01CC0CAF01DC0CBF03D0E0001DC25C0
:100508001A6E000EDD211B6EAEEC2CF01AC0C6F080
:100518001BC0C7F00001C651C711D8A402D00D0EE8
:10052800120020EE07F0DC51D926DD51DA22DECFA9
:100538009CF0DDCF9DF0040E9E6FD8909D339C33C8
:100548009E2FFBD7C6519C259F6FC7519D21A06F39
:10055800A16BD8B0A12BA26BD1519F25C06FD251EE
:10056800A021C16FD351A121C26FD451A221C36F61
:10057800C051C85DC151C959C251CA59C351CB599B
:10058800D8B002D00D0E1200C0C09CF0C1C09DF0C2
:10059800C2C09EF0C3C09FF09C1F9D1F9E1F9F1F3F
:1005A8009C2B000E9D239E239F23C8519C251A6EC9
:1005B800C9519D211B6ECA519E211C6ECB519F2192
:1005C8001D6E20EE09F0DC51D926DD51DA22DECF8E
:1005D800A0F0DDCFA1F0A0C01EF0A1C01FF0206ADE
:1005E800216A8DEC28F01AC0CDF01BC0CEF01CC0DB
:1005F800CFF01DC0D0F00001CD51CE11CF11D011D8
:10060800D8A402D00D0E1200000EDB6FF60ECD5DE1
:10061800FF0ECE59FF0ECF590F0ED059D8B002D0C9
:10062800030EDB6FD051CF1108E1F60ECD5DFF0E42
:10063800CE59D8B002D0020EDB6FD051CF1108E1ED
:10064800F60ECD5D0F0ECE59D8B002D0010EDB6F7D
:10065800DB51D8A402D00D0E1200020ECD259C6FDE
:10066800000ECE219D6F000ECF219E6F000ED0216F
:100678009F6F20EE13F0DC51D926DD51DA229CC0A1
:10068800DEFF9DC0DEFF9EC0DEFF9FC0DEFF20EEC6
:100698001BF0DC51D926DD51DA22D5C0DEFFD6C0E9
:1006A800DEFFD7C0DEFFD8C0DEFFC651D5259C6F60
:1006B800C751D6219D6F000ED7219E6F000ED821FD
:1006C8009F6F20EE1FF0DC51D926DD51DA229CC045
:1006D800DEFF9DC0DEFF9EC0DEFF9FC0DEFFC05173
:1006E800D5259C6FC151D6219D6FC251D7219E6FD0
:1006F800C351D8219F6F20EE27F0DC51D926DD5158
:10070800DA229CC0DEFF9DC0DEFF9EC0DEFF9FC0D8
:10071800DEFF030EDB19D8A451D0590EDC251A6E62
:10072800000EDD211B6EAEEC2CF01A501B10D8B455
:1007380002D00D0E1200000120EE07F0DC51D92680
:10074800DD51DA22DE50DE10D8B402D00D0E1200D0
:100758005B0EDC251A6E000EDD211B6E7CEC25F08D
:10076800000120EE23F0DC51D926DD51DA221AC02F
:10077800DEFF1BC0DEFF1CC0DEFF1DC0DEFF20EE5B
:1007880013F0DC51D926DD51DA22DECF9CF0DECF22
:100798009DF0DECF9EF0DECF9FF0020ED8909C3702
:1007A8009D379E379F37E82EF9D79CC0BAF09DC079
:1007B800BBF09EC0BCF09FC0BDF093D020EE07F008
:1007C800DC51D926DD51DA22DE50DE10D8A402D061
:1007D8000D0E120020EE1FF0DC51D926DD51DA2271
:1007E800DECF9CF0DECF9DF0DECF9EF0DECF9FF017
:1007F800D1519C25A06FD2519D21A16FD3519E212B
:10080800A26FD4519F21A36F20EE23F0DC51D9268B
:10081800DD51DA22A0C0DEFFA1C0DEFFA2C0DEFFEC
:10082800A3C0DEFF020EDB19D8B444D020EE13F0CB
:10083800DC51D926DD51DA22DECF9CF0DECF9DF0E7
:10084800DECF9EF0DECF9FF0010E9C15A06F000E4C
:100858009D15A16F000E9E15A26F000E9F15A36F28
:1008680020EE13F0DC51D926DD51DA22DECF1AF062
:10087800DECF1BF0DECF1CF0DECF1DF0030E1E6EA8
:10088800000E1F6E000E206E000E216EBFEC2AF0C7
:10089800D8901D321C321B321A320001A0511A2482
:1008A800BA6FA1511B20BB6FA2511C20BC6FA35172
:1008B8001D2016D020EE13F0DC51D926DD51DA22A6
:1008C800DECF9CF0DECF9DF0DECF9EF0DECF9FF036
:1008D800D8909C35BA6F9D35BB6F9E35BC6F9F35E0
:1008E800BD6FFF0EBA259C6F010EBB219D6F000ED8
:1008F800BC219E6F000EBD219F6F0A0E05D0D890B7
:100908009F339E339D339C33E82EF9D720EE17F0A2
:10091800DC51D926DD51DA229C51DE5C9D51DE582E
:100928009E51DE589F51DE58D8B002D00D0E1200ED
:1009380020EE0FF0DC51D926DD51DA22FF0EDE6EF3
:10094800FF0EDE6EFF0EDE6EFF0EDD6EDD52DD5237
:1009580010EE0BF0DC51E126DD51E222DECFE6FF9E
:10096800DECFE6FFDECFE6FFDECFE6FF20EE04F0C7
:10097800DC51D926DD51DA22800EDF6E030EDB1939
:10098800D8A495D05F0EDC251A6E000EDD211B6EF3
:10099800AEEC2CF01A041B10D8A489D0DCC085F06A
:1009A800DDC086F0010E0001D525876F000ED62127
:1009B800886F000ED721896F000ED8218A6F2EEC20
:1009C80026F00009D8A473D0000120EE04F0DC5111
:1009D800D926DD51DA22000EDF6E2D0EDC251A6EC7
:1009E800020EDD211B6EAEEC2CF0550E1A185FE1DD
:1009F800AA0E1B18D8A45BD02F0E0001DC251A6E96
:100A0800000EDD211B6E7CEC25F0520E1A184FE10A
:100A1800520E1B184CE1610E1C1849E1410E1D18BD
:100A2800D8A445D0130E0001DC251A6E020EDD2174
:100A38001B6E7CEC25F0720E1A1839E1720E1B1829
:100A480036E1410E1C1833E1610E1D18D8A42FD0D1
:100A5800170E0001DC251A6E020EDD211B6E7CECE0
:100A680025F0000120EE0FF0DC51D926DD51DA2205
:100A78001AC0DEFF1BC0DEFF1CC0DEFF1DC0DEFF8C
:100A88001B0EDC251A6E020EDD211B6E7CEC25F098
:100A9800000120EE0BF0DC51D926DD51DA221AC014
:100AA800DEFF1BC0DEFF1CC0DEFF1DC0DEFFDCC09A
:100AB800D9FFDDC0DAFFDBC0DFFF0101504B512B4E
:100AC800000120EE05F0DC51D926DD51DA2250C1B3
:100AD800DEFF51C1DDFF000E1200CEC071F1CFC0A4
:100AE80072F1D2C0D9FFD3C0DAFF000EDE6E000E5D
:100AF800DD6ECCC021F0CDC022F0810E236E010E38
:100B0800246EBDEC24F00101706F7051D8A40DD093
:100B1800000120EE0FF0CC51D926CD51DA22DF505A
:100B28000101706F7051D8B402D0705112000001E9
:100B380020EE0EF0CC51D926CD51DA22DFB202D008
:100B4800070E120020EE10F0CC51D926CD51DA2232
:100B580010EE10F0CC51E126CD51E222E6CFD8F0CC
:100B6800E6CFD9F0E6CFDAF0E6CFDBF0D051D825E2
:100B7800DC6FD151D921DD6F000EDA21DE6F000E56
:100B8800DB21DF6FDE50DC5DDE50DD59DE50DE59E3
:100B9800DE50DF59D8B091D320EE10F0CC51D926D1
:100BA800CD51DA22DECFD4F0DDCFD5F0D41FD51F5A
:100BB800D44BD52BFF0ED425D06FFF0ED521D16F86
:100BC8007CD320EE10F0CC51D926CD51DA22FF0E7D
:100BD800DE14D46F010EDE14D56F000EDE14D66F4E
:100BE800000EDE14D76FD451D511D611D711D8A461
:100BF80089D220EE10F0CC51D926CD51DA22DECFA1
:100C0800D4F0DECFD5F0DECFD6F0DECFD7F00A0EA7
:100C180005D0D890D733D633D533D433E82EF9D787
:100C2800FF0ED86FFF0ED96F010120EE09F0815138
:100C3800D9268251DA22DECFDAF0DDCFDBF00001EF
:100C4800D851DA27D951DB23D451DA150101736F52
:100C58000001D551DB150101746F73517411D8A4CB
:100C6800A5D0000120EE10F0CC51D926CD51DA22C2
:100C7800DE50DE10DE10DE10D8A425D020EE06F0FF
:100C8800CC51D926CD51DA22DECF7BF1DECF7CF1F3
:100C9800DECF7DF1DECF7EF101017B517C117D112C
:100CA8007E11D8A42DD0CCC0AFF0CDC0B0F0000ECE
:100CB8000001B16F000EB26F000EB36F000EB46F7B
:100CC80042EC0CF015D0CCC0AFF0CDC0B0F00001B4
:100CD80020EE14F0CC51D926CD51DA22DECFB1F076
:100CE800DECFB2F0DECFB3F0DECFB4F042EC0CF0E2
:100CF800AFC07BF1B0C07CF1B1C07DF1B2C07EF174
:100D080001017B517C117D117E11D8B4DAD27B05AB
:100D18007C117D117E11D8A40BD0000120EE0FF0BC
:100D2800CC51D926CD51DA22020EDF6E020E120006
:100D380001017B2912E17C2910E17D290EE17E2940
:100D4800D8A40BD0000120EE0FF0CC51D926CD51FC
:100D5800DA22010EDF6E010E1200000120EE14F0FF
:100D6800CC51D926CD51DA227BC1DEFF7CC1DEFF12
:100D78007DC1DEFF7EC1DEFF20EE06F0CC51D92614
:100D8800CD51DA22DE50DE10DE10DE10D8A40ED0EF
:100D980020EE06F0CC51D926CD51DA227BC1DEFFF8
:100DA8007CC1DEFF7DC1DEFF7EC1DEFF000120EEDB
:100DB80018F0CC51D926CD51DA22010110EE2BF0D2
:100DC8008151E1268251E222DE50E6181EE1DE5012
:100DD800E6181BE1DE50E61818E1DE50E618D8A444
:100DE80014D081C173F082C174F0ECEC1CF00009DE
:100DF800D8B40BD0000120EE0FF0CC51D926CD513C
:100E0800DA22010EDF6E010E120081C126F082C1C6
:100E180027F0000120EE14F0CC51D926CD51DA226A
:100E2800DECF28F0DECF29F0DECF2AF0DECF2BF0A0
:100E3800FAEC23F026C077F127C078F128C079F1C1
:100E480029C07AF101017751781179117A11D8A462
:100E58000BD0000120EE0FF0CC51D926CD51DA226B
:100E6800020EDF6E020E12000101735177277451D2
:100E78007823000E7923000E7A23D0C0D4F0D1C095
:100E8800D5F0090E0001D66FD890D533D433D62FBC
:100E9800FBD7D4C075F1D5C076F101017551761133
:100EA800D8B4E7D0755173250001D46F010176518C
:100EB80074210001D56F010120EE09F08151D92676
:100EC8008251DA220001D451DE5CD551DE58D8B007
:100ED8001DD0010120EE09F08151D9268251DA2274
:100EE800DECFD4F0DDCFD5F073C1D6F074C1D7F022
:100EF8000001D61FD71FD64BD72BD451D6250101B9
:100F0800756F0001D551D7210101766F71C168F065
:100F180072C169F077C16AF078C16BF079C16CF081
:100F28007AC16DF075C16EF0010120EE01F08151BA
:100F3800D9268251DA22DF504BEC28F00009D8B4C8
:100F48000BD0000120EE0FF0CC51D926CD51DA227A
:100F5800010EDF6E010E1200010175510001D46F00
:100F6800010176510001D56FD66BD76B010120EED8
:100F78002BF08151D9268251DA22DECFD8F0DECF8C
:100F8800D9F0DECFDAF0DECFDBF077C1DCF078C164
:100F9800DDF079C1DEF07AC1DFF00001DC1FDD1F72
:100FA800DE1FDF1FDC2B000EDD23DE23DF23D851FD
:100FB800DC25E06FD951DD21E16FDA51DE21E26FE6
:100FC800DB51DF21E36FD451E05DD551E159D651B2
:100FD800E259D751E359D8B03CD02F0E01018125F1
:100FE8001A6E000E82211B6E20EE2BF08151D9263D
:100FF8008251DA22DECFD4F0DDCFD5F077C1D6F03A
:1010080078C1D7F00001D61FD71FD64BD72BD451A4
:10101800D627D551D723090ED890D637D737E82EFB
:10102800FBD7D651010171251C6E0001D751010172
:1010380072211D6E020E1F6E000E1E6EEAEC2AF063
:10104800010120EE03F08151D9268251DA22000EE7
:10105800DF6E75C1D4F076C1D5F0090ED8900001C5
:10106800D437D537E82EFAD7D4C07FF1D5C080F170
:10107800CAD0000120EE0AF0CC51D926CD51DA228F
:1010880010EE10F0CC51E126CD51E222DE50E65CA4
:10109800DE50E658DE50E658DE50E658D8A023D099
:1010A80081C173F082C174F0ECEC1CF00009D8B473
:1010B8000BD0000120EE0FF0CC51D926CD51DA2209
:1010C800010EDF6E010E1200010120EE2BF081519E
:1010D800D9268251DA2277C1DEFF78C1DEFF79C1D5
:1010E800DEFF7AC1DEFF000120EE18F0CC51D926D0
:1010F800CD51DA2277C1DEFF78C1DEFF79C1DEFF8C
:101108007AC1DEFFFF0ED46F010ED56F20EE10F00E
:10111800CC51D926CD51DA22DECFD6F0DDCFD7F0AB
:10112800D451D617D551D717D61FD71FD64BD72B83
:10113800000ED62501017F6F020E0001D7210101A3
:10114800806F7F510001D05D010180510001D159AC
:10115800D8B004D0D0C07FF1D1C080F181C185F072
:1011680082C186F020EE18F0CC51D926CD51DA2272
:10117800DECF87F0DECF88F0DECF89F0DECF8AF0D1
:101188002EEC26F00009D8B40BD0000120EE0FF0A9
:10119800CC51D926CD51DA22010EDF6E010E120094
:1011A800FF0E0001D46F010ED56F20EE10F0CC5168
:1011B800D926CD51DA22DECFD6F0DDCFD7F0D45103
:1011C800D617D551D7172F0ED627000ED723D651AD
:1011D800010181251A6E0001D751010182211B6E80
:1011E80071C11CF072C11DF07FC11EF080C11FF0DB
:1011F800EAEC2AF0010120EE03F08151D926825150
:10120800DA22010EDF6E01017F510001D05F01017A
:1012180080510001D15BD2C0D9FFD3C0DAFF0101F0
:101228007F51DE268051DD227F5171278051722344
:10123800000120EE10F0CC51D926CD51DA2201015F
:101248007F51DE268051DE22000EDE22DE220001E2
:1012580020EE10F0CC51D926CD51DA2210EE0AF04A
:10126800CC51E126CD51E222DE50E65CDE50E65854
:10127800DE50E658DE50E658D8A003D020EE0AF03B
:1012880002D020EE10F0CC51D926CD51DA22DECF93
:101298006CF1DECF6DF1DECF6EF1DECF6FF120EEB7
:1012A8000AF0CC51D926CD51DA226CC1DEFF6DC1CE
:1012B800DEFF6EC1DEFF6FC1DEFFD051D111D8A4B1
:1012C80080D4000120EE0EF0CC51D926CD51DA227F
:1012D800000EDB8C000E1200010174517511D8A4A8
:1012E80002D0090E1200000E8A6F3F0E896F8951D5
:1012F8007817760E0001976F010E986F9B0E996F05
:10130800010E9A6F78C19BF009EC00F001019D6F06
:101318009D51D8A4A6D29BC19EF19CC19FF19E0E5F
:101328000001F26F010EF36F76C1F4F077C1F5F0AA
:10133800ACEC1DF001019D6F9D51D8B4C5AF02D032
:10134800060E9D6F78C179F11C0E7917D8B4DDD0DF
:101358009D51D8B40FD0040E9D19D8A409D09E0E63
:101368000001F66F010EF76F91EC23F001019D6FFC
:1013780078870CD0A2C179F1110E7917D8B402D0B0
:10138800070E03D078A502D0080E9D6F9D51D8B4E2
:1013980078A7C7D09BC121F09CC122F0B8C123F027
:1013A800B9C124F00BEC29F021C08FF122C090F1D3
:1013B80023C091F124C092F10E0E0101B82500015D
:1013C800866F000E0101B9210001876F1AEC22F027
:1013D8001AC088F01BC089F01CC08AF01DC08BF0B1
:1013E800F0EC29F0010120EE0BF0B851D926B951E3
:1013F800DA22200EDF6E9BC11EF09CC11FF0B8C11F
:1014080020F0B9C121F0000E226E000E236E000EEE
:10141800246E000E256EF1EC2BF01C0E0101B82590
:101428000001866F000E0101B9210001876F000ECF
:10143800886F000E896F000E8A6F000E8B6FF0ECBC
:1014480029F0010120EE03F09B51D9269C51DA22A4
:10145800010EDF6E8F51901191119211D8B461D0A5
:1014680020EE2BF09B51D9269C51DA22DECF81F158
:10147800DECF82F1DECF83F1DECF84F19E0E000154
:10148800AF6F010EB06F8FC1B1F090C1B2F091C1D2
:10149800B3F092C1B4F0000EB56F000EB66F000E37
:1014A800B76F000EB86F5AEC1AF001019D6F9D518D
:1014B800D8A437D09BC185F09CC186F081C187F044
:1014C80082C188F083C189F084C18AF02EEC26F0AD
:1014D80001019D6FFF0E8F25796FFF0E90217A6FA6
:1014E800FF0E91217B6FFF0E92217C6F20EE0BF097
:1014F8009B51D9269C51DA2279C1DEFF7AC1DEFFE1
:101508007BC1DEFF7CC1DEFF0CD09D51D8A409D081
:10151800A2A902D0040E04D078B3A2A102D0070E6B
:101528009D6F9D51D8A420D078B7788D20EE2BF0F0
:101538009B51D9269C51DA2210EE1CF07451E126F9
:101548007551E222DECFE6FFDECFE6FFDECFE6FF13
:10155800DECFE6FF20EE20F07451D9267551DA224D
:10156800B8C1DEFFB9C1DDFF9D51D8A47AD19BC1B6
:1015780021F09CC122F0B8C123F0B9C124F00BECD2
:1015880029F0010120EE06F07451D9267551DA22AE
:1015980021C0DEFF22C0DEFF23C0DEFF24C0DEFF45
:1015A8001C0EB8251A6E000EB9211B6E7CEC25F0B6
:1015B800010120EE0AF07451D9267551DA221AC0B9
:1015C800DEFF1BC0DEFF1CC0DEFF1DC0DEFF74C1D6
:1015D800D9FF75C1DAFF9BC1DEFF9CC1DDFF20EE9C
:1015E80005F09B51D9269C51DA2210EE02F0745175
:1015F800E1267551E222DECFE6FFDDCFE5FF20EEE2
:101608000EF07451D9267551DA2278C1DFFF20EE29
:101618000FF07451D9267551DA22000EDF6E20EED4
:1016280018F07451D9267551DA22DE6ADE6ADE6A4C
:10163800DD6A20EE10F07451D9267551DA22DE6A7F
:10164800DE6ADE6ADD6A78AB0CD120EE0AF07451EE
:10165800D9267551DA22DE50DE10DE10DE10D8B43D
:1016680000D120EE0AF07451D9267551DA2210EE15
:1016780010F07451E1267551E222DECFE6FFDECF8D
:10168800E6FFDECFE6FFDECFE6FF20EE09F09B5156
:10169800D9269C51DA22DECF79F1DDCF7AF1795162
:1016A8007B6F7A517C6F7D6B7E6B090ED8907B3790
:1016B8007C377D377E37E82EF9D77BC18BF17CC12B
:1016C8008CF17DC18DF17EC18EF120EE06F0745152
:1016D800D9267551DA22DECF97F1DECF98F1DECF29
:1016E80099F1DECF9AF120EE0AF07451D92675519E
:1016F800DA22DECF93F1DECF94F1DECF95F1DECFA3
:1017080096F134D074C190F075C191F097C192F000
:1017180098C193F099C194F09AC195F0E9EC14F04E
:1017280090C097F191C098F192C099F193C09AF145
:1017380001019A519911981106E1020E975DD8B0EE
:1017480002D0020E9D6F972909E1982907E199298E
:1017580005E19A29D8A402D0010E9D6F8B51935FA1
:101768008C51945B8D51955B8E51965B9D51D8A49D
:101778000AD093518B5D94518C5995518D5996513E
:101788008E59D8A0BFD720EE14F07451D9267551C0
:10179800DA2297C1DEFF98C1DEFF99C1DEFF9AC148
:1017A800DEFF9D51D8A45DD0FF0E9315796F010E11
:1017B80094157A6F000E95157B6F000E96157C6F49
:1017C80079517A117B117C11D8B44BD09BC126F08A
:1017D8009CC127F097C128F098C129F099C12AF037
:1017E8009AC12BF0FAEC23F026C085F127C086F1C8
:1017F80028C087F129C088F1010185518611871118
:101808008811D8A403D0020E9D6F2BD093C179F113
:1018180094C17AF195C17BF196C17CF10A0E05D08D
:10182800D8907C337B337A337933E82EF9D78551D6
:1018380079257D6F86517A217E6F87517B217F6F55
:1018480088517C21806F20EE18F07451D92675518B
:10185800DA227DC1DEFF7EC1DEFF7FC1DEFF80C1EF
:10186800DEFF9D51D8B408D074C1D9FF75C1DAFF25
:10187800000EDE6E000EDD6E9D511200AFC0D9FF66
:10188800B0C0DAFFDECFC6F0DDCFC7F00001B1513E
:10189800B211B311B411D8A42DD020EE0BF0C6515B
:1018A800D926C751DA22DECFBEF0DECFBFF0DECFB9
:1018B800C0F0DECFC1F0BE51BF11C011C111D8B404
:1018C80010D020EE13F0C651D926C751DA22DE50C7
:1018D800BE5DDE50BF59DE50C059DE50C159D8A098
:1018E80064D0010EBE6F000EBF6F000EC06F000EF9
:1018F800C16F5BD0AFC090F0B0C091F0B1C092F0B2
:10190800B2C093F0B3C094F0B4C095F0E9EC14F011
:1019180090C0C8F091C0C9F092C0CAF093C0CBF093
:101928000001CB51CA11C9110DE1020EC85DD8B032
:1019380009D0010EAF6F000EB06F000EB16F000E30
:10194800B26F1200C82910E1C9290EE1CA290CE1B9
:10195800CB29D8A409D0C8C0AFF0C9C0B0F0CAC05C
:10196800B1F0CBC0B2F0120020EE13F0C651D92668
:10197800C751DA22DE50C85DDE50C959DE50CA5957
:10198800DE50CB59D8B009D0C8C0AFF0C9C0B0F04C
:10199800CAC0B1F0CBC0B2F01200B1C0BEF0B2C044
:1019A800BFF0B3C0C0F0B4C0C1F020EE0FF0C65114
:1019B800D926C751DA22DE50DE10DE10DE10D8A498
:1019C80009D0000EAF6F000EB06F000EB16F000EA1
:1019D800B26F1200000EC26F000EC36F000EC46F0C
:1019E800000EC56FB151BE1909E1B251BF1906E128
:1019F800B351C01903E1B451C119D8A48FD0010E55
:101A0800BE25C26F000EBF21C36F000EC021C46F78
:101A1800000EC121C56F20EE13F0C651D926C7515B
:101A2800DA22DE50C25DDE50C359DE50C459DE50A2
:101A3800C559D8A008D0020EC26F000EC36F000EA1
:101A4800C46F000EC56FAFC090F0B0C091F0C2C0B7
:101A580092F0C3C093F0C4C094F0C5C095F0E9EC0F
:101A680014F090C0C8F091C0C9F092C0CAF093C0F9
:101A7800CBF00001C805C911CA11CB11D8B409D0DF
:101A8800C82910E1C9290EE1CA290CE1CB29D8A43B
:101A980009D0C8C0AFF0C9C0B0F0CAC0B1F0CBC05F
:101AA800B2F01200C851C911CA11CB11D8B436D03E
:101AB80020EE0BF0C651D926C751DA22DECFC8F086
:101AC800DECFC9F0DECFCAF0DECFCBF0CB51CA11E2
:101AD800C91104E1020EC85DD8A018D020EE13F099
:101AE800C651D926C751DA22DE50C85DDE50C95921
:101AF800DE50CA59DE50CB59D8B008D0C8C0BEF0A5
:101B0800C9C0BFF0CAC0C0F0CBC0C1F0000EC26FE0
:101B1800000EC36F000EC46F000EC56FC251C31113
:101B2800C411C511D8A484D0BEC0C2F0BFC0C3F0D0
:101B3800C0C0C4F0C1C0C5F0010EC227000EC32347
:101B4800C423C52320EE13F0C651D926C751DA2283
:101B5800DE50C25DDE50C359DE50C459DE50C5594F
:101B6800D8A01BD0020EC26F000EC36F000EC46F48
:101B7800000EC56FC251BE5DC351BF59C451C05993
:101B8800C551C159D8B009D0000EAF6F000EB06F63
:101B9800000EB16F000EB26F1200AFC090F0B0C06F
:101BA80091F0C2C092F0C3C093F0C4C094F0C5C015
:101BB80095F0E9EC14F090C0C8F091C0C9F092C05B
:101BC800CAF093C0CBF00001C851C911CA11CB119A
:101BD800D8B42ED0C805C911CA11CB11D8B409D0B0
:101BE800C82910E1C9290EE1CA290CE1CB29D8A4DA
:101BF80009D0C8C0AFF0C9C0B0F0CAC0B1F0CBC0FE
:101C0800B2F01200BE51C21997E1BF51C31994E155
:101C1800C051C41991E1C151C519D8A48DD7000E7E
:101C2800AF6F000EB06F000EB16F000EB26F1200F2
:101C3800C6C090F0C7C091F0C2C092F0C3C093F084
:101C4800C4C094F0C5C095F0FF0E966FFF0E976F55
:101C5800FF0E986FFF0E996FEBEC10F00001BD6F4F
:101C6800BD51D8A41ED0B151B211B311B411D8B41A
:101C780018D0C6C090F0C7C091F0B1C092F0B2C001
:101C880093F0B3C094F0B4C095F0C2C096F0C3C04E
:101C980097F0C4C098F0C5C099F0EBEC10F00001C3
:101CA800BD6FBD51D8A444D020EE0BF0C651D92643
:101CB800C751DA22C2C0DEFFC3C0DEFFC4C0DEFFE8
:101CC800C5C0DEFF20EE0FF0C651D926C751DA2273
:101CD80010EE13F0C651E126C751E222FE0EE624AB
:101CE800B96FFF0EE620BA6FFF0EE620BB6FFF0E3E
:101CF800E620BC6FDE50B95DDE50BA59DE50BB59E4
:101D0800DE50BC59D8A00BD020EE0FF0C651D92612
:101D1800C751DA22DE06000EDE5ADE5ADE5A20EEFF
:101D280004F0C651D926C751DA22000EDB8010D044
:101D3800BD05D8B409D0010EC26F000EC36F000EE6
:101D4800C46F000EC56F04D0C269C369C469C56990
:101D5800C2C0AFF0C3C0B0F0C4C0B1F0C5C0B2F0EB
:101D68001200000E0001776F000E766F000E7A6F7A
:101D7800000E796F000E806F000E7F6F000E816F6E
:101D8800100E0001746F940EE82EFED7742FFCD746
:101D980000F01DEC25F08A980A0E52EC2CF0AA0EE1
:101DA8001C6E010E1D6E000E1E6E000E1F6E870E3D
:101DB800206E480ECAEC2CF0D5EC2DF08A88C2ECC7
:101DC8002DF000017D6F7D05D8A404D07D517C6F76
:101DD8007B6B06D0AA0E7D19D8A402D07D517B1347
:101DE800794B7A2BAA0E7B1903E17C05D8B408D06D
:101DF8007ABFE5D7E80E795D030E7A59D8A0DFD708
:101E0800010EC3EC27F0000E1D6E010EB8EC29F090
:101E1800340E1D6E620E1E6E3CEC2BF03D0E000162
:101E2800756FE10E746F3F0EE82EFED7742FFCD746
:101E3800752FFAD700D0AA0E00017B1902E17C05A4
:101E4800D8A42AD1000E7A6F000E796F000E806F29
:101E5800000E7F6F81693D0E0001756FE10E746F92
:101E68003F0EE82EFED7742FFCD7752FFAD700D077
:101E7800080E52EC2CF0000E1C6E000E1D6E000EAB
:101E88001E6E000E1F6EFF0E206E410ECAEC2CF067
:101E980000018169D5EC2DF0C2EC2DF00001816FB5
:101EA8007F4B802B8105D8B408D080BFF5D78051EF
:101EB80004E10A0E7F5DD8A0EFD7080E52EC2CF093
:101EC800000E1C6E000E1D6E000E1E6E000E1F6EA4
:101ED800950E206E770ECAEC2CF000018169D5ECC6
:101EE8002DF0C2EC2DF00001816F7F4B802B810516
:101EF800D8B408D080BFF5D7805104E10A0E7F5DC1
:101F0800D8A0EFD7000E806F000E7F6F8A980A0E58
:101F180052EC2CF0000E1C6E000E1D6E000E1E6E94
:101F2800200E1F6E950E206E690ECAEC2CF0D5ECB3
:101F38002DF08A88000E1D6E010EB8EC29F0210ED6
:101F48001D6E620E1E6E3CEC2BF0C2EC2DF00001F3
:101F5800816F7F4B802B000E1D6E010EB8EC29F0AF
:101F680081C02CF02D6A71EC2CF000018151D8A4AD
:101F7800ECD781690A0E52EC2CF0000E1C6E000E94
:101F88001D6E000E1E6E000E1F6EFF0E206E7A0E66
:101F9800CAEC2CF0D5EC2DF0C2EC2DF00001816FCD
:101FA80081518125800B7E6F000E1D6E010EB8ECED
:101FB80029F07EC02CF02D6A71EC2CF03D0E00014A
:101FC800756FE10E746F3F0EE82EFED7742FFCD7A5
:101FD800752FFAD700D000017F4B802B7E51D8B4E3
:101FE8000BD07E05D8B408D080BFD6D7805104E185
:101FF8000A0E7F5DD8A0D0D77E51D8B403D07E0515
:10200800D8A424D7000E7A6F000E796F100E000145
:10201800746F940EE82EFED7742FFCD700F0000ED4
:102028000001786F7E51D8A429D0010EC3EC27F0A7
:10203800000E1D6E010EB8EC29F0D90E1D6E610E52
:102048001E6E3CEC2BF00A0E52EC2CF0000E1C6EAF
:10205800020E1D6E000E1E6E000E1F6EFF0E206E0D
:10206800500ECAEC2CF0D5EC2DF000018169C2ECC1
:102078002DF00001816F8151D8A4F9D77A0E0001A3
:10208800756FC10E746F810EE82EFED7742FFCD7C2
:10209800752FFAD700D098D0000E0001806F000E7F
:1020A8007F6F81690A0E52EC2CF0000E1C6E000E38
:1020B8001D6E000E1E6E000E1F6EFF0E206E690E46
:1020C800CAEC2CF0D5EC2DF0C2EC2DF00001816F9C
:1020D8007F4B802B8151D8A40BD0000E1D6E010EB2
:1020E800B8EC29F0050E1D6E620E1E6E3CEC2BF04E
:1020F800100E0001746F940EE82EFED7742FFCD7D3
:1021080000F000018151D8B408D080BFDDD7100E8F
:102118007F5D270E8059D8A0D7D781690A0E7F190D
:102128008011D8A436D0000E806F000E7F6F0A0E83
:1021380052EC2CF0000E1C6E000E1D6E000E1E6E72
:10214800000E1F6EFF0E206E410ECAEC2CF0D5EC6F
:102158002DF0C2EC2DF00001816F7F4B802B815157
:10216800D8A40BD0000E1D6E010EB8EC29F0CE0ECF
:102178001D6E610E1E6E3CEC2BF000018151D8B42F
:1021880008D080BFE6D7100E7F5D270E8059D8A0F3
:10219800E0D70A0E52EC2CF0000E1C6E020E1D6EDB
:1021A800000E1E6E000E1F6EFF0E206E500ECAEC43
:1021B8002CF0D5EC2DF000018169C2EC2DF0000166
:1021C800816F8151D8A4F9D7000178511200020E0D
:1021D8000001AE6F95519411931104E1020E925DC6
:1021E800D8A01ED220EE13F09051D9269151DA22B0
:1021F800DE50925DDE509359DE509459DE50955969
:10220800D8A000D20DD292C0ACF093C0ADF0D89057
:10221800AD319B6FAC319A6F9A51AC279B51AD236E
:1022280090C085F091C086F020EE1FF09051D9261D
:102238009151DA22DECF9AF0DECF9BF0DECF9CF010
:10224800DECF9DF0ACC09EF0ADC09FF0090EA06F30
:10225800D8909F339E33A02FFBD79E519A25876F26
:102268009F519B21886F000E9C21896F000E9D2134
:102278008A6F2EEC26F00001AE6FAE51D8A4D0D1F3
:10228800FF0E9A6F010E9B6FACC09CF0ADC09DF025
:102298009A519C179B519D172F0E9C27000E9D232A
:1022A8009C519025AA6F9D519121AB6FAC4BAD2BE2
:1022B80092B104D096C0A6F0A76B1AD096519A6F27
:1022C8009B6B9A3B9B3BF00E9B179A510F0B9B13F2
:1022D800F00E9A17AAC0D9FFABC0DAFFDF500F0B78
:1022E8009C6F9D6B9A519C11A66F9B519D11A76F76
:1022F800AAC0D9FFABC0DAFFA6C0DFFF20EE03F00B
:102308009051D9269151DA22010EDF6E90C085F0E6
:1023180091C086F020EE1FF09051D9269151DA2213
:10232800DECF9AF0DECF9BF0DECF9CF0DECF9DF0C3
:10233800ACC09EF0ADC09FF0090EA06FD8909F333F
:102348009E33A02FFBD79E519A25876F9F519B21C3
:10235800886F000E9C21896F000E9D218A6F2EECDC
:1023680026F00001AE6FAE51D8A45AD1FF0E9A6F75
:10237800010E9B6FACC09CF0ADC09DF09A519C17AC
:102388009B519D172F0E9C27000E9D239C51902535
:10239800AA6F9D519121AB6F92B11BD096C09AF054
:1023A80097C09BF098C09CF099C09DF09BC09AF094
:1023B8009CC09BF09DC09CF09D6B0F0E9A17AAC005
:1023C800D9FFABC0DAFFDF50F00B9A119E6F9E5118
:1023D80012D096C09AF097C09BF098C09CF099C014
:1023E8009DF0050E05D0D8909D339C339B339A33CE
:1023F800E82EF9D79A51A86FA96BAAC0D9FFABC02C
:10240800DAFFA8C0DFFF54D090C085F091C086F0F5
:1024180020EE1FF09051D9269151DA22DECF9AF0A2
:10242800DECF9BF0DECF9CF0DECF9DF092C09EF019
:1024380093C09FF094C0A0F095C0A1F09FC09EF0FB
:10244800A0C09FF0A1C0A0F0A16B9A519E25876FF4
:102458009B519F21886F9C51A021896F9D51A1217B
:102468008A6F2EEC26F00001AE6FAE51D8A4D8D0FA
:10247800FF0E9A6F010E9B6F92C09CF093C09DF067
:10248800D8909C379D379A519C179B519D172F0EBA
:102498009C27000E9D239C5190251A6E9D519121D9
:1024A8001B6E96C01CF097C01DF03BEC2DF0A8D019
:1024B80020EE03F09051D9269151DA22010EDF6EF9
:1024C800AFD090C085F091C086F020EE1FF09051FB
:1024D800D9269151DA22DECF9AF0DECF9BF0DECFFB
:1024E8009CF0DECF9DF092C09EF093C09FF094C008
:1024F800A0F095C0A1F0080E05D0D890A133A03364
:102508009F339E33E82EF9D79A519E25876F9B51AA
:102518009F21886F9C51A021896F9D51A1218A6FAD
:102528002EEC26F00001AE6FAE51D8A479D0FF0E84
:102538009A6F010E9B6F92C09CF093C09DF0D8904B
:102548009C379D37D8909C379D379A519C179B5143
:102558009D172F0E9C27000E9D239C5190251A6EC7
:102568009D5191211B6E7CEC25F0000E1A14000180
:102578009E6F000E1B149F6F000E1C14A06FF00EB0
:102588001D14A16FFF0E9615A26FFF0E9715A36F6E
:10259800FF0E9815A46F0F0E9915A56F9E51A211E5
:1025A800966F9F51A311976FA051A411986FA151D5
:1025B800A511996FFF0E9A6F010E9B6F92C09CF048
:1025C80093C09DF0D8909C379D37D8909C379D3705
:1025D8009A519C179B519D172F0E9C27000E9D23E7
:1025E8009C519025866F9D519121876F96C088F0E8
:1025F80097C089F098C08AF099C08BF0F0EC29F068
:10260800000156D790C0D9FF91C0DAFFDF50010A08
:10261800D8B4F9D5030AD8B4F7D6010AD8B451D733
:10262800AE511200CCC0D9FFCDC0DAFFDECFE4F046
:10263800DDCFE5F0000120EE0EF0CC51D926CD51CA
:10264800DA22DECFD0F0DECFD1F0DECFD2F0DECF8F
:10265800D3F0200ED025E06F000ED121E16F000EDF
:10266800D221E26F000ED321E36F20EE16F0CC5199
:10267800D926CD51DA22DE50DE10DE10DE10D8B4B5
:1026880012D0000EDC6F000EDD6F200EDE6F000E24
:10269800DF6FDC51E05DDD51E159DE51E259DF5178
:1026A800E359D8A002D0040E1200FF0EE015D06F37
:1026B800010EE115D16F000EE215D26F000EE31581
:1026C800D36FD051D111D211D311D8A44CD120EE4F
:1026D80016F0CC51D926CD51DA22DE2A000EDE22A0
:1026E800DE22DE2220EE12F0CC51D926CD51DA229C
:1026F800DE50DE10DE10DE10D8A437D020EE07F052
:10270800E451D926E551DA22DECFD0F0DDCFD1F081
:10271800D051D26FD151D36FD46BD56BE0C0D6F006
:10272800E1C0D7F0E2C0D8F0E3C0D9F0060E05D07A
:10273800D890D933D833D733D633E82EF9D7D251F6
:10274800D65DD351D759D451D859D551D959D8A0D4
:102758000AD120EE16F0CC51D926CD51DA22DE6A04
:10276800DE6ADE6ADD6A040E1200FF0ED06FFF0E0D
:10277800D16F20EE09F0E451D926E551DA22DECFF7
:10278800D2F0DDCFD3F0D051D227D151D323E0C03E
:10279800D4F0E1C0D5F0E2C0D6F0E3C0D7F00A0E1D
:1027A80005D0D890D733D633D533D433E82EF9D7DC
:1027B800D251D415D86FD351D515D96F000ED6156F
:1027C800DA6F000ED715DB6FD851D911DA11DB118A
:1027D800D8A4C9D0CCC090F0CDC091F020EE12F0B2
:1027E800CC51D926CD51DA22DECF92F0DECF93F04C
:1027F800DECF94F0DECF95F0E9EC14F090C0E6F06F
:1028080091C0E7F092C0E8F093C0E9F00001E95107
:10281800E811E71106E1020EE65DD8B002D0020E1B
:102828001200E62909E1E72907E1E82905E1E92994
:10283800D8A402D0010E120020EE13F0E451D926DC
:10284800E551DA22DE50E65DDE50E759DE50E85900
:10285800DE50E959D8A05BD0CE51CF11D8A40CD006
:1028680020EE16F0CC51D926CD51DA22DE6ADE6A86
:10287800DE6ADD6A040E1200CCC0AFF0CDC0B0F045
:1028880020EE12F0CC51D926CD51DA22DECFB1F0AC
:10289800DECFB2F0DECFB3F0DECFB4F042EC0CF016
:1028A800AFC0E6F0B0C0E7F0B1C0E8F0B2C0E9F000
:1028B8000001E651E711E811E911D8A402D0070E8A
:1028C8001200E605E711E811E911D8A402D0020EBA
:1028D8001200E62909E1E72907E1E82905E1E929E4
:1028E800D8A402D0010E1200E4C085F0E5C086F03D
:1028F800E6C087F0E7C088F0E8C089F0E9C08AF050
:102908006FEC20F00009D8B402D0010E12000001CB
:1029180020EE12F0CC51D926CD51DA22E6C0DEFFE6
:10292800E7C0DEFFE8C0DEFFE9C0DEFFE4C026F056
:10293800E5C027F0E6C028F0E7C029F0E8C02AF093
:10294800E9C02BF0FAEC23F0000120EE16F0CC5190
:10295800D926CD51DA2226C0DEFF27C0DEFF28C0E7
:10296800DEFF29C0DEFF20EE0EF0CC51D926CD5176
:10297800DA22E0C0DEFFE1C0DEFFE2C0DEFFE3C036
:10298800DEFFFF0ED06F010ED16FE0C0D2F0E1C0C4
:10299800D3F0D051D217D151D3172F0ED227000E12
:1029A800D323E4C0D4F0E5C0D5F0D251D427D35115
:1029B800D52320EE1AF0CC51D926CD51DA22D4C035
:1029C800DEFFD5C0DDFF000E120090C0D9FF91C018
:1029D800DAFFDECFA8F0DDCFA9F000019551941100
:1029E800931104E1020E925DD8A08FD120EE13F06E
:1029F800A851D926A951DA22DE50925DDE509359AA
:102A0800DE509459DE509559D8B07FD1A269A36998
:102A1800A469A56983D192C0A6F093C0A7F0D89005
:102A2800A731976FA631966F9651A6279751A7237E
:102A3800A8C085F0A9C086F020EE1FF0A851D926BD
:102A4800A951DA22DECF96F0DECF97F0DECF98F0EC
:102A5800DECF99F0A6C09AF0A7C09BF0090E9C6F34
:102A6800D8909B339A339C2FFBD79A519625876F22
:102A78009B519721886F000E9821896F000E99212C
:102A88008A6F2EEC26F00009D8A457D1FF0E00015A
:102A9800966F010E976FA6C098F0A7C099F096514F
:102AA8009817975199172F0E9827000E9923985128
:102AB800A825D96E9951A921DA6EDF509A6F9A51DB
:102AC800A06FA16BA64BA72BA8C085F0A9C086F064
:102AD80020EE1FF0A851D926A951DA22DECF96F0B0
:102AE800DECF97F0DECF98F0DECF99F0A6C09AF04F
:102AF800A7C09BF0090E9C6FD8909B339A339C2FEC
:102B0800FBD79A519625876F9B519721886F000EA6
:102B18009821896F000E99218A6F2EEC26F0000902
:102B2800D8A40BD1FF0E0001966F010E976FA6C0B7
:102B380098F0A7C099F096519817975199172F0EAA
:102B48009827000E99239851A825D96E9951A92143
:102B5800DA6EDF509A6F9A519C6F9B6B9B51A01352
:102B68009C51A11392B107D0FF0EA0159E6F0F0EB6
:102B7800A1159F6F0FD0A0C096F0A1C097F0040ECA
:102B8800986FD89097339633982FFBD796C09EF0BE
:102B980097C09FF09EC0A2F09FC0A3F053D0A8C0DA
:102BA80085F0A9C086F020EE1FF0A851D926A951BA
:102BB800DA22DECF96F0DECF97F0DECF98F0DECFC8
:102BC80099F092C09AF093C09BF094C09CF095C085
:102BD8009DF09BC09AF09CC09BF09DC09CF09D6BA3
:102BE80096519A25876F97519B21886F98519C2100
:102BF800896F99519D218A6F2EEC26F00009D8A47F
:102C08009CD0FF0E0001966F010E976F92C098F04E
:102C180093C099F0D890983799379651981797514B
:102C280099172F0E9827000E99239851A8251A6EE8
:102C38009951A9211B6EAEEC2CF01AC0A2F01BC052
:102C4800A3F00001A46BA56B78D0A8C085F0A9C03B
:102C580086F020EE1FF0A851D926A951DA22DECF3E
:102C680096F0DECF97F0DECF98F0DECF99F092C0E5
:102C78009AF093C09BF094C09CF095C09DF0080E0C
:102C880005D0D8909D339C339B339A33E82EF9D7DF
:102C980096519A25876F97519B21886F98519C214F
:102CA800896F99519D218A6F2EEC26F00009D8A4CE
:102CB80044D0FF0E0001966F010E976F92C098F0F6
:102CC80093C099F0D89098379937D8909837993712
:102CD80096519817975199172F0E9827000E9923F8
:102CE8009851A8251A6E9951A9211B6E7CEC25F0E4
:102CF800FF0E1A140001A26FFF0E1B14A36FFF0E24
:102D08001C14A46F0F0E1D1407D0010EA26F000E25
:102D1800A36F000EA46F000EA56F0FD0A8C0D9FF37
:102D2800A9C0DAFFDF50010AD8B475D6030AD8B4AF
:102D380036D7010AD8B489D7E8D7A2C090F0A3C083
:102D480091F0A4C092F0A5C093F01200AAC0D9FFD8
:102D5800ABC0DAFFDECFC6F0DDCFC7F0000E000152
:102D6800BA6F000EBB6F200EBC6F000EBD6FBA515C
:102D7800AC5DBB51AD59BC51AE59BD51AF59D8B07E
:102D880012D01F0EAC15B06F000EAD15B16F000E4E
:102D9800AE15B26F000EAF15B36FB051B111B211CD
:102DA800B311D8B402D0020E120020EE0EF0AA51D0
:102DB800D926AB51DA22ACC0DEFFADC0DEFFAEC013
:102DC800DEFFAFC0DEFF20EE06F0AA51D926AB51D8
:102DD800DA22DECFC2F0DECFC3F0DECFC4F0DECF22
:102DE800C5F0C251C311C411C511D8A415D0C6C0AD
:102DF800D9FFC7C0DAFF020EDF640ED020EE23F041
:102E0800C651D926C751DA22DECFC2F0DECFC3F0D1
:102E1800DECFC4F0DECFC5F0C251C311C411C51155
:102E2800D8A442D020EE07F0C651D926C751DA22DD
:102E3800DECFB0F0DDCFB1F0B051B26FB151B36FAA
:102E4800B46BB56BACC0B6F0ADC0B7F0AEC0B8F0FF
:102E5800AFC0B9F0060E05D0D890B933B833B73340
:102E6800B633E82EF9D7B251B65DB351B759B4515C
:102E7800B859B551B959D8A002D0020E120020EEA7
:102E880023F0C651D926C751DA2210EE16F0AA51FE
:102E9800E126AB51E222DECFE6FFDECFE6FFDECF52
:102EA800E6FFDECFE6FF8CD020EE09F0C651D9262A
:102EB800C751DA22DECFB0F0DDCFB1F0B051B26F3A
:102EC800B151B36FB46BB56B090ED890B237B33745
:102ED800B437B537E82EF9D7B2C0BEF0B3C0BFF0EB
:102EE800B4C0C0F0B5C0C1F044D0AAC090F0ABC027
:102EF80091F0C2C092F0C3C093F0C4C094F0C5C0B2
:102F080095F0E9EC14F090C0C2F091C0C3F092C003
:102F1800C4F093C0C5F00001C22909E1C32907E143
:102F2800C42905E1C529D8A402D0010E1200C55153
:102F3800C411C31104E1020EC25DD8A010D020EE66
:102F480013F0C651D926C751DA22DE50C25DDE50D1
:102F5800C359DE50C459DE50C559D8A002D0020E5C
:102F68001200BE51AC5FBF51AD5BC051AE5BC151E9
:102F7800AF5BBE51AC5DBF51AD59C051AE59C151E7
:102F8800AF59D8B0B2D7C6C026F0C7C027F0C2C064
:102F980028F0C3C029F0C4C02AF0C5C02BF0FAEC51
:102FA80023F0000120EE16F0AA51D926AB51DA22FF
:102FB80026C0DEFF27C0DEFF28C0DEFF29C0DEFFF7
:102FC80020EE12F0AA51D926AB51DA22C2C0DEFF98
:102FD800C3C0DEFFC4C0DEFFC5C0DEFF20EE16F0B2
:102FE800AA51D926AB51DA22DE50DE10DE10DE10EF
:102FF800D8A402D0020E1200ACC0B0F0ADC0B1F03F
:10300800AEC0B2F0AFC0B3F00A0E05D0D890B3335B
:10301800B233B133B033E82EF9D720EE16F0AA5107
:10302800D926AB51DA22B051DE26B151DE22B25197
:10303800DE22B351DE22FF0EB06F010EB16FACC0BD
:10304800B2F0ADC0B3F0B051B217B151B3172F0EF3
:10305800B227000EB323C6C0B4F0C7C0B5F0B25152
:10306800B427B351B52320EE1AF0AA51D926AB5193
:10307800DA22B4C0DEFFB5C0DDFF000E120024C0A6
:10308800D9FF25C0DAFFDECF65F0DDCF66F01C0E74
:1030980022240001696F000E23206A6F69C01AF0AC
:1030A8006AC01BF0000E1D6E200E1C6E000E1F6EF7
:1030B8000B0E1E6E13EC2DF0000E00016C6F000E4F
:1030C8006B6F6BC067F06CC068F0000E646F080E21
:1030D800636F67516525266E68516621276E26C085
:1030E800F6FF27C0F7FF0800F5CF6DF0674B682B98
:1030F800210E6D6101D0B1D02F0E6D19D8B407D053
:103108005C0E6D19D8B403D021D0674B682B67517A
:103118006525266E68516621276E26C0F6FF27C0F2
:10312800F7FF0800F5502F0AD8B4EFD76751652587
:10313800266E68516621276E26C0F6FF27C0F7FF66
:103148000800F5505C0AD8A488D0DFD72E0E6D1978
:10315800D8B406D063516B5D64516C59D8A013D0B4
:103168000B0E63196411D8B404D02E0E6D19D8B49F
:1031780002D0060E1200000E6C6F080E6B6F000E68
:10318800646F0B0EA5D76D515CEC2AF01A501B101A
:10319800D8B440D0000167516525266E6851662174
:1031A800276E26C0F6FF27C0F7FF0800F5CF62F0AC
:1031B800674B682B625178EC27F01A501B10D8B473
:1031C80013D0FF0E266EFF0E276E63C028F064C072
:1031D80029F02650282627502922285000016B5D07
:1031E80029506C59D8A002D0060E120000016B516C
:1031F8006925D96E6C516A21DA6E6DC0DFFF6B4BA1
:103208006C2B6B516925D96E6C516A21DA6E62C0DC
:10321800DFFF20D0BF0E1A6E610E1B6E6DC01CF052
:103228001D6A65EC2BF01A501B10D8B402D0060E9C
:103238001200600E00016D6505D07B0E6D6102D035
:10324800200E6D5F6B516925D96E6C516A21DA6E5B
:103258006DC0DFFF6B4B6C2B3CD767516525266E25
:1032680068516621276E24C0D9FF25C0DAFF26C021
:10327800DEFF27C0DDFF6B516C11D8A402D0060E0B
:10328800120069C0D9FF6AC0DAFFE50EDE18D8A4BB
:1032980006D069C0D9FF6AC0DAFF050EDF6E200EBE
:1032A8006D6504D0000E616F000E03D0000E616FD3
:1032B800040E606F20EE0BF06951D9266A51DA22AC
:1032C80060C0DFFF000E12008CC073F08DC074F078
:1032D800ECEC1CF00001966F9651D8A4E4D08CC099
:1032E800D9FF8DC0DAFF030EDE18D8A4C7D020EEB0
:1032F80004F08C51D9268D51DA22DE04D8A4BED030
:103308002F0E8C251A6E000E8D211B6E000E1D6E61
:10331800000E1C6E020E1F6E000E1E6E13EC2DF0BA
:103328002D0E00018C251A6E020E8D211B6EAA0E21
:103338001D6E550E1C6E3BEC2DF02F0E00018C25DA
:10334800866F000E8D21876F520E886F520E896F1F
:10335800610E8A6F410E8B6FF0EC29F0130E00019D
:103368008C25866F020E8D21876F720E886F720E04
:10337800896F410E8A6F610E8B6FF0EC29F0170E82
:1033880000018C25866F020E8D21876F20EE0FF0CD
:103398008C51D9268D51DA22DECF88F0DECF89F024
:1033A800DECF8AF0DECF8BF0F0EC29F01B0E0001A7
:1033B8008C25866F020E8D21876F20EE0BF08C51C5
:1033C800D9268D51DA22DECF88F0DECF89F0DECF24
:1033D8008AF0DECF8BF0F0EC29F0000120EE1BF034
:1033E8008C51D9268D51DA22DECF8EF0DECF8FF0C8
:1033F800DECF90F0DECF91F0010E8E25926F000E99
:103408008F21936F000E9021946F000E9121956F7C
:1034180020EE2BF08C51D9268D51DA2292C0DEFF96
:1034280093C0DEFF94C0DEFF95C0DEFF2F0E8C2513
:10343800686F000E8D21696F20EE2BF08C51D92614
:103448008D51DA22DECF6AF0DECF6BF0DECF6CF082
:10345800DECF6DF0010E6E6F20EE01F08C51D92693
:103468008D51DA22DF504BEC28F0000120EE04F0F9
:103478008C51D9268D51DA22000EDF6E000E1A6E9D
:10348800000E1B6E000E1C6E20EE01F08C51D9262A
:103498008D51DA22DF5027EC2DF00009D8B403D083
:1034A800010E0001966F000196511200000E0001F6
:1034B800C56FAFC0D9FFB0C0DAFFDECFC6F0DDCF31
:1034C800C7F0B451B311B21104E1020EB15DD8A036
:1034D80010D020EE13F0C651D926C751DA22DE509B
:1034E800B15DDE50B259DE50B359DE50B459D8A0A0
:1034F80002D0020E1200B551B611B711B811D8B4E6
:103508001DD0C6C090F0C7C091F0B5C092F0B6C04B
:1035180093F0B7C094F0B8C095F0FF0E966FFF0E09
:10352800976FFF0E986FFF0E996FEBEC10F000018C
:10353800C56FC551D8B402D0C5511200AFC090F0C4
:10354800B0C091F0B1C092F0B2C093F0B3C094F0A3
:10355800B4C095F0E9EC14F090C0C1F091C0C2F08D
:1035680092C0C3F093C0C4F00001C151C211C3118D
:10357800C411D8B47DD0C105C211C311C411D8A4D7
:1035880002D0020E1200C12909E1C22907E1C329AC
:1035980005E1C429D8A402D0010E1200C6C090F0DB
:1035A800C7C091F0B1C092F0B2C093F0B3C094F02C
:1035B800B4C095F0000E966F000E976F000E986FCE
:1035C800000E996FEBEC10F00001C56FC551D8B42F
:1035D80002D0C551120020EE13F0C651D926C751AA
:1035E800DA22FE0EDE24B96FFF0EDE20BA6FFF0E60
:1035F800DE20BB6FFF0EDE20BC6F20EE0FF0C65141
:10360800D926C751DA22B951DE5CBA51DE58BB510E
:10361800DE58BC51DE58D8B013D020EE0FF0C6519A
:10362800D926C751DA22DE2A000EDE22DE22DE2269
:1036380020EE04F0C651D926C751DA22000EDB80ED
:10364800C1C0B1F0C2C0B2F0C3C0B3F0C4C0B4F0DE
:1036580020EE13F0C651D926C751DA22DE50B15DEB
:10366800DE50B259DE50B359DE50B459D8A066D7EF
:10367800000E1200000E0001606F25C02AF026C05F
:103688002BF027C02CF028C02DF0090ED8902A3630
:103698002B362C362D36E82EF9D72AC061F02BC0F0
:1036A80062F02CC063F02DC064F0000E1D6E010E98
:1036B800B8EC29F02E0E1D6E620E1E6E3CEC2BF03F
:1036C8003D0E2B6EE10E2A6E400EE82EFED72A2EF6
:1036D800FCD72B2EFAD78A8E8A980A0E52EC2CF039
:1036E80061C01CF062C01DF063C01EF064C01FF012
:1036F800000E206E520ECAEC2CF0D5EC2DF0C2EC68
:103708002DF00001666F6651D8A4F9D7D5EC2DF0DD
:10371800C2EC2DF00001666FFE0E6619D8A4F8D72A
:10372800000E686F000E676F2CD067512324D96E86
:1037380068512420DA6EC2EC2DF0DF6E000E1D6E8B
:10374800010EB8EC29F0000167512324D96E6851A5
:103758002420DA6EDF502A6E2B6A2AC01DF02BC097
:103768001EF03CEC2BF0040E2B6E0C0E2A6E340E61
:10377800E82EFED72A2EFCD72B2EFAD70001674B4E
:10378800682B68BFD2D7020E685DD8A0CED73D0E91
:103798002B6EE10E2A6E400EE82EFED72A2EFCD79D
:1037A8002B2EFAD78A8E000E0001686F000E676F05
:1037B8008A980A0E52EC2CF0000E1C6E000E1D6E3C
:1037C800000E1E6E000E1F6E000E206E4C0ECAEC10
:1037D8002CF0D5EC2DF0C2EC2DF00001666F6629B7
:1037E800D8A4F9D7000E686F000E676F11D0010ECC
:1037F800C3EC27F00E0E1D6E020EB8EC29F0540E25
:103808001D6E050E1E6E3CEC2BF00001674B682BFD
:10381800540E6725D96E050E6821DA6EDF50D8A4DC
:10382800E6D765511200226823681AC0D9FF1BC069
:10383800DAFFDE50DE10D8B4C6D01AC0D9FF1BC0DC
:10384800DAFFDECF28F0DDCF29F002D0284A292A76
:10385800000E216E210E206E28C0F6FF29C0F7FF4A
:103868000800F5501C6E1D6A20501C5C21501D5824
:10387800D8A009D028C0F6FF29C0F7FF0800F550E6
:103888003A0AD8A4E3D728C0F6FF29C0F7FF0800F2
:10389800F5503A0AD8A493D01AC0D9FF1BC0DAFF52
:1038A800DECF26F0DDCF27F026C0F6FF27C0F7FFD2
:1038B8000800F5502A6E2B6A264A272A2B5004E165
:1038C800300E2A5CD8A01CD02B501AE13A0E2A5C84
:1038D800D8B016D02850261813E129502718D8A494
:1038E8000FD0300E2A5E000E2B5A2A502B10D8A467
:1038F8006AD02AC022F02BC023F0284A292A56D0A1
:10390800000E2B6E000E2A6E284A292AD8902A34D7
:10391800F66E2B34F76E840EF626610EF722090038
:10392800F5CF1EF00A00F5CF1FF01AC0D9FF1BC053
:10393800DAFFDECF26F0DDCF27F01EC0F6FF1FC06E
:10394800F7FF0800F5CF24F01E4A1F2A26C0F6FF0D
:1039580027C0F7FF0800F5CF25F0264A272A600E72
:10396800256405D07B0E256002D0200E255E2450EC
:10397800D8B404D025502418D8B4DFD72450D8A4FC
:1039880007D02850261804E129502718D8B406D0A3
:103998002A4A2B2A2A502B10D8B4B8D72A502B10D1
:1039A800D8A411D02AC022F02BC023F01AC0D9FF06
:1039B8001BC0DAFF28C0DEFF29C0DDFF04D0000EDF
:1039C800236E000E226E22C01AF023C01BF01200D4
:1039D800000E2D6E000120EE03F07351D9267451AC
:1039E800DA22DF50D8B4B2D02F0E7325686F000EDC
:1039F8007421696F20EE2BF07351D9267451DA22A5
:103A0800DECF6AF0DECF6BF0DECF6CF0DECF6DF08C
:103A1800010E6E6F20EE01F07351D9267451DA222F
:103A2800DF504BEC28F00009D8A48ED0000120EE1E
:103A380003F07351D9267451DA22000EDF6E20EE9E
:103A480017F07351D9267451DA2210EE2BF0735106
:103A5800E1267451E222E6CF79F0E6CF7AF0E6CF9C
:103A68007BF0E6CF7CF010EE1FF07351E126745125
:103A7800E222E6CF7DF0E6CF7EF0E6CF7FF0E6CF1C
:103A880080F07D1F7E1F7F1F801F7D2B000E7E23F1
:103A98007F23802379517D25816F7A517E21826F22
:103AA8007B517F21836F7C518021846FDE50815D43
:103AB800DE508259DE508359DE508459D8B046D042
:103AC80020EE02F07351D9267451DA22020EDE1864
:103AD800D8A43CD02F0E7325686F000E7421696F2F
:103AE80020EE17F07351D9267451DA22DECF75F023
:103AF800DECF76F0DECF77F0DECF78F020EE2BF059
:103B08007351D9267451DA22DECF79F0DECF7AF0FC
:103B1800DECF7BF0DECF7CF0755179256A6F765168
:103B28007A216B6F77517B216C6F78517C216D6F97
:103B3800010E6E6F20EE01F07351D9267451DA220E
:103B4800DF504BEC28F002D0010E2D6E2D501200E4
:103B5800F2C0D9FFF3C0DAFFDECF70F1DDCF71F12B
:103B680003D00001F44BF52BF4C0F6FFF5C0F7FFC6
:103B78000800F5502F0AD8B4F4D7F4C0F6FFF5C002
:103B8800F7FF0800F5505C0AD8B4EBD7000120EE27
:103B980006F0F251D926F351DA22DE6ADE6ADE6ACD
:103BA800DD6AF4C0F6FFF5C0F7FF200E0800F560E7
:103BB80017D020EE27F0F251D926F351DA22800EE1
:103BC800DF6EF2C0AAF0F3C0ABF0000EAC6F000ECF
:103BD800AD6F000EAE6F000EAF6FAAEC16F037D0C7
:103BE800F2C022F0F3C023F0F40E246E000E256E0E
:103BF80043EC18F00101736F7351D8A460D0F2C080
:103C0800EAF0F3C0EBF0D2EC1FF00101736F000192
:103C180020EE27F0F251D926F351DA22DF500101C4
:103C2800726F7351D8B407D0040E7319D8B472B533
:103C380046D0050E0DD072B542D0000120EE04F03A
:103C4800F251D926F351DA22DFB804D0050E01016A
:103C5800736F35D070C121F071C122F0FF0E0101E0
:103C68006C6F010E6D6F000120EE0EF0F251D92637
:103C7800F351DA22DECF6EF1DDCF6FF101016C5125
:103C88006E176D516F172F0E6E27000E6F236E5132
:103C98007025236E6F517121246E0BEC29F0000101
:103CA80020EE06F0F251D926F351DA2221C0DEFFC8
:103CB80022C0DEFF23C0DEFF24C0DEFF91D7010152
:103CC8007351120097C021F098C022F09E0E236E07
:103CD800000E246EBDEC24F000019D6F9D51D8A408
:103CE800A8D020EE0EF09751D9269851DA22DFACF1
:103CF800A0D01AEC22F01AC099F01BC09AF01CC090
:103D08009BF01DC09CF09EC085F09FC086F000010E
:103D180020EE1CF09751D9269851DA22DECF87F091
:103D2800DECF88F0DECF89F0DECF8AF02EEC26F0E9
:103D380000019D6F9D51D8A47CD020EE20F09751B2
:103D4800D9269851DA22DECFA0F0DDCFA1F020EEFF
:103D58000BF0A051D926A151DA22000EDB8A97C0B8
:103D6800D9FF98C0DAFFDECF1EF0DDCF1FF0A0C06C
:103D780020F0A1C021F020EE06F09751D9269851E5
:103D8800DA22DECF22F0DECF23F0DECF24F0DECF42
:103D980025F0F1EC2BF01C0E0001A025866F000E1B
:103DA800A121876F20EE0AF09751D9269851DA227F
:103DB800DECF88F0DECF89F0DECF8AF0DECF8BF061
:103DC800F0EC29F0160E0001A025866F000EA12147
:103DD800876F99C088F09AC089F09BC08AF09CC010
:103DE8008BF0F0EC29F0120E0001A0251A6E000EDF
:103DF800A1211B6E000E1D6E000E1C6E3BEC2DF0FB
:103E0800000120EE03F09E51D9269F51DA22010EBF
:103E1800DF6E9EC08CF09FC08DF068EC19F0000139
:103E28009D6F20EE0EF09751D9269851DA22BF0ED9
:103E3800DF169D511200000E0001616F000E606FC9
:103E4800000E636F000E626F8A980A0E52EC2CF017
:103E5800000E1C6E000E1D6E000E1E6E000E1F6EF4
:103E6800000E206E580ECAEC2CF08A88D5EC2DF086
:103E7800C2EC2DF00001676F6751D8A4F9D77A0E0C
:103E88002B6EC10E2A6E820EE82EFED72A2EFCD784
:103E98002B2EFAD78A980A0E52EC2CF0FE0EACECB8
:103EA8002BF0000E0001666F000E656F66BF04D030
:103EB800020E665DD8B035D0050E1D6E010EB8EC49
:103EC80029F023C0F6FF24C0F7FFF86A070EF7644D
:103ED80003D00800F55005D0F6CFE9FFF7CFEAFF89
:103EE800EF502A6E2B6A2AC01DF02BC01EF03CEC46
:103EF8002BF023C0F6FF24C0F7FFF86A070EF7641B
:103F080003D00800F55005D0F6CFE9FFF7CFEAFF58
:103F1800EF50ACEC2BF0234A242A0001654B662BAA
:103F2800C5D7FF0EACEC2BF0FF0EACEC2BF08A885B
:103F38008A980A0E52EC2CF0000E1C6E000E1D6EB4
:103F4800000E1E6E000E1F6EFF0E206E4D0ECAEC88
:103F58002CF08A98D5EC2DF08A88C2EC2DF000015F
:103F6800676F6751D8A4F8D7000E1D6E010EB8EC24
:103F780029F0730E1D6E620E1E6E3CEC2BF0F40ED3
:103F88002B6E820E2A6E050EE82EFED72A2EFCD73F
:103F98002B2EFAD700F0000164511200EAC0D9FFB5
:103FA800EBC0DAFFDECFEEF0DDCFEFF0EAC0AAF02B
:103FB800EBC0ABF0000E0001AC6F000EAD6F000E51
:103FC800AE6F000EAF6FAAEC16F00001F16FF15161
:103FD800D8B402D0F1511200EEC085F0EFC086F0DF
:103FE80020EE16F0EA51D926EB51DA22DECF87F01F
:103FF800DECF88F0DECF89F0DECF8AF02EEC26F017
:104008000001F16FF151D8A463D020EE1AF0EA5103
:10401800D926EB51DA22DECFECF0DDCFEDF0ECC0A3
:10402800D9FFEDC0DAFFDF50F06FF051D8A403D00C
:10403800040EF16F4DD020EE04F0EA51D926EB5171
:10404800DA2210EE1AF0EA51E126EB51E22200EEF4
:104058000BF0E650E926E550EA22EF503F0BDF6E01
:1040680020EE1AF0EA51D926EB51DA2210EE0BF0C5
:10407800DE50E126DD50E222E7B61AD020EE1AF033
:10408800EA51D926EB51DA22DECF1AF0DDCF1BF048
:104098001C0EEA251C6E000EEB211D6E000E1F6E15
:1040A8000B0E1E6E09EC28F01A501B10D8B410D055
:1040B800EAC0CCF0EBC0CDF0000E0001CF6F000ECF
:1040C800CE6F16EC13F00001F16FF151D8B484D71C
:1040D8000001F151120085C073F086C074F0ECEC59
:1040E8001CF00009D8B402D0010E120085C026F0D9
:1040F80086C027F087C028F088C029F089C02AF038
:104108008AC02BF0FAEC23F026C08FF027C090F07D
:1041180028C091F029C092F0000120EE2BF08551C3
:10412800D9268651DA228FC0DEFF90C0DEFF91C00B
:10413800DEFF92C0DEFF2F0E85251A6E000E862147
:104148001B6E000E1D6E000E1C6E020E1F6E000E02
:104158001E6E13EC2DF02F0E000185258D6F000EBD
:1041680086218E6F000E946F010E936F000E966F6E
:10417800000E956F05D00001935195279451962311
:1041880020EE09F08551D9268651DA22DE50955D58
:10419800DE509659D8B01ED08DC068F08EC069F038
:1041A80095518F256A6F965190216B6F000E912162
:1041B8006C6F000E92216D6F93C06EF020EE01F0CF
:1041C8008551D9268651DA22DF504BEC28F00009B8
:1041D800D8B4D1D7000120EE09F08551D9268651EF
:1041E800DA229551DE1804E19651DE18D8B402D0CF
:1041F800010E1200000E12000600FACF07F0FBCFE6
:1042080008F0E9CF09F0EACF0AF0E1CF0BF0E2CFEE
:104218000CF0D9CF0DF0DACF0EF0F3CF0FF0F4CFCA
:1042280010F0F6CF11F0F7CF12F0F8CF13F0F5CF6A
:1042380014F046C015F047C016F048C017F049C042
:1042480018F09DBA9EAA04D0B9EC2DF0456E9E9A3E
:10425800F2B4F2A437D0F294010E446E000E196E37
:10426800010E196401D019D01950020DF80EF3246B
:10427800D96E000EF420DA6EDE50DE10D8B40BD002
:104288001950020DF80EF324D96E000EF420DA6EE0
:10429800DE06000EDD5A192AE3D74304D8A40CD051
:1042A8000001FE07D8A0FF07FE51FF11D8A404D0D3
:1042B800000EFA6E000EF96E000E026E830E016E8D
:1042C800B0EC2DF0F2B2F2A801D0F29218C049F089
:1042D80017C048F016C047F015C046F014C0F5FFE7
:1042E80013C0F8FF12C0F7FF11C0F6FF10C0F4FFAB
:1042F8000FC0F3FF0EC0DAFF0DC0D9FF0CC0E2FFFC
:104308000BC0E1FF0AC0EAFF09C0E9FF08C0FBFFD4
:1043180007C0FAFF46921100000120EE03F0905109
:10432800D9269151DA22000EDF6E20EE2BF0905143
:10433800D9269151DA22FF0EDE6EFF0EDE6EFF0ED9
:10434800DE6EFF0EDD6E90C085F091C086F092C0E3
:1043580087F093C088F094C089F095C08AF02EEC5D
:1043680026F00009D8B402D0040E12002D0E000168
:1043780090251A6E020E91211B6EAEEC2CF0550E94
:104388001A1804E1AA0E1B18D8B402D0030E1200A2
:10439800000120EE2FF09051D9269151DA22E90E32
:1043A800DE18D8B414D020EE2FF09051D9269151B0
:1043B800DA22EB0EDE18D8A437D020EE31F0905177
:1043C800D9269151DA22900EDE18D8A42DD0650E88
:1043D80090251A6E000E91211B6E6C0E1C6E620EDB
:1043E8001D6E000E1F6E030E1E6E09EC28F01A508B
:1043F8001B10D8A402D0000E1200810E00019025D7
:104408001A6E000E91211B6E280E1C6E620E1D6E18
:10441800000E1F6E050E1E6E09EC28F01A501B10B8
:10442800D8A402D0000E1200020E1200D890233039
:104438000001616F2230606F2050626F2150636FFE
:10444800646B656B050ED8906237633764376537E0
:10445800E82EF9D71E50666F1F50676F686B696B3F
:104468000B0ED8906637673768376937E82EF9D763
:1044780025C06AF06B6B6C6B6D6B6BC06DF06AC0BE
:104488006CF06B6B6A6B25C06EF06F6B706B716B49
:10449800150ED8906E376F3770377137E82EF9D709
:1044A80026C072F0736B746B756B190ED8907237E7
:1044B800733774377537E82EF9D76E517211766FE6
:1044C8006F517311776F70517411786F7151751145
:1044D800796F6A5176117A6F6B5177117B6F6C51D6
:1044E80078117C6F6D5179117D6F66517A117E6FED
:1044F80067517B117F6F68517C11806F69517D1105
:10450800816F62517E11826F63517F11836F645195
:104518008011846F65518111856F605182111A6E07
:10452800615183111B6E000E84111C6E000E8511E3
:104538001D6E1200EAC0D9FFEBC0DAFFDECFF1F042
:10454800DDCFF2F0EAC0AAF0EBC0ABF0000E00013C
:10455800AC6F000EAD6F000EAE6F000EAF6FAAEC21
:1045680016F00001F56FF551D8A45DD0000EF46F78
:10457800000EF36FF1C085F0F2C086F020EE16F061
:10458800EA51D926EB51DA22DECF87F0DECF88F068
:10459800DECF89F0DECF8AF02EEC26F00001F56F31
:1045A800F551D8A440D020EE1AF0EA51D926EB51A3
:1045B800DA22DECFEEF0DDCFEFF0EEC0D9FFEFC0AC
:1045C800DAFFE50EDE18D8B411D020EE1AF0EA5161
:1045D800D926EB51DA22DECFEEF0DDCFEFF0EEC0D8
:1045E800D9FFEFC0DAFFDF50D8A40AD0F34BF42B81
:1045F800EC51F31909E1ED51F419D8B414D004D0F1
:10460800000EF46F000EF36FEAC0CCF0EBC0CDF0F3
:10461800000ECF6F010ECE6F16EC13F00001F56F90
:10462800F551D8B4A7D7040EF519D8A402D0070EAF
:10463800F56FF5511200D59ED5EC2DF0250E000131
:10464800DE6F030EDF6F790EE06F620EE16F010E11
:10465800E26FD8EC25F00301026F030E0101746FBD
:10466800030E756FFA0E766F610E776F040E786F12
:1046780070EC09F00301026F0251D8A442D0000E79
:104688001D6E010EB8EC29F0EF0E1D6E610E1E6E48
:104698003CEC2BF0030E0001CC6F030ECD6F4A0EDD
:1046A800CE6F620ECF6F000ED16F060ED06F00C3B3
:1046B800D2F001C3D3F071EC05F00301026F02518F
:1046C800D8A413D0000E1D6E020EB8EC29F00F0E00
:1046D8001D6E620E1E6E3CEC2BF0030E0001A26FE5
:1046E800030EA36F89EC2BF01200000E1D6E010E55
:1046F800B8EC29F002C32CF02D6A71EC2CF0D58EA1
:104708001200000E1D6E010EB8EC29F002C32CF049
:104718002D6A71EC2CF0D58E1200F6C0D9FFF7C0C7
:10472800DAFFDECF6CF1DDCF6DF1F6C0EAF0F7C04D
:10473800EBF0000E0001ED6F010EEC6F9EEC22F025
:1047480001016E6F6E51D8A44FD06CC185F06DC158
:1047580086F0000120EE16F0F651D926F751DA223C
:10476800DECF87F0DECF88F0DECF89F0DECF8AF0AB
:104778002EEC26F001016E6F6E51D8A435D00001E1
:1047880020EE1AF0F651D926F751DA22DECF1AF0C8
:10479800DDCF1BF0000E1D6E000E1C6E000E1F6E8E
:1047A800200E1E6E13EC2DF0000120EE1AF0F651CB
:1047B800D926F751DA22DECF1AF0DDCF1BF01C0E16
:1047C800F6251C6E000EF7211D6E000E1F6E0B0ED7
:1047D8001E6EEAEC2AF0010120EE03F06C51D92696
:1047E8006D51DA22010EDF6E6E511200020E285E44
:1047F800000E295A2A5A2B5A20EE13F02650D92691
:104808002750DA22FE0EDE240001606FFF0EDE2044
:10481800616FFF0EDE20626FFF0EDE20636F605156
:10482800285C6151295862512A5863512B58D8A0E5
:1048380009D0000E266E000E276E000E286E000EA0
:10484800296E120020EE27F02650D9262750DA22AA
:10485800DECF60F0DECF61F0DECF62F0DECF63F056
:1048680020EE09F02650D9262750DA22DECF64F050
:10487800DDCF65F064C01AF065C01BF01C6A1D6AC4
:1048880028C01EF029C01FF02AC020F02BC021F03C
:10489800BFEC2AF0000160511A24266E61511B20DA
:1048A800276E62511C20286E63511D20296E12004C
:1048B8000001766F51D06DC023F06EC024F06FC038
:1048C80025F070C026F071C027F072C028F073C0C0
:1048D80029F03EEC1BF00001746F7451776F786B10
:1048E80077C079F0795112006DC023F06EC024F0C2
:1048F8006FC025F070C026F071C027F072C028F094
:1049080073C029F03EEC1BF00001746F7451776F8F
:10491800786B000E1D6E010EB8EC29F077C02CF0F4
:1049280078C02DF071EC2CF07A0E0001756FC10E75
:10493800746F810EE82EFED7742FFCD7752FFAD727
:1049480000D077C079F052C16DF053C16EF000010C
:10495800795112007951120000017651000AD8B439
:10496800AAD7010AD8B4C0D7030AD8B4F3D7040E1B
:104978001200090E2B6E21502210D8B440D021C04D
:10498800D9FF22C0DAFFDE50DE10D8B438D021C0FB
:10499800D9FF22C0DAFFDECF25F0DDCF26F025C013
:1049A800D9FF26C0DAFFDF50D8B429D021C0D9FFFB
:1049B80022C0DAFF10EE05F0DE50E126DD50E222DB
:1049C80020EE02F02150D9262250DA22E650DE18D5
:1049D80016E1E650DE18D8A412D021C0D9FF22C0B3
:1049E800DAFF10EE01F0DE50E126DD50E222E7505A
:1049F80033EC2CF0256E25B002D0000E2B6E2B5018
:104A0800D8B405D0000E296E000E2A6E08D021C039
:104A1800D9FF22C0DAFFDECF29F0DDCF2AF023C08C
:104A2800D9FF24C0DAFF29C0DEFF2AC0DDFF2B50E2
:104A38001200000E00016E6F000E6D6F000E726F97
:104A4800000E716F000E706F000E6F6F8A980A0E5D
:104A580052EC2CF0000E1C6E000E1D6E000E1E6E29
:104A6800000E1F6E950E206E400ECAEC2CF0D5EC91
:104A78002DF08A88C2EC2DF00001736F714B722BF8
:104A8800000E1D6E010EB8EC29F073C02CF02D6AD3
:104A980071EC2CF000017305D8B408D072BFEAD7C6
:104AA8002C0E715D010E7259D8A0E4D7000E726FFA
:104AB800000E716F7305D8B416D0000E1D6E010E6E
:104AC800B8EC29F0E40E1D6E610E1E6E3CEC2BF066
:104AD800000E1D6E020EB8EC29F0AF0E1D6E610EB1
:104AE8001E6E3CEC2BF000017305D8B41200AED753
:104AF80020EE03F01A50D9261B50DA22DF501E6E22
:104B08001E50236E246A256A266A20EE02F01A5087
:104B1800D9261B50DA22DF501E6E1E5023C020F00B
:104B280024C021F025C022F01F6A1F10236E2050D8
:104B3800246E2150256E2250266E20EE01F01A5068
:104B4800D9261B50DA22DF501E6E1E5023C020F0DB
:104B580024C021F025C022F01F6A1F10236E2050A8
:104B6800246E2150256E2250266E1AC0D9FF1BC014
:104B7800DAFFDF501E6E1E5023C020F024C021F043
:104B880025C022F01F6A1F10236E2050246E21506A
:104B9800256E2250266E23C01AF024C01BF025C0B3
:104BA8001CF026C01DF01200E0C0E8F0E1C0E9F0FA
:104BB800E80E1A6E000E1B6E17EC1CF01AC0E6F019
:104BC8001BC0E7F00001E7AF02D00B0E1200D8902F
:104BD800E635D96EE735DA6EFC0ED926000EDA22F4
:104BE800DECFE4F0DDCFE5F0E451E511D8B406D02E
:104BF800E4C0D9FFE5C0DAFF000EDF6EDE51DF1139
:104C0800D8B406D0DEC0D9FFDFC0DAFF000EDF6EF1
:104C1800D890E635D96EE735DA6EFC0ED926000E47
:104C2800DA22DEC0DEFFDFC0DDFFE251D8A402D009
:104C3800000E1200E00E976F000E986FDE0E996F4F
:104C4800000E9A6F000E9B6F09EC00F00001E36FF5
:104C5800E3511200000E00018F6F20EE2BF08551FA
:104C6800D9268651DA228751DE180AE18851DE18E2
:104C780007E18951DE1804E18A51DE18D8B43DD025
:104C880085C073F086C074F0ECEC1CF000018F6FE7
:104C98008F51D8A432D02F0E85256D6F000E862136
:104CA8006E6F87C06FF088C070F089C071F08AC0DD
:104CB80072F0010E736F20EE01F08551D9268651EE
:104CC800DA22DF505CEC24F00009D8B407D00001E8
:104CD8008769886989698A69010E8F6F000120EEEA
:104CE8002BF08551D9268651DA2287C0DEFF88C08D
:104CF800DEFF89C0DEFF8AC0DEFF8F511200000E82
:104D08000101C86F010EC86501D01200C851020D1B
:104D18004C0EF324D96E010EF420DA6EDE50DE104C
:104D2800D8B43FD0C851020DF80EF324D96E000E46
:104D3800F420DA6EDE50DE10D8A433D0010E436EB4
:104D4800FD0E0001FF6FE80EFE6F0101C851020D54
:104D58004C0EF324D96E010EF420DA6E01D80AD075
:104D68000500FA6EDE50FD6EDE50FE6EF850FF6EE6
:104D7800FA501200000E436E0101C851020D480E90
:104D8800F324D96E010EF420DA6EC851020DF80E24
:104D9800F324E16E000EF420E26EDECFE6FFDDCFF5
:104DA800E5FFC82BAFD723C027F024C028F027C0C1
:104DB8001AF028C01BF025C01CF026C01DF013EC0B
:104DC8002BF01AC027F01BC028F0214A222A2750AE
:104DD8002810D8A4ECD721C0D9FF22C0DAFF000ED2
:104DE800DF6E2106D8A0220623C01AF024C01BF0CB
:104DF80025C01CF026C01DF012EC2CF01A50296EAC
:104E080023C01AF024C01BF025C01CF026C01DF0DA
:104E180013EC2BF01AC023F01BC024F0090E2964F0
:104E280002D0070E2926300E292621C0D9FF22C01C
:104E3800DAFF29C0DFFF2106D8A02206235024105C
:104E4800D8A4D2D7214A222A1200959495929590F7
:104E58009598959A959C959E839483928390839E2A
:104E6800839C838A8388EA0E1D6EC30EE82EFED7C4
:104E78001D2EFCD700F083804FEC2DF083904FEC73
:104E88002DF04E0E1D6EEB0EE82EFED71D2EFCD714
:104E980000F083804FEC2DF083904FEC2DF04E0EF8
:104EA8001D6EEB0EE82EFED71D2EFCD700F083807A
:104EB8004FEC2DF083904FEC2DF0839E839C838ADA
:104EC800839883804FEC2DF083904FEC2DF0280EC3
:104ED800C3EC27F0060EC3EC27F00E0EC3EC27F048
:104EE800010EC3EC27F012001C6E980EF66E610ED0
:104EF800F76E0900F5501C5CD8A03CD0990EF66EF0
:104F0800610EF76E1C500900F55CD8A005D0000EA4
:104F18001B6E010E1A6E12009A0EF66E610EF76E77
:104F28000900F5501C5CD8A00ED09B0EF66E610EE1
:104F3800F76E1C500900F55CD8A005D0000E1B6E5A
:104F4800010E1A6E12009C0EF66E610EF76E0900C5
:104F5800F5501C5CD8A00ED09D0EF66E610EF76E53
:104F68001C500900F55CD8A005D0000E1B6E010E80
:104F78001A6E1200000E1B6E000E1A6E12001C6EC6
:104F88008394839283901CA802D0838801D083984D
:104F98001CAA02D0838A01D0839A1CAC02D0838CCD
:104FA80001D0839C1CAE02D0838E01D0839E838067
:104FB8004FEC2DF083904FEC2DF01CA002D083888D
:104FC80001D083981CA202D0838A01D0839A1CA4A2
:104FD80002D0838C01D0839C1CA602D0838E01D082
:104FE800839E83804FEC2DF083904FEC2DF01C04B2
:104FF800D8B408D0020E1C18D8B404D0030E1C185C
:10500800D8A412004FEC2DF012001AC023F01BC0D8
:1050180024F01CC025F01DC026F0000E286E000EDE
:10502800276E25C0F6FF26C0F7FFF86A070EF7645B
:1050380003D00800F55005D0F6CFE9FFF7CFEAFF17
:10504800EF50206E216A201E211E204A212A23C0EB
:10505800D9FF24C0DAFFDF50226E22502024276EA9
:10506800000E2120286E254A262A234A242A1E06B5
:10507800D8A01F061E501F10D8B404D027502810DF
:10508800D8B4CFD727C01AF028C01BF012000001EF
:105098006F6F32D068C023F069C024F06AC025F071
:1050A8006BC026F06CC027F06DC028F06EC029F0E8
:1050B8001FEC1FF02C6E2C500001706F716B70C0CC
:1050C80072F07251120068C023F069C024F06AC0FF
:1050D80025F06BC026F06CC027F06DC028F06EC0BC
:1050E80029F01FEC1FF02C6E2C500001706F716BB3
:1050F800725112007251120000016F51000AD8B4A7
:10510800C9D7010AD8B4DFD7030AD8B4F3D7040E35
:105118001200000E226E000E236E000E246E000E8A
:10512800256E1E501F1020102110D8B42AD0010E51
:10513800266E06D0D8901E361F3620362136262AEF
:1051480021AEF8D7D89022362336243625361E507D
:105158001A5C1F501B5820501C5821501D58D8A0AD
:1051680009D01E501A5E1F501B5A20501C5A21503D
:105178001D5A2280D890213220321F321E32262E0C
:10518800E1D722C01AF023C01BF024C01CF025C0B0
:105198001DF01200730EF66E610EF76E20EE60F0D1
:1051A800100E0900F5CFDEFFE806FBE2620EF66E90
:1051B800610EF76E20EE71F0100E0900F5CFDEFFDC
:1051C800E806FBE2000E1D6E010EB8EC29F0600E39
:1051D8001D6E000E1E6E3CEC2BF0000E1D6E020EB6
:1051E800B8EC29F0710E1D6E000E1E6E3CEC2BF013
:1051F8003D0E216EE10E206E400EE82EFED7202EC9
:10520800FCD7212EFAD7010EC3EC27F012001A0E94
:1052180023241A6E000E24201B6EAEEC2CF01AC04C
:1052280029F01BC02AF02B6A2C6A21C0D9FF22C0A2
:10523800DAFF030EDE18D8A41CD0140E23241A6E2D
:10524800000E24201B6EAEEC2CF01A50256E1B505D
:10525800266E276A286A26C028F025C027F0266A05
:10526800256A2550291226502A1227502B12285019
:105278002C1229C021F02AC022F02BC023F02CC008
:1052880024F01200C20EF66E5A0EF76E000EF86E7B
:1052980001EEC9F010EE1DF00900F5CFEEFFE55064
:1052A800E150FAE103EE25F014EE2FF0EE6AE55036
:1052B800E150FCE1E250FAE102EE00F0FA0EEE6A8B
:1052C800E806FDE101EE00F06C0EEE6AE806FDE18D
:1052D80000EEF8F0080EEE6AE806FDE100EE2EF0AA
:1052E800180EEE6AE806FDE146904692000EF86E4A
:1052F8000001FFEF2CF01C6E8394838283901CA81E
:1053080002D0838801D083981CAA02D0838A01D056
:10531800839A1CAC02D0838C01D0839C1CAE02D033
:10532800838E01D0839E83804FEC2DF083904FECC9
:105338002DF01CA002D0838801D083981CA202D033
:10534800838A01D0839A1CA402D0838C01D0839CC9
:105358001CA602D0838E01D0839E83804FEC2DF053
:1053680083904FEC2DF012001E6E000E1F6E110E72
:105378001D602FD01ED01DC01FF01F5027EC2AF033
:1053880026D01D50400F1F6E1F5027EC2AF01FD04B
:105398001D50140F1F6E1F5027EC2AF018D01D50F7
:1053A800540F1F6E1F5027EC2AF011D0000E1F6EED
:1053B8000ED01E50010AD8B4DED7030AD8B4E1D7FC
:1053C800010AD8B4E5D7070AD8B4E9D7EFD71D2A18
:1053D8001200000E1F6E120086C0D9FF87C0DAFFC8
:1053E80088C0DFFF0001864B872B89C088F08AC000
:1053F80089F08BC08AF08B6B86C0D9FF87C0DAFF33
:1054080088C0DFFF864B872B89C088F08AC089F067
:105418008BC08AF08B6B86C0D9FF87C0DAFF88C043
:10542800DFFF864B872B89C088F08AC089F08BC044
:105438008AF08B6B86C0D9FF87C0DAFF88C0DFFF90
:10544800864B872B12001C6E839483928390838EE5
:105458001CA802D0838801D083981CAA02D0838A12
:1054680001D0839A1CAC02D0838C01D0839C8380AA
:105478004FEC2DF083904FEC2DF01CA002D08388C8
:1054880001D083981CA202D0838A01D0839A1CA4DD
:1054980002D0838C01D0839C1CA602D0838E01D0BD
:1054A800839E83804FEC2DF083904FEC2DF01200FB
:1054B8001C6E940EF66E610EF76E0900F5501C5CBA
:1054C800D8A025D0950EF66E610EF76E1C50090017
:1054D800F55CD8A005D0000E1B6E010E1A6E1200E6
:1054E800960EF66E610EF76E0900F5501C5CD8A09A
:1054F8000ED0970EF66E610EF76E1C500900F55C23
:10550800D8A005D0000E1B6E010E1A6E1200000EF8
:105518001B6E000E1A6E1200000E3A6E000E1C6E04
:10552800F29E8A9822D01C5000081A6E070E1A267E
:1055380081AA03D01B6A1B2A01D01B6A1A2A02D02F
:10554800D8901B361A2EFCD71B503A120A0EE82E9A
:10555800FED78A8C0A0EE82EFED70A0EE82EFED752
:105568008A9C0A0EE82EFED71C2A070E1C64DBD77D
:10557800F28E3A501200000E226E000E236E000EBC
:10558800246E000E256E1AA008D01E5022261F5029
:1055980023222050242221502522D8901E361F363F
:1055A80020362136D8901D321C321B321A321A503E
:1055B8001B101C101D10D8A4E6D722C01AF023C057
:1055C8001BF024C01CF025C01DF012001AC020F0EA
:1055D8001BC021F01CC022F01DC023F01E501F105C
:1055E800D8B4120022C0F6FF23C0F7FFF86A20C023
:1055F800D9FF21C0DAFF070EF76403D00800F55081
:1056080005D0F6CFE9FFF7CFEAFFEF50DF6E224A69
:10561800232A204A212A1E06D8A01F06DFD7000EFB
:10562800206E000E1F6E1C501D10D8B41CD0010E29
:105638001E6E04D0D8901C361D361E2A1DAEFAD711
:10564800D8901F3620361C501A5C1D501B58D8A005
:1056580005D01C501A5E1D501B5A1F80D8901D3251
:105668001C321E2EEDD71FC01AF020C01BF01200EE
:1056780014D01DC0F6FF1EC0F7FFF86A070EF764C6
:1056880003D00800F55005D0F6CFE9FFF7CFEAFFC1
:10569800EF507FEC29F01D4A1E2A1DC0F6FF1EC0E0
:1056A800F7FFF86A070EF76403D00800F55005D035
:1056B800F6CFE9FFF7CFEAFFEF500009D8B41200A0
:1056C800D8D702D01A4A1B2A1AC0F6FF1BC0F7FF08
:1056D8000800F5500009D8B40FD01AC0F6FF1BC057
:1056E800F7FF0800F5501E6E1F6A1C501E18EAE1ED
:1056F8001D501F18D8A4E6D71AC0F6FF1BC0F7FF25
:105708000800F5501A6E1B6A1200A2C097F0A3C0D9
:1057180098F066EC1EF00001A66FA651D8A41200FE
:10572800A2C021F0A3C022F0A40E236E000E246EA6
:10573800BDEC24F00001A66FA651D8A41200A2C0A7
:10574800D9FFA3C0DAFF000EDE6E000EDD6E120078
:105758001B6E8A9E000E1A6EF29E18D01BBE02D0D7
:105768008A9E01D08A8E1B501B241B6E0A0EE82EBF
:10577800FED78A8C0A0EE82EFED78A9E0A0EE82EDD
:10578800FED78A9C0A0EE82EFED71A2A070E1A643C
:10579800E5D7F28E120060C02AF061C02BF000013C
:1057A80063AF0CD060C0D9FF61C0DAFF2D0EDF6E89
:1057B800604B612B626D631FD8B0632B60C021F012
:1057C80061C022F062C023F063C024F064C025F0F9
:1057D80065C026F0D7EC26F012001A0E20241A6EA7
:1057E800000E21201B6E22C01CF023C01DF03BECD4
:1057F8002DF01EC0D9FF1FC0DAFF030EDE18D8A493
:105808001200140E20241A6E000E21201B6E24C0D4
:105818001CF025C01DF03BEC2DF012001C501D1093
:10582800D8B418D0010E1E6E04D0D8901C361D3680
:105838001E2A1DAEFAD71C501A5C1D501B58D8A042
:1058480004D01C501A5E1D501B5AD8901D321C32B1
:105858001E2EF1D71AC01AF01BC01BF012001F6EC3
:1058680011D01F5094EC2DF0206E205012001F50C4
:1058780094EC2DF01C6E1C501D6E1E6A20501200F8
:10588800205012001F50000AD8B4EBD7010AD8B430
:10589800EED7030AD8B4F4D7010E12001E6E100E0C
:1058A8001C6E940EE82EFED71C2EFCD700D0000EDE
:1058B800206E000E1F6E07D08A88FF0EACEC2BF00E
:1058C8008A981F4A202A1E501C6E1D6A1C501F5C95
:1058D8001D502058D8B01200EFD721EEDFF010EE9F
:1058E80066F0060EDBCFE3FFE806FCE2660E000179
:1058F800606F000E616F2CC062F02DC063F0000E67
:10590800656F0A0E646FCFEC2BF0660E1D6E000EED
:105918001E6E3CEC2BF012000001826F0ED0B5EC2D
:105928000EF00001836F83511200B5EC0EF00001F8
:10593800836F835112008351120000018251000AC3
:10594800D8B4EDD7010AD8B4F0D7030AD8B4F3D73E
:10595800010E120020EE01F01A50D9261B50DA224F
:10596800DF501C6E1C501F6E206A1AC0D9FF1BC066
:10597800DAFFDF501C6E1F501D6E1C501F6E1DC0BD
:1059880020F01FC01AF020C01BF01200216E215019
:10599800ACEC2BF01FC022F02250ACEC2BF01EC058
:1059A80022F02250ACEC2BF01DC022F02250ACECBF
:1059B8002BF01CC022F02250ACEC2BF02050ACECA9
:1059C8002BF012003E0E01014C6F460E4D6F130E68
:1059D800496F880E486F130E4B6F880E4A6F130E6F
:1059E8000001F96F880EF86F130EFB6F880EFA6FBF
:1059F800000E436E120089EC2DF029EC27F0CFEC55
:105A08002DF0CEEC28F0E6EC2CF00F0EC16E44041D
:105A1800D8A4FDD7000E446E83EC26F0F8D71AC040
:105A280020F01BC021F020C0D9FF21C0DAFF1CC024
:105A3800DFFF204A212A1E06D8A01F061E501F106D
:105A4800D8B41200F0D71D6E06D01E5012001E509A
:105A580012001E5012001D50000AD8B4F6D7010AD1
:105A6800D8B4F5D7030AD8B4F4D7040E12001AC074
:105A7800D9FF1BC0DAFF1CC0DFFF1A4A1B2A1D50C2
:105A88001C6E1D6A1AC0D9FF1BC0DAFF1CC0DFFFDD
:105A98001A4A1B2A1200000E1A6E630E1A6401D0ED
:105AA800120000F0000E1B6E310E1B6401D003D0F3
:105AB80000F01B2AF9D71A2AF0D7636865636B2EA2
:105AC800747874000000000000303030303030004E
:075AD80030303030303000A7
