:0400000007EF00F016
:100008004A82E0ED0FF066EF15F0860E0001956F5D
:10001800000E0001966F97EF04F0250E0001A81955
:10002800D8B40BD082C0D9FF83C0DAFFA8C0DFFFE5
:100038000001824B832B97EF04F0000E0001986FAC
:10004800000E976F84C0F6FF85C0F7FF0800F550D3
:100058002E0AD8A434D00001988D0001844B852B3A
:10006800000E0001A46F000EA36F1ED0A3C024F0E1
:10007800A4C025F0000E276E0A0E266E5AEC1AF060
:1000880084C0F6FF85C0F7FF0800F5502426000E4F
:100098002522D00E24240001A36FFF0E2520000185
:1000A800A46F0001844B852B84C0F6FF85C0F7FF41
:1000B8000800F55090EC1AF0D8A00CD0D7D7000E55
:1000C8000001A46F000EA36F0001988903D00001FE
:1000D80098851AD084C0F6FF85C0F7FF0001844BCD
:1000E800852B0800F5CFA8F00001A851000AD8B464
:1000F800A6EF04F0640AD8B407D0020AD8B4E7D748
:100108000F0AD8A497EF04F0070E00019815D8B489
:1001180019D3000198A905D0000E0001A46F060E9E
:10012800A36F95C0D9FF96C0DAFFDECFA5F0DECF6A
:10013800A6F0DDCFA7F0030E00019527000E962349
:100148000001A7AF11D0A5C066F0A6C067F0A7C090
:1001580068F0F3EC19F066C0A5F067C0A6F068C0B7
:10016800A7F0030E00019713000E00019A6F000E0E
:10017800996F0001A5510001A6110001A711D8B47B
:1001880091D0820E00018C6FFF0E00018D6FA5C00B
:100198008EF0A6C08FF0A7C090F0A8C091F0100E06
:1001A80006D00001D890913390338F338E33E82EE8
:1001B800F8D700018E5100018C250001996F000EBF
:1001C80000018D2100019A6F00019907D8A09A07B4
:1001D80099C024F09AC025F0000E276E030E266EF3
:1001E8005AEC1AF024C099F025C09AF099C01CF076
:1001F8009AC01DF0000E1F6E0A0E1E6E3DEC16F022
:100208001CC099F01DC09AF000019AAF04D00001FB
:100218009907D8A09A07000199510008D5EC06F073
:1002280066C09BF067C09CF068C09DF09BC02AF038
:100238009CC02BF09DC02CF0A5C02DF0A6C02EF0C0
:10024800A7C02FF072EC10F02AC09BF02BC09CF0D6
:100258002CC09DF09BC016F09CC017F09DC018F0F4
:10026800000E196E800E1A6E3F0E1B6EAFEC15F065
:10027800D8B005D000019907D8A09A0713D09BC021
:1002880016F09CC017F09DC018F0000E196E200ED5
:100298001A6E410E1B6EAFEC15F0D8A003D000010A
:1002A800994B9A2B0001A4BF08D00001A4511DE16D
:1002B8000D0E0001A35DD8B018D0A5C070F0A6C07F
:1002C80071F0A7C072F00001A35114EC0AF066C0E7
:1002D80073F067C074F068C075F0E0EC08F070C0A7
:1002E800A5F071C0A6F072C0A7F000019ABF08D0AF
:1002F80000019A512AE10A0E0001995DD8B025D073
:100308000001A5510001A6110001A711D8B45FD0C2
:10031800A5C06DF0A6C06EF0A7C06FF04AEC0CF057
:1003280000016D5100016E1100016F110001701183
:10033800D8A44DD000019ABF4AD000019A5105E1D6
:10034800020E0001995DD8A042D09BC016F09CC057
:1003580017F09DC018F0700E196E890E1A6E400EB7
:100368001B6EAFEC15F0D8B003D00001F70E02D029
:100378000001F80E9927FF0E9A2300019951D5EC38
:1003880006F066C09BF067C09CF068C09DF0A5C0F1
:1003980016F0A6C017F0A7C018F09BC019F09CC0B3
:1003A8001AF09DC01BF089EC0DF016C09FF017C025
:1003B800A0F018C0A1F019C0A2F0000E0001A56FAE
:1003C800000E0001A66F000E0001A76F33D0A5C074
:1003D8006DF0A6C06EF0A7C06FF04AEC0CF06DC0CF
:1003E8009FF06EC0A0F06FC0A1F070C0A2F0A5C0D1
:1003F8007CF0A6C07DF0A7C07EF09FC01EF0A0C014
:100408001FF0A1C020F0A2C021F0B2EC18F01EC06D
:100418007FF01FC080F020C081F034EC19F07CC060
:10042800A5F07DC0A6F07EC0A7F0000E00019A6F6F
:10043800000E996F010E0001A86F0A0E0001A8199D
:10044800D8B41ED00001A851040DAB0EF324F66EEB
:10045800600EF420F76E0900F55000019F5D090059
:10046800F5500001A0590900F5500001A1590900F3
:10047800F5500001A259D8A003D00001A82BDDD760
:10048800030E0001971500018C6F000E00019815EE
:1004980000018D6F00018C5100018D11D8B454D02A
:1004A80082C0D9FF83C0DAFF2D0E4CD00001824BE9
:1004B800832B4AD09FC01FF0A0C020F0A1C021F01C
:1004C800A2C022F00001A851040DAB0EF324F66E71
:1004D800600EF420F76E0900F5CF23F00900F5CF80
:1004E80024F00900F5CF25F00A00F5CF26F07FECBF
:1004F80016F01FC09BF020C09CF021C09DF022C0C8
:100508009EF09BC016F09CC017F09DC018F09EC0CE
:1005180019F00A0E1A6E000E1B6E000E1C6E000EED
:100528001D6E4DEC18F016C09BF017C09CF018C05B
:100538009DF019C09EF000019B51300F82C0D9FF79
:1005480083C0DAFFDF6EB2D70001A8070001A8292F
:10055800D8B40ED0AFD782C0D9FF83C0DAFF300E2F
:10056800DF6E0001824B832B00019907D8A09A0700
:1005780000019ABF07D000019A51EDE100019905E9
:10058800D8B0E9D70001A4BF0CD00001A45105E1FF
:10059800090E0001A35DD8A004D0080E0001A86FC1
:1005A80002D0A3C0A8F00001A8510001A35F000E6B
:1005B8000001A8BFFF0E0001A45B0001A8510001C3
:1005C800D8B409D082C0D9FF83C0DAFF2E0EDF6EFF
:1005D8000001824B832B0001A851D5EC06F066C0C0
:1005E80092F067C093F068C094F0A5C02DF0A6C043
:1005F8002EF0A7C02FF092C02AF093C02BF094C021
:100608002CF072EC10F02AC06DF02BC06EF02CC0EC
:100618006FF04AEC0CF06DC09FF06EC0A0F06FC098
:10062800A1F070C0A2F073D09FC01FF0A0C020F04E
:10063800A1C021F0A2C022F00001A851040DAB0E08
:10064800F324F66E600EF420F76E0900F5CF23F060
:100658000900F5CF24F00900F5CF25F00A00F5CF01
:1006680026F07FEC16F01FC09BF020C09CF021C044
:100678009DF022C09EF09BC016F09CC017F09DC054
:1006880018F09EC019F00A0E1A6E000E1B6E000EAE
:100698001C6E000E1D6E4DEC18F016C09BF017C0B6
:1006A8009CF018C09DF019C09EF000019B51300FBE
:1006B80082C0D9FF83C0DAFFDF6E0001824B832B33
:1006C8009FC016F0A0C017F0A1C018F0A2C019F082
:1006D8000001A851040DAB0EF324F66E600EF42051
:1006E800F76E0900F5CF1AF00900F5CF1BF00900E5
:1006F800F5CF1CF00A00F5CF1DF04DEC18F016C030
:100708009FF017C0A0F018C0A1F019C0A2F0000116
:10071800A8070001A829D8B40ED086D782C0D9FF6F
:1007280083C0DAFF300EDF6E0001824B832B00019D
:10073800A307D8A0A4070001A3510001A411D8B4AD
:10074800F2D0ECD795C0D9FF96C0DAFFDECF9FF084
:10075800DDCFA0F00001000EA0BFFF0EA16FA26FB9
:10076800020E00019527000E96230001A2AF0CD0BF
:10077800030E000197130001A21FA11FA01F9F6D68
:10078800000EA023A123A2230001A3510001A4115C
:10079800D8A40DD000019F510001A0110001A111A2
:1007A8000001A211D8A403D00001A34BA42B010E71
:1007B8000001A86F0A0E0001A819D8B41ED00001C4
:1007C800A851040DAB0EF324F66E600EF420F76EFC
:1007D8000900F55000019F5D0900F5500001A0597E
:1007E8000900F5500001A1590900F5500001A2596E
:1007F800D8A003D00001A82BDDD7800E0001A8BF28
:100808007F0E00018C6F0001A3510001A85D00015B
:10081800A451800A00018C59D8B003D0A3C0A8F015
:1008280018D00001A451800A00018C6F0001A85162
:100838000001A35D800E0001A8BF7F0E00018C5946
:10084800D8B007D00001A8510001A36FA46BA3BFC3
:10085800A407030E0001971500018C6F000E00011C
:10086800981500018D6F00018C5100018D11D8B4CD
:100878004FD082C0D9FF83C0DAFF2D0EDF6E45D07E
:10088800A3C08CF0A4C08DF00001D8908C378D37B0
:100898000001D8908C378D37AB0E00018C25F66E91
:1008A800600E8D21F76E0900F5CF23F00900F5CF12
:1008B80024F00900F5CF25F00A00F5CF26F09FC0F7
:1008C8001FF0A0C020F0A1C021F0A2C022F07FEC50
:1008D80016F01FC016F020C017F021C018F022C073
:1008E80019F00A0E1A6E000E1B6E000E1C6E000E1A
:1008F8001D6E4DEC18F01650300F0001A86F82C025
:10090800D9FF83C0DAFFA8C0DFFF0001824B832B29
:100918000001A307D8A0A4070001A329B1E10001A1
:10092800A429D8A4ADD784C0F6FF85C0F7FF00017D
:10093800844B852B0800F5CFA8F00001A851D8A456
:1009480011EF00F082C0D9FF83C0DAFF000EDF6E1E
:10095800120000016B5100016C11D8B40CD06BC0AF
:10096800D9FF6CC0DAFF69C0DEFF6AC0DDFF03D0C3
:100978000001694B6A2B69C0D9FF6AC0DAFFDF50F2
:1009880000016D6F00016D5147EC1AF0D8B0F0D737
:10099800000E00016E6F2D0E00016D19D8A404D051
:1009A800010E00016E6F05D02B0E00016D19D8A441
:1009B80003D00001694B6A2B000E00016D6F000E19
:1009C8000001706F000E716F000E726F000E736F72
:1009D800000E00016F6F00016EB90BD069C0D9FF1E
:1009E8006AC0DAFF2E0EDE18D8A403D000016E8983
:1009F80046D069C0D9FF6AC0DAFFDF5090EC1AF020
:100A0800D8A041D000016E83080E00016D19D8B43A
:100A180031D000016EA902D000016F0700016D2BD3
:100A280070C016F071C017F072C018F073C019F0DA
:100A38000A0E1A6E000E1B6E000E1C6E000E1D6E46
:100A4800E0EC18F016C070F017C071F018C072F022
:100A580019C073F069C0D9FF6AC0DAFFDF50336E7E
:100A6800D00E3326335000017027000E71237223F5
:100A7800732305D000016EB902D000016F2B00016D
:100A8800694B6A2BA8D7000E00016D6F69C0D9FFAA
:100A98006AC0DAFF650EDE18D8B408D069C0D9FF7D
:100AA8006AC0DAFF450EDE18D8A46BD00001694B86
:100AB8006A2B69C0D9FF6AC0DAFF2D0EDE18D8A4E8
:100AC80003D000016E8708D069C0D9FF6AC0DAFF79
:100AD8002B0EDE18D8A403D00001694B6A2B69C01D
:100AE800D9FF6AC0DAFF300EDE18D8B4F5D769C06E
:100AF800D9FF6AC0DAFFDF5090EC1AF0D8A03CD0DA
:100B080069C0D9FF6AC0DAFFDF50D00F00016D6FEE
:100B18000001694B6A2B69C0D9FF6AC0DAFFDF5050
:100B280090EC1AF0D8A028D069C0D9FF6AC0DAFFC3
:100B3800DF50336E00016D510A0DF3503324D00F8E
:100B480000016D6F0001694B6A2B69C0D9FF6AC04B
:100B5800DAFFDF5090EC1AF0D8A00ED069C0D9FFA8
:100B68006AC0DAFFDF50336E00016D510A0DF35091
:100B78003324D00F00016D6F00016EA702D0000171
:100B88006D6D00016D5100016F2700016B5100016F
:100B98006C11D8B40BD000016EA308D06BC0D9FF7C
:100BA8006CC0DAFF69C0DEFF6AC0DDFF70C01EF0EE
:100BB80071C01FF072C020F073C021F0FEEC16F077
:100BC8001EC070F01FC071F020C072F0000170519B
:100BD8000001711100017211D8A40AD0000E0001A1
:100BE800696F000E00016A6F000E00016B6F120042
:100BF80000016FAF63D000016F6D17D070C01EF099
:100C080071C01FF072C020F0030E216E150E226E07
:100C1800500E236E97EC12F01EC070F01FC071F0DA
:100C280020C072F0F60E00016F2700016F51800A94
:100C3800760FD8A017D0E2D770C01EF071C01FF091
:100C480072C020F0000E216E200E226E410E236E1F
:100C580097EC12F01EC070F01FC071F020C072F047
:100C680000016F0700016F510001D8A4E5D770C0DB
:100C780016F071C017F072C018F0000E196E800ED1
:100C88001A6E000E1B6EAFEC15F0D8B072D00001D2
:100C98006EA10AD0000E0001696F800E00016A6F14
:100CA800800E00016B6F1200000E0001696F800E4C
:100CB80000016A6F000E00016B6F120000016F5196
:100CC800800A7F0FD8B018D054D070C02AF071C0F5
:100CD8002BF072C02CF0030E2D6E150E2E6E500EDA
:100CE8002F6E72EC10F02AC070F02BC071F02CC07F
:100CF80072F0F60E00016F270A0E00016F61E5D74A
:100D080016D070C02AF071C02BF072C02CF0000E03
:100D18002D6E200E2E6E410E2F6E72EC10F02AC032
:100D280070F02BC071F02CC072F000016F07000149
:100D38006F510001D8A4E5D7FF0E166E7F0E176E0F
:100D48007F0E186E70C019F071C01AF072C01BF0D7
:100D5800AFEC15F0D8B00DD000016EB19BD7000EE6
:100D68000001696F800E00016A6F000E00016B6F51
:100D7800120000016EA10ED070C066F071C067F05D
:100D880072C068F0F3EC19F066C070F067C071F0DB
:100D980068C072F070C069F071C06AF072C06BF020
:100DA800120000016C6F00016CAF04D100016C6D82
:100DB80000016C51800A120FD8A094D0000E276E43
:100DC800030E266E000E1F6E0A0E1E6E000E196EA2
:100DD800640E186E00016C51166E176A16BE17065F
:100DE800ABEC17F016C01CF017C01DF03DEC16F068
:100DF800090E1C24246E000E1D20256E5AEC1AF0D4
:100E0800FA0E2424F66E600E2520F76E0900F5CF41
:100E18002DF00900F5CF2EF00A00F5CF2FF0000EC7
:100E28001F6E640E1E6E00016C511C6E1D6A1CBE86
:100E38001D063DEC16F0120E1C24246E000E1D201B
:100E4800256E000E276E030E266E5AEC1AF0FA0E67
:100E58002424F66E600E2520F76E0900F5CF2AF0DF
:100E68000900F5CF2BF00A00F5CF2CF072EC10F04A
:100E78002AC069F02BC06AF02CC06BF069C02AF058
:100E88006AC02BF06BC02CF0000E276E030E266E86
:100E9800000E196E0A0E186E00016C51166E176A54
:100EA80016BE1706ABEC17F016C024F017C025F0D5
:100EB8005AEC1AF0FA0E2424F66E600E2520F76E0E
:100EC8000900F5CF2DF00900F5CF2EF00A00F5CF77
:100ED8002FF072EC10F02AC066F02BC067F02CC01F
:100EE80068F0120000016C51800A750FD8A04FD02D
:100EF800000E1F6E0A0E1E6E00016C511C6E1D6ADC
:100F08001CBE1D063DEC16F0090E1C24246E000EB6
:100F18001D20256E000E276E030E266E5AEC1AF061
:100F2800FA0E2424F66E600E2520F76E0900F5CF20
:100F38002AF00900F5CF2BF00A00F5CF2CF0000EAF
:100F4800276E030E266E000E196E0A0E186E00012B
:100F58006C51166E176A16BE1706ABEC17F016C062
:100F680024F017C025F05AEC1AF0FA0E2424F66E75
:100F7800600E2520F76E0900F5CF2DF00900F5CF9A
:100F88002EF00A00F5CF2FF072EC10F0A4D7000174
:100F98006C51030DFA0EF324F66E600EF420F76E12
:100FA8000900F5CF66F00900F5CF67F00A00F5CF24
:100FB80068F0120000016C51800A120FD8A094D07A
:100FC800000E276E030E266E000E1F6E0A0E1E6E92
:100FD800000E196E640E186E00016C51166E176AB9
:100FE80016BE1706ABEC17F016C01CF017C01DF0A4
:100FF8003DEC16F0090E1C24246E000E1D20256EF3
:101008005AEC1AF0D30E2424F66E600E2520F76EE3
:101018000900F5CF2DF00900F5CF2EF00A00F5CF25
:101028002FF0000E1F6E640E1E6E00016C511C6EB8
:101038001D6A1CBE1D063DEC16F0120E1C24246E03
:10104800000E1D20256E000E276E030E266E5AEC2C
:101058001AF0D30E2424F66E600E2520F76E0900D0
:10106800F5CF2AF00900F5CF2BF00A00F5CF2CF0C8
:1010780072EC10F02AC069F02BC06AF02CC06BF03B
:1010880069C02AF06AC02BF06BC02CF0000E276EE6
:10109800030E266E000E196E0A0E186E00016C51B2
:1010A800166E176A16BE1706ABEC17F016C024F0BA
:1010B80017C025F05AEC1AF0D30E2424F66E600EF1
:1010C8002520F76E0900F5CF2DF00900F5CF2EF099
:1010D8000A00F5CF2FF072EC10F02AC066F02BC092
:1010E80067F02CC068F0120000016C51800A750F7F
:1010F800D8A04FD0000E1F6E0A0E1E6E00016C5154
:101108001C6E1D6A1CBE1D063DEC16F0090E1C2443
:10111800246E000E1D20256E000E276E030E266E0F
:101128005AEC1AF0D30E2424F66E600E2520F76EC2
:101138000900F5CF2AF00900F5CF2BF00A00F5CF0A
:101148002CF0000E276E030E266E000E196E0A0E86
:10115800186E00016C51166E176A16BE1706ABECB6
:1011680017F016C024F017C025F05AEC1AF0D30E69
:101178002424F66E600E2520F76E0900F5CF2DF0B9
:101188000900F5CF2EF00A00F5CF2FF072EC10F021
:10119800A4D700016C51030DD30EF324F66E600E34
:1011A800F420F76E0900F5CF66F00900F5CF67F077
:1011B8000A00F5CF68F0120072C076F00001776B74
:1011C800786B000171350001763701E37781000102
:1011D800765100017B6F75C076F00001776B786BF4
:1011E800000174350001763701E3778100017651FB
:1011F80000017A6F00017B510001D8B411D00001C1
:101208007A5100017B5DD8B012D000017B510008F3
:1012180000017A250001766F180E0001766507D067
:1012280073C070F074C071F075C072F012000001E4
:101238007A510001D8B411D000017B5100017A5DC8
:10124800D8B012D000017A51000800017B250001B6
:10125800766F180E0001766507D070C070F071C007
:1012680071F072C072F01200060E0001796F000171
:1012780072AF02D00001798F000175AF02D0000172
:10128800798D0001718FFF0E00017017FF0E0001AC
:101298007117000E000172170001748FFF0E000114
:1012A8007317FF0E00017417000E00017517000177
:1012B8007A5100017B5DD8B025D00001D8907337F2
:1012C8007437753700017A0700017B5100017A19DC
:1012D800D8B411D00001790779C076F0070E000163
:1012E8007617D8B408D0E9D70001D8907233713393
:1012F800703300017B2B00017A5100017B19D8B4AF
:101308002BD0F2D700017B5100017A5DD8B024D0F0
:101318000001D89070377137723700017B070001E0
:101328007B5100017A19D8B411D00001790779C02E
:1013380076F0070E00017617D8B408D0E9D7000177
:10134800D89075337433733300017A2B00017A51C6
:1013580000017B19D8A4F3D7000179AF12D0FF0E92
:101368000001701BFF0E0001711BFF0E0001721BB4
:10137800010E00017027000E00017123000E00010C
:101388007223000179AD12D0FF0E0001731BFF0E0E
:101398000001741BFF0E0001751B010E000173276D
:1013A800000E00017423000E00017523000E0001D9
:1013B800796F00017051000173270001715100011C
:1013C80074230001725100017523000175AF15D017
:1013D800FF0E0001731BFF0E0001741BFF0E0001BE
:1013E800751B010E00017327000E00017423000E07
:1013F80000017523010E0001796F73C016F074C0E7
:1014080017F075C018F07BC019F079C01AF0C9EC54
:1014180013F016C070F017C071F018C072F0120007
:1014280000016F6F6D0E00016F659FD0000E276E73
:10143800030E266E000E1F6E0A0E1E6E000E196E2B
:10144800640E186E6FC016F0176AABEC17F016C072
:101458001CF017C01DF03DEC16F0090E1C24246E7C
:10146800000E1D20256E5AEC1AF0FA0E2424F66E92
:10147800600E2520F76E0900F5CF2DF00900F5CF95
:101488002EF00A00F5CF2FF0000E1F6E640E1E6EB0
:101498006FC01CF01D6A3DEC16F0120E1C24246E61
:1014A800000E1D20256E000E276E030E266E5AECC8
:1014B8001AF0FA0E2424F66E600E2520F76E090045
:1014C800F5CF2AF00900F5CF2BF00A00F5CF2CF064
:1014D80072EC10F02AC06CF02BC06DF02CC06EF0CE
:1014E800000E276E030E266E000E196E0A0E186E79
:1014F8006FC016F0176AABEC17F016C024F017C0CF
:1015080025F05AEC1AF0FA0E2424F66E600E252007
:10151800F76E0900F5CF2DF00900F5CF2EF00A007F
:10152800F5CF2FF06CC02AF06DC02BF06EC02CF0F8
:1015380072EC10F02AC069F02BC06AF02CC06BF076
:1015480069C02AF06AC02BF06BC02CF0000E2D6E1B
:10155800000E2E6E3F0E2F6E72EC10F02AC066F051
:101568002BC067F02CC068F012000A0E00016F65EE
:101578005DD0000E276E030E266E000E196E0A0E41
:10158800186E6FC016F0176AABEC17F016C024F08F
:1015980017C025F05AEC1AF0FA0E2424F66E600EE5
:1015A8002520F76E0900F5CF2DF00900F5CF2EF0B4
:1015B8000A00F5CF2FF0000E1F6E0A0E1E6E6FC0C8
:1015C8001CF01D6A3DEC16F0090E1C24246E000E5A
:1015D8001D20256E000E276E030E266E5AEC1AF09B
:1015E800FA0E2424F66E600E2520F76E0900F5CF5A
:1015F8002AF00900F5CF2BF00A00F5CF2CF072EC99
:1016080010F02AC06CF02BC06DF02CC06EF06CC0CE
:101618002AF06DC02BF06EC02CF0000E2D6E000E5F
:101628002E6E3F0E2F6E72EC10F098D700016F519E
:10163800030DFA0EF324F66E600EF420F76E09001F
:10164800F5CF2AF00900F5CF2BF00A00F5CF2CF0E2
:10165800000E2D6E000E2E6E3F0E2F6E72EC10F0E7
:101668002AC066F02BC067F02CC068F01200C0ECEE
:1016780016F030C0ECF131C0EDF132C0EEF133C0FC
:10168800EFF1ECC1A9F0EDC1AAF0EEC1ABF0EFC1EA
:10169800ACF002EC11F0000E196E010E73EC17F0AD
:1016A800510E196E620E1A6E0BEC19F0070E196EB8
:1016B800010E73EC17F0CA0E196E010E1A6E0BECC0
:1016C80019F00101A55118EC18F01CC0D9F11DC082
:1016D800DAF11EC0DBF11FC0DCF1000E196E020E3C
:1016E80073EC17F0570E196E620E1A6E0BEC19F0A8
:1016F800070E196E020E73EC17F0DE0E196E000E4F
:101708001A6E0BEC19F07A0E0001B86FC10E0001C9
:10171800B76F810EE82EFED7B72FFCD7B82FFAD7B0
:1017280000D0010EF7EC15F001018A51C5EC14F058
:1017380077C0F0F178C0F1F179C0F2F1F0C17CF036
:10174800F1C17DF0F2C17EF0ECEC0CF07CC0F0F160
:101758007DC0F1F17EC0F2F1DD0E0001826F010E55
:101768000001836F5D0E0001846F620E0001856FBA
:10177800F0C186F0F1C187F0F2C188F009EC00F001
:10178800000E196E010E73EC17F06E0E196E620ED4
:101798001A6E0BEC19F0050E196E010E73EC17F0AA
:1017A800DD0E196E010E1A6E0BEC19F0DD0E166EB9
:1017B800010E176E000E196E000E186E000E1B6ECD
:1017C8000F0E1A6E0BEC1AF001018C5173EC14F029
:1017D80077C0F3F178C0F4F179C0F5F1F3C17CF08A
:1017E800F4C17DF0F5C17EF0ECEC0CF07CC0F3F1B7
:1017F8007DC0F4F17EC0F5F1DD0E0001826F010EAF
:101808000001836F5D0E0001846F620E0001856F19
:10181800F3C186F0F4C187F0F5C188F009EC00F057
:10182800000E196E020E73EC17F0690E196E620E37
:101838001A6E0BEC19F0050E196E020E73EC17F008
:10184800DD0E196E010E1A6E0BEC19F0DD0E166E18
:10185800010E176E000E196E000E186E000E1B6E2C
:101868000F0E1A6E0BEC1AF07A0E0001B86FC10E4B
:101878000001B76F810EE82EFED7B72FFCD7B82F1F
:10188800FAD700D0010EF7EC15F012006FC071F016
:101898000001726B736B00016E350001713701E353
:1018A80072810001715100017B6F00017B51D8A446
:1018B8000AD0000E00016D6F000E6E6F000E6F6F84
:1018C800000E706F1200170E0001716F6DC072F07C
:1018D8006EC073F06FC074F0000171290001756F5C
:1018E80005D00001D8907433733372330001752F1B
:1018F800F8D7000172510001766F00016E8FFF0E5C
:1019080000016D17FF0E00016E17000E00016F1722
:1019180000016D510001776F00016E510001786F71
:1019280000016F510001796F00017A6B8E0E000182
:101938007B5F00017BAF1AD000017B51800A8F0FBB
:10194800D8B00AD0000E00016D6F000E6E6F000E49
:101958006F6F000E706F12000001D8907A337933E0
:101968007833773300017B3FF7D71BD0170E000180
:101978007B6512D0000E00016D6F000E6E6F000EB9
:101988006F6F000E706F12000001D89077377837AC
:1019980079377A3700017B0700017B510001D8A411
:1019A800F3D7000176510001D8B409D000017A1F9D
:1019B800791F781F776D000E782379237A2377C0F3
:1019C8006DF078C06EF079C06FF07AC070F01200D8
:1019D800000E216EC80E226E420E236E7CC01EF0D1
:1019E8007DC01FF07EC020F097EC12F01EC06DF095
:1019F8001FC06EF020C06FF04AEC0CF06DC085F08F
:101A08006EC086F0000E2D6EC80E2E6E420E2F6E22
:101A180085C01EF086C01FF0BDEC19F01EC02AF06C
:101A28001FC02BF020C02CF072EC10F02AC066F01A
:101A38002BC067F02CC068F0F3EC19F066C070F0AA
:101A480067C071F068C072F07CC073F07DC074F03C
:101A58007EC075F0E0EC08F070C07FF071C080F0D7
:101A680072C081F07FC01EF080C01FF081C020F0DE
:101A7800000E216E700E226E420E236E97EC12F04D
:101A88001EC082F01FC083F020C084F085C01EF005
:101A980086C01FF0BDEC19F01EC070F01FC071F0B9
:101AA80020C072F082C073F083C074F084C075F0F7
:101AB800E0EC08F070C087F071C088F072C089F05F
:101AC800530E0001DD19D8B405D0570E0001DC19FA
:101AD800D8A414D087C02AF088C02BF089C02CF075
:101AE800000E2D6E800E2E6EBF0E2F6E72EC10F053
:101AF8002AC087F02BC088F02CC089F087C07CF002
:101B080088C07DF089C07EF0120018C01CF01D6AE4
:101B18001E6A17341C3601E31D801C50246E2450A5
:101B2800D8A409D0000E166E000E176E000E186E9F
:101B3800000E196E12001BC01CF01D6A1E6A1A34B2
:101B48001C3601E31D801C50236E2350D8A409D0F5
:101B5800000E166E000E176E000E186E000E196E2F
:101B68001200178EFF0E1616FF0E1716000E181607
:101B78001A8EFF0E1916FF0E1A16000E1B16000EEF
:101B88001F6E000E206E000E216E000E226E7F0E5C
:101B9800245E2350980F245E180E236ED8901F36AB
:101BA8002036213622361950165C1A5017581B5009
:101BB8001858D8A007D01950165E1A50175A1B503B
:101BC800185A1F80D890163617361836232EE6D79F
:101BD80024AE16D02450800A970FD8B009D0000E32
:101BE800166E000E176E000E186E000E196E12009B
:101BF800D8902232213220321F32243EF9D715D014
:101C0800170E24640FD0000E166E000E176E000E0D
:101C1800186E000E196E1200D8901F362036213625
:101C2800223624062450D8A4F7D71FC016F020C0A7
:101C380017F021C018F022C019F0120024C028F0B3
:101C480025C029F026C02AF027C02BF0060ED89010
:101C5800283629362A362B36E82EF9D7281E291E8B
:101C68002A1E2B1E282A000E29222A222B22000E89
:101C78002824166E6C0E2920176EDC0E2A20186E8A
:101C8800020E2B20196E24C02CF025C02DF026C082
:101C98002EF027C02FF0060ED8902C362D362E3673
:101CA8002F36E82EF9D72CC01AF02DC01BF02EC005
:101CB8001CF02FC01DF00AEC13F016C030F017C04E
:101CC80031F03104D8A044D024C028F025C029F030
:101CD80026C02AF027C02BF0040ED89028362936C3
:101CE8002A362B36E82EF9D7281E291E2A1E2B1E27
:101CF800282A000E29222A222B22000E2824166EBA
:101D08006C0E2920176EDC0E2A20186E020E2B206E
:101D1800196E24C02CF025C02DF026C02EF027C047
:101D28002FF0040ED8902C362D362E362F36E82E6E
:101D3800F9D72CC01AF02DC01BF02EC01CF02FC0F4
:101D48001DF00AEC13F016C030F017C031F0AC8467
:101D58003104D8B0120030C0AFFFAC98AB8E948E6F
:101D6800949CAB88AC8A1200000E246E010E246489
:101D780001D01200000E236E070E236401D05DD03F
:101D8800245080EC18F02350020D010EF326000EAB
:101D9800F422500E1D6E010E1E6EF3501D26F450D7
:101DA8001E222450130DF3501D24D96EF4501E200A
:101DB800DA6E16C0DEFF17C0DDFF2350020D010EDC
:101DC800F326000EF422500E1D6E010E1E6EF35007
:101DD8001D26F4501E222450130DF3501D24D96ED5
:101DE800F4501E20DA6EDECF1FF0DDCF20F0245035
:101DF800130D110EF326000EF422500EF324D96EA3
:101E0800010EF420DA6EDECF21F0DDCF22F01F5074
:101E18002126205022222450130D110EF326000EE5
:101E2800F422500EF324D96E010EF420DA6E21C08C
:101E3800DEFF22C0DDFF232A9FD72450130D110E89
:101E4800F326000EF422500EF324D96E010EF4206E
:101E5800DA6EDECF1DF0DDCF1EF0D8901E321D32B7
:101E6800D8901E321D32D8901E321D322450130DC8
:101E7800110EF326000EF422500EF324D96E010E33
:101E8800F420DA6E1DC0DEFF1EC0DDFF242A6ED7E7
:101E980018341934216E2150D8A409D0000E166EBA
:101EA800000E176E000E186E000E196E12001B340D
:101EB8001C34206E2050D8A409D0000E166E000ED7
:101EC800176E000E186E000E196E1200188EFF0E97
:101ED8001616FF0E1716FF0E1816000E19161B8E73
:101EE800FF0E1916FF0E1A16FF0E1B16000E1C16F3
:101EF800000E1C6E000E1D6E000E1E6E000E1F6E74
:101F08007F0E215E2050A00F215E200E206ED890FB
:101F18001C361D361E361F361950165C1A501758B7
:101F28001B5018581C501958D8A009D01950165EC3
:101F38001A50175A1B50185A1C50195A1C80D890FE
:101F48001636173618361936202EE1D721AE16D098
:101F58002150800A9F0FD8B009D0000E166E000ECF
:101F6800176E000E186E000E196E1200D8901F32F0
:101F78001E321D321C32213EF9D715D01F0E2164A6
:101F88000FD0000E166E000E176E000E186E000EA3
:101F9800196E1200D8901C361D361E361F362106C3
:101FA8002150D8A4F7D71CC016F01DC017F01EC0CA
:101FB80018F01FC019F012000600FACF07F0FBCF87
:101FC80008F0E9CF09F0EACF0AF0E1CF0BF0E2CF51
:101FD8000CF0D9CF0DF0DACF0EF0F3CF0FF0F4CF2D
:101FE80010F0F6CF11F0F7CF12F0F8CF13F0F5CFCD
:101FF80014F09DBA9EAA14D0E8EC1AF0496E9E9A85
:1020080049508FEC11F08AA802D0010E01D0000EC1
:10201800FF0A056E053A8A500518EF0B05188A6EF7
:10202800F2B4F2A439D0F294010E486E000E156E87
:10203800010E156401D019D01550020DC70EF324F6
:10204800D96E000EF420DA6EDE50DE10D8B40BD054
:102058001550020DC70EF324D96E000EF420DA6E67
:10206800DE06000EDD5A152AE3D74704D8A40ED0A1
:102078000001DA07D8A0DB070001DA510001DB1103
:10208800D8A404D0000EFA6E000EF96E000E026E8F
:10209800830E016EDFEC1AF0F2B2F2A801D0F292D0
:1020A80014C0F5FF13C0F8FF12C0F7FF11C0F6FF08
:1020B80010C0F4FF0FC0F3FF0EC0DAFF0DC0D9FF48
:1020C8000CC0E2FF0BC0E1FF0AC0EAFF09C0E9FF4C
:1020D80008C0FBFF07C0FAFF4A9211002CC030F07D
:1020E800316A326A2B34303601E3318030500001D6
:1020F800606F00016051D8A407D0000E2A6E000E50
:102108002B6E000E2C6E12002FC030F0316A326A2E
:102118002E34303601E3318030500001656F000104
:102128006551D8A407D0000E2A6E000E2B6E000E43
:102138002C6E1200000165517B0F000160272CC036
:1021480065F02F500001651B800E000165172B8E6E
:102158002E8EFF0E2D16FF0E2E16000E2F16000EB9
:102168000001616F000E0001626F000E0001636FD5
:10217800070E0001646F2AA009D02D5000016127C5
:102188002E50000162232F5000016323D8902C3277
:102198002B322A32D8902D362E362F360001642F56
:1021A800EAD7090E0001646F2AA009D02D5000015A
:1021B80061272E50000162232F5000016323D8901D
:1021C8002C322B322A320001D890633362336133C8
:1021D8000001642FE9D761C016F062C017F063C030
:1021E80018F060C019F065C01AF0C9EC13F016C0F9
:1021F8002AF017C02BF018C02CF01200A9C01FF04D
:10220800AAC020F0ABC021F0ACC022F0100E236EA3
:10221800270E246E000E256E000E266E7FEC16F03B
:10222800FD0E1F240001B16FFF0E20200001B26FC8
:10223800100E1A6E270E1B6E000E1C6E000E1D6E01
:10224800A9C016F0AAC017F0ABC018F0ACC019F0BE
:102258004DEC18F016C01FF017C020F018C021F080
:1022680019C022F0640E236E000E246E000E256E37
:10227800000E266E7FEC16F01FC0B3F020C0B4F03D
:10228800100E1A6E270E1B6E000E1C6E000E1D6EB1
:10229800A9C016F0AAC017F0ABC018F0ACC019F06E
:1022A8004DEC18F016C0ADF017C0AEF018C0AFF086
:1022B80019C0B0F0ADC016F0AEC017F0AFC018F03E
:1022C800B0C019F0640E1A6E000E1B6E000E1C6E64
:1022D800000E1D6E4DEC18F016C0B5F017C0B6F024
:1022E800CA0E0001826F010E0001836F380E0001D3
:1022F800846F620E0001856FB1C086F0B2C087F0AE
:10230800B3C088F0B4C089F0B5C08AF0B6C08BF00D
:1023180009EC00F01200016E240E0118D8A410D0A8
:10232800000E3D6E000E3C6E000E3B6E000E3A6EC7
:10233800000E446E000E436E000E466E000E456E93
:102348004404D8A41AD02C0E0118D8A40BD0465097
:10235800010D8A0EF324D96E010EF420DA6E3CC00A
:10236800DFFF462A000E3C24D96E010E3D20DA6EAE
:1023780001C0DFFF3C4A3D2A1BD0470E3518D8A4C0
:1023880011D0470E3618D8A40DD0410E3718D8A44E
:1023980009D0010E446E000E356E000E366E000E2A
:1023A800376E06D036C035F037C036F001C037F08A
:1023B8004304D8A41AD02C0E0118D8A40BD0455029
:1023C800010D9E0EF324D96E010EF420DA6E3AC088
:1023D800DFFF452A000E3A24D96E020E3B20DA6E42
:1023E80001C0DFFF3A4A3B2A1200520E0001D319FE
:1023F800D8A416D04D0E0001D419D8A411D0430E7C
:102408000001D519D8A40CD0010E436E000E0001AE
:10241800D36F000E0001D46F000E0001D56F1200BB
:10242800D4C0D3F0D5C0D4F001C0D5F0120022C07A
:10243800D9FF23C0DAFFDF502F6E224A232A200E4D
:102448002F18D8B4F4D7090E2F18D8B4F0D7000E27
:102458002B6E000E2C6E000E2D6E000E2E6E000ED2
:102468002A6E2D0E2F18D8A405D02A2A2AD0224A3F
:10247800232A2ED02B0E2F18D8A42AD022D02BC036
:1024880016F02CC017F02DC018F02EC019F00A0E47
:102498001A6E000E1B6E000E1C6E000E1D6EE0EC18
:1024A80018F02FC026F0D00E2626265016242B6EA4
:1024B800000E17202C6E000E18202D6E000E19200D
:1024C8002E6E22C0D9FF23C0DAFFDF502F6ECFD780
:1024D8002F5090EC1AF0D8B0D2D72A50D8B41AD0CE
:1024E8002BC026F02CC027F02DC028F02EC029F0D4
:1024F800261E271E281E291E262A000E27222822CD
:10250800292226C022F027C023F028C024F029C0A1
:1025180025F012002BC022F02CC023F02DC024F08F
:102528002EC025F0120020C024F0256A266A1F3428
:10253800243601E3258024502B6E2B50D8A407D0D5
:10254800000E1E6E000E1F6E000E206E120023C0BD
:1025580024F0256A266A2234243601E32580245093
:102568002C6E2C50D8A407D0000E1E6E000E1F6EC5
:10257800000E206E1200000E286E000E296E000E4E
:102588002A6E2C50890F2B5E20C02CF023502C1A59
:10259800800E2C161F8EFF0E1E16FF0E1F16000E25
:1025A8002016228EFF0E2116FF0E2216000E23166D
:1025B800180E276ED890283629362A3621501E5CE8
:1025C80022501F5823502058D8A007D021501E5EF3
:1025D80022501F5A2350205A2880D8901E361F3662
:1025E8002036272EE7D728C016F029C017F02AC0B2
:1025F80018F02BC019F02CC01AF0C9EC13F016C053
:102608001EF017C01FF018C020F01200000E1F6E39
:102618001DAE0AD01D1E1C1E1B1E1A6C000E1B228E
:102628001C221D22010E1F6E19AE0AD0191E181E7B
:10263800171E166C000E172218221922010E1F1AD7
:10264800000E206E000E216E000E226E000E236E0C
:102658001A501B101C101D10D8B42AD0010E1E6E63
:1026680006D0D8901A361B361C361D361E2A1DAECB
:10267800F8D7D89020362136223623361A50165CE1
:102688001B5017581C5018581D501958D8A009D05D
:102698001A50165E1B50175A1C50185A1D50195ABA
:1026A8002080D8901D321C321B321A321E2EE1D7E0
:1026B8001F50D8B408D0231E221E211E206C000EE5
:1026C80021222222232220C016F021C017F022C086
:1026D80018F023C019F01200000E0001BB6F010EA4
:1026E8000001BB6501D012000001BB51020DCF0EE5
:1026F800F324D96E000EF420DA6EDE50DE10D8B462
:1027080041D00001BB51020DC70EF324D96E000E53
:10271800F420DA6EDE50DE10D8A434D0010E476EF5
:10272800FD0E0001DB6FE80EDA6F0001BB51020DF0
:10273800CF0EF324D96E000EF420DA6E01D80AD039
:102748000500FA6EDE50FD6EDE50FE6EF850FF6E2C
:10275800FA501200000E476E0001BB51020DCB0E5D
:10276800F324D96E000EF420DA6E0001BB51020D7D
:10277800C70EF324E16E000EF420E26EDECFE6FF12
:10278800DDCFE5FF0001BB2BAAD71950D8B405D07F
:10279800165017101810D8A40CD0000E166E000E84
:1027A800176E000E186E1200192AD89018321732B8
:1027B8001632000E16141B6E000E17141C6EFE0E39
:1027C80018141D6E1B501C101D10D8B40CD0ECD75B
:1027D800192A010E1626000E1722000E1822D8906C
:1027E800183217321632000E16141B6E000E17140C
:1027F8001C6EFF0E18141D6E1B501C101D10D8B433
:1028080006D0E6D71906D89016361736183617BEEA
:1028180003D0020E1960F6D719A0179ED890193266
:10282800195018121A50D8A4188E16C016F017C0CE
:1028380017F018C018F01200650EF66E610EF76EEC
:1028480020EE60F0100E0900F5CFDEFFE806FBE28F
:10285800540EF66E610EF76E20EE71F0100E090040
:10286800F5CFDEFFE806FBE2000E196E010E73ECF1
:1028780017F0600E196E000E1A6E0BEC19F0000EB0
:10288800196E020E73EC17F0710E196E000E1A6EA7
:102898000BEC19F03D0E1D6EE10E1C6E400EE82E7D
:1028A800FED71C2EFCD71D2EFAD7010EF7EC15F01B
:1028B800000E196E010E73EC17F0730E196E620E8E
:1028C8001A6E0BEC19F0000E196E020E73EC17F06D
:1028D800630E196E620E1A6E0BEC19F012000001ED
:1028E8008C6F00018C2900018D6F000E00018E6F26
:1028F80018D000018D51010D000EF324D96E010E80
:10290800F420DA6E00018E51010D7A0EF324E16E87
:10291800000EF420E26EDFCFE7FF00018E2B0001EE
:102928008D2B00018D51010D000EF324D96E010E7F
:10293800F420DA6E2C0EDE18D8A4DBD700018E2B1B
:1029480000018E51010D000EF324D96E010EF42002
:10295800DA6EDF500001DC6F7A0E0001746F000E32
:102968000001756F34EC1AF074C089F075C08AF0F4
:1029780076C08BF089C077F08AC078F08BC079F088
:10298800120000018C6F00018C2900018E6F000E6F
:1029980000018D6F18D000018E51010D000EF32437
:1029A800D96E010EF420DA6E00018D51010D7A0EF8
:1029B800F324E16E000EF420E26EDFCFE7FF0001A2
:1029C8008D2B00018E2B00018E51010D000EF3247A
:1029D800D96E010EF420DA6E2C0EDE18D8A4DBD7DF
:1029E80000018E2B00018E51010D000EF324D96ECB
:1029F800010EF420DA6EDF500001DD6F7A0E00015F
:102A0800746F000E0001756F34EC1AF074C089F011
:102A180075C08AF076C08BF089C077F08AC078F0EC
:102A28008BC079F012009594959295909598959A07
:102A3800959C959E839483928390839E839C838A9E
:102A48008388EA0E196EC30EE82EFED7192EFCD71E
:102A580000F083806DEC1AF083906DEC1AF04E0E46
:102A6800196EEB0EE82EFED7192EFCD700F08380E6
:102A78006DEC1AF083906DEC1AF04E0E196EEB0E99
:102A8800E82EFED7192EFCD700F083806DEC1AF0E3
:102A980083906DEC1AF0839E839C838A839883804D
:102AA8006DEC1AF083906DEC1AF0280EF7EC15F027
:102AB800060EF7EC15F00E0EF7EC15F0010EF7EC1C
:102AC80015F01200080EF66E360EF76E000EF86E50
:102AD80001EEF6F010EE0AF00900F5CFEEFFE55032
:102AE800E150FAE1E20EF66E350EF76E000EF86E62
:102AF80000EEE5F010EE0EF00900F5CFEEFFE55020
:102B0800E150FAE102EE76F012EE00F0EE6AE550DE
:102B1800E150FCE1E250FAE102EE00F0760EEE6AD6
:102B2800E806FDE101EE00F0D90EEE6AE806FDE1E7
:102B380000EEBCF0290EEE6AE806FDE100EE35F085
:102B4800150EEE6AE806FDE14A904A92000EF86E0C
:102B58000001D9EF19F018AE16D016C01CF017C036
:102B68001DF018C01EF01C1E1D1E1E1E1C2A000E65
:102B78001D221E22000E1C24166E000E1D20176E2C
:102B8800800E1E20186E1BAE16D019C01CF01AC07D
:102B98001DF01BC01EF01C1E1D1E1E1E1C2A000E32
:102BA8001D221E22000E1C24196E000E1D201A6EF6
:102BB800800E1E201B6E000E161A000E171A800EAD
:102BC800181A000E191A000E1A1A800E1B1A19501C
:102BD800165C1A5017581B501858D8B002D0D89005
:102BE8001200D8801200186E83948392839018A8DC
:102BF80002D0838801D0839818AA02D0838A01D092
:102C0800839A18AC02D0838C01D0839C18AE02D072
:102C1800838E01D0839E83806DEC1AF083906DECD7
:102C28001AF018A002D0838801D0839818A202D085
:102C3800838A01D0839A18A402D0838C01D0839C04
:102C480018A602D0838E01D0839E83806DEC1AF083
:102C580083906DEC1AF01804D8B408D0020E181836
:102C6800D8B404D0030E1818D8A412006DEC1AF0CA
:102C78001200000E216E1FAE06D01E6C1F1ED8B0AB
:102C88001F2A010E216E1DAE06D01C6C1D1ED8B069
:102C98001D2A010E211A000E236E000E226E1E50F0
:102CA8001F10D8B41CD0010E206E04D0D8901E3648
:102CB8001F36202A1FAEFAD7D890223623361E5048
:102CC8001C5C1F501D58D8A005D01E501C5E1F50FC
:102CD8001D5A2280D8901F321E32202EEDD7215047
:102CE800D8B404D0226C231ED8B0232A22C01CF0EA
:102CF80023C01DF01200000E276E000E286E000E75
:102D0800296E000E2A6E2350241025102610D8B4E0
:102D18002AD0010E2B6E06D0D890233624362536BD
:102D280026362B2A26AEF8D7D890273628362936C5
:102D38002A3623501F5C24502058255021582650ED
:102D48002258D8A009D023501F5E2450205A25505D
:102D5800215A2650225A2780D890263225322432EA
:102D680023322B2EE1D727C01FF028C020F029C01E
:102D780021F02AC022F01200000E0001736F16D055
:102D880000017351010D000EF324D96E010EF420D9
:102D9800DA6E00017351010D600EF324E16E000E2E
:102DA800F420E26EDFCFE7FF0001732B00017351BF
:102DB800010D000EF324D96E010EF420DA6E2C0EEC
:102DC800DE18D8A4DDD7600E226E000E236E1BEC31
:102DD80012F022C06FF023C070F024C071F025C03B
:102DE80072F06FC030F070C031F071C032F072C054
:102DF80033F01200000E276E8E0E266E21AE11D013
:102E0800211E201E1F1E1E6C000E1F2220222122A2
:102E1800010E276E06D0D890213220321F321E3282
:102E2800262A000E1E14226E000E1F14236E000E9A
:102E38002014246EFF0E2114256E22502310241016
:102E48002510D8A4E8D71EC016F01FC017F020C060
:102E580018F026C019F027C01AF0C9EC13F016C0F4
:102E68001EF017C01FF018C020F01200186E8394CF
:102E78008382839018A802D0838801D0839818AAE7
:102E880002D0838A01D0839A18AC02D0838C01D0F7
:102E9800839C18AE02D0838E01D0839E83806DEC14
:102EA8001AF083906DEC1AF018A002D0838801D034
:102EB800839818A202D0838A01D0839A18A402D0DA
:102EC800838C01D0839C18A602D0838E01D0839E68
:102ED80083806DEC1AF083906DEC1AF012001A6E74
:102EE800000E1B6E110E19602FD01ED019C01BF0DA
:102EF8001B50E3EC17F026D01950400F1B6E1B50E7
:102F0800E3EC17F01FD01950140F1B6E1B50E3ECA5
:102F180017F018D01950540F1B6E1B50E3EC17F024
:102F280011D0000E1B6E0ED01A50010AD8B4DED78D
:102F3800030AD8B4E1D7010AD8B4E5D7070AD8B448
:102F4800E9D7EFD7192A1200000E1B6E1200000EE7
:102F58001B6E17AE06D0166C171ED8B0172A010EB6
:102F68001B6E19AE04D0186C191ED8B0192A185047
:102F78001910D8B418D0010E1A6E04D0D89018368B
:102F880019361A2A19AEFAD71850165C195017585C
:102F9800D8A004D01850165E1950175AD890193274
:102FA80018321A2EF1D71B50D8B404D0166C171E3D
:102FB800D8B0172A16C016F017C017F01200186EEE
:102FC800839483928390838E18A802D0838801D03B
:102FD800839818AA02D0838A01D0839A18AC02D0A9
:102FE800838C01D0839C83806DEC1AF083906DEC08
:102FF8001AF018A002D0838801D0839818A202D0B2
:10300800838A01D0839A18A402D0838C01D0839C30
:1030180018A602D0838E01D0839E83806DEC1AF0AF
:1030280083906DEC1AF01200216E2128236E000E99
:10303800226E14D02350010D000EF324D96E020E17
:10304800F420DA6E2250010DDE0EF324E16E000E3C
:10305800F420E26EDFCFE7FF222A232A2350010D56
:10306800000EF324D96E020EF420DA6E2C0EDE1850
:10307800D8A4E0D7DE0E166E000E176EA0EC19F07D
:10308800DE0E1624D96E000E1720DA6E000EDF6EE3
:1030980012001A501B101C101D10D8B424D0010E99
:1030A8001E6E06D0D8901A361B361C361D361E2AC0
:1030B8001DAEF8D71A50165C1B5017581C501858DC
:1030C8001D501958D8A008D01A50165E1B50175A10
:1030D8001C50185A1D50195AD8901D321C321B32D8
:1030E8001A321E2EE7D716C016F017C017F018C0F0
:1030F80018F019C019F012001C6E09D0010E05D085
:10310800050E03D0090E01D00D0EC26E0DD01C5055
:10311800000AD8B4F3D7010AD8B4F2D7030AD8B44E
:10312800F1D7010AD8B4F0D7C282C2B2FED7C3CF52
:1031380018F0060E196ED8901832192EFCD71850B0
:10314800C4CF1AF01B6AD8901A361B36D8901A3694
:103158001B361A10166E1B50176E12008E0E266E36
:1031680006D0D890213220321F321E32262A000E75
:103178001E14226E000E1F14236E000E2014246EDF
:10318800FF0E2114256E2250231024102510D8A4D8
:10319800E8D71EC016F01FC017F020C018F026C0D0
:1031A80019F0000E1A6EC9EC13F016C01EF017C005
:1031B8001FF018C020F01200000E1E6E000E1F6EC9
:1031C800000E206E000E216E16A008D01A501E2682
:1031D8001B501F221C5020221D502122D8901A3625
:1031E8001B361C361D36D890193218321732163253
:1031F8001650171018101910D8A4E6D71EC016F0CC
:103208001FC017F020C018F021C019F0120014D008
:1032180019C0F6FF1AC0F7FFF86A070EF76403D063
:103228000800F55005D0F6CFE9FFF7CFEAFFEF50D9
:103238003AEC17F0194A1A2A19C0F6FF1AC0F7FF14
:10324800F86A070EF76403D00800F55005D0F6CFEA
:10325800E9FFF7CFEAFFEF500009D8B41200D8D73A
:1032680000017F510001801100018111D8B409D0FB
:10327800000E00017F1B000E0001801B800E000164
:10328800811B7CC070F07DC071F07EC072F07FC081
:1032980073F080C074F081C075F0E0EC08F070C085
:1032A8007CF071C07DF072C07EF01200000E82B01A
:1032B800010E0001BC6F000E82B2010E0001BD6F4D
:1032C800000E82B4010E0001BE6F000E80B4010E24
:1032D8000001BF6F000E80BA010E0001C06F000E22
:1032E80084B0010E0001C16F000E84B2010E00010E
:1032F800C26F1200176E000E166EF29E18D017BE1F
:1033080002D08A9E01D08A8E17501724176E780E25
:10331800E82EFED78A8C780EE82EFED78A9E780E85
:10332800E82EFED78A9C780EE82EFED7162A070EBE
:103338001664E5D7F28E120016C01AF017C01BF0FB
:1033480002D01A4A1B2A1AC0D9FF1BC0DAFFDF5065
:10335800D8A4F7D716C018F017C019F0181E191EF0
:10336800184A192A1A501824166E1B501920176E5D
:103378001200000E216E1FAE06D01E6C1F1ED8B0A4
:103388001F2A010E216E1EC016F01FC017F0186A02
:103398008E0E196E21C01AF0C9EC13F016C01EF07B
:1033A80017C01FF018C020F01200B8EC1AF07FEC1C
:1033B8001AF017EC15F00DEC1BF020EC14F021ECD2
:1033C8001AF04804D8A404D0000E486E70EC13F02C
:1033D8005AEC19F0FEEC1AF0B8EC0EF0F2D7000136
:1033E80066510001671100016811D8B409D0000EB8
:1033F8000001661B000E0001671B800E0001681BA0
:1034080066C066F067C067F068C068F0120016C052
:103418001CF017C01DF008D01CC0D9FF1DC0DAFF72
:1034280018C0DFFF1C4A1D2A1A06D8A01B061A2836
:10343800F3E11B28D8B41200EFD7760E0001CF6F46
:10344800160E0001D06F130E0001CC6F880ECB6FE3
:10345800130E0001C86F880EC76F000E476E12006A
:1034680074C069F075C06AF0000E00016B6F000E41
:1034780000016C6FADEC04F069C074F06AC075F0BF
:103488006BC076F01200186E010E176E200E181819
:10349800D8B408D00E0E186003D0090E186002D0F8
:1034A800000E176E17C016F01630120024502602B0
:1034B800F3CF28F0F4CF29F024502702F35029261F
:1034C80025502602F350292628C024F029C025F0CB
:1034D8001200000E166E630E166401D0120000F082
:1034E800000E176E310E176401D003D000F0172AB2
:1034F800F9D7162AF0D7949C949E800E246E250E38
:10350800256E000E266E000E276E22EC0EF0200EA1
:10351800AC6E900EAB6E1200186E000E176E3A0E5F
:10352800186005D02F0E186402D0010E176E17C050
:1035380016F016301200C30ED56E000E656E000E22
:10354800636E000E176E830E166ED6EC1AF012001C
:10355800010E936E8A68000E956E070E926E110E1C
:10356800946E030E966E120009EC1BF0ACEC1AF088
:103578009FEC1AF0F8EC1AF0CDEC1AF012008A9AC7
:10358800780EE82EFED78A8AF00EE82EFED78A9AA1
:103598001200F00EF26E000EF16E000EF06E200EAC
:1035A8009D6E120016C018F017C019F019C0D7FF89
:1035B80018C0D6FF120001C003F002C004F004C016
:1035C800D7FF03C0D6FF12009EAAFED7ABA203D036
:1035D800AB9800F0AB88AE5012003030303030304D
:1035E8000030303030303000040ECA6E000ECC6E21
:1035F800CB68120040507EEC19F0C3EC1AF01200B0
:10360800636865636B2E74787400D388D38AD38C0F
:0A36180012008A9A8A9C8A9E120012
:10602A0000809A90418E418F804545454949498E65
:10603A008F9092924F994F555559999A9B9C9D9E34
:10604A009F41494F55A5A5A6A7A8A9AAABAC21AEC1
:10605A00AFB0B1B2B3B4B5B6B7B8B9BABBBCBDBECE
:10606A00BFC0C1C2C3C4C5C6C7C8C9CACBCCCDCEBE
:10607A00CFD0D1D2D3D4D5D6D7D8D9DADBDCDDDEAE
:10608A00DFE0E1E2E3E4E5E6E7E8E9EAEBECEDEE9E
:10609A00EFF0F1F2F3F4F5F6F7F8F9FAFBFCFDFE8E
:1060AA00FF010000000A00000064000000E803008D
:1060BA000010270000A086010040420F0080969839
:1060CA000000E1F50500CA9A3B00803F002041002C
:1060DA00C842007A44401C4650C347247449971862
:1060EA004BBCBE4C6B6E4E03155079AD60F34971D3
:1060FA0000803FCDCC3DD7233C12833AB7D138C676
:10610A002737388635C0D633CC2B32708930E7DB57
:10611A002EE53C1E42A20D2049676E204F6E0000FC
:10612A0000000000000000002049676E20437261F1
:10613A006E6B000000000000002049676E204F6669
:10614A00660000000000000000002031382F3031C6
:10615A002F32303232202020000000534443617233
:10616A006420496E697420202000000053504920A1
:10617A00636F6E6669677572616461210073797312
:10618A007420696E696369616C697A656400616229
:10619A00726972206F206172717569766F006D6F16
:1061AA00756E742066696C65207379730042797420
:1061BA0065732063726961646F210043617274E3DD
:1061CA006F2041636569746F004572726F20746550
:1061DA006E74616E646F00417474656D7074696E7B
:1061EA006720746F006C6572206F20617271756927
:1061FA00766F006C656E646F206172717569766F77
:10620A0000426C6F636F206465203531320053445D
:10621A0043617264206572726F7200636865636BB2
:10622A002E747874004572726F72212121002564E0
:10623A003A25643A256400496E6974204F4B00532D
:10624A00445F4361726400486F72613A004461744A
:10625A00613A00252E303766004C4F4E473A004CC3
:10626A006F6E3A004C61743A004C41543A000D0A80
:05627A00002E2E0000C3
:020000040020DA
:08000000FFFFFFFFFFFFFFFF00
:020000040030CA
:0E000000040C1F1EFF8081FF0FC00FE00F4099
:00000001FF
