:0400000007EF00F016
:1000080046826AED1DF026EF24F0D1C0BAF1D2C0C5
:10001800BBF1D5C0D9FFD6C0DAFF000EDE6E000EE8
:10002800DD6ECFC0D9FFD0C0DAFFDECF28F0DDCF3C
:1000380029F0000120EE02F0CF51D926D051DA2262
:10004800DECF2AF0DDCF2BF081EC26F00101B96F6D
:10005800B951D8B402D0B9511200000120EE04F011
:10006800CF51D926D051DA22DFAE02D0020E1200CB
:1000780020EE04F0CF51D926D051DA22DFB202D0D7
:10008800070E120020EE0AF0CF51D926D051DA22FD
:1000980010EE0AF0CF51E126D051E222E6CFADF1C1
:1000A800E6CFAEF1E6CFAFF1E6CFB0F1D351010123
:1000B800AD25B16F0001D4510101AE21B26F000E20
:1000C800AF21B36F000EB021B46FDE50B15DDE50CA
:1000D800B259DE50B359DE50B459D8B079D3000EB6
:1000E8000001D46F000ED36F73D320EE06F0CF510A
:1000F800D926D051DA22FF0EDE140101A96F010EB4
:10010800DE14AA6F000EDE14AB6F000EDE14AC6FA7
:10011800A951AA11AB11AC11D8A4A8D2000120EEA4
:1001280006F0CF51D926D051DA22DECFA9F1DECFA1
:10013800AAF1DECFABF1DECFACF10A0E06D0010199
:10014800D890AC33AB33AA33A933E82EF8D7CFC055
:10015800D9FFD0C0DAFF10EE02F0DE50E126DD5004
:10016800E222E750AD6FAD05A915BC6FBC51D8A40C
:10017800A9D0000120EE06F0CF51D926D051DA22BD
:10018800DE50DE10DE10DE10D8A440D020EE0EF0D7
:10019800CF51D926D051DA22DECFBFF1DECFC0F160
:1001A800DECFC1F1DECFC2F10101BF51C011C111D3
:1001B800C211D8A44BD0CFC0D9FFD0C0DAFFDECF50
:1001C800B9F0DDCFBAF0000E0001BB6F000EBC6FB6
:1001D800000EBD6F000EBE6F57EC12F0B9C0BFF134
:1001E800BAC0C0F1BBC0C1F1BCC0C2F1000120EE71
:1001F8000EF0CF51D926D051DA22BFC1DEFFC0C1DF
:10020800DEFFC1C1DEFFC2C1DEFF20D0CFC0D9FFF3
:10021800D0C0DAFFDECFB9F0DDCFBAF020EE12F0B1
:10022800CF51D926D051DA22DECFBBF0DECFBCF0D9
:10023800DECFBDF0DECFBEF057EC12F0B9C0BFF193
:10024800BAC0C0F1BBC0C1F1BCC0C2F10101BF510D
:10025800C011C111C211D8B4C0D2BF05C011C1119B
:10026800C211D8A40BD0000120EE04F0CF51D9263A
:10027800D051DA22000EDB8E020E12000101BF29D6
:1002880012E1C02910E1C1290EE1C229D8A40BD07E
:10029800000120EE04F0CF51D926D051DA22000E09
:1002A800DB8E010E1200000120EE12F0CF51D9268C
:1002B800D051DA22BFC1DEFFC0C1DEFFC1C1DEFFFF
:1002C800C2C1DEFF000120EE16F0CF51D926D05171
:1002D800DA22CFC0E1FFD0C0E2FF00EE2AF0E650FC
:1002E800E926E550EA22DE50EE182AE1DE50EE1843
:1002F80027E1DE50EE1824E1DE50EE18D8A420D015
:10030800CFC0D9FFD0C0DAFFDECF71F0DDCF72F0F9
:10031800000E736F000E746F000E756F000E766F0F
:1003280069EC16F00009D8B40BD0000120EE04F0F7
:10033800CF51D926D051DA22000EDB8E010E1200E1
:10034800CFC0D9FFD0C0DAFFDECF26F0DDCF27F04F
:10035800000120EE12F0CF51D926D051DA22DECF9B
:1003680028F0DECF29F0DECF2AF0DECF2BF066ECC6
:1003780020F026C0C3F127C0C4F128C0C5F129C0A8
:10038800C6F10101C351C411C511C611D8A40BD0BF
:10039800000120EE04F0CF51D926D051DA22000E08
:1003A800DB8E020E12000101BC51C327000EC423CC
:1003B800C523C623D3C0A9F1D4C0AAF1090EAB6FD7
:1003C800D890AA33A933AB2FFBD7A9C1BDF1AAC1D5
:1003D800BEF1BD51BE11D8B4F1D0BC51BD25A96F35
:1003E800000EBE21AA6FCFC0D9FFD0C0DAFF10EE31
:1003F80002F0DE50E126DD50E222E750AB6FAC6B35
:10040800A951AB5DAA51AC59D8B019D0BC51A96F4C
:10041800AA6BA91FAA1FA94BAA2BCFC0D9FFD0C06E
:10042800DAFF10EE02F0DE50E126DD50E222E7505E
:10043800AB6FAB51A925BD6F000EAA21BE6FBAC123
:1004480065F0BBC166F0C3C167F0C4C168F0C5C13F
:1004580069F0C6C16AF0BDC16BF0CFC0D9FFD0C08A
:10046800DAFF10EE01F0DE50E126DD50E222E7501F
:10047800FCEC26F00009D8B40BD0000120EE04F003
:10048800CF51D926D051DA22000EDB8E010E120090
:100498000101BD51A96FBE51AA6FAB6BAC6BCFC048
:1004A800D9FFD0C0DAFF10EE2AF0DE50E126DD5089
:1004B800E222E6CFADF1E6CFAEF1E6CFAFF1E6CF7F
:1004C800B0F1C3C1B1F1C4C1B2F1C5C1B3F1C6C184
:1004D800B4F1B11FB21FB31FB41FB12B000EB2236A
:1004E800B323B423AD51B125B56FAE51B221B66F68
:1004F800AF51B321B76FB051B421B86FA951B55DF1
:10050800AA51B659AB51B759AC51B859D8B046D021
:10051800CFC0D9FFD0C0DAFFDECFA9F1DDCFAAF175
:100528002E0EA9251A6E000EAA211B6ECFC0D9FF68
:10053800D0C0DAFF10EE2AF0DE50E126DD50E222CC
:10054800E6CFABF1E5CFACF1C3C1ADF1C4C1AEF1BB
:10055800AD1FAE1FAD4BAE2BAB51AD27AC51AE238B
:10056800090ED890AD37AE37E82EFBD7AD51BA2576
:100578001C6EAE51BB211D6E020E1F6E000E1E6E4C
:1005880000EC26F0CFC0D9FFD0C0DAFF10EE04F09F
:10059800DE50E126DD50E222000EE76EBDC1A9F172
:1005A800BEC1AAF1090ED8900101A937AA37E82ED1
:1005B800FAD7A9C1C7F1AAC1C8F1E7D0000120EE56
:1005C8000AF0CF51D926D051DA2210EE06F0CF51D9
:1005D800E126D051E222DE50E65CDE50E658DE50DD
:1005E800E658DE50E658D8A032D0CFC0D9FFD0C0E8
:1005F800DAFFDECF71F0DDCF72F0000E736F000E00
:10060800746F000E756F000E766F69EC16F00009B6
:10061800D8B40BD0000120EE04F0CF51D926D05128
:10062800DA22000EDB8E010E1200CFC0D9FFD0C037
:10063800DAFF10EE2AF0DE50E126DD50E222C3C1D7
:10064800E6FFC4C1E6FFC5C1E6FFC6C1E6FF00017B
:1006580020EE16F0CF51D926D051DA22C3C1DEFFE1
:10066800C4C1DEFFC5C1DEFFC6C1DEFFFF0E01014A
:10067800A96F010EAA6F000120EE06F0CF51D9260E
:10068800D051DA22DECFABF1DDCFACF10101A951B7
:10069800AB17AA51AC17AB1FAC1FAB4BAC2B000E62
:1006A800AB25C76F020EAC21C86FC7510001D35DDF
:1006B8000101C8510001D459D8B004D0D3C0C7F142
:1006C800D4C0C8F1CFC0D9FFD0C0DAFFDECF71F0F7
:1006D800DDCF72F020EE16F0CF51D926D051DA22B4
:1006E800DECF73F0DECF74F0DECF75F0DECF76F0BC
:1006F80069EC16F00009D8B40BD0000120EE04F024
:10070800CF51D926D051DA22000EDB8E010E12000D
:10071800FF0E0101A96F010EAA6F000120EE06F07D
:10072800CF51D926D051DA22DECFABF1DDCFACF1F3
:100738000101A951AB17AA51AC172E0EAB27000E19
:10074800AC23CFC0D9FFD0C0DAFFDECFADF1DDCF0B
:10075800AEF1AB51AD251A6EAC51AE211B6EBAC1CC
:100768001CF0BBC11DF0C7C11EF0C8C11FF000ECD2
:1007780026F0CFC0D9FFD0C0DAFF10EE04F0DE506B
:10078800E126DD50E222010EE76E0101C751BA27CA
:10079800C851BB23000120EE06F0CF51D926D05115
:1007A800DA220101C751DE26C851DE22000EDE2200
:1007B800DE22D5C0D9FFD6C0DAFFC751DE26C85120
:1007C800DD22C7510001D35F0101C8510001D45B8C
:1007D8000001D351D411D8A488D4000120EE06F02A
:1007E800CF51D926D051DA2210EE0AF0CF51E126A6
:1007F800D051E222DE50E65CDE50E658DE50E65884
:10080800DE50E658D8B014D020EE06F0CF51D926E5
:10081800D051DA2210EE0AF0CF51E126D051E2226F
:10082800DECFE6FFDECFE6FFDECFE6FFDECFE6FF78
:1008380020EE04F0CF51D926D051DA22000EDB8AFF
:10084800000E12008F0E00019E6F000E9F6FF7D3EF
:10085800250EB119D8B409D08BC0D9FF8CC0DAFFE6
:10086800B1C0DFFF8B4B8C2BEAD3000EA16F000EBB
:10087800A06F8DC0F6FF8EC0F7FF0800F5502E0A56
:10088800D8A42FD0A18D8D4B8E2B000EAD6F000EEE
:10089800AC6F1CD0ACC028F0ADC029F0000E2B6E98
:1008A8000A0E2A6EA7EC28F08DC0F6FF8EC0F7FF5F
:1008B8000800F5502826000E2922D00E2824000111
:1008C800AC6FFF0E2920AD6F8D4B8E2B8DC0F6FFC0
:1008D8008EC0F7FF0800F55003EC29F0D8A00AD025
:1008E800D9D7000E0001AD6F000EAC6FA18902D000
:1008F800A18517D08DC0F6FF8EC0F7FF00018D4B84
:100908008E2B0800F5CFB1F0B151000AD8B4A4D3AA
:10091800640AD8B406D0020AD8B4EAD70F0AD8A411
:100928008ED3070EA115D8B4C8D2A1A904D0000E41
:10093800AD6F060EAC6F9EC0D9FF9FC0DAFFDECF49
:10094800AEF0DECFAFF0DDCFB0F0030E9E27000E85
:100958009F23B0AF11D0AEC06FF0AFC070F0B0C081
:1009680071F0BAEC28F06FC0AEF070C0AFF071C093
:10097800B0F0030E0001A013000EA36F000EA26FCB
:10098800AE51AF11B011D8B486D0820E956FFF0E5C
:10099800966FAEC097F0AFC098F0B0C099F0B1C0F4
:1009A8009AF0100E05D0D8909A339933983397332C
:1009B800E82EF9D797519525A26F000E9621A36FBF
:1009C800A207D8A0A307A2C028F0A3C029F0000E50
:1009D8002B6E030E2A6EA7EC28F028C0A2F029C0BF
:1009E800A3F0A2C020F0A3C021F0000E236E0A0ECF
:1009F800226E2CEC23F020C0A2F021C0A3F000014D
:100A0800A3AF03D0A207D8A0A307A2510008C1EC46
:100A18000CF06FC0A4F070C0A5F071C0A6F0A4C01F
:100A280060F0A5C061F0A6C062F0AEC063F0AFC0D0
:100A380064F0B0C065F077EC1FF060C0A4F061C04E
:100A4800A5F062C0A6F0A4C01AF0A5C01BF0A6C00D
:100A58001CF0000E1D6E800E1E6E3F0E1F6E12ECF7
:100A680022F0D8B005D00001A207D8A0A30713D060
:100A7800A4C01AF0A5C01BF0A6C01CF0000E1D6E85
:100A8800200E1E6E410E1F6E12EC22F0D8A003D06D
:100A98000001A24BA32B0001ADBF06D0AD511BE155
:100AA8000D0EAC5DD8B017D0AEC079F0AFC07AF0FB
:100AB800B0C07BF0AC513AEC15F06FC07CF070C060
:100AC8007DF071C07EF035EC18F079C0AEF07AC0D8
:100AD800AFF07BC0B0F00001A3BF06D0A3511FE167
:100AE8000A0EA25DD8B01BD0AE51AF11B011D8B468
:100AF80055D0AEC076F0AFC077F0B0C078F0FBEC60
:100B08001EF000017651771178117911D8B4A3BF7E
:100B180045D0A35104E1020EA25DD8A03FD0A4C0E5
:100B28001AF0A5C01BF0A6C01CF0700E1D6E890E31
:100B38001E6E400E1F6E12EC22F0D8B003D00001DA
:100B4800F70E02D00001F80EA227FF0EA323A25130
:100B5800C1EC0CF06FC0A4F070C0A5F071C0A6F095
:100B6800AEC01AF0AFC01BF0B0C01CF0A4C01DF09E
:100B7800A5C01EF0A6C01FF0A8EC1BF01AC0A8F074
:100B88001BC0A9F01CC0AAF01DC0ABF0000E0001EC
:100B9800AE6F000EAF6F000EB06F33D0AEC076F000
:100BA800AFC077F0B0C078F0FBEC1EF076C0A8F0CC
:100BB80077C0A9F078C0AAF079C0ABF0AEC085F0D4
:100BC800AFC086F0B0C087F0A8C022F0A9C023F05B
:100BD800AAC024F0ABC025F0A4EC25F022C088F010
:100BE80023C089F024C08AF06FEC27F085C0AEF0EE
:100BF80086C0AFF087C0B0F0000E0001A36F000EF2
:100C0800A26F010EB16F0A0EB119D8B418D0B15144
:100C1800040DF50EF324F66E600EF420F76E09004D
:100C2800F550A85D0900F550A9590900F550AA59D1
:100C38000900F550AB59D8A002D0B12BE4D7030E68
:100C4800A015956F000EA115966F95519611D8B401
:100C580050D08BC0D9FF8CC0DAFF2D0E47D0A8C06A
:100C680023F0A9C024F0AAC025F0ABC026F0B151EA
:100C7800040DF50EF324F66E600EF420F76E0900ED
:100C8800F5CF27F00900F5CF28F00900F5CF29F0B6
:100C98000A00F5CF2AF06EEC23F023C0A4F024C09C
:100CA800A5F025C0A6F026C0A7F0A4C01AF0A5C0DC
:100CB8001BF0A6C01CF0A7C01DF00A0E1E6E000E89
:100CC8001F6E000E206E000E216E71EC25F01AC00A
:100CD800A4F01BC0A5F01CC0A6F01DC0A7F0000121
:100CE800A451300F8BC0D9FF8CC0DAFFDF6E8B4B5D
:100CF8008C2BB107B129D8B40CD0B1D78BC0D9FF90
:100D08008CC0DAFF300EDF6E8B4B8C2BA207D8A07D
:100D1800A307A3BF05D0A351F1E1A205D8B0EED730
:100D2800ADBF09D0AD5104E1090EAC5DD8A003D028
:100D3800080EB16F02D0ACC0B1F0B151AC5F000E7B
:100D4800B1BFFF0EAD5BB151D8B408D08BC0D9FF8D
:100D58008CC0DAFF2E0EDF6E8B4B8C2BB151C1ECA1
:100D68000CF06FC09BF070C09CF071C09DF0AEC0DD
:100D780063F0AFC064F0B0C065F09BC060F09CC089
:100D880061F09DC062F077EC1FF060C076F061C042
:100D980077F062C078F0FBEC1EF076C0A8F077C060
:100DA800A9F078C0AAF079C0ABF071D0A8C023F040
:100DB800A9C024F0AAC025F0ABC026F00001B151AB
:100DC800040DF50EF324F66E600EF420F76E09009C
:100DD800F5CF27F00900F5CF28F00900F5CF29F065
:100DE8000A00F5CF2AF06EEC23F023C0A4F024C04B
:100DF800A5F025C0A6F026C0A7F0A4C01AF0A5C08B
:100E08001BF0A6C01CF0A7C01DF00A0E1E6E000E37
:100E18001F6E000E206E000E216E71EC25F01AC0B8
:100E2800A4F01BC0A5F01CC0A6F01DC0A7F00001CF
:100E3800A451300F8BC0D9FF8CC0DAFFDF6E8B4B0B
:100E48008C2BA8C01AF0A9C01BF0AAC01CF0ABC01C
:100E58001DF0B151040DF50EF324F66E600EF4206A
:100E6800F76E0900F5CF1EF00900F5CF1FF0090055
:100E7800F5CF20F00A00F5CF21F071EC25F01AC06B
:100E8800A8F01BC0A9F01CC0AAF01DC0ABF000015F
:100E9800B107B129D8B40CD089D78BC0D9FF8CC081
:100EA800DAFF300EDF6E8B4B8C2BAC07D8A0AD076A
:100EB800AC51AD11D8B4C3D0F0D79EC0D9FF9FC0F4
:100EC800DAFFDECFA8F0DDCFA9F0000EA9BFFF0E34
:100ED800AA6FAB6F020E9E27000E9F23ABAF0AD0FE
:100EE800030EA013AB1FAA1FA91FA86D000EA923EC
:100EF800AA23AB23AC51AD11D8A408D0A851A9118D
:100F0800AA11AB11D8A402D0AC4BAD2B010EB16F16
:100F18000A0EB119D8B418D0B151040DF50EF32446
:100F2800F66E600EF420F76E0900F550A85D090012
:100F3800F550A9590900F550AA590900F550AB59BF
:100F4800D8A002D0B12BE4D7800EB1BF7F0E956F29
:100F5800AC51B15DAD51800A9559D8B003D0ACC041
:100F6800B1F010D0AD51800A956FB151AC5D800ED3
:100F7800B1BF7F0E9559D8B005D0B151AC6FAD6BEC
:100F8800ACBFAD07030EA015956F000EA115966FA7
:100F980095519611D8B44BD08BC0D9FF8CC0DAFFCD
:100FA8002D0EDF6E42D0ACC095F0ADC096F0D89053
:100FB80095379637D89095379637F50E9525F66E6E
:100FC800600E9621F76E0900F5CF27F00900F5CFDE
:100FD80028F00900F5CF29F00A00F5CF2AF0A8C0BB
:100FE80023F0A9C024F0AAC025F0ABC026F06EEC0F
:100FF80023F023C01AF024C01BF025C01CF026C023
:101008001DF00A0E1E6E000E1F6E000E206E000EE2
:10101800216E71EC25F01A50300F0001B16F8BC0B2
:10102800D9FF8CC0DAFFB1C0DFFF8B4B8C2BAC072C
:10103800D8A0AD07AC29B7E1AD29D8A4B4D78DC0E5
:10104800F6FF8EC0F7FF8D4B8E2B0800F5CFB1F061
:10105800B151D8A42CEF04F08BC0D9FF8CC0DAFFB3
:10106800000EDF6E120000018D518C118B1104E10E
:10107800020E8A5DD8A010D020EE16F08851D9262D
:101088008951DA22DE508A5DDE508B59DE508C5948
:10109800DE508D59D8A03FD2020EB66F53D28AC007
:1010A800B4F08BC0B5F0D890B531936FB431926F6E
:1010B8009251B4279351B52388C071F089C072F05A
:1010C80020EE1EF08851D9268951DA22DECF92F01F
:1010D800DECF93F0DECF94F0DECF95F0B4C096F07B
:1010E800B5C097F0090E986FD89097339633982F1C
:1010F800FBD796519225736F97519321746F000E09
:101108009421756F000E9521766F69EC16F0000139
:10111800B66FB651D8A40ED2FF0E926F010E936F20
:10112800B4C094F0B5C095F09251941793519517A7
:101138002E0E9427000E952394518825B76F95514C
:101148008921B86F8AB104D08EC0B0F0B16B1AD0C3
:101158008E51926F936B923B933BF00E9317925183
:101168000F0B9313F00E9217B7C0D9FFB8C0DAFF70
:10117800DF500F0B946F956B92519411B06F935190
:101188009511B16FB7C0D9FFB8C0DAFFB0C0DFFFA3
:10119800B44BB52B20EE04F08851D9268951DA22B8
:1011A800010EDF6E88C071F089C072F020EE1EF06B
:1011B8008851D9268951DA22DECF92F0DECF93F01A
:1011C800DECF94F0DECF95F0B4C096F0B5C097F0BE
:1011D800090E986FD89097339633982FFBD796516E
:1011E8009225736F97519321746F000E9421756F38
:1011F800000E9521766F69EC16F00001B66FB651B6
:10120800D8A498D1FF0E926F010E936FB4C094F0DA
:10121800B5C095F092519417935195172E0E9427B7
:10122800000E952394518825B76F95518921B86F81
:101238008AB11BD08EC092F08FC093F090C094F00A
:1012480091C095F093C092F094C093F095C094F03B
:10125800956B0F0E9217B7C0D9FFB8C0DAFFDF50F1
:10126800F00B9211966F965112D08EC092F08FC0EB
:1012780093F090C094F091C095F0050E05D0D890E9
:101288009533943393339233E82EF9D79251B26F52
:10129800B36BB7C0D9FFB8C0DAFFB2C0DFFF4AD11D
:1012A80088C071F089C072F020EE1EF08851D926EE
:1012B8008951DA22DECF92F0DECF93F0DECF94F0C0
:1012C800DECF95F08AC096F08BC097F08CC098F06E
:1012D8008DC099F097C096F098C097F099C098F093
:1012E800996B92519625736F93519721746F94510E
:1012F8009821756F95519921766F69EC16F0000168
:10130800B66FB651D8A416D1FF0E926F010E936F27
:101318008AC094F08BC095F0D89094379537925145
:101328009417935195172E0E9427000E95239451D8
:101338008825B76F95518921B86FB7C0D9FFB8C054
:10134800DAFF8EC0DFFF20EE01F0B751D926B85181
:10135800DA228F51DF6EEED088C071F089C072F04A
:1013680020EE1EF08851D9268951DA22DECF92F07C
:10137800DECF93F0DECF94F0DECF95F08AC096F002
:101388008BC097F08CC098F08DC099F0080E05D0EE
:10139800D8909933983397339633E82EF9D79251EA
:1013A8009625736F93519721746F94519821756F97
:1013B80095519921766F69EC16F00001B66FB65118
:1013C800D8A4B8D0FF0E926F010E936F8AC094F024
:1013D8008BC095F0D89094379537D8909437953737
:1013E80092519417935195172E0E9427000E95231A
:1013F80094518825B76F95518921B86F20EE01F077
:10140800B751D926B851DA22DF50926F9251946FB2
:10141800936B20EE02F0B751D926B851DA22DF508B
:10142800956F95C096F0976B986B996B97C099F0EC
:1014380096C098F0976B966B20EE03F0B751D926BB
:10144800B851DA22DF509A6F9AC09BF09C6B9D6B63
:101458009E6B9BC09EF09D6B9C6B9B6B96519B11EA
:101468009F6F97519C11A06F98519D11A16F995131
:101478009E11A26F93519F11A36F9451A011A46F55
:10148800000EA111A56F000EA211A66FB7C0D9FF5B
:10149800B8C0DAFFDF50A76FA751A311A86FA451F6
:1014A800A96FA551AA6FA651AB6F000EA815AC6F16
:1014B800000EA915AD6F000EAA15AE6FF00EAB1594
:1014C800AF6FAC518E13AD518F13AE519013AF5116
:1014D8009113B7C0D9FFB8C0DAFF8EC0DFFF20EE86
:1014E80001F0B751D926B851DA228F51DF6E20EEBC
:1014F80002F0B751D926B851DA2290C0DFFF20EEAA
:1015080003F0B751D926B851DA2291C0DFFF12D0C3
:10151800020EB66F0FD088C0D9FF89C0DAFFDF503E
:10152800010AD8B4BCD5030AD8B4BAD6010AD8B4CB
:1015380013D7EED720EE04F08851D9268951DA2244
:10154800010EDF6EB651120000018D518C118B1106
:1015580004E1020E8A5DD8A010D020EE16F0885162
:10156800D9268951DA22DE508A5DDE508B59DE5049
:101578008C59DE508D59D8A0ECD1010E886F000E21
:10158800896F000E8A6F000E8B6F12008AC0ACF054
:101598008BC0ADF0D890AD318F6FAC318E6F8E515E
:1015A800AC278F51AD2388C071F089C072F020EE4E
:1015B8001EF08851D9268951DA22DECF8EF0DECF8F
:1015C8008FF0DECF90F0DECF91F0ACC092F0ADC0DE
:1015D80093F0090E946FD89093339233942FFBD7DE
:1015E80092518E25736F93518F21746F000E902145
:1015F800756F000E9121766F69EC16F00009D8A47A
:10160800B6D1FF0E00018E6F010E8F6FACC090F047
:10161800ADC091F08E5190178F5191172E0E9027D3
:10162800000E912390518825D96E91518921DA6E47
:10163800DF50926F9251AA6FAB6BAC4BAD2B88C049
:1016480071F089C072F020EE1EF08851D9268951B8
:10165800DA22DECF8EF0DECF8FF0DECF90F0DECF55
:1016680091F0ACC092F0ADC093F0090E946FD89091
:1016780093339233942FFBD792518E25736F9351E6
:101688008F21746F000E9021756F000E9121766F77
:1016980069EC16F00009D8A46AD1FF0E00018E6F1C
:1016A800010E8F6FACC090F0ADC091F08E519017C5
:1016B8008F5191172E0E9027000E91239051882557
:1016C800D96E91518921DA6EDF50926F9251946FE1
:1016D800936B9351AA139451AB138AB107D0FF0EA1
:1016E800AA15A86F0F0EAB15A96F0FD0AAC08EF060
:1016F800ABC08FF0040E906FD8908F338E33902F3D
:10170800FBD78EC0A8F08FC0A9F0A8C088F0A9C0E8
:1017180089F08A6B8B6B120088C071F089C072F0F7
:1017280020EE1EF08851D9268951DA22DECF8EF0BC
:10173800DECF8FF0DECF90F0DECF91F08AC092F04E
:101748008BC093F08CC094F08DC095F093C092F04C
:1017580094C093F095C094F0956B8E519225736F59
:101768008F519321746F90519421756F91519521E8
:10177800766F69EC16F00009D8A4F9D0FF0E0001C5
:101788008E6F010E8F6F8AC090F08BC091F0D89049
:10179800903791378E5190178F5191172E0E9027B1
:1017A800000E912390518825AE6F91518921AF6F1A
:1017B80020EE01F0AE51D926AF51DA22DF508E6FFC
:1017C8008E51906F8F6BAEC0D9FFAFC0DAFFDF507C
:1017D800916F91518F13000E90138FC088F090C0B5
:1017E80089F08A6B8B6B120088C071F089C072F027
:1017F80020EE1EF08851D9268951DA22DECF8EF0EC
:10180800DECF8FF0DECF90F0DECF91F08AC092F07D
:101818008BC093F08CC094F08DC095F0080E05D065
:10182800D8909533943393339233E82EF9D78E5169
:101838009225736F8F519321746F90519421756F16
:1018480091519521766F69EC16F00009D8A48FD0D4
:10185800FF0E00018E6F010E8F6F8AC090F08BC053
:1018680091F0D89090379137D890903791378E5122
:1018780090178F5191172E0E9027000E912390519B
:101888008825AE6F91518921AF6F20EE01F0AE51DE
:10189800D926AF51DA22DF508E6F8E51906F8F6B41
:1018A80020EE02F0AE51D926AF51DA22DF50916F07
:1018B80091C092F0936B946B956B93C095F092C026
:1018C80094F0936B926B20EE03F0AE51D926AF5192
:1018D800DA22DF50966F96C097F0986B996B9A6BE7
:1018E80097C09AF0996B986B976B925197119B6F71
:1018F800935198119C6F945199119D6F95519A111C
:101908009E6F8F519B119F6F90519C11A06F000E7D
:101918009D11A16F000E9E11A26FAEC0D9FFAFC07E
:10192800DAFFDF50A36FA3519F11A46FA051A56FD9
:10193800A151A66FA251A76FFF0EA415886FFF0EC5
:10194800A515896FFF0EA6158A6F0F0EA7158B6F49
:10195800120088C0D9FF89C0DAFFDF50010AD8B465
:1019680015D6030AD8B4D8D6010AD8B43DD7000191
:10197800886989698A698B6912000001756F00019D
:1019880075AF06D1756D7551800A120FD8A093D026
:10199800000E2B6E030E2A6E000E236E0A0E226EA8
:1019A800000E1D6E640E1C6E75511A6E1B6A1ABEEF
:1019B8001B0698EC24F01AC020F01BC021F02CEC78
:1019C80023F0090E2024286E000E2120296EA7EC92
:1019D80028F0440E2824F66E610E2920F76E0900BF
:1019E800F5CF63F00900F5CF64F00A00F5CF65F094
:1019F800000E236E640E226E00017551206E216A5E
:101A080020BE21062CEC23F0120E2024286E000E96
:101A18002120296E000E2B6E030E2A6EA7EC28F0EB
:101A2800440E2824F66E610E2920F76E0900F5CFC2
:101A380060F00900F5CF61F00A00F5CF62F077ECAD
:101A48001FF060C072F061C073F062C074F072C0C1
:101A580060F073C061F074C062F0000E2B6E030E6C
:101A68002A6E000E1D6E0A0E1C6E000175511A6E4C
:101A78001B6A1ABE1B0698EC24F01AC028F01BC07B
:101A880029F0A7EC28F0440E2824F66E610E2920D0
:101A9800F76E0900F5CF63F00900F5CF64F00A008E
:101AA800F5CF65F077EC1FF060C06FF061C070F0A3
:101AB80062C071F0120000017551800A750FD8A03C
:101AC80054D0000E236E0A0E226E7551206E216AC4
:101AD80020BE21062CEC23F0090E2024286E000ECF
:101AE8002120296E000E2B6E030E2A6EA7EC28F01B
:101AF800440E2824F66E610E2920F76E0900F5CFF2
:101B080060F00900F5CF61F00A00F5CF62F0000E31
:101B18002B6E030E2A6E000E1D6E0A0E1C6E00013F
:101B280075511A6E1B6A1ABE1B0698EC24F01AC06F
:101B380028F01BC029F0A7EC28F0440E2824F66EE4
:101B4800610E2920F76E0900F5CF63F00900F5CF83
:101B580064F00A00F5CF65F077EC1FF060C06FF015
:101B680061C070F062C071F0120000017551030D80
:101B7800440EF324F66E610EF420F76E0900F5CFDB
:101B88006FF00900F5CF70F00A00F5CF71F0120080
:101B98007551800A120FD8A093D0000E2B6E030E39
:101BA8002A6E000E236E0A0E226E000E1D6E640E43
:101BB8001C6E75511A6E1B6A1ABE1B0698EC24F02F
:101BC8001AC020F01BC021F02CEC23F0090E2024B1
:101BD800286E000E2120296EA7EC28F01D0E28245F
:101BE800F66E610E2920F76E0900F5CF63F0090043
:101BF800F5CF64F00A00F5CF65F0000E236E640E91
:101C0800226E00017551206E216A20BE21062CEC3F
:101C180023F0120E2024286E000E2120296E000EBB
:101C28002B6E030E2A6EA7EC28F01D0E2824F66EE4
:101C3800610E2920F76E0900F5CF60F00900F5CF95
:101C480061F00A00F5CF62F077EC1FF060C072F027
:101C580061C073F062C074F072C060F073C061F06C
:101C680074C062F0000E2B6E030E2A6E000E1D6EFD
:101C78000A0E1C6E000175511A6E1B6A1ABE1B06ED
:101C880098EC24F01AC028F01BC029F0A7EC28F023
:101C98001D0E2824F66E610E2920F76E0900F5CF77
:101CA80063F00900F5CF64F00A00F5CF65F077EC32
:101CB8001FF060C06FF061C070F062C071F0120078
:101CC80000017551800A750FD8A054D0000E236EFC
:101CD8000A0E226E7551206E216A20BE21062CEC58
:101CE80023F0090E2024286E000E2120296E000EF4
:101CF8002B6E030E2A6EA7EC28F01D0E2824F66E14
:101D0800610E2920F76E0900F5CF60F00900F5CFC4
:101D180061F00A00F5CF62F0000E2B6E030E2A6EFA
:101D2800000E1D6E0A0E1C6E000175511A6E1B6A9C
:101D38001ABE1B0698EC24F01AC028F01BC029F024
:101D4800A7EC28F01D0E2824F66E610E2920F76EE8
:101D58000900F5CF63F00900F5CF64F00A00F5CF6C
:101D680065F077EC1FF060C06FF061C070F062C082
:101D780071F0120000017551030D1D0EF324F66E6B
:101D8800610EF420F76E0900F5CF6FF00900F5CF6A
:101D980070F00A00F5CF71F012000001745175114E
:101DA800D8B40CD074C0D9FF75C0DAFF72C0DEFF9A
:101DB80073C0DDFF03D00001724B732B72C0D9FFD3
:101DC80073C0DAFFDF50776F775194EC28F0D8B002
:101DD800F2D7000E0001786F2D0E7719D8A403D022
:101DE800010E786F04D02B0E7719D8A402D0724B4D
:101DF800732B000E776F000E7A6F000E7B6F000E4C
:101E08007C6F000E7D6F000E796F78B90AD072C0B2
:101E1800D9FF73C0DAFF2E0EDE18D8A402D0788955
:101E28003ED072C0D9FF73C0DAFFDF5003EC29F04F
:101E3800D8A038D000017883080E7719D8B42DD0EF
:101E480078B97907772B7AC01AF07BC01BF07CC071
:101E58001CF07DC01DF00A0E1E6E000E1F6E000ED7
:101E6800206E000E216E2BEC26F01AC07AF01BC0F3
:101E78007BF01CC07CF01DC07DF072C0D9FF73C020
:101E8800DAFFDF500001766FD00E762776517A2779
:101E9800000E7B237C237D2302D078A9792B724BFB
:101EA800732BB3D7000E0001776F72C0D9FF73C0D0
:101EB800DAFF650EDE18D8B408D072C0D9FF73C037
:101EC800DAFF450EDE18D8A462D0724B732B72C0AD
:101ED800D9FF73C0DAFF2D0EDE18D8A402D0788798
:101EE80008D072C0D9FF73C0DAFF2B0EDE18D8A451
:101EF80002D0724B732B72C0D9FF73C0DAFF300E59
:101F0800DE18D8B4F6D772C0D9FF73C0DAFFDF5035
:101F180003EC29F0D8A038D072C0D9FF73C0DAFF1B
:101F2800DF50D00F0001776F724B732B72C0D9FF4F
:101F380073C0DAFFDF5003EC29F0D8A025D072C0B7
:101F4800D9FF73C0DAFFDF500001766F77510A0DB1
:101F5800F3507625D00F776F724B732B72C0D9FF71
:101F680073C0DAFFDF5003EC29F0D8A00DD072C09F
:101F7800D9FF73C0DAFFDF500001766F77510A0D81
:101F8800F3507625D00F776F000178B7776D7751CA
:101F9800792774517511D8A478A308D074C0D9FFD3
:101FA80075C0DAFF72C0DEFF73C0DDFF7AC022F0B1
:101FB8007BC023F07CC024F07DC025F0B0EC23F07A
:101FC80022C07AF023C07BF024C07CF000017A5153
:101FD8007B117C11D8A407D0000E726F000E736FAE
:101FE800000E746F120079AF59D0796D17D07AC08E
:101FF80022F07BC023F07CC024F0030E256E150E62
:10200800266E500E276EF2EC1FF022C07AF023C025
:102018007BF024C07CF0F60E000179277951800A04
:10202800760FD8A017D0E3D77AC022F07BC023F070
:102038007CC024F0000E256E200E266E410E276E01
:10204800F2EC1FF022C07AF023C07BF024C07CF0B1
:10205800000179077951D8A4E7D77AC01AF07BC074
:102068001BF07CC01CF0000E1D6E800E1E6E000E54
:102078001F6E12EC22F0D8B06CD0000178A107D006
:10208800000E726F800E736F800E746F1200000E58
:10209800726F800E736F000E746F12007951800A90
:1020A8007F0FD8B018D055D07AC060F07BC061F0EF
:1020B8007CC062F0030E636F150E646F500E656F7F
:1020C80077EC1FF060C07AF061C07BF062C07CF0F2
:1020D800F60E000179270A0E7961E6D716D07AC084
:1020E80060F07BC061F07CC062F0000E636F200E70
:1020F800646F410E656F77EC1FF060C07AF061C0C5
:102108007BF062C07CF0000179077951D8A4E7D749
:10211800FF0E1A6E7F0E1B6E7F0E1C6E7AC01DF0AE
:102128007BC01EF07CC01FF012EC22F0D8B011D09A
:10213800000178A107D0000E726F800E736F800EB9
:10214800746F1200000E726F800E736F000E746F42
:102158001200000178A10ED07AC06FF07BC070F039
:102168007CC071F0BAEC28F06FC07AF070C07BF0D8
:1021780071C07CF07AC072F07BC073F07CC074F0E0
:10218800120088C071F089C072F0000E0001736FF0
:10219800000E746F000E756F000E766F69EC16F006
:1021A80000018E6F8E51D8A47BD188C0D9FF89C019
:1021B800DAFF030EDE18D8A45ED120EE05F08851B0
:1021C800D9268951DA22DF50D8B455D120EE2AF029
:1021D8008851D9268951DA22DE6ADE6ADE6ADD6A2A
:1021E8002E0E88251A6E000E89211B6E000E1D6E9C
:1021F800000E1C6E020E1F6E000E1E6E56EC28F0AE
:10220800000122EE2CF08851D9268951DA22550E88
:10221800DF6E22EE2DF08851D9268951DA22AA0ED6
:10222800DF6E20EE2EF08851D9268951DA22520E1F
:10223800DF6E20EE2FF08851D9268951DA22520E0E
:10224800DF6E20EE30F08851D9268951DA22610EEE
:10225800DF6E20EE31F08851D9268951DA22410EFD
:10226800DF6E22EE12F08851D9268951DA22720ED9
:10227800DF6E22EE13F08851D9268951DA22720EC8
:10228800DF6E22EE14F08851D9268951DA22410EE8
:10229800DF6E22EE15F08851D9268951DA22610EB7
:1022A800DF6E20EE0EF08851D9268951DA2212EE1F
:1022B80016F08851E1268951E222DFCFE7FF22EEAE
:1022C80017F08851D9268951DA2210EE0EF088517C
:1022D800E1268951E222E6CF8AF0E5CF8BF08BC068
:1022E8008AF08B6B8A51DF6E22EE18F08851D9265E
:1022F8008951DA2210EE0EF08851E1268951E22246
:10230800E6CF8AF0E6CF8BF0E6CF8CF0E6CF8DF003
:10231800110E05D0D8908D338C338B338A33E82E49
:10232800F9D78A51DF6E22EE19F08851D9268951E2
:10233800DA2210EE0EF08851E1268951E222E6CF2A
:102348008AF0E6CF8BF0E6CF8CF0E6CF8DF0190E51
:1023580005D0D8908D338C338B338A33E82EF9D758
:102368008A51DF6E20EE0AF08851D9268951DA2287
:1023780012EE1AF08851E1268951E222DFCFE7FFF9
:1023880022EE1BF08851D9268951DA2210EE0AF084
:102398008851E1268951E222E6CF8AF0E5CF8BF019
:1023A8008BC08AF08B6B8A51DF6E22EE1CF088514D
:1023B800D9268951DA2210EE0AF08851E12689518E
:1023C800E222E6CF8AF0E6CF8BF0E6CF8CF0E6CFBC
:1023D8008DF0110E05D0D8908D338C338B338A3322
:1023E800E82EF9D78A51DF6E22EE1DF08851D926E2
:1023F8008951DA2210EE0AF08851E1268951E22249
:10240800E6CF8AF0E6CF8BF0E6CF8CF0E6CF8DF002
:10241800190E05D0D8908D338C338B338A33E82E40
:10242800F9D78A51DF6E2E0E8825656F000E892137
:10243800666F20EE12F08851D9268951DA22DECF54
:1024480067F0DECF68F0DECF69F0DECF6AF0010E0C
:102458006B6F20EE01F08851D9268951DA22DF50BE
:10246800FCEC26F0000120EE05F08851D9268951B0
:10247800DA22000EDF6E000E1A6E000E1B6E000EC2
:102488001C6E20EE01F08851D9268951DA22DF50DE
:1024980080EC28F00009D8B403D0010E00018E6F3B
:1024A80000018E5112000001BB51BC11BD11BE11BB
:1024B800D8A42DD020EE0AF0B951D926BA51DA2283
:1024C800DECFC3F0DECFC4F0DECFC5F0DECFC6F07E
:1024D800C351C411C511C611D8B410D020EE16F0DE
:1024E800B951D926BA51DA22DE50C35DDE50C4593B
:1024F800DE50C559DE50C659D8A052D0010EC36F60
:10250800000EC46F000EC56F000EC66F49D0B9C06B
:1025180088F0BAC089F0BBC08AF0BCC08BF0BDC0DF
:102528008CF0BEC08DF0A8EC0AF088C0C7F089C056
:10253800C8F08AC0C9F08BC0CAF00001CA51C911DD
:10254800C8110DE1020EC75DD8B009D0010EB96FF0
:10255800000EBA6F000EBB6F000EBC6F120020EEAB
:1025680016F0B951D926BA51DA22DE50C75DDE50CD
:10257800C859DE50C959DE50CA59D8B009D0C7C0A9
:10258800B9F0C8C0BAF0C9C0BBF0CAC0BCF01200EC
:10259800BBC0C3F0BCC0C4F0BDC0C5F0BEC0C6F06F
:1025A800C3C0CBF0C4C0CCF0C5C0CDF0C6C0CEF01F
:1025B800010ECB27000ECC23CD23CE2320EE16F020
:1025C800B951D926BA51DA22DE50CB5DDE50CC594A
:1025D800DE50CD59DE50CE59D8A01BD0020ECB6F9D
:1025E800000ECC6F000ECD6F000ECE6FCB51C35DC9
:1025F800CC51C459CD51C559CE51C659D8B009D0BE
:10260800000EB96F000EBA6F000EBB6F000EBC6FE4
:102618001200B9C088F0BAC089F0CBC08AF0CCC02B
:102628008BF0CDC08CF0CEC08DF0A8EC0AF088C03D
:10263800C7F089C0C8F08AC0C9F08BC0CAF00001D1
:10264800C751C811C911CA11D8B42ED0C72907E17A
:10265800C82905E1C92903E1CA29D8B406D0C705A4
:10266800C811C911CA11D8A409D0C7C0B9F0C8C0C7
:10267800BAF0C9C0BBF0CAC0BCF01200C351CB1934
:1026880097E1C451CC1994E1C551CD1991E1C651D6
:10269800CE19D8A48DD7000EB96F000EBA6F000EF0
:1026A800BB6F000EBC6F1200B9C088F0BAC089F0C9
:1026B800CBC08AF0CCC08BF0CDC08CF0CEC08DF0F2
:1026C800FF0E8E6FFF0E8F6FFF0E906F0F0E916FC4
:1026D80037EC08F00009D8B406D00001B969BA6926
:1026E800BB69BC6912000001BB51BC11BD11BE1110
:1026F800D8B41FD0B9C088F0BAC089F0BBC08AF07E
:10270800BCC08BF0BDC08CF0BEC08DF0CBC08EF0CD
:10271800CCC08FF0CDC090F0CEC091F037EC08F06F
:102728000009D8B406D00001B969BA69BB69BC69A7
:102738001200000120EE0AF0B951D926BA51DA2266
:10274800CBC0DEFFCCC0DEFFCDC0DEFFCEC0DEFFDB
:1027580020EE0EF0B951D926BA51DA22DE2807E167
:10276800DE2805E1DE2803E1DE28D8B413D020EE08
:102778000EF0B951D926BA51DA22DE06000EDE5A19
:10278800DE5ADE5A20EE05F0B951D926BA51DA22BE
:10279800010EDF6ECBC0B9F0CCC0BAF0CDC0BBF033
:1027A800CEC0BCF012008FC0D9FF90C0DAFFDECFD8
:1027B80028F0DDCF29F0000120EE02F08F51D92654
:1027C8009051DA22DECF2AF0DDCF2BF081EC26F013
:1027D8000001956F9551D8A447D120EE04F08F5190
:1027E800D9269051DA22DFAA3FD18FC0D9FF90C0F5
:1027F800DAFFDECF71F0DDCF72F020EE1AF08F51E4
:10280800D9269051DA22DECF73F0DECF74F0DECF16
:1028180075F0DECF76F069EC16F00001956F9551F2
:10282800D8A422D120EE1EF08F51D9269051DA2259
:10283800DECF9AF0DDCF9BF020EE0BF09A51D9262F
:102848009B51DA22000EDB8A20EE0AF08F51D9263E
:102858009051DA2210EE1CF09A51E1269B51E222A7
:10286800DFCFE7FF20EE1DF09A51D9269B51DA22DF
:1028780010EE0AF08F51E1269051E222E6CF91F056
:10288800E5CF92F092C091F0926B9151DF6E20EEFD
:102898001EF09A51D9269B51DA2210EE0AF08F5178
:1028A800E1269051E222E6CF91F0E6CF92F0E6CF12
:1028B80093F0E6CF94F0110E05D0D890943393336B
:1028C80092339133E82EF9D79151DF6E20EE1FF045
:1028D8009A51D9269B51DA2210EE0AF08F51E1263F
:1028E8009051E222E6CF91F0E6CF92F0E6CF93F056
:1028F800E6CF94F0190E05D0D890943393339233E1
:102908009133E82EF9D79151DF6E20EE0EF08F51FA
:10291800D9269051DA2210EE1AF09A51E1269B51ED
:10292800E222DFCFE7FF20EE1BF09A51D9269B5118
:10293800DA2210EE0EF08F51E1269051E222E6CF16
:1029480091F0E5CF92F092C091F0926B9151DF6EC9
:1029580020EE14F09A51D9269B51DA2210EE0EF08F
:102968008F51E1269051E222E6CF91F0E6CF92F026
:10297800E6CF93F0E6CF94F0110E05D0D8909433BB
:10298800933392339133E82EF9D79151DF6E20EECD
:1029980015F09A51D9269B51DA2210EE0EF08F517C
:1029A800E1269051E222E6CF91F0E6CF92F0E6CF11
:1029B80093F0E6CF94F0110E05D0D890943393336A
:1029C80092339133E82EF9D792C091F0926B9151DE
:1029D800DF6EFAEC1DF01AC096F01BC097F01CC011
:1029E80098F01DC099F0000120EE16F09A51D926F2
:1029F8009B51DA2296C0DFFF20EE17F09A51D926B4
:102A08009B51DA229751DF6E20EE18F09A51D926A1
:102A18009B51DA2298C0DFFF20EE19F09A51D9268F
:102A28009B51DA2299C0DFFF20EE04F08F51D9269E
:102A38009051DA22DF0EDF168FC0D9FF90C0DAFF7F
:102A480010EE04F0DE50E126DD50E222010EE76EC2
:102A58008FC0D9FF90C0DAFFDECF88F0DDCF89F0D4
:102A6800C5EC10F00001956F955112000001786FC8
:102A78006D0E00017865A0D0000E2B6E030E2A6E35
:102A8800000E236E0A0E226E000E1D6E640E1C6E62
:102A980078C01AF01B6A98EC24F01AC020F01BC00A
:102AA80021F02CEC23F0090E2024286E000E2120A2
:102AB800296EA7EC28F0440E2824F66E610E292012
:102AC800F76E0900F5CF63F00900F5CF64F00A004E
:102AD800F5CF65F0000E236E640E226E78C020F0EC
:102AE800216A2CEC23F0120E2024286E000E2120DF
:102AF800296E000E2B6E030E2A6EA7EC28F0440EEA
:102B08002824F66E610E2920F76E0900F5CF60F0D3
:102B18000900F5CF61F00A00F5CF62F077EC1FF0FD
:102B280060C075F061C076F062C077F0000E2B6E61
:102B3800030E2A6E000E1D6E0A0E1C6E78C01AF067
:102B48001B6A98EC24F01AC028F01BC029F0A7ECE7
:102B580028F0440E2824F66E610E2920F76E09002D
:102B6800F5CF63F00900F5CF64F00A00F5CF65F002
:102B780075C060F076C061F077C062F077EC1FF046
:102B880060C072F061C073F062C074F072C060F02F
:102B980073C061F074C062F0000E0001636F000E34
:102BA800646F3F0E656F77EC1FF060C06FF061C017
:102BB80070F062C071F012000A0E0001786564D0EE
:102BC800000E2B6E030E2A6E000E1D6E0A0E1C6E72
:102BD80078C01AF01B6A98EC24F01AC028F01BC0C1
:102BE80029F0A7EC28F0440E2824F66E610E29205F
:102BF800F76E0900F5CF63F00900F5CF64F00A001D
:102C0800F5CF65F0000E236E0A0E226E78C020F014
:102C1800216A2CEC23F0090E2024286E000E2120B6
:102C2800296E000E2B6E030E2A6EA7EC28F0440EB8
:102C38002824F66E610E2920F76E0900F5CF60F0A2
:102C48000900F5CF61F00A00F5CF62F077EC1FF0CC
:102C580060C075F061C076F062C077F075C060F052
:102C680076C061F077C062F0000E0001636F000E5D
:102C7800646F3F0E656F77EC1FF060C06FF061C046
:102C880070F062C071F0120000017851030D440E1B
:102C9800F324F66E610EF420F76E0900F5CF60F0AC
:102CA8000900F5CF61F00A00F5CF62F0000E636FFE
:102CB800000E646F3F0E656F77EC1FF060C06FF019
:102CC80061C070F062C071F01200000120EE2AF0BD
:102CD8007151D9267251DA22DECF84F0DECF85F029
:102CE800DECF86F0DECF87F0735184190AE1745184
:102CF800851907E17551861904E176518719D8B409
:102D0800CBD020EE04F07151D9267251DA22DF506F
:102D1800D8B48FD02E0E7125656F000E7221666FA4
:102D280084C067F085C068F086C069F087C06AF023
:102D3800010E6B6F20EE01F07151D9267251DA2223
:102D4800DF50FCEC26F00009D8B402D0010E1200C6
:102D5800000120EE04F07151D9267251DA22000EDA
:102D6800DF6E20EE1AF07151D9267251DA22DECFC9
:102D780077F0DECF78F0DECF79F0DECF7AF020EE94
:102D88001EF07151D9267251DA22DECF7BF0DECFE8
:102D98007CF0DECF7DF0DECF7EF077517B257F6F34
:102DA80078517C21806F79517D21816F7A517E2104
:102DB800826F7F51845D8051855981518659825136
:102DC8008759D8B036D020EE03F07151D926725108
:102DD800DA22DF50836F020E836101D02AD020EE01
:102DE8001AF07151D9267251DA22DE508427DE504A
:102DF8008523DE508623DD5087232E0E7125656FCF
:102E0800000E7221666F84C067F085C068F086C0C6
:102E180069F087C06AF0010E6B6F20EE01F0715106
:102E2800D9267251DA22DF50FCEC26F00001830724
:102E3800D2D77351741175117611D8B42DD02E0EC6
:102E48007125686F000E7221696F73C06AF074C0D3
:102E58006BF075C06CF076C06DF0010E6E6F20EEF1
:102E680001F07151D9267251DA22DF5024EC27F093
:102E78000009D8B402D0010E1200000120EE2AF099
:102E88007151D9267251DA2273C0DEFF74C0DEFF99
:102E980075C0DEFF76C0DEFF000E1200ECEC23F0FA
:102EA80066C0D5F067C0D6F068C0D7F069C0D8F062
:102EB800D5C0B2F0D6C0B3F0D7C0B4F0D8C0B5F022
:102EC80041EC1CF0000E1D6E010ED0EC24F0630ED8
:102ED8001D6E620E1E6EABEC26F0070E1D6E010E07
:102EE800D0EC24F09A0E1D6E010E1E6EABEC26F08F
:102EF80001017F51BAEC19F021C0C2F022C0C3F021
:102F080023C0C4F024C0C5F0000E1D6E020ED0EC24
:102F180024F0690E1D6E620E1E6EABEC26F0070ED5
:102F28001D6E020ED0EC24F0F60E1D6E000E1E6E05
:102F3800ABEC26F07A0E0001C16FC10EC06F810E96
:102F4800E82EFED7C02FFCD7C12FFAD700D0010E2C
:102F5800E6EC22F001016451A0EC22F081C0D9F026
:102F680082C0DAF083C0DBF0D9C085F0DAC086F021
:102F7800DBC087F00BEC1BF085C0D9F086C0DAF017
:102F880087C0DBF0C60E00018B6F000E8C6F6F0ED2
:102F98008D6F620E8E6FD9C08FF0DAC090F0DBC0F3
:102FA80091F026EC04F0010166515AEC22F081C040
:102FB800DCF082C0DDF083C0DEF0DCC085F0DDC06F
:102FC80086F0DEC087F00BEC1BF085C0DCF086C015
:102FD800DDF087C0DEF0C60E00018B6F000E8C6F2F
:102FE8006F0E8D6F620E8E6FDCC08FF0DDC090F0BB
:102FF800DEC091F026EC04F0000E1D6E020ED0EC3F
:1030080024F0750E1D6E620E1E6EABEC26F0050EDA
:103018001D6E020ED0EC24F0C60E1D6E000E1E6E44
:10302800ABEC26F0C60E1A6E000E1B6E000E1D6E5F
:10303800000E1C6E000E1F6E0F0E1E6E40EC28F068
:103048007A0E0001C16FC10EC06F810EE82EFED747
:10305800C02FFCD7C12FFAD700D0010EE6EC22F022
:1030680012007BC07FF00001806B816B7A357F375F
:1030780001E380817F51846F7EC07FF0806B816B1C
:103088007D357F3701E380817F51836F8451D8B4C8
:103098000BD08351845DD8B00ED0845100088325AD
:1030A8007F6F180E7F6507D07CC079F07DC07AF0FD
:1030B8007EC07BF012008351D8B40BD08451835D5D
:1030C800D8B00ED08351000884257F6F180E7F6515
:1030D80007D079C079F07AC07AF07BC07BF0120013
:1030E800060E826F7BBF828F7EBF828D7A8FFF0E26
:1030F8007917FF0E7A17000E7B177D8FFF0E7C174E
:10310800FF0E7D17000E7E178351845DD8B01BD04B
:10311800D8907C377D377E37830784518319D8B49C
:103128000DD0820782C07FF0070E7F17D8B406D073
:10313800EFD7D8907B337A337933842B8351841932
:10314800D8B41FD0F6D78451835DD8B01AD0D890A0
:1031580079377A377B37840784518319D8B40DD0EF
:10316800820782C07FF0070E7F17D8B406D0EFD74A
:10317800D8907E337D337C33832B83518419D8A434
:10318800F7D782AF0CD0FF0E791BFF0E7A1BFF0E0C
:103198007B1B010E7927000E7A23000E7B2382AD5C
:1031A8000CD0FF0E7C1BFF0E7D1BFF0E7E1B010E3D
:1031B8007C27000E7D23000E7E23000E826F79513E
:1031C8007C277A517D237B517E237EAF0ED0FF0E64
:1031D8007C1BFF0E7D1BFF0E7E1B010E7C27000E45
:1031E8007D23000E7E23010E826F7CC01AF07DC005
:1031F8001BF07EC01CF084C01DF082C01EF0C5EC20
:1032080020F01AC079F01BC07AF01CC07BF01200C5
:10321800000E0001606F25C02AF026C02BF027C0E1
:103228002CF028C02DF0090ED8902A362B362C36D3
:103238002D36E82EF9D72AC061F02BC062F02CC0D9
:1032480063F02DC064F03D0E2B6EE10E2A6E400E29
:10325800E82EFED72A2EFCD72B2EFAD7080E90EC94
:1032680027F061C01CF062C01DF063C01EF064C08E
:103278001FF0000E206E520EAFEC27F07BEC29F009
:1032880075EC29F00001656F6529D8A4F9D73D0EC2
:103298002B6EE10E2A6E400EE82EFED72A2EFCD7A2
:1032A8002B2EFAD77BEC29F075EC29F00001656F1D
:1032B800FE0E6519D8A4F8D7000E676F000E666F6A
:1032C8000CD0B70E6625D96E020E6721DA6E75EC42
:1032D80029F0DF6E0001664B672B29502A6E2B6A96
:1032E8002A50665D6751800A2C6E2B50800A2C5834
:1032F800D8A0E7D73D0E2B6EE10E2A6E400EE82EC1
:10330800FED72A2EFCD72B2EFAD7080E90EC27F0E2
:10331800000E1C6E000E1D6E000E1E6E000E1F6E3F
:10332800000E206E4C0EAFEC27F07BEC29F075EC0C
:1033380029F00001656F6529D8A4F9D7000E676FD9
:10334800000E666F02D0664B672BB70E6625D96EE6
:10335800020E6721DA6EDF50D8A4F5D723C0D9FF53
:1033680024C0DAFF66C0DFFF000E12000001606FA4
:1033780000016029656F7D0E626F7D0E636F7D0EA3
:10338800646F000E616F14D06551010D000EF324B7
:10339800D96E020EF420DA6E6151010DF60EF32497
:1033A800E16E000EF420E26EDFCFE7FF612B652BA4
:1033B8006551010D000EF324D96E020EF420DA6E69
:1033C8002C0EDE18D8A4E0D7F60E1A6E000E1B6E6F
:1033D800CEEC27F0F60E1A24D96E000E1B20DA6EFA
:1033E800000EDF6E000E0001666F070E666501D0E5
:1033F80061D0020E66611CD06251256E266A25C016
:103408001AF026C01BF06651010DF60EF324D96E92
:10341800000EF420DA6EDF50276E286A296A27C06A
:103428001CF028C01DF029C01EF0D4EC26F03FD0B7
:10343800010E000166651FD0040E66611CD0635141
:10344800256E266A25C01AF026C01BF06651010DAC
:10345800F60EF324D96E000EF420DA6EDF50276ED4
:10346800286A296A27C01CF028C01DF029C01EF050
:10347800D4EC26F01CD000016451256E266A25C0C4
:103488001AF026C01BF06651010DF60EF324D96E12
:10349800000EF420DA6EDF50276E286A296A27C0EA
:1034A8001CF028C01DF029C01EF0D4EC26F0000145
:1034B800662B9BD762C08AF163C08BF164C08CF124
:1034C8001200000E0001616F000E606F080E90EC94
:1034D80027F025C02AF026C02BF027C02CF028C0E2
:1034E8002DF0090ED8902A362B362C362D36E82E9C
:1034F800F9D72AC01CF02BC01DF02CC01EF02DC01F
:103508001FF0000E206E580EAFEC27F07BEC29F070
:1035180075EC29F00001646F6451D8A4F9D77A0ECC
:103528002B6EC10E2A6E820EE82EFED72A2EFCD7ED
:103538002B2EFAD7080E90EC27F0FE0E4CEC27F055
:10354800000E0001636F000E626F63BF04D0020EAD
:10355800635DD8B02ED0000E1D6E010ED0EC24F0A5
:1035680023C0F6FF24C0F7FF0800F5502A6E2B6A27
:103578002AC01DF02BC01EF0ABEC26F023C0F6FFCE
:1035880024C0F7FF0800F5500009D8B40BD023C0B9
:10359800F6FF24C0F7FF0800F5504CEC27F0234A4B
:1035A800242A03D0000E4CEC27F00001624B632B59
:1035B800CCD7FF0E4CEC27F0FF0E4CEC27F07BEC41
:1035C80029F03D0E2B6EE10E2A6E400EE82EFED736
:1035D8002A2EFCD72B2EFAD7080E90EC27F0000ED7
:1035E8001C6E000E1D6E000E1E6E000E1F6EFF0E6E
:1035F800206E4D0EAFEC27F07BEC29F075EC29F02E
:103608000001646F6451D8A4F9D7000E1200000EAF
:10361800256EC80E266E420E276E85C022F086C023
:1036280023F087C024F0F2EC1FF022C076F023C00C
:1036380077F024C078F0FBEC1EF076C08EF077C0EF
:103648008FF0000E0001636FC80E646F420E656F45
:103658008EC022F08FC023F024EC28F022C060F046
:1036680023C061F024C062F077EC1FF060C06FF0F7
:1036780061C070F062C071F0BAEC28F06FC079F0E8
:1036880070C07AF071C07BF085C07CF086C07DF098
:1036980087C07EF035EC18F079C088F07AC089F0E0
:1036A8007BC08AF088C022F089C023F08AC024F049
:1036B800000E256E700E266E420E276EF2EC1FF07D
:1036C80022C08BF023C08CF024C08DF08EC022F075
:1036D8008FC023F024EC28F022C079F023C07AF0C0
:1036E80024C07BF08BC07CF08CC07DF08DC07EF058
:1036F80035EC18F079C090F07AC091F07BC092F068
:10370800530E0001F519D8B404D0570EF419D8A4F3
:1037180014D090C060F091C061F092C062F0000EC9
:10372800636F800E646FBF0E656F77EC1FF060C02B
:1037380090F061C091F062C092F090C085F091C0A5
:1037480086F092C087F012001CC020F0216A226A1D
:103758001B34203601E321802050286E2850D8A43D
:1037680009D0000E1A6E000E1B6E000E1C6E000EA5
:103778001D6E12001FC020F0216A226A1E342036F6
:1037880001E321802050276E2750D8A409D0000ECD
:103798001A6E000E1B6E000E1C6E000E1D6E1200BF
:1037A8001B8EFF0E1A16FF0E1B16000E1C161E8E01
:1037B800FF0E1D16FF0E1E16000E1F16000E236E9E
:1037C800000E246E000E256E000E266E7F0E285EFB
:1037D8002750980F285E180E276ED8902336243667
:1037E800253626361D501A5C1E501B581F501C5873
:1037F800D8A007D01D501A5E1E501B5A1F501C5AC5
:103808002380D8901A361B361C36272EE6D728AECA
:1038180016D02850800A970FD8B009D0000E1A6E1B
:10382800000E1B6E000E1C6E000E1D6E1200D8904E
:103838002632253224322332283EF9D715D0170EE6
:1038480028640FD0000E1A6E000E1B6E000E1C6E40
:10385800000E1D6E1200D8902336243625362636E3
:1038680028062850D8A4F7D723C01AF024C01BF084
:1038780025C01CF026C01DF01200B2C023F0B3C052
:1038880024F0B4C025F0B5C026F0100E276E270E20
:10389800286E000E296E000E2A6E6EEC23F0FD0EC7
:1038A80023240001BA6FFF0E2420BB6F100E1E6E7A
:1038B800270E1F6E000E206E000E216EB2C01AF089
:1038C800B3C01BF0B4C01CF0B5C01DF071EC25F0FE
:1038D8001AC023F01BC024F01CC025F01DC026F020
:1038E800640E276E000E286E000E296E000E2A6EDA
:1038F8006EEC23F023C0BCF024C0BDF0100E1E6E89
:10390800270E1F6E000E206E000E216EB2C01AF038
:10391800B3C01BF0B4C01CF0B5C01DF071EC25F0AD
:103928001AC0B6F01BC0B7F01CC0B8F01DC0B9F083
:10393800B6C01AF0B7C01BF0B8C01CF0B9C01DF073
:10394800640E1E6E000E1F6E000E206E000E216E9D
:1039580071EC25F01AC0BEF01BC0BFF09A0E000132
:103968008B6F010E8C6F5A0E8D6F620E8E6FBAC000
:103978008FF0BBC090F0BCC091F0BDC092F0BEC04B
:1039880093F0BFC094F026EC04F0BAC084F1BBC039
:1039980085F1BCC086F1BDC087F1BEC088F1BFC04B
:1039A80089F112001C341D34256E2550D8A409D085
:1039B800000E1A6E000E1B6E000E1C6E000E1D6EA1
:1039C80012001F342034246E2450D8A409D0000ECD
:1039D8001A6E000E1B6E000E1C6E000E1D6E12007D
:1039E8001C8EFF0E1A16FF0E1B16FF0E1C16000E5D
:1039F8001D161F8EFF0E1D16FF0E1E16FF0E1F161C
:103A0800000E2016000E206E000E216E000E226E93
:103A1800000E236E7F0E255E2450A00F255E200E1B
:103A2800246ED89020362136223623361D501A5C53
:103A38001E501B581F501C5820501D58D8A009D084
:103A48001D501A5E1E501B5A1F501C5A20501D5ADA
:103A58002080D8901A361B361C361D36242EE1D706
:103A680025AE16D02550800A9F0FD8B009D0000E79
:103A78001A6E000E1B6E000E1C6E000E1D6E1200DC
:103A8800D8902332223221322032253EF9D715D060
:103A98001F0E25640FD0000E1A6E000E1B6E000E4E
:103AA8001C6E000E1D6E1200D8902036213622366C
:103AB800233625062550D8A4F7D720C01AF021C0F0
:103AC8001BF022C01CF023C01DF012000600FACF24
:103AD80007F0FBCF08F0E9CF09F0EACF0AF0E1CF11
:103AE8000BF0E2CF0CF0D9CF0DF0DACF0EF0F3CF18
:103AF8000FF0F4CF10F0F6CF11F0F7CF12F0F8CFA7
:103B080013F0F5CF14F046C015F047C016F048C0C2
:103B180017F049C018F09DBA9EAA04D060EC29F0AD
:103B2800456E9E9AF2B4F2A437D0F294010E446E18
:103B3800000E196E010E196401D019D01950020D2A
:103B4800E20EF324D96E000EF420DA6EDE50DE1099
:103B5800D8B40BD01950020DE20EF324D96E000E22
:103B6800F420DA6EDE06000EDD5A192AE3D7430484
:103B7800D8A40CD00001F207D8A0F307F251F31132
:103B8800D8A404D0000EFA6E000EF96E000E026E74
:103B9800830E016E57EC29F0F2B2F2A801D0F2922E
:103BA80018C049F017C048F016C047F015C046F0D5
:103BB80014C0F5FF13C0F8FF12C0F7FF11C0F6FFDD
:103BC80010C0F4FF0FC0F3FF0EC0DAFF0DC0D9FF1D
:103BD8000CC0E2FF0BC0E1FF0AC0EAFF09C0E9FF21
:103BE80008C0FBFF07C0FAFF46921100D8902330A7
:103BF8000001616F2230606F2050626F2150636F47
:103C0800646B656B050ED890623763376437653728
:103C1800E82EF9D71E50666F1F50676F686B696B87
:103C28000B0ED8906637673768376937E82EF9D7AB
:103C380025C06AF06B6B6C6B6D6B6BC06DF06AC006
:103C48006CF06B6B6A6B25C06EF06F6B706B716B91
:103C5800150ED8906E376F3770377137E82EF9D751
:103C680026C072F0736B746B756B190ED89072372F
:103C7800733774377537E82EF9D76E517211766F2E
:103C88006F517311776F70517411786F715175118D
:103C9800796F6A5176117A6F6B5177117B6F6C511E
:103CA80078117C6F6D5179117D6F66517A117E6F35
:103CB80067517B117F6F68517C11806F69517D114D
:103CC800816F62517E11826F63517F11836F6451DE
:103CD8008011846F65518111856F605182111A6E50
:103CE800615183111B6E000E84111C6E000E85112C
:103CF8001D6E120026C0D9FF27C0DAFFDF50000171
:103D0800656F264A272A200E6519D8B4F3D7090EFD
:103D18006519D8B4EFD7000E616F000E626F000E00
:103D2800636F000E646F000E606F2D0E6519D8A4C6
:103D380002D0602B28D02B0E6519D8A42CD023D004
:103D480061C01AF062C01BF063C01CF064C01DF0B3
:103D58000A0E1E6E000E1F6E000E206E000E216EE3
:103D68002BEC26F065C02AF0D00E2A262A501A24F9
:103D78000001616F000E1B20626F000E1C20636F34
:103D8800000E1D20646F26C0D9FF27C0DAFFDF5060
:103D9800656F264A272A655103EC29F0D8B0D0D799
:103DA80000016051D8B41AD061C02AF062C02BF06B
:103DB80063C02CF064C02DF02A1E2B1E2C1E2D1E55
:103DC8002A2A000E2B222C222D222AC026F02BC0B4
:103DD80027F02CC028F02DC029F0120061C026F071
:103DE80062C027F063C028F064C029F0120078C0D0
:103DF8007AF000017B6B7C6B77357A3701E37B8146
:103E08007A51846F8451D8A409D0000E766F000EC1
:103E1800776F000E786F000E796F1200170E7A6FA9
:103E280076C07BF077C07CF078C07DF07A297E6F11
:103E380004D0D8907D337C337B337E2FFAD70001B2
:103E48007B517F6F778FFF0E7617FF0E7717000E67
:103E580078177651806F7751816F7851826F836BB5
:103E68008E0E845F84AF16D08451800A8F0FD8B02D
:103E780009D0000E766F000E776F000E786F000E77
:103E8800796F1200D8908333823381338033843F33
:103E9800F9D715D0170E84650FD0000E766F000E77
:103EA800776F000E786F000E796F1200D890803708
:103EB80081378237833784078451D8A4F7D77F5155
:103EC800D8B408D0831F821F811F806D000E812304
:103ED8008223832380C076F081C077F082C078F097
:103EE80083C079F0120062C066F00001676B686BEE
:103EF8006135663701E367816651696F6951D8A4F6
:103F080007D0000E606F000E616F000E626F120026
:103F180065C066F0676B686B6435663701E3678177
:103F280066516E6F6E51D8A407D0000E606F000EF8
:103F3800616F000E626F12006E517B0F692762C0BD
:103F48006EF065516E1B800E6E17618F648FFF0EC9
:103F58006317FF0E6417000E6517000E6A6F000ED8
:103F68006B6F000E6C6F070E6D6F60A106D063510A
:103F78006A2764516B2365516C23D890623361338F
:103F88006033D8906337643765376D2FEED7090EE5
:103F98006D6F60A106D063516A2764516B23655128
:103FA8006C23D890623361336033D8906C336B33B1
:103FB8006A336D2FEED76AC01AF06BC01BF06CC065
:103FC8001CF069C01DF06EC01EF0C5EC20F01AC0D0
:103FD80060F01BC061F01CC062F0120024C028F021
:103FE800296A2A6A2334283601E3298028500001E7
:103FF800646F6451D8A407D0000E226E000E236EA1
:10400800000E246E120027C028F0296A2A6A263476
:10401800283601E329802850656F6551D8A407D058
:10402800000E226E000E236E000E246E1200000E8B
:10403800616F000E626F000E636F6551890F645FD8
:1040480024C065F02750651B800E6517238EFF0E70
:104058002216FF0E2316000E2416268EFF0E251696
:10406800FF0E2616000E2716180E606FD8906137BF
:10407800623763372550225C26502358275024582E
:10408800D8A007D02550225E2650235A2750245AFC
:104098006181D890223623362436602FE7D761C055
:1040A8001AF062C01BF063C01CF064C01DF065C04C
:1040B8001EF0C5EC20F01AC022F01BC023F01CC073
:1040C80024F01200020E285E000E295A2A5A2B5A92
:1040D80020EE16F02650D9262750DA22FE0EDE24CE
:1040E8000001606FFF0EDE20616FFF0EDE20626F41
:1040F800FF0EDE20636F6051285C615129586251C0
:104108002A5863512B58D8A009D0000E266E000EED
:10411800276E000E286E000E296E120020EE26F083
:104128002650D9262750DA22DECF60F0DECF61F0A4
:10413800DECF62F0DECF63F020EE02F02650D92603
:104148002750DA22DF50646F64511A6E1B6A1C6AAA
:104158001D6A28C01EF029C01FF02AC020F02BC0FD
:1041680021F02BEC26F0000160511A24266E6151D3
:104178001B20276E62511C20286E63511D20296E5A
:1041880012001D50D8B405D01A501B101C10D8A40A
:104198000CD0000E1A6E000E1B6E000E1C6E120064
:1041A8001D2AD8901C321B321A32000E1A141F6EA8
:1041B800000E1B14206EFE0E1C14216E1F502010C2
:1041C8002110D8B40CD0ECD71D2A010E1A26000EE7
:1041D8001B22000E1C22D8901C321B321A32000EF1
:1041E8001A141F6E000E1B14206EFF0E1C14216E75
:1041F8001F5020102110D8B406D0E6D71D06D8903D
:104208001A361B361C361BBE03D0020E1D60F6D7AD
:104218001DA01B9ED8901D321D501C121E50D8A4E4
:104228001C8E1AC01AF01BC01BF01CC01CF0120018
:10423800D59E010EE6EC22F07BEC29F0B70E1A6E43
:10424800040E1B6E010E3DEC25F00201966F96518F
:10425800D8A437D0970E0001CF6F020ED06F390E59
:10426800D16F620ED26F000ED46F0B0ED36F98C150
:10427800D5F099C1D6F009EC00F00201966F96517D
:10428800D8A413D0970E00019C6F020E9D6F6CECA2
:1042980028F0000E1D6E010ED0EC24F02D0E1D6EC0
:1042A800620E1E6EABEC26F01200000E1D6E010EA3
:1042B800D0EC24F0AF0E1D6E610E1E6EABEC26F036
:1042C8001200000E1D6E010ED0EC24F0450E1D6E7E
:1042D800620E1E6EABEC26F01200000E0001E16FBC
:1042E800010EE16501D01200E151020DEA0EF3243E
:1042F800D96E000EF420DA6EDE50DE10D8B43DD050
:10430800E151020DE20EF324D96E000EF420DA6EAC
:10431800DE50DE10D8A431D0010E436EFD0EF36FCF
:10432800E80EF26FE151020DEA0EF324D96E000E89
:10433800F420DA6E01D80AD00500FA6EDE50FD6E60
:10434800DE50FE6EF850FF6EFA501200000E436EFB
:104358000001E151020DE60EF324D96E000EF4209F
:10436800DA6EE151020DE20EF324E16E000EF42044
:10437800E26EDECFE6FFDDCFE5FFE12BB1D7959406
:10438800959295909598959A959C959E83948392ED
:104398008390839E839C838A8388EA0E1D6EC30E56
:1043A800E82EFED71D2EFCD700F08380F1EC28F014
:1043B8008390F1EC28F04E0E1D6EEB0EE82EFED722
:1043C8001D2EFCD700F08380F1EC28F08390F1ECEF
:1043D80028F04E0E1D6EEB0EE82EFED71D2EFCD7D4
:1043E80000F08380F1EC28F08390F1EC28F0839EB4
:1043F800839C838A83988380F1EC28F08390F1EC86
:1044080028F0280EE6EC22F0060EE6EC22F00E0E5E
:10441800E6EC22F0010EE6EC22F012001CAE16D0FB
:104428001AC020F01BC021F01CC022F0201E211E43
:10443800221E202A000E21222222000E20241A6E7B
:10444800000E21201B6E800E22201C6E1FAE16D07F
:104458001DC020F01EC021F01FC022F0201E211E0A
:10446800221E202A000E21222222000E20241D6E48
:10447800000E21201E6E800E22201F6E000E1A1ABA
:10448800000E1B1A800E1C1A000E1D1A000E1E1A92
:10449800800E1F1A1D501A5C1E501B581F501C58A6
:1044A800D8B002D0D8901200D88012000001976FBF
:1044B80000019729986F000E996F14D09851010D3B
:1044C800000EF324D96E010EF420DA6E9951010D15
:1044D800850EF324E16E000EF420E26EDFCFE7FFD5
:1044E800992B982B9851010D000EF324D96E010ECB
:1044F800F420DA6E2C0EDE18D8A4E0D7992B995147
:10450800010D000EF324D96E010EF420DA6EDF508F
:10451800F46F850E7E6F000E7F6FDFEC28F07EC093
:1045280094F07FC095F080C096F094C081F095C05B
:1045380082F096C083F012000001976F000197295E
:10454800996F000E986F14D09951010D000EF32445
:10455800D96E010EF420DA6E9851010D850EF32400
:10456800E16E000EF420E26EDFCFE7FF982B992B67
:104578009951010D000EF324D96E010EF420DA6E64
:104588002C0EDE18D8A4E0D7992B9951010D000EF6
:10459800F324D96E010EF420DA6EDF50F56F850E24
:1045A8007E6F000E7F6FDFEC28F07EC094F07FC036
:1045B80095F080C096F094C081F095C082F096C0C6
:1045C80083F012001C6E8394839283901CA802D0FF
:1045D800838801D083981CAA02D0838A01D0839A49
:1045E8001CAC02D0838C01D0839C1CAE02D0838E7D
:1045F80001D0839E8380F1EC28F08390F1EC28F0C1
:104608001CA002D0838801D083981CA202D0838A80
:1046180001D0839A1CA402D0838C01D0839C1CA651
:1046280002D0838E01D0839E8380F1EC28F08390A2
:10463800F1EC28F01C04D8B408D0020E1C18D8B429
:1046480004D0030E1C18D8A41200F1EC28F01200B4
:10465800000E256E23AE06D0226C231ED8B0232A66
:10466800010E256E21AE06D0206C211ED8B0212A5D
:10467800010E251A000E276E000E266E22502310FA
:10468800D8B41CD0010E246E04D0D890223623361C
:10469800242A23AEFAD7D890263627362250205C13
:1046A80023502158D8A005D02250205E2350215AEB
:1046B8002680D89023322232242EEDD72550D8B424
:1046C80004D0266C271ED8B0272A26C020F027C081
:1046D80021F01200000E0001606F000E616F000EE5
:1046E800626F000E636F2750281029102A10D8B463
:1046F8002AD0010E646F06D0D8902736283629367E
:104708002A36642B2AAEF8D7D890603761376237DB
:1047180063372750235C28502458295025582A509D
:104728002658D8A009D02750235E2850245A29504B
:10473800255A2A50265A6081D8902A32293228329E
:104748002732642FE1D760C023F061C024F062C033
:1047580025F063C026F01200000E2B6E8E0E2A6E16
:1047680025AE11D0251E241E231E226C000E2322E6
:1047780024222522010E2B6E06D0D8902532243211
:10478800233222322A2A000E2214266E000E231407
:10479800276E000E2414286EFF0E2514296E26504D
:1047A800271028102910D8A4E8D722C01AF023C04F
:1047B8001BF024C01CF02AC01DF02BC01EF0C5EC55
:1047C80020F01AC022F01BC023F01CC024F01200F5
:1047D800000E00017E6F13D07E51010D000EF324F0
:1047E800D96E010EF420DA6E7E51010D6B0EF324A2
:1047F800E16E000EF420E26EDFCFE7FF7E2B7E51E4
:10480800010D000EF324D96E010EF420DA6E2C0E81
:10481800DE18D8A4E1D76B0E266E000E276E7EEC4C
:104828001EF026C07AF027C07BF028C07CF029C093
:104838007DF07AC066F07BC067F07CC068F07DC010
:1048480069F01200240EF66E520EF76E000EF86E26
:1048580001EEC9F010EE1DF00900F5CFEEFFE550AE
:10486800E150FAE102EEB7F014EE2EF0EE6AE550F0
:10487800E150FCE1E250FAE102EE00F0960EEE6A39
:10488800E806FDE101EE00F0A90EEE6AE806FDE19A
:1048980000EEE2F01B0EEE6AE806FDE100EE2EF0F7
:1048A800180EEE6AE806FDE146904692000EF86E94
:1048B8000001CDEF28F01C6E8394838283901CA89E
:1048C80002D0838801D083981CAA02D0838A01D0A1
:1048D800839A1CAC02D0838C01D0839C1CAE02D07E
:1048E800838E01D0839E8380F1EC28F08390F1ECD5
:1048F80028F01CA002D0838801D083981CA202D083
:10490800838A01D0839A1CA402D0838C01D0839C13
:104918001CA602D0838E01D0839E8380F1EC28F000
:104928008390F1EC28F01200000E1F6E1BAE06D02B
:104938001A6C1B1ED8B01B2A010E1F6E1DAE04D0A8
:104948001C6C1D1ED8B01D2A1C501D10D8B418D0C0
:10495800010E1E6E04D0D8901C361D361E2A1DAEC0
:10496800FAD71C501A5C1D501B58D8A004D01C50F4
:104978001A5E1D501B5AD8901D321C321E2EF1D7BC
:104988001F50D8B404D01A6C1B1ED8B01B2A1AC0EA
:104998001AF01BC01BF012001E6E000E1F6E110EC7
:1049A8001D602FD01ED01DC01FF01F5008EC25F031
:1049B80026D01D50400F1F6E1F5008EC25F01FD049
:1049C8001D50140F1F6E1F5008EC25F018D01D50F5
:1049D800540F1F6E1F5008EC25F011D0000E1F6EEB
:1049E8000ED01E50010AD8B4DED7030AD8B4E1D7D6
:1049F800010AD8B4E5D7070AD8B4E9D7EFD71D2AF2
:104A08001200000E1F6E12001C6E83948392839016
:104A1800838E1CA802D0838801D083981CAA02D058
:104A2800838A01D0839A1CAC02D0838C01D0839CEA
:104A38008380F1EC28F08390F1EC28F01CA002D0E0
:104A4800838801D083981CA202D0838A01D0839ADC
:104A58001CA402D0838C01D0839C1CA602D0838E18
:104A680001D0839E8380F1EC28F08390F1EC28F04C
:104A780012001E6E1E50D8B402D00B0E12001E502B
:104A8800020D340EF324D96E000EF420DA6EDECF58
:104A98001CF0DDCF1DF01C501D10D8B406D01CC072
:104AA800D9FF1DC0DAFF000EDF6E1A501B10D8B4F4
:104AB80006D01AC0D9FF1BC0DAFF000EDF6E1E50E9
:104AC800020D340EF324D96E000EF420DA6E1AC0EB
:104AD800DEFF1BC0DDFF000E12001E501F1020104D
:104AE8002110D8B424D0010E226E06D0D8901E36DC
:104AF8001F3620362136222A21AEF8D71E501A5CDE
:104B08001F501B5820501C5821501D58D8A008D0A1
:104B18001E501A5E1F501B5A20501C5A21501D5AF5
:104B2800D890213220321F321E32222EE7D71AC0E7
:104B38001AF01BC01BF01CC01CF01DC01DF0120099
:104B48008E0E2A6E06D0D890253224322332223295
:104B58002A2A000E2214266E000E2314276E000E39
:104B68002414286EFF0E2514296E265027102810AD
:104B78002910D8A4E8D722C01AF023C01BF024C0FB
:104B88001CF02AC01DF0000E1E6EC5EC20F01AC0E5
:104B980022F01BC023F01CC024F01200000E3C6E53
:104BA800000E1C6EF29E22D01C5000081A6E070ED2
:104BB8001A2681AA03D01B6A1B2A01D01B6A1A2A4B
:104BC80002D0D8901B361A2EFCD71B503C12780EF8
:104BD800E82EFED78A8C780EE82EFED7780EE82EBF
:104BE800FED78A9C780EE82EFED71C2A070E1C6476
:104BF800DBD7F28E3C5012001AC020F01BC021F007
:104C08001CC022F01DC023F019D022C0F6FF23C01B
:104C1800F7FFF86A20C0D9FF21C0DAFF070EF76452
:104C280003D00800F55005D0F6CFE9FFF7CFEAFF2B
:104C3800EF50DF6E224A232A204A212A1E06D8A0D6
:104C48001F061E28E2E11F28D8B41200DED7000E86
:104C5800226E000E236E000E246E000E256E1AA022
:104C680008D01E5022261F502322205024222150D3
:104C78002522D8901E361F3620362136D8901D3270
:104C88001C321B321A321A501B101C101D10D8A4CB
:104C9800E6D722C01AF023C01BF024C01CF025C0A0
:104CA8001DF01200266E1DD0000E1D6E010ED0ECF8
:104CB80024F0F90E1D6E610E1E6EABEC26F0FFD7C8
:104CC800EBEC27F0276E27501200000E1D6E010E28
:104CD800D0EC24F0060E1D6E620E1E6EABEC26F0B4
:104CE800FFD72650000AD8B4DFD7010AD8B4E8D7CE
:104CF800030AD8B4EAD7010E120028502910D8B4F4
:104D080014D028C0D9FF29C0DAFFDF50D8B40DD09D
:104D180020EE06F02850D9262950DA222A50DE182B
:104D280004E12B50DE18D8B402D0090E120020EE90
:104D380001F02850D9262950DA22DF5056EC26F007
:104D48002C6E2CA002D0030E1200000E120014D0FC
:104D58001DC0F6FF1EC0F7FFF86A070EF76403D000
:104D68000800F55005D0F6CFE9FFF7CFEAFFEF507E
:104D78005FEC24F01D4A1E2A1DC0F6FF1EC0F7FF77
:104D8800F86A070EF76403D00800F55005D0F6CF8F
:104D9800E9FFF7CFEAFFEF500009D8B41200D8D7DF
:104DA8001AC01FF01BC020F002D01F4A202A1FC0C3
:104DB800D9FF20C0DAFFDF50D8B409D0F6D71F4A90
:104DC800202A010E1C26000E1D22000E1E221CC0C9
:104DD800F6FF1DC0F7FF1EC0F8FF1FC0D9FF20C097
:104DE800DAFF0800F5CFDFFFDF50D8B41200E7D7AD
:104DF80000016C6F18D06D51120065C023F066C0B9
:104E080024F067C025F068C026F069C027F06AC0A2
:104E180028F06BC029F065EC1AF000016D6F6D5138
:104E280012006D51120000016C51000AD8B4E3D78A
:104E3800010AD8B4E2D7030AD8B4F3D7040E120093
:104E480000016F6F18D07051120068C023F069C05C
:104E580024F06AC025F06BC026F06CC027F06DC046
:104E680028F06EC029F00CEC19F00001706F705139
:104E780012007051120000016F51000AD8B4E3D734
:104E8800010AD8B4E2D7030AD8B4F3D7040E120043
:104E98001B6E8A9E000E1A6EF29E18D01BBE02D0A0
:104EA8008A9E01D08A8E1B501B241B6E780EE82E1A
:104EB800FED78A8C780EE82EFED78A9E780EE82ECA
:104EC800FED78A9C780EE82EFED71A2A070E1A6497
:104ED800E5D7F28E12000001885189118A11D8B4E1
:104EE80006D0000E881B000E891B800E8A1B85C009
:104EF80079F086C07AF087C07BF088C07CF089C0E2
:104F08007DF08AC07EF035EC18F079C085F07AC063
:104F180086F07BC087F012001E6E100E1C6E940E79
:104F2800E82EFED71C2EFCD700D0000E206E000EF7
:104F38001F6E07D08A88FF0E4CEC27F08A981F4A0C
:104F4800202A1E501C6E1D6A1C501F5C1D502058C4
:104F5800D8B01200EFD7216EFF0E4CEC27F021508D
:104F68004CEC27F01FC022F022504CEC27F01EC05A
:104F780022F022504CEC27F01DC022F022504CECBD
:104F880027F01CC022F022504CEC27F020504CECAB
:104F980027F012001AC01EF01BC01FF002D01E4AD4
:104FA8001F2A1EC0D9FF1FC0DAFFDF50D8A4F7D7C9
:104FB8001AC01CF01BC01DF01C1E1D1E1C4A1D2AF9
:104FC8001E501C241A6E1F501D201B6E1200080E46
:104FD80090EC27F0000E1C6E000E1D6E000E1E6E6B
:104FE800000E1F6E950E206E400EAFEC27F075EC8C
:104FF80029F0246E090E2364FAD72450D8A402D0CD
:105008002550120025501200380E0001EA6F420E9A
:10501800EB6FA40EEC6F2E0EED6F130EE76F880E7C
:10502800E66F130EE96F880EE86F130EE36F880EB4
:10503800E26F130EE56F880EE46F000E436E1200E8
:10504800000E256E23AE06D0226C231ED8B0232A6C
:10505800010E256E22C01AF023C01BF01C6A8E0EAA
:105068001D6E25C01EF0C5EC20F01AC022F01BC032
:1050780023F01CC024F012001AC020F01BC021F03D
:1050880008D020C0D9FF21C0DAFF1CC0DFFF204AAA
:10509800212A1E06D8A01F061E28F3E11F28D8B40F
:1050A8001200EFD71AC020F01BC021F008D020C092
:1050B800D9FF21C0DAFF1CC0DFFF204A212A1E06C3
:1050C800D8A01F061E28F3E11F28D8B41200EFD776
:1050D8009CC08FF09DC090F0D7EC13F000019E6F3C
:1050E8009E51D8A412009CC0D9FF9DC0DAFF000EC3
:1050F800DE6E000EDD6E12001D6E06D01E50120010
:105108001E5012001E5012001D50000AD8B4F6D7C7
:10511800010AD8B4F5D7030AD8B4F4D7040E12009C
:105128001C6E010E1B6E200E1C18D8B408D00E0E73
:105138001C6003D0090E1C6002D0000E1B6E1BC041
:105148001AF01A30120028502A02F3CF2CF0F4CFAC
:105158002DF028502B02F3502D2629502A02F35007
:105168002D262CC028F02DC029F0120000016F5107
:1051780070117111D8B406D0000E6F1B000E701B91
:10518800800E711B6FC06FF070C070F071C071F04D
:1051980012003AEC29F0C3EC21F06FEC29F008EC8E
:1051A80028F00F0EC16E4404D8A4FDD7000E446E3B
:1051B80071EC21F0F8D77EC072F07FC073F0000E5A
:1051C8000001746F000E756FD1EC0EF072C07EF0A6
:1051D80073C07FF074C080F01200000E1A6E630E68
:1051E8001A6401D0120000F0000E1B6E310E1B6411
:1051F80001D003D000F01B2AF9D71A2AF0D71C6E69
:10520800000E1B6E3A0E1C6005D02F0E1C6402D0D7
:10521800010E1B6E1BC01AF01A301200636865631A
:105228006B2E74787400000000000030303030308D
:095238003000303030303030001D
:10524200C30ED56E000E656E000E636E000E1B6EF1
:10525200830E1A6E4EEC29F01200210E936E8A68AC
:10526200000E956E070E926E110E946E030E966EE0
:10527200120081EC29F02EEC29F021EC29F069ECE6
:1052820029F045EC29F01200F00EF26E000EF16EDC
:10529200000EF06E200E9D6E12001AC01CF01BC094
:1052A2001DF01DC0D7FF1CC0D6FF120001C003F0C5
:1052B20002C004F004C0D7FF03C0D6FF12009EAAAA
:1052C200FED7ABA203D0AB9800F0AB88AE50120071
:1052D200040ECA6E000ECC6ECB681200939C938AA9
:1052E200939E8A9C8A9E12008A98D2EC25F01D6EAB
:1052F2001D5012008A98FF0E4CEC27F08A8812008B
:08530200D388D38AD38C12007A
:1060F40000010000000A00000064000000E8030042
:106104000010270000A086010040420F00809698EE
:106114000000E1F50500CA9A3B00803F00204100E1
:10612400C842007A44401C4650C347247449971817
:106134004BBCBE4C6B6E4E03155079AD60F3497188
:1061440000803FCDCC3DD7233C12833AB7D138C62B
:106154002737388635C0D633CC2B32708930E7DB0D
:106164002EE53C1E42A20D2049676E204F6E0000B2
:1061740000000000000000002049676E20437261A7
:106184006E6B000000000000002049676E204F661F
:106194006600000000000000000053504920636FB7
:1061A4006E666967757261646121004552524F528F
:1061B400206F70656E2066696C6500496E73697244
:1061C40061206F2043617274616F00222A2B2C3A84
:1061D4003C3D3E3F5B5D7C7F004279746573206388
:1061E400726961646F210043617274616F2041635D
:1061F4006569746F004E4F20415441204452495602
:1062040045004E4F205553422044524956450053B1
:10621400454D20534443415244212100426C6F6355
:106224006F206465203531320046696C65207772D1
:106234006F7465210048656C6C6F20576F726C64D5
:10624400004552524F52206D6F756E740045727244
:106254006F722121210025643A25643A256400489F
:106264006F72613A00446174613A00252E303766DA
:0C627400004C6F6E3A000D0A007C000028
:020000040020DA
:08000000FFFFFFFFFFFFFFFF00
:020000040030CA
:0E000000040C1F1EFF8081FF0FC00FE00F4099
:00000001FF
