:0400000007EF00F016
:100008005682E0ED1EF0B4EF21F088C099F08B51D4
:10001800D96EDA6A000EDE6E000EDD6E20EE04F098
:100028008651D9268751DA22DECF10F0DDCF11F0C4
:1000380086C0D9FF87C0DAFFDECF12F0DDCF13F01C
:10004800C6EC29F00001986F9851D8A4120020EE50
:1000580002F08651D9268751DA22DFBE120020EE3F
:1000680002F08651D9268751DA22DFA2120020EE4B
:100078000AF08651D9268751DA2210EE0AF0865105
:10008800E1268751E222E6CF90F0E6CF91F0E6CF65
:1000980092F0E6CF93F089519025946F8A5191217F
:1000A800956F000E9221966F000E9321976FDE5088
:1000B800945DDE509559DE509659DE509759D8A078
:1000C80012002DD220EE06F08651D9268751DA2269
:1000D800FF0EDE148C6F010EDE148D6F000EDE1421
:1000E8008E6F000EDE148F6F8C518D118E118F1153
:1000F800D8A45ED120EE04F08651D9268751DA22A1
:1001080010EE1DF0DE50E126DD50E22220EE03F075
:100118008651D9268751DA22E650DE5CD8A06BD00A
:1001280020EE06F08651D9268751DA22DE50DE10FD
:10013800DE10DE10D8A423D020EE0EF08651D9268A
:100148008751DA22DECFA0F0DDCFA1F0A051A111B6
:10015800D8A425D0000E796F000E786FBBEC16F08E
:1001680078C0A0F079C0A1F020EE0EF08651D92613
:100178008751DA22A0C0DEFFA1C0DDFF10D020EE3B
:1001880010F08651D9268751DA22DECF78F0DDCFFC
:1001980079F0BBEC16F078C0A0F079C0A1F0A051BE
:1001A800A111D8B4C0D1A005A111D8B4EFD120EEC7
:1001B80004F08651D9268751DA2210EE16F0DE5067
:1001C800E126DD50E222E650A05DE650A159D8B004
:1001D800DDD120EE10F08651D9268751DA22A0C051
:1001E800DEFFA1C0DDFF20EE03F08651D92687513E
:1001F800DA22000EDF6E20EE10F08651D9268751E4
:10020800DA22DECF16F0DDCF17F004EC21F0000182
:1002180020EE03F08651D9268751DA22DF508C6F01
:100228008C5116249A6F000E17209B6F000E182011
:100238009C6F000E19209D6F89C08CF08AC08DF0CC
:10024800090E8E6FD8908D338C338E2FFBD78CC0D0
:100258009EF08DC09FF09E519F11D8B46AD020EEB9
:1002680003F08651D9268751DA22DF508C6F8C51E2
:100278009E258D6F000E9F218E6F20EE04F0865113
:10028800D9268751DA2210EE1DF0DE50E126DD5026
:10029800E222E7508F6F906B8D518F5D8E51905990
:1002A800D8B01CD020EE04F08651D9268751DA2226
:1002B80010EE1DF0DE50E126DD50E222E7508C6F93
:1002C80020EE03F08651D9268751DA22DF508D6F50
:1002D8008D518C5D9E6F9F6BD8A09F0799C029F0A8
:1002E8002A6A9AC02BF09BC02CF09CC02DF09DC0B0
:1002F8002EF09EC02FF0000E34EC29F00009D8A48F
:1003080045D1000120EE03F08651D9268751DA2223
:100318009E51DF269EC08CF09FC08DF0090ED890AC
:100328008C378D37E82EFBD78CC0A2F08DC0A3F098
:10033800DCD020EE0AF08651D9268751DA2210EE59
:1003480006F08651E1268751E222DE50E65CDE5057
:10035800E658DE50E658DE50E658D8A022D0000E07
:10036800356E000E366E000E376E000E386E15ECC8
:1003780015F00009D8B40AD1000120EE04F0865126
:10038800D9268751DA2210EE04F0DE50E126DD503E
:10039800E2229AC0E6FF9BC0E6FF9CC0E6FF9DC034
:1003A800E6FF20EE03F08651D9268751DA22DF2AAC
:1003B80020EE10F08651D9268751DA22DECF16F0CA
:1003C800DDCF17F004EC21F0000120EE03F0865198
:1003D800D9268751DA22DF508C6F8C5116248D6F05
:1003E800000E17208E6F000E18208F6F000E192038
:1003F800906FFF0E8D259A6FFF0E8E219B6FFF0E5B
:100408008F219C6FFF0E90219D6F9AC035F09BC085
:1004180036F09CC037F09DC038F015EC15F0000997
:10042800D8B4B4D0FF0E00018C6F010E8D6F20EE92
:1004380006F08651D9268751DA22DECF8EF0DDCF3D
:100448008FF08C518E178D518F178E510008A26F27
:100458008F51D8A0E82A0208A36FA251895DA35141
:100468008A59D8B004D089C0A2F08AC0A3F0FF0E80
:100478008C6F010E8D6F20EE06F08651D9268751BC
:10048800DA22DECF8EF0DDCF8FF08C518E178D51B2
:100498008F1720EE04F08651D9268751DA22DECF55
:1004A80090F0DDCF91F08E5190278F519123200E3F
:1004B80090250A6E000E91210B6E99C00CF00D6A02
:1004C800A2C00EF0A3C00FF00DEC2AF0000120EE40
:1004D80004F08651D9268751DA2210EE1FF0DE503B
:1004E800E126DD50E222010EE76EA251992720EEA7
:1004F80006F08651D9268751DA22A251DE26A35169
:10050800DE22000EDE22DE228B51D96EDA6AA2517B
:10051800DE26A351DD22A251895FA3518A5B89514E
:100528008A11D8A4CFD520EE06F08651D926875156
:10053800DA2210EE0AF08651E1268751E222DE50D7
:10054800E65CDE50E658DE50E658DE50E658D8B095
:1005580014D020EE06F08651D9268751DA2210EE03
:100568000AF08651E1268751E222DECFE6FFDECF90
:10057800E6FFDECFE6FFDECFE6FF20EE02F0865193
:10058800D9268751DA22000EDB8A1200000120EEFC
:1005980002F08651D9268751DA22000EDB8E12002E
:1005A8003D50D96EDA6ADECF82F0DDCF83F003D01A
:1005B8000001824B832B82C0F6FF83C0F7FFF86AE5
:1005C800070EF76403D00800F55005D0F6CFE1FF19
:1005D800F7CFE2FFE750200AD8B4EAD782C0F6FF87
:1005E80083C0F7FFF86A070EF76403D00800F550D8
:1005F80005D0F6CFE1FFF7CFE2FFE7502F0AD8A4E6
:1006080003D00001824B832B3D50D96EDA6A82C039
:10061800DEFF83C0DDFF4DC08AF04EC08BF00001C5
:100628008A518B11D8A402D00A0E120020EE1CF0B9
:100638008A51D9268B51DA22DF50D8B40FD0000E58
:10064800A6EC2BF00001856F85B108D03E50D8A4E8
:1006580085A502D0090E1200000E12008AC00AF009
:100668008BC00BF0000E0D6E000E0C6E020E0F6E9E
:10067800200E0E6E03EC2CF0000E82EC2CF0000124
:10068800856F85A102D0010E12003E50D8B402D069
:1006980085B5E0D7000E7A6F000E7B6F000E7C6F79
:1006A800000E7D6F7AC035F07BC036F07CC037F025
:1006B8007DC038F0B3EC24F00001846F8405D8A421
:1006C80023D021EEE2F08A51D9268B51DA22DF506D
:1006D800D8B41AD021EEE6F08A51D9268B51DA2205
:1006E800DECF7AF0DECF7BF0DECF7CF0DECF7DF0A0
:1006F8007AC035F07BC036F07CC037F07DC038F06A
:10070800B3EC24F00001846F8451D8A40CD020EEFF
:100718002BF08A51D9268B51DA22DE5004E1020EE1
:10072800DE18D8B402D00B0E120020EE36F08A5133
:10073800D9268B51DA22DECF60F0DDCF61F060C0C0
:1007480086F061C087F0886B896B865187118811A4
:100758008911D8A40ED020EE44F08A51D9268B51A5
:10076800DA22DECF86F0DECF87F0DECF88F0DECF6C
:1007780089F020EE14F08A51D9268B51DA2286C0EE
:10078800DEFF87C0DDFF20EE30F08A51D9268B517D
:10079800DA2210EE1EF08A51E1268B51E222DFCFD9
:1007A800E7FF86C00AF087C00BF088C00CF089C04C
:1007B8000DF020EE1EF08A51D9268B51DA22DF5037
:1007C800606F60510E6E0F6A106A116A66EC28F04D
:1007D8000AC086F00BC087F00CC088F00DC089F005
:1007E800000120EE2EF08A51D9268B51DA22DECF75
:1007F80060F0DDCF61F060517A25626F61517B2135
:10080800636F000E7C21646F000E7D21656F20EE02
:1008180008F08A51D9268B51DA2262C0DEFF63C004
:10082800DEFF64C0DEFF65C0DEFF20EE2DF08A51DA
:10083800D9268B51DA2210EE1DF08A51E1268B5110
:10084800E222DFCFE7FF20EE31F08A51D9268B5123
:10085800DA2210EE02F08A51E1268B51E222DECF35
:10086800E6FFDDCFE5FF20EE33F08A51D9268B5124
:10087800DA22DECF60F0DDCF61F060C07EF061C0CB
:100888007FF0806B816B7E517F1180118111D8A41C
:100898000ED020EE40F08A51D9268B51DA22DECFD5
:1008A8007EF0DECF7FF0DECF80F0DECF81F020EE6D
:1008B80002F08A51D9268B51DA22DECF60F0DDCFE3
:1008C80061F0040E626FD89061336033622FFBD7FA
:1008D8006051636F6151646F656B666B20EE2EF03B
:1008E8008A51D9268B51DA22DECF67F0DDCF68F046
:1008F8006751696F68516A6F6B6B6C6B691F6A1F10
:100908006B1F6C1F692B000E6A236B236C238651A7
:10091800695D6D6F87516A596E6F88516B596F6F3A
:1009280089516C59706F63516D5D716F64516E5967
:10093800726F65516F59736F66517059746F7E513C
:1009480071250A6E7F5172210B6E805173210C6ED6
:10095800815174210D6E20EE1DF08A51D9268B51DC
:10096800DA22DF50756F75510E6E0F6A106A116AC0
:10097800F4EC24F0020E0A240001766F000E0B201E
:10098800776F000E0C20786F000E0D20796F20EE27
:1009980016F08A51D9268B51DA2276C0DEFF77C04D
:1009A800DDFF010E846F7951781106E1F70E765D4F
:1009B8000F0E7759D8A002D0020E846F79517811A2
:1009C80007E1F70E765DFF0E7759D8B0ACD601D0A7
:1009D800AAD620EE08F08A51D9268B51DA22DECF2A
:1009E80060F0DECF61F0DECF62F0DECF63F08651DB
:1009F8006025646F87516121656F88516221666F38
:100A080089516321676F20EE0CF08A51D9268B51EA
:100A1800DA2264C0DEFF65C0DEFF66C0DEFF67C0A5
:100A2800DEFF20EE08F08A51D9268B51DA22DECF7C
:100A380060F0DECF61F0DECF62F0DECF63F020EE53
:100A480002F08A51D9268B51DA22DECF64F0DDCF4D
:100A580065F0040E666FD89065336433662FFBD754
:100A680064516025676F65516121686F000E6221CE
:100A7800696F000E63216A6F865167256B6F875116
:100A880068216C6F885169216D6F89516A216E6F79
:100A980020EE10F08A51D9268B51DA226BC0DEFF86
:100AA8006CC0DEFF6DC0DEFF6EC0DEFF20EE1AF008
:100AB8008A51D9268B51DA22FF0EDE6EFF0EDD6ECB
:100AC80020EE1CF08A51D9268B51DA2284C0DFFF30
:100AD8000101724B732B8AC0D9FF8BC0DAFF72C138
:100AE800DEFF73C1DDFF000E120020EE04F0865118
:100AF800D9268751DA22DECF10F0DDCF11F086C07B
:100B0800D9FF87C0DAFFDECF12F0DDCF13F0C6ECD5
:100B180029F000019C6F9C51D8A4120020EE02F02D
:100B28008651D9268751DA22DFBE120020EE0AF05C
:100B38008651D9268751DA228851DE5C8951DE58E0
:100B48008A51DE588B51DE58D8B016D020EE02F00C
:100B58008651D9268751DA22DFB20ED020EE0AF06C
:100B68008651D9268751DA22DECF88F0DECF89F088
:100B7800DECF8AF0DECF8BF020EE06F08651D92644
:100B88008751DA22DECF9DF0DECF9EF0DECF9FF0D8
:100B9800DECFA0F020EE06F08651D9268751DA2262
:100BA800DE6ADE6ADE6ADD6A20EE03F08651D92647
:100BB8008751DA22FF0EDF6E885189118A118B1155
:100BC800D8B49DD120EE04F08651D9268751DA2277
:100BD80010EE1DF0DE50E126DD50E222E7508C6F6A
:100BE8008CC08DF08E6B8F6B906B090ED8908D3703
:100BF8008E378F379037E82EF9D78DC0A1F08EC089
:100C0800A2F08FC0A3F090C0A4F09D519E119F1137
:100C1800A011D8B493D0FF0E88250A6EFF0E892143
:100C28000B6EFF0E8A210C6EFF0E8B210D6EA1C07C
:100C38000EF0A2C00FF0A3C010F0A4C011F0F4ECA5
:100C480024F00AC08CF00BC08DF00CC08EF00DC0E3
:100C58008FF0FF0E00019D250A6EFF0E9E210B6E80
:100C6800FF0E9F210C6EFF0EA0210D6EA1C00EF08D
:100C7800A2C00FF0A3C010F0A4C011F0F4EC24F04F
:100C88000A5000018C5D0B508D590C508E590D5037
:100C98008F59D8A053D0FF0EA1258C6FFF0EA2212B
:100CA8008D6FFF0EA3218E6FFF0EA4218F6F8C1DF9
:100CB800906F8D1D916F8E1D926F8F1D936FFF0E1C
:100CC8009D25946FFF0E9E21956FFF0E9F21966FB5
:100CD800FF0EA021976F90519415986F915195151B
:100CE800996F925196159A6F935197159B6F20EEB5
:100CF80006F08651D9268751DA2298C0DEFF99C0BE
:100D0800DEFF9AC0DEFF9BC0DEFF20EE06F08651B4
:100D1800D9268751DA22DE50885FDE50895BDE50A3
:100D28008A5BDD508B5B20EE10F08651D926875107
:100D3800DA22DECFA5F0DDCFA6F030D020EE0EF01F
:100D48008651D9268751DA22DECFA5F0DDCFA6F06D
:100D5800A551A611D8A418D0000E796F000E786F8F
:100D6800BBEC16F078C0A5F079C0A6F0A505A611D1
:100D7800D8B4F8D020EE0EF08651D9268751DA2261
:100D8800A5C0DEFFA6C0DDFF20EE10F08651D926F3
:100D98008751DA22A5C0DEFFA6C0DDFFA551A61146
:100DA800D8A463D0ACD020EE02F08651D926875162
:100DB800DA22DFA217D0A5C078F0A6C079F0BBEC84
:100DC80016F078C0A5F079C0A6F0A551A611D8A450
:100DD80013D0A1C088F0A2C089F0A3C08AF0A4C033
:100DE8008BF04DD0A5C04AF0A6C04BF0F4EC12F041
:100DF8004AC0A5F04BC0A6F00001A65104E1020EBE
:100E0800A55DD8A0AFD020EE04F08651D926875131
:100E1800DA2210EE16F0DE50E126DD50E222E6502E
:100E2800A55DE650A659D8B09DD020EE10F08651A9
:100E3800D9268751DA22A5C0DEFFA6C0DDFF20EE45
:100E480006F08651D9268751DA22A151DE26A25111
:100E5800DE22A351DE22A451DE22A151885FA251D5
:100E6800895BA3518A5BA4518B5B8851A15D895131
:100E7800A2598A51A3598B51A459D8A094D720EECE
:100E880006F08651D9268751DA228851DE26895103
:100E9800DE228A51DE228B51DE2220EE03F08651BB
:100EA800D9268751DA2288C08CF089C08DF08AC093
:100EB8008EF08BC08FF00A0E05D0D8908F338E330A
:100EC8008D338C33E82EF9D78C51DF6EFF0E8815E1
:100ED8008C6F010E89158D6F000E8A158E6F000EAE
:100EE8008B158F6F8C518D118E118F11D8B407D03F
:100EF80020EE03F08651D9268751DA22DF2A20EE28
:100F080006F08651D9268751DA2210EE0AF086516A
:100F1800E1268751E222DE50E65CDE50E658DE50DC
:100F2800E658DE50E658D8B0120020EE06F086519A
:100F3800D9268751DA2210EE0AF08651E126875128
:100F4800E222DECFE6FFDECFE6FFDECFE6FFDECF32
:100F5800E6FF20EE02F08651D9268751DA22000EEC
:100F6800DB8A120020EE02F08651D9268751DA2258
:100F7800000EDB8E1200B50ED96F000ECE6F000E7C
:100F8800CD6FCDC0DAF0CEC0DBF0DA2903E1DB2982
:100F9800D8B41200B3C0F6FFB4C0F7FFF86A08006F
:100FA800F5CFDEF0B34BB42BDE51D8B41200250ECA
:100FB800DE19D8B417D0DEC0A4F0A56BB1C0A6F076
:100FC800B2C0A7F092EC2AF0A4C0DAF0A5C0DBF01A
:100FD800DA2903E1DB29D8B470D1000EDB6F010EEA
:100FE800DA6F6BD1000ED36FD3C0D1F0D26BB3C020
:100FF800F6FFB4C0F7FFF86A0800F5CFDEF0B34B90
:10100800B42B300EDE19D8A423D0010ED36FB3C091
:10101800F6FFB4C0F7FFF86A0800F5CFDEF0B34B6F
:10102800B42B16D0D1C00AF0D2C00BF0000E0D6E52
:101038000A0E0C6E95EC2CF00001DE510A26000E0B
:101048000B22D00E0A24D16FFF0E0B20D26FDFD7F0
:101058002F0EDE6503D0390EDE65E4D76C0EDE197F
:10106800D8A40BD0D383B3C0F6FFB4C0F7FFF86A97
:101078000800F5CFDEF0B34BB42B730EDE19D8A4FD
:1010880014D0D951D96EDA6ADECFABF0DDCFACF02F
:10109800B1C0ADF0B2C0AEF03AEC28F0ABC0DAF0B7
:1010A800ACC0DBF0020ED92708D1630EDE19D8A434
:1010B8001BD0D951D96EDA6ADF50BB6FBB51A46F10
:1010C800A56BB1C0A6F0B2C0A7F092EC2AF0A4C0FC
:1010D800DAF0A5C0DBF0020ED927DA2904E1DB2912
:1010E800D8A47BD7EAD079D7000ED46F640EDE1966
:1010F800D8A402D00A0ED46F750EDE19D8A402D077
:101108000A0ED46F580EDE19D8A402D0100ED46F70
:10111800D451D8B41200D3A30DD0D951D96EDA6AFC
:10112800DECFD5F0DECFD6F0DECFD7F0DECFD8F0E9
:10113800040E1FD0640EDE19D8B40ED0D951D96E62
:10114800DA6ADECFBBF0DDCFBCF0BBC0D5F0BCC0E7
:10115800D6F0D76BD86B0CD0D951D96EDA6ADECFFE
:10116800D5F0DDCFD6F0000ED6BFFF0ED76FD86F03
:10117800020ED927640EDE19D8A40ED0800ED85DD1
:10118800D8A00AD0D56DD61FD8B0D62BD71FD8B0C7
:10119800D72B000ED857D385000EDD6F0F0EDC6FEE
:1011A800000ECC6FD5C00AF0D6C00BF0D7C00CF03B
:1011B800D8C00DF0D4510E6E0F6A106A116AC3ECD4
:1011C80026F00A50300F0001DE6F390EDE6502D0BE
:1011D800070EDE27DC07D8A0DD07DC51BD0FD96E6E
:1011E800DA6ADEC0DFFFD5C00AF0D6C00BF0D7C080
:1011F8000CF0D8C00DF0D4510E6E0F6A106A116A47
:10120800F4EC24F00AC0D5F00BC0D6F00CC0D7F02F
:101218000DC0D8F00001DC51DD11D8B406D0D5518D
:10122800D611D711D811D8A4BDD7DC51DD11D8A457
:10123800D3A509D0DC07D8A0DD07DC51BD0FD96ED6
:10124800DA6A2D0EDF6ED1510F08D16FD251D8A0B6
:10125800E82A0008D26F13D0D3B104D0000ED06FA3
:10126800200E03D0000ED06F300ECF6FDC07D8A051
:10127800DD07DC51BD0FD96EDA6ACFC0DFFFDC5164
:10128800DD11D8B40AD0DC51D15DD251800ABB6FD0
:10129800DD51800ABB59D8A0DFD7DC51BD0FBB6F29
:1012A800BBC0ABF0AC6BB1C0ADF0B2C0AEF03AECC5
:1012B80028F0ABC0DAF0ACC0DBF0DA51CD27DB5157
:1012C800CE2363D620EE04F09851D9269951DA221C
:1012D800000EDE6E000EDD6E1F0E9C179A0E3D6E20
:1012E8009C511E0B3E6ED4EC02F00001B36FB3515B
:1012F800D8B402D0B3511200B60E7E6FA10E7F6F24
:101308009AC080F09BC081F0B40E826F41EC0FF060
:101318000001B36F9CC09DF01C0E9D17D8B4E0D09F
:10132800B351D8B435D0020EB319D8A4E3D7B60E4A
:10133800866FB40E876F81EC10F00001B36FB35164
:10134800D8A4D8D7B4C00AF0B5C00BF0000E0D6E03
:10135800000E0C6E000E0F6E200E0E6E03EC2CF0BD
:10136800B4C00AF0B5C00BF0A10E0C6E0D6A000EE9
:101378000F6E0B0E0E6E0DEC2AF0000120EE0CF035
:10138800B451D926B551DA22ACC0DFFF9C877BD097
:101398009CA502D0070E1200B451B511D8B40CD0D8
:1013A80020EE0BF0B451D926B551DA22DF509D6FEB
:1013B800110E9D17D8B402D0060E12009CA763D058
:1013C80020EE1AF0B451D926B551DA22DECFADF0AD
:1013D800DDCFAEF020EE1AF0B451D926B551DA229D
:1013E800000EDE6E000EDD6E20EE1CF0B451D92624
:1013F800B551DA22DE6ADE6ADE6ADD6A20EE1FF0A7
:10140800BA51D926BB51DA22010EDF6E20EE04F064
:10141800BA51D926BB51DA22DECFAFF0DECFB0F019
:10142800DECFB1F0DECFB2F0ADC078F0AEC079F06B
:10143800B1EC22F00009D8B40DD0AFC035F0B0C07F
:1014480036F0B1C037F0B2C038F015EC15F000092D
:10145800D8A402D0080E1200FF0E00019D6FFF0EE7
:101468009E6FADC09FF0AEC0A0F09D519F279E51CA
:10147800A02320EE18F0BA51D926BB51DA229FC01A
:10148800DEFFA0C0DDFF9CA746D020EE0BF0B451D4
:10149800D926B551DA22000EDF6E58EC1AF00EC0CC
:1014A800AFF00FC0B0F010C0B1F011C0B2F0000141
:1014B80020EE0EF0B451D926B551DA22AFC0DEFFC6
:1014C800B0C0DEFFB1C0DEFFB2C0DEFF20EE1FF00D
:1014D800BA51D926BB51DA22010EDF6E9C8B1BD084
:1014E800B351D8A407D7B451B511D8B408D020EE59
:1014F8000BF0B451D926B551DA22DFA802D0020E7A
:1015080012009CA308D020EE0BF0B451D926B55197
:10151800DA22DFB051D720EE04F0BA51D926BB51F8
:10152800DA2210EE16F09851E1269951E222DECF28
:10153800E6FFDECFE6FFDECFE6FFDECFE6FF20EEFA
:101548001AF09851D9269951DA22B4C0DEFFB5C0F5
:10155800DDFF20EE02F09851D9269951DA229CC07D
:10156800DFFF20EE1AF0B451D926B551DA2210EE79
:101578000EF09851E1269951E222DECFE6FFDDCF49
:10158800E5FF20EE1CF0B451D926B551DA2210EE51
:101598000AF09851E1269951E222DECFE6FFDECF2C
:1015A800E6FFDECFE6FFDECFE6FF20EE06F098513D
:1015B800D9269951DA22DE6ADE6ADE6ADD6A20EE11
:1015C80003F09851D9269951DA22FF0EDF6E20EEEA
:1015D80004F09851D9269951DA22BAC0DEFFBBC06F
:1015E800DDFFBAC0D9FFBBC0DAFF98C0E1FF99C0E0
:1015F800E2FFDECFE6FFDDCFE5FF000E1200136E3F
:1016080010C00AF011C00BF071EC2AF065D1000E81
:10161800146E10C0F6FF11C0F7FFF86A070EF764E2
:1016280003D00800F55005D0F6CFE1FFF7CFE2FF71
:10163800E7500009D8B417D010C0F6FF11C0F7FF63
:10164800F86ACA0E1424D96EDA6A010EDA22070E75
:10165800F76403D00800F55005D0F6CFE1FFF7CFC7
:10166800E2FFE750DF6E104A112A142A060E1464AE
:10167800D0D71200000E146E10C0F6FF11C0F7FF8D
:10168800F86A070EF76403D00800F55005D0F6CFC6
:10169800E1FFF7CFE2FFE7500009D8B417D010C038
:1016A800F6FF11C0F7FFF86AD80E1424D96EDA6A6B
:1016B800010EDA22070EF76403D00800F55005D0B2
:1016C800F6CFE1FFF7CFE2FFE750DF6E104A112AAD
:1016D800142A050E1464D0D71200000E146E10C020
:1016E800F6FF11C0F7FFF86A070EF76403D0080089
:1016F800F55005D0F6CFE1FFF7CFE2FFE75000093C
:10170800D8B417D010C0F6FF11C0F7FFF86AB20EB0
:101718001424D96EDA6A010EDA22070EF76403D0B0
:101728000800F55005D0F6CFE1FFF7CFE2FFE7500C
:10173800DF6E104A112A142A0A0E1464D0D7120038
:10174800000E146E10C0F6FF11C0F7FFF86A070EFE
:10175800F76403D00800F55005D0F6CFE1FFF7CFC6
:10176800E2FFE7500009D8B417D010C0F6FF11C047
:10177800F7FFF86A980E1424D96EDA6A010EDA2295
:10178800070EF76403D00800F55005D0F6CFE1FF47
:10179800F7CFE2FFE750DF6E104A112A142A0B0E2A
:1017A8001464D0D7120010C0F6FF11C0F7FFF86A12
:1017B800070EF76403D00800F55005D0F6CFE1FF17
:1017C800F7CFE2FFE7500001F56F1200000E146E2C
:1017D80010C0F6FF11C0F7FFF86A140E1424D96E72
:1017E800DA6A020EDA22070EF76403D00800F55011
:1017F80005D0F6CFE1FFF7CFE2FFE750DF6E104AE2
:10180800112A142A030E1464E3D71200000E146E72
:1018180010C0F6FF11C0F7FFF86A120E1424D96E33
:10182800DA6A020EDA22070EF76403D00800F550D0
:1018380005D0F6CFE1FFF7CFE2FFE750DF6E104AA1
:10184800112A142A030E1464E3D71200000E146E32
:1018580010C0F6FF11C0F7FFF86A070EF76403D04F
:101868000800F55005D0F6CFE1FFF7CFE2FFE750CB
:10187800200AD8B42AD010C0F6FF11C0F7FFF86AC2
:10188800070EF76403D00800F55005D0F6CFE1FF46
:10189800F7CFE2FFE7500009D8B417D010C0F6FF21
:1018A80011C0F7FFF86ADE0E1424D96EDA6A010E49
:1018B800DA22070EF76403D00800F55005D0F6CFFA
:1018C800E1FFF7CFE2FFE750DF6E104A112A142A32
:1018D800050E1464BDD712001350000AD8B497D669
:1018E800010AD8B4C7D6030AD8B4F7D6010AD8B4BF
:1018F80027D7070AD8B457D7010AD8B467D7030A35
:10190800D8B484D7010AD8A41200A0D7000E226E3A
:10191800000E216E000E286E000E276E000E296E36
:10192800100E1D6E940EE82EFED71D2EFCD700D08B
:10193800640ED1EC2AF0E3EC23F0AA0E0F6E010E30
:10194800106E000E116E000E126E870E136E480E8A
:10195800B5EC27F0F9EC2DF0F3EC2DF0256E25040D
:10196800D8A404D02550246E236A06D0AA0E2518C0
:10197800D8A402D025502312214A222AAA0E2318BD
:1019880003E12404D8B408D022BEE6D7E80E215CCF
:10199800030E2258D8A0E0D7AA0E231802E1240487
:1019A800D8A499D0000E286E000E276E0A0ED1EC2E
:1019B8002AF0000E0F6E000E106E000E116E000E53
:1019C800126E000E136E770EB5EC27F0F9EC2DF0C1
:1019D800F3EC2DF0296E274A282A2904D8B408D018
:1019E80028BEF6D7285004E10A0E275CD8A0F0D705
:1019F800000E286E000E276E0A0ED1EC2AF0000E9B
:101A08000F6E000E106E000E116E400E126E000E5C
:101A1800136E690EB5EC27F0F9EC2DF0F3EC2DF010
:101A2800296E274A282A2950D8A4C0D70A0ED1ECF3
:101A38002AF0000E0F6E000E106E000E116E000ED2
:101A4800126EFF0E136E7A0EB5EC27F0F9EC2DF03E
:101A5800F3EC2DF0296E29502924800B266E274A95
:101A6800282A2650D8B40BD02604D8B408D028BECB
:101A7800EFD7285004E10A0E275CD8A0E9D72650F2
:101A8800D8B403D02604D8A48DD7100E1D6E940E9A
:101A9800E82EFED71D2EFCD700D0000E206E265053
:101AA800D8A4A6D00A0ED1EC2AF0000E0F6E020EB2
:101AB800106E000E116E000E126EFF0E136E500E99
:101AC800B5EC27F0F9EC2DF0F3EC2DF0296E295048
:101AD800D8B48ED0F9D7000E286E000E276E010EEE
:101AE800D1EC2AF0000E0F6E000E106E000E116E73
:101AF800000E126EFF0E136E690EB5EC27F0F9ECAE
:101B08002DF0F3EC2DF0296E274A282A2950D8A465
:101B18000BD0000E0D6E010E58EC27F01E0E0D6E48
:101B2800620E0E6EBAEC28F0100E1D6E940EE82EA2
:101B3800FED71D2EFCD700D02950D8B408D028BE17
:101B4800E0D7100E275C270E2858D8A0DAD70A0E3F
:101B580027182810D8A434D0000E286E000E276E3F
:101B68000A0ED1EC2AF0000E0F6E000E106E000E59
:101B7800116E000E126EFF0E136E410EB5EC27F0BB
:101B8800F9EC2DF0F3EC2DF0296E274A282A29507C
:101B9800D8A40BD0000E0D6E010E58EC27F0E00E05
:101BA8000D6E610E0E6EBAEC28F02950D8B408D02C
:101BB80028BEE8D7100E275C270E2858D8A0E2D7F1
:101BC8000A0ED1EC2AF0000E0F6E020E106E000EF7
:101BD800116E000E126EFF0E136E500EB5EC27F04C
:101BE800F9EC2DF0F3EC2DF0296E2950D8A4FAD792
:101BF8002050120084A003D05004D8A4E2D0EA51A7
:101C0800EB11D8A461D0E9B10CD0080E0D6E010E0D
:101C180058EC27F0490E0D6E620E0E6EBAEC28F0E5
:101C28003CD0080E0D6E010E58EC27F0610E0D6EBB
:101C3800620E0E6EBAEC28F00D0E0D6E010E58EC09
:101C480027F00001E7A103D0366A362A01D0366AA8
:101C580036502B6E2C6A2D6A2E6AB2EC2AF00E0EC4
:101C68000D6E010E58EC27F07C0E0D6E620E0E6E96
:101C7800BAEC28F00F0E0D6E010E58EC27F000019B
:101C8800E8A103D0366A362A01D0366A36502B6E60
:101C98002C6A2D6A2E6AB2EC2AF023EC2EF00AC0C8
:101CA80037F00BC038F0080E0D6E020E58EC27F016
:101CB80037C0D9FF38C0DAFFDF50E9EC25F0270E2E
:101CC8000001EB6F100EEA6F4F04D8B478D0010E04
:101CD800506E010E2BEC24F0000E0D6E010E58EC28
:101CE80027F0420E0D6E620E0E6EBAEC28F000015F
:101CF800E9B10CD0080E0D6E010E58EC27F0490E14
:101D08000D6E620E0E6EBAEC28F03CD0080E0D6E09
:101D1800010E58EC27F0500E0D6E620E0E6EBAECE6
:101D280028F00D0E0D6E010E58EC27F00001E7A10A
:101D380003D0366A362A01D0366A36502B6E2C6AA2
:101D48002D6A2E6AB2EC2AF00E0E0D6E010E58ECBA
:101D580027F07C0E0D6E620E0E6EBAEC28F00F0E98
:101D68000D6E010E58EC27F00001E8A103D0366A89
:101D7800362A01D0366A36502B6E2C6A2D6A2E6AA6
:101D8800B2EC2AF023EC2EF00AC037F00BC038F082
:101D9800000E0D6E020E58EC27F05C0E0D6E620EF2
:101DA8000E6EBAEC28F0080E0D6E020E58EC27F0F5
:101DB80037C0D9FF38C0DAFFDF50E9EC25F0010E53
:101DC8004F6E84A204D0020E5018D8A433D000015C
:101DD800EA51EB11D8A409D031EC2DF0ECEC2BF042
:101DE800070E0001EB6FD00EEA6F020E4F18D8B441
:101DF8001FD0020E506E010E2BEC24F0000E0D6E5B
:101E0800010E58EC27F06F0E0D6E620E0E6EBAECD6
:101E180028F0000E0D6E020E58EC27F06B0E0D6EBA
:101E2800620E0E6EBAEC28F031EC2DF0ECEC2BF0D3
:101E3800020E4F6E5050D8A41200040E4F18D8B49A
:101E480019D0010E2BEC24F0000E0D6E010E58EC8B
:101E580027F0280E0D6E620E0E6EBAEC28F0000EFA
:101E68000D6E020E58EC27F03A0E0D6E620E0E6ED5
:101E7800BAEC28F0040E4F6E12004DC08BF04EC025
:101E88008CF07E51D96EDA6A040ED9268BC0DEFF3B
:101E98008CC0DDFF20EE0CF08B51D9268C51DA2254
:101EA800DECF8DF0DDCF8EF07E51D96EDA6A060E68
:101EB800D926000EDE6E000EDD6E7E51E16EE26AFE
:101EC800080EE126DECFE6FFDDCFE5FF8D51836FFB
:101ED8008E51846F856B866B7E51D96EDA6A0A0ED5
:101EE800D92683C0DEFF84C0DEFF85C0DEFF86C042
:101EF800DEFF7E51D96EDA6A020ED926000EDE6E3A
:101F0800000EDD6E80C0F6FF81C0F7FFF86A070E8D
:101F1800F76403D00800F55005D0F6CFE1FFF7CFFE
:101F2800E2FFE7500009D8A40AD000018251D96E17
:101F3800DA6A000EDE6E000EDD6E000E1200800EF4
:101F4800126E7FC013F0ABEC19F000018F6F8F0594
:101F5800D8A402D0040E120000017E51D96EDA6AAC
:101F68000A0ED926DECF35F0DECF36F0DECF37F0D9
:101F7800DECF38F015EC15F00009D8A402D0080E11
:101F8800120000017E51D96EDA6A020ED926DECF20
:101F980083F0DDCF84F00F0E8317000E8417050E33
:101FA800D89083378437E82EFBD78BC085F08CC058
:101FB80086F08351852784518623200E8525906FCE
:101FC800000E8621916F90C0D9FF91C0DAFFDF50D3
:101FD800D8A40DD08F51D8B404D0000E886F030E4A
:101FE80003D0000E886F020E876F8751120090C0D1
:101FF800D9FF91C0DAFFE50EDE18D8B419D020EE6B
:102008000BF09051D9269151DA22DFB611D090C049
:102018000AF091C00BF07FC00CF00D6A000E0F6E35
:102028000B0E0E6E9AEC23F00A500B10D8B415D094
:102038007EC04CF047EC18F00009D8A48DD70001F9
:102048008F51D8B404D0000E8A6F030E03D0000E4F
:102058008A6F020E896F8951120000018F51D8A42E
:1020680008D08251D96EDA6A90C0DEFF91C0DDFFD8
:1020780064D720EE0BF09051D9269151DA22DFB8BF
:1020880002D0030E120020EE1AF09051D926915179
:10209800DA22DECF8DF0DDCF8EF07E51D96EDA6A8E
:1020A800060ED9268DC0DEFF8EC0DDFF7E51E16EA3
:1020B800E26A080EE126DECFE6FFDDCFE5FF8DC040
:1020C80016F08EC017F004EC21F000017E51D96E95
:1020D800DA6A0A0ED92616C0DEFF17C0DEFF18C05E
:1020E800DEFF19C0DEFF7E51D96EDA6A020ED926EC
:1020F800020EDE6E000EDD6E22D78651D96EDA6AC8
:10210800040ED926DECF96F0DDCF97F08651D96E32
:10211800DA6A060ED926DECF94F0DDCF95F0945119
:102128009511D8B41ED08651D96EDA6A080ED92610
:1021380094C0DEFF95C0DDFF94C016F095C017F07F
:1021480004EC21F000018651D96EDA6A0A0ED9260C
:1021580016C0DEFF17C0DEFF18C0DEFF19C0DEFFA5
:1021680013D020EE0CF09651D9269751DA228651D9
:10217800E16EE26A0A0EE126DECFE6FFDECFE6FF79
:10218800DECFE6FFDECFE6FF8651D96EDA6A020EB1
:10219800D926000EDE6E000EDD6E00018651D96E66
:1021A800DA6A0A0ED926DECF35F0DECF36F0DECF7A
:1021B80037F0DECF38F015EC15F00009D8A402D0BE
:1021C800080E120000018651D96EDA6A020ED9266D
:1021D800DECF88F0DDCF89F00F0E8817000E891743
:1021E800050ED89088378937E82EFBD796C08AF035
:1021F80097C08BF088518A2789518B23200E8A2516
:10220800916F000E8B21926F91C0D9FF92C0DAFFB7
:10221800DF50936F9351D8B404D0E50E9319D8A426
:1022280009D08751D96EDA6A91C0DEFF92C0DDFF0E
:10223800000E120086C04CF047EC18F00009D8A434
:10224800ACD7000194519511D8B413D08651D96EEA
:10225800DA6A080ED926DECF78F0DDCF79F0BBEC4C
:1022680016F078C094F079C095F094519511D8A4DF
:1022780002D0060E120094059511D8B4A1D7000E0D
:10228800356E000E366E000E376E000E386E15EC89
:1022980015F00009D8B494D794C016F095C017F07B
:1022A80004EC21F016C08CF017C08DF018C08EF029
:1022B80019C08FF0000120EE04F09651D9269751ED
:1022C800DA228CC0DEFF8DC0DEFF8EC0DEFF8FC03D
:1022D800DEFF200E96250A6E000E97210B6E000E6B
:1022E8000D6E000E0C6E020E0F6E000E0E6E03ECDD
:1022F8002CF0000120EE1DF09651D9269751DA22D4
:10230800DF50906F1ED0200E9625296E000E972163
:102318002A6E8CC02BF08DC02CF08EC02DF08FC093
:102328002EF0010E2F6E000E34EC29F00009D8A40F
:1023380047D7010E00018C27000E8D238E238F2393
:1023480090079051D8A4DFD720EE1FF09651D926D8
:102358009751DA22010EDF6E200E9625886F000E47
:102368009721896F8751D96EDA6A88C0DEFF89C0E4
:10237800DDFF5ED74DC076F04EC077F020EE08F056
:102388007651D9267751DA22DECF6EF0DECF6FF0A4
:10239800DECF70F0DECF71F00BD160C00AF061C003
:1023A8000BF0000E0D6E030E0C6E95EC2CF0D89011
:1023B8000B300001646F0A30726F64C073F072C032
:1023C80064F073C065F0090E666FD89065336433A6
:1023D800662FFBD764516E25356E65516F21366EB9
:1023E800000E7021376E000E7121386E15EC15F055
:1023F8000009D8A402D0000E1200FF0E0001646F7D
:10240800010E656F72C066F073C067F0645166179D
:102418006551671776C068F077C069F0665168271C
:1024280067516923200E6825746F000E6921756F46
:1024380060B104D062C06AF06B6B1AD06251646FED
:10244800656B643B653BF00E651764510F0B6513B4
:10245800F00E641774C0D9FF75C0DAFFDF500F0B98
:10246800666F676B645166116A6F655167116B6FB0
:1024780074C0D9FF75C0DAFF6AC0DFFF724B732BD7
:1024880020EE1FF07651D9267751DA22010EDF6E41
:1024980072C064F073C065F0090E666FD89065333A
:1024A8006433662FFBD764516E25356E65516F21F5
:1024B800366E000E7021376E000E7121386E15ECE5
:1024C80015F00009D8B497D7FF0E0001646F010E0C
:1024D800656F72C066F073C067F064516617655126
:1024E800671776C068F077C069F06651682767514A
:1024F8006923200E6825746F000E6921756F60B11D
:102508000ED063C064F00F0E641774C0D9FF75C095
:10251800DAFFDF50F00B6411656F65510CD062C0B3
:1025280064F063C065F0040E666FD8906533643359
:10253800662FFBD764516C6F6D6B74C0D9FF75C083
:10254800DAFF6CC0DFFF42D061516E25356E000E98
:102558006F21366E000E7021376E000E7121386EB5
:1025680015EC15F00009D8B446D7FF0E0001646FCA
:10257800010E656F60C066F061C067F0D89066377D
:102588006737645166176551671776C068F077C07A
:1025980069F06651682767516923200E6825D96E4E
:1025A800000E6921DA6E62C0DEFF63C0DDFF0ED067
:1025B80020EE1CF07651D9267751DA22DF50010A35
:1025C800D8B4EBD6030AD8B4BFD715D720EE1FF07E
:1025D8007651D9267751DA22010EDF6E010E1200EC
:1025E8004DC071F04EC072F04B5004E1020E4A5CCF
:1025F800D8A005D120EE16F07151D9267251DA22F1
:10260800DE504A5CDE504B58D8B0F9D020EE08F0C6
:102618007151D9267251DA22DECF6BF0DECF6CF021
:10262800DECF6DF0DECF6EF0DDD04AC00AF04BC0D1
:102638000BF0000E0D6E030E0C6E95EC2CF0D8907E
:102648000B300001606F0A306F6F60C070F06FC0B0
:1026580060F070C061F0090E626FD890613360332A
:10266800622FFBD760516B25356E61516C21366E38
:10267800000E6D21376E000E6E21386E15EC15F0C8
:102688000009D8B4BCD0FF0E0001606F010E616F65
:102698006FC062F070C063F06051621761516317D8
:1026A80071C064F072C065F062516427635165239C
:1026B800200E6425D96E000E6521DA6EDF50666F34
:1026C8006651696F6A6B6F4B702B6FC060F070C09A
:1026D80061F0090E626FD89061336033622FFBD7C7
:1026E80060516B25356E61516C21366E000E6D217F
:1026F800376E000E6E21386E15EC15F00009D8B44F
:102708007ED0FF0E0001606F010E616F6FC062F036
:1027180070C063F0605162176151631771C064F053
:1027280072C065F06251642763516523200E6425E9
:10273800D96E000E6521DA6EDF50666F6651686FDC
:10274800676B6751691368516A134AB007D0FF0E67
:1027580069154A6E0F0E6A154B6E120069C060F05B
:102768006AC061F0040E626FD89061336033622FE3
:10277800FBD760C04AF061C04BF012004B506B258C
:10278800356E000E6C21366E000E6D21376E000E10
:102798006E21386E15EC15F00009D8B430D0FF0E54
:1027A8000001606F010E616F4AC062F04BC063F0B8
:1027B800D89062376337605162176151631771C0EF
:1027C80064F072C065F06251642763516523200E7E
:1027D8006425D96E000E6521DA6EDECF4AF0DDCFB2
:1027E8004BF0120020EE1CF07151D9267251DA22FA
:1027F800DF50010AD8B419D7030AD8B4BFD7000EDE
:102808004B6E010E4A6E120027C1DFF028C1E0F0BE
:10281800E16BDFC010F0E0C011F0E1C012F0FAEC9B
:1028280018F010C0F5F211C0F6F2000E0201F86FB0
:10283800000EF76F01016E516F11D8A4120087ECDA
:1028480027F023EC2EF00AC0F3F20BC0F4F2F3C227
:10285800D9FFF4C2DAFF310EDE18D8A4DCD00201A9
:10286800F65104E1330EF55DD8A0C2D0010EF96F20
:10287800F951020D270EF324D96E010EF420DA6EF9
:10288800DECFDFF0DDCFE0F0DFC0E1F0E0C0E2F066
:102898000001E36BE1C010F0E2C011F0E3C012F0F8
:1028A800FAEC18F010500201F55D1150F659D8B045
:1028B80022D0F951020D270EF324D96E010EF4200F
:1028C800DA6EDECFDFF0DDCFE0F0DFC0E1F0E0C0B0
:1028D800E2F00001E36BE1C010F0E2C011F0E3C0E8
:1028E80012F0FAEC18F010C0F5F211C0F6F2F9C2C5
:1028F800F7F20201F86BF92B020EF965B9D7F7C2A6
:102908000AF0F8C20BF0000E0D6E060E0C6E95EC78
:102918002CF0D50E0A24106E020E0B20116E000E3C
:1029280003EC0BF0F7C20AF0F8C20BF0000E0D6EC4
:10293800060E0C6E95EC2CF0C30E0A24106E020ED7
:102948000B20116E010E03EC0BF0F7C20AF0F8C26F
:102958000BF0000E0D6E0B0E0C6E95EC2CF0A20E0B
:102968000A24106E020E0B20116E020E03EC0BF0FF
:10297800F7C20AF0F8C20BF0000E0D6E0C0E0C6ECA
:1029880095EC2CF07E0E0A24106E020E0B20116EB0
:10299800030E03EC0BF0E70E1A6E020E1B6ED890B6
:1029A8000201F735D96EF835DA6E270ED926010EF1
:1029B800DA22DECF1CF0DDCF1DF0000E1F6E0A0EEE
:1029C8001E6EEFEC2AF0E70E106E020E116E070E67
:1029D80003EC0BF0000E0101286F320E276F000E7A
:1029E8002A6F320E296F000E2C6F320E2B6F11D00A
:1029F800000E0101286F320E276F000E2A6F320E6B
:102A0800296F000E2C6F320E2B6F31EC2DF0F6EC87
:102A180026F09AEC2DF06D0E01016F6F600E6E6F4F
:102A280012004DC048F04EC049F020EE04F0485066
:102A3800D9264950DA22DECF44F0DECF45F0DECF8A
:102A480046F0DECF47F0355044180AE136504518B5
:102A580007E13750461804E138504718D8B4B4D0C5
:102A680020EE1FF04850D9264950DA22DF50D8B45A
:102A780081D0200E4824296E000E49202A6E44C0B9
:102A88002BF045C02CF046C02DF047C02EF0010EAB
:102A98002F6E000E34EC29F00009D8B402D0000ED5
:102AA800120020EE1FF04850D9264950DA22000EB5
:102AB800DF6E20EE08F04850D9264950DA22DECFE2
:102AC80039F0DECF3AF0DECF3BF0DECF3CF020EE3F
:102AD80014F04850D9264950DA22DECF3DF0DDCF38
:102AE8003EF03D5039243F6E3E503A20406E000E75
:102AF8003B20416E000E3C20426E3F50445C4050EB
:102B080045584150465842504758D8B033D020EE27
:102B18001EF04850D9264950DA22DF50436E020E83
:102B2800436001D027D020EE14F04850D9264950F0
:102B3800DA22DECF39F0DDCF3AF0395044263A5068
:102B48004522000E4622000E4722200E4824296EF8
:102B5800000E49202A6E44C02BF045C02CF046C018
:102B68002DF047C02EF0010E2F6E000E34EC29F028
:102B78004306D5D73550361037103810D8B424D07E
:102B8800200E4824296E000E49202A6E35C02BF0ED
:102B980036C02CF037C02DF038C02EF0010E2F6E45
:102BA800000E22EC26F00009D8A479D720EE04F014
:102BB8004850D9264950DA2235C0DEFF36C0DEFF3C
:102BC80037C0DEFF38C0DEFF010E1200000E246E93
:102BD800000E236E010E1C6465D08B9E8A9A0A0E25
:102BE800D1EC2AF01C500F6E106A116A126AFF0E9F
:102BF800136E570EB5EC27F0F9EC2DF0F3EC2DF031
:102C0800286E2850D8A4FAD70A0ED1EC2AF018C09A
:102C18001DF019C01EF01AC01FF01BC020F0090ECD
:102C2800D8901D361E361F362036E82EF9D71DC01F
:102C38000FF01EC010F01FC011F020C012F0FF0EE0
:102C4800136E590EB5EC27F0F9EC2DF0F3EC2DF0DE
:102C5800286E2850D8A4FAD7010ED1EC2AF0FC0E21
:102C6800D5EC2DF0000E276E000E266E16C0D9FF8B
:102C780017C0DAFFDF50D5EC2DF0164A172A264A7E
:102C8800272A27BEF3D7020E275CD8A0EFD7FFEC80
:102C98002DF0FFEC2DF0010ED1EC2AF0FD0ED5EC55
:102CA8002DF063D08B9E8A9A0A0ED1EC2AF018C0B8
:102CB8001DF019C01EF01AC01FF01BC020F0090E2D
:102CC800D8901D361E361F362036E82EF9D71DC07F
:102CD8000FF01EC010F01FC011F020C012F0000E3F
:102CE800136E580EB5EC27F0F9EC2DF0F3EC2DF03F
:102CF800286E2850D8A4FAD78A9A8B9E010ED1EC58
:102D08002AF0FE0ED5EC2DF0000E276E000E266E72
:102D180016C0D9FF17C0DAFFDF50D5EC2DF0164AE0
:102D2800172A264A272A27BEF3D7020E275CD8A0DF
:102D3800EFD7FFEC2DF0FFEC2DF00A0ED1EC2AF0C6
:102D4800000E0F6E000E106E000E116E000E126E49
:102D5800000E136E4D0EB5EC27F0F9EC2DF0F3ECE8
:102D68002DF0286E2850D8A4FAD7255012004DC04F
:102D78007EF04EC07FF020EE16F07E51D9267F51AE
:102D8800DA22DECF7CF0DDCF7DF078517911D8A43E
:102D98001BD020EE18F07E51D9267F51DA22DECFE3
:102DA80082F0DDCF83F0835104E1020E825DD8A06A
:102DB80006D07C51825D7D518359D8A02BD0000E5E
:102DC800836F010E826F26D078C04AF079C04BF02D
:102DD800F4EC12F04AC080F04BC081F00001815140
:102DE8000AE1020E805DD8B006D0000E0001796FAE
:102DF800010E786F12007C51805D7D518159D8B0E9
:102E080005D080C078F081C079F0120078C082F0D7
:102E180079C083F082C084F083C085F0844B852B11
:102E28007C51845D7D518559D8A00FD0000E856FE7
:102E3800020E846F835109E1020E825DD8B005D07D
:102E4800000E796F000E786F120084C04AF085C0BA
:102E58004BF0F4EC12F04AC080F04BC081F0000156
:102E680080518111D8B40CD080058111D8B4BDD758
:102E780082518419D3E183518519D8B4E1D7CED7CB
:102E880084C060F085C061F0FF0E636F6269BEECBC
:102E980011F00009D8B4A9D7000178517911D8B434
:102EA8000DD078C060F079C061F084C062F085C050
:102EB80063F0BEEC11F00009D8B497D7000120EEFA
:102EC80018F07E51D9267F51DA2284C0DEFF85C0F2
:102ED800DDFF20EE1AF07E51D9267F51DA22DE2856
:102EE80003E1DE28D8B409D020EE1AF07E51D926A5
:102EF8007F51DA22DE06000EDD5A84C078F085C0E4
:102F080079F0120087EC27F0020E516405D0000E0C
:102F1800516E000E0001F06F1EEC2EF00AC066F133
:102F28000BC067F10E0E1F6EED0E206E3F0E216E68
:102F380066C110F067C111F010501110D8A4200E0E
:102F4800126EFAEC18F010C018F011C019F00CEC61
:102F58002BF018C01CF019C01DF01AC01EF066EC4A
:102F68001EF01CC02BF01DC02CF01EC02DF0CCECA8
:102F78001FF02BC051F12CC052F12DC053F12EC0BF
:102F880054F101012B51446E2C51456E466A476A33
:102F98005151445C52514558535146585451475821
:102FA800D8B01200030E516012000001F051020D5A
:102FB800270EF324D96E010EF420DA6EDECF44F02A
:102FC800DDCF45F04450466E4550476E486A496A21
:102FD80001015151465C5251475853514858545178
:102FE8004958D8B04CD05150020D270EF324D96E51
:102FF800010EF420DA6E51C1DEFF52C1DDFF5150DF
:103008000B0DA20EF3240C6E020EF4200D6E19ECBB
:103018002EF00AC00EF00BC00FF0D5EC2BF051507B
:103028000C0D7E0EF3240C6E020EF4200D6E14ECC3
:103038002EF00AC00EF00BC00FF0D5EC2BF051505B
:10304800060DD50EF3240C6E020EF4200D6E0AEC5C
:103058002EF00AC00EF00BC00FF0D5EC2BF051503B
:10306800060DC30EF3240C6E020EF4200D6E0FEC49
:103078002EF00AC00EF00BC00FF0D5EC2BF051C0AB
:10308800F0F0512A12004C50D96EDA6A020ED92695
:10309800DECF73F0DDCF74F0010E000173257C6F75
:1030A800000E74217D6F7CC073F00F0E7317D8A4C7
:1030B80092D04C50D96EDA6A0A0ED926DE2A000E52
:1030C800DE22DE22DE224C50D96EDA6A080ED926BC
:1030D800DE50DE10D8A413D04C50D96EDA6A040E34
:1030E800D92610EE02F0DE50E126DD50E222E6504D
:1030F8007C5DE6507D59D8A06ED0000E12007CC0D1
:1031080073F07DC074F0040E756FD8907433733308
:10311800752FFBD7FF0E766FFF0E776F4C50D96E69
:10312800DA6A040ED92610EE1DF0DE50E126DD50D5
:10313800E222E750786F796B7651782777517923B7
:10314800735178177451791778517911D8A443D0ED
:103158004C50D96EDA6A080ED926DECF4AF0DDCF98
:103168004BF0F4EC12F04AC07AF04BC07BF000014F
:103178007B5104E1020E7A5DD8A0BFD74C50D96EBE
:10318800DA6A040ED92610EE16F0DE50E126DD507C
:10319800E222E6507A5DE6507B59D8B0AED74C5063
:1031A800D96EDA6A080ED9267AC0DEFF7BC0DDFF49
:1031B8007AC016F07BC017F004EC21F04C50D96EA1
:1031C800DA6A0A0ED92616C0DEFF17C0DEFF18C05D
:1031D800DEFF19C0DEFF4C50D96EDA6A020ED9261E
:1031E8007CC0DEFF7DC0DDFF010E120006D0010E9F
:1031F8001026000E1122000E122210C0F6FF11C078
:10320800F7FF12C0F8FFF8BA03D00800F55005D050
:10321800F6CFE1FFF7CFE2FFE750200AD8B4E7D7AF
:1032280010C0F6FF11C0F7FF12C0F8FFF8BA03D0BC
:103238000800F55005D0F6CFE1FFF7CFE2FFE750E1
:10324800090AD8B4D4D7000E176E000E166E000EF9
:10325800156E10C0F6FF11C0F7FF12C0F8FFF8BADC
:1032680003D00800F55005D0F6CFE1FFF7CFE2FF15
:10327800E7502D0AD8A408D0152A010E1026000EF2
:103288001122000E12223AD010C0F6FF11C0F7FF2B
:1032980012C0F8FFF8BA03D00800F55005D0F6CFF1
:1032A800E1FFF7CFE2FFE7502B0AD8B4E6D726D0E4
:1032B80016C00AF017C00BF0000E0D6E0A0E0C6E49
:1032C80095EC2CF010C0F6FF11C0F7FF12C0F8FF04
:1032D800F8BA03D00800F55005D0F6CFE1FFF7CFD4
:1032E800E2FFE750136E13500A26000E0B22D00E91
:1032F8000A24166EFF0E0B20176EBFD710C0F6FFFC
:1033080011C0F7FF12C0F8FFF8BA03D00800F55053
:1033180005D0F6CFE1FFF7CFE2FFE75070EC2DF0D4
:10332800D8B0C6D71550D8B40DD016C013F017C0F2
:1033380014F0131E141E134A142A13C010F014C0DC
:1033480011F0120016C010F017C011F0120013C0CF
:103358000AF00B6A000E0D6E200E0C6E000E0F6E3A
:103368000B0E0E6E03EC2CF0000E1A6E180E186E73
:10337800000E1B6E080E196E1250D96EDA6ADFCF76
:1033880014F0010EDE26DFCF15F0000EDD2214C08A
:10339800F6FF15C0F7FFF86A070EF76403D00800B8
:1033A800F55005D0F6CFE1FFF7CFE2FFE7501C6EEE
:1033B8001C50D8B404D02F0E1C18D8A412D01B50FF
:1033C800D8B470D01A501814146E1450166E176AA8
:1033D8001350D96EDA6A0B0ED92616C0DFFF1C50BF
:1033E8001200200E1C645ED07F0E1C18D8B45AD070
:1033F8002E0E1C18D8A40CD01AB054D01B50D8B418
:1034080051D0090E1B604ED0080E1B6E0B0EB3D7A1
:10341800220E1C18D8B446D02A0E1C6001D035D014
:103428002D0E1C6001D03ED03A0E1C6001D02DD06C
:10343800400E1C6001D036D01AB027D07C0E1C1864
:10344800D8B430D05A0E1C6404D05E0E1C6001D073
:1034580029D0400E1C640AD05B0E1C6007D0080EF1
:103468001918D8A402D0189601D01898600E1C64B8
:103478000CD07B0E1C6009D0200E1C5E080E19189B
:10348800D8A402D01A8601D01A881A9019501B5C49
:10349800D8B008D013501B24D96EDA6A1CC0DFFFDD
:1034A8001B2A6AD7010E1200A8EC2CF0FD0E0A2484
:1034B800386EFF0E0B20396EEDEC2CF00AC03AF096
:1034C8000BC03BF0DCEC2CF00AC03CF00BC03DF02C
:1034D80020EC2DF0D00E0A24406E070E0B20416E12
:1034E800FEEC2CF00A503F6E0FEC2DF00A503E6EA9
:1034F800D8903D30136E3C30126E3A50146E3B50EB
:10350800156E166A176A050ED890143615361636D3
:103518001736E82EF9D73850186E3950196E1A6ACE
:103528001B6A0B0ED890183619361A361B36E82E39
:10353800F9D73EC01CF01D6A1E6A1F6A1DC01FF025
:103548001CC01EF01D6A1C6A3FC020F0216A226A56
:10355800236A150ED8902036213622362336E82ED7
:10356800F9D7C40E4024246EFF0E4120256E266A2A
:10357800276A190ED8902436253626362736E82E9F
:10358800F9D720502410286E21502510296E22507A
:1035980026102A6E235027102B6E1C5028102C6ED4
:1035A8001D5029102D6E1E502A102E6E1F502B10E4
:1035B8002F6E18502C10306E19502D10316E1A5075
:1035C8002E10326E1B502F10336E14503010346E84
:1035D80015503110356E16503210366E17503310A4
:1035E800376E125034100E6E135035100F6E000ED9
:1035F8003610106E000E3710116E1200960E0A6EFD
:10360800030E0B6E000EA2EC29F05350D8A423D061
:1036180028EC2BF0200E0101D819D8B41CD0200EAC
:10362800CA19D8B418D0D80E0A6E010E0B6E59EC10
:103638002CF0CA0E0A6E010E0B6E2FEC2CF0560EF3
:103648000A6E020E0B6E660E0C6E620E0D6EEAECC2
:1036580029F0010E536E5350D8B412007C0E0001AD
:10366800986F010E996F560E9A6F020E9B6F020E9D
:103678009C6F66EC09F00009D8A451D07C0E0001BB
:10368800866F010E876F86C188F087C189F088C16F
:103698008AF089C18BF079EC05F07C0EB16F010ED0
:1036A800B26F9C0EB36F610EB46FDE0EB56F010E74
:1036B800B66FB20EB76F010EB86F980EB96F010EE4
:1036C800BA6FBFEC07F07C0EB16F010EB26FF60E49
:1036D800B36F610EB46FBFEC07F07C0EB16F010ED3
:1036E800B26F000EB36F620EB46FCA0EB56F010EE3
:1036F800B66FBFEC07F07C0EB16F010EB26F560EBD
:10370800B36F620EB46FF5C0B5F0B66BBFEC07F0DF
:103718007C0E696F010E6A6F19EC2CF012007C0E9A
:103728000001986F010E996F560E9A6F020E9B6FEB
:10373800080E9C6F66EC09F07C0E0001696F010EA3
:103748006A6F19EC2CF0120020EE04F06051D926B3
:103758006151DA22DECF10F0DDCF11F060C0D9FF61
:1037680061C0DAFFDECF12F0DDCF13F0C6EC29F02E
:103778000001666F6651D8A479D020EE02F060513E
:10378800D9266151DA22DFAA71D020EE16F06051F5
:10379800D9266151DA22DECF35F0DECF36F0DECF22
:1037A80037F0DECF38F015EC15F00009D8A402D0B8
:1037B800080E1200000120EE1AF06051D92661515E
:1037C800DA22DECF67F0DDCF68F020EE0BF067512C
:1037D800D9266851DA22000EDB8A20EE0AF0605101
:1037E800D9266151DA2210EE1CF06751E1266851A2
:1037F800E222DECFE6FFDECFE6FFDECFE6FFDECF5A
:10380800E6FF20EE0EF06051D9266151DA2210EE63
:103818001AF06751E1266851E222DECFE6FFDDCFDC
:10382800E5FF58EC1AF00EC062F00FC063F010C04C
:1038380064F011C065F0000120EE16F06751D9263A
:103848006851DA2262C0DEFF63C0DEFF64C0DEFFBB
:1038580065C0DEFF20EE02F06051D9266151DA2200
:10386800DF0EDF16E3EC28F00001666F66511200E8
:1038780016C0F6FF17C0F7FFF86A070EF76403D003
:103888000800F55005D0F6CFE1FFF7CFE2FFE7508B
:10389800236E164A172A200E2318D8B4E9D7090E22
:1038A8002318D8B4E5D7000E1F6E000E206E000E48
:1038B800216E000E226E000E1E6E2D0E2318D8A447
:1038C80015D01E2A16C0F6FF17C0F7FFF86A070EB4
:1038D800F76403D00800F55005D0F6CFE1FFF7CF25
:1038E800E2FFE750236E164A172A28D02B0E23181A
:1038F800D8B4E8D723D01FC00AF020C00BF021C0ED
:103908000CF022C00DF00A0E0E6E000E0F6E000EA7
:10391800106E000E116E66EC28F023C01AF0D00E5F
:103928001A261A500A241F6E000E0B20206E000E55
:103938000C20216E000E0D20226EC4D7235070EC8F
:103948002DF0D8B0D8D71E50D8B41AD01FC01AF04E
:1039580020C01BF021C01CF022C01DF01A1E1B1E27
:103968001C1E1D1E1A2A000E1B221C221D221AC0F4
:1039780016F01BC017F01CC018F01DC019F012007B
:103988001FC016F020C017F021C018F022C019F08F
:1039980012000A0ED1EC2AF018C01DF019C01EF052
:1039A8001AC01FF01BC020F0090ED8901D361E3615
:1039B8001F362036E82EF9D71DC022F01EC023F08E
:1039C8001FC024F020C025F0180419101A101B106D
:1039D800D8B41BD00A0ED1EC2AF022C00FF023C0B5
:1039E80010F024C011F025C012F0000E136E520E14
:1039F800B5EC27F0F9EC2DF0F3EC2DF0286E2850FB
:103A0800D8A4FAD7F9EC2DF01CD00A0ED1EC2AF084
:103A180018C00FF019C010F01AC011F01BC012F036
:103A2800000E136E510EB5EC27F0F9EC2DF0F3EC07
:103A38002DF0286E2850D8B4E5D7F9D7F3EC2DF03F
:103A4800286EFE0E2818D8A4F9D7000E276E000E8F
:103A5800266E0BD026501624D96E27501720DA6E02
:103A6800F3EC2DF0DF6E264A272A27BEF3D7020E85
:103A7800275CD8A0EFD70A0ED1EC2AF0000E0F6E03
:103A8800000E106E000E116E000E126E000E136EF8
:103A98004C0EB5EC27F0F9EC2DF0F3EC2DF0286E78
:103AA8002828D8A4FAD7000E1200016E240E011897
:103AB800D8A411D0000E0001EF6F000EEE6F000EBB
:103AC800ED6F000EEC6F000E556E000E546E000E7A
:103AD800F96F000EF86F5504D8A41AD02C0E0118EF
:103AE800D8A40AD0160E0001F925D96EDA6A020E9A
:103AF800DA22EEC0DFFFF92B000E0001EE25D96EA9
:103B0800030EEF21DA6E01C0DFFFEE4BEF2B1CD066
:103B1800470E01015C19D8A411D0470E5D19D8A42D
:103B28000DD0410E5E19D8A409D0010E556E000EB5
:103B38005C6F000E5D6F000E5E6F06D05DC15CF1BC
:103B48005EC15DF101C05EF15404D8A41AD02C0EF8
:103B58000118D8A40AD02A0E0001F825D96EDA6A0D
:103B6800020EDA22ECC0DFFFF82B500E0001EC2524
:103B7800D96E030EED21DA6E01C0DFFFEC4BED2BA1
:103B88001200520E01015919D8A411D04D0E5A191C
:103B9800D8A40DD0430E5B19D8A409D0010E546ED9
:103BA800000E596F000E5A6F000E5B6F12005AC15B
:103BB80059F15BC15AF101C05BF1120018C01CF049
:103BC80019C01DF01AC01EF01BC01FF0060ED890B9
:103BD8001C361D361E361F36E82EF9D71C50000835
:103BE8000A6E6C0E1D540B6EDC0E1E540C6E020E0B
:103BF8001F540D6E18C020F019C021F01AC022F011
:103C08001BC023F0060ED8902036213622362336E4
:103C1800E82EF9D720C00EF021C00FF022C010F016
:103C280023C011F09EEC20F00AC024F00BC025F050
:103C38002504D8A03BD018C01CF019C01DF01AC02C
:103C48001EF01BC01FF0040ED8901C361D361E3601
:103C58001F36E82EF9D71C5000080A6E6C0E1D544A
:103C68000B6EDC0E1E540C6E020E1F540D6E18C027
:103C780020F019C021F01AC022F01BC023F0040E56
:103C8800D8902036213622362336E82EF9D720C0A0
:103C98000EF021C00FF022C010F023C011F09EECEE
:103CA80020F00AC024F00BC025F0AC842504D8B05D
:103CB800120024C0AFFFAC98AB8E948E949CAB8856
:103CC800AC8A12001EC022F0236A246A1D342236F0
:103CD80001E323802250256E2550D8A407D0000E7A
:103CE8001C6E000E1D6E000E1E6E120021C022F00A
:103CF800236A246A2034223601E3238022502A6E64
:103D08002A50D8A407D0000E1C6E000E1D6E000E9F
:103D18001E6E12002A507B0F25261EC02AF0215045
:103D28002A1A800E2A161D8E208EFF0E1F16FF0ED1
:103D38002016000E2116000E266E000E276E000EAD
:103D4800286E070E296E1CA006D01F50262620506C
:103D5800272221502822D8901E321D321C32D8909A
:103D68001F3620362136292EEED7090E296E1CA0C3
:103D780006D01F5026262050272221502822D890CE
:103D88001E321D321C32D890283227322632292E74
:103D9800EED726C00AF027C00BF028C00CF025C0CB
:103DA8000DF02AC00EF05DEC21F00AC01CF00BC02B
:103DB8001DF00CC01EF012000600D9CF05F0DACFB6
:103DC80006F0F3CF07F0F4CF08F09DBA9EAA15D0FD
:103DD8009E9AC4EC2DF00001F36FF35159EC1DF0DD
:103DE80081B403D0036A032A01D0036A0346034659
:103DF80081500318FB0B0318816EF2B4F2A446D06D
:103E0800F294010E0001F26F000E096E0950020DC6
:103E18002D0EF324D96E010EF420DA6EDE50DE107A
:103E2800D8B40BD00950020D2D0EF324D96E010E13
:103E3800F420DA6EDE06000EDD5A092A020E096445
:103E4800E5D701016E516F11D8B403D06E07D8A021
:103E58006F070001EA51EB11D8B403D0EA07D8A0E4
:103E6800EB075204D8A40CD001017007D8A0710741
:103E780070517111D8A404D0000EFA6E000EF96EBC
:103E8800000E026E450E016E28EC2EF0F2B2F2A87A
:103E980001D0F29208C0F4FF07C0F3FF06C0DAFFB2
:103EA80005C0D9FF5692110018C01EF019C01FF0A6
:103EB8001AC020F01BC021F01EC00AF01FC00BF072
:103EC80020C00CF021C00DF01CC00EF01DC00FF07A
:103ED800000E0FBEFF0E106E116EF4EC24F00AC037
:103EE8001EF00BC01FF00CC020F00DC021F0172AE7
:103EF8001E501F1020102110D8A4DED71750D96EDD
:103F0800DA6A000EDF6E170618C00AF019C00BF047
:103F18001AC00CF01BC00DF01CC00EF01DC00FF035
:103F2800000E0FBEFF0E106E116EC3EC26F00A5085
:103F3800226E18C00AF019C00BF01AC00CF01BC092
:103F48000DF01CC00EF01DC00FF0000E0FBEFF0ECE
:103F5800106E116EF4EC24F00AC018F00BC019F0C2
:103F68000CC01AF00DC01BF0090E226402D0070E17
:103F78002226300E22261750D96EDA6A22C0DFFFB9
:103F88001706185019101A101B10D8B41200BCD7F5
:103F98002DC02FF0306A316A2C342F3601E330807F
:103FA8002F50396E3950D8A409D0000E2B6E000E50
:103FB8002C6E000E2D6E000E2E6E1200170E2F6E38
:103FC8002BC030F02CC031F02DC032F02F28336ECA
:103FD80004D0D890323231323032332EFAD73050C2
:103FE800346E2C8EFF0E2B16FF0E2C16000E2D167F
:103FF8002B50356E2C50366E2D50376E386A8E0E1B
:10400800395E39AE0DD03950800A8F0FD8A0CDD780
:10401800D8903832373236323532393EF9D70DD06A
:10402800170E396407D0C1D7D890353636363736AB
:10403800383639063950D8A4F7D73450D8B408D010
:10404800381E371E361E356C000E362237223822AF
:1040580035C02BF036C02CF037C02DF038C02EF00C
:104068001200356E62D00EEC28F024C036F025C060
:1040780037F026C038F027C039F04F0E246E610E95
:10408800256EBAEC2CF03650245C0101006F3750D5
:104098002558016F38502658026F39502758036F3A
:1040A800630E246E610E256EBAEC2CF03650245C3B
:1040B8000101086F37502558096F385026580A6F84
:1040C800395027580B6F1200E2EC27F024C03AF061
:1040D80025C03BF026C03CF027C03DF0230E246EDF
:1040E800610E256EBAEC2CF03A50245C0101046F85
:1040F8003B502558056F3C502658066F3D502758B1
:10410800076F390E246E610E256EBAEC2CF03A500A
:10411800245C01010C6F3B5025580D6F3C5026580C
:104128000E6F3D5027580F6F12003550010AD8B452
:104138009AD7CAD7000E136E11AE0AD0111E101EE0
:104148000F1E0E6C000E0F2210221122010E136E8C
:104158000DAE0AD00D1E0C1E0B1E0A6C000E0B2293
:104168000C220D22010E131A000E146E000E156E8D
:10417800000E166E000E176E0E500F101010111054
:10418800D8B42AD0010E126E06D0D8900E360F364B
:1041980010361136122A11AEF8D7D89014361536C3
:1041A800163617360E500A5C0F500B5810500C5824
:1041B80011500D58D8A009D00E500A5E0F500B5A56
:1041C80010500C5A11500D5A1480D89011321032D8
:1041D8000F320E32122EE1D71350D8B408D0171E62
:1041E800161E151E146C000E15221622172214C056
:1041F8000AF015C00BF016C00CF017C00DF0120035
:104208004DC01FF04EC020F0020E165E000E175A69
:10421800FE0E1A6EFF0E1B6E20EE16F01F50D926EA
:104228002050DA22DECF1CF0DDCF1DF01A501C26FC
:104238001B501D221C50165C1D501758D8A009D0C1
:10424800000E166E000E176E000E186E000E196E18
:10425800120020EE10F01F50D9262050DA22DECFAF
:104268001AF0DECF1BF0DECF1CF0DECF1DF016C03B
:104278000AF017C00BF00C6A0D6A20EE1DF01F50F3
:10428800D9262050DA22DF501E6E1E500E6E0F6A9D
:10429800106A116A66EC28F01A500A24166E1B5030
:1042A8000B20176E1C500C20186E1D500D20196E17
:1042B80012000D50D8B405D00A500B100C10D8A419
:1042C8000CD0000E0A6E000E0B6E000E0C6E120063
:1042D8000D2AD8900C320B320A32000E0A140F6ED7
:1042E800000E0B14106EFE0E0C14116E0F501010F1
:1042F8001110D8B40CD0ECD70D2A010E0A26000EE6
:104308000B22000E0C22D8900C320B320A32000E0F
:104318000A140F6E000E0B14106EFF0E0C14116EA3
:104328000F5010101110D8B406D0E6D70D06D8904B
:104338000A360B360C360BBE03D0020E0D60F6D7CC
:104348000DA00B9ED8900D320D500C120E50D8A413
:104358000C8E0AC00AF00BC00BF00CC00CF0120057
:104368001C0EF66E4D0EF76E000EF86E02EE7EF025
:1043780010EE69F00900F5CFEEFFE550E150FAE1E3
:10438800CA0EF66E5B0EF76E000EF86E01EEECF0DC
:1043980010EE0EF00900F5CFEEFFE550E150FAE11E
:1043A8006C0EF66E5C0EF76E000EF86E0900F5CF17
:1043B800FFF003EE96F012EE20F0EE6AE550E150C1
:1043C800FCE1E250FAE103EE00F0960EEE6AE80630
:1043D800FDE102EE00F07E0EEE6AE806FDE101EE78
:1043E80000F0EC0EEE6AE806FDE100EEE7F0180ECC
:1043F800EE6AE806FDE100EE4DF0090EEE6AE80609
:10440800FDE1569056920001BEEF2BF0000EE66FCC
:10441800E651020D390EF324D96E010EF420DA6E3E
:10442800DE50DE10D8B442D0E651020D2D0EF32432
:10443800D96E010EF420DA6EDE50DE10D8A436D024
:10444800010E526EFD0E0101716FE80E706F0001D2
:10445800E651020D390EF324D96E010EF420DA6EFE
:10446800DECFE4F0DDCFE5F001D809D00500FA6E23
:10447800E451FD6EE551FE6EFF6AFA501200000E1F
:10448800526E0001E651020D330EF324D96E010E6F
:10449800F420DA6EE651020D2D0EF324E16E010EC2
:1044A800F420E26EDECFE6FFDDCFE5FFE62B020E5D
:1044B800E665AED7120013C017F014C018F017C085
:1044C8000AF018C00BF015C00CF016C00DF091ECF6
:1044D80028F00AC017F00BC018F0114A122A17501A
:1044E8001810D8A4ECD711C0D9FF12C0DAFF000EFB
:1044F800DF6E1106D8A0120613C00AF014C00BF024
:1045080015C00CF016C00DF050EC2AF00A50196EC8
:1045180013C00AF014C00BF015C00CF016C00DF053
:1045280091EC28F00AC013F00BC014F0090E1964BE
:1045380002D0070E1926300E192611C0D9FF12C055
:10454800DAFF19C0DFFF1106D8A0120613501410A5
:10455800D8A4D2D7114A122A12004DC07EF04EC0FC
:104568007FF037D078C04AF079C04BF0F4EC12F005
:104578004AC07CF04BC07DF000017C057D11D8A4B9
:1045880002D0000E120078C060F079C061F0000E11
:10459800636F000E626FBEEC11F00009D8B4F1D75A
:1045A800000120EE1AF07E51D9267F51DA22DE284A
:1045B80003E1DE28D8B409D020EE1AF07E51D926BE
:1045C8007F51DA22DE2A000EDD227CC078F07DC021
:1045D80079F0795104E1020E785DD8A00CD020EE74
:1045E80016F07E51D9267F51DA22DE50785DDE50F2
:1045F8007959D8A0B7D7010E120095949592959045
:104608009598959A959C959E839483928390839E82
:10461800839C838A8388EA0E0D6EC30EE82EFED72C
:104628000D2EFCD700F0838061EC2DF0839061ECB7
:104638002DF04E0E0D6EEB0EE82EFED70D2EFCD78C
:1046480000F0838061EC2DF0839061EC2DF04E0E2C
:104658000D6EEB0EE82EFED70D2EFCD700F08380F2
:1046680061EC2DF0839061EC2DF0839E839C838A0E
:104678008398838061EC2DF0839061EC2DF0280EF7
:104688002BEC24F0060E2BEC24F00E0E2BEC24F071
:10469800010E2BEC24F01200120EF66E610EF76E6E
:1046A800000EF86E20EE12F0100E0900F5CFDEFFB6
:1046B800E806FBE2010EF66E610EF76E000EF86E6C
:1046C80020EE23F0100E0900F5CFDEFFE806FBE22E
:1046D800000E0D6E010E58EC27F0120E0D6E0E6ACC
:1046E800BAEC28F0000E0D6E020E58EC27F0230EDF
:1046F8000D6E0E6ABAEC28F03D0E116EE10E106ECA
:10470800400EE82EFED7102EFCD7112EFAD7010E38
:104718002BEC24F0000E0D6E010E58EC27F0D50E90
:104728000D6E610E0E6EBAEC28F012003BD00AC076
:10473800D9FF0BC0DAFFDF50106E0CC0F6FF0DC0BA
:10474800F7FFF86A070EF76403D00800F55005D0A4
:10475800F6CFE1FFF7CFE2FFE7501018D8B41ED02C
:104768000AC0D9FF0BC0DAFFDF50106E0CC0F6FF8D
:104778000DC0F7FFF86A070EF76403D00800F5507C
:1047880005D0F6CFE1FFF7CFE2FFE750116E1150E9
:10479800105C0A6E0B6AD8A00B0612000A4A0B2A94
:1047A8000C4A0D2A0E06D8A00F060E28C0E10F28C5
:1047B800D8A4BDD7000E0B6E000E0A6E1200000EB4
:1047C8001B6E000E1A6E000E196E000E186E000E8B
:1047D8000F6E000E106E000E116E000E126E950E0A
:1047E800136E400EB5EC27F0F9EC2DF0F3EC2DF03C
:1047F8001C6E1A4A1B2A1C04D8B408D01BBEF6D754
:104808001B5004E10A0E1A5CD8A0F0D7000E1B6EEC
:10481800000E1A6E1C04D8B416D0000E0D6E010ED0
:1048280058EC27F0EB0E0D6E610E0E6EBAEC28F008
:10483800000E0D6E020E58EC27F08C0E0D6E610EF8
:104848000E6EBAEC28F01C04D8B41200C0D70C6E57
:104858008394839283900CA802D0838801D0839894
:104868000CAA02D0838A01D0839A0CAC02D0838C24
:1048780001D0839C0CAE02D0838E01D0839E8380AE
:1048880061EC2DF0839061EC2DF00CA002D08388B0
:1048980001D083980CA202D0838A01D0839A0CA4F9
:1048A80002D0838C01D0839C0CA602D0838E01D0C9
:1048B800839E838061EC2DF0839061EC2DF00C04D5
:1048C800D8B408D0020E0C18D8B404D0030E0C18B3
:1048D800D8A4120061EC2DF0120038D0000E406E02
:1048E800000E416E3E50D96EDA6ADF50D8B40CD053
:1048F8003E50D96EDA6A100E4024E16EE26A010E6B
:10490800E222DFCFE7FF402A3E2A412A090E41640E
:10491800E9D721D0000E406E000E416E3E50D96E90
:10492800DA6ADF50D8B40CD03E50D96EDA6A100E6D
:104938004024E16EE26A010EE222DFCFE7FF402A5F
:104948003E2A412A0A0E4164E9D705D03F50010AA0
:10495800D8B4C4D7DFD73F5035EC20F012004DC093
:104968003BF04EC03CF0200E3B24296E000E3C204C
:104978002A6E35C02BF036C02CF037C02DF038C069
:104988002EF0010E2F6E000E22EC26F00009D8B48E
:1049980002D0020E120022EE1EF03B50D9263C50E7
:1049A800DA22550EDE18F5E1AA0EDE18D8A4F1D7E2
:1049B800560E3B240A6E000E3C200B6E730E0C6ED6
:1049C800620E0D6E000E0F6E030E0E6E9AEC23F043
:1049D8000A500B10D8A402D0000E1200010E1200CB
:1049E800000E126E000E136E000E146E000E156E81
:1049F8000E500F1010101110D8B42AD0010E166ED8
:104A080006D0D8900E360F3610361136162A11AE4B
:104A1800F8D7D89012361336143615360E500A5C6D
:104A28000F500B5810500C5811500D58D8A009D0E1
:104A38000E500A5E0F500B5A10500C5A11500D5A56
:104A48001280D890113210320F320E32162EE1D762
:104A580012C00AF013C00BF014C00CF015C00DF012
:104A68001200000E00016B6F000E6C6FA50E6C2516
:104A7800D96EDA6A010EDA22DF50D8B424D0A50E36
:104A88006C25D96EDA6A010EDA222D0EDE18D8B43A
:104A98001AD0A50E6C25D96EDA6A010EDA222E0E0E
:104AA800DE18D8B410D00A0E6B610DD0A50E6C2597
:104AB800D96EDA6A010EDA226B51600FE16EE26A92
:104AC800DFCFE7FF6B2B6C2B0B0E6C65CFD7600E1F
:104AD8003E6E000E3F6E71EC24F01200000E0001D5
:104AE800696F000E6A6FBE0E6A25D96EDA6A010E0A
:104AF800DA22DF50D8B424D0BE0E6A25D96EDA6A1D
:104B0800010EDA222D0EDE18D8B41AD0BE0E6A2590
:104B1800D96EDA6A010EDA222E0EDE18D8B410D059
:104B2800090E69610DD0BE0E6A25D96EDA6A010ECA
:104B3800DA226951600FE16EE26ADFCFE7FF692B85
:104B48006A2B0B0E6A65CFD7600E3E6E010E3F6E64
:104B580071EC24F0120031EC2EF00A6E31D003BF54
:104B680007D003510211011107E10005D8B004D0A4
:104B78000BBF02D0000E12000051011102110311E7
:104B8800D8B4F8D7085109110A110B11D8B4F2D7C3
:104B9800010E120003BF09D00BBFECD70B510A114D
:104BA800091103E10805D8A0E5D703BF0BBFE2D779
:104BB8000B510A110911E0E10805D8A0DBD7DCD7B1
:104BC8000A502D0AD8B4CBD7E5D70C6E83948382CC
:104BD80083900CA802D0838801D083980CAA02D0B5
:104BE800838A01D0839A0CAC02D0838C01D0839C39
:104BF8000CAE02D0838E01D0839E838061EC2DF0B1
:104C0800839061EC2DF00CA002D0838801D08398AA
:104C18000CA202D0838A01D0839A0CA402D0838C80
:104C280001D0839C0CA602D0838E01D0839E838002
:104C380061EC2DF0839061EC2DF01200316E29D0DB
:104C480029C016F02AC017F02BC018F02CC019F094
:104C58002DC01AF02EC01BF02FC01CF0CDEC1CF09C
:104C6800306E3050326E336A32C034F03450120035
:104C780029C016F02AC017F02BC018F02CC019F064
:104C88002DC01AF02EC01BF02FC01CF0CDEC1CF06C
:104C9800E7D73150000AD8B4D3D7010AD8B4E8D737
:104CA800030AD8B4E3D7040E12000C6E83948392DF
:104CB8008390838E0CA802D0838801D083980CAA95
:104CC80002D0838A01D0839A0CAC02D0838C01D0A5
:104CD800839C838061EC2DF0839061EC2DF00CA017
:104CE80002D0838801D083980CA202D0838A01D095
:104CF800839A0CA402D0838C01D0839C0CA602D08A
:104D0800838E01D0839E838061EC2DF0839061ECCB
:104D18002DF012003030303030303030303030301C
:104D2800303030303030303030303030303030307B
:104D3800303030303030303030303030303030306B
:104D480030300030303030303030303030003030BB
:104D5800303030303030303000303030303030307B
:104D6800303030303030303030303030303030303B
:0D4D780030303030303030303030303030BE
:104D86000E500F1010101110D8B424D0010E126E50
:104D960006D0D8900E360F3610361136122A11AEBE
:104DA600F8D70E500A5C0F500B5810500C58115083
:104DB6000D58D8A008D00E500A5E0F500B5A10504E
:104DC6000C5A11500D5AD890113210320F320E3241
:104DD600122EE7D70AC00AF00BC00BF00CC00CF07D
:104DE6000DC00DF01200D10E106E010E116E000EE8
:104DF60003EC0BF0E40E106E010E116E010E03ECC7
:104E06000BF0BE0E106E010E116E020E03EC0BF0CF
:104E1600A50E106E010E116E030E03EC0BF0D10EF3
:104E2600106E010E116E050E03EC0BF0E40E106E03
:104E3600010E116E060E03EC0BF06A0E106E020EDA
:104E4600116E070E03EC0BF0120034EC2EF00A6E16
:104E560027D007BF0BD00FBF07D00F510E110D1172
:104E660005E10C05D8B002D0000E12000451051160
:104E760006110711D8B4F8D70C510D110E110F11E8
:104E8600D8B4F2D7010E120007BF07D0075106119A
:104E96000511ECE10405D8B0E9D70FAFE5D7E6D7A1
:104EA6000A502D0AD8B4D5D7EFD70E6E110E0D6065
:104EB60012001BD00DC00FF00F5059EC26F022D077
:104EC6000D50400F0F6E0F5059EC26F01BD00D50B1
:104ED600140F0F6E0F5059EC26F014D00D50540FCE
:104EE6000F6E0F5059EC26F00DD00E50010AD8B4B3
:104EF600E1D7030AD8B4E4D7010AD8B4E8D7070A39
:104F0600D8B4ECD70D2A120031EC2DF035EC25F093
:104F160072EC25F028EC27F0436E0001E7514318A8
:104F2600FE0B4318E76FAFEC25F0436E0001E85126
:104F36004318FE0B4318E86FE7B102D0E8A109D089
:104F4600E9817A0E106E620E116E040E03EC0BF000
:104F56001200E991260E106E620E116E040E03EC1D
:104F66000BF01200146E43EC2BF0FF0AD8A404D009
:104F760008D00A0ED1EC2AF043EC2BF0FF0AD8A495
:104F8600F8D7FF0ED5EC2DF01450D5EC2DF012C04D
:104F960015F01550D5EC2DF011C015F01550D5ECC7
:104FA6002DF010C015F01550D5EC2DF00FC015F0F2
:104FB6001550D5EC2DF01350D5EC2DF01200000E47
:104FC600326E000E336E100E3324D96EDA6A010E7D
:104FD600DA22DF50D8B40DD0100E3324D96EDA6A37
:104FE600010EDA223250280FE16EE26ADFCFE7FFC8
:104FF600322A332A090E3364E6D7280E166E176A4C
:105006003CEC1CF016C024F017C025F018C026F0A2
:1050160019C027F01200000E336E000E346E100E0B
:105026003424D96EDA6A010EDA22DF50D8B40DD0F4
:10503600100E3424D96EDA6A010EDA223350280FA4
:10504600E16EE26ADFCFE7FF332A342A090E3464C1
:10505600E6D7280E166E176A3CEC1CF016C024F034
:1050660017C025F018C026F019C027F01200000E50
:10507600B06F000EAF6F1BD0ABC0D9FFACC0DAFF6C
:10508600DF504C6E4C50A46FA56BADC0A6F0AEC001
:10509600A7F092EC2AF0A42906E1A529D8A403D00A
:1050A600AB69AC691200AB4BAC2BAF4BB02BABC0B2
:1050B600D9FFACC0DAFFDF50D8A4DED7AFC0ABF063
:1050C600B0C0ACF01200000E126E000E136E000E91
:1050D600146E000E156E0AA008D00E5012260F5040
:1050E60013221050142211501522D8900E360F3666
:1050F60010361136D8900D320C320B320A320A5065
:105106000B100C100D10D8A4E6D712C00AF013C06D
:105116000BF014C00CF015C00DF01200000E106E4E
:10512600000E0F6E0C500D10D8B41CD0010E0E6E72
:1051360004D0D8900C360D360E2A0DAEFAD7D8907C
:105146000F3610360C500A5C0D500B58D8A005D0FF
:105156000C500A5E0D500B5A0F80D8900D320C324F
:105166000E2EEDD70FC00AF010C00BF0120014D0AF
:105176000DC0F6FF0EC0F7FFF86A070EF76403D0FE
:105186000800F55005D0F6CFE1FFF7CFE2FFE75074
:10519600E9EC25F00D4A0E2A0DC0F6FF0EC0F7FF0A
:1051A600F86A070EF76403D00800F55005D0F6CF6D
:1051B600E1FFF7CFE2FFE7500009D8B41200D8D7D5
:1051C6004DC04AF04EC04BF020EE1FF04A50D92693
:1051D6004B50DA22010EDF6E000E356E000E366E73
:1051E600000E376E000E386E15EC15F00009D8A4C7
:1051F60002D0080E1200000E0A6E000E0B6E000E94
:105206000C6E000E51EC2DF00009D8A4F2D7000E5A
:1052160012000C0E0101396F2F0E3A6F100E3B6F04
:10522600280E3C6FFC0E3D6F1B0E3E6F010E346F59
:10523600F40E336F030E366FE80E356F130E386FAC
:10524600880E376F010E2E6FF40E2D6F030E306F22
:10525600E80E2F6F130E326F880E316F000E526EEE
:105266001200316E18D029C016F02AC017F02BC0D4
:1052760018F02CC019F02DC01AF02EC01BF02FC04C
:105286001CF0EAEC15F0306E3050326E336A32C0E4
:1052960034F0345012003150000AD8B4E4D7010A71
:1052A600D8B4E1D7030AD8B4F4D7040E1200010E1D
:1052B6000A6E170E0B6E000E0B24D96EDA6A030EF9
:1052C600DA22A50E0A24E16EE26A010EE222DFCF9F
:1052D600E7FF0A2A0B2A210E0B64EDD7450E0301C0
:1052E6002019D8A404D0300E0101A56F12002D0E8E
:1052F6000101A56F1200010E0A6E0A0E0B6E000E5A
:105306000B24D96EDA6A030EDA22BE0E0A24E16E87
:10531600E26A010EE222DFCFE7FF0A2A0B2A130E0A
:105326000B64EDD74E0E03011519D8A404D0300E28
:105336000101BE6F12002D0E0101BE6F12000C6E30
:105346000C50D8B402D0050E12004D504E10D8B4F1
:1053560008D020EE1CF04D50D9264E50DA22000E11
:10536600DF6E0AC04DF00BC04EF00A500B10D8B4D9
:1053760008D020EE1CF00A50D9260B50DA22000E77
:10538600DF6E000E120010501110D8B414D020EEAB
:105396001CF01050D9261150DA22DF50D8B40BD0A9
:1053A60010C0D9FF11C0DAFF1250DE1804E1135005
:1053B600DE18D8B402D00C0E1200000EA6EC2BF0AC
:1053C600146E14A002D0010E1200000E12000AC0C4
:1053D6000EF00BC00FF002D00E4A0F2A0EC0D9FFF6
:1053E6000FC0DAFFDF50D8B405D0F6D70E4A0F2A21
:1053F6000C4A0D2A0CC0F6FF0DC0F7FFF86A0EC066
:10540600D9FF0FC0DAFF0800F5CFDFFFDF50D8B4B1
:105416001200ECD70CC013F00DC014F00AC011F046
:105426000BC012F010D013C0D9FF14C0DAFFDF5042
:10543600106E134A142A11C0D9FF12C0DAFF10C029
:10544600DFFF114A122A0E06D8A00F060E28EBE13E
:105456000F28D8B41200E7D727AE0ED02350D96E46
:10546600DA6A2D0EDF6E232A271E261E251E246CC1
:10547600000E25222622272223C017F024C018F06A
:1054860025C019F026C01AF027C01BF028C01CF052
:1054960029C01DF058EC1FF012000C500D10D8B4A6
:1054A60018D0010E0E6E04D0D8900C360D360E2A8A
:1054B6000DAEFAD70C500A5C0D500B58D8A004D08C
:1054C6000C500A5E0D500B5AD8900D320C320E2E2F
:1054D600F1D70AC00AF00BC00BF012000AC00CF09C
:1054E6000BC00DF002D00C4A0D2A0CC0F6FF0DC001
:1054F600F7FFF86A070EF76403D00800F55005D0E9
:10550600F6CFE1FFF7CFE2FFE7500009D8A4EBD7CB
:105516000A500C5C0A6E0B500D580B6E1200A65109
:10552600A711D8A405D0A4C0A4F0A5C0A5F0120068
:10553600A4C0A8F0A6C086F0A7C087F0A80E886F02
:10554600000E8A6F010E896FA90E8B6F09EC00F0B1
:10555600A951AA11D8A4E7D7A469A569120021EE1A
:10556600F3F010EE2FF0060EDBCFE3FFE806FCE2C9
:105576002F0E236E2BC024F02CC025F02DC026F054
:105586002EC027F0000E296E0A0E286E2FEC2AF088
:105596002F0E0D6E0E6ABAEC28F012000C6E100E6D
:1055A6000A6E940EE82EFED70A2EFCD700D0000E07
:1055B6000E6E000E0D6E06D08A8AFFEC2DF08A9ACA
:1055C6000D4A0E2A0C500A6E0B6A0A500D5C0B50DF
:1055D6000E58D8B01200F0D71DAE0CD01AC0D9FFA5
:1055E6001BC0DAFF2D0EDF6E1A4A1B2A1C6C1D1E0D
:1055F600D8B01D2A1AC011F01BC012F01CC013F03F
:105606001DC014F01EC015F01FC016F05FEC22F08E
:105616001200000E1B6E19AE06D0186C191ED8B0FB
:10562600192A010E1B6E18C00AF019C00BF00C6A7D
:105636008E0E0D6E1BC00EF05DEC21F00AC018F048
:105646000BC019F00CC01AF012008EEC2BF023ECF4
:105656002EF00AC00DF00BC00EF00DC0D9FF0EC023
:10566600DAFF310EDE18D8A4120044EC2CF07EECE2
:1056760029F05AEC29F076EC2BF05EEC2BF01200B8
:10568600FF0E0A6E7F0E0B6E000E0C6E000E0D6E78
:10569600FFEC2DF00E6E0E28D8B40BD00A06000EC5
:1056A6000B5A0C5A0D5A0A500B100C100D10D8A498
:1056B600EFD70E501200000E0A6E270E0B6E500E1C
:1056C6000B24D96EDA6A030EDA226A0E0A24E16E18
:1056D600E26A020EE222DFCFE7FF0A2A0B2A2B0E2E
:1056E6000B64EDD71200000E0A6E2E0E0B6E500ED6
:1056F6000B24D96EDA6A030EDA22E40E0A24E16E6E
:10570600E26A010EE222DFCFE7FF0A2A0B2A330EF6
:105716000B64EDD71200000E0A6E250E0B6E000EFE
:105726000B24D96EDA6A030EDA22EA0E0A24E16E37
:10573600E26A010EE222DFCFE7FF0A2A0B2A260ED3
:105746000B64EDD712000E6E0AD00E50CDEC2DF084
:105756000F6E0F5012000E50CDEC2DF0FAD70E50F2
:10576600000AD8B4F2D7010AD8B4F5D7030AD8B4D8
:10577600F0D7010E1200A7EC2DF0D59E01EC23F018
:1057860050EC23F00CEC29F0CBEC2CF0D58E00017C
:10579600F205D8A404D0000EF26F0AEC22F028EC31
:1057A6002BF0F5D70CC010F00DC011F004D0104A44
:1057B600112A0E4A0F2A0EC0D9FF0FC0DAFF10C0F9
:1057C600E1FF11C0E2FFDFCFE7FFE750D8B41200D8
:1057D600EED7040E0D6E010E58EC27F0BE0E0D6EC0
:1057E600010E0E6EBAEC28F0040E0D6E020E58EC89
:1057F60027F0A50E0D6E010E0E6EBAEC28F0120003
:105806000AC010F00BC011F008D010C0D9FF11C0AB
:10581600DAFF0CC0DFFF104A112A0E06D8A00F06C9
:105826000E28F3E10F28D8B41200EFD769C060F054
:105836006AC061F0A8EC1BF04C6E4C50D8A4120064
:10584600000120EE04F06951D9266A51DA22000ED1
:10585600DE6E000EDD6E1200040E0C6E0AC0D9FF5D
:105866000BC0DAFF560E0C24E16EE26A020EE2224B
:10587600DFCFE7FF0A4A0B2A0C2A070E0C64EED785
:105886001200000E0A6E000E0A24D96EDA6A030EA2
:10589600DA22D10E0A24E16EE26A010EE222DFCF9D
:1058A600E7FF0A2A050E0A64EED71200000E0C6EF8
:1058B6000AC0D9FF0BC0DAFF560E0C24E16EE26A6D
:1058C600020EE222DFCFE7FF0A4A0B2A0C2A030E5A
:1058D6000C64EED7120001014BB14CA10ED04DB1B4
:1058E6004EA10BD04FB150A108D04B914C914D9188
:1058F6004E914F915091010E1200000E12002A6E29
:1059060005D08AEC0CF02B6E2B5012002A50000AA0
:10591600D8B4F7D7010AD8B4F4D7030AD8B4F4D761
:10592600010E12000A500C02F3CF0EF0F4CF0FF066
:105936000A500D02F3500F260B500C02F3500F269F
:105946000EC00AF00FC00BF012000101D1510A0D72
:10595600F3CF0CF0F4CF0DF0D2510C26000E0D2231
:10596600F00E0C240A6EFD0E0D200B6E1200244A5A
:10597600252A24C016F025C017F03CEC1CF016C0F2
:1059860024F017C025F018C026F019C027F0120021
:10599600949C949E800E186E250E196E000E1A6E3B
:1059A600000E1B6EE2EC1DF0200EAC6E900EAB6E80
:1059B6001200D5510A0DF3CF0CF0F4CF0DF0D651ED
:1059C6000C26000E0D22F00E0C240A6EFD0E0D2084
:1059D6000B6E1200D3510A0DF3CF0CF0F4CF0DF07D
:1059E600D4510C26000E0D22F00E0C240A6EFD0E6C
:1059F6000D200B6E1200E6510A0DF3CF0CF0F4CF1A
:105A06000DF0E7510C26000E0D22F00E0C240A6E46
:105A1600FD0E0D200B6E1200E4510A0DF3CF0CF0B3
:105A2600F4CF0DF0E5510C26000E0D22F00E0C24DD
:105A36000A6EFD0E0D200B6E1200E8510A0DF3CF13
:105A46000CF0F4CF0DF0E9510C26000E0D22F00EED
:105A56000C240A6EFD0E0D200B6E1200000E0A6E4F
:105A66000A0E0B6E04D06EEC2CF00A6E0B060A5072
:105A7600D8A412000B50D8B41200F5D79392939A7B
:105A86009380949E8A8A3F0EC716000EC66EC79EE6
:105A9600C78CC698030EC66EC68A12000D6E02D05B
:105AA6000E5012000D50000AD8B4FAD7010AD8B425
:105AB600F7D7030AD8B4F4D7040E1200000E0A6E04
:105AC60000F0000E0B6E00F00B2A310E0B64FBD7B4
:105AD6000A2A630E0A64F4D712000C6E000E0B6ECF
