:0400000007EF00F016
:100008004382A7ED1CF0D6EF27F0C6C0D9F0C7C0D1
:10001800DAF0CAC0D9FFCBC0DAFF000EDE6E000EE0
:10002800DD6E000120EE04F0C451D926C551DA2254
:10003800DECF67F0DDCF68F0C4C0D9FFC5C0DAFFF6
:10004800DECF69F0DDCF6AF008EC2CF00001D86F44
:10005800D851D8A4120020EE02F0C451D926C551B7
:10006800DA22DFBE120020EE02F0C451D926C551B3
:10007800DA22DFA2120020EE0AF0C451D926C551B7
:10008800DA2210EE0AF0C451E126C551E222E6CF89
:10009800D0F0E6CFD1F0E6CFD2F0E6CFD3F0C8511A
:1000A800D025D46FC951D121D56F000ED221D66F7A
:1000B800000ED321D76FDE50D45DDE50D559DE5007
:1000C800D659DE50D759D8A012003BD220EE06F000
:1000D800C451D926C551DA22FF0EDE14CC6F010EA9
:1000E800DE14CD6F000EDE14CE6F000EDE14CF6F5F
:1000F800CC51CD11CE11CF11D8A466D120EE04F089
:10010800C451D926C551DA2210EE1DF0DE50E12681
:10011800DD50E22220EE03F0C451D926C551DA227F
:10012800E650DE5CD8A06DD020EE06F0C451D9268A
:10013800C551DA22DE50DE10DE10DE10D8A424D03D
:1001480020EE0EF0C451D926C551DA22DECFE1F0F7
:10015800DDCFE2F0E151E211D8A426D0000EB76F4E
:10016800000EB66F47EC17F0B6C0E1F0B7C0E2F08A
:10017800000120EE0EF0C451D926C551DA22E1C0A3
:10018800DEFFE2C0DDFF10D020EE10F0C451D9260A
:10019800C551DA22DECFB6F0DDCFB7F047EC17F065
:1001A800B6C0E1F0B7C0E2F00001E151E211D8B405
:1001B800CCD1E105E211D8B4FBD120EE04F0C45152
:1001C800D926C551DA2210EE16F0DE50E126DD50B0
:1001D800E222E650E15DE650E259D8B0E9D120EEDE
:1001E80010F0C451D926C551DA22E1C0DEFFE2C0C1
:1001F800DDFF20EE03F0C451D926C551DA22000EE6
:10020800DF6E20EE10F0C451D926C551DA22DECFB8
:100218006CF0DDCF6DF082EC22F0000120EE03F0EF
:10022800C451D926C551DA22DF50CC6FCC516C2588
:10023800DB6F000E6D21DC6F000E6E21DD6F000E8E
:100248006F21DE6FC8C0CCF0C9C0CDF0090ECE6FEB
:10025800D890CD33CC33CE2FFBD7CCC0DFF0CDC078
:10026800E0F0DF51E011D8B470D020EE03F0C451B3
:10027800D926C551DA22DF50CC6FCC51DF25CD6F9E
:10028800000EE021CE6F20EE04F0C451D926C551EE
:10029800DA2210EE1DF0DE50E126DD50E222E750B2
:1002A800CF6FD06BCD51CF5DCE51D059D8B021D0C2
:1002B80020EE03F0C451D926C551DA22DF50CC6FA5
:1002C800CD6BCC1FCD1FCC4BCD2B20EE04F0C451F1
:1002D800D926C551DA2210EE1DF0DE50E126DD5098
:1002E800E222E750CE6FCE51CC25DF6F000ECD2134
:1002F800E06FD9C07FF0DAC080F0DBC081F0DCC0ED
:1003080082F0DDC083F0DEC084F0DFC085F0000E2F
:1003180092EC27F00009D8A44BD1000120EE03F09D
:10032800C451D926C551DA22DF51DF26DFC0CCF00F
:10033800E0C0CDF0090ED890CC37CD37E82EFBD7EA
:10034800CCC0E3F0CDC0E4F0DFD020EE0AF0C45119
:10035800D926C551DA2210EE06F0C451E126C5515E
:10036800E222DE50E65CDE50E658DE50E658DE500B
:10037800E658D8A022D0000E8B6F000E8C6F000EAE
:100388008D6F000E8E6F27EC18F00009D8B410D1CD
:10039800000120EE04F0C451D926C551DA2210EE2E
:1003A80004F0DE50E126DD50E222DBC0E6FFDCC0CF
:1003B800E6FFDDC0E6FFDEC0E6FF20EE03F0C45135
:1003C800D926C551DA22DF2A20EE10F0C451D926E9
:1003D800C551DA22DECF6CF0DDCF6DF082EC22F071
:1003E800000120EE03F0C451D926C551DA22DF50AE
:1003F800CC6FCC516C25CD6F000E6D21CE6F000EE9
:100408006E21CF6F000E6F21D06FFF0ECD25DB6FF1
:10041800FF0ECE21DC6FFF0ECF21DD6FFF0ED02146
:10042800DE6FDBC08BF0DCC08CF0DDC08DF0DEC091
:100438008EF027EC18F00009D8B4BAD0FF0E0001EE
:10044800CC6F010ECD6F20EE06F0C451D926C551F0
:10045800DA22DECFCEF0DDCFCFF0CC51CE17CD51A2
:10046800CF17CE1FCF1FCE4BCF2B000ECE25E36F5D
:10047800020ECF21E46FE351C85DE451C959D8B0E9
:1004880004D0C8C0E3F0C9C0E4F0FF0ECC6F010E81
:10049800CD6F20EE06F0C451D926C551DA22DECF41
:1004A800CEF0DDCFCFF0CC51CE17CD51CF17200EE7
:1004B800CE27000ECF2320EE04F0C451D926C55113
:1004C800DA22DECFD0F0DDCFD1F0CE51D025606F6B
:1004D800CF51D121616FD9C062F0DAC063F0E3C0B7
:1004E80064F0E4C065F076EC2CF0000120EE04F036
:1004F800C451D926C551DA2210EE1FF0DE50E1268C
:10050800DD50E222010EE76EE351D927E451DA23E8
:1005180020EE06F0C451D926C551DA22E351DE2671
:10052800E451DE22000EDE22DE22CAC0D9FFCBC093
:10053800DAFFE351DE26E451DD22E351C85FE451DE
:10054800C95BC851C911D8A4C1D520EE06F0C45161
:10055800D926C551DA2210EE0AF0C451E126C55158
:10056800E222DE50E65CDE50E658DE50E658DE5009
:10057800E658D8B014D020EE06F0C451D926C5519B
:10058800DA2210EE0AF0C451E126C551E222DECF8C
:10059800E6FFDECFE6FFDECFE6FFDECFE6FF20EEAA
:1005A80002F0C451D926C551DA22000EDB8A1200A6
:1005B800000120EE02F0C451D926C551DA22000EFE
:1005C800DB8E120093C0D9FF94C0DAFFDECFB1F002
:1005D800DDCFB2F003D00001B14BB22BB1C0F6FFB2
:1005E800B2C0F7FFF86A070EF76403D00800F550A9
:1005F80005D0F6CFE9FFF7CFEAFFEF50200AD8B4CD
:10060800EAD7B1C0F6FFB2C0F7FFF86A070EF76481
:1006180003D00800F55005D0F6CFE9FFF7CFEAFF81
:10062800EF502F0AD8A403D00001B14BB22B93C0CE
:10063800D9FF94C0DAFFB1C0DEFFB2C0DDFFF6C05B
:10064800B9F0F7C0BAF00001B951BA11D8A402D074
:100658000A0E120020EE1CF0B951D926BA51DA223E
:10066800DF50D8B40FD0000E9AEC2CF00001B46F14
:10067800B4B108D09551D8A4B4A502D0090E12007F
:10068800000E1200B9C060F0BAC061F0000E636FCE
:10069800000E626F020E656F200E646F5FEC2EF025
:1006A800000E04EC2DF00001B46FB4A102D0010ECD
:1006B80012009551D8A4B4A502D0090E1200000E5C
:1006C800A96F000EAA6F000EAB6F000EAC6FA9C029
:1006D8008BF0AAC08CF0ABC08DF0ACC08EF008ECEB
:1006E80027F00001B36FB305D8A423D021EEE2F0C0
:1006F800B951D926BA51DA22DF50D8B41AD021EE2E
:10070800E6F0B951D926BA51DA22DECFA9F0DECF08
:10071800AAF0DECFABF0DECFACF0A9C08BF0AAC058
:100728008CF0ABC08DF0ACC08EF008EC27F0000167
:10073800B36FB351D8A40CD020EE2BF0B951D92601
:10074800BA51DA22DE5004E1020EDE18D8B402D023
:100758000B0E120020EE36F0B951D926BA51DA2222
:10076800DECF96F0DDCF97F096C0B5F097C0B6F023
:10077800B76BB86BB551B611B711B811D8A40ED074
:1007880020EE44F0B951D926BA51DA22DECFB5F0BD
:10079800DECFB6F0DECFB7F0DECFB8F020EE14F043
:1007A800B951D926BA51DA22B5C0DEFFB6C0DDFF8D
:1007B80020EE30F0B951D926BA51DA2210EE1EF0E7
:1007C800B951E126BA51E222DFCFE7FFB5C060F0A8
:1007D800B6C061F0B7C062F0B8C063F020EE1EF09A
:1007E800B951D926BA51DA22DF50966F9651646F03
:1007F800656B666B676BBDEC2AF060C0B5F061C0D5
:10080800B6F062C0B7F063C0B8F0000120EE2EF079
:10081800B951D926BA51DA22DECF96F0DDCF97F05A
:100828009651A925986F9751AA21996F000EAB216F
:100838009A6F000EAC219B6F20EE08F0B951D926B3
:10084800BA51DA2298C0DEFF99C0DEFF9AC0DEFFF7
:100858009BC0DEFF20EE2DF0B951D926BA51DA221D
:1008680010EE1DF0B951E126BA51E222DFCFE7FFC1
:1008780020EE31F0B951D926BA51DA2210EE02F041
:10088800B951E126BA51E222DECFE6FFDDCFE5FF1E
:1008980020EE33F0B951D926BA51DA22DECF96F0DC
:1008A800DDCF97F096C0ADF097C0AEF0AF6BB06BF0
:1008B800AD51AE11AF11B011D8A40ED020EE40F05A
:1008C800B951D926BA51DA22DECFADF0DECFAEF07B
:1008D800DECFAFF0DECFB0F020EE02F0B951D9266E
:1008E800BA51DA22DECF96F0DDCF97F0040E986F7A
:1008F800D89097339633982FFBD720EE2EF0B95126
:10090800D926BA51DA22DECF99F0DDCF9AF0995183
:1009180096259B6F9A5197219C6F9D6BD8B09D2B04
:100928009E6BB5519B259F6FB6519C21A06FB75107
:100938009D21A16FB8519E21A26F9F1FA01FA11FCB
:10094800A21F9F2B000EA023A123A223AD519F25F8
:10095800606FAE51A021616FAF51A121626FB0519C
:10096800A221636F20EE1DF0B951D926BA51DA22BF
:10097800DF50A36FA351646F656B666B676B18ECF0
:1009880028F0020E00016025A56F000E6121A66FF8
:10099800000E6221A76F000E6321A86F20EE16F0EB
:1009A800B951D926BA51DA22A5C0DEFFA6C0DDFFAB
:1009B800010EB36FA851A71106E1F70EA55D0F0E42
:1009C800A659D8A002D0020EB36FA851A71106E10C
:1009D800F70EA55DFF0EA659D8A002D00B0E120087
:1009E80020EE08F0B951D926BA51DA22DECF96F0B6
:1009F800DECF97F0DECF98F0DECF99F0B55196258F
:100A08009A6FB65197219B6FB75198219C6FB85137
:100A180099219D6F20EE0CF0B951D926BA51DA22EE
:100A28009AC0DEFF9BC0DEFF9CC0DEFF9DC0DEFFDC
:100A380020EE08F0B951D926BA51DA22DECF96F065
:100A4800DECF97F0DECF98F0DECF99F020EE02F0FF
:100A5800B951D926BA51DA22DECF9AF0DDCF9BF010
:100A6800040E9C6FD8909B339A339C2FFBD79A51D6
:100A780096259D6F9B5197219E6F000E98219F6F21
:100A8800000E9921A06FB5519D25A16FB6519E21E9
:100A9800A26FB7519F21A36FB851A021A46F20EE78
:100AA80010F0B951D926BA51DA22A1C0DEFFA2C08E
:100AB800DEFFA3C0DEFFA4C0DEFF20EE1AF0B951AE
:100AC800D926BA51DA22FF0EDE6EFF0EDD6E20EE59
:100AD8001CF0B951D926BA51DA22B3C0DFFF01019F
:100AE800444B452BB9C0D9FFBAC0DAFF44C1DEFF79
:100AF80045C1DDFF000E1200000120EE04F0C451D4
:100B0800D926C551DA22DECF67F0DDCF68F0C4C040
:100B1800D9FFC5C0DAFFDECF69F0DDCF6AF008EC97
:100B28002CF00001D66FD651D8A4120020EE02F0A6
:100B3800C451D926C551DA22DFBE120020EE0AF0D0
:100B4800C451D926C551DA22C651DE5CC751DE58D8
:100B5800C851DE58C951DE58D8B016D020EE02F080
:100B6800C451D926C551DA22DFB20ED020EE0AF0E0
:100B7800C451D926C551DA22DECFC6F0DECFC7F080
:100B8800DECFC8F0DECFC9F020EE06F0C451D9267A
:100B9800C551DA22DECFD7F0DECFD8F0DECFD9F0DC
:100BA800DECFDAF020EE06F0C451D926C551DA229C
:100BB800DE6ADE6ADE6ADD6A20EE03F0C451D926F9
:100BC800C551DA22FF0EDF6EC651C711C811C9110F
:100BD800D8B49BD120EE04F0C451D926C551DA22ED
:100BE80010EE1DF0DE50E126DD50E222E750CA6F1C
:100BF800CAC0CBF0CC6BCD6BCE6B090ED890CB377F
:100C0800CC37CD37CE37E82EF9D7CBC0DBF0CCC008
:100C1800DCF0CDC0DDF0CEC0DEF0D751D811D9114F
:100C2800DA11D8B48FD0FF0EC625606FFF0EC7212A
:100C3800616FFF0EC821626FFF0EC921636FDBC0B1
:100C480064F0DCC065F0DDC066F0DEC067F018EC6B
:100C580028F060C0CAF061C0CBF062C0CCF063C0BD
:100C6800CDF0FF0E0001D725606FFF0ED821616F10
:100C7800FF0ED921626FFF0EDA21636FDBC064F0CB
:100C8800DCC065F0DDC066F0DEC067F018EC28F067
:100C980000016051CA5D6151CB596251CC59635111
:100CA800CD59D8A04FD0FF0EDB25CA6FFF0EDC212F
:100CB800CB6FFF0EDD21CC6FFF0EDE21CD6FCA1F7B
:100CC800CB1FCC1FCD1FFF0ED725CE6FFF0ED8210F
:100CD800CF6FFF0ED921D06FFF0EDA21D16FCA5125
:100CE800CE15D26FCB51CF15D36FCC51D015D46F51
:100CF800CD51D115D56F20EE06F0C451D926C55176
:100D0800DA22D2C0DEFFD3C0DEFFD4C0DEFFD5C0FA
:100D1800DEFF20EE06F0C451D926C551DA22DE5096
:100D2800C65FDE50C75BDE50C85BDD50C95B20EE96
:100D380010F0C451D926C551DA22DECFDFF0DDCF5D
:100D4800E0F031D020EE0EF0C451D926C551DA2298
:100D5800DECFDFF0DDCFE0F0DF51E011D8A419D00D
:100D6800000EB76F000EB66F47EC17F0B6C0DFF095
:100D7800B7C0E0F00001DF05E011D8B4F9D020EEEB
:100D88000EF0C451D926C551DA22DFC0DEFFE0C01B
:100D9800DDFF20EE10F0C451D926C551DA22DFC09C
:100DA800DEFFE0C0DDFFDF51E011D8A464D0ADD094
:100DB80020EE02F0C451D926C551DA22DFA218D09C
:100DC800DFC0B6F0E0C0B7F047EC17F0B6C0DFF010
:100DD800B7C0E0F00001DF51E011D8A413D0DBC0A8
:100DE800C6F0DCC0C7F0DDC0C8F0DEC0C9F04DD029
:100DF800DFC0A0F0E0C0A1F051EC15F0A0C0DFF01A
:100E0800A1C0E0F00001E05104E1020EDF5DD8A0CE
:100E1800AFD020EE04F0C451D926C551DA2210EE25
:100E280016F0DE50E126DD50E222E650DF5DE650A6
:100E3800E059D8B09DD020EE10F0C451D926C55144
:100E4800DA22DFC0DEFFE0C0DDFF20EE06F0C4518D
:100E5800D926C551DA22DB51DE26DC51DE22DD51EE
:100E6800DE22DE51DE22DB51C65FDC51C75BDD517D
:100E7800C85BDE51C95BC651DB5DC751DC59C8513F
:100E8800DD59C951DE59D8A093D720EE06F0C451D8
:100E9800D926C551DA22C651DE26C751DE22C851ED
:100EA800DE22C951DE2220EE03F0C451D926C551F5
:100EB800DA22C6C0CAF0C7C0CBF0C8C0CCF0C9C0DF
:100EC800CDF00A0E05D0D890CD33CC33CB33CA330E
:100ED800E82EF9D7CA51DF6EFF0EC615CA6F010E8C
:100EE800C715CB6F000EC815CC6F000EC915CD6F96
:100EF800CA51CB11CC11CD11D8B407D020EE03F0D4
:100F0800C451D926C551DA22DF2A20EE06F0C45191
:100F1800D926C551DA2210EE0AF0C451E126C5518E
:100F2800E222DE50E65CDE50E658DE50E658DE503F
:100F3800E658D8B0120020EE06F0C451D926C551A3
:100F4800DA2210EE0AF0C451E126C551E222DECFC2
:100F5800E6FFDECFE6FFDECFE6FFDECFE6FF20EEE0
:100F680002F0C451D926C551DA22000EDB8A1200DC
:100F780020EE02F0C451D926C551DA22000EDB8ECC
:100F88001200D50E02015A6F010E5B6F000E4F6FF3
:100F9800000E4E6F4EC25CF24FC25DF25C2903E157
:100FA8005D29D8B41200D3C1F6FFD4C1F7FF0800F9
:100FB800F5CF60F20101D34BD42B02016051D8B4B4
:100FC8001200250E6019D8B415D060C2E5F00001F2
:100FD800E66BD1C1E7F0D2C1E8F0E9EC2AF0E5C050
:100FE8005CF2E6C05DF202015C2903E15D29D8B438
:100FF800AED196D0000E546F54C252F2536BD3C187
:10100800F6FFD4C1F7FF0800F5CF60F20101D34B1A
:10101800D42B300E02016019D8A42ED0010E546FC3
:1010280021D052C260F053C261F0000E0001636F1C
:101038000A0E626FE1EC2EF0020160510101DD6FD2
:10104800DE6B000160510101DD27000161510101E2
:10105800DE23D00EDD250201526FFF0E0101DE21D5
:101068000201536FD3C1F6FFD4C1F7FF0800F5CFD3
:1010780060F20101D34BD42B2F0E0201606503D01F
:10108800390E6065CED76C0E6019D8A40BD0548386
:10109800D3C1F6FFD4C1F7FF0800F5CF60F2010114
:1010A800D34BD42B730E02016019D8A418D05AC29E
:1010B800D9FF5BC2DAFFDECFCDF1DDCFCEF1D1C1F2
:1010C800CFF1D2C1D0F15FEC2AF0CDC15CF2CEC134
:1010D8005DF2020E02015A27000E5B2338D1630E1F
:1010E8006019D8A422D05AC2D9FF5BC2DAFFDF50F8
:1010F8000101DD6FDD510001E56FE66BD1C1E7F05D
:10110800D2C1E8F0E9EC2AF0E5C05CF2E6C05DF295
:10111800020E02015A27000E5B235C2901E166D703
:10112800000E5D6F010E5C6F12D1000E556F640EDC
:101138006019D8A402D00A0E556F750E6019D8A48C
:1011480002D00A0E556F580E6019D8A402D0100E9E
:10115800556F5551D8B4120054A30ED05AC2D9FFB6
:101168005BC2DAFFDECF56F2DECF57F2DECF58F29F
:10117800DECF59F2040E21D0640E6019D8B40FD016
:101188005AC2D9FF5BC2DAFFDECFDDF1DDCFDEF177
:10119800DDC156F2DEC157F2586B596B0DD05AC2F9
:1011A800D9FF5BC2DAFFDECF56F2DDCF57F2000E71
:1011B80057BFFF0E586F596F020E5A27000E5B2358
:1011C800640E6019D8A40DD0800E595DD8A009D03E
:1011D800591F581F571F566D000E57235823592360
:1011E8005485000E5F6F0F0E5E6F3E0E5E25D96E42
:1011F800020E5F21DA6E000EDF6E56C260F057C233
:1012080061F058C262F059C263F055510001646F31
:10121800656B666B676BF7EC29F000016051300F66
:101228000201606F390E606502D0070E60275E0705
:10123800D8A05F073E0E5E25D96E020E5F21DA6EDA
:1012480060C2DFFF56C260F057C261F058C262F058
:1012580059C263F055510001646F656B666B676B2B
:1012680018EC28F060C056F261C057F262C058F21C
:1012780063C059F202015E515F11D8B406D05651CD
:10128800571158115911D8A4B8D75E515F11D8A475
:1012980054A50BD05E07D8A05F073E0E5E25D96E19
:1012A800020E5F21DA6E2D0EDF6E010E522501014E
:1012B800DD6F000E020153210101DE6FDD1FDE1F0D
:1012C800DD4BDE2B100EDD250201526F000E0101F1
:1012D800DE210201536F16D0020154B104D0000E72
:1012E800516F200E03D0000E516F300E506F5E0705
:1012F800D8A05F073E0E5E25D96E020E5F21DA6E1A
:1013080050C2DFFF5E515F11D8B40DD05E51525DFF
:101318005351800A0101DD6F02015F51800A01010A
:10132800DD59D8A0D9D73E0E02015E250101CD6F47
:10133800020E02015F210101CE6FD1C1CFF1D2C1EE
:10134800D0F15FEC2AF0CDC15CF2CEC15DF20201B2
:101358005C514E275D514F235C2901E121D623D6EC
:10136800000120EE04F0D751D926D851DA22000E18
:10137800DE6E000EDD6E1F0EDB17D90E936F000EAA
:10138800946FDB511E0B956FE6EC02F00101DF6FE5
:10139800DF51D8B402D0DF511200E20E0001C06F55
:1013A800010EC16FCD0EC26F010EC36FD9C0C4F05C
:1013B800DAC0C5F0E00EC66F010EC76FE2EC0EF0A2
:1013C8000101DF6FDBC0DCF01C0E0001DC17D8B4B4
:1013D800F6D00101DF51D8B442D0020EDF19D8B4DB
:1013E80002D0DF511200E20E0001C46F010EC56F7A
:1013F800E00EC66F010EC76F8BEC11F00101DF6FB5
:10140800DF51D8B402D0DF511200E0C160F0E1C171
:1014180061F0000E0001636F000E626F000E656FD1
:10142800200E646F5FEC2EF0E0C160F0E1C161F066
:10143800CD0E0001626F010E636F000E656F0B0E1B
:10144800646F76EC2CF0010120EE0CF0E051D92607
:10145800E151DA22D8C1DFFF0001DB8780D000012B
:10146800DBA502D0070E12000101E051E111D8B44A
:101478000DD020EE0BF0E051D926E151DA22DF50F1
:101488000001DC6F110EDC17D8B402D0060E120072
:10149800DBA765D0010120EE1AF0E051D926E15111
:1014A800DA22DECFD9F1DDCFDAF120EE1AF0E05101
:1014B800D926E151DA22000EDE6E000EDD6E20EE36
:1014C8001CF0E051D926E151DA22DE6ADE6ADE6AD2
:1014D800DD6A20EE1FF0E651D926E751DA22010E27
:1014E800DF6E20EE04F0E651D926E751DA22DECF8E
:1014F800DBF1DECFDCF1DECFDDF1DECFDEF1D9C10D
:10150800B6F0DAC1B7F040EC24F00009D8B40DD039
:10151800DBC18BF0DCC18CF0DDC18DF0DEC18EF05B
:1015280027EC18F00009D8A402D0080E1200FF0E0C
:101538000001DC6FFF0EDD6FD9C1DEF0DAC1DFF02C
:10154800DC51DE27DD51DF23010120EE18F0E651E2
:10155800D926E751DA22DEC0DEFFDFC0DDFF000159
:10156800DBA74FD0010120EE0BF0E051D926E15165
:10157800DA22000EDF6E56EC1DF06AC0DBF16BC09C
:10158800DCF16CC0DDF16DC0DEF1010120EE0EF082
:10159800E051D926E151DA22DBC1DEFFDCC1DEFFF2
:1015A800DDC1DEFFDEC1DEFF20EE1FF0E651D926E9
:1015B800E751DA22010EDF6E0001DB8B22D0010138
:1015C800DF51D8B402D0DF511200E051E111D8B494
:1015D80008D020EE0BF0E051D926E151DA22DFA83D
:1015E80002D0020E12000001DBA30BD0010120EE95
:1015F8000BF0E051D926E151DA22DFA002D0060E25
:101608001200010120EE04F0E651D926E751DA2252
:10161800000110EE16F0D751E126D851E222DECFB4
:10162800E6FFDECFE6FFDECFE6FFDECFE6FF20EE09
:101638001AF0D751D926D851DA22E0C1DEFFE1C12C
:10164800DDFF20EE02F0D751D926D851DA22DBC0CF
:10165800DFFF010120EE1AF0E051D926E151DA222C
:10166800000110EE0EF0D751E126D851E222DECF6C
:10167800E6FFDDCFE5FF010120EE1CF0E051D926A1
:10168800E151DA22000110EE0AF0D751E126D851D3
:10169800E222DECFE6FFDECFE6FFDECFE6FFDECFDB
:1016A800E6FF20EE06F0D751D926D851DA22DE6AB5
:1016B800DE6ADE6ADD6A20EE03F0D751D926D851FA
:1016C800DA22FF0EDF6E20EE04F0D751D926D8516A
:1016D800DA22E6C1DEFFE7C1DDFFE6C1D9FFE7C1D7
:1016E800DAFFD7C0E1FFD8C0E2FFDECFE6FFDDCFEB
:1016F800E5FF000E12000001696F66C060F067C068
:1017080061F014EC2BF000016051686F9AD1000E63
:101718006A6F050E6A6501D0120066C0F6FF67C0E1
:10172800F7FFF86A6A51010D070EF324D96E020E0D
:10173800F420DA6E070EF76403D00800F55005D0E0
:10174800F6CFE9FFF7CFEAFFEF50DF6E0001664BF7
:10175800672B6A2BDED7000E6A6F050E6A6501D00B
:10176800120066C0F6FF67C0F7FFF86A6A51010DFC
:10177800000EF324D96E020EF420DA6E070EF76419
:1017880003D00800F55005D0F6CFE9FFF7CFEAFF00
:10179800EF50DF6E0001664B672B6A2BDED7664B76
:1017A800672B000E6A6F0A0E6A6501D0120066C0C8
:1017B800F6FF67C0F7FFF86A070EF76403D0080062
:1017C800F55005D0F6CFE9FFF7CFEAFFEF502D0A25
:1017D800D8B41AD066C0F6FF67C0F7FFF86A0001F0
:1017E8006A51010D160EF324D96E020EF420DA6E3A
:1017F800070EF76403D00800F55005D0F6CFE9FFCF
:10180800F7CFEAFFEF50DF6E0001664B672B6A2BBC
:10181800CAD7664B672B000E6A6F0B0E6A6501D03C
:10182800120066C0F6FF67C0F7FFF86A070EF76494
:1018380003D00800F55005D0F6CFE9FFF7CFEAFF4F
:10184800EF502D0AD8B41AD066C0F6FF67C0F7FF6C
:10185800F86A00016A51010D230EF324D96E020EB5
:10186800F420DA6E070EF76403D00800F55005D0AF
:10187800F6CFE9FFF7CFEAFFEF50DF6E0001664BC6
:10188800672B6A2BCAD7000E6A6F050E6A6501D0EE
:10189800120066C0F6FF67C0F7FFF86A070EF76424
:1018A80003D00800F55005D0F6CFE9FFF7CFEAFFDF
:1018B800EF50200AD8B42DD066C0F6FF67C0F7FFF6
:1018C800F86A070EF76403D00800F55005D0F6CF84
:1018D800E9FFF7CFEAFFEF500009D8B41AD066C085
:1018E800F6FF67C0F7FFF86A00016A51010D340E70
:1018F800F324D96E020EF420DA6E070EF76403D0D3
:101908000800F55005D0F6CFE9FFF7CFEAFFEF5012
:10191800DF6E0001664B672B6A2BB7D7000E6A6F24
:10192800030E6A6501D0120066C0F6FF67C0F7FFB4
:10193800F86A6A51010D140EF324D96E020EF420D0
:10194800DA6E070EF76403D00800F55005D0F6CF1D
:10195800E9FFF7CFEAFFEF50DF6E0001664B672B18
:101968006A2BDED7000E6A6F030E6A6501D012007B
:1019780066C0F6FF67C0F7FFF86A6A51010D120EDC
:10198800F324D96E020EF420DA6E070EF76403D042
:101998000800F55005D0F6CFE9FFF7CFEAFFEF5082
:1019A800DF6E0001664B672B6A2BDED7000E6A6F6D
:1019B800050E6A6501D0120066C0F6FF67C0F7FF22
:1019C800F86A070EF76403D00800F55005D0F6CF83
:1019D800E9FFF7CFEAFFEF50200AD8B42DD066C050
:1019E800F6FF67C0F7FFF86A070EF76403D0080030
:1019F800F55005D0F6CFE9FFF7CFEAFFEF50000921
:101A0800D8B41AD066C0F6FF67C0F7FFF86A0001BD
:101A18006A51010D300EF324D96E020EF420DA6EED
:101A2800070EF76403D00800F55005D0F6CFE9FF9C
:101A3800F7CFEAFFEF50DF6E0001664B672B6A2B8A
:101A4800B7D76951000AD8B462D6010AD8B483D688
:101A5800030AD8B4A4D6010AD8B4DBD6070AD8B486
:101A680012D7010AD8B45AD7030AD8B47BD7010AC7
:101A7800D8A412009BD7000E0001756F000E746F7A
:101A8800000E786F000E776F000E7E6F000E7D6F70
:101A9800000E7F6F100E0001736F940EE82EFED7B4
:101AA800732FFCD700F0640EE2EC2CF093EC24F0DA
:101AB800AA0E0001656F010E666F000E676F000EBB
:101AC800686F870E696F480E2BEC2AF0BCEC2FF07C
:101AD800B5EC2FF000017B6F7B05D8A404D07B51B7
:101AE8007A6F796B06D0AA0E7B19D8A402D07B51E5
:101AF8007913774B782BAA0E791903E17A05D8B4B4
:101B080008D078BFE5D7E80E775D030E7859D8A0DE
:101B1800DFD7AA0E791902E17A05D8A4B1D0000E50
:101B2800786F000E776F000E7E6F000E7D6F7F69F5
:101B38000A0EE2EC2CF0000E0001656F000E666FD5
:101B4800000E676F000E686F000E696F770E2BEC42
:101B58002AF000017F69BCEC2FF0B5EC2FF00001F2
:101B68007F6F7D4B7E2B7F05D8B408D07EBFF5D71D
:101B78007E5104E10A0E7D5DD8A0EFD7000E7E6F7E
:101B8800000E7D6F0A0EE2EC2CF0000E0001656F6E
:101B9800000E666F000E676F400E686F000E696F6B
:101BA800690E2BEC2AF0BCEC2FF0B5EC2FF00001FD
:101BB8007F6F7D4B7E2B7F51D8A4BAD77F690A0EE1
:101BC800E2EC2CF0000E0001656F000E666F000E4F
:101BD800676F000E686FFF0E696F7A0E2BEC2AF0A4
:101BE800BCEC2FF0B5EC2FF000017F6F7F517F2503
:101BF800800B7C6F7D4B7E2B7C51D8B40BD07C0541
:101C0800D8B408D07EBFEED77E5104E10A0E7D5DC0
:101C1800D8A0E8D77C51D8B403D07C05D8A483D702
:101C2800000E786F000E776F100E0001736F940E20
:101C3800E82EFED7732FFCD700F0000E0001766F58
:101C48007C51D8A4B9D00A0EE2EC2CF0000E0001A9
:101C5800656F020E666F000E676F000E686FFF0EED
:101C6800696F500E2BEC2AF0BCEC2FF000017F6955
:101C7800B5EC2FF000017F6F7F51D8B49DD0F8D715
:101C8800000E7E6F000E7D6F7F69010EE2EC2CF076
:101C9800000E0001656F000E666F000E676F000E84
:101CA800686FFF0E696F690E2BEC2AF0BCEC2FF001
:101CB800B5EC2FF000017F6F7D4B7E2B7F51D8A4B0
:101CC8000CD0000E636F010E5AEC28F00F0E0001C5
:101CD800636F620E646F69EC2BF0100E0001736F76
:101CE800940EE82EFED7732FFCD700F000017F5129
:101CF800D8B408D07EBFDCD7100E7D5D270E7E5984
:101D0800D8A0D6D77F690A0E7D197E11D8A438D0FD
:101D1800000E7E6F000E7D6F0A0EE2EC2CF0000EB6
:101D28000001656F000E666F000E676F000E686F2A
:101D3800FF0E696F410E2BEC2AF0BCEC2FF0B5ECCE
:101D48002FF000017F6F7D4B7E2B7F51D8A40CD0E4
:101D5800000E636F010E5AEC28F0D10E0001636F7C
:101D6800610E646F69EC2BF000017F51D8B408D084
:101D78007EBFE5D7100E7D5D270E7E59D8A0DFD730
:101D88000A0EE2EC2CF0000E0001656F020E666F81
:101D9800000E676F000E686FFF0E696F500E2BEC18
:101DA8002AF0BCEC2FF000017F69B5EC2FF00001A0
:101DB8007F6F7F51D8A4F9D776511200000E000129
:101DC800D56F000ED66FF6C0D0F0F7C0D1F020EE78
:101DD80004F0C051D926C151DA22D0C0DEFFD1C0EB
:101DE800DDFF20EE0CF0D051D926D151DA22DECF1A
:101DF800D2F0DDCFD3F020EE06F0C051D926C15184
:101E0800DA22000EDE6E000EDD6E10EE08F0C05114
:101E1800E126C151E222DECFE6FFDDCFE5FFD25158
:101E2800C86FD351C96FCA6BCB6B20EE0AF0C05193
:101E3800D926C151DA22C8C0DEFFC9C0DEFFCAC038
:101E4800DEFFCBC0DEFF20EE02F0C051D926C15123
:101E5800DA22000EDE6E000EDD6EC4C0F6FFC5C0CD
:101E6800F7FFF86A070EF76403D00800F55005D0AD
:101E7800F6CFE9FFF7CFEAFFEF500009D8A40AD060
:101E8800C6C0D9FFC7C0DAFF000EDE6E000EDD6ED9
:101E9800000E1200C40E0001686F000E696FC2C008
:101EA8006AF0C3C06BF08EEC1AF00001D46FD40551
:101EB800D8A402D0040E1200000120EE0AF0C0518E
:101EC800D926C151DA22DECF8BF0DECF8CF0DECFFF
:101ED8008DF0DECF8EF027EC18F00009D8A402D0E0
:101EE800080E1200000120EE02F0C051D926C1519F
:101EF800DA22DECFC8F0DDCFC9F00F0EC817000E0A
:101F0800C917050ED890C837C937E82EFBD7200E59
:101F1800C827000EC923C851D025D56FC951D12172
:101F2800D66FD5C0D9FFD6C0DAFFDF50D8A40DD000
:101F3800D451D8B404D0000ECD6F030E03D0000ED8
:101F4800CD6F020ECC6FCC511200D5C0D9FFD6C0D0
:101F5800DAFFE50EDE18D8B41BD020EE0BF0D55111
:101F6800D926D651DA22DFB613D0D5C060F0D6C054
:101F780061F0C2C062F0C3C063F0000E656F0B0E63
:101F8800646FE5EC24F0000160516111D8B417D0FA
:101F9800C0C0B3F0C1C0B4F0CAEC19F00009D8A4AD
:101FA8008BD70001D451D8B404D0000ECF6F030EE4
:101FB80003D0000ECF6F020ECE6FCE511200D45157
:101FC800D8A40AD0C6C0D9FFC7C0DAFFD5C0DEFF83
:101FD800D6C0DDFF000E120020EE0BF0D551D92639
:101FE800D651DA22DFB802D0030E120020EE1AF022
:101FF800D551D926D651DA22DECFD2F0DDCFD3F0B3
:1020080020EE06F0C051D926C151DA22D2C0DEFF37
:10201800D3C0DDFF10EE08F0C051E126C151E22225
:10202800DECFE6FFDDCFE5FFD2C06CF0D3C06DF0A8
:1020380082EC22F0000120EE0AF0C051D926C151ED
:10204800DA226CC0DEFF6DC0DEFF6EC0DEFF6FC03F
:10205800DEFF20EE02F0C051D926C151DA22020E6D
:10206800DE6E000EDD6E16D784A003D03704D8A428
:10207800F0D032503310D8A466D00001F5B10DD09D
:10208800080E636F010E5AEC28F03A0E0001636FD8
:10209800620E646F69EC2BF044D0080E0001636F88
:1020A800010E5AEC28F05F0E0001636F620E646F38
:1020B80069EC2BF00D0E0001636F010E5AEC28F04D
:1020C8000001F3A103D08F6B8F2B02D000018F6B1F
:1020D8008F51846F856B866B876B2EEC2CF00E0E00
:1020E8000001636F010E5AEC28F07D0E0001636F4A
:1020F800620E646F69EC2BF00F0E0001636F010E26
:102108005AEC28F00001F4A103D08F6B8F2B02D07A
:1021180000018F6B8F51846F856B866B876B2EECFC
:102128002CF0080E0001636F020E5AEC28F0C8EC80
:102138002FF060C063F061C064F069EC2BF0270EEB
:10214800336E100E326E3604D8B481D0010E376E5D
:10215800010E76EC26F0000E0001636F010E5AECBA
:1021680028F0330E0001636F620E646F69EC2BF088
:102178000001F5B10DD0080E636F010E5AEC28F07E
:102188003A0E0001636F620E646F69EC2BF044D065
:10219800080E0001636F010E5AEC28F05F0E000173
:1021A800636F620E646F69EC2BF00D0E0001636FB4
:1021B800010E5AEC28F00001F3A103D08F6B8F2B8E
:1021C80002D000018F6B8F51846F856B866B876B94
:1021D8002EEC2CF00E0E0001636F010E5AEC28F065
:1021E8007D0E0001636F620E646F69EC2BF00F0EB9
:1021F8000001636F010E5AEC28F00001F4A103D02E
:102208008F6B8F2B02D000018F6B8F51846F856B82
:10221800866B876B2EEC2CF0000E0001636F020EAC
:102228005AEC28F05A0E0001636F620E646F69EC75
:102238002BF0080E0001636F020E5AEC28F0C8EC70
:102248002FF060C063F061C064F069EC2BF0010E00
:10225800366E84A204D0020E3718D8A431D032507A
:102268003310D8A406D02BEC2EF0070E336ED00E08
:10227800326E020E3618D8B421D0020E376E010E17
:1022880076EC26F0000E0001636F010E5AEC28F080
:10229800720E0001636F620E646F69EC2BF0000E22
:1022A8000001636F020E5AEC28F06E0E0001636F96
:1022B800620E646F69EC2BF02BEC2EF0020E366E7A
:1022C8003750D8A41200040E3618D8B41DD0010E09
:1022D80076EC26F0000E0001636F010E5AEC28F030
:1022E800190E0001636F620E646F69EC2BF0000E2B
:1022F8000001636F020E5AEC28F02B0E0001636F89
:10230800620E646F69EC2BF0040E366E1200000149
:1023180020EE04F0C451D926C551DA22DECFD4F01C
:10232800DDCFD5F020EE06F0C451D926C551DA220A
:10233800DECFD2F0DDCFD3F0D251D311D8B420D034
:1023480020EE08F0C451D926C551DA22D2C0DEFFEA
:10235800D3C0DDFFD2C06CF0D3C06DF082EC22F0A8
:10236800000120EE0AF0C451D926C551DA226CC00A
:10237800DEFF6DC0DEFF6EC0DEFF6FC0DEFF14D073
:1023880020EE0CF0D451D926D551DA2210EE0AF0FD
:10239800C451E126C551E222DECFE6FFDECFE6FFDB
:1023A800DECFE6FFDECFE6FF20EE02F0C451D926ED
:1023B800C551DA22000EDE6E000EDD6E000120EE41
:1023C8000AF0C451D926C551DA22DECF8BF0DECF10
:1023D8008CF0DECF8DF0DECF8EF027EC18F0000900
:1023E800D8A402D0080E1200000120EE02F0C45159
:1023F800D926C551DA22DECFC8F0DDCFC9F00F0EDD
:10240800C817000EC917050ED890C837C937E82E67
:10241800FBD7200EC827000EC923C851D425CF6F7B
:10242800C951D521D06FCFC0D9FFD0C0DAFFDF5056
:10243800D16FD151D8B404D0E50ED119D8A40AD09F
:10244800C6C0D9FFC7C0DAFFCFC0DEFFD0C0DDFFEE
:10245800000E1200C4C0B3F0C5C0B4F0CAEC19F045
:102468000009D8A4ABD70001D251D311D8B415D0E4
:1024780020EE08F0C451D926C551DA22DECFB6F0D5
:10248800DDCFB7F047EC17F0B6C0D2F0B7C0D3F045
:102498000001D251D311D8A402D0060E1200D205E1
:1024A800D311D8B40DD0000E8B6F000E8C6F000EB8
:1024B8008D6F000E8E6F27EC18F00009D8A402D09B
:1024C800080E1200D2C06CF0D3C06DF082EC22F07E
:1024D8006CC0CAF06DC0CBF06EC0CCF06FC0CDF050
:1024E800000120EE04F0D451D926D551DA22CAC011
:1024F800DEFFCBC0DEFFCCC0DEFFCDC0DEFF200E8E
:10250800D425606F000ED521616F000E636F000E39
:10251800626F020E656F000E646F5FEC2EF00001B3
:1025280020EE1DF0D451D926D551DA22DF50CE6FD6
:1025380020D0200ED4257F6F000ED521806FCAC011
:1025480081F0CBC082F0CCC083F0CDC084F0010E06
:10255800856F000E92EC27F00009D8B402D0080E5F
:102568001200010E0001CA27000ECB23CC23CD2375
:10257800CE07CE51D8A4DDD720EE1FF0D451D926EE
:10258800D551DA22010EDF6E200ED425C86F000E59
:10259800D521C96FC6C0D9FFC7C0DAFFC8C0DEFFE2
:1025A800C9C0DDFF000E1200F6C0B4F0F7C0B5F0E8
:1025B800000120EE08F0B451D926B551DA22DECF59
:1025C800ACF0DECFADF0DECFAEF0DECFAFF011D1A4
:1025D800A0C060F0A1C061F0000E636F030E626FCF
:1025E800E1EC2EF0D89000016131A46F6031B06F3A
:1025F800A4C0B1F0B0C0A4F0B1C0A5F0090EA66F98
:10260800D890A533A433A62FFBD7A451AC258B6F44
:10261800A551AD218C6F000EAE218D6F000EAF213C
:102628008E6F27EC18F00009D8A402D0000E120013
:10263800FF0E0001A46F010EA56FB0C0A6F0B1C0D7
:10264800A7F0A451A617A551A717200EA627000E7C
:10265800A723A651B425B26FA751B521B36FA0B176
:1026680004D0A2C0A8F0A96B1AD0A251A46FA56B80
:10267800A43BA53BF00EA517A4510F0BA513F00E14
:10268800A417B2C0D9FFB3C0DAFFDF500F0BA66F93
:10269800A76BA451A611A86FA551A711A96FB2C025
:1026A800D9FFB3C0DAFFA8C0DFFFB04BB12B20EED3
:1026B8001FF0B451D926B551DA22010EDF6EB0C031
:1026C800A4F0B1C0A5F0090EA66FD890A533A43325
:1026D800A62FFBD7A451AC258B6FA551AD218C6FCC
:1026E800000EAE218D6F000EAF218E6F27EC18F013
:1026F8000009D8A402D0000E1200FF0E0001A46F3A
:10270800010EA56FB0C0A6F0B1C0A7F0A451A617DE
:10271800A551A717200EA627000EA723A651B4255A
:10272800B26FA751B521B36FA0B113D0A2C0A4F066
:10273800A3C0A5F0A5C0A4F0A56B0F0EA417B2C046
:10274800D9FFB3C0DAFFDF50F00BA411A66FA65172
:102758000CD0A2C0A4F0A3C0A5F0040EA66FD89018
:10276800A533A433A62FFBD7A451AA6FAB6BB2C075
:10277800D9FFB3C0DAFFAAC0DFFF49D0A0C0A4F0D8
:10278800A1C0A5F0A5C0A4F0A56BA451AC258B6F82
:10279800A551AD218C6F000EAE218D6F000EAF21BB
:1027A8008E6F27EC18F00009D8A402D0000E120092
:1027B800FF0E0001A46F010EA56FA0C0A6F0A1C076
:1027C800A7F0D890A637A737A451A617A551A717E1
:1027D800200EA627000EA723A651B425D96EA7510F
:1027E800B521DA6EA2C0DEFFA3C0DDFF10D0000E57
:1027F800120020EE1CF0B451D926B551DA22DF5070
:10280800010AD8B4E5D6030AD8B4B8D7F0D720EE71
:102818001FF0B451D926B551DA22010EDF6E010E30
:1028280012000B6E0BC00CF02DD14004D8A405D0BB
:10283800000E0001FB6F010EFA6F020E4018D8A4BB
:1028480005D0000E0001F96F010EF86F0001FA5172
:10285800FB11D8B41200F851F911D8B41200000EC7
:10286800F96F000EF86FF8C0FAF0F9C0FBF012002B
:10287800000E416E41C03FF012004150010D960E0E
:10288800F324D96E010EF420DA6E000EDF6E3F508D
:10289800D8A432D0960E016E010E026EC50E036EDC
:1028A800010E046E000E066E000E056E050E076E14
:1028B800BBEC2BF0C50E016E010E026E540E036EBA
:1028C800620E046EBEEC2CF001500210D8A402D0A7
:1028D800010E11D0C50E016E010E026E4E0E036E72
:1028E800620E046EBEEC2CF001500210D8A402D087
:1028F800020E01D0030E406E3F04D8A415D0400448
:10290800D8A412D0960E016E010E026EAD0E036EA3
:10291800010E046E000E066E000E056E060E076EA2
:10292800BBEC2BF001012F81030E3F18D8A415D062
:102938004004D8A412D0960E016E010E026EA20EAB
:10294800036E010E046E000E066E010E056E0A0E71
:10295800076EBBEC2BF001013081040E3F18D8A4A0
:102968000CD04004D8A409D04E0E01019619D8A461
:1029780002D0300E01D02D0EA26F050E3F18D8A43C
:1029880015D04004D8A412D0960E016E010E026E26
:102998008A0E036E010E046E000E066E010E056EA1
:1029A8000B0E076EBBEC2BF001013181060E3F18B0
:1029B800D8A40CD04004D8A409D0450E010196191A
:1029C800D8A402D0300E01D02D0E8A6F070E3F1802
:1029D800D8A415D04004D8A412D0960E016E010ECA
:1029E800026EBF0E036E010E046E000E066E000E20
:1029F800056E030E076EBBEC2BF001013481090E46
:102A08003F18D8A415D04004D8A412D0960E016E51
:102A1800010E026EB80E036E010E046E000E066EF5
:102A2800000E056E060E076EBBEC2BF0010132811D
:102A3800060E3F18D8A416D0020E4018D8A412D0FB
:102A4800960E016E010E026ECB0E036E010E046E21
:102A5800000E066E000E056E020E076EBBEC2BF024
:102A6800010133813F2A000E416E12004150010DD1
:102A7800960EF324D96E010EF420DA6E0CC0DFFF37
:102A8800412A12000C500D0AD8B4CFD6290AD8B45E
:102A9800EFD6080AD8B4F1D6E9D7F6C0B1F0F7C036
:102AA800B2F00001A15104E1020EA05DD8A000D14E
:102AB80020EE16F0B151D926B251DA22DE50A05DCF
:102AC800DE50A159D8B0F4D020EE08F0B151D92683
:102AD800B251DA22DECFABF0DECFACF0DECFADF014
:102AE800DECFAEF0D8D0A0C060F0A1C061F0000E7B
:102AF800636F030E626FE1EC2EF0D8900001613134
:102B0800A26F6031AF6FA2C0B0F0AFC0A2F0B0C08A
:102B1800A3F0090EA46FD890A333A233A42FFBD738
:102B2800A251AB258B6FA351AC218C6F000EAD2148
:102B38008D6F000EAE218E6F27EC18F00009D8B407
:102B4800B7D0FF0E0001A26F010EA36FAFC0A4F0B3
:102B5800B0C0A5F0A251A417A351A517200EA42711
:102B6800000EA523A451B125D96EA551B221DA6E64
:102B7800DF50A66FA651A96FAA6BAF4BB02BAFC0A1
:102B8800A2F0B0C0A3F0090EA46FD890A333A2336B
:102B9800A42FFBD7A251AB258B6FA351AC218C6F0F
:102BA800000EAD218D6F000EAE218E6F27EC18F050
:102BB8000009D8B47DD0FF0E0001A26F010EA36FEB
:102BC800AFC0A4F0B0C0A5F0A251A417A351A51797
:102BD800200EA427000EA523A451B125D96EA55116
:102BE800B221DA6EDF50A66FA651A86FA76BA75166
:102BF800A913A851AA13A0B107D0FF0EA915A06F59
:102C08000F0EAA15A16F1200A9C0A2F0AAC0A3F0C6
:102C1800040EA46FD890A333A233A42FFBD7A2C06D
:102C2800A0F0A3C0A1F01200A0C0A2F0A1C0A3F020
:102C3800A3C0A2F0A36BA251AB258B6FA351AC210B
:102C48008C6F000EAD218D6F000EAE218E6F27ECBC
:102C580018F00009D8B42CD0FF0E0001A26F010EA5
:102C6800A36FA0C0A4F0A1C0A5F0D890A437A53741
:102C7800A251A417A351A517200EA427000EA5231F
:102C8800A451B125D96EA551B221DA6EDECFA0F0DC
:102C9800DDCFA1F0120020EE1CF0B151D926B251BF
:102CA800DA22DF50010AD8B41ED7030AD8B4BCD739
:102CB800000E0001A16F010EA06F1200000E0001AE
:102CC800786F000E776F000E7A6F000E796F010E25
:102CD80072656CD08B9E8A9A0A0EE2EC2CF0000189
:102CE8007251656F666B676B686BFF0E696F570E85
:102CF8002BEC2AF0BCEC2FF0B5EC2FF000017E6F26
:102D08007E51D8A4F9D70A0EE2EC2CF06EC073F00D
:102D18006FC074F070C075F071C076F0090ED8906D
:102D280000017337743775377637E82EF8D773C0D4
:102D380065F074C066F075C067F076C068F0FF0E85
:102D4800696F590E2BEC2AF0BCEC2FF0B5EC2FF084
:102D580000017E6F7E51D8A4F9D7010EE2EC2CF069
:102D6800FC0E7AEC2FF0000E00017D6F000E7C6FD8
:102D78007DBF04D0020E7D5DD8B00DD06CC0D9FFE8
:102D88006DC0DAFFDF507AEC2FF000016C4B6D2B31
:102D98007C4B7D2BEDD7C2EC2FF0C2EC2FF0010E4F
:102DA800E2EC2CF0FD0E7AEC2FF06AD08B9E8A9A1A
:102DB8000A0EE2EC2CF06EC073F06FC074F070C0B5
:102DC80075F071C076F0090ED8900001733774372A
:102DD80075377637E82EF8D773C065F074C066F09B
:102DE80075C067F076C068F0000E696F580E2BEC5E
:102DF8002AF0BCEC2FF0B5EC2FF000017E6F7E516D
:102E0800D8A4F9D78A9A8B9E010EE2EC2CF0FE0E1C
:102E18007AEC2FF0000E00017D6F000E7C6F7DBFF5
:102E280004D0020E7D5DD8B00DD06CC0D9FF6DC046
:102E3800DAFFDF507AEC2FF000016C4B6D2B7C4BE6
:102E48007D2BEDD7C2EC2FF0C2EC2FF00A0EE2EC8E
:102E58002CF0000E0001656F000E666F000E676FA4
:102E6800000E686F000E696F4D0E2BEC2AF0BCEC5B
:102E78002FF0B5EC2FF000017E6F7E51D8A4F9D762
:102E880000017B511200F6C0BCF0F7C0BDF0000194
:102E980020EE16F0BC51D926BD51DA22DECFBAF0A9
:102EA800DDCFBBF0B651B711D8A41BD020EE18F077
:102EB800BC51D926BD51DA22DECFC0F0DDCFC1F03A
:102EC800C15104E1020EC05DD8A006D0BA51C05D60
:102ED800BB51C159D8A02AD0000EC16F010EC06FD6
:102EE80025D0B6C0A0F0B7C0A1F051EC15F0A0C035
:102EF800BEF0A1C0BFF00001BF5109E1020EBE5DE6
:102F0800D8B005D0000EB76F010EB66F1200BA51D7
:102F1800BE5DBB51BF59D8B005D0BEC0B6F0BFC06A
:102F2800B7F01200B6C0C0F0B7C0C1F0C0C0C2F060
:102F3800C1C0C3F0C24BC32BBA51C25DBB51C35908
:102F4800D8A00FD0000EC36F020EC26FC251C05D71
:102F5800C351C159D8B005D0000EB76F000EB66F77
:102F68001200C2C0A0F0C3C0A1F051EC15F0A0C07F
:102F7800BEF0A1C0BFF00001BE51BF11D8B415D03A
:102F8800BE05BF11D8A405D0000EB76F010EB66FED
:102F98001200C051C219CEE1C151C319D8A4CAD771
:102FA800000EB76F000EB66F1200C2C0A0F0C3C00B
:102FB800A1F0FF0EA36FA269D8EC12F00009D8A403
:102FC80006D0000E0001B76F010EB66F12000001A7
:102FD800B651B711D8B413D0B6C0A0F0B7C0A1F09D
:102FE800C2C0A2F0C3C0A3F0D8EC12F00009D8A464
:102FF80006D0000E0001B76F010EB66F1200000177
:1030080020EE18F0BC51D926BD51DA22C2C0DEFF2D
:10301800C3C0DDFF20EE1AF0BC51D926BD51DA221B
:10302800DE2803E1DE28D8B409D020EE1AF0BC511E
:10303800D926BD51DA22DE06000EDD5AC2C0B6F02E
:10304800C3C0B7F01200F6C09EF0F7C09FF00001B1
:1030580020EE04F09E51D9269F51DA22DECF9AF055
:10306800DECF9BF0DECF9CF0DECF9DF08B519A191E
:103078000AE18C519B1907E18D519C1904E18E518D
:103088009D19D8B4B9D020EE1FF09E51D9269F5172
:10309800DA22DF50D8B483D0200E9E257F6F000E31
:1030A8009F21806F9AC081F09BC082F09CC083F002
:1030B8009DC084F0010E856F000E92EC27F0000988
:1030C800D8B402D0000E1200000120EE1FF09E516D
:1030D800D9269F51DA22000EDF6E20EE08F09E51AD
:1030E800D9269F51DA22DECF8FF0DECF90F0DECFE7
:1030F80091F0DECF92F020EE14F09E51D9269F5128
:10310800DA22DECF93F0DDCF94F093518F25956FBF
:1031180094519021966F000E9121976F000E922185
:10312800986F95519A5D96519B5997519C59985112
:103138009D59D8B034D020EE1EF09E51D9269F510B
:10314800DA22DF50996F020E996101D028D020EE63
:1031580014F09E51D9269F51DA22DECF8FF0DDCFB1
:1031680090F08F519A2790519B23000E9C23000EBC
:103178009D23200E9E257F6F000E9F21806F9AC091
:1031880081F09BC082F09CC083F09DC084F0010E4A
:10319800856F000E92EC27F000019907D4D78B5168
:1031A8008C118D118E11D8B427D0200E9E257F6FDB
:1031B800000E9F21806F8BC081F08CC082F08DC083
:1031C80083F08EC084F0010E856F000EC0EC26F0EF
:1031D8000009D8B402D0000E1200000120EE04F05D
:1031E8009E51D9269F51DA228BC0DEFF8CC0DEFFAC
:1031F8008DC0DEFF8EC0DEFF010E120081964EEC00
:1032080029F0670E0001606F020E616F000EE2EC9C
:103218002BF03C50D8A421D0200E02011219D8B4AA
:103228001CD0200E1419D8B418D0760E0001606F87
:10323800010E616F410E626F620E636F46EC2EF0F5
:10324800760E0001606F010E616F690E626F620E8B
:10325800636F52EC2CF0010E3C6E3C50D8B494D005
:10326800460E0001D76F010ED86F760ED96F010E8A
:10327800DA6F020EDB6FB4EC09F00009D8A470D045
:10328800460E0001C46F010EC56F50C1C6F051C192
:10329800C7F052C1C8F053C1C9F080EC05F0460E22
:1032A8000101D16F010ED26F640ED36F620ED46F1D
:1032B800300ED56F020ED66FC5EC07F0460E010131
:1032C800D16F010ED26F740ED36F610ED46FDFEC25
:1032D8002FF00101F06FF051D56FD66B160ED76F36
:1032E800020ED86FDCEC2FF00101F16FF151D96FAC
:1032F800DA6B230EDB6F020EDC6FC5EC07F0460EAF
:103308000101D16F010ED26FE70ED36F610ED46F3A
:10331800C5EC07F0460E0101D16F010ED26FF10E18
:10332800D36F610ED46F070ED56F020ED66FC5EC42
:1033380007F0460E0101D16F010ED26F480ED36F10
:10334800620ED46F340ED56F020ED66FC5EC07F03F
:10335800460E0001AB6F010EAC6F77EC2EF014D067
:10336800460E0001D76F010ED86F760ED96F010E89
:10337800DA6F080EDB6FB4EC09F0460E0001AB6F94
:10338800010EAC6F77EC2EF081861200000120EE62
:1033980002F0B351D926B451DA22DECFB5F0DDCF31
:1033A800B6F0010EB525BE6F000EB621BF6F0F0E29
:1033B800BE15B56F000EBF15B66FB551B611D8A4BE
:1033C8009DD020EE0AF0B351D926B451DA22DE2A74
:1033D800000EDE22DE22DE2220EE08F0B351D926CE
:1033E800B451DA22DE50DE10D8A414D020EE04F056
:1033F800B351D926B451DA2210EE02F0DE50E1269C
:10340800DD50E222E650BE5DE650BF59D8A076D026
:10341800000E1200BEC0B5F0BFC0B6F0040EB76F04
:10342800D890B633B533B72FFBD7FF0EB86FFF0E62
:10343800B96F20EE04F0B351D926B451DA2210EE58
:103448001DF0DE50E126DD50E222E750BA6FBB6B7B
:10345800B851BA27B951BB23B551BA17B651BB17E2
:10346800BA51BB11D8A44AD020EE08F0B351D926DE
:10347800B451DA22DECFA0F0DDCFA1F051EC15F087
:10348800A0C0BCF0A1C0BDF00001BD5104E1020E16
:10349800BC5DD8A012D020EE04F0B351D926B451A7
:1034A800DA2210EE16F0DE50E126DD50E222E65078
:1034B800BC5DE650BD59D8A002D0000E120020EE27
:1034C80008F0B351D926B451DA22BCC0DEFFBDC022
:1034D800DDFFBCC06CF0BDC06DF082EC22F00001D5
:1034E80020EE0AF0B351D926B451DA226CC0DEFFBF
:1034F8006DC0DEFF6EC0DEFF6FC0DEFF20EE02F0A3
:10350800B351D926B451DA22BEC0DEFFBFC0DDFFF9
:10351800010E12006AC060F06BC061F0000E00017D
:10352800636F200E626F000E656F0B0E646F5FECA9
:103538002EF0000E0001726F180E706F000E736F80
:10354800080E716F68C0D9FF69C0DAFFDFCF6CF071
:10355800010EDE26DFCF6DF0000EDD226CC0F6FF17
:103568006DC0F7FFF86A070EF76403D00800F5503E
:1035780005D0F6CFE9FFF7CFEAFFEF500001746FEF
:103588007451D8B404D02F0E7419D8A413D0735121
:10359800D8B475D0725170156C6F6C516E6F6F6BBB
:1035A80020EE0BF06A51D9266B51DA226EC0DFFF8C
:1035B80074511200200E746562D07F0E7419D8B44D
:1035C8005ED02E0E7419D8A40CD072B158D0735195
:1035D800D8B455D0090E736152D0080E736F0B0E14
:1035E800B0D7220E7419D8B44AD02A0E746101D00B
:1035F80035D02D0E746101D042D03A0E746101D0DD
:103608002DD0400E746101D03AD072B127D07C0E13
:103618007419D8B434D05A0E746504D05E0E74612F
:1036280001D02DD0400E74650AD05B0E746107D0AE
:10363800080E7119D8A402D0709701D07099600E45
:1036480074650CD07B0E746109D0200E745F080E6F
:103658007119D8A402D0728701D072897291715100
:10366800735DD8B00CD07351010DF3506A25D96E33
:10367800F4506B21DA6E74C0DFFF732B63D7010E31
:10368800120000018F6FA8D0D6EC28F07AC090F015
:103698007BC091F07CC092F07DC093F090C08BF01D
:1036A80091C08CF092C08DF093C08EF000018B1FFA
:1036B8008C1F8D1F8E1F8B2B000E8C238D238E232A
:1036C800270E7A6F610E7B6FF5EC2EF000018B519F
:1036D8007A25226E8C517B21236E8D517C21246E9C
:1036E8008E517D21256E90C08BF091C08CF092C0D8
:1036F8008DF093C08EF08B1F8C1F8D1F8E1F8B2B10
:10370800000E8C238D238E233B0E7A6F610E7B6F08
:10371800F5EC2EF000018B517A252A6E8C517B2115
:103728002B6E8D517C212C6E8E517D212D6E1200B9
:1037380087EC29F07AC094F07BC095F07CC096F0B5
:103748007DC097F094C08BF095C08CF096C08DF03A
:1037580097C08EF000018B1F8C1F8D1F8E1F8B2B27
:10376800000E8C238D238E23FB0E7A6F600E7B6FE9
:10377800F5EC2EF000018B517A25266E8C517B21B9
:10378800276E8D517C21286E8E517D21296E94C023
:103798008BF095C08CF096C08DF097C08EF08B1F83
:1037A8008C1F8D1F8E1F8B2B000E8C238D238E2339
:1037B800110E7A6F610E7B6FF5EC2EF000018B51C4
:1037C8007A252E6E8C517B212F6E8D517C21306E87
:1037D8008E517D21316E120000018F51010AD8B43B
:1037E80053D7A6D76CC0F6FF6DC0F7FFF86A070E6F
:1037F800F76403D00800F55005D0F6CFE9FFF7CFFE
:10380800EAFFEF500001796F6C4B6D2B200E791990
:10381800D8B4E8D7090E7919D8B4E4D7000E756F73
:10382800000E766F000E776F000E786F000E746FC3
:103838002D0E7919D8A40ED0742B6CC0F6FF6DC06C
:10384800F7FFF86A070EF76403D00800F55001D0B7
:1038580010D049D02B0E7919D8A449D06CC0F6FFE6
:103868006DC0F7FFF86A070EF76403D00800F5503B
:1038780005D0F6CFE9FFF7CFEAFFEF5034D075C097
:1038880060F076C061F077C062F078C063F00A0E2D
:103898000001646F000E656F000E666F000E676FA3
:1038A800BDEC2AF079C070F0D00E0001702770517D
:1038B8006025756F000E6121766F000E6221776FAB
:1038C800000E6321786F6CC0F6FF6DC0F7FFF86AD1
:1038D800070EF76403D00800F55005D0F6CFE9FFCE
:1038E800F7CFEAFFEF500001796F6C4B6D2B7951E0
:1038F80019EC2FF0D8B0C3D700017451D8B41AD03E
:1039080075C070F076C071F077C072F078C073F04F
:10391800701F711F721F731F702B000E712372238B
:10392800732370C06CF071C06DF072C06EF073C01C
:103938006FF0120075C06CF076C06DF077C06EF055
:1039480078C06FF012000600FACF0FF0FBCF10F02E
:10395800E9CF11F0EACF12F0E1CF13F0E2CF14F083
:10396800D9CF15F0DACF16F0F3CF17F0F4CF18F05F
:10397800F6CF19F0F7CF1AF0F8CF1BF0F5CF1CF0FF
:1039880043C01DF044C01EF045C01FF046C020F0E3
:103998009DBA9EAA14D09E9A96EC2FF03A6E3A5091
:1039A80015EC14F081B403D00D6A0D2A01D00D6A0C
:1039B8000D460D4681500D18FB0B0D18816EF2B4A3
:1039C800F2A446D0F294010E0001FF6F000E216EA2
:1039D800030E216401D019D02150020D0A0EF324E0
:1039E800D96E010EF420DA6EDE50DE10D8B40BD09A
:1039F8002150020D0A0EF324D96E010EF420DA6E5E
:103A0800DE06000EDD5A212AE3D734503510D8B42B
:103A180003D03406D8A0350632503310D8B403D0BA
:103A28003206D8A033063904D8A40CD001014207C5
:103A3800D8A0430742514311D8A404D0000EFA6E0F
:103A4800000EF96E000E026E450E016ED3EC2FF0DB
:103A5800F2B2F2A801D0F29220C046F01FC045F0A1
:103A68001EC044F01DC043F01CC0F5FF1BC0F8FF8A
:103A78001AC0F7FF19C0F6FF18C0F4FF17C0F3FF0C
:103A880016C0DAFF15C0D9FF14C0E2FF13C0E1FF6A
:103A980012C0EAFF11C0E9FF10C0FBFF0FC0FAFF18
:103AA800439211009AEC2DF0FD0E00016625946FEB
:103AB800FF0E6721956F7CEC2DF066C096F067C00D
:103AC80097F040EC2DF066C098F067C099F022ECB2
:103AD8002DF0D00E000166259C6F070E67219D6FA3
:103AE8005EEC2DF0000166519B6FB8EC2DF00001E3
:103AF80066519A6FD89099316F6F98316E6F965161
:103B0800706F9751716F726B736B050ED890703729
:103B1800713772377337E82EF9D79451746F95510E
:103B2800756F766B776B0B0ED89074377537763761
:103B38007737E82EF9D79AC078F0796B7A6B7B6B78
:103B480079C07BF078C07AF0796B786B9BC07CF099
:103B58007D6B7E6B7F6B150ED8907C377D377E37FB
:103B68007F37E82EF9D7C40E9C25806FFF0E9D2164
:103B7800816F826B836B190ED890803781378237BB
:103B88008337E82EF9D77C518011846F7D518111DC
:103B9800856F7E518211866F7F518311876F7851AF
:103BA8008411886F79518511896F7A5186118A6FCE
:103BB8007B5187118B6F745188118C6F75518911E6
:103BC8008D6F76518A118E6F77518B118F6F70516F
:103BD8008C11906F71518D11916F72518E11926F7E
:103BE80073518F11936F6E5190116A6F6F519111CC
:103BF8006B6F000E92116C6F000E93116D6F1200B7
:103C0800000E0001776F0A0EE2EC2CF06EC073F024
:103C18006FC074F070C075F071C076F0090ED8905E
:103C280000017337743775377637E82EF8D773C0C5
:103C380078F074C079F075C07AF076C07BF06E05C4
:103C48006F1170117111D8B41DD00A0EE2EC2CF06E
:103C580078C065F079C066F07AC067F07BC068F01C
:103C6800000E0001696F520E2BEC2AF0BCEC2FF00D
:103C7800B5EC2FF000017E6F7E51D8A4F9D7BCECCB
:103C88002FF021D00A0EE2EC2CF06EC065F06FC068
:103C980066F070C067F071C068F0000E0001696FCF
:103CA800510E2BEC2AF0BCEC2FF0B5EC2FF00001F4
:103CB8007E6F7E51D8A4F9D7BCEC2FF004D0B5ECB8
:103CC8002FF000017E6FFE0E00017E19D8A4F7D7F1
:103CD800000E7D6F000E7C6F0CD07C516C25D96E68
:103CE8007D516D21DA6EB5EC2FF0DF6E00017C4B53
:103CF8007D2B7DBFF2D7020E7D5DD8A0EED7000EDA
:103D08007D6F000E7C6F0A0EE2EC2CF0000E0001B5
:103D1800656F000E666F000E676F000E686F000E0D
:103D2800696F4C0E2BEC2AF0BCEC2FF0B5EC2FF0A1
:103D380000017E6F7E29D8A4F9D7000E7D6F000E92
:103D48007C6F000E12006EC072F06FC073F070C00E
:103D580074F071C075F0060ED89000017237733791
:103D680074377537E82EF8D7721F731F741F751FC5
:103D7800722B000E732374237523000E7225606F57
:103D88006C0E7321616FDC0E7421626F020E752157
:103D9800636F6EC076F06FC077F070C078F071C056
:103DA80079F0060ED8907637773778377937E82E56
:103DB800F9D776C064F077C065F078C066F079C04E
:103DC80067F0B7EC21F060C07AF061C07BF00001C9
:103DD8007B05D8A044D06EC072F06FC073F070C07D
:103DE80074F071C075F0040ED89072377337743759
:103DF8007537E82EF9D7721F731F741F751F722B42
:103E0800000E732374237523000E7225606F6C0EE9
:103E18007321616FDC0E7421626F020E7521636F6E
:103E28006EC076F06FC077F070C078F071C079F02E
:103E3800040ED8907637773778377937E82EF9D760
:103E480076C064F077C065F078C066F079C067F036
:103E5800B7EC21F060C07AF061C07BF0AC8400015F
:103E68007B05D8B012007AC0AFFFAC98AB8E948EA9
:103E7800949CAB88AC8A1200000120EE04F0A25199
:103E8800D926A351DA22DECF67F0DDCF68F0A2C0D1
:103E9800D9FFA3C0DAFFDECF69F0DDCF6AF008EC06
:103EA8002CF00001A86FA851D8A479D020EE02F018
:103EB800A251D926A351DA22DFAA71D020EE16F03A
:103EC800A251D926A351DA22DECF8BF0DECF8CF0B7
:103ED800DECF8DF0DECF8EF027EC18F00009D8A4E5
:103EE80002D0080E1200000120EE1AF0A251D926C5
:103EF800A351DA22DECFA9F0DDCFAAF020EE0BF035
:103F0800A951D926AA51DA22000EDB8A20EE0AF03E
:103F1800A251D926A351DA2210EE1CF0A951E126AC
:103F2800AA51E222DECFE6FFDECFE6FFDECFE6FFD4
:103F3800DECFE6FF20EE0EF0A251D926A351DA22F9
:103F480010EE1AF0A951E126AA51E222DECFE6FFCF
:103F5800DDCFE5FF56EC1DF06AC0A4F06BC0A5F0FC
:103F68006CC0A6F06DC0A7F0000120EE16F0A951B4
:103F7800D926AA51DA22A4C0DEFFA5C0DEFFA6C05A
:103F8800DEFFA7C0DEFF20EE02F0A251D926A35122
:103F9800DA22DF0EDF1690EC2AF00001A86FA85194
:103FA80012006FC075F070C076F071C077F072C003
:103FB80078F075C060F076C061F077C062F078C0C4
:103FC80063F073C064F074C065F00001000E65BF53
:103FD800FF0E666F676F18EC28F060C075F061C05F
:103FE80076F062C077F063C078F000016D4B6E2BFD
:103FF8007551761177117811D8A4DBD76DC0D9FF28
:104008006EC0DAFF000EDF6E6D07D8A06E076FC0B6
:1040180060F070C061F071C062F072C063F073C08C
:1040280064F074C065F0000E65BFFF0E666F676FC1
:10403800F7EC29F000016051796F6FC060F070C033
:1040480061F071C062F072C063F073C064F074C054
:1040580065F0000E65BFFF0E666F676F18EC28F0FD
:1040680060C06FF061C070F062C071F063C072F040
:10407800090E0001796502D0070E7927300E7927DD
:104088006DC0D9FF6EC0DAFF79C0DFFF6D07D8A019
:104098006E076F51701171117211D8B41200B7D731
:1040A80082C084F00001856B866B8135843701E31B
:1040B800858184518E6F8E51D8A409D0000E806FEF
:1040C800000E816F000E826F000E836F1200170EB4
:1040D800846F80C085F081C086F082C087F0842913
:1040E800886F04D0D890873386338533882FFAD7E2
:1040F80000018551896F818FFF0E8017FF0E811790
:10410800000E821780518A6F81518B6F82518C6F9C
:104118008D6B8E0E8E5F8EAF16D08E51800A8F0FEC
:10412800D8B009D0000E806F000E816F000E826F2C
:10413800000E836F1200D8908D338C338B338A3303
:104148008E3FF9D715D0170E8E650FD0000E806FF1
:10415800000E816F000E826F000E836F1200D890E0
:104168008A378B378C378D378E078E51D8A4F7D77F
:104178008951D8B408D08D1F8C1F8B1F8A6D000EF3
:104188008B238C238D238AC080F08BC081F08CC058
:1041980082F08DC083F0120073C077F00001786B55
:1041A800796B7235773701E3788177517A6F7A5175
:1041B800D8A407D0000E716F000E726F000E736FD7
:1041C800120076C077F0786B796B7535773701E335
:1041D800788177517F6F7F51D8A407D0000E716F17
:1041E800000E726F000E736F12007F517B0F7A27DB
:1041F80073C07FF076517F1B800E7F17728F758F8B
:10420800FF0E7417FF0E7517000E7617000E7B6FE2
:10421800000E7C6F000E7D6F070E7E6F71A106D0B9
:1042280074517B2775517C2376517D23D890733345
:1042380072337133D8907437753776377E2FEED74F
:10424800090E7E6F71A106D074517B2775517C23AE
:1042580076517D23D890733372337133D8907D3380
:104268007C337B337E2FEED77BC060F07CC061F05F
:104278007DC062F07AC063F07FC064F091EC23F0F7
:1042880060C071F061C072F062C073F0120003D0B8
:104298000001664B672B66C0D9FF67C0DAFF200EA6
:1042A800DE18D8B4F5D766C0D9FF67C0DAFF090EA3
:1042B800DE18D8B4EDD7000E00016C6F000E6B6FDE
:1042C800000E6A6F66C0D9FF67C0DAFF2D0EDE18D0
:1042D800D8A402D06A2B26D066C0D9FF67C0DAFFFF
:1042E8002B0EDE18D8A420D01DD06BC060F06CC097
:1042F80061F0000E0001636F0A0E626FE1EC2EF0B0
:1043080066C0D9FF67C0DAFFDF500001686F696BCC
:104318006051682761516923D00E68256B6FFF0EC5
:1043280069216C6F664B672B66C0D9FF67C0DAFFDF
:10433800DF5019EC2FF0D8B0D8D700016A51D8B4A3
:104348000DD06BC068F06CC069F0681F691F684BBE
:10435800692B68C066F069C067F012006BC066F030
:104368006CC067F01200000E0001696F67AF0AD0D9
:10437800671F661F651F646D000E6523662367232C
:10438800010E696F63AF0AD0631F621F611F606D02
:10439800000E612362236323010E691B000E6A6FFE
:1043A800000E6B6F000E6C6F000E6D6F645165111F
:1043B80066116711D8B42AD0010E686F06D0D8905C
:1043C8006437653766376737682B67AFF8D7D89093
:1043D8006A376B376C376D376451605D6551615969
:1043E8006651625967516359D8A009D06451605F1A
:1043F8006551615B6651625B6751635B6A81D89006
:104408006733663365336433682FE1D76951D8B4AD
:1044180008D06D1F6C1F6B1F6A6D000E6B236C2319
:104428006D236AC060F06BC061F06CC062F06DC053
:1044380063F01200000E0001B26F320EB36F0E0E61
:10444800746FED0E756F3F0E766F000E666F000E7F
:10445800676F4BEC21F066C06DF067C06EF0D6EC6C
:104468002DF06DC071F06EC072F06FC073F0D0ECBB
:1044780020F071C080F072C081F073C082F054ECFB
:1044880020F080C0B4F081C0B5F099EC28F00001AC
:10449800B351AE6FAF6BB451AE5DB551AF59D8B033
:1044A8000CD0B451EF25EF6FB551F021F06F000E2D
:1044B800F121F16F000EF221F26FFE2B080EFE19AA
:1044C800D8A41200EFC0AEF0F0C0AFF0F1C0B0F069
:1044D800F2C0B1F0040E05D0D890B133B033AF3389
:1044E800AE33E82EF9D7AEC0EFF0AFC0F0F0B0C0F1
:1044F800F1F0B1C0F2F0000EFE6F1200F6C075F0D8
:10450800F7C076F0020E00016C5F000E6D5BFE0EC8
:10451800706FFF0E716F20EE16F07551D926765127
:10452800DA22DECF72F0DDCF73F07051722771514D
:10453800732372516C5D73516D59D8A009D0000E68
:104548006C6F000E6D6F000E6E6F000E6F6F1200B5
:1045580020EE10F07551D9267651DA22DECF70F0B0
:10456800DECF71F0DECF72F0DECF73F06CC060F09A
:104578006DC061F0626B636B20EE1DF07551D9263A
:104588007651DA22DF50746F7451646F656B666B15
:10459800676BBDEC2AF00001705160256C6F71519A
:1045A80061216D6F725162216E6F735163216F6F5C
:1045B80012000001A96F8A0E0001606F010E616F81
:1045C800AD0E626F610E636F46EC2EF0000E0001B7
:1045D800AA6F000EAB6F0B0EAB6501D03BD0AB5191
:1045E800010D8A0EF324D96E010EF420DA6EDF5025
:1045F800D8B42ED0AB51010D8A0EF324D96E010E1A
:10460800F420DA6E2D0EDE18D8B422D0AB51010D8D
:104618008A0EF324D96E010EF420DA6E2E0EDE18FF
:10462800D8B416D00A0EAA6113D0AB51010D8A0E68
:10463800F324D96E010EF420DA6EAA51010D9E0EF4
:10464800F324E16E000EF420E26EDFCFE7FFAA2B21
:10465800AB2BC1D79E0E986F000E996FA9C09AF028
:10466800D7EC25F012000001A76FA20E0001606FC1
:10467800010E616FBA0E626F610E636F46EC2EF029
:10468800000E0001A86F000EA96F0B0EA96501D0DE
:104698003BD0A951010DA20EF324D96E010EF420CE
:1046A800DA6EDF50D8B42ED0A951010DA20EF32432
:1046B800D96E010EF420DA6E2D0EDE18D8B422D091
:1046C800A951010DA20EF324D96E010EF420DA6E61
:1046D8002E0EDE18D8B416D0090EA86113D0A95131
:1046E800010DA20EF324D96E010EF420DA6EA85142
:1046F800010D9E0EF324E16E000EF420E26EDFCF72
:10470800E7FFA82BA92BC1D79E0E986F000E996FB3
:10471800A7C09AF0D7EC25F0120000016351D8B475
:1047280005D0605161116211D8A40CD0000E606FE1
:10473800000E616F000E626F1200632BD890623317
:1047480061336033000E6015656F000E6115666F8A
:10475800FE0E6215676F655166116711D8B40CD0EB
:10476800ECD7632B010E6027000E6123000E622335
:10477800D890623361336033000E6015656F000EA8
:104788006115666FFF0E6215676F655166116711D7
:10479800D8B406D0E6D76307D89060376137623758
:1047A80061BF03D0020E6361F6D763A1619FD89001
:1047B8006333635162136451D8A4628F60C060F0A0
:1047C80061C061F062C062F01200000E0201666F03
:1047D800030E666501D04DD06651020D1A0EF32402
:1047E800D96E010EF420DA6EDE50DE10D8B43FD058
:1047F8006651020D0A0EF324D96E010EF420DA6E0A
:10480800DE50DE10D8A433D0010E396EFD0E010142
:10481800436FE80E426F02016651020D1A0EF3242F
:10482800D96E010EF420DA6E01D80AD00500FA6EAE
:10483800DE50FD6EDE50FE6EF850FF6EFA5012002C
:10484800000E396E02016651020D120EF324D96E64
:10485800010EF420DA6E6651020D0A0EF324E16EA1
:10486800010EF420E26EDECFE6FFDDCFE5FF662B1A
:10487800AFD74EEC29F01200F6C0BCF0F7C0BDF07F
:1048880039D0B6C0A0F0B7C0A1F051EC15F0A0C067
:10489800BAF0A1C0BBF00001BA05BB11D8A402D080
:1048A800000E1200B6C0A0F0B7C0A1F0000EA36FB2
:1048B800000EA26FD8EC12F00009D8A402D0000EA6
:1048C8001200000120EE1AF0BC51D926BD51DA229F
:1048D800DE2803E1DE28D8B409D020EE1AF0BC5156
:1048E800D926BD51DA22DE2A000EDD22BAC0B6F082
:1048F800BBC0B7F00001B75104E1020EB65DD8A005
:104908000CD020EE16F0BC51D926BD51DA22DE506B
:10491800B65DDE50B759D8A0B4D7010E1200000E0C
:1049280000016D6F000E6C6F000E716F000E706FDE
:10493800000E6F6F000E6E6F000E656F000E666FD3
:10494800000E676F000E686F950E696F400E2BECB6
:104958002AF0BCEC2FF0B5EC2FF00001726F704B11
:10496800712B7205D8B408D071BFF5D7715104E125
:104978000A0E705DD8A0EFD7000E716F000E706F31
:104988007205D8B419D0000E636F010E5AEC28F0E6
:10499800DC0E0001636F610E646F69EC2BF0000E92
:1049A8000001636F020E5AEC28F0640E0001636F79
:1049B800610E646F69EC2BF000017205D8B4120027
:1049C800BBD743D060C0D9FF61C0DAFFDF50000118
:1049D800666F62C0F6FF63C0F7FFF86A070EF764F8
:1049E80003D00800F55005D0F6CFE9FFF7CFEAFF6E
:1049F800EF5000016619D8B424D062C0F6FF63C036
:104A0800F7FFF86A070EF76403D00800F55005D0E1
:104A1800F6CFE9FFF7CFEAFFEF500001666F676B4B
:104A2800661F671F664B672B60C0D9FF61C0DAFF3E
:104A3800DF50686F68516625606F000E6721616FEF
:104A48001200604B612B624B632B00016407D8A0F6
:104A580065076429B7E16529D8A4B4D7000E616F4A
:104A6800000E606F1200EA0EF66E600EF76E20EE12
:104A780068F0100E0900F5CFDEFFE806FBE2D90E5C
:104A8800F66E600EF76E20EE79F0100E0900F5CF85
:104A9800DEFFE806FBE2000E0001636F010E5AEC30
:104AA80028F0680E0001636F000E646F69EC2BF04C
:104AB800000E0001636F020E5AEC28F0790E000117
:104AC800636F000E646F69EC2BF03D0E0001676F99
:104AD800E10E666F3F0EE82EFED7662FFCD7672FD4
:104AE800FAD700D0010E76EC26F0000E0001636FB5
:104AF800010E5AEC28F0C60E0001636F610E646F58
:104B080069EC2BF01200DFEC2FF00001606F46D04B
:104B180025BE07D025502410231007E12204D8B061
:104B280004D02DBE02D0000E1200225023102410F3
:104B38002510D8B406D02A502B102C102D10D8A42C
:104B480002D0000E1200010E120025BE0BD02DBEA1
:104B580007D02D502C102B1005E12A04D8B002D014
:104B6800000E120025BE2DBE07D02D502C102B1084
:104B780005E12A04D8B002D0000E120022502310FA
:104B880024102510D8B406D02A502B102C102D1024
:104B9800D8A402D0000E1200010E120060512D0A96
:104BA800D8B4B6D7D2D745D0000E00019B6F000EFF
:104BB8009C6F090E9C6501D042D098C0D9FF99C05E
:104BC800DAFFDF50D8B40FD098C0D9FF99C0DAFF08
:104BD8009B51010D000EF324E16E010EF420E26EEC
:104BE800DFCFE7FF9B2B984B992B9C2BE2D7000E2E
:104BF8009B6F000E9C6F0A0E9C6501D020D098C058
:104C0800D9FF99C0DAFFDF50D8B40FD098C0D9FFC8
:104C180099C0DAFF9B51010D000EF324E16E010EDD
:104C2800F420E26EDFCFE7FF9B2B984B992B9C2B50
:104C3800E2D700019A51010AD8B4B6D7D8D79A5109
:104C480045EC1BF012009594959295909598959A3D
:104C5800959C959E839483928390839E839C838A5C
:104C68008388EA0E0001636FC30EE82EFED7632F18
:104C7800FCD78380B8EC2EF08390B8EC2EF04E0E63
:104C88000001636FEB0EE82EFED7632FFCD78380FD
:104C9800B8EC2EF08390B8EC2EF04E0E0001636F46
:104CA800EB0EE82EFED7632FFCD78380B8EC2EF0EE
:104CB8008390B8EC2EF0839E839C838A83988380AC
:104CC800B8EC2EF08390B8EC2EF0280E76EC26F097
:104CD800060E76EC26F00E0E76EC26F0010E76EC3B
:104CE80026F012000001626F839483928390000182
:104CF80062A902D0838801D0839862AB02D0838AEC
:104D080001D0839A62AD02D0838C01D0839C62AFBC
:104D180002D0838E01D0839E8380B8EC2EF08390DE
:104D2800B8EC2EF0000162A102D0838801D08398EC
:104D380062A302D0838A01D0839A62A502D0838CB1
:104D480001D0839C62A702D0838E01D0839E83808A
:104D5800B8EC2EF08390B8EC2EF000016205D8B4C0
:104D680008D0020E6219D8B404D0030E6219D8A470
:104D78001200B8EC2EF012000001876F38D07FC007
:104D88006CF080C06DF081C06EF082C06FF083C09F
:104D980070F084C071F085C072F004EC1EF0000160
:104DA800866F8651886F896B88C08AF08A51120095
:104DB8007FC06CF080C06DF081C06EF082C06FF073
:104DC80083C070F084C071F085C072F004EC1EF0EE
:104DD8000001866F8651886F896B88C08AF0FCC095
:104DE8007FF0FDC080F08A5112008A511200000144
:104DF8008751000AD8B4C3D7010AD8B4D9D7030A4F
:104E0800D8B4F3D7040E1200F6C091F0F7C092F0B0
:104E1800200E000191257F6F000E9221806F8BC0BC
:104E280081F08CC082F08DC083F08EC084F0010EBA
:104E3800856F000EC0EC26F00009D8B402D0020E2F
:104E48001200000122EE1EF09151D9269251DA2269
:104E5800550EDE1804E1AA0EDE18D8B402D0020EF0
:104E68001200560E9125606F000E9221616F760E2A
:104E7800626F620E636F000E656F030E646FE5EC80
:104E880024F0000160516111D8A402D0000E120074
:104E9800010E1200DCEC2FF00001606F3AD029BE41
:104EA8000BD031BE07D0315030102F1005E12E0441
:104EB800D8B002D0000E1200265027102810291052
:104EC800D8B406D02E502F1030103110D8A402D0EC
:104ED800000E1200010E120029BE07D0295028101A
:104EE800271007E12604D8B004D031BE02D0000E46
:104EF80012002650271028102910D8B406D02E509A
:104F08002F1030103110D8A402D0000E1200010E5C
:104F1800120060512D0AD8B4C2D7DED70001876FBE
:104F280034D07FC06CF080C06DF081C06EF082C05C
:104F38006FF083C070F084C071F085C072F062ECCD
:104F480016F00001866F8651886F896B88C08AF0D9
:104F58008A5112007FC06CF080C06DF081C06EF085
:104F680082C06FF083C070F084C071F085C072F0A9
:104F780062EC16F00001866F8651886F896B88C0D5
:104F88008AF08A5112008A51120000018751000AE2
:104F9800D8B4C7D7010AD8B4DDD7030AD8B4F3D731
:104FA800040E12004E0EF66E5F0EF76E000EF86ECF
:104FB80001EEF2F010EE0EF00900F5CFEEFFE5502D
:104FC800E150FAE1C40EF66E5F0EF76E000EF86E51
:104FD8000900F5CF42F002EE67F012EE20F0EE6A1B
:104FE800E550E150FCE1E250FAE102EE00F03E0E3D
:104FF800EE6AE806FDE101EE00F0CD0EEE6AE80685
:10500800FDE100EEEFF0110EEE6AE806FDE100EEBC
:1050180022F0200EEE6AE806FDE143904392000E6E
:10502800F86E0001A3EF2EF0000E0001686F000E6D
:10503800696F000E6A6F000E6B6F6451651166111F
:105048006711D8B42AD0010E6C6F06D0D890643797
:105058006537663767376C2B67AFF8D7D8906837EE
:1050680069376A376B376451605D655161596651BC
:10507800625967516359D8A009D06451605F65517E
:10508800615B6651625B6751635B6881D890673387
:105098006633653364336C2FE1D768C060F069C04C
:1050A80061F06AC062F06BC063F012000001646FC7
:1050B800000E0001656F110E636134D022D063C009
:1050C80065F06551BFEC29F02AD000016351400F0B
:1050D800656F6551BFEC29F022D000016351140FB0
:1050E800656F6551BFEC29F01AD000016351540F68
:1050F800656F6551BFEC29F012D0000E0001656F95
:105108000ED06451010AD8B4DAD7030AD8B4DDD76F
:10511800010AD8B4E2D7070AD8B4E7D7EED7000116
:10512800632B1200000E656F12000A0E0001AD6FAE
:1051380002D00001AD07CDEC2EF00009D8B4F9D7A4
:105148000001AD51D8B4F5D7000EDDEC22F0010E08
:1051580037EC23F04EEC27F00001AC6FF351AC199B
:10516800FE0BAC19F36F87EC25F00001AC6FF4511E
:10517800AC19FE0BAC19F46FF3B102D0F4A109D04D
:10518800F5815F0E666F620E676F040E7FEC0BF0A1
:105198001200F5913A0E666F620E676F040E7FEC8F
:1051A8000BF0120038C187F039C188F0000E0001F9
:1051B800896F000E8A6F090E8A6501D020D08A5146
:1051C800010D000EF324D96E010EF420DA6EDF50C3
:1051D800D8B413D08A51010D000EF324D96E010EF4
:1051E800F420DA6E8951010D7E0EF324E16E000E73
:1051F800F420E26EDFCFE7FF892B8A2BDCD77E0E07
:105208006C6F000E6D6FF6EC1BF06CC07AF06DC021
:105218007BF06EC07CF06FC07DF012000001626F01
:10522800839483828390000162A902D0838801D08D
:10523800839862AB02D0838A01D0839A62AD02D090
:10524800838C01D0839C62AF02D0838E01D0839E71
:105258008380B8EC2EF08390B8EC2EF0000162A1A8
:1052680002D0838801D0839862A302D0838A01D0B8
:10527800839A62A502D0838C01D0839C62A702D056
:10528800838E01D0839E8380B8EC2EF08390B8EC97
:105298002EF01200AD0E0001666F010E676F000E52
:1052A8007FEC0BF0B80E0001666F010E676F010E00
:1052B8007FEC0BF0A20E0001666F010E676F020E05
:1052C8007FEC0BF08A0E0001666F010E676F030E0C
:1052D8007FEC0BF0AD0E0001666F010E676F050ED7
:1052E8007FEC0BF0B80E0001666F010E676F060EBB
:1052F8007FEC0BF0BF0E0001666F010E676F070EA3
:105308007FEC0BF01200000E0001886F000E896F11
:10531800090E896501D020D08951010D000EF324B2
:10532800D96E010EF420DA6EDF50D8B413D089514B
:10533800010D000EF324D96E010EF420DA6E8851A7
:10534800010D7E0EF324E16E000EF420E26EDFCF35
:10535800E7FF882B892BDCD77E0E6C6F000E6D6FF4
:10536800F6EC1BF06CC07AF06DC07BF06EC07CF080
:105378006FC07DF012000001626F83948392839066
:10538800838E000162A902D0838801D0839862AB22
:1053980002D0838A01D0839A62AD02D0838C01D077
:1053A800839C8380B8EC2EF08390B8EC2EF000013B
:1053B80062A102D0838801D0839862A302D0838A35
:1053C80001D0839A62A502D0838C01D0839C62A706
:1053D80002D0838E01D0839E8380B8EC2EF0839018
:1053E800B8EC2EF0120000016451651166116711C6
:1053F800D8B424D0010E686F06D0D89064376537CA
:1054080066376737682B67AFF8D76451605D6551B9
:1054180061596651625967516359D8A008D06451DF
:10542800605F6551615B6651625B6751635BD890F1
:105438006733663365336433682FE7D760C060F03D
:1054480061C061F062C062F063C063F012000001E5
:105458006A6FF3EC2DF0FF0AD8A404D008D00A0E26
:10546800E2EC2CF0F3EC2DF0FF0AD8A4F8D7FF0EED
:105478007AEC2FF000016A517AEC2FF068C06BF0DB
:1054880000016B517AEC2FF067C06BF000016B5193
:105498007AEC2FF066C06BF000016B517AEC2FF0BC
:1054A80065C06BF000016B517AEC2FF00001695177
:1054B8007AEC2FF01200000E0001EE6F000EED6F77
:1054C8001FD0CDC1D9FFCEC1DAFFDF50EC6FEC5150
:1054D800E56FE66BCFC1E7F0D0C1E8F0E9EC2AF060
:1054E8000001E52907E1E629D8A404D00101CD6926
:1054F800CE6912000101CD4BCE2B0001ED4BEE2BF6
:10550800CDC1D9FFCEC1DAFFDF50D8A4DAD7EDC0BC
:10551800CDF1EEC0CEF11200F6C0A0F0F7C0A1F0B8
:10552800000120EE1FF0A051D926A151DA22010E68
:10553800DF6E000E8B6F000E8C6F000E8D6F000EED
:105548008E6F27EC18F00009D8A402D0080E1200BC
:10555800000E0001606F000E616F000E626F000E9A
:105568008DEC2EF00009D8B402D0080E1200000EFF
:105578001200000E0001686F000E696F000E6A6F5E
:10558800000E6B6F60A108D06451682765516923CC
:1055980066516A2367516B23D8906437653766373D
:1055A8006737D89063336233613360336051611178
:1055B80062116311D8A4E6D768C060F069C061F0D1
:1055C8006AC062F06BC063F012000001E751E81195
:1055D800D8A405D0E5C0E5F0E6C0E6F01200E5C0C5
:1055E800E9F0E7C0C4F0E8C0C5F0E90EC66F000EE8
:1055F800C76F000EC96F010EC86FEA0ECA6F000EA2
:10560800CB6F09EC00F00001EA51EB11D8A403D0EC
:10561800E569E6691200E5C0E5F0E6C0E6F01200CB
:1056280060C064F061C065F003D00001644B652B75
:1056380064C0F6FF65C0F7FFF86A070EF76403D089
:105648000800F55005D0F6CFE9FFF7CFEAFFEF5095
:105658000009D8A4EAD760C062F061C063F0000115
:10566800621F631F624B632B64516225606F655133
:105678006321616F12007AC082F07BC083F0000161
:105688007FAF10D07AC0D9FF7BC0DAFF2D0EDF6E56
:105698007A4B7B2B7F1F7E1F7D1F7C6D000E7D2329
:1056A8007E237F237AC06DF07BC06EF07CC06FF0E4
:1056B8007DC070F07EC071F07FC072F080C073F062
:1056C80081C074F0D5EC1FF0120015D063C0F6FF4E
:1056D80064C0F7FFF86A070EF76403D00800F550B6
:1056E80005D0F6CFE9FFF7CFEAFFEF5012EC29F02B
:1056F8000001634B642B63C0F6FF64C0F7FFF86AD0
:10570800070EF76403D00800F55005D0F6CFE9FF7F
:10571800F7CFEAFFEF500009D8B41200D7D73C0EF4
:1057280001011A6F440E1B6F200E1C6F5C0E1D6F5B
:10573800700E1E6F200E1F6F010E136FF40E126F86
:10574800030E156FE80E146F130E176F880E166F81
:10575800010E0B6FF40E0A6F030E0D6FE80E0C6F3F
:10576800130E0F6F880E0E6F000E396E1200000EAA
:105778000A6E0A50010DF3500124D96EF45002202C
:10578800DA6E0A500524086E000E0620096E0850CD
:105798000324E16E09500420E26EDFCFE7FF0A2AF6
:1057A8000A04086E0850010DF3500124D96EF45014
:1057B8000220DA6EDF50D8B41200DBD70001626F26
:1057C80000016251D8B402D0050E1200F651F7114B
:1057D800D8B408D020EE1CF0F651D926F751DA22B9
:1057E800000EDF6E60C0F6F061C0F7F06051611125
:1057F800D8B408D020EE1CF06051D9266151DA22C5
:10580800000EDF6E000E1200000167516811D8B457
:1058180014D020EE1CF06751D9266851DA22DF50E7
:10582800D8B40BD067C0D9FF68C0DAFF6951DE1859
:1058380004E16A51DE18D8B402D00C0E1200000E32
:105848009AEC2CF000016B6F6BA102D0010E1200D4
:10585800000E120021EEF9F010EE88F0060EDBCFF4
:10586800E3FFE806FCE2880E00017A6F000E7B6F0A
:1058780084C07CF085C07DF086C07EF087C07FF054
:10588800000E816F0A0E806F3FEC2BF0880E00012E
:10589800636F000E646F69EC2BF0120060C064F057
:1058A80061C065F003D00001644B652B64C0D9FF6B
:1058B80065C0DAFFDF50D8B406D0F5D70001644BD5
:1058C800652B624B632B62C0F6FF63C0F7FF64C0B1
:1058D800D9FF65C0DAFF0800F5CFDFFFDF50D8B485
:1058E8001200ECD762C069F063C06AF060C067F06C
:1058F80061C068F011D069C0D9FF6AC0DAFFDF5013
:105908000001666F694B6A2B67C0D9FF68C0DAFF70
:1059180066C0DFFF674B682B00016407D8A06507E6
:105928006429E9E16529D8B41200E5D70001656F5B
:1059380014D00001655163EC2FF00001666F6651C9
:105948001200655163EC2FF00001626F6251636FC2
:10595800646B665112006651120000016551000A1D
:10596800D8B4E7D7010AD8B4ECD7030AD8B4F3D728
:10597800010E120004D0014A022A034A042A01C077
:10598800D9FF02C0DAFFDF50056E03C0F6FF04C07E
:10599800F7FF0800F55000080524066E0650D8A445
:1059A80007D001C0D9FF02C0DAFFDF50D8A4E3D77F
:1059B8000650016E026A01BE020612000001626F03
:1059C800100E0001606F940EE82EFED7602FFCD7F2
:1059D80000F0000E0001646F000E636F07D08A8A22
:1059E800C2EC2FF08A9A0001634B642B6251606FFE
:1059F800616B6051635D61516459D8B01200EFD793
:105A08000001806F0ED03FEC0DF00001816F8151D5
:105A180012003FEC0DF00001816F8151120081519D
:105A2800120000018051000AD8B4EDD7010AD8B499
:105A3800F0D7030AD8B4F3D7010E1200D00E010133
:105A4800BC250001606F616BFF0E6123000E636F60
:105A58000A0E626FE1EC2EF00101BD510001686F82
:105A6800696B6051682761516923D00E6825666F9C
:105A7800FF0E6921676F1200D00E0101B1250001E8
:105A8800606F616BFF0E6123000E636F0A0E626F19
:105A9800E1EC2EF00101B2510001686F696B6051B1
:105AA800682761516923D00E6825666FFF0E69214A
:105AB800676F1200D00E0101BA250001606F616B9B
:105AC800FF0E6123000E636F0A0E626FE1EC2EF089
:105AD8000101BB510001686F696B60516827615112
