:0400000007EF00F016
:1000080047822BED1FF0ECEF23F0B0C0C1F0B351E5
:10001800D96EDA6A000EDE6E000EDD6E20EE04F098
:10002800AE51D926AF51DA22DECF1FF0DDCF20F056
:10003800AEC0D9FFAFC0DAFFDECF21F0DDCF22F0AE
:10004800DDEC2AF00001C06FC051D8A4120020EEE8
:1000580002F0AE51D926AF51DA22DFBE120020EEEF
:1000680002F0AE51D926AF51DA22DFA2120020EEFB
:100078000AF0AE51D926AF51DA2210EE0AF0AE518D
:10008800E126AF51E222E6CFB8F0E6CFB9F0E6CFED
:10009800BAF0E6CFBBF0B151B825BC6FB251B92167
:1000A800BD6F000EBA21BE6F000EBB21BF6FDE50C0
:1000B800BC5DDE50BD59DE50BE59DE50BF59D8A0D8
:1000C800120028D220EE06F0AE51D926AF51DA221E
:1000D800FF0EDE14B46F010EDE14B56F000EDE14D1
:1000E800B66F000EDE14B76FB451B511B611B71163
:1000F800D8A45BD120EE04F0AE51D926AF51DA2254
:1001080010EE1DF0DE50E126DD50E22220EE03F075
:10011800AE51D926AF51DA22E650DE5CD8A06BD0BA
:1001280020EE06F0AE51D926AF51DA22DE50DE10AD
:10013800DE10DE10D8A423D020EE0EF0AE51D92662
:10014800AF51DA22DECFC8F0DDCFC9F0C851C911EE
:10015800D8A425D0000EA16F000EA06FFCEC19F0FA
:10016800A0C0C8F0A1C0C9F020EE0EF0AE51D9264B
:10017800AF51DA22C8C0DEFFC9C0DDFF10D020EEC3
:1001880010F0AE51D926AF51DA22DECFA0F0DDCF84
:10019800A1F0FCEC19F0A0C0C8F0A1C0C9F0C8518A
:1001A800C911D8B4BBD1C805C911D8B4EAD120EE59
:1001B80004F0AE51D926AF51DA2210EE16F0DE5017
:1001C800E126DD50E222E650C85DE650C959D8B0B4
:1001D800D8D120EE10F0AE51D926AF51DA22C8C0DE
:1001E800DEFFC9C0DDFF20EE03F0AE51D926AF51C6
:1001F800DA22000EDF6E20EE10F0AE51D926AF5194
:10020800DA22DECF25F0DDCF26F039EC22F020EE21
:1002180003F0AE51D926AF51DA22DF50B46FB45192
:100228002524C26F000E2620C36F000E2720C46F3E
:10023800000E2820C56FB1C0B4F0B2C0B5F0090EE9
:10024800B66FD890B533B433B62FFBD7B4C0C6F069
:10025800B5C0C7F0C651C711D8B469D020EE03F0B5
:10026800AE51D926AF51DA22DF50B46FB451C6254A
:10027800B56F000EC721B66F20EE04F0AE51D92637
:10028800AF51DA2210EE1DF0DE50E126DD50E222F9
:10029800E750B76FB86BB551B75DB651B859D8B01C
:1002A8001CD020EE04F0AE51D926AF51DA2210EE60
:1002B8001DF0DE50E126DD50E222E750B46F20EE5B
:1002C80003F0AE51D926AF51DA22DF50B56FB551E0
:1002D800B45DC66FC76BD8A0C707C1C068F0696BAB
:1002E800C2C06AF0C3C06BF0C4C06CF0C5C06DF08A
:1002F800C6C06EF0000E47EC2AF00009D8A441D120
:1003080020EE03F0AE51D926AF51DA22C651DF26CE
:10031800C6C0B4F0C7C0B5F0090ED890B437B53729
:10032800E82EFBD7B4C0CAF0B5C0CBF0D9D020EEC8
:100338000AF0AE51D926AF51DA2210EE06F0AE51CE
:10034800E126AF51E222DE50E65CDE50E658DE5090
:10035800E658DE50E658D8A021D0000E736F000E84
:10036800746F000E756F000E766F58EC18F0000968
:10037800D8B407D120EE04F0AE51D926AF51DA2215
:1003880010EE04F0DE50E126DD50E222C2C0E6FFA6
:10039800C3C0E6FFC4C0E6FFC5C0E6FF20EE03F019
:1003A800AE51D926AF51DA22DF2A20EE10F0AE5135
:1003B800D926AF51DA22DECF25F0DDCF26F039EC91
:1003C80022F020EE03F0AE51D926AF51DA22DF50E9
:1003D800B46FB4512524B56F000E2620B66F000EF9
:1003E8002720B76F000E2820B86FFF0EB525C26F03
:1003F800FF0EB621C36FFF0EB721C46FFF0EB821E1
:10040800C56FC2C073F0C3C074F0C4C075F0C5C076
:1004180076F058EC18F00009D8B4B3D0FF0EB46FDA
:10042800010EB56F20EE06F0AE51D926AF51DA2293
:10043800DECFB6F0DDCFB7F0B451B617B551B71768
:10044800B6510008CA6FB751D8A0E82A0208CB6F86
:10045800CA51B15DCB51B259D8B004D0B1C0CAF0BD
:10046800B2C0CBF0FF0EB46F010EB56F20EE06F0F0
:10047800AE51D926AF51DA22DECFB6F0DDCFB7F0D4
:10048800B451B617B551B71720EE04F0AE51D926BE
:10049800AF51DA22DECFB8F0DDCFB9F0B651B827C8
:1004A800B751B923200EB825196E000EB9211A6E5E
:1004B800C1C01BF01C6ACAC01DF0CBC01EF068EC9E
:1004C8002BF0000120EE04F0AE51D926AF51DA220C
:1004D80010EE1FF0DE50E126DD50E222010EE76E3D
:1004E800CA51C12720EE06F0AE51D926AF51DA2203
:1004F800CA51DE26CB51DE22000EDE22DE22B351A7
:10050800D96EDA6ACA51DE26CB51DD22CA51B15FF3
:10051800CB51B25BB151B211D8A4D4D520EE06F0BC
:10052800AE51D926AF51DA2210EE0AF0AE51E126CB
:10053800AF51E222DE50E65CDE50E658DE50E65867
:10054800DE50E658D8B014D020EE06F0AE51D926C9
:10055800AF51DA2210EE0AF0AE51E126AF51E22295
:10056800DECFE6FFDECFE6FFDECFE6FFDECFE6FF3B
:1005780020EE02F0AE51D926AF51DA22000EDB8A06
:10058800120020EE02F0AE51D926AF51DA22000E49
:10059800DB8E12007B51D96EDA6ADECF9FF0DDCF99
:1005A800A0F003D000019F4BA02B9FC0F6FFA0C076
:1005B800F7FFF86A070EF76403D00800F55005D076
:1005C800F6CFE1FFF7CFE2FFE750200AD8B4EAD729
:1005D8009FC0F6FFA0C0F7FFF86A070EF76403D0C4
:1005E8000800F55005D0F6CFE1FFF7CFE2FFE7505E
:1005F8002F0AD8A403D000019F4BA02B00017B51E8
:10060800D96EDA6A9FC0DEFFA0C0DDFF37C0A7F051
:1006180038C0A8F0A751A811D8A402D00A0E120019
:1006280020EE1CF0A751D926A851DA22DF50D8B401
:100638000FD0000E90EC2CF00001A26FA2B108D0F0
:100648007C51D8A4A2A502D0090E1200000E1200F7
:10065800A7C019F0A8C01AF0000E1C6E000E1B6E81
:10066800020E1E6E200E1D6EBFEC2CF0000E52EC1A
:100678002DF00001A26FA2A102D0010E12007C5140
:10068800D8B402D0A2B5E0D7000E976F000E986FCD
:10069800000E996F000E9A6F97C073F098C074F0AF
:1006A80099C075F09AC076F00FEC27F00001A16FA1
:1006B800A105D8A423D021EEE2F0A751D926A8514C
:1006C800DA22DF50D8B41AD021EEE6F0A751D926A5
:1006D800A851DA22DECF97F0DECF98F0DECF99F07E
:1006E800DECF9AF097C073F098C074F099C075F097
:1006F8009AC076F00FEC27F00001A16FA151D8A4A1
:100708000CD020EE2BF0A751D926A851DA22DE50C2
:1007180004E1020EDE18D8B402D00B0E120020EE4F
:1007280036F0A751D926A851DA22DECF7DF0DDCFE9
:100738007EF07DC0A3F07EC0A4F0A56BA66BA3518C
:10074800A411A511A611D8A40ED020EE44F0A751EB
:10075800D926A851DA22DECFA3F0DECFA4F0DECF6F
:10076800A5F0DECFA6F020EE14F0A751D926A851A7
:10077800DA22A3C0DEFFA4C0DDFF20EE30F0A751CF
:10078800D926A851DA2210EE1EF0A751E126A85169
:10079800E222DFCFE7FFA3C019F0A4C01AF0A5C07A
:1007A8001BF0A6C01CF020EE1EF0A751D926A851B8
:1007B800DA22DF507D6F7D511D6E1E6A1F6A206A26
:1007C8004FEC29F019C0A3F01AC0A4F01BC0A5F083
:1007D8001CC0A6F020EE2EF0A751D926A851DA2287
:1007E800DECF7DF0DDCF7EF07D5197257F6F7E5186
:1007F8009821806F000E9921816F000E9A21826FD7
:1008080020EE08F0A751D926A851DA227FC0DEFFD2
:1008180080C0DEFF81C0DEFF82C0DEFF20EE2DF04B
:10082800A751D926A851DA2210EE1DF0A751E126CA
:10083800A851E222DFCFE7FF20EE31F0A751D926F9
:10084800A851DA2210EE02F0A751E126A851E222BF
:10085800DECFE6FFDDCFE5FF20EE33F0A751D92646
:10086800A851DA22DECF7DF0DDCF7EF07DC09BF08F
:100878007EC09CF09D6B9E6B9B519C119D119E119F
:10088800D8A40ED020EE40F0A751D926A851DA22DC
:10089800DECF9BF0DECF9CF0DECF9DF0DECF9EF06A
:1008A80020EE02F0A751D926A851DA22DECF7DF03A
:1008B800DDCF7EF0040E7F6FD8907E337D337F2F9F
:1008C800FBD77D51806F7E51816F826B836B20EEE9
:1008D8002EF0A751D926A851DA22DECF84F0DDCF39
:1008E80085F08451866F8551876F886B896B861F69
:1008F800871F881F891F862B000E8723882389233B
:10090800A351865D8A6FA45187598B6FA551885969
:100918008C6FA65189598D6F80518A5D8E6F815178
:100928008B598F6F82518C59906F83518D59916F6C
:100938009B518E25196E9C518F211A6E9D519021C5
:100948001B6E9E5191211C6E20EE1DF0A751D926D9
:10095800A851DA22DF50926F92511D6E1E6A1F6AEB
:10096800206A50EC27F0020E19240001936F000E44
:100978001A20946F000E1B20956F000E1C20966F96
:1009880020EE16F0A751D926A851DA2293C0DEFF2F
:1009980094C0DDFF010EA16F9651951106E1F70E87
:1009A800935D0F0E9459D8A002D0020EA16F9651F4
:1009B800951107E1F70E935DFF0E9459D8B0ADD6A7
:1009C80001D0ABD620EE08F0A751D926A851DA22DB
:1009D800DECF7DF0DECF7EF0DECF7FF0DECF80F0A1
:1009E800A3517D25816FA4517E21826FA5517F215E
:1009F800836FA6518021846F20EE0CF0A751D92671
:100A0800A851DA2281C0DEFF82C0DEFF83C0DEFF8C
:100A180084C0DEFF20EE08F0A751D926A851DA22BB
:100A2800DECF7DF0DECF7EF0DECF7FF0DECF80F050
:100A380020EE02F0A751D926A851DA22DECF81F0A4
:100A4800DDCF82F0040E836FD89082338133832FF9
:100A5800FBD781517D25846F82517E21856F000EE1
:100A68007F21866F000E8021876FA3518425886FB0
:100A7800A4518521896FA55186218A6FA6518721A6
:100A88008B6F20EE10F0A751D926A851DA2288C022
:100A9800DEFF89C0DEFF8AC0DEFF8BC0DEFF20EEEE
:100AA8001AF0A751D926A851DA22FF0EDE6EFF0EE2
:100AB800DD6E20EE1CF0A751D926A851DA22A1C07C
:100AC800DFFF01012A4B2B2BA7C0D9FFA8C0DAFFF3
:100AD8002AC1DEFF2BC1DDFF000E120020EE04F05C
:100AE800AE51D926AF51DA22DECF1FF0DDCF20F08C
:100AF800AEC0D9FFAFC0DAFFDECF21F0DDCF22F0E4
:100B0800DDEC2AF00001C46FC451D8A4120020EE15
:100B180002F0AE51D926AF51DA22DFBE120020EE24
:100B28000AF0AE51D926AF51DA22B051DE5CB1518C
:100B3800DE58B251DE58B351DE58D8B016D020EE88
:100B480002F0AE51D926AF51DA22DFB20ED020EE34
:100B58000AF0AE51D926AF51DA22DECFB0F0DECF9F
:100B6800B1F0DECFB2F0DECFB3F020EE06F0AE513A
:100B7800D926AF51DA22DECFC5F0DECFC6F0DECF00
:100B8800C7F0DECFC8F020EE06F0AE51D926AF513F
:100B9800DA22DE6ADE6ADE6ADD6A20EE03F0AE5132
:100BA800D926AF51DA22FF0EDF6EB051B111B21162
:100BB800B311D8B49CD120EE04F0AE51D926AF5170
:100BC800DA2210EE1DF0DE50E126DD50E222E75079
:100BD800B46FB4C0B5F0B66BB76BB86B090ED890EC
:100BE800B537B637B737B837E82EF9D7B5C0C9F033
:100BF800B6C0CAF0B7C0CBF0B8C0CCF0C551C6116A
:100C0800C711C811D8B493D0FF0EB025196EFF0EC6
:100C1800B1211A6EFF0EB2211B6EFF0EB3211C6E9E
:100C2800C9C01DF0CAC01EF0CBC01FF0CCC020F058
:100C380050EC27F019C0B4F01AC0B5F01BC0B6F0DC
:100C48001CC0B7F0FF0E0001C525196EFF0EC621A6
:100C58001A6EFF0EC7211B6EFF0EC8211C6EC9C07D
:100C68001DF0CAC01EF0CBC01FF0CCC020F050EC65
:100C780027F019500001B45D1A50B5591B50B659E8
:100C88001C50B759D8A053D0FF0EC925B46FFF0E1A
:100C9800CA21B56FFF0ECB21B66FFF0ECC21B76FFF
:100CA800B41DB86FB51DB96FB61DBA6FB71DBB6F50
:100CB800FF0EC525BC6FFF0EC621BD6FFF0EC721F5
:100CC800BE6FFF0EC821BF6FB851BC15C06FB951B8
:100CD800BD15C16FBA51BE15C26FBB51BF15C36FE9
:100CE80020EE06F0AE51D926AF51DA22C0C0DEFFA1
:100CF800C1C0DEFFC2C0DEFFC3C0DEFF20EE06F0CB
:100D0800AE51D926AF51DA22DE50B05FDE50B15B6A
:100D1800DE50B25BDD50B35B20EE10F0AE51D92649
:100D2800AF51DA22DECFCDF0DDCFCEF030D020EEDD
:100D38000EF0AE51D926AF51DA22DECFCDF0DDCF9D
:100D4800CEF0CD51CE11D8A418D0000EA16F000E50
:100D5800A06FFCEC19F0A0C0CDF0A1C0CEF0CD057D
:100D6800CE11D8B4F7D020EE0EF0AE51D926AF513F
:100D7800DA22CDC0DEFFCEC0DDFF20EE10F0AE518E
:100D8800D926AF51DA22CDC0DEFFCEC0DDFFCD516E
:100D9800CE11D8A462D0ABD020EE02F0AE51D92645
:100DA800AF51DA22DFA217D0CDC0A0F0CEC0A1F09B
:100DB800FCEC19F0A0C0CDF0A1C0CEF0CD51CE1101
:100DC800D8A413D0C9C0B0F0CAC0B1F0CBC0B2F03B
:100DD800CCC0B3F04CD0CDC088F0CEC089F0A7EC21
:100DE80012F088C0CDF089C0CEF0CE5104E1020ED9
:100DF800CD5DD8A0AFD020EE04F0AE51D926AF51CA
:100E0800DA2210EE16F0DE50E126DD50E222E6503E
:100E1800CD5DE650CE59D8B09DD020EE10F0AE5141
:100E2800D926AF51DA22CDC0DEFFCEC0DDFF20EEDD
:100E380006F0AE51D926AF51DA22C951DE26CA5181
:100E4800DE22CB51DE22CC51DE22C951B05FCA511D
:100E5800B15BCB51B25BCC51B35BB051C95DB15101
:100E6800CA59B251CB59B351CC59D8A095D720EE15
:100E780006F0AE51D926AF51DA22B051DE26B15173
:100E8800DE22B251DE22B351DE2220EE03F0AE5153
:100E9800D926AF51DA22B0C0B4F0B1C0B5F0B2C0B3
:100EA800B6F0B3C0B7F00A0E05D0D890B733B63352
:100EB800B533B433E82EF9D7B451DF6EFF0EB01551
:100EC800B46F010EB115B56F000EB215B66F000EF6
:100ED800B315B76FB451B511B611B711D8B407D05F
:100EE80020EE03F0AE51D926AF51DA22DF2A20EEE8
:100EF80006F0AE51D926AF51DA2210EE0AF0AE5103
:100F0800E126AF51E222DE50E65CDE50E658DE50C4
:100F1800E658DE50E658D8B0120020EE06F0AE5182
:100F2800D926AF51DA2210EE0AF0AE51E126AF51C0
:100F3800E222DECFE6FFDECFE6FFDECFE6FFDECF42
:100F4800E6FF20EE02F0AE51D926AF51DA22000EAC
:100F5800DB8A120020EE02F0AE51D926AF51DA2218
:100F6800000EDB8E1200DD0E0201CD6F000EC26F87
:100F7800000EC16FC1C2CEF2C2C2CFF2CE2903E1C8
:100F8800CF29D8B41200DBC0F6FFDCC0F7FF080099
:100F9800F5CFD2F20001DB4BDC2B0201D251D8B4E1
:100FA8001200250ED219D8B419D0D2C2CCF0000143
:100FB800CD6BD9C0CEF0DAC0CFF0CCEC2BF0CCC0E2
:100FC800CEF2CDC0CFF20201CE2903E1CF29D8B4A9
:100FD80083D1000ECF6F010ECE6F7ED1000EC76F8A
:100FE800C7C2C5F2C66BDBC0F6FFDCC0F7FF08005E
:100FF800F5CFD2F20001DB4BDC2B300E0201D21907
:10100800D8A423D0010EC76FDBC0F6FFDCC0F7FF02
:101018000800F5CFD2F20001DB4BDC2B16D0C5C29D
:1010280019F0C6C21AF0000E1C6E0A0E1B6E65EC93
:101038002DF00201D2511926000E1A22D00E1924C1
:10104800C56FFF0E1A20C66FDFD72F0E0201D265BB
:1010580003D0390ED265E3D76C0ED219D8A40BD0C1
:10106800C783DBC0F6FFDCC0F7FF0800F5CFD2F27C
:101078000001DB4BDC2B730E0201D219D8A415D06A
:10108800CD51D96EDA6ADECFD3F0DDCFD4F0D9C036
:10109800D5F0DAC0D6F088EC26F0D3C0CEF2D4C0B2
:1010A800CFF2020E0201CD2717D1630ED219D8A4B0
:1010B8001DD0CD51D96EDA6ADF500001EF6FEF51C4
:1010C800CC6FCD6BD9C0CEF0DAC0CFF0CCEC2BF022
:1010D800CCC0CEF2CDC0CFF2020E0201CD27CE2970
:1010E80004E1CF29D8A475D7F7D073D7000EC86FFD
:1010F800640ED219D8A402D00A0EC86F750ED21980
:10110800D8A402D00A0EC86F580ED219D8A402D09B
:10111800100EC86FC851D8B41200C7A30DD0CD5156
:10112800D96EDA6ADECFC9F2DECFCAF2DECFCBF2F1
:10113800DECFCCF2040E1FD0640ED219D8B40ED074
:10114800CD51D96EDA6ADECFEFF0DDCFF0F0EFC027
:10115800C9F2F0C0CAF2CB6BCC6B0CD0CD51D96EB2
:10116800DA6ADECFC9F2DDCFCAF2000ECABFFF0EBF
:10117800CB6FCC6F020ECD27640ED219D8A40ED037
:10118800800ECC5DD8A00AD0C96DCA1FD8B0CA2BB2
:10119800CB1FD8B0CB2B000ECC57C785000ED16F14
:1011A8000F0ED06F000EC06FC9C219F0CAC21AF074
:1011B800CBC21BF0CCC21CF0C8511D6E1E6A1F6A40
:1011C800206A37EC28F01950300FD26F390ED265EB
:1011D80002D0070ED227D007D8A0D107B10ED0254C
:1011E800D96E020ED121DA6ED2C2DFFFC9C219F060
:1011F800CAC21AF0CBC21BF0CCC21CF0C8511D6E7B
:101208001E6A1F6A206A50EC27F019C0C9F21AC07A
:10121800CAF21BC0CBF21CC0CCF20201D051D111D2
:10122800D8B406D0C951CA11CB11CC11D8A4BCD797
:10123800D051D111D8A4C7A50BD0D007D8A0D107B9
:10124800B10ED025D96E020ED121DA6E2D0EDF6EC9
:10125800C5510F08C56FC651D8A0E82A0008C66F47
:1012680016D00201C7B104D0000EC46F200E03D0FF
:10127800000EC46F300EC36FD007D8A0D107B10ECF
:10128800D025D96E020ED121DA6EC3C2DFFFD0514C
:10129800D111D8B40DD0D051C55DC651800A000116
:1012A800EF6F0201D151800A0001EF59D8A0D9D7B8
:1012B800B10E0201D0250001D36F020E0201D12127
:1012C8000001D46FD9C0D5F0DAC0D6F088EC26F08A
:1012D800D3C0CEF2D4C0CFF20201CE51C127CF5134
:1012E800C2234CD620EE04F0C051D926C151DA22CF
:1012F800000EDE6E000EDD6E1F0EC417C20E7B6F71
:10130800C4511E0B7C6FCEEC02F00001DB6FDB5189
:10131800D8B402D0DB511200DE0EA86FC90EA96F37
:10132800C2C0AAF0C3C0ABF0DC0EAC6FECEC0DF0A1
:10133800DB6FC4C0C5F01C0EC517D8B4DDD0DB51B7
:10134800D8B434D0020EDB19D8A4E4D7DE0EAE6FC1
:10135800DC0EAF6F28EC0FF0DB6FDB51D8A4DAD7C7
:10136800DCC019F0DDC01AF0000E1C6E000E1B6EFA
:10137800000E1E6E200E1D6EBFEC2CF0DCC019F0A6
:10138800DDC01AF0C90E1B6E1C6A000E1E6E0B0E15
:101398001D6E68EC2BF0000120EE0CF0DC51D92614
:1013A800DD51DA22D4C0DFFFC4877AD0C4A502D0C9
:1013B800070E1200DC51DD11D8B40CD020EE0BF072
:1013C800DC51D926DD51DA22DF50C56F110EC51761
:1013D800D8B402D0060E1200C4A762D020EE1AF0CC
:1013E800DC51D926DD51DA22DECFD5F0DDCFD6F0BB
:1013F80020EE1AF0DC51D926DD51DA22000EDE6E1D
:10140800000EDD6E20EE1CF0DC51D926DD51DA220B
:10141800DE6ADE6ADE6ADD6A20EE1FF0E251D92656
:10142800E351DA22010EDF6E20EE04F0E251D926F4
:10143800E351DA22DECFD7F0DECFD8F0DECFD9F015
:10144800DECFDAF0D5C0A0F0D6C0A1F08DEC24F044
:101458000009D8B40DD0D7C073F0D8C074F0D9C083
:1014680075F0DAC076F058EC18F00009D8A402D06C
:10147800080E1200FF0EC56FFF0EC66FD5C0C7F06D
:10148800D6C0C8F0C551C727C651C82320EE18F0EA
:10149800E251D926E351DA22C7C0DEFFC8C0DDFF1A
:1014A800C4A745D020EE0BF0DC51D926DD51DA2255
:1014B800000EDF6E21EC1CF01DC0D7F01EC0D8F066
:1014C8001FC0D9F020C0DAF020EE0EF0DC51D9268A
:1014D800DD51DA22D7C0DEFFD8C0DEFFD9C0DEFF7B
:1014E800DAC0DEFF20EE1FF0E251D926E351DA22FE
:1014F800010EDF6EC48B1BD0DB51D8A40BD7DC5197
:10150800DD11D8B408D020EE0BF0DC51D926DD511E
:10151800DA22DFA802D0020E1200C4A308D020EEFF
:101528000BF0DC51D926DD51DA22DFB053D720EE9B
:1015380004F0E251D926E351DA2210EE16F0C05138
:10154800E126C151E222DECFE6FFDECFE6FFDECFA5
:10155800E6FFDECFE6FF20EE1AF0C051D926C151D2
:10156800DA22DCC0DEFFDDC0DDFF20EE02F0C05174
:10157800D926C151DA22C4C0DFFF20EE1AF0DC51AF
:10158800D926DD51DA2210EE0EF0C051E126C15104
:10159800E222DECFE6FFDDCFE5FF20EE1CF0DC51D6
:1015A800D926DD51DA2210EE0AF0C051E126C151E8
:1015B800E222DECFE6FFDECFE6FFDECFE6FFDECFBC
:1015C800E6FF20EE06F0C051D926C151DA22DE6AC4
:1015D800DE6ADE6ADD6A20EE03F0C051D926C15109
:1015E800DA22FF0EDF6E20EE04F0C051D926C15179
:1015F800DA22E2C0DEFFE3C0DDFFE2C0D9FFE3C0CC
:10160800DAFFC0C0E1FFC1C0E2FFDECFE6FFDDCFF9
:10161800E5FF000E1200000E0001646F000E636FFC
:10162800000E6A6F000E696F000E6B6F100E2C6E45
:10163800940EE82EFED72C2EFCD700D0640EECECCE
:101648002BF06EEC25F0AA0E1E6E010E1F6E000E1A
:10165800206E000E216E870E226E480EF6EC28F0E2
:1016680053EC2FF04DEC2FF00001676F6705D8A4FD
:1016780004D06751666F656B06D0AA0E6719D8A4A7
:1016880002D067516513634B642BAA0E651903E1F9
:101698006605D8B408D064BFE5D7E80E635D030ECD
:1016A8006459D8A0DFD7AA0E651902E16605D8A447
:1016B8009ED0000E6A6F000E696F0A0EECEC2BF0DC
:1016C800000E1E6E000E1F6E000E206E000E216EA4
:1016D800000E226E770EF6EC28F053EC2FF04DEC4E
:1016E8002FF000016B6F694B6A2B6B05D8B408D0DB
:1016F8006ABFF5D76A5104E10A0E695DD8A0EFD731
:10170800000E6A6F000E696F0A0EECEC2BF0000EEB
:101718001E6E000E1F6E000E206E400E216E000E13
:10172800226E690EF6EC28F053EC2FF04DEC2FF0FA
:1017380000016B6F694B6A2B6B51D8A4BED70A0E98
:10174800ECEC2BF0000E1E6E000E1F6E000E206ECD
:10175800000E216EFF0E226E7A0EF6EC28F053EC86
:101768002FF04DEC2FF000016B6F6B516B25800B48
:10177800686F694B6A2B6851D8B40BD06805D8B428
:1017880008D06ABFEED76A5104E10A0E695DD8A095
:10179800E8D76851D8B403D06805D8A48AD7100E02
:1017A8002C6E940EE82EFED72C2EFCD700D0000EFF
:1017B8000001626F6851D8A4ACD00A0EECEC2BF093
:1017C800000E1E6E020E1F6E000E206E000E216EA1
:1017D800FF0E226E500EF6EC28F053EC2FF04DEC75
:1017E8002FF000016B6F6B51D8B493D0F8D7000E6F
:1017F8006A6F000E696F010EECEC2BF0000E1E6E86
:10180800000E1F6E000E206E000E216EFF0E226E5F
:10181800690EF6EC28F053EC2FF04DEC2FF0000198
:101828006B6F694B6A2B6B51D8A40BD0000E1C6EE2
:10183800010E9AEC28F02D0E1C6E620E1D6ECEEC79
:1018480029F0100E2C6E940EE82EFED72C2EFCD705
:1018580000D000016B51D8B408D06ABFDED7100E93
:10186800695D270E6A59D8A0D8D70A0E69196A1176
:10187800D8A436D0000E6A6F000E696F0A0EECEC21
:101888002BF0000E1E6E000E1F6E000E206E000E56
:10189800216EFF0E226E410EF6EC28F053EC2FF06D
:1018A8004DEC2FF000016B6F694B6A2B6B51D8A47C
:1018B8000BD0000E1C6E010E9AEC28F0030E1C6E65
:1018C800620E1D6ECEEC29F000016B51D8B408D021
:1018D8006ABFE6D7100E695D270E6A59D8A0E0D70F
:1018E8000A0EECEC2BF0000E1E6E020E1F6E000EA0
:1018F800206E000E216EFF0E226E500EF6EC28F0C0
:1019080053EC2FF04DEC2FF000016B6F6B51D8A406
:10191800F9D76251120053D184B002D034A003D059
:101928003D04D8A442D035503610D8A411D0060EA4
:101938001C6E020E9AEC28F06EEC2FF019C01CF009
:101948001AC01DF0CEEC29F0270E366E100E356E3B
:101958003C04D8B428D0010E3D6E010E42EC26F0AE
:10196800000E1C6E010E9AEC28F05F0E1C6E620EC3
:101978001D6ECEEC29F0000E1C6E020E9AEC28F0BB
:101988005A0E1C6E620E1D6ECEEC29F0060E1C6EF1
:10199800020E9AEC28F06EEC2FF019C01CF01AC059
:1019A8001DF0CEEC29F0010E3C6E84B202D034A0BA
:1019B80004D0020E3D18D8A46DD035503610D8A4E6
:1019C80026D069EC2FF019C022F11AC023F164EC7B
:1019D8002FF019C020F11AC021F1040E1C6E010E5F
:1019E8009AEC28F022C11CF023C11DF0CEEC29F09E
:1019F800040E1C6E020E9AEC28F020C11CF021C1C6
:101A08001DF0CEEC29F0070E366ED00E356E020EA4
:101A18003C18D8B43DD0020E3D6E010E42EC26F0C3
:101A280069EC2FF019C022F11AC023F164EC2FF0F1
:101A380019C020F11AC021F1000E1C6E010E9AEC9B
:101A480028F0720E1C6E620E1D6ECEEC29F0040E8C
:101A58001C6E010E9AEC28F022C11CF023C11DF067
:101A6800CEEC29F0000E1C6E020E9AEC28F06E0ED9
:101A78001C6E620E1D6ECEEC29F0040E1C6E020E5A
:101A88009AEC28F020C11CF021C11DF0CEEC29F001
:101A9800020E3C6E3D50D8A4120034B01200040E61
:101AA8003C18D8B40ED0010E42EC26F0000E1C6E85
:101AB800010E9AEC28F05E0E1C6E610E1D6ECEECC7
:101AC80029F0040E3C6E120034B004D0030E3D1809
:101AD800D8A4120035503610D8A424D0070E1C6E96
:101AE800020E9AEC28F032A003D0306A302A01D0D6
:101AF800306A30502E6E2F6A26EC2CF0090E1C6EC0
:101B0800020E9AEC28F033A003D0306A302A01D0B4
:101B1800306A30502E6E2F6A26EC2CF0270E366E67
:101B2800100E356E030E3C18D8B446D0030E3D6E29
:101B3800010E42EC26F0000E1C6E010E9AEC28F005
:101B4800CF0E1C6E610E1D6ECEEC29F0000E1C6EC1
:101B5800020E9AEC28F0400E1C6E620E1D6ECEEC42
:101B680029F0070E1C6E020E9AEC28F032A003D062
:101B7800306A302A01D0306A30502E6E2F6A26EC37
:101B88002CF0080E1C6E020E9AEC28F07D0E1C6ECE
:101B9800620E1D6ECEEC29F0090E1C6E020E9AEC38
:101BA80028F033A003D0306A302A01D0306A305090
:101BB8002E6E2F6A26EC2CF0030E3C6E120034A019
:101BC80002D0010E01D0000E000AD8B4A5D67CD7E9
:101BD80037C0B5F038C0B6F0A851D96EDA6A040E2D
:101BE800D926B5C0DEFFB6C0DDFF20EE0CF0B5513A
:101BF800D926B651DA22DECFB7F0DDCFB8F0A8513A
:101C0800D96EDA6A060ED926000EDE6E000EDD6E7B
:101C1800A851E16EE26A080EE126DECFE6FFDDCFCD
:101C2800E5FFB751AD6FB851AE6FAF6BB06BA85150
:101C3800D96EDA6A0A0ED926ADC0DEFFAEC0DEFF65
:101C4800AFC0DEFFB0C0DEFFA851D96EDA6A020E5F
:101C5800D926000EDE6E000EDD6EAAC0F6FFABC000
:101C6800F7FFF86A070EF76403D00800F55005D0AF
:101C7800F6CFE1FFF7CFE2FFE7500009D8A40AD07A
:101C88000001AC51D96EDA6A000EDE6E000EDD6E10
:101C9800000E1200AA0E216EA9C022F074EC1BF0EF
:101CA8000001B96FB905D8A402D0040E1200A851DA
:101CB800D96EDA6A0A0ED926DECF73F0DECF74F059
:101CC800DECF75F0DECF76F058EC18F00009D8A416
:101CD80002D0080E1200A851D96EDA6A020ED9266F
:101CE800DECFADF0DDCFAEF00F0EAD17000EAE17A4
:101CF800050ED890AD37AE37E82EFBD7B5C0AFF09C
:101D0800B6C0B0F0AD51AF27AE51B023200EAF250D
:101D1800BA6F000EB021BB6FBAC0D9FFBBC0DAFFE3
:101D2800DF50D8A40DD0B951D8B404D0000EB26F8A
:101D3800030E03D0000EB26F020EB16FB151120044
:101D4800BAC0D9FFBBC0DAFFE50EDE18D8B419D087
:101D580020EE0BF0BA51D926BB51DA22DFB611D0EA
:101D6800BAC019F0BBC01AF0A9C01BF01C6A000E5B
:101D78001E6E0B0E1D6E25EC25F019501A10D8B4E6
:101D880014D0A8C031F0C2EC1AF00009D8A48FD73B
:101D9800B951D8B404D0000EB46F030E03D0000EAE
:101DA800B46F020EB36FB35112000001B951D8A439
:101DB80008D0AC51D96EDA6ABAC0DEFFBBC0DDFF0D
:101DC80067D720EE0BF0BA51D926BB51DA22DFB81B
:101DD80002D0030E120020EE1AF0BA51D926BB51D8
:101DE800DA22DECFB7F0DDCFB8F0A851D96EDA6AC3
:101DF800060ED926B7C0DEFFB8C0DDFFA851E16ED8
:101E0800E26A080EE126DECFE6FFDDCFE5FFB7C0C8
:101E180025F0B8C026F039EC22F0A851D96EDA6A5C
:101E28000A0ED92625C0DEFF26C0DEFF27C0DEFF4A
:101E380028C0DEFFA851D96EDA6A020ED926020E32
:101E4800DE6E000EDD6E26D7AE51D96EDA6A040E4C
:101E5800D926DECFBEF0DDCFBFF0AE51D96EDA6A3B
:101E6800060ED926DECFBCF0DDCFBDF0BC51BD11CA
:101E7800D8B41DD0AE51D96EDA6A080ED926BCC0C6
:101E8800DEFFBDC0DDFFBCC025F0BDC026F039ECCB
:101E980022F0AE51D96EDA6A0A0ED92625C0DEFFC5
:101EA80026C0DEFF27C0DEFF28C0DEFF13D020EEED
:101EB8000CF0BE51D926BF51DA22AE51E16EE26A6A
:101EC8000A0EE126DECFE6FFDECFE6FFDECFE6FF35
:101ED800DECFE6FFAE51D96EDA6A020ED926000EC1
:101EE800DE6E000EDD6EAE51D96EDA6A0A0ED926A4
:101EF800DECF73F0DECF74F0DECF75F0DECF76F094
:101F080058EC18F00009D8A402D0080E1200AE51FF
:101F1800D96EDA6A020ED926DECFB0F0DDCFB1F085
:101F28000F0EB017000EB117050ED890B037B137A5
:101F3800E82EFBD7BEC0B2F0BFC0B3F0B051B22795
:101F4800B151B323200EB225B96F000EB321BA6F79
:101F5800B9C0D9FFBAC0DAFFDF50BB6FBB51D8B4E4
:101F680004D0E50EBB19D8A409D0AF51D96EDA6AEE
:101F7800B9C0DEFFBAC0DDFF000E1200AEC031F0FE
:101F8800C2EC1AF00009D8A4AED7BC51BD11D8B420
:101F980013D0AE51D96EDA6A080ED926DECFA0F07A
:101FA800DDCFA1F0FCEC19F0A0C0BCF0A1C0BDF0E1
:101FB800BC51BD11D8A402D0060E1200BC05BD113B
:101FC800D8B4A3D7000E736F000E746F000E756F30
:101FD800000E766F58EC18F00009D8B496D7BCC03C
:101FE80025F0BDC026F039EC22F025C0B4F026C09B
:101FF800B5F027C0B6F028C0B7F020EE04F0BE5107
:10200800D926BF51DA22B4C0DEFFB5C0DEFFB6C0A4
:10201800DEFFB7C0DEFF200EBE25196E000EBF2101
:102028001A6E000E1C6E000E1B6E020E1E6E000E47
:102038001D6EBFEC2CF0000120EE1DF0BE51D9261C
:10204800BF51DA22DF50B86F1DD0200EBE25686F51
:10205800000EBF21696FB4C06AF0B5C06BF0B6C09E
:102068006CF0B7C06DF0010E6E6F000E47EC2AF0F1
:102078000009D8A44AD7010EB427000EB523B62309
:10208800B723B807B851D8A4E0D720EE1FF0BE5147
:10209800D926BF51DA22010EDF6E200EBE25B06FA1
:1020A800000EBF21B16FAF51D96EDA6AB0C0DEFF42
:1020B800B1C0DDFF61D737C09EF038C09FF020EE79
:1020C80008F09E51D9269F51DA22DECF96F0DECF56
:1020D80097F0DECF98F0DECF99F008D188C019F0DC
:1020E80089C01AF0000E1C6E030E1B6E65EC2DF0F5
:1020F800D8901A3000018C6F19309A6F8CC09BF001
:102108009AC08CF09BC08DF0090E8E6FD8908D33DD
:102118008C338E2FFBD78C519625736F8D51972159
:10212800746F000E9821756F000E9921766F58EC28
:1021380018F00009D8A402D0000E1200FF0E8C6F10
:10214800010E8D6F9AC08EF09BC08FF08C518E1748
:102158008D518F179EC090F09FC091F08E5190279F
:102168008F519123200E90259C6F000E91219D6F19
:1021780088B104D08AC092F0936B1AD08A518C6FC0
:102188008D6B8C3B8D3BF00E8D178C510F0B8D1387
:10219800F00E8C179CC0D9FF9DC0DAFFDF500F0BE3
:1021A8008E6F8F6B8C518E11926F8D518F11936F33
:1021B8009CC0D9FF9DC0DAFF92C0DFFF9A4B9B2BD2
:1021C80020EE1FF09E51D9269F51DA22010EDF6EB4
:1021D8009AC08CF09BC08DF0090E8E6FD8908D330D
:1021E8008C338E2FFBD78C519625736F8D51972189
:1021F800746F000E9821756F000E9921766F58EC58
:1022080018F00009D8B498D7FF0E8C6F010E8D6FA7
:102218009AC08EF09BC08FF08C518E178D518F17FE
:102228009EC090F09FC091F08E5190278F519123BE
:10223800200E90259C6F000E91219D6F88B10ED0C5
:102248008BC08CF00F0E8C179CC0D9FF9DC0DAFF95
:10225800DF50F00B8C118D6F8D510CD08AC08CF033
:102268008BC08DF0040E8E6FD8908D338C338E2FEB
:10227800FBD78C51946F956B9CC0D9FF9DC0DAFF3A
:1022880094C0DFFF41D089519625736F000E9721C6
:10229800746F000E9821756F000E9921766F58ECB7
:1022A80018F00009D8B448D7FF0E8C6F010E8D6F57
:1022B80088C08EF089C08FF0D8908E378F378C51B8
:1022C8008E178D518F179EC090F09FC091F08E5140
:1022D80090278F519123200E9025D96E000E9121C1
:1022E800DA6E8AC0DEFF8BC0DDFF0ED020EE1CF058
:1022F8009E51D9269F51DA22DF50010AD8B4EED672
:10230800030AD8B4C0D718D720EE1FF09E51D9269B
:102318009F51DA22010EDF6E010E12000A6E0AC00A
:102328000BF006D14404D8A405D0000E01012F6F8C
:10233800010E2E6F020E4418D8A405D0000E01011C
:102348002D6F010E2C6F01012E512F11D8B41200E0
:102358002C512D11D8B41200000E2D6F000E2C6FC9
:102368002CC12EF12DC12FF11200000E456E45C073
:1023780043F01200CA0E4524D96EDA6A010EDA2239
:10238800000EDF6E4350D8A430D0CA0E016E010E85
:10239800026EF00E036E010E046E000E066E000E45
:1023A800056E01EC2BF0F00E016E010E026E540E5C
:1023B800036E620E046E94EC2AF001500210D8A449
:1023C80002D0010E11D0F00E016E010E026E4E0EFB
:1023D800036E620E046E94EC2AF001500210D8A429
:1023E80002D0020E01D0030E446E4304D8A413D0C9
:1023F8004404D8A410D0CA0E016E010E026ED60E87
:10240800036E010E046E000E066E000E056E01ECE2
:102418002BF001011881030E4318D8A413D04404EB
:10242800D8A410D0CA0E016E010E026E8D0E036E76
:10243800020E046E000E066E010E056E01EC2BF006
:1024480001011981040E4318D8A40DD04404D8A45E
:102458000AD04E0E0101CA19D8A402D0300E01D0FC
:102468002D0E02018D6F050E4318D8A413D0440415
:10247800D8A410D0CA0E016E010E026E800E036E33
:10248800020E046E000E066E010E056E01EC2BF0B6
:1024980001011A81060E4318D8A40DD04404D8A40B
:1024A8000AD0450E0101CA19D8A402D0300E01D0B5
:1024B8002D0E0201806F090E4318D8A413D04404CE
:1024C800D8A410D0CA0E016E010E026EE90E036E7A
:1024D800010E046E000E066E000E056E01EC2BF068
:1024E80001011B81060E4318D8A414D0020E44180B
:1024F800D8A410D0CA0E016E010E026EFA0E036E39
:10250800010E046E000E066E000E056E01EC2BF037
:1025180001011C81432A000E456E1200CA0E452493
:10252800D96EDA6A010EDA220BC0DFFF452A1200E3
:102538000B500D0AD8B4F6D6290AD8B416D7080A0B
:10254800D8B418D7EBD737C09BF038C09CF0895166
:1025580004E1020E885DD8A002D120EE16F09B514E
:10256800D9269C51DA22DE50885DDE508959D8B0D0
:10257800F6D020EE08F09B51D9269C51DA22DECF06
:1025880095F0DECF96F0DECF97F0DECF98F0DAD078
:1025980088C019F089C01AF0000E1C6E030E1B6E5D
:1025A80065EC2DF0D8901A3000018A6F1930996FB8
:1025B8008AC09AF099C08AF09AC08BF0090E8C6F85
:1025C800D8908B338A338C2FFBD78A519525736F1C
:1025D8008B519621746F000E9721756F000E98210C
:1025E800766F58EC18F00009D8B4B9D0FF0E8A6F8E
:1025F800010E8B6F99C08CF09AC08DF08A518C17A0
:102608008B518D179BC08EF09CC08FF08C518E27FC
:102618008D518F23200E8E25D96E000E8F21DA6EF4
:10262800DF50906F9051936F946B994B9A2B99C090
:102638008AF09AC08BF0090E8C6FD8908B338A334E
:102648008C2FFBD78A519525736F8B519621746F08
:10265800000E9721756F000E9821766F58EC18F0D0
:102668000009D8B47CD0FF0E8A6F010E8B6F99C019
:102678008CF09AC08DF08A518C178B518D179BC0A6
:102688008EF09CC08FF08C518E278D518F23200E99
:102698008E25D96E000E8F21DA6EDF50906F905123
:1026A800926F916B915193139251941388B107D003
:1026B800FF0E9315886F0F0E9415896F120093C043
:1026C8008AF094C08BF0040E8C6FD8908B338A33C9
:1026D8008C2FFBD78AC088F08BC089F012008951F3
:1026E8009525736F000E9621746F000E9721756FF4
:1026F800000E9821766F58EC18F00009D8B42FD046
:10270800FF0E8A6F010E8B6F88C08CF089C08DF028
:10271800D8908C378D378A518C178B518D179BC069
:102728008EF09CC08FF08C518E278D518F23200EF8
:102738008E25D96E000E8F21DA6EDECF88F0DDCFC0
:1027480089F0120020EE1CF09B51D9269C51DA2208
:10275800DF50010AD8B41CD7030AD8B4C0D7000E7A
:10276800896F010E886F1200206EE5D0A70E03D086
:10277800930E01D0890E216EF60E226E840E04D0BF
:10278800870E6BD0850EF7D7236EE7D0840EF3D76C
:10279800840E63D0840E216ED30E9AD0810EEBD7AF
:1027A800810E5BD0800EE7D7800E57D0000E216EC9
:1027B800D10E8ED0000E216EC00E226E800EE4D790
:1027C800010E120020501D6E1E6A1E50000AD8A469
:1027D800F7D71D50010AD8B4C9D7030AD8B4C8D747
:1027E800010AD8B4C7D7070AD8B4CAD7010AD8B4D7
:1027F800C9D7030AD8B4CAD7010AD8B4C9D70F0AA7
:10280800D8B4C8D7010AD8B4C9D7030AD8B4C8D726
:10281800010AD8B4C7D7070AD8B4C6D7010AD8B4AA
:10282800C5D7030AD8B4C6D7CBD73F0E216E2268C6
:10283800870EAAD7670E9FD7530E9DD74E0E0DD081
:10284800490E99D7440E97D7440E07D0430E05D0AA
:10285800410E91D7410E01D0400E216EE50E226E39
:10286800830E92D7000E216ECA0E32D020501D6EF4
:102878001E6A1E50000AD8A4A3D71D50010AD8B456
:10288800D4D7030AD8B4D6D7010AD8B4D5D7060AFC
:10289800D8B4D4D7030AD8B4D3D7010AD8B46CD7DC
:1028A8000F0AD8B4CFD7010AD8B4CED7030AD8B400
:1028B800CDD7010AD8B4CCD7070AD8B4CBD7010AE8
:1028C800D8B4CAD7030AD8B4CDD77AD7180E63D7E5
:1028D800226E810E59D7C40EA9D7440E5CD7400E7C
:1028E8004AD7000E216ED90E226E820E4DD7205087
:1028F8001D6E1E6A1E50000AD8A462D71D50060A13
:10290800D8B4E4D7010AD8B49BD70F0AD8B4E3D710
:10291800010AD8B497D7030AD8B496D7010AD8B40D
:10292800DCD7070AD8B494D7010AD8B4D8D7030A91
:10293800D8B4D7D745D71C501D6E1E6A1E50000A42
:10294800D8A43ED71D50000AD8B4D1D7010AD8B4AC
:102958008DD7030AD8B436D733D721C01AF02A0E38
:10296800D4EC2EF022C01AF0290ED4EC2EF023C09D
:102978001AF0280ED4EC2EF0000E12001F6E1DC0A7
:1029880019F01EC01AF0ABEC2BF01950206EE2D0F3
:10299800000E216E1DC0F6FF1EC0F7FFF86A1A0E62
:1029A8002124D96EDA6A020EDA22070EF76403D000
:1029B8000800F55005D0F6CFE1FFF7CFE2FFE7506A
:1029C800DF6E1D4A1E2A212A050E2164E3D7120054
:1029D800000E216E1DC0F6FF1EC0F7FFF86A130E29
:1029E8002124D96EDA6A020EDA22070EF76403D0C0
:1029F8000800F55005D0F6CFE1FFF7CFE2FFE7502A
:102A0800DF6E1D4A1E2A212A050E2164E3D7120013
:102A1800000E216E1DC0F6FF1EC0F7FFF86A290ED2
:102A28002124D96EDA6A020EDA22070EF76403D07F
:102A38000800F55005D0F6CFE1FFF7CFE2FFE750E9
:102A4800DF6E1D4A1E2A212A0C0E2164E3D71200CC
:102A5800000E216E1DC0F6FF1EC0F7FFF86A360E85
:102A68002124D96EDA6A020EDA22070EF76403D03F
:102A78000800F55005D0F6CFE1FFF7CFE2FFE750A9
:102A8800DF6E1D4A1E2A212A0C0E2164E3D712008C
:102A9800000E216E1AD01DC0F6FF1EC0F7FFF86A9F
:102AA800520E2124D96EDA6A020EDA22070EF76472
:102AB80003D00800F55005D0F6CFE1FFF7CFE2FFCD
:102AC800E750DF6E1D4A1E2A212A2050215CD8B00B
:102AD8001200E1D7000E216E1DC0F6FF1EC0F7FFE1
:102AE800F86A270E2124D96EDA6A020EDA22070E56
:102AF800F76403D00800F55005D0F6CFE1FFF7CF13
:102B0800E2FFE750DF6E1D4A1E2A212A030E2164C8
:102B1800E3D71200000E216E1DC0F6FF1EC0F7FF9E
:102B2800F86A250E2124D96EDA6A020EDA22070E17
:102B3800F76403D00800F55005D0F6CFE1FFF7CFD2
:102B4800E2FFE750DF6E1D4A1E2A212A050E216486
:102B5800E3D712001F50000AD8B41AD7010AD8B414
:102B680037D7030AD8B454D7010AD8B471D7070A9B
:102B7800D8B48ED7010AD8B4ADD7030AD8A41200A6
:102B8800C9D71D6E000E1E6E000E1F6E000E216E40
:102B9800CED0060E226E2150D8B404D0020E2118D1
:102BA800D8A459D0020E2118D8A403D01E50D8B4E6
:102BB8001E2A000E206E0A0E226401D048D0215031
:102BC8000B0DB90E196E600E1A6EF3501926F450DB
:102BD8001A2222501926000E1A2219C0F6FF1AC00E
:102BE800F7FF1E503E0D320E1B6E010E1C6E1E0EA0
:102BF8001B26000E1C22F3501B26F4501C222050CA
:102C08001B24D96E000E1C20DA6E0800F5CFDFFFFA
:102C1800A60E2224D96EDA6A020EDA221E503E0D62
:102C2800320E196E010E1A6E2A0E1926000E1A227D
:102C3800F3501926F4501A2220501924E16E000E80
:102C48001A20E26EDFCFE7FF222A202AB4D7222AF1
:102C58000A0E2264A0D7212A030E21649AD71200F3
:102C6800070E226E2150D8B404D0020E2118D8A421
:102C780059D0020E2118D8A403D01F50D8B41F2A47
:102C8800000E206E0B0E226401D048D021500C0D8E
:102C9800890E196E600E1A6EF3501926F4501A2216
:102CA80022501926000E1A2219C0F6FF1AC0F7FF83
:102CB8001F503E0D320E1B6E010E1C6E240E1B267D
:102CC800000E1C22F3501B26F4501C2220501B24FB
:102CD800D96E000E1C20DA6E0800F5CFDFFF9A0EC1
:102CE8002224D96EDA6A020EDA221F503E0D320E05
:102CF800196E010E1A6E300E1926000E1A22F350A4
:102D08001926F4501A2220501924E16E000E1A20B8
:102D1800E26EDFCFE7FF222A202AB4D7222A0B0E41
:102D28002264A0D7212A030E21649AD712001D50CD
:102D3800000AD8B4F8D7010AD8A412008DD7000E1B
:102D48000001636F000E626F010E2B6469D08B9EC9
:102D58008A9A0A0EECEC2BF02B501E6E1F6A206A22
:102D6800216AFF0E226E570EF6EC28F053EC2FF076
:102D78004DEC2FF00001676F6751D8A4F9D70A0E00
:102D8800ECEC2BF027C02CF028C02DF029C02EF039
:102D98002AC02FF0090ED8902C362D362E362F3615
:102DA800E82EF9D72CC01EF02DC01FF02EC020F041
:102DB8002FC021F0FF0E226E590EF6EC28F053ECCE
:102DC8002FF04DEC2FF00001676F6751D8A4F9D7A9
:102DD800010EECEC2BF0FC0E1BEC2FF0000E0001AA
:102DE800666F000E656F25C0D9FF26C0DAFFDF5079
:102DF8001BEC2FF0254A262A0001654B662B66BF7F
:102E0800F2D7020E665DD8A0EED759EC2FF059EC38
:102E18002FF0010EECEC2BF0FD0E1BEC2FF067D021
:102E28008B9E8A9A0A0EECEC2BF027C02CF028C057
:102E38002DF029C02EF02AC02FF0090ED8902C367C
:102E48002D362E362F36E82EF9D72CC01EF02DC081
:102E58001FF02EC020F02FC021F0000E226E580E59
:102E6800F6EC28F053EC2FF04DEC2FF00001676FD3
:102E78006751D8A4F9D78A9A8B9E010EECEC2BF0F7
:102E8800FE0E1BEC2FF0000E0001666F000E656F42
:102E980025C0D9FF26C0DAFFDF501BEC2FF0254AEA
:102EA800262A0001654B662B66BFF2D7020E665DC7
:102EB800D8A0EED759EC2FF059EC2FF00A0EECEC15
:102EC8002BF0000E1E6E000E1F6E000E206E000E00
:102ED800216E000E226E4D0EF6EC28F053EC2FF00A
:102EE8004DEC2FF00001676F6751D8A4F9D70001A6
:102EF800645112001D6E000E216E000E1F6E000E32
:102F08001E6ECAD0010E226E2150D8B404D0020E13
:102F18002118D8A455D0020E2118D8A403D01E50C9
:102F2800D8B41E2A000E206E040E226401D044D0AC
:102F3800A60E2224D96EDA6A020EDA221E503E0D3F
:102F4800320E196E010E1A6E0B0E1926000E1A2279
:102F5800F3501926F4501A2220501924E16E000E5D
:102F68001A20E26EDFCFE7FF21500B0DB90E196E64
:102F7800600E1A6EF3501926F4501A2222501926A0
:102F8800000E1A2219C0F6FF1AC0F7FF1E503E0D98
:102F9800320E1B6E010E1C6EF3501B26F4501C22C1
:102FA80020501B24D96E000E1C20DA6E0800F5CFC5
:102FB800DFFF222A202AB8D7222A040E2264A4D7A7
:102FC800212A030E21649ED71200010E226E215081
:102FD800D8B404D0020E2118D8A459D0020E211852
:102FE800D8A403D01F50D8B41F2A000E206E050E97
:102FF800226401D048D09A0E2224D96EDA6A020ED1
:10300800DA221F503E0D320E196E010E1A6E100E86
:103018001926000E1A22F3501926F4501A222050AD
:103028001924E16E000E1A20E26EDFCFE7FF21506F
:103038000C0D890E196E600E1A6EF3501926F45095
:103048001A2222501926000E1A2219C0F6FF1AC099
:10305800F7FF1F503E0D320E1B6E010E1C6E050E43
:103068001B26000E1C22F3501B26F4501C22205055
:103078001B24D96E000E1C20DA6E0800F5CFDFFF86
:10308800222A202AB4D7222A050E2264A0D7212A70
:10309800030E21649AD712001D50000AD8B4F8D73D
:1030A800010AD8A412008DD737C086F038C087F03F
:1030B80020EE04F08651D9268751DA22DECF82F03D
:1030C800DECF83F0DECF84F0DECF85F07351821936
:1030D8000AE17451831907E17551841904E17651A5
:1030E8008519D8B4B4D020EE1FF08651D92687515F
:1030F800DA22DF50D8B481D0200E8625686F000E02
:103108008721696F82C06AF083C06BF084C06CF05D
:1031180085C06DF0010E6E6F000E47EC2AF00009B5
:10312800D8B402D0000E120020EE1FF08651D92626
:103138008751DA22000EDF6E20EE08F08651D9267C
:103148008751DA22DECF77F0DECF78F0DECF79F064
:10315800DECF7AF020EE14F08651D9268751DA2294
:10316800DECF7BF0DDCF7CF07B5177257D6F7C5106
:1031780078217E6F000E79217F6F000E7A21806F93
:103188007D51825D7E5183597F5184598051855983
:10319800D8B033D020EE1EF08651D9268751DA22D6
:1031A800DF50816F020E816101D027D020EE14F02C
:1031B8008651D9268751DA22DECF77F0DDCF78F035
:1031C8007751822778518323000E8423000E8523AC
:1031D800200E8625686F000E8721696F82C06AF00D
:1031E80083C06BF084C06CF085C06DF0010E6E6F0B
:1031F800000E47EC2AF08107D5D773517411751169
:103208007611D8B424D0200E8625686F000E872149
:10321800696F73C06AF074C06BF075C06CF076C0EB
:103228006DF0010E6E6F000ECAEC27F00009D8A4ED
:1032380079D720EE04F08651D9268751DA2273C057
:10324800DEFF74C0DEFF75C0DEFF76C0DEFF010E54
:1032580012002B6E1F50D96EDA6A000EDF6E20C086
:10326800D9FF21C0DAFFDE6ADE6ADE6ADD6A2C0E6B
:103278001A6E1B6A040E1C6E2B500AEC2CF02DC023
:1032880022F0050E236ED8902232232EFCD72C5024
:10329800246E256AD89024362536D89024362536CB
:1032A800D8902436253622502424266E000E252058
:1032B800276E286A27BE28062850296E20C0D9FF05
:1032C80021C0DAFF26C0DEFF27C0DEFF28C0DEFFF0
:1032D80029C0DEFF2DA6120020C0D9FF21C0DAFFC9
:1032E800DECF22F0DECF23F0DECF24F0DECF25F0D4
:1032F800020ED8902236233624362536E82EF9D702
:103308002DC026F0030E261626502224276E000E06
:103318002320286E000E2420296E000E25202A6EF8
:1033280020C0D9FF21C0DAFF27C0DEFF28C0DEFF9A
:1033380029C0DEFF2AC0DEFF2E5020C0D9FF21C0E1
:10334800DAFFDECF22F0DECF23F0DECF24F0DECFAF
:1033580025F024C025F023C024F022C023F0226ADF
:103368002224266E000E2320276E000E2420286EAD
:10337800000E2520296E20C0D9FF21C0DAFF26C003
:10338800DEFF27C0DEFF28C0DEFF29C0DEFF2F508A
:1033980020C0D9FF21C0DAFFDECF22F0DECF23F034
:1033A800DECF24F0DECF25F024C025F023C024F0A2
:1033B80022C023F0226A2224266E000E2320276EC4
:1033C800000E2420286E000E2520296E20C0D9FF6B
:1033D80021C0DAFF26C0DEFF27C0DEFF28C0DEFFDF
:1033E80029C0DEFF1F50D96EDA6A010EDF6E1200A7
:1033F80037C0A6F038C0A7F020EE16F0A651D9269F
:10340800A751DA22DECFA4F0DDCFA5F0A051A1119B
:10341800D8A41BD020EE18F0A651D926A751DA223D
:10342800DECFAAF0DDCFABF0AB5104E1020EAA5D0E
:10343800D8A006D0A451AA5DA551AB59D8A029D0CF
:10344800000EAB6F010EAA6F24D0A0C088F0A1C0F7
:1034580089F0A7EC12F088C0A8F089C0A9F0A9519A
:1034680009E1020EA85DD8B005D0000EA16F010ECB
:10347800A06F1200A451A85DA551A959D8B005D0D4
:10348800A8C0A0F0A9C0A1F01200A0C0AAF0A1C0D5
:10349800ABF0AAC0ACF0ABC0ADF0AC4BAD2BA451B7
:1034A800AC5DA551AD59D8A00FD0000EAD6F020E7E
:1034B800AC6FAB5109E1020EAA5DD8B005D0000E81
:1034C800A16F000EA06F1200ACC088F0ADC089F0EB
:1034D800A7EC12F088C0A8F089C0A9F0A851A911DA
:1034E800D8B40CD0A805A911D8B4BFD7AA51AC1923
:1034F800D4E1AB51AD19D8B4E2D7CFD7ACC088F07E
:10350800ADC089F0FF0E8B6F8A695FEC10F000097F
:10351800D8B4ABD7A051A111D8B40DD0A0C088F0B1
:10352800A1C089F0ACC08AF0ADC08BF05FEC10F0A0
:103538000009D8B49AD720EE18F0A651D926A75179
:10354800DA22ACC0DEFFADC0DDFF20EE1AF0A651D6
:10355800D926A751DA22DE2803E1DE28D8B409D01B
:1035680020EE1AF0A651D926A751DA22DE06000E5F
:10357800DD5AACC0A0F0ADC0A1F012003150D96E38
:10358800DA6A020ED926DECF9DF0DDCF9EF0010E5D
:1035980000019D25A66F000E9E21A76FA6C09DF075
:1035A8000F0E9D17D8A491D03150D96EDA6A0A0E41
:1035B800D926DE2A000EDE22DE22DE223150D96E26
:1035C800DA6A080ED926DE50DE10D8A413D031509E
:1035D800D96EDA6A040ED92610EE02F0DE50E12622
:1035E800DD50E222E650A65DE650A759D8A06DD07E
:1035F800000E1200A6C09DF0A7C09EF0040E9F6F9B
:10360800D8909E339D339F2FFBD7FF0EA06FFF0EE0
:10361800A16F3150D96EDA6A040ED92610EE1DF06A
:10362800DE50E126DD50E222E750A26FA36BA051E5
:10363800A227A151A3239D51A2179E51A317A251BE
:10364800A311D8A442D03150D96EDA6A080ED9260F
:10365800DECF88F0DDCF89F0A7EC12F088C0A4F0A7
:1036680089C0A5F0A55104E1020EA45DD8A0C0D779
:103678003150D96EDA6A040ED92610EE16F0DE50F3
:10368800E126DD50E222E650A45DE650A559D8B007
:10369800AFD73150D96EDA6A080ED926A4C0DEFF3A
:1036A800A5C0DDFFA4C025F0A5C026F039EC22F0A6
:1036B8003150D96EDA6A0A0ED92625C0DEFF26C037
:1036C800DEFF27C0DEFF28C0DEFF3150D96EDA6A80
:1036D800020ED926A6C0DEFFA7C0DDFF010E12002C
:1036E80022C019F01A6A000E1C6E200E1B6E000E06
:1036F8001E6E0B0E1D6EBFEC2CF0000E296E180E00
:10370800276E000E2A6E080E286E2150D96EDA6ACE
:10371800DFCF23F0010EDE26DFCF24F0000EDD22FE
:1037280023C0F6FF24C0F7FFF86A070EF76403D03A
:103738000800F55005D0F6CFE1FFF7CFE2FFE750DC
:103748002B6E2B50D8B404D02F0E2B18D8A412D01F
:103758002A50D8B470D029502714236E2350256ED0
:10376800266A2250D96EDA6A0B0ED92625C0DFFFE9
:103778002B501200200E2B645ED07F0E2B18D8B46D
:103788005AD02E0E2B18D8A40CD029B054D02A50B9
:10379800D8B451D0090E2A604ED0080E2A6E0B0EEE
:1037A800B3D7220E2B18D8B446D02A0E2B6001D0DE
:1037B80035D02D0E2B6001D03ED03A0E2B6001D0B3
:1037C8002DD0400E2B6001D036D029B027D07C0EEA
:1037D8002B18D8B430D05A0E2B6404D05E0E2B6050
:1037E80001D029D0400E2B640AD05B0E2B6007D085
:1037F800080E2818D8A402D0279601D02798600E62
:103808002B640CD07B0E2B6009D0200E2B5E080E8B
:103818002818D8A402D0298601D0298829902850B0
:103828002A5CD8B008D022502A24D96EDA6A2BC074
:10383800DFFF2A2A6AD7010E12009CEC2DF0FD0E3C
:103848001924216EFF0E1A20226E04EC2EF019C0E6
:1038580023F01AC024F0E2EC2DF019C025F01AC0AC
:1038680026F0D1EC2DF0D00E1924296E070E1A205F
:103878002A6EF3EC2DF01950286E15EC2EF0195025
:10388800276ED89026300001616F2530606F235075
:10389800626F2450636F646B656B050ED890623756
:1038A800633764376537E82EF9D72150666F2250A1
:1038B800676F686B696B0B0ED89066376737683728
:1038C8006937E82EF9D727C06AF06B6B6C6B6D6BA4
:1038D8006BC06DF06AC06CF06B6B6A6B28C06EF0E1
:1038E8006F6B706B716B150ED8906E376F377037C2
:1038F8007137E82EF9D7C40E2924726FFF0E2A20DB
:10390800736F746B756B190ED89072377337743781
:103918007537E82EF9D76E517211766F6F517311A2
:10392800776F70517411786F71517511796F6A5191
:1039380076117A6F6B5177117B6F6C5178117C6FB0
:103948006D5179117D6F66517A117E6F67517B11C8
:103958007F6F68517C11806F69517D11816F625151
:103968007E11826F63517F11836F64518011846F60
:1039780065518111856F605182111D6E61518311EE
:103988001E6E000E84111F6E000E8511206E12002F
:10399800010E696F000E636F000E646F000E656F95
:1039A800000E666F000E6A6F000E6B6F000E6C6F74
:1039B800000E6D6F010E1F6E000E206E000E216E40
:1039C800000E226E000E236E200E42EC23F0010E34
:1039D8001F6E000E206E000E216E000E226E000E6D
:1039E800236E240E42EC23F0010E1F6E000E206E93
:1039F800000E216E000E226E000E236E000E42ECA9
:103A080023F0000E1F6E000E206E000E216E000EB9
:103A1800226E000E236E040E42EC23F0010E1F6E80
:103A2800000E206E000E216E000E226E000E236E18
:103A3800080E42EC23F0000E1F6E000E206E000EE2
:103A4800216E000E226E000E236E100E42EC23F043
:103A5800010E1F6E000E206E000E216E000E226EEB
:103A6800000E236E140E42EC23F0000E1F6E000EA3
:103A7800206E000E216E000E226E000E236E180EB0
:103A880042EC23F0300E0001606F400E616F500E63
:103A9800626F000E676F000E1A6E6051D4EC2EF044
:103AA800000E1A6E00016151D4EC2EF0000E1A6E51
:103AB80000016251D4EC2EF00001602B612B622BC7
:103AC800672B0D0E6765E7D7000E1A6E600ED4ECF3
:103AD8002EF0000E1A6E700ED4EC2EF012008196A5
:103AE8007AEC29F0E10E196E020E1A6E000EB9EC8E
:103AF8002AF04250D8A421D0200E02012519D8B4AA
:103B08001CD0200E2719D8B418D0130E196E020E27
:103B18001A6E15EC2DF01A0E196E020E1A6EEBECD9
:103B28002CF06C0E196E020E1A6E690E1B6E620E68
:103B38001C6E46EC2BF0010E426E4250D8B461D098
:103B4800AE0E0001C06F010EC16F6C0EC26F020E87
:103B5800C36F020EC46F76EC09F00009D8A444D0F4
:103B6800AE0EAE6F010EAF6FB8C1B0F0B9C1B1F013
:103B7800BAC1B2F0BBC1B3F072EC05F0AE0ED96FAA
:103B8800010EDA6F070EDB6F610EDC6F900EDD6FD2
:103B9800610EDE6F290EDF6F020EE06F360EE16FE9
:103BA800020EE26FA00EE36F610EE46F6F0EE56F19
:103BB800610EE66F2E0EE76F610EE86F1A0EE96F61
:103BC800020EEA6F800EEB6F610EEC6F520EED6F16
:103BD800020EEE6FB7EC07F0AE0E0001936F010E08
:103BE800946F00EC2DF00DD0AE0EC06F010EC16FBA
:103BF8006C0EC26F020EC36F080EC46F76EC09F02C
:103C0800EBD78186120020EE04F08A51D9268B5119
:103C1800DA22DECF1FF0DDCF20F08AC0D9FF8BC0BB
:103C2800DAFFDECF21F0DDCF22F0DDEC2AF0000153
:103C3800906F9051D8A477D020EE02F08A51D926FF
:103C48008B51DA22DFAA6FD020EE16F08A51D926DE
:103C58008B51DA22DECF73F0DECF74F0DECF75F051
:103C6800DECF76F058EC18F00009D8A402D0080E80
:103C7800120020EE1AF08A51D9268B51DA22DECFB3
:103C880091F0DDCF92F020EE0BF09151D9269251B0
:103C9800DA22000EDB8A20EE0AF08A51D9268B51EF
:103CA800DA2210EE1CF09151E1269251E222DECF89
:103CB800E6FFDECFE6FFDECFE6FFDECFE6FF20EE53
:103CC8000EF08A51D9268B51DA2210EE1AF0915152
:103CD800E1269251E222DECFE6FFDDCFE5FF21ECBF
:103CE8001CF01DC08CF01EC08DF01FC08EF020C0CF
:103CF8008FF020EE16F09151D9269251DA228CC01D
:103D0800DEFF8DC0DEFF8EC0DEFF8FC0DEFF20EE3F
:103D180002F08A51D9268B51DA22DF0EDF16F7EC32
:103D280029F00001906F905112000A0EECEC2BF074
:103D380027C02CF028C02DF029C02EF02AC02FF063
:103D4800090ED8902C362D362E362F36E82EF9D778
:103D58002CC061F02DC062F02EC063F02FC064F05B
:103D68002704281029102A10D8B41CD00A0EECEC0D
:103D78002BF061C01EF062C01FF063C020F064C069
:103D880021F0000E226E520EF6EC28F053EC2FF0C4
:103D98004DEC2FF00001676F6751D8A4F9D753ECA9
:103DA8002FF01ED00A0EECEC2BF027C01EF028C016
:103DB8001FF029C020F02AC021F0000E226E510EFB
:103DC800F6EC28F053EC2FF04DEC2FF00001676F64
:103DD8006751D8B4E4D7F8D74DEC2FF00001676FDE
:103DE800FE0E00016719D8A4F7D7000E666F000E03
:103DF800656F0CD065512524D96E66512620DA6E80
:103E08004DEC2FF0DF6E0001654B662B66BFF2D7D5
:103E1800020E665DD8A0EED70A0EECEC2BF0000E71
:103E28001E6E000E1F6E000E206E000E216E000E1C
:103E3800226E4C0EF6EC28F053EC2FF04DEC2FF0E0
:103E48000001676F6729D8A4F9D7000E1200060091
:103E5800E1CF0EF0E2CF0FF0D9CF10F0DACF11F0AA
:103E6800F3CF12F0F4CF13F0F6CF14F0F7CF15F02C
:103E7800F8CF16F0F5CF17F09DBA9EAA14D09E9AE7
:103E88000AEC2FF0406E405092EC11F081B403D050
:103E98000C6A0C2A01D00C6A0C460C4681500C188E
:103EA800FB0B0C18816EF2B4F2A443D0F294010E0D
:103EB8003F6E000E186E1850020D000EF324D96ED6
:103EC800010EF420DA6EDE50DE10D8B40BD0185094
:103ED800020D000EF324D96E010EF420DA6EDE0610
:103EE800000EDD5A182A030E1864E5D70101265181
:103EF8002711D8B403D02607D8A027073550361085
:103F0800D8B403D03506D8A036063E04D8A40BD0C2
:103F18002807D8A0290728512911D8A404D0000EB1
:103F2800FA6E000EF96E000E026E450E016E73EC0D
:103F38002FF0F2B2F2A801D0F29217C0F5FF16C026
:103F4800F8FF15C0F7FF14C0F6FF13C0F4FF12C046
:103F5800F3FF11C0DAFF10C0D9FF0FC0E2FF0EC097
:103F6800E1FF4792110027C060F028C061F029C026
:103F780062F02AC063F0060ED890000160376137FE
:103F880062376337E82EF8D760510008196E6C0E57
:103F980061551A6EDC0E62551B6E020E63551C6E5F
:103FA80027C064F028C065F029C066F02AC067F011
:103FB800060ED8906437653766376737E82EF9D725
:103FC80064C01DF065C01EF066C01FF067C020F019
:103FD80010EC21F019C02BF01AC02CF02C04D8A03A
:103FE8003BD027C060F028C061F029C062F02AC029
:103FF80063F0040ED8906037613762376337E82E74
:10400800F9D760510008196E6C0E61551A6EDC0EF6
:1040180062551B6E020E63551C6E27C064F028C0E3
:1040280065F029C066F02AC067F0040ED89064379E
:10403800653766376737E82EF9D764C01DF065C065
:104048001EF066C01FF067C020F010EC21F019C008
:104058002BF01AC02CF0AC842C04D8B012002BC062
:10406800AFFFAC98AB8E948E949CAB88AC8A120050
:104078002C6E000E2D6E000E2E6E5ED02D50D8B414
:1040880004D0020E2D18D8A423D02E503E0D320E87
:10409800F324266E010EF420276E2E503E0D3D0EA1
:1040A800F324286E010EF420296E23EC29F02E50FB
:1040B8003E0D480EF324D96E010EF420DA6E26C0A8
:1040C800DEFF27C0DEFF28C0DEFF29C0DEFF2E2A64
:1040D8002D2A030E2D64D2D712002D50D8B404D047
:1040E800020E2D18D8A423D02E503E0D370EF324DF
:1040F800266E010EF420276E2E503E0D420EF3243C
:10410800286E010EF420296E23EC29F02E503E0D66
:104118004C0EF324D96E010EF420DA6E26C0DEFFB1
:1041280027C0DEFF28C0DEFF29C0DEFF2E2A2D2A89
:10413800030E2D64D2D712002C50000AD8B4F8D739
:10414800010AD8A41200C5D72C6E5ED02D50D8B461
:1041580004D0020E2D18D8A423D02E503E0D500E98
:10416800F324266E010EF420276E2E503E0D5C0EB1
:10417800F324286E010EF420296E23EC29F02E502A
:104188003E0D680EF324D96E010EF420DA6E26C0B7
:10419800DEFF27C0DEFF28C0DEFF29C0DEFF2E2A93
:1041A8002D2A030E2D64D2D712002D50D8B404D076
:1041B800020E2D18D8A423D02E503E0D560EF324EF
:1041C800266E010EF420276E2E503E0D620EF3244B
:1041D800286E010EF420296E23EC29F02E503E0D96
:1041E8006C0EF324D96E010EF420DA6E26C0DEFFC1
:1041F80027C0DEFF28C0DEFF29C0DEFF2E2A2D2AB9
:10420800030E2D64D2D712002C50000AD8B4F8D768
:10421800010AD8A41200C5D7000E226E20AE0AD01B
:10422800201E1F1E1E1E1D6C000E1E221F22202275
:10423800010E226E1CAE0AD01C1E1B1E1A1E196C03
:10424800000E1A221B221C22010E221A000E236EB7
:10425800000E246E000E256E000E266E1D501E10D8
:104268001F102010D8B42AD0010E216E06D0D89085
:104278001D361E361F362036212A20AEF8D7D89094
:1042880023362436253626361D50195C1E501A58FA
:104298001F501B5820501C58D8A009D01D50195E1B
:1042A8001E501A5A1F501B5A20501C5A2380D8904F
:1042B80020321F321E321D32212EE1D72250D8B4AF
:1042C80008D0261E251E241E236C000E242225221B
:1042D800262223C019F024C01AF025C01BF026C0DE
:1042E8001CF012006E6F9FEC2EF0400E396E800E9F
:1042F800D5EC2CF000016F6F6F51D8B403D00001DA
:104308006F5112002FC01CF02E50B8EC13F00009AA
:10431800D8A4F5D700016F51D8A4F1D7CCEC1CF084
:10432800030E1A6E2B0ED4EC2EF03C0E1A6E0C0EE9
:10433800D4EC2EF0000E1A6E0D0ED4EC2EF020D018
:10434800640E1A6E640E1B6E600E46EC2EF0600E44
:104358001A6E600E1B6E700E46EC2EF021D0640EA5
:104368001A6E040E1B6E600E46EC2EF0600E1A6E6E
:10437800000E1B6E700E46EC2EF012D0010E1200CD
:1043880000016E51306E316A3150000AD8A4F6D758
:104398003050000AD8B4E3D7030AD8B4D1D7EED73F
:1043A8003950D5EC2CF000016F6FA9D701D01F2A26
:1043B8001F50D96EDA6A200EDE18D8B4F8D71F500D
:1043C800D96EDA6A090EDE18D8B4F1D7000E256E58
:1043D800000E246E000E236E1F50D96EDA6A2D0E61
:1043E800DE18D8A402D0232A07D01F50D96EDA6A63
:1043F8002B0EDE18D8A41CD01F2A1AD024C019F0FE
:1044080025C01AF0000E1C6E0A0E1B6E65EC2DF00E
:104418001F50D96EDA6ADF50216E21501926000E1E
:104428001A22D00E1924246EFF0E1A20256EE4D706
:104438001F50D96EDA6ADF5056EC2EF0D8B0DED7AE
:104448002350D8B40DD024C021F025C022F0211E5D
:10445800221E214A222A21C01FF022C020F0120069
:1044680024C01FF025C020F0120037C02EF038C03D
:104478002FF0020E255E000E265AFE0E296EFF0E44
:104488002A6E20EE16F02E50D9262F50DA22DECFD3
:104498002BF0DDCF2CF029502B262A502C222B5024
:1044A800255C2C502658D8A009D0000E256E000E89
:1044B800266E000E276E000E286E120020EE10F0F9
:1044C8002E50D9262F50DA22DECF29F0DECF2AF05F
:1044D800DECF2BF0DECF2CF025C019F026C01AF065
:1044E8001B6A1C6A20EE1DF02E50D9262F50DA22A6
:1044F800DF502D6E2D501D6E1E6A1F6A206A4FEC0C
:1045080029F029501924256E2A501A20266E2B507E
:104518001B20276E2C501C20286E120051D0010140
:104528006FBF16D0ADBF07D0AD51AC11AB1110E1C4
:10453800AA05D8B00DD04FBF0BD08DBF07D08D5175
:104548008C118B1105E18A05D8B002D0000E12003B
:104558006C516D116E116F11D8B406D0AA51AB1100
:10456800AC11AD11D8A40CD04C514D114E114F11B6
:10457800D8B4ECD78A518B118C118D11D8B4E6D7E9
:10458800010E120001016FBF07D06F516E116D113E
:1045980010E16C05D8B00DD0ADBF0BD04BBF07D024
:1045A8004B514A11491105E14805D8B002D089AFED
:1045B800CDD76C516D116E116F11D8A4CFD7D4D748
:1045C80002019A512D0AD8B4AAD7DCD751D00101DB
:1045D8006BBF07D06B516A11691112E16805D8B039
:1045E8000FD0A9BF0DD04BBF07D04B514A1149116D
:1045F80007E14805D8B004D089BF02D0000E1200E8
:10460800685169116A116B11D8B406D0A651A71167
:10461800A811A911D8A40CD0485149114A114B111D
:10462800D8B4ECD78651871188118911D8B4E6D748
:10463800010E120001016BBF14D0A9BF07D0A95108
:10464800A811A7110EE1A605D8B00BD04BBF09D011
:1046580089BFD4D789518811871103E18605D8A06D
:10466800CDD7685169116A116B11D8A4CFD7D4D7A7
:104678000201A6512D0AD8B4AAD7DCD7276E20C0CC
:104688002CF021C02DF01F04D8A423D02CC02BF06F
:104698002DC02AF022C02CF023C02DF02C50030B83
:1046A800296E2CC024F01C0E2416D8902436D890DD
:1046B8002436D8902434292629862CC024F02DC0ED
:1046C80025F0050E266ED89025322432262EFBD7EB
:1046D80021D02CC02BF02DC02AF022C02CF023C0F2
:1046E8002DF02CC024F0070E2416050E256ED89048
:1046F8002436252EFCD72450296E2CC024F02DC03A
:1047080025F0D89025322432D89025322432D890FA
:10471800253224322450286E280E1A6E1B6A040E85
:104728001C6E27505CEC2CF01200000E0001F66F96
:10473800F651020D100EF324D96E010EF420DA6E34
:10474800DE50DE10D8B43FD0F651020D000EF3242F
:10475800D96E010EF420DA6EDE50DE10D8A433D004
:10476800010E3E6E270E0101296F100E286F000101
:10477800F651020D100EF324D96E010EF420DA6EF4
:1047880001D80AD00500FA6EDE50FD6EDE50FE6ECE
:10479800F850FF6EFA501200000E3E6E0001F651FE
:1047A800020D080EF324D96E010EF420DA6EF651CC
:1047B800020D000EF324E16E010EF420E26EDECF4E
:1047C800E6FFDDCFE5FFF62B030EF665B1D7120045
:1047D800560EF66E5E0EF76E000EF86E02EED3F011
:1047E80010EE0EF00900F5CFEEFFE550E150FAE1CA
:1047F800F80EF66E5E0EF76E000EF86E0900F5CF35
:10480800FCF10900F5CFFDF10900F5CFFEF1FB0E33
:10481800F66E5E0EF76E000EF86E0900F5CFFDF02D
:1048280002EEE1F012EE20F0EE6AE550E150FCE114
:10483800E250FAE102EE00F0B10EEE6AE806FDE1A0
:1048480001EE00F0FC0EEE6AE806FDE10001FC6BEB
:10485800FB6BFA6BF96BF86BF76B00EE32F0150E29
:10486800EE6AE806FDE147904792000EF86E0001F7
:1048780078EF2DF09594959295909598959A959CAA
:10488800959E839483928390839E839C838A838856
:10489800EA0E1C6EC30EE82EFED71C2EFCD700F0C5
:1048A800838065EC2EF0839065EC2EF04E0E1C6E26
:1048B800EB0EE82EFED71C2EFCD700F0838065ECAB
:1048C8002EF0839065EC2EF04E0E1C6EEB0EE82E4B
:1048D800FED71C2EFCD700F0838065EC2EF0839069
:1048E80065EC2EF0839E839C838A8398838065EC95
:1048F8002EF0839065EC2EF0280E42EC26F0060E82
:1049080042EC26F00E0E42EC26F0010E42EC26F0A8
:10491800120037C0A6F038C0A7F035D0A0C088F084
:10492800A1C089F0A7EC12F088C0A4F089C0A5F056
:10493800A405A511D8A402D0000E1200A0C088F0CA
:10494800A1C089F0000E8B6F000E8A6F5FEC10F02B
:104958000009D8B4F1D720EE1AF0A651D926A751EC
:10496800DA22DE2803E1DE28D8B409D020EE1AF0D6
:10497800A651D926A751DA22DE2A000EDD22A4C0CC
:10498800A0F0A5C0A1F0A15104E1020EA05DD8A03D
:104998000CD020EE16F0A651D926A751DA22DE5007
:1049A800A05DDE50A159D8A0B9D7010E120021C0D0
:1049B80025F022C026F025C019F026C01AF023C021
:1049C8001BF024C01CF0A5EC29F019C025F01AC072
:1049D80026F0202A25502610D8A4EDD72050D96ECD
:1049E800DA6A000EDF6E200621C019F022C01AF024
:1049F80023C01BF024C01CF08AEC2BF01950276E42
:104A080021C019F022C01AF023C01BF024C01CF0EA
:104A1800A5EC29F019C021F01AC022F0090E27646C
:104A280002D0070E2726300E27262050D96EDA6AC4
:104A380027C0DFFF200621502210D8A4D5D7202A6E
:104A480012003BD019C0D9FF1AC0DAFFDF501F6E21
:104A58001BC0F6FF1CC0F7FFF86A070EF76403D007
:104A68000800F55005D0F6CFE1FFF7CFE2FFE75099
:104A78001F18D8B41ED019C0D9FF1AC0DAFFDF50EA
:104A88001F6E1BC0F6FF1CC0F7FFF86A070EF7641D
:104A980003D00800F55005D0F6CFE1FFF7CFE2FFCD
:104AA800E750206E20501F5C196E1A6AD8A01A06AB
:104AB8001200194A1A2A1B4A1C2A1D06D8A01E06CB
:104AC8001D28C0E11E28D8A4BDD7000E1A6E000EFE
:104AD800196E1200000E2A6E000E296E000E286E46
:104AE800000E276E000E1E6E000E1F6E000E206E4A
:104AF800000E216E950E226E400EF6EC28F053EC57
:104B08002FF04DEC2FF02B6E294A2A2A2B04D8B40B
:104B180008D02ABEF6D72A5004E10A0E295CD8A08C
:104B2800F0D7000E2A6E000E296E2B04D8B416D0CA
:104B3800000E1C6E010E9AEC28F00E0E1C6E620E12
:104B48001D6ECEEC29F0000E1C6E020E9AEC28F0B9
:104B5800B00E1C6E610E1D6ECEEC29F02B04D8B47D
:104B68001200C0D7F60EF66E600EF76E20EE60F0FB
:104B7800100E0900F5CFDEFFE806FBE2E50EF66E43
:104B8800600EF76E20EE71F0100E0900F5CFDEFF13
:104B9800E806FBE2000E1C6E010E9AEC28F0600E8F
:104BA8001C6E1D6ACEEC29F0000E1C6E020E9AECEB
:104BB80028F0710E1C6E1D6ACEEC29F03D0E206E99
:104BC800E10E1F6E400EE82EFED71F2EFCD7202EBA
:104BD800FAD7010E42EC26F0000E1C6E010E9AEC7C
:104BE80028F0F80E1C6E610E1D6ECEEC29F0120036
:104BF80024EC2BF0040AD8A402D0040E120046506C
:104C0800D8B402D00101F98F3A50D8B402D00101CA
:104C1800F98D63C0D9FF64C0DAFFF6C1DEFFF7C1C2
:104C2800DEFFF8C1DEFFF9C1DEFF65C0D9FF66C04F
:104C3800DAFF3BC0DFFF000E00016C6F000E6B6FE8
:104C48000ED0E10E6B25D96E010E6C21DA6E67511C
:104C58006B25E16EE26ADFCFE7FF6B4B6C2B3B50B5
:104C6800686F696B68516B5D6C51800A6A6F695136
:104C7800800A6A59D8A0E5D7000E12001B6E8394EB
:104C8800839283901BA802D0838801D083981BAAA3
:104C980002D0838A01D0839A1BAC02D0838C01D0C6
:104CA800839C1BAE02D0838E01D0839E838065ECEB
:104CB8002EF0839065EC2EF01BA002D0838801D0E3
:104CC80083981BA202D0838A01D0839A1BA402D0A6
:104CD800838C01D0839C1BA602D0838E01D0839E37
:104CE800838065EC2EF0839065EC2EF01B04D8B41D
:104CF80008D0020E1B18D8B404D0030E1B18D8A471
:104D0800120065EC2EF01200000E0001D86F000EA4
:104D1800D76F27D0D3C0F6FFD4C0F7FFF86A070EC5
:104D2800F76403D00800F55005D0F6CFE1FFF7CFC0
:104D3800E2FFE750316E31500001CC6FCD6BD5C02A
:104D4800CEF0D6C0CFF0CCEC2BF0CC2906E1CD29A3
:104D5800D8A403D0D369D4691200D34BD42BD74B32
:104D6800D82BD3C0F6FFD4C0F7FFF86A070EF76454
:104D780003D00800F55005D0F6CFE1FFF7CFE2FFEA
:104D8800E7500009D8A4C6D7D7C0D3F0D8C0D4F00C
:104D98001200C7EC2EF0BAEC2EF0000E7EEC17F0E5
:104DA800000E3CEC20F0010E7EEC17F0010E3CECFE
:104DB80020F0000EC5EC15F0000EA8EC20F0010E56
:104DC800C5EC15F0010EA8EC20F092EC22F02F6E45
:104DD80032502F18FE0B2F18326EEAEC22F02F6E8D
:104DE80033502F18FE0B2F18336E32B002D033A079
:104DF80009D03490640E1D6E620E1E6E040EC2EC55
:104E080014F012003490470E1D6E620E1E6E040ED2
:104E1800C2EC14F0120037C079F038C07AF0200ED6
:104E28007925686F000E7A21696F73C06AF074C0C3
:104E38006BF075C06CF076C06DF0010E6E6F000EF1
:104E4800CAEC27F00009D8B402D0020E120022EEF4
:104E58001EF07951D9267A51DA22550EDE18F5E17D
:104E6800AA0EDE18D8A4F1D7560E7925196E000EB1
:104E78007A211A6E760E1B6E620E1C6E000E1E6E66
:104E8800030E1D6E25EC25F019501A10D8A402D077
:104E9800000E1200010E1200000E216E000E226E8E
:104EA800000E236E000E246E1D501E101F102010C1
:104EB800D8B42AD0010E256E06D0D8901D361E36DD
:104EC8001F362036252A20AEF8D7D890213622362C
:104ED800233624361D50195C1E501A581F501B5873
:104EE80020501C58D8A009D01D50195E1E501A5ABF
:104EF8001F501B5A20501C5A2180D89020321F3234
:104F08001E321D32252EE1D721C019F022C01AF019
:104F180023C01BF024C01CF012001B6E83948382F4
:104F280083901BA802D0838801D083981BAA02D043
:104F3800838A01D0839A1BAC02D0838C01D0839CD6
:104F48001BAE02D0838E01D0839E838065EC2EF049
:104F5800839065EC2EF01BA002D0838801D0839843
:104F68001BA202D0838A01D0839A1BA402D0838C0F
:104F780001D0839C1BA602D0838E01D0839E8380A0
:104F880065EC2EF0839065EC2EF012006F6F29D03F
:104F980068C025F069C026F06AC027F06BC028F009
:104FA8006CC029F06DC02AF06EC02BF099EC1EF091
:104FB800306E3050706F716B70C072F072511200A9
:104FC80068C025F069C026F06AC027F06BC028F0D9
:104FD8006CC029F06DC02AF06EC02BF099EC1EF061
:104FE800E7D700016F51000AD8B4D2D7010AD8B464
:104FF800E7D7030AD8B4E2D7040E12001B6E8394D5
:1050080083928390838E1BA802D0838801D08398D3
:105018001BAA02D0838A01D0839A1BAC02D0838C4E
:1050280001D0839C838065EC2EF0839065EC2EF094
:105038001BA002D0838801D083981BA202D0838A48
:1050480001D0839A1BA402D0838C01D0839C1BA619
:1050580002D0838E01D0839E838065EC2EF08390EE
:1050680065EC2EF012001D501E101F102010D8B431
:1050780024D0010E216E06D0D8901D361E361F365C
:105088002036212A20AEF8D71D50195C1E501A5818
:105098001F501B5820501C58D8A008D01D50195E0E
:1050A8001E501A5A1F501B5A20501C5AD890203292
:1050B8001F321E321D32212EE7D719C019F01AC02F
:1050C8001AF01BC01BF01CC01CF01200540E01018A
:1050D800106F5A0E116FDC0E126F540E136F1E0EE6
:1050E800146F190E156F010E096FF40E086F030E79
:1050F8000B6FE80E0A6F070E0D6FD00E0C6F030EC4
:105108000F6FE80E0E6F010E016FF40E006F030EA5
:10511800036FE80E026F130E056F880E046F130EEF
:10512800076F880E066F000E3E6E12001D6E110E80
:105138001C6012001BD01CC01EF01E5002EC28F090
:1051480022D01C50400F1E6E1E5002EC28F01BD0BF
:105158001C50140F1E6E1E5002EC28F014D01C5068
:10516800540F1E6E1E5002EC28F00DD01D50010A7F
:10517800D8B4E1D7030AD8B4E4D7010AD8B4E8D739
:10518800070AD8B4ECD71C2A12000001606F60C06F
:1051980062F0460E1F6EF60E206E010E216E0001A3
:1051A80062512DEC19F00001620574EC2EF000013B
:1051B800616F6251040F74EC2EF03B6E000161A721
:1051C80002D0010E01D0000E3A6E0F0E3B16E10E12
:1051D8001A6E010E1B6E3BC01CF06251050F0AECE3
:1051E8002CF01200236E41EC2CF0FF0AD8A404D056
:1051F80008D00A0EECEC2BF041EC2CF0FF0AD8A4F6
:10520800F8D7FF0E1BEC2FF023501BEC2FF021C01A
:1052180024F024501BEC2FF020C024F024501BEC69
:105228002FF01FC024F024501BEC2FF01EC024F0D8
:1052380024501BEC2FF022501BEC2FF01200600EB4
:105248001B6E1C6A26C01DF027C01EF0A8EC2CF0AF
:105258006C0E1B6E1C6A28C01DF029C01EF0A8EC3D
:105268002CF0600E1F6EDAEC21F01FC02AF020C06F
:105278002BF06C0E1F6EDAEC21F01F502A5E2050C6
:105288002B5A2AC026F02BC027F0000E27BEFF0E8F
:10529800286E296E1200000E216E000E226E000E7E
:1052A800236E000E246E19A008D01D5021261E5012
:1052B80022221F50232220502422D8901D361E3629
:1052C8001F362036D8901C321B321A321932195028
:1052D8001A101B101C10D8A4E6D721C019F022C040
:1052E8001AF023C01BF024C01CF01200D60E1D6E4D
:1052F800010E1E6E000EC2EC14F0E90E1D6E010EBA
:105308001E6E010EC2EC14F08D0E1D6E020E1E6E86
:10531800020EC2EC14F0800E1D6E020E1E6E030EFD
:10532800C2EC14F0D60E1D6E010E1E6E050EC2ECF8
:1053380014F0E90E1D6E010E1E6E060EC2EC14F07E
:105348001200000E1F6E000E1E6E1B501C10D8B4EB
:105358001CD0010E1D6E04D0D8901B361C361D2A99
:105368001CAEFAD7D8901E361F361B50195C1C503D
:105378001A58D8A005D01B50195E1C501A5A1E8006
:10538800D8901C321B321D2EEDD71EC019F01FC03D
:105398001AF0120014D01CC0F6FF1DC0F7FFF86AFF
:1053A800070EF76403D00800F55005D0F6CFE1FFEB
:1053B800F7CFE2FFE75091EC27F01C4A1D2A1CC0EA
:1053C800F6FF1DC0F7FFF86A070EF76403D0080060
:1053D800F55005D0F6CFE1FFF7CFE2FFE75000091F
:1053E800D8B41200D8D737C088F038C089F020EE7A
:1053F8001FF08851D9268951DA22010EDF6E000E7E
:10540800736F000E746F000E756F000E766F58EC98
:1054180018F00009D8A402D0080E1200000E196E68
:10542800000E1A6E000E1B6E000E36EC2EF00009F0
:10543800D8A4F2D7000E12006D0E726F100E7265AE
:105448000CD06DC0D9FF6EC0DAFF100EDE6E000EF4
:10545800DE6E000EDE6E000EDD6E6F0E726F010ED8
:10546800726504D0010E6F6F000E706F6DC063F02F
:105478006EC064F06FC065F070C066F071C067F010
:10548800FCEC25F012006F6F18D068C025F069C0D9
:1054980026F06AC027F06BC028F06CC029F06DC0F8
:1054A8002AF06EC02BF0A3EC16F0306E3050706FFF
:1054B800716B70C072F07251120000016F51000AD6
:1054C800D8B4E3D7010AD8B4E0D7030AD8B4F3D7DD
:1054D800040E1200010126512711D8A41200419090
:1054E8003EEC2DF06EEC2FF019C0F2F01AC0F3F07C
:1054F800F2C0D9FFF3C0DAFF310EDE18D8A407D006
:10550800CDEC26F073EC1DF091EC2EF002D0CDEC32
:1055180026F0550E0101276FF00E266F418012000C
:1055280004D0014A022A034A042A03C0F6FF04C031
:10553800F7FF0800F5CF05F001C0D9FF02C0DAFF78
:10554800DF50066E0550065C076E0750D8A407D0DA
:1055580001C0D9FF02C0DAFFDF50D8A4E2D7075054
:10556800016E026A01BE020612001B6E1B50D8B4FF
:1055780002D0050E120037503810D8B408D020EEEB
:105588001CF03750D9263850DA22000EDF6E19C0C9
:1055980037F01AC038F019501A10D8B408D020EED5
:1055A8001CF01950D9261A50DA22000EDF6E000EB0
:1055B80012001F502010D8B414D020EE1CF01F5039
:1055C800D9262050DA22DF50D8B40BD01FC0D9FF1B
:1055D80020C0DAFF2150DE1804E12250DE18D8B4CA
:1055E80002D00C0E1200000E90EC2CF0236E23A0BB
:1055F80002D0010E1200000E1200000E096E0950B2
:105608000124D96E000E0220DA6E09500324076EB9
:10561800000E0420086E05500724E16E065008208D
:10562800E26EDFCFE7FF092A0904076E075001245D
:10563800D96E000E0220DA6EDF50D8B41200DFD720
:10564800ECEC2EF0316E31A00CD0610EC9EC28F0D4
:10565800010E1A6E000E1B6E2C0E46EC2EF0000E7C
:105668000ED031A20BD0710EC9EC28F0020E1A6EC2
:10567800000E1B6E2C0E46EC2EF0F1D7040E306E89
:105688003050120019C01DF01AC01EF002D01D4A79
:105698001E2A1DC0D9FF1EC0DAFFDF50D8B405D0BE
:1056A800F6D71D4A1E2A1B4A1C2A1BC0F6FF1CC01F
:1056B800F7FF1DC0D9FF1EC0DAFF0800F5CFDFFFD6
:1056C800DF50D8B41200EDD71BC022F01CC023F065
:1056D80019C020F01AC021F010D022C0D9FF23C071
:1056E800DAFFDF501F6E224A232A20C0D9FF21C0CB
:1056F800DAFF1FC0DFFF204A212A1D06D8A01E0698
:105708001D28EBE11E28D8B41200E7D71B501C1047
:10571800D8B418D0010E1D6E04D0D8901B361C3694
:105728001D2A1CAEFAD71B50195C1C501A58D8A059
:1057380004D01B50195E1C501A5AD8901C321B32C8
:105748001D2EF1D719C019F01AC01AF0120019C08D
:105758001BF01AC01CF002D01B4A1C2A1BC0F6FF03
:105768001CC0F7FFF86A070EF76403D00800F5506D
:1057780005D0F6CFE1FFF7CFE2FFE7500009D8A444
:10578800EBD719501B5C196E1A501C581A6E120070
:10579800CE51CF11D8A405D0CCC0CCF0CDC0CDF01F
:1057A8001200CCC0D0F0CEC0AEF0CFC0AFF0D00E5B
:1057B800B06F000EB26F010EB16FD10EB36F09EC6E
:1057C80000F0D151D211D8A4E7D7CC69CD69120025
:1057D8001B6E100E196E940EE82EFED7192EFCD7EC
:1057E80000D0000E1D6E000E1C6E06D08A8A59EC81
:1057F8002FF08A9A1C4A1D2A1B50196E1A6A1950D2
:105808001C5C1A501D58D8B01200F0D71D6E8A982B
:10581800030E23EC2FF01D5023EC2FF0000E1E6E0C
:105828000BD01E501A24D96E000E1B20DA6EFF0E04
:1058380023EC2FF0DF6E1E2A1C501E5CD8A0F1D777
:105848008A88120022EEDAF010EE60F0060EDBCF46
:10585800E3FFE806FCE2600E286E2EC029F02FC098
:105868002AF0000E2C6E0A0E2B6E77EC2CF0600ED0
:105878001C6E1D6ACEEC29F01200FF0E196E7F0E09
:105888001A6E000E1B6E000E1C6E59EC2FF01D6E6A
:105898001D28D8B40BD01906000E1A5A1B5A1C5AC8
:1058A80019501A101B101C10D8A4EFD71D50120045
:1058B8001D6E8A98020E23EC2FF01D5023EC2FF05A
:1058C800000E1E6E0AD01E501A24D96E000E1B2020
:1058D800DA6EDF5023EC2FF01E2A1C501E5CD8A075
:1058E800F2D78A8812002AAE0AD02850D96EDA6A0E
:1058F8002D0EDF6E282A296C2A1ED8B02A2A28C025
:1059080020F029C021F02AC022F02BC023F02CC09F
:1059180024F0DBEC24F012001D6E0AD01D5013ECAD
:105928002FF01E6E1E5012001D5013EC2FF0FAD7E8
:105938001D50000AD8B4F2D7010AD8B4F5D7030A23
:10594800D8B4F0D7010E12001BC01FF01CC020F005
:1059580004D01F4A202A1D4A1E2A1DC0D9FF1EC076
:10596800DAFF1FC0E1FF20C0E2FFDFCFE7FFE7500B
:10597800D8B41200EED719C01FF01AC020F008D012
:105988001FC0D9FF20C0DAFF1BC0DFFF1F4A202A33
:105998001D06D8A01E061D28F3E11E28D8B4120043
:1059A800EFD71E6EE00E1A6E1EC01BF00F0E46ECEF
:1059B8002EF00F0E74EC2EF01D6EE00E1D161E500C
:1059C8001D18D8A402D0000E1200010E1200040EF9
:1059D8001B6E19C0D9FF1AC0DAFF6C0E1B24E16ECA
:1059E800E26A020EE222DFCFE7FF194A1A2A1B2ACF
:1059F800070E1B64EED7120093C08AF094C08BF098
:105A080007EC1EF0316E3150D8A4120020EE04F0DD
:105A18009351D9269451DA22000EDE6E000EDD6E07
:105A28001200000E1B6E19C0D9FF1AC0DAFF6C0EE7
:105A38001B24E16EE26A020EE222DFCFE7FF194A79
:105A48001A2A1B2A030E1B64EED7120041A012006B
:105A580039EC2FF0000E0001F96F300E6D6F000E5B
:105A68006E6F040E6F6F000E706F730E716F20EC07
:105A78002AF01200000E2D6E47EC2FF08186C0EC44
:105A88002DF003D08AEC2DF02D6E2D50D8B4FAD716
:105A9800819639EC2FF026EC2EF012002D6E05D0F1
:105AA8000FEC0BF02E6E2E5012002D50000AD8B4B9
:105AB800F7D7010AD8B4F4D7030AD8B4F4D7010E3B
:105AC800120019501B02F3CF1DF0F4CF1EF019502D
:105AD8001C02F3501E261A501B02F3501E261DC02E
