:0400000007EF00F016
:10000800478235ED1CF04FEF22F0B0C0C1F0B3517C
:10001800D96EDA6A000EDE6E000EDD6E20EE04F098
:10002800AE51D926AF51DA22DECF1FF0DDCF20F056
:10003800AEC0D9FFAFC0DAFFDECF21F0DDCF22F0AE
:10004800B8EC26F00001C06FC051D8A4120020EE11
:1000580002F0AE51D926AF51DA22DFBE120020EEEF
:1000680002F0AE51D926AF51DA22DFA2120020EEFB
:100078000AF0AE51D926AF51DA2210EE0AF0AE518D
:10008800E126AF51E222E6CFB8F0E6CFB9F0E6CFED
:10009800BAF0E6CFBBF0B151B825BC6FB251B92167
:1000A800BD6F000EBA21BE6F000EBB21BF6FDE50C0
:1000B800BC5DDE50BD59DE50BE59DE50BF59D8A0D8
:1000C80012002AD220EE06F0AE51D926AF51DA221C
:1000D800FF0EDE14B46F010EDE14B56F000EDE14D1
:1000E800B66F000EDE14B76FB451B511B611B71163
:1000F800D8A45CD120EE04F0AE51D926AF51DA2253
:1001080010EE1DF0DE50E126DD50E22220EE03F075
:10011800AE51D926AF51DA22E650DE5CD8A06BD0BA
:1001280020EE06F0AE51D926AF51DA22DE50DE10AD
:10013800DE10DE10D8A423D020EE0EF0AE51D92662
:10014800AF51DA22DECFC8F0DDCFC9F0C851C911EE
:10015800D8A425D0000EA16F000EA06F7DEC16F07C
:10016800A0C0C8F0A1C0C9F020EE0EF0AE51D9264B
:10017800AF51DA22C8C0DEFFC9C0DDFF10D020EEC3
:1001880010F0AE51D926AF51DA22DECFA0F0DDCF84
:10019800A1F07DEC16F0A0C0C8F0A1C0C9F0C8510C
:1001A800C911D8B4BDD1C805C911D8B4ECD120EE55
:1001B80004F0AE51D926AF51DA2210EE16F0DE5017
:1001C800E126DD50E222E650C85DE650C959D8B0B4
:1001D800DAD120EE10F0AE51D926AF51DA22C8C0DC
:1001E800DEFFC9C0DDFF20EE03F0AE51D926AF51C6
:1001F800DA22000EDF6E20EE10F0AE51D926AF5194
:10020800DA22DECF25F0DDCF26F002EC1FF0000168
:1002180020EE03F0AE51D926AF51DA22DF50B46F89
:10022800B4512524C26F000E2620C36F000E27206C
:10023800C46F000E2820C56FB1C0B4F0B2C0B5F0CD
:10024800090EB66FD890B533B433B62FFBD7B4C008
:10025800C6F0B5C0C7F0C651C711D8B469D020EEF2
:1002680003F0AE51D926AF51DA22DF50B46FB45142
:10027800C625B56F000EC721B66F20EE04F0AE514B
:10028800D926AF51DA2210EE1DF0DE50E126DD50FE
:10029800E222E750B76FB86BB551B75DB651B859A0
:1002A800D8B01CD020EE04F0AE51D926AF51DA22D6
:1002B80010EE1DF0DE50E126DD50E222E750B46F6B
:1002C80020EE03F0AE51D926AF51DA22DF50B56FD8
:1002D800B551B45DC66FC76BD8A0C707C1C068F079
:1002E800696BC2C06AF0C3C06BF0C4C06CF0C5C013
:1002F8006DF0C6C06EF0000E48EC26F00009D8A4D8
:1003080042D120EE03F0AE51D926AF51DA22C651C0
:10031800DF26C6C0B4F0C7C0B5F0090ED890B43710
:10032800B537E82EFBD7B4C0CAF0B5C0CBF0DAD0E9
:1003380020EE0AF0AE51D926AF51DA2210EE06F0BF
:10034800AE51E126AF51E222DE50E65CDE50E658BF
:10035800DE50E658DE50E658D8A021D0000E736F64
:10036800000E746F000E756F000E766FA8EC15F016
:100378000009D8B408D120EE04F0AE51D926AF5107
:10038800DA2210EE04F0DE50E126DD50E222C2C08F
:10039800E6FFC3C0E6FFC4C0E6FFC5C0E6FF20EE27
:1003A80003F0AE51D926AF51DA22DF2A20EE10F041
:1003B800AE51D926AF51DA22DECF25F0DDCF26F0B7
:1003C80002EC1FF0000120EE03F0AE51D926AF5128
:1003D800DA22DF50B46FB4512524B56F000E262001
:1003E800B66F000E2720B76F000E2820B86FFF0EDB
:1003F800B525C26FFF0EB621C36FFF0EB721C46FBC
:10040800FF0EB821C56FC2C073F0C3C074F0C4C07A
:1004180075F0C5C076F0A8EC15F00009D8B4B3D0D3
:10042800FF0EB46F010EB56F20EE06F0AE51D9265F
:10043800AF51DA22DECFB6F0DDCFB7F0B451B61740
:10044800B551B717B6510008CA6FB751D8A0E82AF6
:100458000208CB6FCA51B15DCB51B259D8B004D0A4
:10046800B1C0CAF0B2C0CBF0FF0EB46F010EB56FC9
:1004780020EE06F0AE51D926AF51DA22DECFB6F023
:10048800DDCFB7F0B451B617B551B71720EE04F069
:10049800AE51D926AF51DA22DECFB8F0DDCFB9F0B0
:1004A800B651B827B751B923200EB825196E000EDA
:1004B800B9211A6EC1C01BF01C6ACAC01DF0CBC09E
:1004C8001EF043EC27F0000120EE04F0AE51D926CF
:1004D800AF51DA2210EE1FF0DE50E126DD50E222A5
:1004E800010EE76ECA51C12720EE06F0AE51D9269B
:1004F800AF51DA22CA51DE26CB51DE22000EDE22AF
:10050800DE22B351D96EDA6ACA51DE26CB51DD221A
:10051800CA51B15FCB51B25BB151B211D8A4D2D597
:1005280020EE06F0AE51D926AF51DA2210EE0AF0CD
:10053800AE51E126AF51E222DE50E65CDE50E658CD
:10054800DE50E658DE50E658D8B014D020EE06F05B
:10055800AE51D926AF51DA2210EE0AF0AE51E1269B
:10056800AF51E222DECFE6FFDECFE6FFDECFE6FFC9
:10057800DECFE6FF20EE02F0AE51D926AF51DA22E7
:10058800000EDB8A120020EE02F0AE51D926AF51E0
:10059800DA22000EDB8E12007B51D96EDA6ADECFCA
:1005A8009FF0DDCFA0F003D000019F4BA02B9FC090
:1005B800F6FFA0C0F7FFF86A070EF76403D008003B
:1005C800F55005D0F6CFE1FFF7CFE2FFE750200A5C
:1005D800D8B4EAD79FC0F6FFA0C0F7FFF86A070EA5
:1005E800F76403D00800F55005D0F6CFE1FFF7CF48
:1005F800E2FFE7502F0AD8A403D000019F4BA02B9D
:1006080000017B51D96EDA6A9FC0DEFFA0C0DDFF12
:1006180038C0A7F039C0A8F0A751A811D8A402D0B3
:100628000A0E120020EE1CF0A751D926A851DA2292
:10063800DF50D8B40FD0000E59EC28F00001A26F9B
:10064800A2B108D07C51D8A4A2A502D0090E1200EC
:10065800000E1200A7C019F0A8C01AF0000E1C6EF8
:10066800000E1B6E020E1E6E200E1D6E71EC28F021
:10067800000EB0EC28F00001A26FA2A102D0010E7A
:1006880012007C51D8B402D0A2B5E0D7000E976F03
:10069800000E986F000E996F000E9A6F97C073F056
:1006A80098C074F099C075F09AC076F0D4EC22F036
:1006B8000001A16FA105D8A423D021EEE2F0A75133
:1006C800D926A851DA22DF50D8B41AD021EEE6F0A4
:1006D800A751D926A851DA22DECF97F0DECF98F0BD
:1006E800DECF99F0DECF9AF097C073F098C074F01F
:1006F80099C075F09AC076F0D4EC22F00001A16F91
:10070800A151D8A40CD020EE2BF0A751D926A8517E
:10071800DA22DE5004E1020EDE18D8B402D00B0E45
:10072800120020EE36F0A751D926A851DA22DECFE2
:100738007DF0DDCF7EF07DC0A3F07EC0A4F0A56B78
:10074800A66BA351A411A511A611D8A40ED020EE12
:1007580044F0A751D926A851DA22DECFA3F0DECF84
:10076800A4F0DECFA5F0DECFA6F020EE14F0A7515E
:10077800D926A851DA22A3C0DEFFA4C0DDFF20EEEF
:1007880030F0A751D926A851DA2210EE1EF0A75151
:10079800E126A851E222DFCFE7FFA3C019F0A4C0E9
:1007A8001AF0A5C01BF0A6C01CF020EE1EF0A75141
:1007B800D926A851DA22DF507D6F7D511D6E1E6A41
:1007C8001F6A206ACBEC25F019C0A3F01AC0A4F068
:1007D8001BC0A5F01CC0A6F0000120EE2EF0A7510A
:1007E800D926A851DA22DECF7DF0DDCF7EF07D510B
:1007F80097257F6F7E519821806F000E9921816F18
:10080800000E9A21826F20EE08F0A751D926A85130
:10081800DA227FC0DEFF80C0DEFF81C0DEFF82C03B
:10082800DEFF20EE2DF0A751D926A851DA2210EECE
:100838001DF0A751E126A851E222DFCFE7FF20EE05
:1008480031F0A751D926A851DA2210EE02F0A751AB
:10085800E126A851E222DECFE6FFDDCFE5FF20EE5C
:1008680033F0A751D926A851DA22DECF7DF0DDCFAB
:100878007EF07DC09BF07EC09CF09D6B9E6B9B5173
:100888009C119D119E11D8A40ED020EE40F0A751C6
:10089800D926A851DA22DECF9BF0DECF9CF0DECF3E
:1008A8009DF0DECF9EF020EE02F0A751D926A85188
:1008B800DA22DECF7DF0DDCF7EF0040E7F6FD89098
:1008C8007E337D337F2FFBD77D51806F7E51816FC3
:1008D800826B836B20EE2EF0A751D926A851DA221D
:1008E800DECF84F0DDCF85F08451866F8551876F28
:1008F800886B896B861F871F881F891F862B000EB0
:10090800872388238923A351865D8A6FA451875939
:100918008B6FA55188598C6FA65189598D6F80515D
:100928008A5D8E6F81518B598F6F82518C59906F70
:1009380083518D59916F9B518E25196E9C518F2132
:100948001A6E9D5190211B6E9E5191211C6E20EEB6
:100958001DF0A751D926A851DA22DF50926F925183
:100968001D6E1E6A1F6A206A15EC23F0020E1924F8
:100978000001936F000E1A20946F000E1B20956FD4
:10098800000E1C20966F20EE16F0A751D926A8510C
:10099800DA2293C0DEFF94C0DDFF010EA16F9651ED
:1009A800951106E1F70E935D0F0E9459D8A002D069
:1009B800020EA16F9651951107E1F70E935DFF0E98
:1009C8009459D8B0ACD601D0AAD620EE08F0A751D9
:1009D800D926A851DA22DECF7DF0DECF7EF0DECF39
:1009E8007FF0DECF80F0A3517D25816FA4517E2159
:1009F800826FA5517F21836FA6518021846F20EEDD
:100A08000CF0A751D926A851DA2281C0DEFF82C096
:100A1800DEFF83C0DEFF84C0DEFF20EE08F0A751B2
:100A2800D926A851DA22DECF7DF0DECF7EF0DECFE8
:100A38007FF0DECF80F020EE02F0A751D926A85132
:100A4800DA22DECF81F0DDCF82F0040E836FD890FA
:100A580082338133832FFBD781517D25846F825167
:100A68007E21856F000E7F21866F000E8021876FA3
:100A7800A3518425886FA4518521896FA5518621AA
:100A88008A6FA65187218B6F20EE10F0A751D926C7
:100A9800A851DA2288C0DEFF89C0DEFF8AC0DEFFE7
:100AA8008BC0DEFF20EE1AF0A751D926A851DA2212
:100AB800FF0EDE6EFF0EDD6E20EE1CF0A751D9266C
:100AC800A851DA22A1C0DFFF0101474B482BA7C07C
:100AD800D9FFA8C0DAFF47C1DEFF48C1DDFF000E1D
:100AE800120020EE04F0AE51D926AF51DA22DECF43
:100AF8001FF0DDCF20F0AEC0D9FFAFC0DAFFDECFE8
:100B080021F0DDCF22F0B8EC26F00001C46FC4510B
:100B1800D8A4120020EE02F0AE51D926AF51DA2245
:100B2800DFBE120020EE0AF0AE51D926AF51DA220C
:100B3800B051DE5CB151DE58B251DE58B351DE58C7
:100B4800D8B016D020EE02F0AE51D926AF51DA2235
:100B5800DFB20ED020EE0AF0AE51D926AF51DA221C
:100B6800DECFB0F0DECFB1F0DECFB2F0DECFB3F043
:100B780020EE06F0AE51D926AF51DA22DECFC5F00D
:100B8800DECFC6F0DECFC7F0DECFC8F020EE06F02D
:100B9800AE51D926AF51DA22DE6ADE6ADE6ADD6A34
:100BA80020EE03F0AE51D926AF51DA22FF0EDF6EE8
:100BB800B051B111B211B311D8B49CD120EE04F0E8
:100BC800AE51D926AF51DA2210EE1DF0DE50E126E3
:100BD800DD50E222E750B46FB4C0B5F0B66BB76B26
:100BE800B86B090ED890B537B637B737B837E82E8F
:100BF800F9D7B5C0C9F0B6C0CAF0B7C0CBF0B8C015
:100C0800CCF0C551C611C711C811D8B493D0FF0E86
:100C1800B025196EFF0EB1211A6EFF0EB2211B6EA0
:100C2800FF0EB3211C6EC9C01DF0CAC01EF0CBC098
:100C38001FF0CCC020F015EC23F019C0B4F01AC096
:100C4800B5F01BC0B6F01CC0B7F0FF0E0001C525FB
:100C5800196EFF0EC6211A6EFF0EC7211B6EFF0EFE
:100C6800C8211C6EC9C01DF0CAC01EF0CBC01FF041
:100C7800CCC020F015EC23F019500001B45D1A50D7
:100C8800B5591B50B6591C50B759D8A053D0FF0EB0
:100C9800C925B46FFF0ECA21B56FFF0ECB21B66F01
:100CA800FF0ECC21B76FB41DB86FB51DB96FB61D57
:100CB800BA6FB71DBB6FFF0EC525BC6FFF0EC621EF
:100CC800BD6FFF0EC721BE6FFF0EC821BF6FB851A1
:100CD800BC15C06FB951BD15C16FBA51BE15C26FF1
:100CE800BB51BF15C36F20EE06F0AE51D926AF51E8
:100CF800DA22C0C0DEFFC1C0DEFFC2C0DEFFC3C053
:100D0800DEFF20EE06F0AE51D926AF51DA22DE50D2
:100D1800B05FDE50B15BDE50B25BDD50B35B20EEFE
:100D280010F0AE51D926AF51DA22DECFCDF0DDCFAB
:100D3800CEF030D020EE0EF0AE51D926AF51DA22E7
:100D4800DECFCDF0DDCFCEF0CD51CE11D8A418D066
:100D5800000EA16F000EA06F7DEC16F0A0C0CDF0C4
:100D6800A1C0CEF0CD05CE11D8B4F7D020EE0EF04C
:100D7800AE51D926AF51DA22CDC0DEFFCEC0DDFF9D
:100D880020EE10F0AE51D926AF51DA22CDC0DEFFE9
:100D9800CEC0DDFFCD51CE11D8A462D0ABD020EEAD
:100DA80002F0AE51D926AF51DA22DFA217D0CDC05A
:100DB800A0F0CEC0A1F07DEC16F0A0C0CDF0A1C08F
:100DC800CEF0CD51CE11D8A413D0C9C0B0F0CAC04E
:100DD800B1F0CBC0B2F0CCC0B3F04CD0CDC088F0ED
:100DE800CEC089F0BCEC13F088C0CDF089C0CEF03D
:100DF800CE5104E1020ECD5DD8A0AFD020EE04F0B4
:100E0800AE51D926AF51DA2210EE16F0DE50E126A7
:100E1800DD50E222E650CD5DE650CE59D8B09DD0E7
:100E280020EE10F0AE51D926AF51DA22CDC0DEFF48
:100E3800CEC0DDFF20EE06F0AE51D926AF51DA2242
:100E4800C951DE26CA51DE22CB51DE22CC51DE2228
:100E5800C951B05FCA51B15BCB51B25BCC51B35BE6
:100E6800B051C95DB151CA59B251CB59B351CC59DE
:100E7800D8A095D720EE06F0AE51D926AF51DA2288
:100E8800B051DE26B151DE22B251DE22B351DE224C
:100E980020EE03F0AE51D926AF51DA22B0C0B4F03B
:100EA800B1C0B5F0B2C0B6F0B3C0B7F00A0E05D005
:100EB800D890B733B633B533B433E82EF9D7B45135
:100EC800DF6EFF0EB015B46F010EB115B56F000ED1
:100ED800B215B66F000EB315B76FB451B511B61190
:100EE800B711D8B407D020EE03F0AE51D926AF51D0
:100EF800DA22DF2A20EE06F0AE51D926AF51DA22E7
:100F080010EE0AF0AE51E126AF51E222DE50E65C67
:100F1800DE50E658DE50E658DE50E658D8B01200EB
:100F280020EE06F0AE51D926AF51DA2210EE0AF0C3
:100F3800AE51E126AF51E222DECFE6FFDECFE6FF7B
:100F4800DECFE6FFDECFE6FF20EE02F0AE51D92677
:100F5800AF51DA22000EDB8A120020EE02F0AE5109
:100F6800D926AF51DA22000EDB8E1200DD0E020107
:100F78005A6F000E4F6F000E4E6F4EC25BF24FC29B
:100F88005CF25B2903E15C29D8B41200DBC0F6FFF0
:100F9800DCC0F7FF0800F5CF5FF20001DB4BDC2B6C
:100FA80002015F51D8B41200250E5F19D8B419D0C8
:100FB8005FC2CCF00001CD6BD9C0CEF0DAC0CFF063
:100FC800A7EC27F0CCC05BF2CDC05CF202015B2934
:100FD80003E15C29D8B484D1000E5C6F010E5B6F0D
:100FE8007FD1000E546F54C252F2536BDBC0F6FF30
:100FF800DCC0F7FF0800F5CF5FF20001DB4BDC2B0C
:10100800300E02015F19D8A423D0010E546FDBC043
:10101800F6FFDCC0F7FF0800F5CF5FF20001DB4BFD
:10102800DC2B16D052C219F053C21AF0000E1C6EF7
:101038000A0E1B6EC3EC28F002015F511926000E40
:101048001A22D00E1924526FFF0E1A20536FDFD7C1
:101058002F0E02015F6503D0390E5F65E3D76C0E72
:101068005F19D8A40BD05483DBC0F6FFDCC0F7FFB0
:101078000800F5CF5FF20001DB4BDC2B730E020199
:101088005F19D8A415D05A51D96EDA6ADECFD3F0D9
:10109800DDCFD4F0D9C0D5F0DAC0D6F00AEC22F012
:1010A800D3C05BF2D4C05CF2020E02015A2718D1F9
:1010B800630E5F19D8A41DD05A51D96EDA6ADF5071
:1010C8000001EF6FEF51CC6FCD6BD9C0CEF0DAC015
:1010D800CFF0A7EC27F0CCC05BF2CDC05CF2020EDB
:1010E80002015A275B2904E15C29D8A475D7F8D0F6
:1010F80073D7000E556F640E5F19D8A402D00A0E7C
:10110800556F750E5F19D8A402D00A0E556F580E88
:101118005F19D8A402D0100E556F5551D8B41200DB
:1011280054A30DD05A51D96EDA6ADECF56F2DECF0B
:1011380057F2DECF58F2DECF59F2040E1FD0640EFC
:101148005F19D8B40ED05A51D96EDA6ADECFEFF0F3
:10115800DDCFF0F0EFC056F2F0C057F2586B596B84
:101168000CD05A51D96EDA6ADECF56F2DDCF57F27B
:10117800000E57BFFF0E586F596F020E5A27640EA4
:101188005F19D8A40ED0800E595DD8A00AD0566D2C
:10119800571FD8B0572B581FD8B0582B000E595787
:1011A8005485000E5E6F0F0E5D6F000E4D6F56C2B8
:1011B80019F057C21AF058C21BF059C21CF0555109
:1011C8001D6E1E6A1F6A206ADAEC24F01950300F6F
:1011D80002015F6F390E5F6502D0070E5F275D075A
:1011E800D8A05E073E0E5D25D96E020E5E21DA6E2E
:1011F8005FC2DFFF56C219F057C21AF058C21BF07F
:1012080059C21CF055511D6E1E6A1F6A206A15ECE2
:1012180023F019C056F21AC057F21BC058F21CC06E
:1012280059F202015D515E11D8B406D056515711DA
:1012380058115911D8A4BBD75D515E11D8A454A533
:101248000BD05D07D8A05E073E0E5D25D96E020E55
:101258005E21DA6E2D0EDF6E52510F08526F535118
:10126800D8A0E82A0008536F16D0020154B104D060
:10127800000E516F200E03D0000E516F300E506FCC
:101288005D07D8A05E073E0E5D25D96E020E5E2171
:10129800DA6E50C2DFFF5D515E11D8B40DD05D51DA
:1012A800525D5351800A0001EF6F02015E51800ABE
:1012B8000001EF59D8A0D9D73E0E02015D250001E3
:1012C800D36F020E02015E210001D46FD9C0D5F0A0
:1012D800DAC0D6F00AEC22F0D3C05BF2D4C05CF2DC
:1012E80002015B514E275C514F234BD620EE04F090
:1012F800C051D926C151DA22000EDE6E000EDD6E15
:101308001F0EC417C20E7B6FC4511E0B7C6FD0EC2E
:1013180002F00001DB6FDB51D8B402D0DB511200C0
:10132800DE0EA86FC90EA96FC2C0AAF0C3C0ABF089
:10133800DC0EAC6F93EC0CF0DB6FC4C0C5F01C0E78
:10134800C517D8B4DDD0DB51D8B434D0020EDB19C0
:10135800D8A4E4D7DE0EAE6FDC0EAF6FD2EC0DF082
:10136800DB6FDB51D8A4DAD7DCC019F0DDC01AF086
:10137800000E1C6E000E1B6E000E1E6E200E1D6EE3
:1013880071EC28F0DCC019F0DDC01AF0C90E1B6E34
:101398001C6A000E1E6E0B0E1D6E43EC27F000013A
:1013A80020EE0CF0DC51D926DD51DA22D4C0DFFF63
:1013B800C4877AD0C4A502D0070E1200DC51DD1113
:1013C800D8B40CD020EE0BF0DC51D926DD51DA224E
:1013D800DF50C56F110EC517D8B402D0060E120023
:1013E800C4A762D020EE1AF0DC51D926DD51DA22EA
:1013F800DECFD5F0DDCFD6F020EE1AF0DC51D926BD
:10140800DD51DA22000EDE6E000EDD6E20EE1CF0DD
:10141800DC51D926DD51DA22DE6ADE6ADE6ADD6A4F
:1014280020EE1FF0E251D926E351DA22010EDF6ED9
:1014380020EE04F0E251D926E351DA22DECFD7F0CC
:10144800DECFD8F0DECFD9F0DECFDAF0D5C0A0F00D
:10145800D6C0A1F054EC20F00009D8B40DD0D7C004
:1014680073F0D8C074F0D9C075F0DAC076F0A8EC83
:1014780015F00009D8A402D0080E1200FF0EC56F9F
:10148800FF0EC66FD5C0C7F0D6C0C8F0C551C72774
:10149800C651C82320EE18F0E251D926E351DA22CA
:1014A800C7C0DEFFC8C0DDFFC4A745D020EE0BF0E3
:1014B800DC51D926DD51DA22000EDF6EA2EC18F0DD
:1014C8001DC0D7F01EC0D8F01FC0D9F020C0DAF078
:1014D80020EE0EF0DC51D926DD51DA22D7C0DEFF2E
:1014E800D8C0DEFFD9C0DEFFDAC0DEFF20EE1FF075
:1014F800E251D926E351DA22010EDF6EC48B1BD0EC
:10150800DB51D8A40BD7DC51DD11D8B408D020EEBC
:101518000BF0DC51D926DD51DA22DFA802D0020E09
:101528001200C4A308D020EE0BF0DC51D926DD51FF
:10153800DA22DFB053D720EE04F0E251D926E35186
:10154800DA2210EE16F0C051E126C151E222DECFB8
:10155800E6FFDECFE6FFDECFE6FFDECFE6FF20EEDA
:101568001AF0C051D926C151DA22DCC0DEFFDDC035
:10157800DDFF20EE02F0C051D926C151DA22C4C0E5
:10158800DFFF20EE1AF0DC51D926DD51DA2210EE09
:101598000EF0C051E126C151E222DECFE6FFDDCFD9
:1015A800E5FF20EE1CF0DC51D926DD51DA2210EEE1
:1015B8000AF0C051E126C151E222DECFE6FFDECFBC
:1015C800E6FFDECFE6FFDECFE6FF20EE06F0C051F5
:1015D800D926C151DA22DE6ADE6ADE6ADD6A20EEC9
:1015E80003F0C051D926C151DA22FF0EDF6E20EE7A
:1015F80004F0C051D926C151DA22E2C0DEFFE3C0AF
:10160800DDFFE2C0D9FFE3C0DAFFC0C0E1FFC1C01F
:10161800E2FFDECFE6FFDDCFE5FF000E1200000E91
:101628000001646F000E636F000E6A6F000E696F31
:10163800000E6B6F100E2C6E940EE82EFED72C2E1B
:10164800FCD700D0640E04EC28F036EC21F0AA0E8A
:101658001E6E010E1F6E000E206E000E216E870E8C
:10166800226E480E9EEC25F039EC2AF033EC2AF075
:101678000001676F6705D8A404D06751666F656B72
:1016880006D0AA0E6719D8A402D067516513634B18
:10169800642BAA0E651903E16605D8B408D064BFA7
:1016A800E5D7E80E635D030E6459D8A0DFD7AA0E0C
:1016B800651902E16605D8A49ED0000E6A6F000E77
:1016C800696F0A0E04EC28F0000E1E6E000E1F6EE5
:1016D800000E206E000E216E000E226E770E9EEC1C
:1016E80025F039EC2AF033EC2AF000016B6F694BD6
:1016F8006A2B6B05D8B408D06ABFF5D76A5104E1E4
:101708000A0E695DD8A0EFD7000E6A6F000E696FE8
:101718000A0E04EC28F0000E1E6E000E1F6E000E5E
:10172800206E400E216E000E226E690E9EEC25F092
:1017380039EC2AF033EC2AF000016B6F694B6A2B05
:101748006B51D8A4BED70A0E04EC28F0000E1E6E0A
:10175800000E1F6E000E206E000E216EFF0E226E10
:101768007A0E9EEC25F039EC2AF033EC2AF00001D1
:101778006B6F6B516B25800B686F694B6A2B6851D7
:10178800D8B40BD06805D8B408D06ABFEED76A5170
:1017980004E10A0E695DD8A0E8D76851D8B403D02F
:1017A8006805D8A48AD7100E2C6E940EE82EFED7A2
:1017B8002C2EFCD700D0000E0001626F6851D8A40F
:1017C800ACD00A0E04EC28F0000E1E6E020E1F6E3E
:1017D800000E206E000E216EFF0E226E500E9EEC43
:1017E80025F039EC2AF033EC2AF000016B6F6B51CD
:1017F800D8B493D0F8D7000E6A6F000E696F010E47
:1018080004EC28F0000E1E6E000E1F6E000E206EF7
:10181800000E216EFF0E226E690E9EEC25F039EC4B
:101828002AF033EC2AF000016B6F694B6A2B6B517D
:10183800D8A40BD0000E1C6E010E6FEC25F0160E0E
:101848001C6E620E1D6EF6EC25F0100E2C6E940EBA
:10185800E82EFED72C2EFCD700D000016B51D8B44F
:1018680008D06ABFDED7100E695D270E6A59D8A066
:10187800D8D70A0E69196A11D8A436D0000E6A6F33
:10188800000E696F0A0E04EC28F0000E1E6E000EA2
:101898001F6E000E206E000E216EFF0E226E410E8E
:1018A8009EEC25F039EC2AF033EC2AF000016B6F3E
:1018B800694B6A2B6B51D8A40BD0000E1C6E010E1D
:1018C8006FEC25F0EC0E1C6E610E1D6EF6EC25F02B
:1018D80000016B51D8B408D06ABFE6D7100E695D15
:1018E800270E6A59D8A0E0D70A0E04EC28F0000E9B
:1018F8001E6E020E1F6E000E206E000E216EFF0E71
:10190800226E500E9EEC25F039EC2AF033EC2AF0CA
:1019180000016B6F6B51D8A4F9D76251120038C01F
:10192800B5F039C0B6F0A851D96EDA6A040ED926D6
:10193800B5C0DEFFB6C0DDFF20EE0CF0B551D926EC
:10194800B651DA22DECFB7F0DDCFB8F0A851D96EA4
:10195800DA6A060ED926000EDE6E000EDD6EA8517C
:10196800E16EE26A080EE126DECFE6FFDDCFE5FF95
:10197800B751AD6FB851AE6FAF6BB06BA851D96EA0
:10198800DA6A0A0ED926ADC0DEFFAEC0DEFFAFC0F0
:10199800DEFFB0C0DEFFA851D96EDA6A020ED92682
:1019A800000EDE6E000EDD6EAAC0F6FFABC0F7FFBC
:1019B800F86A070EF76403D00800F55005D0F6CF93
:1019C800E1FFF7CFE2FFE7500009D8A40AD00001F1
:1019D800AC51D96EDA6A000EDE6E000EDD6E000EB6
:1019E8001200AA0E216EA9C022F0F5EC17F0000132
:1019F800B96FB905D8A402D0040E12000001A8518D
:101A0800D96EDA6A0A0ED926DECF73F0DECF74F00B
:101A1800DECF75F0DECF76F0A8EC15F00009D8A47B
:101A280002D0080E1200A851D96EDA6A020ED92621
:101A3800DECFADF0DDCFAEF00F0EAD17000EAE1756
:101A4800050ED890AD37AE37E82EFBD7B5C0AFF04E
:101A5800B6C0B0F0AD51AF27AE51B023200EAF25C0
:101A6800BA6F000EB021BB6FBAC0D9FFBBC0DAFF96
:101A7800DF50D8A40DD0B951D8B404D0000EB26F3D
:101A8800030E03D0000EB26F020EB16FB1511200F7
:101A9800BAC0D9FFBBC0DAFFE50EDE18D8B419D03A
:101AA80020EE0BF0BA51D926BB51DA22DFB611D09D
:101AB800BAC019F0BBC01AF0A9C01BF01C6A000E0E
:101AC8001E6E0B0E1D6EEDEC20F019501A10D8B4D6
:101AD80015D0A8C031F043EC17F00009D8A48ED770
:101AE8000001B951D8B404D0000EB46F030E03D06E
:101AF800000EB46F020EB36FB35112000001B9515A
:101B0800D8A408D0AC51D96EDA6ABAC0DEFFBBC01F
:101B1800DDFF65D720EE0BF0BA51D926BB51DA228A
:101B2800DFB802D0030E120020EE1AF0BA51D926FF
:101B3800BB51DA22DECFB7F0DDCFB8F0A851D96EAD
:101B4800DA6A060ED926B7C0DEFFB8C0DDFFA85195
:101B5800E16EE26A080EE126DECFE6FFDDCFE5FFA3
:101B6800B7C025F0B8C026F002EC1FF00001A8515C
:101B7800D96EDA6A0A0ED92625C0DEFF26C0DEFF36
:101B880027C0DEFF28C0DEFFA851D96EDA6A020E30
:101B9800D926020EDE6E000EDD6E23D7AE51D96E49
:101BA800DA6A040ED926DECFBEF0DDCFBFF0AE5123
:101BB800D96EDA6A060ED926DECFBCF0DDCFBDF0CD
:101BC800BC51BD11D8B41ED0AE51D96EDA6A080E18
:101BD800D926BCC0DEFFBDC0DDFFBCC025F0BDC03E
:101BE80026F002EC1FF00001AE51D96EDA6A0A0E37
:101BF800D92625C0DEFF26C0DEFF27C0DEFF28C0AD
:101C0800DEFF13D020EE0CF0BE51D926BF51DA22E8
:101C1800AE51E16EE26A0A0EE126DECFE6FFDECFC4
:101C2800E6FFDECFE6FFDECFE6FFAE51D96EDA6A19
:101C3800020ED926000EDE6E000EDD6E0001AE51DA
:101C4800D96EDA6A0A0ED926DECF73F0DECF74F0C9
:101C5800DECF75F0DECF76F0A8EC15F00009D8A439
:101C680002D0080E1200AE51D96EDA6A020ED926D9
:101C7800DECFB0F0DDCFB1F00F0EB017000EB11708
:101C8800050ED890B037B137E82EFBD7BEC0B2F0FA
:101C9800BFC0B3F0B051B227B151B323200EB22563
:101CA800B96F000EB321BA6FB9C0D9FFBAC0DAFF55
:101CB800DF50BB6FBB51D8B404D0E50EBB19D8A414
:101CC80009D0AF51D96EDA6AB9C0DEFFBAC0DDFFFC
:101CD800000E1200AEC031F043EC17F00009D8A492
:101CE800ADD70001BC51BD11D8B413D0AE51D96ED7
:101CF800DA6A080ED926DECFA0F0DDCFA1F07DECA0
:101D080016F0A0C0BCF0A1C0BDF0BC51BD11D8A454
:101D180002D0060E1200BC05BD11D8B4A2D7000E21
:101D2800736F000E746F000E756F000E766FA8EC5F
:101D380015F00009D8B495D7BCC025F0BDC026F071
:101D480002EC1FF025C0B4F026C0B5F027C0B6F0ED
:101D580028C0B7F0000120EE04F0BE51D926BF51CB
:101D6800DA22B4C0DEFFB5C0DEFFB6C0DEFFB7C002
:101D7800DEFF200EBE25196E000EBF211A6E000E62
:101D88001C6E000E1B6E020E1E6E000E1D6E71EC98
:101D980028F0000120EE1DF0BE51D926BF51DA22ED
:101DA800DF50B86F1DD0200EBE25686F000EBF2112
:101DB800696FB4C06AF0B5C06BF0B6C06CF0B7C05C
:101DC8006DF0010E6E6F000E48EC26F00009D8A4E5
:101DD80048D7010EB427000EB523B623B723B8079A
:101DE800B851D8A4E0D720EE1FF0BE51D926BF5174
:101DF800DA22010EDF6E200EBE25B06F000EBF2165
:101E0800B16FAF51D96EDA6AB0C0DEFFB1C0DDFF85
:101E18005FD738C09EF039C09FF020EE08F09E5181
:101E2800D9269F51DA22DECF96F0DECF97F0DECFAB
:101E380098F0DECF99F008D188C019F089C01AF05F
:101E4800000E1C6E030E1B6EC3EC28F0D8901A30DF
:101E580000018C6F19309A6F8CC09BF09AC08CF07F
:101E68009BC08DF0090E8E6FD8908D338C338E2FDA
:101E7800FBD78C519625736F8D519721746F000E87
:101E88009821756F000E9921766FA8EC15F000095E
:101E9800D8A402D0000E1200FF0E8C6F010E8D6FB9
:101EA8009AC08EF09BC08FF08C518E178D518F1772
:101EB8009EC090F09FC091F08E5190278F51912332
:101EC800200E90259C6F000E91219D6F88B104D043
:101ED8008AC092F0936B1AD08A518C6F8D6B8C3BB1
:101EE8008D3BF00E8D178C510F0B8D13F00E8C1748
:101EF8009CC0D9FF9DC0DAFFDF500F0B8E6F8F6B30
:101F08008C518E11926F8D518F11936F9CC0D9FF98
:101F18009DC0DAFF92C0DFFF9A4B9B2B20EE1FF08B
:101F28009E51D9269F51DA22010EDF6E9AC08CF09D
:101F38009BC08DF0090E8E6FD8908D338C338E2F09
:101F4800FBD78C519625736F8D519721746F000EB6
:101F58009821756F000E9921766FA8EC15F000098D
:101F6800D8B498D7FF0E8C6F010E8D6F9AC08EF083
:101F78009BC08FF08C518E178D518F179EC090F09B
:101F88009FC091F08E5190278F519123200E90255C
:101F98009C6F000E91219D6F88B10ED08BC08CF084
:101FA8000F0E8C179CC0D9FF9DC0DAFFDF50F00BD5
:101FB8008C118D6F8D510CD08AC08CF08BC08DF038
:101FC800040E8E6FD8908D338C338E2FFBD78C51A7
:101FD800946F956B9CC0D9FF9DC0DAFF94C0DFFF5A
:101FE80041D089519625736F000E9721746F000EAA
:101FF8009821756F000E9921766FA8EC15F00009ED
:10200800D8B448D7FF0E8C6F010E8D6F88C08EF044
:1020180089C08FF0D8908E378F378C518E178D519D
:102028008F179EC090F09FC091F08E5190278F51CE
:102038009123200E9025D96E000E9121DA6E8AC068
:10204800DEFF8BC0DDFF0ED020EE1CF09E51D9269E
:102058009F51DA22DF50010AD8B4EED6030AD8B469
:10206800C0D718D720EE1FF09E51D9269F51DA22EB
:10207800010EDF6E010E120084A003D03B04D8A429
:1020880091D036503710D8A411D0080E1C6E020E0D
:102098006FEC25F050EC2AF019C01CF01AC01DF0A6
:1020A800F6EC25F0270E376E100E366E3A04D8B4CB
:1020B80077D0010E3B6E010EC4EC21F0000E1C6EB1
:1020C800010E6FEC25F03A0E1C6E620E1D6EF6ECDA
:1020D80025F001013DB10CD0080E1C6E010E6FEC0D
:1020E80025F0410E1C6E620E1D6EF6EC25F040D0F8
:1020F800080E1C6E010E6FEC25F05F0E1C6E620E52
:102108001D6EF6EC25F00D0E1C6E010E6FEC25F021
:1021180001013BA104D00001736B732B02D00001B5
:10212800736B7351686F696B6A6B6B6BC7EC27F0E5
:102138000E0E1C6E010E6FEC25F07C0E1C6E620EEE
:102148001D6EF6EC25F00F0E1C6E010E6FEC25F0DF
:1021580001013CA104D00001736B732B02D0000174
:10216800736B7351686F696B6A6B6B6BC7EC27F0A5
:10217800000E1C6E020E6FEC25F05A0E1C6E620EDD
:102188001D6EF6EC25F0080E1C6E020E6FEC25F0A5
:1021980050EC2AF019C01CF01AC01DF0F6EC25F01E
:1021A800010E3A6E84A204D0020E3B18D8A46DD05A
:1021B80036503710D8A426D09DEC29F01FC0F8F06F
:1021C80020C0F9F08EEC29F01FC041F120C042F187
:1021D800040E1C6E010E6FEC25F0F8C01CF0F9C05F
:1021E8001DF0F6EC25F0040E1C6E020E6FEC25F0C7
:1021F80041C11CF042C11DF0F6EC25F0070E376E08
:10220800D00E366E020E3A18D8B43DD0020E3B6E90
:10221800010EC4EC21F09DEC29F01FC0F8F020C09D
:10222800F9F08EEC29F01FC041F120C042F1000EF8
:102238001C6E010E6FEC25F06D0E1C6E620E1D6E8D
:10224800F6EC25F0040E1C6E010E6FEC25F0F8C0BC
:102258001CF0F9C01DF0F6EC25F0000E1C6E020E05
:102268006FEC25F0690E1C6E620E1D6EF6EC25F003
:10227800040E1C6E020E6FEC25F041C11CF042C129
:102288001DF0F6EC25F0020E3A6E3B50D8A4120071
:10229800040E3A18D8B419D0010EC4EC21F0000E7F
:1022A8001C6E010E6FEC25F0200E1C6E620E1D6E6A
:1022B800F6EC25F0000E1C6E020E6FEC25F0320EC7
:1022C8001C6E620E1D6EF6EC25F0040E3A6E1200BE
:1022D8000A6E0AC00BF01BD14404D8A405D0000E26
:1022E80001014C6F010E4B6F020E4418D8A405D0A3
:1022F800000E01014A6F010E496F01014B514C114B
:10230800D8B4120049514A11D8B41200000E4A6FCD
:10231800000E496F49C14BF14AC14CF11200000E41
:10232800456E45C043F01200AD0E4524D96EDA6AF9
:10233800010EDA22000EDF6E4350D8A430D0AD0E65
:10234800016E010E026ED10E036E010E046E000EB8
:10235800066E000E056EDCEC26F0D10E016E010E45
:10236800026E540E036E620E046E6FEC26F001507E
:102378000210D8A402D0010E11D0D10E016E010EA8
:10238800026E4E0E036E620E046E6FEC26F0015064
:102398000210D8A402D0020E01D0030E446E4304EA
:1023A800D8A413D04404D8A410D0AD0E016E010EE9
:1023B800026EB90E036E010E046E000E066E000E5C
:1023C800056EDCEC26F001013581030E4318D8A414
:1023D80013D04404D8A410D0AD0E016E010E026EC5
:1023E800A00E036E010E046E000E066E010E056E41
:1023F800DCEC26F001013681040E4318D8A40CD079
:102408004404D8A409D04E0E0101AD19D8A402D0B5
:10241800300E01D02D0EA06F050E4318D8A413D08E
:102428004404D8A410D0AD0E016E010E026E930EB6
:10243800036E010E046E000E066E010E056EDCECD6
:1024480026F001013781060E4318D8A40CD04404A5
:10245800D8A409D0450E0101AD19D8A402D0300E78
:1024680001D02D0E936F070E4318D8A413D044043F
:10247800D8A410D0AD0E016E010E026ECB0E036E05
:10248800010E046E000E066E000E056EDCEC26F0E2
:1024980001013A81090E4318D8A413D04404D8A4E2
:1024A80010D0AD0E016E010E026EC40E036E010E49
:1024B800046E000E066E000E056EDCEC26F00101BF
:1024C8003881060E4318D8A414D0020E4418D8A494
:1024D80010D0AD0E016E010E026ED70E036E010E06
:1024E800046E000E066E000E056EDCEC26F001018F
:1024F8003981432A000E456E1200AD0E4524D96E6F
:10250800DA6A010EDA220BC0DFFF452A12000B50EF
:102518000D0AD8B4E1D6290AD8B401D7080AD8B424
:1025280003D7EBD71F6E1DC019F01EC01AF086EC3A
:1025380027F01950206E02D1000E216E1DC0F6FF43
:102548001EC0F7FFF86A070E2124D96EDA6A020E58
:10255800DA22070EF76403D00800F55005D0F6CF4D
:10256800E1FFF7CFE2FFE750DF6E1D4A1E2A212A5E
:10257800050E2164E3D71200000E216E1DC0F6FF80
:102588001EC0F7FFF86A000E2124D96EDA6A020E1F
:10259800DA22070EF76403D00800F55005D0F6CF0D
:1025A800E1FFF7CFE2FFE750DF6E1D4A1E2A212A1E
:1025B800050E2164E3D71200000E216E1DC0F6FF40
:1025C8001EC0F7FFF86A160E2124D96EDA6A020EC9
:1025D800DA22070EF76403D00800F55005D0F6CFCD
:1025E800E1FFF7CFE2FFE750DF6E1D4A1E2A212ADE
:1025F8000C0E2164E3D71200000E216E1DC0F6FFF9
:102608001EC0F7FFF86A230E2124D96EDA6A020E7B
:10261800DA22070EF76403D00800F55005D0F6CF8C
:10262800E1FFF7CFE2FFE750DF6E1D4A1E2A212A9D
:102638000C0E2164E3D71200000E216E1AD01DC0C3
:10264800F6FF1EC0F7FFF86A340E2124D96EDA6A45
:10265800020EDA22070EF76403D00800F55005D001
:10266800F6CFE1FFF7CFE2FFE750DF6E1D4A1E2AE3
:10267800212A2050215CD8B01200E1D7000E216E2B
:102688001DC0F6FF1EC0F7FFF86A140E2124D96E8C
:10269800DA6A020EDA22070EF76403D00800F55052
:1026A80005D0F6CFE1FFF7CFE2FFE750DF6E1D4A16
:1026B8001E2A212A030E2164E3D71200000E216E80
:1026C8001DC0F6FF1EC0F7FFF86A120E2124D96E4E
:1026D800DA6A020EDA22070EF76403D00800F55012
:1026E80005D0F6CFE1FFF7CFE2FFE750DF6E1D4AD6
:1026F8001E2A212A050E2164E3D71200000E216E3E
:102708001DC0F6FF1EC0F7FFF86A300E2124D96EEF
:10271800DA6A020EDA22070EF76403D00800F550D1
:1027280005D0F6CFE1FFF7CFE2FFE750DF6E1D4A95
:102738001E2A212A050E2164E3D712001F50000A21
:10274800D8B4FAD6010AD8B417D7030AD8B434D7FC
:10275800010AD8B451D7070AD8B46ED7010AD8B439
:102768008DD7030AD8B4AAD7010AD8A41200C6D7AD
:1027780038C09BF039C09CF0895104E1020E885D95
:10278800D8A002D120EE16F09B51D9269C51DA220E
:10279800DE50885DDE508959D8B0F6D020EE08F0BA
:1027A8009B51D9269C51DA22DECF95F0DECF96F0E8
:1027B800DECF97F0DECF98F0DAD088C019F089C064
:1027C8001AF0000E1C6E030E1B6EC3EC28F0D89096
:1027D8001A3000018A6F1930996F8AC09AF099C02F
:1027E8008AF09AC08BF0090E8C6FD8908B338A339D
:1027F8008C2FFBD78A519525736F8B519621746F57
:10280800000E9721756F000E9821766FA8EC15F0D1
:102818000009D8B4B9D0FF0E8A6F010E8B6F99C02A
:102828008CF09AC08DF08A518C178B518D179BC0F4
:102838008EF09CC08FF08C518E278D518F23200EE7
:102848008E25D96E000E8F21DA6EDF50906F905171
:10285800936F946B994B9A2B99C08AF09AC08BF01E
:10286800090E8C6FD8908B338A338C2FFBD78A5103
:102878009525736F8B519621746F000E9721756F94
:10288800000E9821766FA8EC15F00009D8B47CD01A
:10289800FF0E8A6F010E8B6F99C08CF09AC08DF075
:1028A8008A518C178B518D179BC08EF09CC08FF06E
:1028B8008C518E278D518F23200E8E25D96E000EB8
:1028C8008F21DA6EDF50906F9051926F916B91511A
:1028D80093139251941388B107D0FF0E9315886F04
:1028E8000F0E9415896F120093C08AF094C08BF074
:1028F800040E8C6FD8908B338A338C2FFBD78AC009
:1029080088F08BC089F0120089519525736F000EED
:102918009621746F000E9721756F000E9821766FBF
:10292800A8EC15F00009D8B42FD0FF0E8A6F010E5D
:102938008B6F88C08CF089C08DF0D8908C378D371C
:102948008A518C178B518D179BC08EF09CC08FF0CD
:102958008C518E278D518F23200E8E25D96E000E17
:102968008F21DA6EDECF88F0DDCF89F0120020EEFD
:102978001CF09B51D9269C51DA22DF50010AD8B4A9
:102988001CD7030AD8B4C0D7000E896F010E886F10
:102998001200000E0001636F000E626F010E2B64BF
:1029A80069D08B9E8A9A0A0E04EC28F02B501E6E72
:1029B8001F6A206A216AFF0E226E570E9EEC25F0D0
:1029C80039EC2AF033EC2AF00001676F6751D8A47C
:1029D800F9D70A0E04EC28F027C02CF028C02DF0F7
:1029E80029C02EF02AC02FF0090ED8902C362D368B
:1029F8002E362F36E82EF9D72CC01EF02DC01FF02A
:102A08002EC020F02FC021F0FF0E226E590E9EEC32
:102A180025F039EC2AF033EC2AF00001676F675192
:102A2800D8A4F9D7010E04EC28F0FC0E08EC2AF023
:102A3800000E0001666F000E656F25C0D9FF26C025
:102A4800DAFFDF5008EC2AF0254A262A0001654BF8
:102A5800662B66BFF2D7020E665DD8A0EED73FECB4
:102A68002AF03FEC2AF0010E04EC28F0FD0E08ECE9
:102A78002AF067D08B9E8A9A0A0E04EC28F027C0A9
:102A88002CF028C02DF029C02EF02AC02FF0090EF6
:102A9800D8902C362D362E362F36E82EF9D72CC066
:102AA8001EF02DC01FF02EC020F02FC021F0000E08
:102AB800226E580E9EEC25F039EC2AF033EC2AF001
:102AC8000001676F6751D8A4F9D78A9A8B9E010EC7
:102AD80004EC28F0FE0E08EC2AF0000E0001666FE8
:102AE800000E656F25C0D9FF26C0DAFFDF5008EC5D
:102AF8002AF0254A262A0001654B662B66BFF2D7C5
:102B0800020E665DD8A0EED73FEC2AF03FEC2AF023
:102B18000A0E04EC28F0000E1E6E000E1F6E000E4A
:102B2800206E000E216E000E226E4D0E9EEC25F0DA
:102B380039EC2AF033EC2AF00001676F6751D8A40A
:102B4800F9D700016451120038C086F039C087F007
:102B580020EE04F08651D9268751DA22DECF82F0A2
:102B6800DECF83F0DECF84F0DECF85F0735182199B
:102B78000AE17451831907E17551841904E176510A
:102B88008519D8B4B4D020EE1FF08651D9268751C4
:102B9800DA22DF50D8B481D0200E8625686F000E67
:102BA8008721696F82C06AF083C06BF084C06CF0C3
:102BB80085C06DF0010E6E6F000E48EC26F000091E
:102BC800D8B402D0000E120020EE1FF08651D9268C
:102BD8008751DA22000EDF6E20EE08F08651D926E2
:102BE8008751DA22DECF77F0DECF78F0DECF79F0CA
:102BF800DECF7AF020EE14F08651D9268751DA22FA
:102C0800DECF7BF0DDCF7CF07B5177257D6F7C516B
:102C180078217E6F000E79217F6F000E7A21806FF8
:102C28007D51825D7E5183597F51845980518559E8
:102C3800D8B033D020EE1EF08651D9268751DA223B
:102C4800DF50816F020E816101D027D020EE14F091
:102C58008651D9268751DA22DECF77F0DDCF78F09A
:102C68007751822778518323000E8423000E852311
:102C7800200E8625686F000E8721696F82C06AF072
:102C880083C06BF084C06CF085C06DF0010E6E6F70
:102C9800000E48EC26F08107D5D7735174117511D1
:102CA8007611D8B424D0200E8625686F000E8721AF
:102CB800696F73C06AF074C06BF075C06CF076C051
:102CC8006DF0010E6E6F000E05EC24F00009D8A41B
:102CD80079D720EE04F08651D9268751DA2273C0BD
:102CE800DEFF74C0DEFF75C0DEFF76C0DEFF010EBA
:102CF800120038C0A6F039C0A7F020EE16F0A65191
:102D0800D926A751DA22DECFA4F0DDCFA5F0A05155
:102D1800A111D8A41BD020EE18F0A651D926A7518E
:102D2800DA22DECFAAF0DDCFABF0AB5104E1020E20
:102D3800AA5DD8A006D0A451AA5DA551AB59D8A0C8
:102D480029D0000EAB6F010EAA6F24D0A0C088F066
:102D5800A1C089F0BCEC13F088C0A8F089C0A9F024
:102D6800A95109E1020EA85DD8B005D0000EA16FE7
:102D7800010EA06F1200A451A85DA551A959D8B0A1
:102D880005D0A8C0A0F0A9C0A1F01200A0C0AAF068
:102D9800A1C0ABF0AAC0ACF0ABC0ADF0AC4BAD2B52
:102DA800A451AC5DA551AD59D8A00FD0000EAD6FA0
:102DB800020EAC6FAB5109E1020EAA5DD8B005D086
:102DC800000EA16F000EA06F1200ACC088F0ADC05D
:102DD80089F0BCEC13F088C0A8F089C0A9F0A8510C
:102DE800A911D8B40CD0A805A911D8B4BFD7AA5135
:102DF800AC19D4E1AB51AD19D8B4E2D7CFD7ACC038
:102E080088F0ADC089F0FF0E8B6F8A690DEC0FF06A
:102E18000009D8B4ABD7A051A111D8B40DD0A0C027
:102E280088F0A1C089F0ACC08AF0ADC08BF00DEC81
:102E38000FF00009D8B49AD720EE18F0A651D92679
:102E4800A751DA22ACC0DEFFADC0DDFF20EE1AF0DC
:102E5800A651D926A751DA22DE2803E1DE28D8B404
:102E680009D020EE1AF0A651D926A751DA22DE069B
:102E7800000EDD5AACC0A0F0ADC0A1F01200315078
:102E8800D96EDA6A020ED926DECF9DF0DDCF9EF02C
:102E9800010E00019D25A66F000E9E21A76FA6C0FA
:102EA8009DF00F0E9D17D8A491D03150D96EDA6AD3
:102EB8000A0ED926DE2A000EDE22DE22DE2231505C
:102EC800D96EDA6A080ED926DE50DE10D8A413D0DF
:102ED8003150D96EDA6A040ED92610EE02F0DE50AF
:102EE800E126DD50E222E650A65DE650A759D8A0BB
:102EF8006DD0000E1200A6C09DF0A7C09EF0040E73
:102F08009F6FD8909E339D339F2FFBD7FF0EA06FE6
:102F1800FF0EA16F3150D96EDA6A040ED92610EE71
:102F28001DF0DE50E126DD50E222E750A26FA36BD0
:102F3800A051A227A151A3239D51A2179E51A317C7
:102F4800A251A311D8A442D03150D96EDA6A080E22
:102F5800D926DECF88F0DDCF89F0BCEC13F088C02D
:102F6800A4F089C0A5F0A55104E1020EA45DD8A083
:102F7800C0D73150D96EDA6A040ED92610EE16F091
:102F8800DE50E126DD50E222E650A45DE650A55968
:102F9800D8B0AFD73150D96EDA6A080ED926A4C096
:102FA800DEFFA5C0DDFFA4C025F0A5C026F002EC19
:102FB8001FF03150D96EDA6A0A0ED92625C0DEFF15
:102FC80026C0DEFF27C0DEFF28C0DEFF3150D96EE5
:102FD800DA6A020ED926A6C0DEFFA7C0DDFF010E01
:102FE800120022C019F01A6A000E1C6E200E1B6E09
:102FF800000E1E6E0B0E1D6E71EC28F0000E296E71
:10300800180E276E000E2A6E080E286E2150D96EF3
:10301800DA6ADFCF23F0010EDE26DFCF24F0000EC0
:10302800DD2223C0F6FF24C0F7FFF86A070EF76415
:1030380003D00800F55005D0F6CFE1FFF7CFE2FF47
:10304800E7502B6E2B50D8B404D02F0E2B18D8A4D1
:1030580012D02A50D8B470D029502714236E235088
:10306800256E266A2250D96EDA6A0B0ED92625C03B
:10307800DFFF2B501200200E2B645ED07F0E2B1822
:10308800D8B45AD02E0E2B18D8A40CD029B054D0AE
:103098002A50D8B451D0090E2A604ED0080E2A6E94
:1030A8000B0EB3D7220E2B18D8B446D02A0E2B609D
:1030B80001D035D02D0E2B6001D03ED03A0E2B60BA
:1030C80001D02DD0400E2B6001D036D029B027D0AA
:1030D8007C0E2B18D8B430D05A0E2B6404D05E0E58
:1030E8002B6001D029D0400E2B640AD05B0E2B60D8
:1030F80007D0080E2818D8A402D0279601D0279800
:10310800600E2B640CD07B0E2B6009D0200E2B5E3A
:10311800080E2818D8A402D0298601D02988299019
:1031280028502A5CD8B008D022502A24D96EDA6AEE
:103138002BC0DFFF2A2A6AD7010E1200D6EC28F02E
:10314800FD0E1924216EFF0E1A20226E3DEC29F087
:1031580019C023F01AC024F01BEC29F019C025F07F
:103168001AC026F00AEC29F0D00E1924296E070E91
:103178001A202A6E2CEC29F01950286E4EEC29F0F2
:103188001950276ED89026300001616F2530606F86
:103198002350626F2450636F646B656B050ED89083
:1031A8006237633764376537E82EF9D72150666F81
:1031B8002250676F686B696B0B0ED890663767375C
:1031C80068376937E82EF9D727C06AF06B6B6C6BE4
:1031D8006D6B6BC06DF06AC06CF06B6B6A6B28C06E
:1031E8006EF06F6B706B716B150ED8906E376F3712
:1031F80070377137E82EF9D7C40E2924726FFF0E85
:103208002A20736F746B756B190ED89072377337E9
:1032180074377537E82EF9D76E517211766F6F5182
:103228007311776F70517411786F71517511796FCF
:103238006A5176117A6F6B5177117B6F6C517811E7
:103248007C6F6D5179117D6F66517A117E6F675170
:103258007B117F6F68517C11806F69517D11816F7F
:1032680062517E11826F63517F11836F64518011A7
:10327800846F65518111856F605182111D6E615196
:1032880083111E6E000E84111F6E000E8511206EB4
:103298001200FD0E2D6E600E2E6EE8EC28F02DC08B
:1032A80080F02EC081F02FC082F030C083F032C091
:1032B8002DF033C02EF0A2EC20F02D50805D0101DE
:1032C800046F2E50000181590101056F2F50000134
:1032D80082590101066F3050000183590101076FBF
:1032E800130E2D6E610E2E6EE8EC28F02DC080F0C6
:1032F8002EC081F02FC082F030C083F032C02DF094
:1033080033C02EF0A2EC20F02D50805D01010C6F2F
:103318002E500001815901010D6F2F500001825973
:1033280001010E6F30500001835901010F6F290E02
:103338002D6E610E2E6EE8EC28F02DC080F02EC0A8
:1033480081F02FC082F030C083F034C02DF035C03A
:103358002EF0A2EC20F02D50805D0101006F2E5060
:10336800000181590101016F2F50000182590101AB
:10337800026F3050000183590101036F3D0E2D6E1D
:10338800610E2E6EE8EC28F02DC080F02EC081F082
:103398002FC082F030C083F034C02DF035C02EF03D
:1033A800A2EC20F02D50805D0101086F2E50000125
:1033B80081590101096F2F500001825901010A6FDB
:1033C80030500001835901010B6F120025C0F6FF30
:1033D80026C0F7FFF86A070EF76403D00800F55017
:1033E80005D0F6CFE1FFF7CFE2FFE7500001656FA8
:1033F800254A262A200E6519D8B4E8D7090E65197A
:10340800D8B4E4D7000E616F000E626F000E636FD0
:10341800000E646F000E606F2D0E6519D8A416D0CB
:10342800602B25C0F6FF26C0F7FFF86A070EF76481
:1034380003D00800F55005D0F6CFE1FFF7CFE2FF43
:10344800E7500001656F254A262A29D02B0E6519F9
:10345800D8B4E7D724D061C019F062C01AF063C0AD
:103468001BF064C01CF00A0E1D6E000E1E6E000ECE
:103478001F6E000E206ECBEC25F065C029F0D00E33
:103488002926295019240001616F000E1A20626F45
:10349800000E1B20636F000E1C20646FC2D765519D
:1034A8007FEC29F0D8B0D7D700016051D8B41AD032
:1034B80061C029F062C02AF063C02BF064C02CF010
:1034C800291E2A1E2B1E2C1E292A000E2A222B22D8
:1034D8002C2229C025F02AC026F02BC027F02CC0AA
:1034E80028F0120061C025F062C026F063C027F002
:1034F80064C028F0120081960DEC25F0600E196E5C
:10350800020E1A6E000E94EC26F04050D8A41FD07C
:10351800200E02011219D8B41AD0200E1419D8B4EA
:1035280016D07F0E196E010E1A6E480E1B6E620EB3
:103538001C6EFFEC26F07F0E196E010E1A6E640EDB
:103548001B6E620E1C6E21EC27F0010E406E40507F
:10355800D8B461D04F0E0001C06F010EC16F7F0E4D
:10356800C26F010EC36F020EC46F7AEC09F0000936
:10357800D8A444D04F0EAE6F010EAF6F59C1B0F052
:103588005AC1B1F05BC1B2F05CC1B3F075EC05F0A3
:103598004F0ED96F010EDA6F510EDB6F610EDC6FC3
:1035A800300EDD6F020EDE6F160EDF6F020EE06F5B
:1035B800230EE16F020EE26FD30EE36F610EE46F2C
:1035C800D30EE56F610EE66FD30EE76F610EE86FFD
:1035D800070EE96F020EEA6F750EEB6F620EEC6F65
:1035E800340EED6F020EEE6FBAEC07F04F0E0001CD
:1035F800936F010E946F87EC28F00DD04F0EC06FBB
:10360800010EC16F7F0EC26F010EC36F080EC46F2B
:103618007AEC09F0EBD78186120020EE04F08A518B
:10362800D9268B51DA22DECF1FF0DDCF20F08AC0F9
:10363800D9FF8BC0DAFFDECF21F0DDCF22F0B8EC66
:1036480026F00001906F9051D8A477D020EE02F0B8
:103658008A51D9268B51DA22DFAA6FD020EE16F0D4
:103668008A51D9268B51DA22DECF73F0DECF74F07F
:10367800DECF75F0DECF76F0A8EC15F00009D8A4FF
:1036880002D0080E120020EE1AF08A51D9268B516A
:10369800DA22DECF91F0DDCF92F020EE0BF09151DF
:1036A800D9269251DA22000EDB8A20EE0AF08A51DE
:1036B800D9268B51DA2210EE1CF09151E126925155
:1036C800E222DECFE6FFDECFE6FFDECFE6FFDECF8B
:1036D800E6FF20EE0EF08A51D9268B51DA2210EE41
:1036E8001AF09151E1269251E222DECFE6FFDDCFBA
:1036F800E5FFA2EC18F01DC08CF01EC08DF01FC0B5
:103708008EF020C08FF020EE16F09151D9269251FC
:10371800DA228CC0DEFF8DC0DEFF8EC0DEFF8FC0D8
:10372800DEFF20EE02F08A51D9268B51DA22DF0E15
:10373800DF161FEC26F00001906F905112000A0E60
:1037480004EC28F027C02CF028C02DF029C02EF05A
:103758002AC02FF0090ED8902C362D362E362F364B
:10376800E82EF9D72CC061F02DC062F02EC063F0AE
:103778002FC064F02704281029102A10D8B41CD0B0
:103788000A0E04EC28F061C01EF062C01FF063C08E
:1037980020F064C021F0000E226E520E9EEC25F03F
:1037A80039EC2AF033EC2AF00001676F6751D8A48E
:1037B800F9D739EC2AF01ED00A0E04EC28F027C0FD
:1037C8001EF028C01FF029C020F02AC021F0000EEA
:1037D800226E510E9EEC25F039EC2AF033EC2AF0DB
:1037E8000001676F6751D8B4E4D7F8D733EC2AF0F3
:1037F8000001676FFE0E00016719D8A4F7D7000E05
:10380800666F000E656F0CD065512524D96E665120
:103818002620DA6E33EC2AF0DF6E0001654B662B4A
:1038280066BFF2D7020E665DD8A0EED70A0E04EC8A
:1038380028F0000E1E6E000E1F6E000E206E000E89
:10384800216E000E226E4C0E9EEC25F039EC2AF00B
:1038580033EC2AF00001676F6729D8A4F9D7000E66
:1038680012000600E1CF0EF0E2CF0FF0D9CF10F032
:10387800DACF11F0F3CF12F0F4CF13F0F6CF14F043
:10388800F7CF15F0F8CF16F0F5CF17F09DBA9EAA2E
:1038980014D09E9AF7EC29F03E6E3E506CEC11F075
:1038A80081B403D00C6A0C2A01D00C6A0C460C4671
:1038B80081500C18FB0B0C18816EF2B4F2A444D0A2
:1038C800F294010E3D6E000E186E1850020D100E87
:1038D800F324D96E010EF420DA6EDE50DE10D8B46F
:1038E8000BD01850020D100EF324D96E010EF420DF
:1038F800DA6EDE06000EDD5A182A030E1864E5D7C4
:103908000001FA51FB11D8B403D0FA07D8A0FB077D
:1039180036503710D8B403D03606D8A037063C0442
:10392800D8A40CD001014507D8A046074551461137
:10393800D8A404D0000EFA6E000EF96E000E026EC6
:10394800450E016E55EC2AF0F2B2F2A801D0F292BF
:1039580017C0F5FF16C0F8FF15C0F7FF14C0F6FF33
:1039680013C0F4FF12C0F3FF11C0DAFF10C0D9FF73
:103978000FC0E2FF0EC0E1FF4792110027C060F0C0
:1039880028C061F029C062F02AC063F0060ED89002
:1039980000016037613762376337E82EF8D7605126
:1039A8000008196E6C0E61551A6EDC0E62551B6E9E
:1039B800020E63551C6E27C064F028C065F029C04C
:1039C80066F02AC067F0060ED89064376537663708
:1039D8006737E82EF9D764C01DF065C01EF066C0D1
:1039E8001FF067C020F09CEC1EF019C02BF01AC025
:1039F8002CF02C04D8A03BD027C060F028C061F080
:103A080029C062F02AC063F0040ED890603761378D
:103A180062376337E82EF9D760510008196E6C0ECB
:103A280061551A6EDC0E62551B6E020E63551C6ED4
:103A380027C064F028C065F029C066F02AC067F086
:103A4800040ED8906437653766376737E82EF9D79C
:103A580064C01DF065C01EF066C01FF067C020F08E
:103A68009CEC1EF019C02BF01AC02CF0AC842C046E
:103A7800D8B012002BC0AFFFAC98AB8E948E949C3C
:103A8800AB88AC8A12002CC060F00001616B626BDD
:103A98002B34603701E361816051636F6351D8A4AF
:103AA80007D0000E2A6E000E2B6E000E2C6E120030
:103AB8002FC060F0616B626B2E34603701E3618167
:103AC8006051686F6851D8A407D0000E2A6E000EA6
:103AD8002B6E000E2C6E120068517B0F63272CC0D2
:103AE80068F02F50681B800E68172B8E2E8EFF0EE5
:103AF8002D16FF0E2E16000E2F16000E646F000EE8
:103B0800656F000E666F070E676F2AA006D02D50EE
:103B180064272E5065232F506623D8902C322B32E1
:103B28002A32D8902D362E362F36672FEED7090E2B
:103B3800676F2AA006D02D5064272E5065232F507A
:103B48006623D8902C322B322A32D89066336533CC
:103B58006433672FEED764C019F065C01AF066C0E9
:103B68001BF063C01CF068C01DF05BEC1FF019C0AF
:103B78002AF01AC02BF01BC02CF0120027C02DF021
:103B880028C02EF029C02FF02AC030F02DC019F01F
:103B98002EC01AF02FC01BF030C01CF02BC01DF037
:103BA8002CC01EF0000E1EBEFF0E1F6E206E15EC00
:103BB80023F019C02DF01AC02EF01BC02FF01CC026
:103BC80030F0262A2D502E102F103010D8A4DED712
:103BD8002650D96EDA6A000EDF6E260627C019F065
:103BE80028C01AF029C01BF02AC01CF02BC01DF0F9
:103BF8002CC01EF0000E1EBEFF0E1F6E206EDAECEB
:103C080024F01950316E27C019F028C01AF029C0C5
:103C18001BF02AC01CF02BC01DF02CC01EF0000E9B
:103C28001EBEFF0E1F6E206E15EC23F019C027F084
:103C38001AC028F01BC029F01CC02AF0090E3164F4
:103C480002D0070E3126300E31262650D96EDA6A98
:103C580031C0DFFF26062750281029102A10D8B4B3
:103C68001200BCD702D01F4A202A1FC0D9FF20C08B
:103C7800DAFF200EDE18D8B4F6D71FC0D9FF20C04F
:103C8800DAFF090EDE18D8B4EED7000E256E000E46
:103C9800246E000E236E1FC0D9FF20C0DAFF2D0E40
:103CA800DE18D8A402D0232A23D01FC0D9FF20C0F1
:103CB800DAFF2B0EDE18D8A41DD01AD024C019F0B4
:103CC80025C01AF0000E1C6E0A0E1B6EC3EC28F0FD
:103CD8001FC0D9FF20C0DAFFDF50216E21501926FE
:103CE800000E1A22D00E1924246EFF0E1A20256EFB
:103CF8001F4A202A1FC0D9FF20C0DAFFDF507FECFF
:103D080029F0D8B0DBD72350D8B40DD024C021F087
:103D180025C022F0211E221E214A222A21C01FF07E
:103D280022C020F0120024C01FF025C020F012008D
:103D3800000E226E20AE0AD0201E1F1E1E1E1D6CF5
:103D4800000E1E221F222022010E226E1CAE0AD057
:103D58001C1E1B1E1A1E196C000E1A221B221C2266
:103D6800010E221A000E236E000E246E000E256E20
:103D7800000E266E1D501E101F102010D8B42AD019
:103D8800010E216E06D0D8901D361E361F362036FD
:103D9800212A20AEF8D7D890233624362536263661
:103DA8001D50195C1E501A581F501B5820501C5883
:103DB800D8A009D01D50195E1E501A5A1F501B5A00
:103DC80020501C5A2380D89020321F321E321D32B8
:103DD800212EE1D72250D8B408D0261E251E241E35
:103DE800236C000E24222522262223C019F024C089
:103DF8001AF025C01BF026C01CF0120038C02EF0A7
:103E080039C02FF0020E255E000E265AFE0E296ECE
:103E1800FF0E2A6E20EE16F02E50D9262F50DA22E9
:103E2800DECF2BF0DDCF2CF029502B262A502C2268
:103E38002B50255C2C502658D8A009D0000E256E92
:103E4800000E266E000E276E000E286E120020EE61
:103E580010F02E50D9262F50DA22DECF29F0DECFEF
:103E68002AF0DECF2BF0DECF2CF025C019F026C0CB
:103E78001AF01B6A1C6A20EE1DF02E50D9262F500E
:103E8800DA22DF502D6E2D501D6E1E6A1F6A206AC1
:103E9800CBEC25F029501924256E2A501A20266EBD
:103EA8002B501B20276E2C501C20286E12001C50F3
:103EB800D8B405D019501A101B10D8A40CD0000E75
:103EC800196E000E1A6E000E1B6E12001C2AD89076
:103ED8001B321A321932000E19141E6E000E1A14F3
:103EE8001F6EFE0E1B14206E1E501F102010D8B41B
:103EF8000CD0ECD71C2A010E1926000E1A22000E2F
:103F08001B22D8901B321A321932000E19141E6E59
:103F1800000E1A141F6EFF0E1B14206E1E501F1069
:103F28002010D8B406D0E6D71C06D89019361A3611
:103F38001B361ABE03D0020E1C60F6D71CA01A9EB0
:103F4800D8901C321C501B121D50D8A41B8E19C0AF
:103F580019F01AC01AF01BC01BF01200000E000165
:103F6800F76FF751020D200EF324D96E010EF420DD
:103F7800DA6EDE50DE10D8B43FD0F751020D100EC5
:103F8800F324D96E010EF420DA6EDE50DE10D8A4C8
:103F980033D0010E3C6EFD0E0101466FE80E456FF1
:103FA8000001F751020D200EF324D96E010EF42002
:103FB800DA6E01D80AD00500FA6EDE50FD6EDE50CA
:103FC800FE6EF850FF6EFA501200000E3C6E0001B3
:103FD800F751020D180EF324D96E010EF420DA6E93
:103FE800F751020D100EF324E16E010EF420E26E7B
:103FF800DECFE6FFDDCFE5FFF72B030EF765B1D780
:1040080012009594959295909598959A959C959E61
:10401800839483928390839E839C838A8388EA0E09
:104028001C6EC30EE82EFED71C2EFCD700F0838032
:10403800ACEC29F08390ACEC29F04E0E1C6EEB0E24
:10404800E82EFED71C2EFCD700F08380ACEC29F0BC
:104058008390ACEC29F04E0E1C6EEB0EE82EFED7CA
:104068001C2EFCD700F08380ACEC29F08390ACECDC
:1040780029F0839E839C838A83988380ACEC29F003
:104088008390ACEC29F0280EC4EC21F0060EC4ECA9
:1040980021F00E0EC4EC21F0010EC4EC21F0120048
:1040A80038C0A6F039C0A7F035D0A0C088F0A1C0AC
:1040B80089F0BCEC13F088C0A4F089C0A5F0A40571
:1040C800A511D8A402D0000E1200A0C088F0A1C08B
:1040D80089F0000E8B6F000E8A6F0DEC0FF000094F
:1040E800D8B4F1D720EE1AF0A651D926A751DA2272
:1040F800DE2803E1DE28D8B409D020EE1AF0A65154
:10410800D926A751DA22DE2A000EDD22A4C0A0F0AB
:10411800A5C0A1F0A15104E1020EA05DD8A00CD069
:1041280020EE16F0A651D926A751DA22DE50A05D5E
:10413800DE50A159D8A0B9D7010E1200700E196E21
:104148001A6A2DC01BF02EC01CF0FFEC26F0000EE2
:1041580000017D6F000E7C6F000E7F6F000E7E6F7A
:104168007E51700FD96EDA6A2E0EDE18D8B41BD0C5
:104178007E51700FD96EDA6A2D0EDE18D8B413D0BE
:104188007E51700FD96EDA6ADF50D8B40CD07E51E8
:10419800700FD96EDA6A7C51660FE16EE26ADFCF82
:1041A800E7FF7C4B7D2B7E4B7F2B7F5104E10C0E70
:1041B8007E5DD8A0D5D7660E256E266AEAEC19F082
:1041C80025C02DF026C02EF027C02FF028C030F0D3
:1041D80012003BD019C0D9FF1AC0DAFFDF501F6E9A
:1041E8001BC0F6FF1CC0F7FFF86A070EF76403D080
:1041F8000800F55005D0F6CFE1FFF7CFE2FFE75012
:104208001F18D8B41ED019C0D9FF1AC0DAFFDF5062
:104218001F6E1BC0F6FF1CC0F7FFF86A070EF76495
:1042280003D00800F55005D0F6CFE1FFF7CFE2FF45
:10423800E750206E20501F5C196E1A6AD8A01A0623
:104248001200194A1A2A1B4A1C2A1D06D8A01E0643
:104258001D28C0E11E28D8A4BDD7000E1A6E000E76
:10426800196E1200000E2A6E000E296E000E286EBE
:10427800000E276E000E1E6E000E1F6E000E206EC2
:10428800000E216E950E226E400E9EEC25F039EC44
:104298002AF033EC2AF02B6E294A2A2A2B04D8B4A8
:1042A80008D02ABEF6D72A5004E10A0E295CD8A005
:1042B800F0D7000E2A6E000E296E2B04D8B416D043
:1042C800000E1C6E010E6FEC25F0F70E1C6E610ED1
:1042D8001D6EF6EC25F0000E1C6E020E6FEC25F03C
:1042E8008E0E1C6E610E1D6EF6EC25F02B04D8B4F4
:1042F8001200C0D7EC0EF66E600EF76E20EE60F07E
:10430800100E0900F5CFDEFFE806FBE2DB0EF66EC5
:10431800600EF76E20EE71F0100E0900F5CFDEFF8B
:10432800E806FBE2000E1C6E010E6FEC25F0600E35
:104338001C6E1D6AF6EC25F0000E1C6E020E6FEC6A
:1043480025F0710E1C6E1D6AF6EC25F03D0E206EF0
:10435800E10E1F6E400EE82EFED71F2EFCD7202E32
:10436800FAD7010EC4EC21F0000E1C6E010E6FECA2
:1043780025F0E10E1C6E610E1D6EF6EC25F01200A4
:104388001B6E8394839283901BA802D0838801D0EC
:1043980083981BAA02D0838A01D0839A1BAC02D0CF
:1043A800838C01D0839C1BAE02D0838E01D0839E68
:1043B8008380ACEC29F08390ACEC29F01BA002D0F0
:1043C800838801D083981BA202D0838A01D0839A64
:1043D8001BA402D0838C01D0839C1BA602D0838EA1
:1043E80001D0839E8380ACEC29F08390ACEC29F05B
:1043F8001B04D8B408D0020E1B18D8B404D0030E7E
:104408001B18D8A41200ACEC29F01200000E000111
:10441800D86F000ED76F27D0D3C0F6FFD4C0F7FFF0
:10442800F86A070EF76403D00800F55005D0F6CFF8
:10443800E1FFF7CFE2FFE750316E31500001CC6F5A
:10444800CD6BD5C0CEF0D6C0CFF0A7EC27F0CC29E5
:1044580006E1CD29D8A403D0D369D4691200D34B7F
:10446800D42BD74BD82BD3C0F6FFD4C0F7FFF86AAC
:10447800070EF76403D00800F55005D0F6CFE1FF2A
:10448800F7CFE2FFE7500009D8A4C6D7D7C0D3F0CA
:10449800D8C0D4F01200200EF66E540EF76E000E3F
:1044A800F86E01EED9F010EE0EF00900F5CFEEFF30
:1044B800E550E150FAE1BC0EF66E540EF76E000EB0
:1044C800F86E0900F5CF46F002EE60F012EE20F02B
:1044D800EE6AE550E150FCE1E250FAE102EE00F04C
:1044E8003E0EEE6AE806FDE101EE00F0D90EEE6A36
:1044F800E806FDE10001FD6BFC6BFB6BFA6BF96BE9
:10450800F86B00EE32F0140EEE6AE806FDE1479013
:104518004792000EF86E00019CEF28F038D003BFD8
:1045280007D003510211011107E10005D8B004D0EA
:104538000BBF02D0000E120000510111021103112D
:10454800D8A406D00051011102110311D8B4F2D732
:10455800010E120003BF09D00BBFECD70B510A1193
:10456800091103E10805D8A0E5D703BF09D00BBF9F
:10457800E1D70B510A11091103E10805D8A0DAD7D0
:104588000051011102110311D8B4D4D7DBD734C0BC
:10459800D9FF35C0DAFFDF502D0AD8B4C0D7DAD733
:1045A80038C079F039C07AF0200E7925686F000E8E
:1045B8007A21696F73C06AF074C06BF075C06CF0D3
:1045C80076C06DF0010E6E6F000E05EC24F0000948
:1045D800D8B402D0020E120022EE1EF07951D9266C
:1045E8007A51DA22550EDE18F5E1AA0EDE18D8A4A3
:1045F800F1D7560E7925196E000E7A211A6E710EB2
:104608001B6E620E1C6E000E1E6E030E1D6EEDEC10
:1046180020F019501A10D8A402D0000E1200010E72
:104628001200000E216E000E226E000E236E000E88
:10463800246E1D501E101F102010D8B42AD0010E51
:10464800256E06D0D8901D361E361F362036252AF0
:1046580020AEF8D7D89021362236233624361D507E
:10466800195C1E501A581F501B5820501C58D8A0AF
:1046780009D01D50195E1E501A5A1F501B5A20503F
:104688001C5A2180D89020321F321E321D32252E0E
:10469800E1D721C019F022C01AF023C01BF024C0B2
:1046A8001CF0120000016BAF0FD0000E6F6F000EF0
:1046B800706F800E716F69516F5D696F6A517059C3
:1046C8006A6F6B5171596B6F6EAF0FD0000E6F6FC1
:1046D800000E706F800E716F6C516F5D6C6F6D5155
:1046E80070596D6F6E5171596E6F000E691B000E17
:1046F8006A1B800E6B1B000E6C1B000E6D1B800E60
:104708006E1B6C51695D6D516A596E516B59D8B009
:1047180002D0D8901200D880120031D007BF0BD039
:104728000FBF07D00F510E110D1105E10C05D8B0C0
:1047380002D0000E12000451051106110711D8B459
:10474800F8D70C510D110E110F11D8B4F2D7010E74
:10475800120007BF07D007510611051105E104052E
:10476800D8B002D00FAFE5D70451051106110711D3
:10477800D8B4DFD70451051106110711E6D732C0A6
:10478800D9FF33C0DAFFDF502D0AD8B4C7D7E1D735
:104798001B6E8394838283901BA802D0838801D0E8
:1047A80083981BAA02D0838A01D0839A1BAC02D0BB
:1047B800838C01D0839C1BAE02D0838E01D0839E54
:1047C8008380ACEC29F08390ACEC29F01BA002D0DC
:1047D800838801D083981BA202D0838A01D0839A50
:1047E8001BA402D0838C01D0839C1BA602D0838E8D
:1047F80001D0839E8380ACEC29F08390ACEC29F047
:1048080012006F6F29D068C025F069C026F06AC011
:1048180027F06BC028F06CC029F06DC02AF06EC07C
:104828002BF0A3EC1BF0306E3050706F716B70C0C2
:1048380072F07251120068C025F069C026F06AC093
:1048480027F06BC028F06CC029F06DC02AF06EC04C
:104858002BF0A3EC1BF0E7D700016F51000AD8B486
:10486800D2D7010AD8B4E7D7030AD8B4E2D7040EDE
:1048780012001B6E839483928390838E1BA802D0B0
:10488800838801D083981BAA02D0838A01D0839A97
:104898001BAC02D0838C01D0839C8380ACEC29F0C4
:1048A8008390ACEC29F01BA002D0838801D08398B8
:1048B8001BA202D0838A01D0839A1BA402D0838CC6
:1048C80001D0839C1BA602D0838E01D0839E838057
:1048D800ACEC29F08390ACEC29F012003FA0120058
:1048E800A6EC24F0000E0001696F480E6A6F420EB4
:1048F8006B6F0E0E2D6EED0E2E6E3F0E2F6E000E90
:104908001F6E000E206E36EC1EF01FC026F020C071
:1049180027F022EC28F026C02AF027C02BF028C068
:104928002CF047EC1DF02AC06CF02BC06DF02CC0A9
:104938006EF056EC23F0D8B01200000EFB6F000E9C
:10494800FA6F120025EC2AF01EEC2AF04DEC19F053
:1049580091EC23F00001846F01013B51000184199F
:10496800FE0B841901013B6F92EC22F00001846F69
:1049780001013C5100018419FE0B841901013C6FAF
:104988003BB102D03CA109D03D815F0E1D6E620E85
:104998001E6E040E96EC12F012003D91410E1D6E33
:1049A800620E1E6E040E96EC12F012001D501E10C0
:1049B8001F102010D8B424D0010E216E06D0D89034
:1049C8001D361E361F362036212A20AEF8D71D5038
:1049D800195C1E501A581F501B5820501C58D8A03C
:1049E80008D01D50195E1E501A5A1F501B5A2050CD
:1049F8001C5AD89020321F321E321D32212EE7D782
:104A080019C019F01AC01AF01BC01BF01CC01CF00A
:104A18001200B90E1D6E010E1E6E000E96EC12F0FD
:104A2800C40E1D6E010E1E6E010E96EC12F0A00E45
:104A38001D6E010E1E6E020E96EC12F0930E1D6E88
:104A4800010E1E6E030E96EC12F0B90E1D6E010ECD
:104A58001E6E050E96EC12F0C40E1D6E010E1E6E33
:104A6800060E96EC12F0CB0E1D6E010E1E6E070E92
:104A780096EC12F01200E40E0101206F480E216F2F
:104A8800CC0E226F4F0E236F800E246F200E256FE1
:104A9800010E196FF40E186F030E1B6FE80E1A6FD4
:104AA800070E1D6FD00E1C6F030E1F6FE80E1E6FD2
:104AB800010E116FF40E106F030E136FE80E126FD4
:104AC800130E156F880E146F130E176F880E166F5E
:104AD800000E3C6E12001D6E110E1C6012001BD0E1
:104AE8001CC01EF01E503DEC24F022D01C50400F7C
:104AF8001E6E1E503DEC24F01BD01C50140F1E6E71
:104B08001E503DEC24F014D01C50540F1E6E1E5045
:104B18003DEC24F00DD01D50010AD8B4E1D7030AAA
:104B2800D8B4E4D7010AD8B4E8D7070AD8B4ECD780
:104B38001C2A1200236E3EEC28F0FF0AD8A404D0E9
:104B480008D00A0E04EC28F03EEC28F0FF0AD8A49E
:104B5800F8D7FF0E08EC2AF0235008EC2AF021C001
:104B680024F0245008EC2AF020C024F0245008EC4B
:104B78002AF01FC024F0245008EC2AF01EC024F0AC
:104B8800245008EC2AF0225008EC2AF01200000EFB
:104B9800216E000E226E000E236E000E246E19A0E8
:104BA80008D01D5021261E5022221F50232220509B
:104BB8002422D8901D361E361F362036D8901C3237
:104BC8001B321A32193219501A101B101C10D8A493
:104BD800E6D721C019F022C01AF023C01BF024C068
:104BE8001CF0120014D01CC0F6FF1DC0F7FFF86AB5
:104BF800070EF76403D00800F55005D0F6CFE1FFA3
:104C0800F7CFE2FFE750CCEC23F01C4A1D2A1CC06A
:104C1800F6FF1DC0F7FFF86A070EF76403D0080017
:104C2800F55005D0F6CFE1FFF7CFE2FFE7500009D6
:104C3800D8B41200D8D738C088F039C089F020EE2F
:104C48001FF08851D9268951DA22010EDF6E000E35
:104C5800736F000E746F000E756F000E766FA8EC00
:104C680015F00009D8A402D0080E1200000E196E23
:104C7800000E1A6E000E1B6E000E6FEC29F0000974
:104C8800D8A4F2D7000E12006F6F18D068C025F0B4
:104C980069C026F06AC027F06BC028F06CC029F004
:104CA8006DC02AF06EC02BF0CDEC14F0306E305091
:104CB800706F716B70C072F07251120000016F5109
:104CC800000AD8B4E3D7010AD8B4E0D7030AD8B4A5
:104CD800F3D7040E120004D0014A022A034A042A18
:104CE80003C0F6FF04C0F7FF0800F5CF05F001C0C8
:104CF800D9FF02C0DAFFDF50066E0550065C076E6A
:104D08000750D8A407D001C0D9FF02C0DAFFDF508E
:104D1800D8A4E2D70750016E026A01BE020612004B
:104D28001B6E1B50D8B402D0050E12003850391033
:104D3800D8B408D020EE1CF03850D9263950DA22E1
:104D4800000EDF6E19C038F01AC039F019501A1069
:104D5800D8B408D020EE1CF01950D9261A50DA22FF
:104D6800000EDF6E000E12001F502010D8B414D0B1
:104D780020EE1CF01F50D9262050DA22DF50D8B47C
:104D88000BD01FC0D9FF20C0DAFF2150DE1804E184
:104D98002250DE18D8B402D00C0E1200000E59ECC6
:104DA80028F0236E23A002D0010E1200000E12007C
:104DB800000E096E09500124D96E000E0220DA6E29
:104DC80009500324076E000E0420086E05500724BE
:104DD800E16E06500820E26EDFCFE7FF092A0904DA
:104DE800076E07500124D96E000E0220DA6EDF50DC
:104DF800D8B41200DFD719C01DF01AC01EF004D0B5
:104E08001D4A1E2A1B4A1C2A1BC0F6FF1CC0F7FF9E
:104E1800F86A1DC0D9FF1EC0DAFF070EF76403D079
:104E28000800F55005D0F6CFE1FFF7CFE2FFE750D5
:104E3800DF6EDF50D8B41200E3D719C01DF01AC0D6
:104E48001EF002D01D4A1E2A1DC0D9FF1EC0DAFF5F
:104E5800DF50D8B405D0F6D71D4A1E2A1B4A1C2A93
:104E68001BC0F6FF1CC0F7FF1DC0D9FF1EC0DAFF2C
:104E78000800F5CFDFFFDF50D8B41200EDD71BC014
:104E880022F01CC023F019C020F01AC021F010D065
:104E980022C0D9FF23C0DAFFDF501F6E224A232A1F
:104EA80020C0D9FF21C0DAFF1FC0DFFF204A212A16
:104EB8001D06D8A01E061D28EBE11E28D8B4120036
:104EC800E7D764AF0ED06051D96EDA6A2D0EDF6E67
:104ED800602B641F631F621F616D000E62236323D2
:104EE800642360C026F061C027F062C028F063C068
:104EF80029F064C02AF065C02BF066C02CF0C2EC23
:104F08001DF0120019C01BF01AC01CF002D01B4A79
:104F18001C2A1BC0F6FF1CC0F7FFF86A070EF764CF
:104F280003D00800F55005D0F6CFE1FFF7CFE2FF38
:104F3800E7500009D8A4EBD719501B5C196E1A501A
:104F48001C581A6E1200CE51CF11D8A405D0CCC06F
:104F5800CCF0CDC0CDF01200CCC0D0F0CEC0AEF0B9
:104F6800CFC0AFF0D00EB06F000EB26F010EB16FB0
:104F7800D10EB36F09EC00F0D151D211D8A4E7D704
:104F8800CC69CD69120021EEE0F010EE6CF0060E4F
:104F9800DBCFE3FFE806FCE26C0E606F68C061F0EF
:104FA80069C062F06AC063F06BC064F0000E666F9F
:104FB8000A0E656F65EC27F06C0E1C6E1D6AF6EC28
:104FC80025F01200FA51FB11D8A412003F9050ECC2
:104FD8002AF019C0F3F01AC0F4F0F3C0D9FFF4C0F6
:104FE800DAFF300EDE18D8A404D0A6EC24F0D6ECF4
:104FF80029F0030E0001FB6FE80EFA6F3F801200E4
:105008001B6E100E196E940EE82EFED7192EFCD7C3
:1050180000D0000E1D6E000E1C6E06D08A8A3FEC72
:105028002AF08A9A1C4A1D2A1B50196E1A6A1950AE
:105038001C5C1A501D58D8B01200F0D7000E296E0B
:1050480027AE06D0266C271ED8B0272A010E296E57
:1050580026C019F027C01AF01B6A8E0E1C6E29C0D4
:105068001DF05BEC1FF019C026F01AC027F01BC01A
:1050780028F01200FF0E196E7F0E1A6E000E1B6EBE
:10508800000E1C6E3FEC2AF01D6E1D28D8B40BD004
:105098001906000E1A5A1B5A1C5A19501A101B10BE
:1050A8001C10D8A4EFD71D5012001D6E0AD01D5039
:1050B80000EC2AF01E6E1E5012001D5000EC2AF063
:1050C800FAD71D50000AD8B4F2D7010AD8B4F5D7D8
:1050D800030AD8B4F0D7010E120019C01FF01AC085
:1050E80020F008D01FC0D9FF20C0DAFF1BC0DFFFA7
:1050F8001F4A202A1D06D8A01E061D28F3E11E28D7
:10510800D8B41200EFD793C08AF094C08BF011EC9A
:105118001BF0316E3150D8A4120020EE04F09351E8
:10512800D9269451DA22000EDE6E000EDD6E1200D2
:10513800E3EC29F0D59E05EC20F07EEC21F03FEC65
:1051480025F0F9EC28F0D58E3D04D8A4FDD7000E43
:105158003D6EB2EC1FF0F8D72D6E05D013EC0BF0B6
:105168002E6E2E5012002D50000AD8B4F7D7010A1F
:10517800D8B4F4D7030AD8B4F4D7010E12001950E2
:105188001B02F3CF1DF0F4CF1EF019501C02F35090
:105198001E261A501B02F3501E261DC019F01EC0F1
:1051A8001AF012000101B9510A0DF3CF1BF0F4CF28
:1051B8001CF0BA511B26000E1C22F00E1B24196E7F
:1051C800FD0E1C201A6E12002D4A2E2A2DC025F025
:1051D8002EC026F0EAEC19F025C02DF026C02EF0DE
:1051E80027C02FF028C030F01200949C949E800EA7
:1051F800276E250E286E000E296E000E2A6EC2EC50
:105208001CF0200EAC6E900EAB6E1200C8510A0D49
:10521800F3CF1BF0F4CF1CF0C9511B26000E1C2243
:10522800F00E1B24196EFD0E1C201A6E1200BD51C3
:105238000A0DF3CF1BF0F4CF1CF0BE511B26000E55
:105248001C22F00E1B24196EFD0E1C201A6E120073
:10525800C6510A0DF3CF1BF0F4CF1CF0C7511B2623
:10526800000E1C22F00E1B24196EFD0E1C201A6E57
:105278001200BB510A0DF3CF1BF0F4CF1CF0BC5148
:105288001B26000E1C22F00E1B24196EFD0E1C207E
:105298001A6E1200C4510A0DF3CF1BF0F4CF1CF0A4
:1052A800C5511B26000E1C22F00E1B24196EFD0E84
:1052B8001C201A6E12009392939A9380949E8A8A65
:1052C8003F0EC716000EC66EC79EC78CC698030E43
:1052D800C66EC68A12001C6E02D01D5012001C50E9
:1052E800000AD8B4FAD7010AD8B4F7D7030AD8B451
:1052F800F4D7040E12001B6E000E1A6E3A0E1B60D5
:1053080005D02F0E1B6402D0010E1A6E1AC019F0B8
:1053180019301200930E196E010E1A6EC80E1B6E0C
:10532800610E1C6EFFEC26F0930E1F6E010E206EB0
:105338001200A00E196E010E1A6ED50E1B6E610EAC
:105348001C6EFFEC26F0A00E1F6E010E206E1200E0
:10535800000E196E00F0000E1A6E00F01A2A310EB7
:105368001A64FBD7192A630E1964F4D712000F0EBA
:10537800C16E010E936E8A68000E956E070E926ECE
:10538800110E946E030E966E1200C50ED56E000EA9
:10539800656E000E636E000E1A6E450E196E4BECAC
:1053A8002AF012002CEC2AF05FEC29F081967FECB1
:1053B8001AF08186F9EC28F045EC2AF012005AEC34
:1053C8002AF0BBEC29F0C9EC29F017EC2AF0EEEC36
:1053D80029F01200B00EF26E000EF16E000EF06EA3
:1053E800280E9D6E12009EAAFED7ABA203D0AB98E2
:1053F80000F0AB88AE5012001A6E1A50D8B402D022
:10540800010E1200000E12001A6EC9509E961AC0A4
:10541800C9FF9EB61200FDD7303030303030003032
:10542800303030303000040ECA6E000ECC6E010EE3
:10543800CB6E12008EEC29F01FC032F020C033F082
:1054480012009DEC29F01FC034F020C035F0120086
:10545800948C948E000EAC6E000EAB6E12008A9A7D
:105468003FEC2AF0196E195012008A9AFF0E08ECC8
:105478002AF08A8A1200C968C790C7A0FED7C95007
:105488001200000EC76E000EC66EC69A120019C032
:10549800D6FF1AC0D7FF1200D70E196E010E1A6E6A
:1054A800120001C0D6FF02C0D7FF1200D388D38AEA
:0554B800D38C12005826
:1060DA00005443432D2D54454C454D5452494100DB
:1060EA000000464154454320535420414E445245F2
:1060FA000000002D303436333035323130312D3016
:10610A003435333030383432342D3034353330305E
:10611A00383432342D303436333035323130312D53
:10612A003233343135383936312D3233343135382A
:10613A003936312D3233343230303137392D32332A
:10614A00343230303137397625733B6C74256C64C0
:10615A003B6C6F25733B7225733B6325733B6B2541
:10616A00733B6825733B6425733B6625730A006F8E
:10617A002053697374656D6120646520617271755D
:10618A0069766F00496E73697261206F204361728C
:10619A0074616F004572726F20616F206D6F6E744B
:1061AA006172004572726F20616F20637269617259
:1061BA000065787466656E63652E747874002D3098
:1061CA00343633302E3234353830002D32333432CF
:1061DA002E303136373300414755415244452E2E31
:1061EA002E004D4D43205665722E20330053656DA7
:1061FA002043617274616F005665726966697175D0
:10620A0065006F206172717569766F00534420567C
:10621A0045522E20310042313A46454E4345006FE1
:10622A002063617274616F0042323A4C544C4F00E1
:10623A0046454E43453A0044454E54524F00746514
:10624A00737465004750474741004750524D430019
:10625A004649583A00464F5241002E746C6D006C04
:10626A006F3A006C743A00464154004E2F41000DBB
:05627A000A007C000099
:020000040020DA
:08000000FFFFFFFFFFFFFFFF00
:020000040030CA
:0E00000000051F1FFF8385FF0FC00FE00F409C
:00000001FF
