:0400000007EF00F016
:100008004682FAED1AF0F9EF21F0B4C0C5F0B75105
:10001800D96EDA6A000EDE6E000EDD6E20EE04F098
:10002800B251D926B351DA22DECF20F0DDCF21F04C
:10003800B2C0D9FFB3C0DAFFDECF22F0DDCF23F0A4
:100048006DEC27F00001C46FC451D8A4120020EE53
:1000580002F0B251D926B351DA22DFBE120020EEE7
:1000680002F0B251D926B351DA22DFA2120020EEF3
:100078000AF0B251D926B351DA2210EE0AF0B25181
:10008800E126B351E222E6CFBCF0E6CFBDF0E6CFE1
:10009800BEF0E6CFBFF0B551BC25C06FB651BD214B
:1000A800C16F000EBE21C26F000EBF21C36FDE50AC
:1000B800C05DDE50C159DE50C259DE50C359D8A0C8
:1000C80012002AD220EE06F0B251D926B351DA2214
:1000D800FF0EDE14B86F010EDE14B96F000EDE14C9
:1000E800BA6F000EDE14BB6FB851B911BA11BB114B
:1000F800D8A45CD120EE04F0B251D926B351DA224B
:1001080010EE1DF0DE50E126DD50E22220EE03F075
:10011800B251D926B351DA22E650DE5CD8A06BD0B2
:1001280020EE06F0B251D926B351DA22DE50DE10A5
:10013800DE10DE10D8A423D020EE0EF0B251D9265E
:10014800B351DA22DECFCCF0DDCFCDF0CC51CD11DA
:10015800D8A425D0000EA56F000EA46F6FEC16F082
:10016800A4C0CCF0A5C0CDF020EE0EF0B251D92637
:10017800B351DA22CCC0DEFFCDC0DDFF10D020EEB7
:1001880010F0B251D926B351DA22DECFA4F0DDCF78
:10019800A5F06FEC16F0A4C0CCF0A5C0CDF0CC5102
:1001A800CD11D8B4BDD1CC05CD11D8B4ECD120EE49
:1001B80004F0B251D926B351DA2210EE16F0DE500F
:1001C800E126DD50E222E650CC5DE650CD59D8B0AC
:1001D800DAD120EE10F0B251D926B351DA22CCC0D0
:1001E800DEFFCDC0DDFF20EE03F0B251D926B351BA
:1001F800DA22000EDF6E20EE10F0B251D926B3518C
:10020800DA22DECF26F0DDCF27F03CEC1FF000012C
:1002180020EE03F0B251D926B351DA22DF50B86F7D
:10022800B8512624C66F000E2720C76F000E28205D
:10023800C86F000E2920C96FB5C0B8F0B6C0B9F0B4
:10024800090EBA6FD890B933B833BA2FFBD7B8C0F4
:10025800CAF0B9C0CBF0CA51CB11D8B469D020EEDE
:1002680003F0B251D926B351DA22DF50B86FB85132
:10027800CA25B96F000ECB21BA6F20EE04F0B25137
:10028800D926B351DA2210EE1DF0DE50E126DD50FA
:10029800E222E750BB6FBC6BB951BB5DBA51BC5988
:1002A800D8B01CD020EE04F0B251D926B351DA22CE
:1002B80010EE1DF0DE50E126DD50E222E750B86F67
:1002C80020EE03F0B251D926B351DA22DF50B96FCC
:1002D800B951B85DCA6FCB6BD8A0CB07C5C06CF05D
:1002E8006D6BC6C06EF0C7C06FF0C8C070F0C9C0F3
:1002F80071F0CAC072F0000ED6EC26F00009D8A43E
:1003080042D120EE03F0B251D926B351DA22CA51B4
:10031800DF26CAC0B8F0CBC0B9F0090ED890B837FC
:10032800B937E82EFBD7B8C0CEF0B9C0CFF0DAD0D5
:1003380020EE0AF0B251D926B351DA2210EE06F0B7
:10034800B251E126B351E222DE50E65CDE50E658B7
:10035800DE50E658DE50E658D8A021D0000E776F60
:10036800000E786F000E796F000E7A6F9AEC15F018
:100378000009D8B408D120EE04F0B251D926B351FF
:10038800DA2210EE04F0DE50E126DD50E222C6C08B
:10039800E6FFC7C0E6FFC8C0E6FFC9C0E6FF20EE1B
:1003A80003F0B251D926B351DA22DF2A20EE10F039
:1003B800B251D926B351DA22DECF26F0DDCF27F0AD
:1003C8003CEC1FF0000120EE03F0B251D926B351E6
:1003D800DA22DF50B86FB8512624B96F000E2720F3
:1003E800BA6F000E2820BB6F000E2920BC6FFF0ECD
:1003F800B925C66FFF0EBA21C76FFF0EBB21C86FA4
:10040800FF0EBC21C96FC6C077F0C7C078F0C8C05E
:1004180079F0C9C07AF09AEC15F00009D8B4B3D0D5
:10042800FF0EB86F010EB96F20EE06F0B251D92653
:10043800B351DA22DECFBAF0DDCFBBF0B851BA172C
:10044800B951BB17BA510008CE6FBB51D8A0E82AE2
:100458000208CF6FCE51B55DCF51B659D8B004D090
:10046800B5C0CEF0B6C0CFF0FF0EB86F010EB96FB1
:1004780020EE06F0B251D926B351DA22DECFBAF017
:10048800DDCFBBF0B851BA17B951BB1720EE04F055
:10049800B251D926B351DA22DECFBCF0DDCFBDF0A0
:1004A800BA51BC27BB51BD23200EBC251A6E000EC5
:1004B800BD211B6EC5C01CF01D6ACEC01EF0CFC08A
:1004C8001FF0B3EC27F0000120EE04F0B251D9265A
:1004D800B351DA2210EE1FF0DE50E126DD50E222A1
:1004E800010EE76ECE51C52720EE06F0B251D9268F
:1004F800B351DA22CE51DE26CF51DE22000EDE22A3
:10050800DE22B751D96EDA6ACE51DE26CF51DD220E
:10051800CE51B55FCF51B65BB551B611D8A4D2D57F
:1005280020EE06F0B251D926B351DA2210EE0AF0C5
:10053800B251E126B351E222DE50E65CDE50E658C5
:10054800DE50E658DE50E658D8B014D020EE06F05B
:10055800B251D926B351DA2210EE0AF0B251E1268F
:10056800B351E222DECFE6FFDECFE6FFDECFE6FFC5
:10057800DECFE6FF20EE02F0B251D926B351DA22DF
:10058800000EDB8A120020EE02F0B251D926B351D8
:10059800DA22000EDB8E12007D51D96EDA6ADECFC8
:1005A800A1F0DDCFA2F003D00001A14BA22BA1C086
:1005B800F6FFA2C0F7FFF86A070EF76403D0080039
:1005C800F55005D0F6CFE1FFF7CFE2FFE750200A5C
:1005D800D8B4EAD7A1C0F6FFA2C0F7FFF86A070EA1
:1005E800F76403D00800F55005D0F6CFE1FFF7CF48
:1005F800E2FFE7502F0AD8A403D00001A14BA22B99
:1006080000017D51D96EDA6AA1C0DEFFA2C0DDFF0C
:1006180034C0A9F035C0AAF0A951AA11D8A402D0B3
:100628000A0E120020EE1CF0A951D926AA51DA228E
:10063800DF50D8B40FD0000EC9EC28F00001A46F29
:10064800A4B108D07E51D8A4A4A502D0090E1200E6
:10065800000E1200A9C01AF0AAC01BF0000E1D6EF1
:10066800000E1C6E020E1F6E200E1E6EE1EC28F0AE
:10067800000E5EEC29F00001A46FA4A102D0010EC7
:1006880012007E51D8B402D0A4B5E0D7000E996FFD
:10069800000E9A6F000E9B6F000E9C6F99C077F04A
:1006A8009AC078F09BC079F09CC07AF07DEC22F07B
:1006B8000001A36FA305D8A423D021EEE2F0A9512D
:1006C800D926AA51DA22DF50D8B41AD021EEE6F0A2
:1006D800A951D926AA51DA22DECF99F0DECF9AF0B5
:1006E800DECF9BF0DECF9CF099C077F09AC078F00F
:1006F8009BC079F09CC07AF07DEC22F00001A36FDA
:10070800A351D8A40CD020EE2BF0A951D926AA5178
:10071800DA22DE5004E1020EDE18D8B402D00B0E45
:10072800120020EE36F0A951D926AA51DA22DECFDE
:100738007FF0DDCF80F07FC0A5F080C0A6F0A76B6A
:10074800A86BA551A611A711A811D8A40ED020EE08
:1007580044F0A951D926AA51DA22DECFA5F0DECF7E
:10076800A6F0DECFA7F0DECFA8F020EE14F0A95156
:10077800D926AA51DA22A5C0DEFFA6C0DDFF20EEE9
:1007880030F0A951D926AA51DA2210EE1EF0A9514B
:10079800E126AA51E222DFCFE7FFA5C01AF0A6C0E2
:1007A8001BF0A7C01CF0A8C01DF020EE1EF0A95138
:1007B800D926AA51DA22DF507F6F7F511E6E1F6A39
:1007C800206A216ADEEC25F01AC0A5F01BC0A6F04D
:1007D8001CC0A7F01DC0A8F0000120EE2EF0A95102
:1007E800D926AA51DA22DECF7FF0DDCF80F07F5103
:1007F8009925816F80519A21826F000E9B21836F0A
:10080800000E9C21846F20EE08F0A951D926AA5128
:10081800DA2281C0DEFF82C0DEFF83C0DEFF84C033
:10082800DEFF20EE2DF0A951D926AA51DA2210EECA
:100838001DF0A951E126AA51E222DFCFE7FF20EE01
:1008480031F0A951D926AA51DA2210EE02F0A951A5
:10085800E126AA51E222DECFE6FFDDCFE5FF20EE5A
:1008680033F0A951D926AA51DA22DECF7FF0DDCFA5
:1008780080F07FC09DF080C09EF09F6BA06B9D5163
:100888009E119F11A011D8A40ED020EE40F0A951BE
:10089800D926AA51DA22DECF9DF0DECF9EF0DECF38
:1008A8009FF0DECFA0F020EE02F0A951D926AA5180
:1008B800DA22DECF7FF0DDCF80F0040E816FD89092
:1008C80080337F33812FFBD77F51826F8051836FB5
:1008D800846B856B20EE2EF0A951D926AA51DA2215
:1008E800DECF86F0DDCF87F08651886F8751896F1C
:1008F8008A6B8B6B881F891F8A1F8B1F882B000EA2
:1009080089238A238B23A551885D8C6FA651895929
:100918008D6FA7518A598E6FA8518B598F6F82514D
:100928008C5D906F83518D59916F84518E59926F60
:1009380085518F59936F9D5190251A6E9E51912123
:100948001B6E9F5192211C6EA05193211D6E20EEAB
:100958001DF0A951D926AA51DA22DF50946F94517B
:100968001E6E1F6A206A216ABEEC22F0020E1A244B
:100978000001956F000E1B20966F000E1C20976FCC
:10098800000E1D20986F20EE16F0A951D926AA5105
:10099800DA2295C0DEFF96C0DDFF010EA36F9851E5
:1009A800971106E1F70E955D0F0E9659D8A002D063
:1009B800020EA36F9851971107E1F70E955DFF0E90
:1009C8009659D8B0ACD601D0AAD620EE08F0A951D5
:1009D800D926AA51DA22DECF7FF0DECF80F0DECF33
:1009E80081F0DECF82F0A5517F25836FA65180214B
:1009F800846FA7518121856FA8518221866F20EECF
:100A08000CF0A951D926AA51DA2283C0DEFF84C08E
:100A1800DEFF85C0DEFF86C0DEFF20EE08F0A951AC
:100A2800D926AA51DA22DECF7FF0DECF80F0DECFE2
:100A380081F0DECF82F020EE02F0A951D926AA512A
:100A4800DA22DECF83F0DDCF84F0040E856FD890F4
:100A580084338333852FFBD783517F25866F845159
:100A68008021876F000E8121886F000E8221896F97
:100A7800A55186258A6FA65187218B6FA75188219A
:100A88008C6FA85189218D6F20EE10F0A951D926BD
:100A9800AA51DA228AC0DEFF8BC0DEFF8CC0DEFFDF
:100AA8008DC0DEFF20EE1AF0A951D926AA51DA220C
:100AB800FF0EDE6EFF0EDD6E20EE1CF0A951D9266A
:100AC800AA51DA22A3C0DFFF0101454B462BA9C07A
:100AD800D9FFAAC0DAFF45C1DEFF46C1DDFF000E1F
:100AE800120020EE04F0B251D926B351DA22DECF3B
:100AF80020F0DDCF21F0B2C0D9FFB3C0DAFFDECFDE
:100B080022F0DDCF23F06DEC27F00001C86FC8514B
:100B1800D8A4120020EE02F0B251D926B351DA223D
:100B2800DFBE120020EE0AF0B251D926B351DA2204
:100B3800B451DE5CB551DE58B651DE58B751DE58B7
:100B4800D8B016D020EE02F0B251D926B351DA222D
:100B5800DFB20ED020EE0AF0B251D926B351DA2214
:100B6800DECFB4F0DECFB5F0DECFB6F0DECFB7F033
:100B780020EE06F0B251D926B351DA22DECFC9F001
:100B8800DECFCAF0DECFCBF0DECFCCF020EE06F021
:100B9800B251D926B351DA22DE6ADE6ADE6ADD6A2C
:100BA80020EE03F0B251D926B351DA22FF0EDF6EE0
:100BB800B451B511B611B711D8B49CD120EE04F0D8
:100BC800B251D926B351DA2210EE1DF0DE50E126DB
:100BD800DD50E222E750B86FB8C0B9F0BA6BBB6B12
:100BE800BC6B090ED890B937BA37BB37BC37E82E7B
:100BF800F9D7B9C0CDF0BAC0CEF0BBC0CFF0BCC0F9
:100C0800D0F0C951CA11CB11CC11D8B493D0FF0E72
:100C1800B4251A6EFF0EB5211B6EFF0EB6211C6E91
:100C2800FF0EB7211D6ECDC01EF0CEC01FF0CFC085
:100C380020F0D0C021F0BEEC22F01AC0B8F01BC0E2
:100C4800B9F01CC0BAF01DC0BBF0FF0E0001C925E9
:100C58001A6EFF0ECA211B6EFF0ECB211C6EFF0EF3
:100C6800CC211D6ECDC01EF0CEC01FF0CFC020F02D
:100C7800D0C021F0BEEC22F01A500001B85D1B5024
:100C8800B9591C50BA591D50BB59D8A053D0FF0EA2
:100C9800CD25B86FFF0ECE21B96FFF0ECF21BA6FE9
:100CA800FF0ED021BB6FB81DBC6FB91DBD6FBA1D3B
:100CB800BE6FBB1DBF6FFF0EC925C06FFF0ECA21D7
:100CC800C16FFF0ECB21C26FFF0ECC21C36FBC5189
:100CD800C015C46FBD51C115C56FBE51C215C66FD1
:100CE800BF51C315C76F20EE06F0B251D926B351D4
:100CF800DA22C4C0DEFFC5C0DEFFC6C0DEFFC7C043
:100D0800DEFF20EE06F0B251D926B351DA22DE50CA
:100D1800B45FDE50B55BDE50B65BDD50B75B20EEEE
:100D280010F0B251D926B351DA22DECFD1F0DDCF9F
:100D3800D2F030D020EE0EF0B251D926B351DA22DB
:100D4800DECFD1F0DDCFD2F0D151D211D8A418D056
:100D5800000EA56F000EA46F6FEC16F0A4C0D1F0C2
:100D6800A5C0D2F0D105D211D8B4F7D020EE0EF03C
:100D7800B251D926B351DA22D1C0DEFFD2C0DDFF8D
:100D880020EE10F0B251D926B351DA22D1C0DEFFDD
:100D9800D2C0DDFFD151D211D8A462D0ABD020EEA1
:100DA80002F0B251D926B351DA22DFA217D0D1C04E
:100DB800A4F0D2C0A5F06FEC16F0A4C0D1F0A5C085
:100DC800D2F0D151D211D8A413D0CDC0B4F0CEC036
:100DD800B5F0CFC0B6F0D0C0B7F04CD0D1C02EF02F
:100DE800D2C02FF0ACEC13F02EC0D1F02FC0D2F04F
:100DF800D25104E1020ED15DD8A0AFD020EE04F0AC
:100E0800B251D926B351DA2210EE16F0DE50E1269F
:100E1800DD50E222E650D15DE650D259D8B09DD0DF
:100E280020EE10F0B251D926B351DA22D1C0DEFF3C
:100E3800D2C0DDFF20EE06F0B251D926B351DA2236
:100E4800CD51DE26CE51DE22CF51DE22D051DE2218
:100E5800CD51B45FCE51B55BCF51B65BD051B75BC6
:100E6800B451CD5DB551CE59B651CF59B751D059BE
:100E7800D8A095D720EE06F0B251D926B351DA2280
:100E8800B451DE26B551DE22B651DE22B751DE223C
:100E980020EE03F0B251D926B351DA22B4C0B8F02B
:100EA800B5C0B9F0B6C0BAF0B7C0BBF00A0E05D0ED
:100EB800D890BB33BA33B933B833E82EF9D7B85121
:100EC800DF6EFF0EB415B86F010EB515B96F000EC1
:100ED800B615BA6F000EB715BB6FB851B911BA1174
:100EE800BB11D8B407D020EE03F0B251D926B351C4
:100EF800DA22DF2A20EE06F0B251D926B351DA22DF
:100F080010EE0AF0B251E126B351E222DE50E65C5F
:100F1800DE50E658DE50E658DE50E658D8B01200EB
:100F280020EE06F0B251D926B351DA2210EE0AF0BB
:100F3800B251E126B351E222DECFE6FFDECFE6FF73
:100F4800DECFE6FFDECFE6FF20EE02F0B251D92673
:100F5800B351DA22000EDB8A120020EE02F0B25101
:100F6800D926B351DA22000EDB8E1200E20E0201FE
:100F78005A6F000E4F6F000E4E6F4EC25BF24FC29B
:100F88005CF25B2903E15C29D8B41200E0C0F6FFEB
:100F9800E1C0F7FF0800F5CF5FF20001E04BE12B5D
:100FA80002015F51D8B41200250E5F19D8B419D0C8
:100FB8005FC2D0F00001D16BDEC0D2F0DFC0D3F049
:100FC80037EC28F0D0C05BF2D1C05CF202015B299B
:100FD80003E15C29D8B484D1000E5C6F010E5B6F0D
:100FE8007FD1000E546F54C252F2536BE0C0F6FF2B
:100FF800E1C0F7FF0800F5CF5FF20001E04BE12BFD
:10100800300E02015F19D8A423D0010E546FE0C03E
:10101800F6FFE1C0F7FF0800F5CF5FF20001E04BF3
:10102800E12B16D052C21AF053C21BF0000E1D6EEF
:101038000A0E1C6E71EC29F002015F511A26000E8F
:101048001B22D00E1A24526FFF0E1B20536FDFD7BE
:101058002F0E02015F6503D0390E5F65E3D76C0E72
:101068005F19D8A40BD05483E0C0F6FFE1C0F7FFA6
:101078000800F5CF5FF20001E04BE12B730E02018F
:101088005F19D8A415D05A51D96EDA6ADECFD7F0D5
:10109800DDCFD8F0DEC0D9F0DFC0DAF084EC25F07F
:1010A800D7C05BF2D8C05CF2020E02015A2718D1F1
:1010B800630E5F19D8A41DD05A51D96EDA6ADF5071
:1010C8000001EC6FEC51D06FD16BDEC0D2F0DFC005
:1010D800D3F037EC28F0D0C05BF2D1C05CF2020E3E
:1010E80002015A275B2904E15C29D8A475D7F8D0F6
:1010F80073D7000E556F640E5F19D8A402D00A0E7C
:10110800556F750E5F19D8A402D00A0E556F580E88
:101118005F19D8A402D0100E556F5551D8B41200DB
:1011280054A30DD05A51D96EDA6ADECF56F2DECF0B
:1011380057F2DECF58F2DECF59F2040E1FD0640EFC
:101148005F19D8B40ED05A51D96EDA6ADECFECF0F6
:10115800DDCFEDF0ECC056F2EDC057F2586B596B8D
:101168000CD05A51D96EDA6ADECF56F2DDCF57F27B
:10117800000E57BFFF0E586F596F020E5A27640EA4
:101188005F19D8A40ED0800E595DD8A00AD0566D2C
:10119800571FD8B0572B581FD8B0582B000E595787
:1011A8005485000E5E6F0F0E5D6F000E4D6F56C2B8
:1011B8001AF057C21BF058C21CF059C21DF0555105
:1011C8001E6E1F6A206A216A96EC24F01A50300FAE
:1011D80002015F6F390E5F6502D0070E5F275D075A
:1011E800D8A05E073E0E5D25D96E020E5E21DA6E2E
:1011F8005FC2DFFF56C21AF057C21BF058C21CF07C
:1012080059C21DF055511E6E1F6A206A216ABEEC34
:1012180022F01AC056F21BC057F21CC058F21DC06B
:1012280059F202015D515E11D8B406D056515711DA
:1012380058115911D8A4BBD75D515E11D8A454A533
:101248000BD05D07D8A05E073E0E5D25D96E020E55
:101258005E21DA6E2D0EDF6E52510F08526F535118
:10126800D8A0E82A0008536F16D0020154B104D060
:10127800000E516F200E03D0000E516F300E506FCC
:101288005D07D8A05E073E0E5D25D96E020E5E2171
:10129800DA6E50C2DFFF5D515E11D8B40DD05D51DA
:1012A800525D5351800A0001EC6F02015E51800AC1
:1012B8000001EC59D8A0D9D73E0E02015D250001E6
:1012C800D76F020E02015E210001D86FDEC0D9F08F
:1012D800DFC0DAF084EC25F0D7C05BF2D8C05CF24E
:1012E80002015B514E275C514F234BD620EE04F090
:1012F800C451D926C551DA22000EDE6E000EDD6E0D
:101308001F0EC817C60E7D6FC8511E0B7E6FD0EC1E
:1013180002F00001DF6FDF51D8B402D0DF511200B4
:10132800E20EAB6FCD0EAC6FC6C0ADF0C7C0AEF06D
:10133800E00EAF6F93EC0CF0DF6FC8C0C9F01C0E65
:10134800C917D8B4DDD0DF51D8B434D0020EDF19B4
:10135800D8A4E4D7E20EB26FE00EB36FD0EC0DF074
:10136800DF6FDF51D8A4DAD7E0C01AF0E1C01BF074
:10137800000E1D6E000E1C6E000E1F6E200E1E6EDF
:10138800E1EC28F0E0C01AF0E1C01BF0CD0E1C6EB5
:101398001D6A000E1F6E0B0E1E6EB3EC27F00001C7
:1013A80020EE0CF0E051D926E151DA22D8C0DFFF57
:1013B800C8877AD0C8A502D0070E1200E051E11103
:1013C800D8B40CD020EE0BF0E051D926E151DA2246
:1013D800DF50C96F110EC917D8B402D0060E12001B
:1013E800C8A762D020EE1AF0E051D926E151DA22DE
:1013F800DECFD9F0DDCFDAF020EE1AF0E051D926B1
:10140800E151DA22000EDE6E000EDD6E20EE1CF0D9
:10141800E051D926E151DA22DE6ADE6ADE6ADD6A47
:1014280020EE1FF0E651D926E751DA22010EDF6ED1
:1014380020EE04F0E651D926E751DA22DECFDBF0C0
:10144800DECFDCF0DECFDDF0DECFDEF0D9C0A4F0F9
:10145800DAC0A5F08EEC20F00009D8B40DD0DBC0BE
:1014680077F0DCC078F0DDC079F0DEC07AF09AEC75
:1014780015F00009D8A402D0080E1200FF0EC96F9B
:10148800FF0ECA6FD9C0CBF0DAC0CCF0C951CB2758
:10149800CA51CC2320EE18F0E651D926E751DA22BA
:1014A800CBC0DEFFCCC0DDFFC8A745D020EE0BF0D7
:1014B800E051D926E151DA22000EDF6E95EC18F0E2
:1014C8001EC0DBF01FC0DCF020C0DDF021C0DEF064
:1014D80020EE0EF0E051D926E151DA22DBC0DEFF22
:1014E800DCC0DEFFDDC0DEFFDEC0DEFF20EE1FF069
:1014F800E651D926E751DA22010EDF6EC88B1BD0E0
:10150800DF51D8A40BD7E051E111D8B408D020EEB0
:101518000BF0E051D926E151DA22DFA802D0020E01
:101528001200C8A308D020EE0BF0E051D926E151F3
:10153800DA22DFB053D720EE04F0E651D926E7517E
:10154800DA2210EE16F0C451E126C551E222DECFB0
:10155800E6FFDECFE6FFDECFE6FFDECFE6FF20EEDA
:101568001AF0C451D926C551DA22E0C0DEFFE1C025
:10157800DDFF20EE02F0C451D926C551DA22C8C0D9
:10158800DFFF20EE1AF0E051D926E151DA2210EE01
:101598000EF0C451E126C551E222DECFE6FFDDCFD1
:1015A800E5FF20EE1CF0E051D926E151DA2210EED9
:1015B8000AF0C451E126C551E222DECFE6FFDECFB4
:1015C800E6FFDECFE6FFDECFE6FF20EE06F0C451F1
:1015D800D926C551DA22DE6ADE6ADE6ADD6A20EEC5
:1015E80003F0C451D926C551DA22FF0EDF6E20EE72
:1015F80004F0C451D926C551DA22E6C0DEFFE7C09F
:10160800DDFFE6C0D9FFE7C0DAFFC4C0E1FFC5C00F
:10161800E2FFDECFE6FFDDCFE5FF000E1200000E91
:101628000001646F000E636F000E6A6F000E696F31
:10163800000E6B6F100E2D6E940EE82EFED72D2E19
:10164800FCD700D0640E57EC28F025EC21F0AA0E48
:101658001F6E010E206E000E216E000E226E870E88
:10166800236E480EB1EC25F0C7EC2AF0C1EC2AF045
:101678000001676F6705D8A404D06751666F656B72
:1016880006D0AA0E6719D8A402D067516513634B18
:10169800642BAA0E651903E16605D8B408D064BFA7
:1016A800E5D7E80E635D030E6459D8A0DFD7AA0E0C
:1016B800651902E16605D8A49ED0000E6A6F000E77
:1016C800696F0A0E57EC28F0000E1F6E000E206E90
:1016D800000E216E000E226E000E236E770EB1EC06
:1016E80025F0C7EC2AF0C1EC2AF000016B6F694BBA
:1016F8006A2B6B05D8B408D06ABFF5D76A5104E1E4
:101708000A0E695DD8A0EFD7000E6A6F000E696FE8
:101718000A0E57EC28F0000E1F6E000E206E000E09
:10172800216E400E226E000E236E690EB1EC25F07C
:10173800C7EC2AF0C1EC2AF000016B6F694B6A2BE9
:101748006B51D8A4BED70A0E57EC28F0000E1F6EB6
:10175800000E206E000E216E000E226EFF0E236E0C
:101768007A0EB1EC25F0C7EC2AF0C1EC2AF00001A2
:101778006B6F6B516B25800B686F694B6A2B6851D7
:10178800D8B40BD06805D8B408D06ABFEED76A5170
:1017980004E10A0E695DD8A0E8D76851D8B403D02F
:1017A8006805D8A48AD7100E2D6E940EE82EFED7A1
:1017B8002D2EFCD700D0000E0001626F6851D8A40E
:1017C800ACD00A0E57EC28F0000E1F6E020E206EE9
:1017D800000E216E000E226EFF0E236E500EB1EC2D
:1017E80025F0C7EC2AF0C1EC2AF000016B6F6B51B1
:1017F800D8B493D0F8D7000E6A6F000E696F010E47
:1018080057EC28F0000E1F6E000E206E000E216EA1
:10181800000E226EFF0E236E690EB1EC25F0C7ECA8
:101828002AF0C1EC2AF000016B6F694B6A2B6B51EF
:10183800D8A40BD0000E1D6E010EFBEC24F0210E77
:101848001D6E620E1E6E34EC26F0100E2D6E940E78
:10185800E82EFED72D2EFCD700D000016B51D8B44E
:1018680008D06ABFDED7100E695D270E6A59D8A066
:10187800D8D70A0E69196A11D8A436D0000E6A6F33
:10188800000E696F0A0E57EC28F0000E1F6E000E4E
:10189800206E000E216E000E226EFF0E236E410E8A
:1018A800B1EC25F0C7EC2AF0C1EC2AF000016B6F0F
:1018B800694B6A2B6B51D8A40BD0000E1D6E010E1C
:1018C800FBEC24F0F70E1D6E610E1E6E34EC26F054
:1018D80000016B51D8B408D06ABFE6D7100E695D15
:1018E800270E6A59D8A0E0D70A0E57EC28F0000E48
:1018F8001F6E020E206E000E216E000E226EFF0E6D
:10190800236E500EB1EC25F0C7EC2AF0C1EC2AF09A
:1019180000016B6F6B51D8A4F9D76251120034C023
:10192800B8F035C0B9F0AB51D96EDA6A040ED926D1
:10193800B8C0DEFFB9C0DDFF20EE0CF0B851D926E3
:10194800B951DA22DECFBAF0DDCFBBF0AB51D96E98
:10195800DA6A060ED926000EDE6E000EDD6EAB5179
:10196800E16EE26A080EE126DECFE6FFDDCFE5FF95
:10197800BA51B06FBB51B16FB26BB36BAB51D96E8B
:10198800DA6A0A0ED926B0C0DEFFB1C0DEFFB2C0E7
:10199800DEFFB3C0DEFFAB51D96EDA6A020ED9267C
:1019A800000EDE6E000EDD6EADC0F6FFAEC0F7FFB6
:1019B800F86A070EF76403D00800F55005D0F6CF93
:1019C800E1FFF7CFE2FFE7500009D8A40AD00001F1
:1019D800AF51D96EDA6A000EDE6E000EDD6E000EB3
:1019E8001200AD0E226EACC023F0E8EC17F0000137
:1019F800BC6FBC05D8A402D0040E1200AB51D96E3E
:101A0800DA6A0A0ED926DECF77F0DECF78F0DECF9D
:101A180079F0DECF7AF09AEC15F00009D8A402D05C
:101A2800080E1200AB51D96EDA6A020ED926DECF43
:101A3800B0F0DDCFB1F00F0EB017000EB117050EE4
:101A4800D890B037B137E82EFBD7B8C0B2F0B9C0DC
:101A5800B3F0B051B227B151B323200EB225BD6FF8
:101A6800000EB321BE6FBDC0D9FFBEC0DAFFDF5084
:101A7800D8A40DD0BC51D8B404D0000EB56F030E55
:101A880003D0000EB56F020EB46FB4511200BDC082
:101A9800D9FFBEC0DAFFE50EDE18D8B419D020EEA3
:101AA8000BF0BD51D926BE51DA22DFB611D0BDC028
:101AB8001AF0BEC01BF0ACC01CF01D6A000E1F6EF1
:101AC8000B0E1E6EDCEC20F01A501B10D8B414D08C
:101AD800ABC09FF035EC17F00009D8A48FD7BC51E4
:101AE800D8B404D0000EB76F030E03D0000EB76F42
:101AF800020EB66FB65112000001BC51D8A408D02E
:101B0800AF51D96EDA6ABDC0DEFFBEC0DDFF67D750
:101B180020EE0BF0BD51D926BE51DA22DFB802D033
:101B2800030E120020EE1AF0BD51D926BE51DA225A
:101B3800DECFBAF0DDCFBBF0AB51D96EDA6A060E54
:101B4800D926BAC0DEFFBBC0DDFFAB51E16EE26A49
:101B5800080EE126DECFE6FFDDCFE5FFBAC026F0AE
:101B6800BBC027F03CEC1FF00001AB51D96EDA6A1C
:101B78000A0ED92626C0DEFF27C0DEFF28C0DEFFFA
:101B880029C0DEFFAB51D96EDA6A020ED926020EE1
:101B9800DE6E000EDD6E25D7B251D96EDA6A040EFC
:101BA800D926DECFC2F0DDCFC3F0B251D96EDA6AE2
:101BB800060ED926DECFC0F0DDCFC1F0C051C1116D
:101BC800D8B41ED0B251D96EDA6A080ED926C0C070
:101BD800DEFFC1C0DDFFC0C026F0C1C027F03CEC6D
:101BE8001FF00001B251D96EDA6A0A0ED92626C052
:101BF800DEFF27C0DEFF28C0DEFF29C0DEFF13D0CE
:101C080020EE0CF0C251D926C351DA22B251E16E4E
:101C1800E26A0A0EE126DECFE6FFDECFE6FFDECF80
:101C2800E6FFDECFE6FFB251D96EDA6A020ED92698
:101C3800000EDE6E000EDD6EB251D96EDA6A0A0E43
:101C4800D926DECF77F0DECF78F0DECF79F0DECFA1
:101C58007AF09AEC15F00009D8A402D0080E120008
:101C6800B251D96EDA6A020ED926DECFB4F0DDCFD2
:101C7800B5F00F0EB417000EB517050ED890B4378F
:101C8800B537E82EFBD7C2C0B6F0C3C0B7F0B45121
:101C9800B627B551B723200EB625BD6F000EB72164
:101CA800BE6FBDC0D9FFBEC0DAFFDF50BF6FBF51E6
:101CB800D8B404D0E50EBF19D8A409D0B351D96E51
:101CC800DA6ABDC0DEFFBEC0DDFF000E1200B2C082
:101CD8009FF035EC17F00009D8A4AED7C051C11158
:101CE800D8B413D0B251D96EDA6A080ED926DECF2D
:101CF800A4F0DDCFA5F06FEC16F0A4C0C0F0A5C02D
:101D0800C1F0C051C111D8A402D0060E1200C005FE
:101D1800C111D8B4A3D7000E776F000E786F000EEC
:101D2800796F000E7A6F9AEC15F00009D8B496D73F
:101D3800C0C026F0C1C027F03CEC1FF026C0B8F0A8
:101D480027C0B9F028C0BAF029C0BBF0000120EEC6
:101D580004F0C251D926C351DA22B8C0DEFFB9C097
:101D6800DEFFBAC0DEFFBBC0DEFF200EC2251A6E42
:101D7800000EC3211B6E000E1D6E000E1C6E020E9F
:101D88001F6E000E1E6EE1EC28F0000120EE1DF023
:101D9800C251D926C351DA22DF50BC6F1DD0200EA4
:101DA800C2256C6F000EC3216D6FB8C06EF0B9C04C
:101DB8006FF0BAC070F0BBC071F0010E726F000E08
:101DC800D6EC26F00009D8A449D7010EB827000E92
:101DD800B923BA23BB23BC07BC51D8A4E0D720EE53
:101DE8001FF0C251D926C351DA22010EDF6E200E30
:101DF800C225B46F000EC321B56FB351D96EDA6A2C
:101E0800B4C0DEFFB5C0DDFF60D70B6E0BC00CF0B1
:101E180029D14304D8A405D0000E01014A6F010E50
:101E2800496F020E4318D8A405D0000E0101486F6F
:101E3800010E476F010149514A11D8B412004751A8
:101E48004811D8B41200000E486F000E476F47C102
:101E580049F148C14AF11200000E446E44C042F0F4
:101E68001200910E4424D96EDA6A010EDA22000EAD
:101E7800DF6E4250D8A432D0910E016E010E026E70
:101E8800B50E036E010E046E000E066E000E056E92
:101E9800050E076EFDEC26F0B50E016E010E026E02
:101EA800590E036E620E046E24EC27F001500210E6
:101EB800D8A402D0010E11D0B50E016E010E026E2B
:101EC800530E036E620E046E24EC27F001500210CC
:101ED800D8A402D0020E01D0030E436E4204D8A447
:101EE80015D04304D8A412D0910E016E010E026ED3
:101EF8009D0E036E010E046E000E066E000E056E3A
:101F0800060E076EFDEC26F001012981030E42182A
:101F1800D8A415D04304D8A412D0910E016E010E96
:101F2800026ED70E036E010E046E000E066E010ED1
:101F3800056E0A0E076EFDEC26F001012A81040EDB
:101F48004218D8A40CD04304D8A409D04E0E0101DD
:101F58009119D8A402D0300E01D02D0ED76F050EDE
:101F68004218D8A415D04304D8A412D0910E016EFB
:101F7800010E026ECB0E036E010E046E000E066E8D
:101F8800010E056E0B0E076EFDEC26F001012B818C
:101F9800060E4218D8A40CD04304D8A409D0450E84
:101FA80001019119D8A402D0300E01D02D0ECB6FAB
:101FB800070E4218D8A415D04304D8A412D0910E05
:101FC800016E010E026EAF0E036E010E046E000E5E
:101FD800066E000E056E030E076EFDEC26F001017D
:101FE8002E81090E4218D8A415D04304D8A412D0C3
:101FF800910E016E010E026EA80E036E010E046EA4
:10200800000E066E000E056E060E076EFDEC26F03D
:1020180001012C81060E4218D8A416D0020E4318CE
:10202800D8A412D0910E016E010E026EBB0E036E83
:10203800010E046E000E066E000E056E020E076E8F
:10204800FDEC26F001012D81422A000E446E12009B
:10205800910E4424D96EDA6A010EDA220CC0DFFF31
:10206800442A12000C500D0AD8B4D3D6290AD8B481
:10207800F3D6080AD8B4F5D6EBD734C0A2F035C0E9
:10208800A3F020EE08F0A251D926A351DA22DECF20
:102098009AF0DECF9BF0DECF9CF0DECF9DF008D12A
:1020A8008CC01AF08DC01BF0000E1D6E030E1C6E46
:1020B80071EC29F0D8901B300001906F1A309E6F98
:1020C80090C09FF09EC090F09FC091F0090E926F53
:1020D800D89091339033922FFBD790519A25776FF0
:1020E80091519B21786F000E9C21796F000E9D21E4
:1020F8007A6F9AEC15F00009D8A402D0000E1200ED
:10210800FF0E906F010E916F9EC092F09FC093F0EA
:102118009051921791519317A2C094F0A3C095F0D3
:102128009251942793519523200E9425A06F000E69
:102138009521A16F8CB104D08EC096F0976B1AD000
:102148008E51906F916B903B913BF00E911790518F
:102158000F0B9113F00E9017A0C0D9FFA1C0DAFFA2
:10216800DF500F0B926F936B90519211966F9151B4
:102178009311976FA0C0D9FFA1C0DAFF96C0DFFF07
:102188009E4B9F2B20EE1FF0A251D926A351DA2295
:10219800010EDF6E9EC090F09FC091F0090E926F05
:1021A800D89091339033922FFBD790519A25776F1F
:1021B80091519B21786F000E9C21796F000E9D2113
:1021C8007A6F9AEC15F00009D8B498D7FF0E906F83
:1021D800010E916F9EC092F09FC093F0905192179C
:1021E80091519317A2C094F0A3C095F092519427EF
:1021F80093519523200E9425A06F000E9521A16F71
:102208008CB10ED08FC090F00F0E9017A0C0D9FFE0
:10221800A1C0DAFFDF50F00B9011916F91510CD0F3
:102228008EC090F08FC091F0040E926FD8909133C9
:102238009033922FFBD79051986F996BA0C0D9FF1C
:10224800A1C0DAFF98C0DFFF41D08D519A25776F82
:10225800000E9B21786F000E9C21796F000E9D2146
:102268007A6F9AEC15F00009D8B448D7FF0E906F32
:10227800010E916F8CC092F08DC093F0D890923778
:1022880093379051921791519317A2C094F0A3C01D
:1022980095F09251942793519523200E9425D96E49
:1022A800000E9521DA6E8EC0DEFF8FC0DDFF0ED0E6
:1022B80020EE1CF0A251D926A351DA22DF50010AE0
:1022C800D8B4EED6030AD8B4C0D718D720EE1FF07A
:1022D800A251D926A351DA22010EDF6E010E120097
:1022E800206E1EC01AF01FC01BF0F6EC27F01A5023
:1022F800216E02D1000E226E1EC0F6FF1FC0F7FF2E
:10230800F86A070E2224D96EDA6A020EDA22070E5C
:10231800F76403D00800F55005D0F6CFE1FFF7CFFA
:10232800E2FFE750DF6E1E4A1F2A222A050E2264AA
:10233800E3D71200000E226E1EC0F6FF1FC0F7FF83
:10234800F86A000E2224D96EDA6A020EDA22070E23
:10235800F76403D00800F55005D0F6CFE1FFF7CFBA
:10236800E2FFE750DF6E1E4A1F2A222A050E22646A
:10237800E3D71200000E226E1EC0F6FF1FC0F7FF43
:10238800F86A160E2224D96EDA6A020EDA22070ECD
:10239800F76403D00800F55005D0F6CFE1FFF7CF7A
:1023A800E2FFE750DF6E1E4A1F2A222A0A0E226425
:1023B800E3D71200000E226E1EC0F6FF1FC0F7FF03
:1023C800F86A230E2224D96EDA6A020EDA22070E80
:1023D800F76403D00800F55005D0F6CFE1FFF7CF3A
:1023E800E2FFE750DF6E1E4A1F2A222A0B0E2264E4
:1023F800E3D71200000E226E1AD01EC0F6FF1FC0CF
:10240800F7FFF86A340E2224D96EDA6A020EDA224D
:10241800070EF76403D00800F55005D0F6CFE1FFAA
:10242800F7CFE2FFE750DF6E1E4A1F2A222A21500B
:10243800225CD8B01200E1D7000E226E1EC0F6FF53
:102448001FC0F7FFF86A140E2224D96EDA6A020E4A
:10245800DA22070EF76403D00800F55005D0F6CF4E
:10246800E1FFF7CFE2FFE750DF6E1E4A1F2A222A5C
:10247800030E2264E3D71200000E226E1EC0F6FF80
:102488001FC0F7FFF86A120E2224D96EDA6A020E0C
:10249800DA22070EF76403D00800F55005D0F6CF0E
:1024A800E1FFF7CFE2FFE750DF6E1E4A1F2A222A1C
:1024B800050E2264E3D71200000E226E1EC0F6FF3E
:1024C8001FC0F7FFF86A300E2224D96EDA6A020EAE
:1024D800DA22070EF76403D00800F55005D0F6CFCE
:1024E800E1FFF7CFE2FFE750DF6E1E4A1F2A222ADC
:1024F800050E2264E3D712002050000AD8B4FAD699
:10250800010AD8B417D7030AD8B434D7010AD8B403
:1025180051D7070AD8B46ED7010AD8B48DD7030AA1
:10252800D8B4AAD7010AD8A41200C6D784A003D069
:102538003704D8A48FD030503110D8A411D0080E49
:102548001D6E020EFBEC24F0DEEC2AF01AC01DF022
:102558001BC01EF034EC26F0270E316E100E306EC4
:102568003604D8B475D0010E376E010EB3EC21F0E5
:10257800000E1D6E010EFBEC24F0450E1D6E620E62
:102588001E6E34EC26F0010135B10CD0080E1D6E1C
:10259800010EFBEC24F04C0E1D6E620E1E6E34EC28
:1025A80026F03ED0080E1D6E010EFBEC24F0640EE2
:1025B8001D6E620E1E6E34EC26F00D0E1D6E010EA1
:1025C800FBEC24F0010133A103D02F6A2F2A01D09C
:1025D8002F6A2F5000016C6F6D6B6E6B6F6B17EC71
:1025E80028F00E0E1D6E010EFBEC24F07D0E1D6E04
:1025F800620E1E6E34EC26F00F0E1D6E010EFBEC03
:1026080024F0010134A103D02F6A2F2A01D02F6AA8
:102618002F5000016C6F6D6B6E6B6F6B17EC28F0B1
:10262800000E1D6E020EFBEC24F05F0E1D6E620E96
:102638001E6E34EC26F0080E1D6E020EFBEC24F024
:10264800DEEC2AF01AC01DF01BC01EF034EC26F098
:10265800010E366E84A204D0020E3718D8A455D0C5
:1026680030503110D8A41AD0040E1D6E010EFBECA8
:1026780024F0000E1D6E000E1E6E34EC26F0040EC3
:102688001D6E020EFBEC24F0000E1D6E000E1E6E79
:1026980034EC26F0070E316ED00E306E020E36186E
:1026A800D8B431D0020E376E010EB3EC21F0000E13
:1026B8001D6E010EFBEC24F0720E1D6E620E1E6E76
:1026C80034EC26F0040E1D6E010EFBEC24F0000E17
:1026D8001D6E000E1E6E34EC26F0000E1D6E020EEE
:1026E800FBEC24F06E0E1D6E620E1E6E34EC26F0AE
:1026F800040E1D6E020EFBEC24F0000E1D6E000E83
:102708001E6E34EC26F0020E366E3750D8A4120036
:10271800040E3618D8B419D0010EB3EC21F0000E0F
:102728001D6E010EFBEC24F02B0E1D6E620E1E6E4C
:1027380034EC26F0000E1D6E020EFBEC24F03D0E6C
:102748001D6E620E1E6E34EC26F0040E366E1200FC
:1027580034C09DF035C09EF02F5004E1020E2E5C6F
:10276800D8A002D120EE16F09D51D9269E51DA222A
:10277800DE502E5CDE502F58D8B0F6D020EE08F090
:102788009D51D9269E51DA22DECF97F0DECF98F000
:10279800DECF99F0DECF9AF0DAD02EC01AF02FC033
:1027A8001BF0000E1D6E030E1C6E71EC29F0D89004
:1027B8001B3000018C6F1A309B6F8CC09CF09BC043
:1027C8008CF09CC08DF0090E8E6FD8908D338C33B1
:1027D8008E2FFBD78C519725776F8D519821786F65
:1027E800000E9921796F000E9A217A6F9AEC15F0F4
:1027F8000009D8B4B9D0FF0E8C6F010E8D6F9BC045
:102808008EF09CC08FF08C518E178D518F179DC004
:1028180090F09EC091F08E5190278F519123200EF9
:102828009025D96E000E9121DA6EDF50926F925189
:10283800956F966B9B4B9C2B9BC08CF09CC08DF02E
:10284800090E8E6FD8908D338C338E2FFBD78C5119
:102858009725776F8D519821786F000E9921796FA0
:10286800000E9A217A6F9AEC15F00009D8B47CD042
:10287800FF0E8C6F010E8D6F9BC08EF09CC08FF089
:102888008C518E178D518F179DC090F09EC091F07E
:102898008E5190278F519123200E9025D96E000ECE
:1028A8009121DA6EDF50926F9251946F936B93512E
:1028B8009513945196132EB007D0FF0E95152E6ED2
:1028C8000F0E96152F6E120095C08CF096C08DF0E5
:1028D800040E8E6FD8908D338C338E2FFBD78CC01F
:1028E8002EF08DC02FF012002F509725776F000E15
:1028F8009821786F000E9921796F000E9A217A6FCE
:102908009AEC15F00009D8B42FD0FF0E8C6F010E89
:102918008D6F2EC08EF02FC08FF0D8908E378F37E6
:102928008C518E178D518F179DC090F09EC091F0DD
:102938008E5190278F519123200E9025D96E000E2D
:102948009121DA6EDECF2EF0DDCF2FF0120020EECF
:102958001CF09D51D9269E51DA22DF50010AD8B4C5
:102968001CD7030AD8B4C0D7000E2F6E010E2E6EE6
:102978001200000E0001676F000E666F010E2C64D6
:102988006AD08B9E8A9A0A0E57EC28F02C501F6E3C
:10299800206A216A226AFF0E236E570EB1EC25F0D9
:1029A800C7EC2AF0C1EC2AF000016B6F6B51D8A478
:1029B800F9D70A0E57EC28F028C060F029C061F05A
:1029C8002AC062F02BC063F0090ED890000160376E
:1029D800613762376337E82EF8D760C01FF061C0EF
:1029E80020F062C021F063C022F0FF0E236E590E62
:1029F800B1EC25F0C7EC2AF0C1EC2AF000016B6FAE
:102A08006B51D8A4F9D7010E57EC28F0FC0EABECAB
:102A18002AF0000E00016A6F000E696F26C0D9FF08
:102A280027C0DAFFDF50ABEC2AF0264A272A00013C
:102A3800694B6A2B6ABFF2D7020E6A5DD8A0EED73F
:102A4800CDEC2AF0CDEC2AF0010E57EC28F0FD0E63
:102A5800ABEC2AF068D08B9E8A9A0A0E57EC28F0C5
:102A680028C060F029C061F02AC062F02BC063F072
:102A7800090ED89000016037613762376337E82E56
:102A8800F8D760C01FF061C020F062C021F063C0B9
:102A980022F0000E236E580EB1EC25F0C7EC2AF098
:102AA800C1EC2AF000016B6F6B51D8A4F9D78A9A50
:102AB8008B9E010E57EC28F0FE0EABEC2AF0000EB0
:102AC80000016A6F000E696F26C0D9FF27C0DAFFC0
:102AD800DF50ABEC2AF0264A272A0001694B6A2B03
:102AE8006ABFF2D7020E6A5DD8A0EED7CDEC2AF005
:102AF800CDEC2AF00A0E57EC28F0000E1F6E000EDF
:102B0800206E000E216E000E226E000E236E4D0EFA
:102B1800B1EC25F0C7EC2AF0C1EC2AF000016B6F8C
:102B28006B51D8A4F9D700016851120034C08AF05B
:102B380035C08BF020EE04F08A51D9268B51DA2269
:102B4800DECF86F0DECF87F0DECF88F0DECF89F0EB
:102B5800775186190AE17851871907E1795188195F
:102B680004E17A518919D8B4B4D020EE1FF08A5103
:102B7800D9268B51DA22DF50D8B481D0200E8A258D
:102B88006C6F000E8B216D6F86C06EF087C06FF082
:102B980088C070F089C071F0010E726F000ED6EC1B
:102BA80026F00009D8B402D0000E120020EE1FF063
:102BB8008A51D9268B51DA22000EDF6E20EE08F0FA
:102BC8008A51D9268B51DA22DECF7BF0DECF7CF01A
:102BD800DECF7DF0DECF7EF020EE14F08A51D926CC
:102BE8008B51DA22DECF7FF0DDCF80F07F517B255D
:102BF800816F80517C21826F000E7D21836F000ED2
:102C08007E21846F8151865D82518759835188590D
:102C180084518959D8B033D020EE1EF08A51D92674
:102C28008B51DA22DF50856F020E856101D027D0E3
:102C380020EE14F08A51D9268B51DA22DECF7BF0B0
:102C4800DDCF7CF07B5186277C518723000E8823BB
:102C5800000E8923200E8A256C6F000E8B216D6F64
:102C680086C06EF087C06FF088C070F089C071F0C0
:102C7800010E726F000ED6EC26F08507D5D7775176
:102C8800781179117A11D8B424D0200E8A256C6F66
:102C9800000E8B216D6F77C06EF078C06FF079C031
:102CA80070F07AC071F0010E726F000EF2EC23F032
:102CB8000009D8A479D720EE04F08A51D9268B517F
:102CC800DA2277C0DEFF78C0DEFF79C0DEFF7AC087
:102CD800DEFF010E120034C0AAF035C0ABF020EEC2
:102CE80016F0AA51D926AB51DA22DECFA8F0DDCFF3
:102CF800A9F0A451A511D8A41BD020EE18F0AA5110
:102D0800D926AB51DA22DECFAEF0DDCFAFF0AF512E
:102D180004E1020EAE5DD8A006D0A851AE5DA9515F
:102D2800AF59D8A029D0000EAF6F010EAE6F24D0D6
:102D3800A4C02EF0A5C02FF0ACEC13F02EC0ACF060
:102D48002FC0ADF0AD5109E1020EAC5DD8B005D091
:102D5800000EA56F010EA46F1200A851AC5DA95119
:102D6800AD59D8B005D0ACC0A4F0ADC0A5F01200E4
:102D7800A4C0AEF0A5C0AFF0AEC0B0F0AFC0B1F027
:102D8800B04BB12BA851B05DA951B159D8A00FD003
:102D9800000EB16F020EB06FAF5109E1020EAE5DC9
:102DA800D8B005D0000EA56F000EA46F1200B0C0F9
:102DB8002EF0B1C02FF0ACEC13F02EC0ACF02FC049
:102DC800ADF0AC51AD11D8B40CD0AC05AD11D8B440
:102DD800BFD7AE51B019D4E1AF51B119D8B4E2D7C9
:102DE800CFD7B0C08CF0B1C08DF0FF0E8F6F8E6959
:102DF80041EC10F00009D8B4ABD7A451A511D8B450
:102E08000DD0A4C08CF0A5C08DF0B0C08EF0B1C0BC
:102E18008FF041EC10F00009D8B49AD720EE18F0E2
:102E2800AA51D926AB51DA22B0C0DEFFB1C0DDFF0E
:102E380020EE1AF0AA51D926AB51DA22DE2803E196
:102E4800DE28D8B409D020EE1AF0AA51D926AB5101
:102E5800DA22DE06000EDD5AB0C0A4F0B1C0A5F03B
:102E6800120000019F51D96EDA6A020ED926DECF10
:102E7800A0F0DDCFA1F0010EA025A96F000EA121C1
:102E8800AA6FA9C0A0F00F0EA017D8A492D09F5186
:102E9800D96EDA6A0A0ED926DE2A000EDE22DE2272
:102EA800DE229F51D96EDA6A080ED926DE50DE106E
:102EB800D8A413D09F51D96EDA6A040ED92610EE21
:102EC80002F0DE50E126DD50E222E650A95DE65030
:102ED800AA59D8A06ED0000E1200A9C0A0F0AAC0AE
:102EE800A1F0040EA26FD890A133A033A22FFBD774
:102EF800FF0EA36FFF0EA46F9F51D96EDA6A040EFE
:102F0800D92610EE1DF0DE50E126DD50E222E75012
:102F1800A56FA66BA351A527A451A623A051A51759
:102F2800A151A617A551A611D8A443D09F51D96E77
:102F3800DA6A080ED926DECF2EF0DDCF2FF0ACEC02
:102F480013F02EC0A7F02FC0A8F0A85104E1020E7C
:102F5800A75DD8A0C0D79F51D96EDA6A040ED926CA
:102F680010EE16F0DE50E126DD50E222E650A75DB5
:102F7800E650A859D8B0AFD79F51D96EDA6A080E73
:102F8800D926A7C0DEFFA8C0DDFFA7C026F0A8C0CD
:102F980027F03CEC1FF000019F51D96EDA6A0A0E47
:102FA800D92626C0DEFF27C0DEFF28C0DEFF29C0E5
:102FB800DEFF9F51D96EDA6A020ED926A9C0DEFF5C
:102FC800AAC0DDFF010E120023C01AF01B6A000E12
:102FD8001D6E200E1C6E000E1F6E0B0E1E6EE1EC99
:102FE80028F0000E2A6E180E286E000E2B6E080EA2
:102FF800296E2250D96EDA6ADFCF24F0010EDE2660
:10300800DFCF25F0000EDD2224C0F6FF25C0F7FF34
:10301800F86A070EF76403D00800F55005D0F6CF1C
:10302800E1FFF7CFE2FFE7502C6E2C50D8B404D064
:103038002F0E2C18D8A412D02B50D8B470D02A50E8
:103048002814246E2450266E276A2350D96EDA6A13
:103058000B0ED92626C0DFFF2C501200200E2C6440
:103068005ED07F0E2C18D8B45AD02E0E2C18D8A4A7
:103078000CD02AB054D02B50D8B451D0090E2B60A4
:103088004ED0080E2B6E0B0EB3D7220E2C18D8B4C8
:1030980046D02A0E2C6001D035D02D0E2C6001D0E0
:1030A8003ED03A0E2C6001D02DD0400E2C6001D0BD
:1030B80036D02AB027D07C0E2C18D8B430D05A0E6F
:1030C8002C6404D05E0E2C6001D029D0400E2C64F4
:1030D8000AD05B0E2C6007D0080E2918D8A402D09D
:1030E800289601D02898600E2C640CD07B0E2C609A
:1030F80009D0200E2C5E080E2918D8A402D02A86E2
:1031080001D02A882A9029502B5CD8B008D02350A7
:103118002B24D96EDA6A2CC0DFFF2B2A6AD7010E5E
:10312800120097EC29F0FD0E1A24226EFF0E1B20C8
:10313800236EFEEC29F01AC024F01BC025F0DCEC4D
:1031480029F01AC026F01BC027F0CBEC29F0D00ECE
:103158001A242A6E070E1B202B6EEDEC29F01A504C
:10316800296E0FEC2AF01A50286ED89027300001EB
:10317800616F2630606F2450626F2550636F646BF7
:10318800656B050ED8906237633764376537E82E6C
:10319800F9D72250666F2350676F686B696B0B0E07
:1031A800D8906637673768376937E82EF9D728C067
:1031B8006AF06B6B6C6B6D6B6BC06DF06AC06CF01A
:1031C8006B6B6A6B29C06EF06F6B706B716B150E51
:1031D800D8906E376F3770377137E82EF9D7C40E2D
:1031E8002A24726FFF0E2B20736F746B756B190E88
:1031F800D8907237733774377537E82EF9D76E5110
:103208007211766F6F517311776F70517411786FF7
:1032180071517511796F6A5176117A6F6B51771107
:103228007B6F6C5178117C6F6D5179117D6F665190
:103238007A117E6F67517B117F6F68517C11806FA7
:1032480069517D11816F62517E11826F63517F11C7
:10325800836F64518011846F65518111856F60514E
:1032680082111E6E615183111F6E000E8411206E33
:10327800000E8511216E120026C0F6FF27C0F7FF49
:10328800F86A070EF76403D00800F55005D0F6CFAA
:10329800E1FFF7CFE2FFE7500001656F264A272AD2
:1032A800200E6519D8B4E8D7090E6519D8B4E4D743
:1032B800000E616F000E626F000E636F000E646F88
:1032C800000E606F2D0E6519D8A416D0602B26C08D
:1032D800F6FF27C0F7FFF86A070EF76403D0080067
:1032E800F55005D0F6CFE1FFF7CFE2FFE750000138
:1032F800656F264A272A29D02B0E6519D8B4E7D737
:1033080024D061C01AF062C01BF063C01CF064C016
:103318001DF00A0E1E6E000E1F6E000E206E000EAF
:10332800216EDEEC25F065C02AF0D00E2A262A5040
:103338001A240001616F000E1B20626F000E1C2012
:10334800636F000E1D20646FC2D7655140EC2AF0F0
:10335800D8B0D7D700016051D8B41AD061C02AF0CC
:1033680062C02BF063C02CF064C02DF02A1E2B1E07
:103378002C1E2D1E2A2A000E2B222C222D222AC07A
:1033880026F02BC027F02CC028F02DC029F0120001
:1033980061C026F062C027F063C028F064C029F03D
:1033A80012000A0E57EC28F028C060F029C061F01E
:1033B8002AC062F02BC063F0090ED8900001603774
:1033C800613762376337E82EF8D760C065F061C0AF
:1033D80066F062C067F063C068F0280429102A10FC
:1033E8002B10D8B41CD00A0E57EC28F065C01FF07B
:1033F80066C020F067C021F068C022F0000E236E7E
:10340800520EB1EC25F0C7EC2AF0C1EC2AF000010D
:103418006B6F6B51D8A4F9D7C7EC2AF01ED00A0EEF
:1034280057EC28F028C01FF029C020F02AC021F04E
:103438002BC022F0000E236E510EB1EC25F0C7EC24
:103448002AF0C1EC2AF000016B6F6B51D8B4E4D7B5
:10345800F8D7C1EC2AF000016B6FFE0E00016B1962
:10346800D8A4F7D7000E6A6F000E696F0CD06951A7
:103478002624D96E6A512720DA6EC1EC2AF0DF6E55
:103488000001694B6A2B6ABFF2D7020E6A5DD8A0A9
:10349800EED70A0E57EC28F0000E1F6E000E206EB5
:1034A800000E216E000E226E000E236E4C0EB1EC43
:1034B80025F0C7EC2AF0C1EC2AF000016B6F6B29EC
:1034C800D8A4F9D7000E120020EE04F08C51D926AA
:1034D8008D51DA22DECF20F0DDCF21F08CC0D9FF6C
:1034E8008DC0DAFFDECF22F0DDCF23F06DEC27F0C0
:1034F8000001926F9251D8A477D020EE02F08C513F
:10350800D9268D51DA22DFAA6FD020EE16F08C5121
:10351800D9268D51DA22DECF77F0DECF78F0DECFF4
:1035280079F0DECF7AF09AEC15F00009D8A402D031
:10353800080E120020EE1AF08C51D9268D51DA228D
:10354800DECF93F0DDCF94F020EE0BF09351D92627
:103558009451DA22000EDB8A20EE0AF08C51D9262B
:103568008D51DA2210EE1CF09351E1269451E2229B
:10357800DECFE6FFDECFE6FFDECFE6FFDECFE6FFFB
:1035880020EE0EF08C51D9268D51DA2210EE1AF069
:103598009351E1269451E222DECFE6FFDDCFE5FF2D
:1035A80095EC18F01EC08EF01FC08FF020C090F070
:1035B80021C091F020EE16F09351D9269451DA22C9
:1035C8008EC0DEFF8FC0DEFF90C0DEFF91C0DEFF41
:1035D80020EE02F08C51D9268D51DA22DF0EDF164B
:1035E8005DEC26F00001926F925112000600E1CFC7
:1035F8000FF0E2CF10F0D9CF11F0DACF12F0F3CFFD
:1036080013F0F4CF14F0F6CF15F0F7CF16F0F8CF8B
:1036180017F0F5CF18F09DBA9EAA14D09E9A9AEC8E
:103628002AF03C6E3C5009EC0FF081B403D00D6ACF
:103638000D2A01D00D6A0D460D4681500D18FB0B61
:103648000D18816EF2B4F2A443D0F294010E3B6ED1
:10365800000E196E1950020D110EF324D96E010EC9
:10366800F420DA6EDE50DE10D8B40BD01950020DFB
:10367800110EF324D96E010EF420DA6EDE06000E68
:10368800DD5A192A020E1964E5D732503310D8B41E
:1036980003D03206D8A0330630503110D8B403D046
:1036A8003006D8A031063A04D8A40CD0010143074B
:1036B800D8A0440743514411D8A404D0000EFA6E90
:1036C800000EF96E000E026E450E016EE3EC2AF054
:1036D800F2B2F2A801D0F29218C0F5FF17C0F8FFB5
:1036E80016C0F7FF15C0F6FF14C0F4FF13C0F3FFB0
:1036F80012C0DAFF11C0D9FF10C0E2FF0FC0E1FF0E
:103708004692110028C060F029C061F02AC062F01A
:103718002BC063F0060ED89000016037613762371E
:103728006337E82EF8D7605100081A6E6C0E6155A1
:103738001B6EDC0E62551C6E020E63551D6E28C092
:1037480064F029C065F02AC066F02BC067F0060E49
:10375800D8906437653766376737E82EF9D764C07D
:103768001EF065C01FF066C020F067C021F0D6ECDF
:103778001EF01AC02CF01BC02DF02D04D8A03BD091
:1037880028C060F029C061F02AC062F02BC063F045
:10379800040ED8906037613762376337E82EF9D75F
:1037A800605100081A6E6C0E61551B6EDC0E625576
:1037B8001C6E020E63551D6E28C064F029C065F0AA
:1037C8002AC066F02BC067F0040ED89064376537BE
:1037D80066376737E82EF9D764C01EF065C01FF05A
:1037E80066C020F067C021F0D6EC1EF01AC02CF09D
:1037F8001BC02DF0AC842D04D8B012002CC0AFFF34
:10380800AC98AB8E948E949CAB88AC8A1200776F80
:103818007CD057EC25F066C078F067C079F068C0B6
:103828007AF069C07BF04F0E666F610E676FA9EC86
:1038380029F07851665DF06F79516759F16F7A51C7
:103848006859F26F7B516959F36F630E666F610EA9
:10385800676FA9EC29F07851665DF86F795167595F
:10386800F96F7A516859FA6F7B516959FB6F000EED
:103878001D6E010EFBEC24F078C06CF079C06DF081
:103888007AC06EF07BC06FF017EC28F012002AECBB
:1038980025F066C07CF067C07DF068C07EF069C026
:1038A8007FF0230E666F610E676FA9EC29F07C51DB
:1038B800665DF46F7D516759F56F7E516859F66FF3
:1038C8007F516959F76F390E666F610E676FA9EC02
:1038D80029F07C51665DFC6F7D516759FD6F7E5103
:1038E8006859FE6F7F516959FF6F000E1D6E020EF9
:1038F800FBEC24F07CC06CF07DC06DF07EC06EF0F7
:103908007FC06FF017EC28F0120000017751010A10
:10391800D8B47FD7BCD7819609EC26F0600E1A6E12
:10392800020E1B6E000E49EC27F03F50D8A421D0A0
:10393800200E02011219D8B41CD0200E1419D8B4C4
:1039480018D0000E1A6E020E1B6E21EC29F0070E1D
:103958001A6E020E1B6EF7EC28F07D0E1A6E010E21
:103968001B6E690E1C6E620E1D6E91EC27F0010E27
:103978003F6E3F50D8B451D04D0E0001C46F010EB8
:10398800C56F7D0EC66F010EC76F020EC86F7AEC49
:1039980009F00009D8A434D04D0EB26F010EB36FF0
:1039A80057C1B4F058C1B5F059C1B6F05AC1B7F013
:1039B80075EC05F04D0EDE6F010EDF6F770EE06FD0
:1039C800610EE16F300EE26F020EE36F160EE46FC8
:1039D800020EE56F230EE66F020EE76F070EE86F23
:1039E800020EE96F340EEA6F020EEB6FBAEC07F0C5
:1039F8004D0E0001956F010E966F0CEC29F00DD05D
:103A08004D0EC46F010EC56F7D0EC66F010EC76FD8
:103A1800080EC86F7AEC09F0EBD78186120062C0F5
:103A28002BF02C6A2D6A000161352B3601E32C80BE
:103A38002B50666F6651D8A407D0000E606F000E39
:103A4800616F000E626F120065C02BF02C6A2D6A40
:103A580064352B3601E32C802B506B6F6B51D8A447
:103A680007D0000E606F000E616F000E626F1200CB
:103A78006B517B0F662762C06BF065516B1B800E24
:103A88006B17618F648FFF0E6317FF0E6417000EAC
:103A98006517000E676F000E686F000E696F070EDE
:103AA8006A6F60A106D06351672764516823655126
:103AB8006923D890623361336033D89063376437B1
:103AC80065376A2FEED7090E6A6F60A106D0635179
:103AD80067276451682365516923D890623361333D
:103AE8006033D8906933683367336A2FEED767C07D
:103AF8001AF068C01BF069C01CF066C01DF06BC0EE
:103B08001EF095EC1FF01AC060F01BC061F01CC0DD
:103B180062F0120028C060F029C061F02AC062F08B
:103B28002BC063F060C01AF061C01BF062C01CF0CB
:103B380063C01DF02CC01EF02DC01FF0000E1FBE6C
:103B4800FF0E206E216EBEEC22F01AC060F01BC082
:103B580061F01CC062F01DC063F0272A00016051AB
:103B6800611162116311D8A4DDD72750D96EDA6AC2
:103B7800000EDF6E270628C01AF029C01BF02AC0E5
:103B88001CF02BC01DF02CC01EF02DC01FF0000E25
:103B98001FBEFF0E206E216E96EC24F01A50000115
:103BA800646F28C01AF029C01BF02AC01CF02BC073
:103BB8001DF02CC01EF02DC01FF0000E1FBEFF0E02
:103BC800206E216EBEEC22F01AC028F01BC029F02E
:103BD8001CC02AF01DC02BF0090E0001646502D03C
:103BE800070E6427300E64272750D96EDA6A64C03E
:103BF800DFFF2706285029102A102B10D8B41200EE
:103C0800BAD76EC070F00001716B726B6D3570378A
:103C180001E3718170517A6F7A51D8A409D0000EEE
:103C28006C6F000E6D6F000E6E6F000E6F6F1200DE
:103C3800170E706F6CC071F06DC072F06EC073F0CB
:103C48007029746F04D0D890733372337133742F22
:103C5800FAD700017151756F6D8FFF0E6C17FF0E4B
:103C68006D17000E6E176C51766F6D51776F6E5130
:103C7800786F796B8E0E7A5F7AAF0DD07A51800AA1
:103C88008F0FD8A0CCD7D890793378337733763361
:103C98007A3FF9D70DD0170E7A6507D0C0D7D890DC
:103CA80076377737783779377A077A51D8A4F7D7BC
:103CB8007551D8B408D0791F781F771F766D000E1C
:103CC80077237823792376C06CF077C06DF078C0BD
:103CD8006EF079C06FF0120002D0204A212A20C06D
:103CE800D9FF21C0DAFF200EDE18D8B4F6D720C0DD
:103CF800D9FF21C0DAFF090EDE18D8B4EED7000EBE
:103D0800266E000E256E000E246E20C0D9FF21C03D
:103D1800DAFF2D0EDE18D8A402D0242A23D020C022
:103D2800D9FF21C0DAFF2B0EDE18D8A41DD01AD077
:103D380025C01AF026C01BF0000E1D6E0A0E1C6E60
:103D480071EC29F020C0D9FF21C0DAFFDF50226EC4
:103D580022501A26000E1B22D00E1A24256EFF0EA2
:103D68001B20266E204A212A20C0D9FF21C0DAFF55
:103D7800DF5040EC2AF0D8B0DBD72450D8B40DD0AF
:103D880025C022F026C023F0221E231E224A232A01
:103D980022C020F023C021F0120025C020F026C048
:103DA80021F01200000E236E21AE0AD0211E201E23
:103DB8001F1E1E6C000E1F2220222122010E236EC0
:103DC8001DAE0AD01D1E1C1E1B1E1A6C000E1B22C7
:103DD8001C221D22010E231A000E246E000E256ED1
:103DE800000E266E000E276E1E501F102010211088
:103DF800D8B42AD0010E226E06D0D8901E361F36AF
:103E080020362136222A21AEF8D7D89024362536F6
:103E1800263627361E501A5C1F501B5820501C5837
:103E280021501D58D8A009D01E501A5E1F501B5A89
:103E380020501C5A21501D5A2480D89021322032FB
:103E48001F321E32222EE1D72350D8B408D0271EA5
:103E5800261E251E246C000E25222622272224C079
:103E68001AF025C01BF026C01CF027C01DF0120058
:103E780034C060F035C061F0020E265E000E275A8D
:103E8800FE0E2A6EFF0E2B6E20EE16F06051D9261C
:103E98006151DA22DECF2CF0DDCF2DF02A502C260E
:103EA8002B502D222C50265C2D502758D8A009D0F5
:103EB800000E266E000E276E000E286E000E296E6C
:103EC800120020EE10F06051D9266151DA22DECFBF
:103ED8002AF0DECF2BF0DECF2CF0DECF2DF026C07F
:103EE8001AF027C01BF01C6A1D6A20EE1DF06051F5
:103EF800D9266151DA22DF502E6E2E501E6E1F6AAF
:103F0800206A216ADEEC25F02A501A24266E2B50EE
:103F18001B20276E2C501C20286E2D501D20296E2A
:103F280012001D50D8B405D01A501B101C10D8A46C
:103F38000CD0000E1A6E000E1B6E000E1C6E1200C6
:103F48001D2AD8901C321B321A32000E1A141F6E0A
:103F5800000E1B14206EFE0E1C14216E1F50201024
:103F68002110D8B40CD0ECD71D2A010E1A26000E49
:103F78001B22000E1C22D8901C321B321A32000E53
:103F88001A141F6E000E1B14206EFF0E1C14216ED7
:103F98001F5020102110D8B406D0E6D71D06D8909F
:103FA8001A361B361C361BBE03D0020E1D60F6D710
:103FB8001DA01B9ED8901D321D501C121E50D8A447
:103FC8001C8E1AC01AF01BC01BF01CC01CF012007B
:103FD800000E0101E86FE851020D1D0EF324D96EA1
:103FE800010EF420DA6EDE50DE10D8B43DD0E85170
:103FF800020D110EF324D96E010EF420DA6EDE5094
:10400800DE10D8A431D0010E3A6EFD0E446FE80ED2
:10401800436FE851020D1D0EF324D96E010EF420F2
:10402800DA6E01D80AD00500FA6EDE50FD6EDE5059
:10403800FE6EF850FF6EFA501200000E3A6E010143
:10404800E851020D170EF324D96E010EF420DA6E32
:10405800E851020D110EF324E16E010EF420E26E18
:10406800DECFE6FFDDCFE5FFE82B020EE865B3D72C
:1040780009EC26F012009594959295909598959A4A
:10408800959C959E839483928390839E839C838A38
:104098008388EA0E1D6EC30EE82EFED71D2EFCD7B0
:1040A80000F083804FEC2AF083904FEC2AF04E0EFC
:1040B8001D6EEB0EE82EFED71D2EFCD700F0838078
:1040C8004FEC2AF083904FEC2AF04E0E1D6EEB0E4B
:1040D800E82EFED71D2EFCD700F083804FEC2AF087
:1040E80083904FEC2AF0839E839C838A83988380F5
:1040F8004FEC2AF083904FEC2AF0280EB3EC21F015
:10410800060EB3EC21F00E0EB3EC21F0010EB3EC69
:1041180021F0120034C0AAF035C0ABF035D0A4C0ED
:104128002EF0A5C02FF0ACEC13F02EC0A8F02FC0D5
:10413800A9F0A805A911D8A402D0000E1200A4C0A5
:104148008CF0A5C08DF0000E8F6F000E8E6F41ECC5
:1041580010F00009D8B4F1D720EE1AF0AA51D926E8
:10416800AB51DA22DE2803E1DE28D8B409D020EEEC
:104178001AF0AA51D926AB51DA22DE2A000EDD2226
:10418800A8C0A4F0A9C0A5F0A55104E1020EA45D41
:10419800D8A00CD020EE16F0AA51D926AB51DA22BD
:1041A800DE50A45DDE50A559D8A0B9D7010E120083
:1041B8003BD01AC0D9FF1BC0DAFFDF50206E1CC0ED
:1041C800F6FF1DC0F7FFF86A070EF76403D0080072
:1041D800F55005D0F6CFE1FFF7CFE2FFE750201802
:1041E800D8B41ED01AC0D9FF1BC0DAFFDF50206E2A
:1041F8001CC0F6FF1DC0F7FFF86A070EF76403D06E
:104208000800F55005D0F6CFE1FFF7CFE2FFE75001
:10421800216E2150205C1A6E1B6AD8A01B06120062
:104228001A4A1B2A1C4A1D2A1E06D8A01F061E2829
:10423800C0E11F28D8A4BDD7000E1B6E000E1A6E51
:104248001200000E2B6E000E2A6E000E296E000E54
:10425800286E000E1F6E000E206E000E216E000EDE
:10426800226E950E236E400EB1EC25F0C7EC2AF0B5
:10427800C1EC2AF02C6E2A4A2B2A2C04D8B408D078
:104288002BBEF6D72B5004E10A0E2A5CD8A0F0D733
:10429800000E2B6E000E2A6E2C04D8B416D0000E19
:1042A8001D6E010EFBEC24F0020E1D6E620E1E6EDA
:1042B80034EC26F0000E1D6E020EFBEC24F0B20E5C
:1042C8001D6E610E1E6E34EC26F02C04D8B412005C
:1042D800C0D7120EF66E610EF76E20EE60F0100E6B
:1042E8000900F5CFDEFFE806FBE2010EF66E610E6F
:1042F800F76E20EE71F0100E0900F5CFDEFFE8062C
:10430800FBE2000E1D6E010EFBEC24F0600E1D6E2C
:104318001E6A34EC26F0000E1D6E020EFBEC24F033
:10432800710E1D6E1E6A34EC26F03D0E216EE10EF4
:10433800206E400EE82EFED7202EFCD7212EFAD76D
:10434800010EB3EC21F0000E1D6E010EFBEC24F003
:10435800EC0E1D6E610E1E6E34EC26F012001C6E03
:104368008394839283901CA802D0838801D0839879
:104378001CAA02D0838A01D0839A1CAC02D0838CF9
:1043880001D0839C1CAE02D0838E01D0839E838093
:104398004FEC2AF083904FEC2AF01CA002D08388BF
:1043A80001D083981CA202D0838A01D0839A1CA4CE
:1043B80002D0838C01D0839C1CA602D0838E01D0AE
:1043C800839E83804FEC2AF083904FEC2AF01C04E4
:1043D800D8B408D0020E1C18D8B404D0030E1C1888
:1043E800D8A412004FEC2AF01200080EF66E530EF5
:1043F800F76E000EF86E01EEBDF010EE25F0090024
:10440800F5CFEEFFE550E150FAE1E20EF66E550EFB
:10441800F76E000EF86E0900F5CF45F002EE60F079
:1044280012EE20F0EE6AE550E150FCE1E250FAE1CC
:1044380002EE00F03E0EEE6AE806FDE101EE00F045
:10444800BD0EEE6AE806FDE100EEF0F0100EEE6A31
:10445800E806FDE100EE30F0150EEE6AE806FDE133
:1044680046904692000EF86E000136EF29F038D0DB
:10447800000E826F000E836F8051D96EDA6ADF50AA
:10448800D8B40CD08051D96EDA6A000E8225E16E5C
:10449800E26A010EE222DFCFE7FF822B802B832B1B
:1044A800090E8365E9D721D0000E826F000E836F55
:1044B8008051D96EDA6ADF50D8B40CD08051D96EE9
:1044C800DA6A000E8225E16EE26A010EE222DFCF8F
:1044D800E7FF822B802B832B0A0E8365E9D705D053
:1044E8008151010AD8B4C4D7DFD781510BEC1CF035
:1044F800120034C07BF035C07CF0200E7B256C6F39
:10450800000E7C216D6F77C06EF078C06FF079C0B7
:1045180070F07AC071F0010E726F000EF2EC23F0A9
:104528000009D8B402D0020E120022EE1EF07B5110
:10453800D9267C51DA22550EDE18F5E1AA0EDE18CE
:10454800D8A4F1D7560E7B251A6E000E7C211B6E5F
:10455800760E1C6E620E1D6E000E1F6E030E1E6E12
:10456800DCEC20F01A501B10D8A402D0000E120068
:10457800010E1200000E226E000E236E000E246E35
:10458800000E256E1E501F1020102110D8B42AD0FE
:10459800010E266E06D0D8901E361F3620362136DC
:1045A800262A21AEF8D7D890223623362436253647
:1045B8001E501A5C1F501B5820501C5821501D5863
:1045C800D8A009D01E501A5E1F501B5A20501C5AE2
:1045D80021501D5A2280D890213220321F321E329B
:1045E800262EE1D722C01AF023C01BF024C01CF0ED
:1045F80025C01DF0120000018F6F000E0001906FA2
:10460800000E916FCB0E9125D96EDA6A010EDA226F
:10461800DF50D8B424D0CB0E9125D96EDA6A010EBA
:10462800DA222D0EDE18D8B41AD0CB0E9125D96E09
:10463800DA6A010EDA222E0EDE18D8B410D00A0E6D
:1046480090610DD0CB0E9125D96EDA6A010EDA226F
:104658009051840FE16EE26ADFCFE7FF902B912B38
:104668000B0E9165CFD7840E806F8FC081F03BEC25
:1046780022F0120000018D6F000E00018E6F000EF7
:104688008F6FD70E8F25D96EDA6A010EDA22DF50C6
:10469800D8B424D0D70E8F25D96EDA6A010EDA2263
:1046A8002D0EDE18D8B41AD0D70E8F25D96EDA6A37
:1046B800010EDA222E0EDE18D8B410D0090E8E6143
:1046C8000DD0D70E8F25D96EDA6A010EDA228E51F7
:1046D800840FE16EE26ADFCFE7FF8E2B8F2B0B0E84
:1046E8008F65CFD7840E806F8DC081F03BEC22F0B0
:1046F8001200EFEC2AF01A6E33D00001F3BF07D096
:10470800F351F211F11107E1F005D8B004D0FBBF65
:1047180002D0000E1200F051F111F211F311D8B4C9
:10472800F8D7F851F911FA11FB11D8B4F2D7010EE4
:1047380012000001F3BF09D0FBBFEBD7FB51FA1100
:10474800F91103E1F805D8A0E4D7F3BFFBBFE1D71F
:10475800FB51FA11F911DFE1F805D8A0DAD7DBD758
:104768001A502D0AD8B4C9D7E4D71C6E8394838213
:1047780083901CA802D0838801D083981CAA02D0F9
:10478800838A01D0839A1CAC02D0838C01D0839C8D
:104798001CAE02D0838E01D0839E83804FEC2AF01A
:1047A80083904FEC2AF01CA002D0838801D0839814
:1047B8001CA202D0838A01D0839A1CA402D0838CC5
:1047C80001D0839C1CA602D0838E01D0839E838057
:1047D8004FEC2AF083904FEC2AF01200736F29D027
:1047E8006CC026F06DC027F06EC028F06FC029F0AD
:1047F80070C02AF071C02BF072C02CF0D5EC19F003
:104808002D6E2D50746F756B74C076F07651120052
:104818006CC026F06DC027F06EC028F06FC029F07C
:1048280070C02AF071C02BF072C02CF0D5EC19F0D2
:10483800E7D700017351000AD8B4D2D7010AD8B417
:10484800E7D7030AD8B4E2D7040E12004AEC29F0DD
:104858000009D8B4FBD7000EFFEC22F0010E3EECA5
:1048680023F0C9EC24F0926F010133510001921931
:10487800FE0B92190101336F7DEC23F0926F010159
:10488800345100019219FE0B92190101346F33B1B2
:1048980002D034A109D03581640E1E6E620E1F6EDF
:1048A800040E74EC11F0120035914C0E1E6E620E5F
:1048B8001F6E040E74EC11F012001C6E8394839228
:1048C8008390838E1CA802D0838801D083981CAA69
:1048D80002D0838A01D0839A1CAC02D0838C01D089
:1048E800839C83804FEC2AF083904FEC2AF01CA025
:1048F80002D0838801D083981CA202D0838A01D079
:10490800839A1CA402D0838C01D0839C1CA602D05D
:10491800838E01D0839E83804FEC2AF083904FECE6
:104928002AF012001E501F1020102110D8B424D0D5
:10493800010E226E06D0D8901E361F36203621363C
:10494800222A21AEF8D71E501A5C1F501B5820503F
:104958001C5821501D58D8A008D01E501A5E1F5050
:104968001B5A20501C5A21501D5AD89021322032EF
:104978001F321E32222EE7D71AC01AF01BC01BF0B6
:104988001CC01CF01DC01DF01200ECEC2AF01A6EC1
:1049980029D00001F7BF0BD0FFBF07D0FF51FE1190
:1049A800FD1105E1FC05D8B002D0000E1200F4514B
:1049B800F511F611F711D8B4F8D7FC51FD11FE1115
:1049C800FF11D8B4F2D7010E12000001F7BF07D0CB
:1049D800F751F611F511EBE1F405D8B0E8D7FFAFC0
:1049E800E4D7E5D71A502D0AD8B4D3D7EED71E6E20
:1049F800110E1D6012001BD01DC01FF01F5061EC6E
:104A080024F022D01D50400F1F6E1F5061EC24F07F
:104A18001BD01D50140F1F6E1F5061EC24F014D0D2
:104A28001D50540F1F6E1F5061EC24F00DD01E5006
:104A3800010AD8B4E1D7030AD8B4E4D7010AD8B434
:104A4800E8D7070AD8B4ECD71D2A1200000E0001D7
:104A5800746F000E756F000E7525D96EDA6A010E37
:104A6800DA22DF50D8B40DD0000E7525D96EDA6A77
:104A7800010EDA2274516A0FE16EE26ADFCFE7FFB6
:104A8800742B752B090E7565E6D76A0E266E276A94
:104A980040EC19F026C066F027C067F028C068F01F
:104AA80029C069F01200000E0001756F000E766FC4
:104AB800000E7625D96EDA6A010EDA22DF50D8B4F4
:104AC8000DD0000E7625D96EDA6A010EDA227551FC
:104AD8006A0FE16EE26ADFCFE7FF752B762B090ECE
:104AE8007665E6D76A0E266E276A40EC19F026C06E
:104AF80066F027C067F028C068F029C069F0120086
:104B0800000E0001DD6F000EDC6F1BD0D7C0D9FF8F
:104B1800D8C0DAFFDF50DB6FDB51D06FD16BD9C063
:104B2800D2F0DAC0D3F037EC28F0D02906E1D12949
:104B3800D8A403D0D769D8691200D74BD82BDC4B3F
:104B4800DD2BD7C0D9FFD8C0DAFFDF50D8A4DED715
:104B5800DCC0D7F0DDC0D8F01200246EAEEC28F02F
:104B6800FF0AD8A404D008D00A0E57EC28F0AEECFF
:104B780028F0FF0AD8A4F8D7FF0EABEC2AF024508F
:104B8800ABEC2AF022C025F02550ABEC2AF021C06E
:104B980025F02550ABEC2AF020C025F02550ABECD1
:104BA8002AF01FC025F02550ABEC2AF02350ABECBF
:104BB8002AF01200000E226E000E236E000E246EE4
:104BC800000E256E1AA008D01E5022261F50232240
:104BD8002050242221502522D8901E361F362036F8
:104BE8002136D8901D321C321B321A321A501B1033
:104BF8001C101D10D8A4E6D722C01AF023C01BF041
:104C080024C01CF025C01DF012009D0E1E6E010E62
:104C18001F6E000E74EC11F0A80E1E6E010E1F6EB2
:104C2800010E74EC11F0D70E1E6E010E1F6E020EEF
:104C380074EC11F0CB0E1E6E010E1F6E030E74EC99
:104C480011F09D0E1E6E010E1F6E050E74EC11F014
:104C5800A80E1E6E010E1F6E060E74EC11F01200E7
:104C680014D01DC0F6FF1EC0F7FFF86A070EF764E0
:104C780003D00800F55005D0F6CFE1FFF7CFE2FFEB
:104C8800E750B9EC23F01D4A1E2A1DC0F6FF1EC0CE
:104C9800F7FFF86A070EF76403D00800F55005D04F
:104CA800F6CFE1FFF7CFE2FFE7500009D8B41200D2
:104CB800D8D734C02EF035C02FF020EE1FF02E507C
:104CC800D9262F50DA22010EDF6E000E776F000E04
:104CD800786F000E796F000E7A6F9AEC15F0000964
:104CE800D8A402D0080E1200000E1A6E000E1B6E19
:104CF800000E1C6E000E30EC2AF00009D8A4F2D782
:104D0800000E12005C0E01011D6F4D0E1E6FEA0EA3
:104D18001F6F500E206F340E216F250E226F010E6B
:104D2800186FF40E176F030E1A6FE80E196F130E33
:104D38001C6F880E1B6F010E126FF40E116F030E9D
:104D4800146FE80E136F130E166F880E156F000E92
:104D58003A6E1200320E0001966F0E0E636FED0E62
:104D6800646F3F0E656F000E206E000E216E70ECB2
:104D78001EF020C027F021C028F092EC28F027C0B0
:104D880060F028C061F029C062F013EC1DF060C02B
:104D98006CF061C06DF062C06EF005EC1EF02AEC9C
:104DA80024F01200736F18D06CC026F06DC027F085
:104DB8006EC028F06FC029F070C02AF071C02BF0C7
:104DC80072C02CF0BDEC14F02D6E2D50746F756B05
:104DD80074C076F07651120000017351000AD8B4FD
:104DE800E3D7010AD8B4E0D7030AD8B4F3D7040E3E
:104DF8001200000E0A6E0A500124D96E000E02201D
:104E0800DA6E0A500324086E000E0420096E05505D
:104E18000824E16E06500920E26EDFCFE7FF0A2A78
:104E28000A04086E08500124D96E000E0220DA6EBA
:104E3800DF50D8B4120007500A18D8B41200DBD7D4
:104E480004D0014A022A034A042A03C0F6FF04C018
:104E5800F7FF0800F5CF05F001C0D9FF02C0DAFF5F
:104E6800DF50066E0550065C076E0750D8A407D0C1
:104E780001C0D9FF02C0DAFFDF50D8A4E2D707503B
:104E8800016E026A01BE020612001C6E1C50D8B4E4
:104E980002D0050E120034503510D8B408D020EED8
:104EA8001CF03450D9263550DA22000EDF6E1AC0B5
:104EB80034F01BC035F01A501B10D8B408D020EEBF
:104EC8001CF01A50D9261B50DA22000EDF6E000E95
:104ED800120020502110D8B414D020EE1CF020501D
:104EE800D9262150DA22DF50D8B40BD020C0D9FF00
:104EF80021C0DAFF2250DE1804E12350DE18D8B4AE
:104F080002D00C0E1200000EC9EC28F0246E24A06A
:104F180002D0010E1200000E12001AC01EF01BC0B3
:104F28001FF002D01E4A1F2A1EC0D9FF1FC0DAFF79
:104F3800DF50D8B405D0F6D71E4A1F2A1C4A1D2AAE
:104F48001CC0F6FF1DC0F7FF1EC0D9FF1FC0DAFF47
:104F58000800F5CFDFFFDF50D8B41200EDD71CC032
:104F680023F01DC024F01AC021F01BC022F010D07D
:104F780023C0D9FF24C0DAFFDF50206E234A242A39
:104F880021C0D9FF22C0DAFF20C0DFFF214A222A30
:104F98001E06D8A01F061E28EBE11F28D8B4120051
:104FA800E7D769AF0ED06551D96EDA6A2D0EDF6E7C
:104FB800652B691F681F671F666D000E67236823CE
:104FC800692365C027F066C028F067C029F068C06B
:104FD8002AF069C02BF06AC02CF06BC02DF08EEC63
:104FE8001DF012001AC01CF01BC01DF002D01C4A94
:104FF8001D2A1CC0F6FF1DC0F7FFF86A070EF764EC
:1050080003D00800F55005D0F6CFE1FFF7CFE2FF57
:10501800E7500009D8A4EBD71A501C5C1A6E1B5035
:105028001D581B6E120021EEC4F010EE70F0060E33
:10503800DBCFE3FFE806FCE2700E0001656F6CC091
:1050480066F06DC067F06EC068F06FC069F0000E62
:105058006B6F0A0E6A6FD5EC27F0700E1D6E1E6A14
:1050680034EC26F01200D251D311D8A405D0D0C008
:10507800D0F0D1C0D1F01200D0C0D4F0D2C0B2F07C
:10508800D3C0B3F0D40EB46F000EB66F010EB56F77
:10509800D50EB76F09EC00F0D551D611D8A4E7D7D3
:1050A800D069D16912001C6E100E1A6E940EE82E8B
:1050B800FED71A2EFCD700D0000E1E6E000E1D6EF5
:1050C80006D08A8ACDEC2AF08A9A1D4A1E2A1C50DC
:1050D8001A6E1B6A1A501D5C1B501E58D8B012005D
:1050E800F0D732503310D8A412003D90DEEC2AF0ED
:1050F8001AC0E4F11BC0E5F1E4C1D9FFE5C1DAFF4C
:10510800310EDE18D8A404D02AEC24F079EC2AF069
:10511800030E336EE80E326E3D801200000E2A6ECA
:1051280028AE06D0276C281ED8B0282A010E2A6E71
:1051380027C01AF028C01BF01C6A8E0E1D6E2AC0EC
:105148001EF095EC1FF01AC027F01BC028F01CC0F9
:1051580029F01200FF0E1A6E7F0E1B6E000E1C6ED9
:10516800000E1D6ECDEC2AF01E6E1E28D8B40BD092
:105178001A06000E1B5A1C5A1D5A1A501B101C10D6
:105188001D10D8A4EFD71E5012001E6E0AD01E5054
:10519800A3EC2AF01F6E1F5012001E50A3EC2AF039
:1051A800FAD71E50000AD8B4F2D7010AD8B4F5D7F6
:1051B800030AD8B4F0D7010E12001AC020F01BC0A1
:1051C80021F008D020C0D9FF21C0DAFF1CC0DFFFC2
:1051D800204A212A1E06D8A01F061E28F3E11F28F0
:1051E800D8B41200EFD7040E1C6E1AC0D9FF1BC02A
:1051F800DAFF7D0E1C24E16EE26A010EE222DFCFA7
:10520800E7FF1A4A1B2A1C2A070E1C64EED7120055
:1052180095C08CF096C08DF068EC1AF0976F975196
:10522800D8A4120020EE04F09551D9269651DA221E
:10523800000EDE6E000EDD6E1200000E1C6E1AC02F
:10524800D9FF1BC0DAFF7D0E1C24E16EE26A010E55
:10525800E222DFCFE7FF1A4A1B2A1C2A030E1C642E
:10526800EED7120086EC2AF0D59E3FEC20F06DECCC
:1052780021F086EC26F0BAEC29F0D58E3B04D8A4B0
:10528800FDD7000E3B6EECEC1FF0F8D7010129B1F9
:105298002AA10ED02BB12CA10BD02DB12EA108D054
:1052A80029912A912B912C912D912E91010E12006A
:1052B800000E12002E6E05D013EC0BF02F6E2F503F
:1052C80012002E50000AD8B4F7D7010AD8B4F4D780
:1052D800030AD8B4F4D7010E12001A501C02F3CFF7
:1052E8001EF0F4CF1FF01A501D02F3501F261B505A
:1052F8001C02F3501F261EC01AF01FC01BF012001C
:1053080030303030303000303030303030003030F5
:105318003030303030303030303030303030303085
:05532800303030303090
:10532E0001019D510A0DF3CF1CF0F4CF1DF09E51DB
:10533E001C26000E1D22F00E1C241A6EFD0E1D20C2
:10534E001B6E1200664B672B66C026F067C027F0F7
:10535E0040EC19F026C066F027C067F028C068F050
:10536E0029C069F01200949C949E800E286E250E22
:10537E00296E000E2A6E000E2B6E86EC1BF0200E90
:10538E00AC6E900EAB6E1200AC510A0DF3CF1CF04A
:10539E00F4CF1DF0AD511C26000E1D22F00E1C2464
:1053AE001A6EFD0E1D201B6E1200A1510A0DF3CFB9
:1053BE001CF0F4CF1DF0A2511C26000E1D22F00E83
:1053CE001C241A6EFD0E1D201B6E1200AA510A0D12
:1053DE00F3CF1CF0F4CF1DF0AB511C26000E1D2296
:1053EE00F00E1C241A6EFD0E1D201B6E12009F5116
:1053FE000A0DF3CF1CF0F4CF1DF0A0511C26000EA9
:10540E001D22F00E1C241A6EFD0E1D201B6E1200A6
:10541E00A8510A0DF3CF1CF0F4CF1DF0A9511C2694
:10542E00000E1D22F00E1C241A6EFD0E1D201B6E8A
:10543E0012009392939A9380949E8A8A3F0EC71677
:10544E00000EC66EC79EC78CC698030EC66EC68A61
:10545E0012001D6E02D01E5012001D50000AD8B44C
:10546E00FAD7010AD8B4F7D7030AD8B4F4D7040E82
:10547E0012001C6E000E1B6E3A0E1C6005D02F0E15
:10548E001C6402D0010E1B6E1BC01AF01A301200E3
:10549E00000E1A6E00F0000E1B6E00F01B2A310E6D
:1054AE001B64FBD71A2A630E1A64F4D712000F0E70
:1054BE00C16E010E936E8A68000E956E070E926E87
:1054CE00110E946E030E966E1200C50ED56E000E62
:1054DE00656E000E636E000E1B6E450E1A6ED9ECD5
:1054EE002AF012008196BAEC2AF020EC2AF08FEC0A
:1054FE001CF0BAEC29F0D3EC2AF081861200E8EC0D
:10550E002AF05EEC2AF06CEC2AF0B3EC2AF091EC67
:10551E002AF01200B00EF26E000EF16E000EF06E5A
:10552E00280E9D6E12009EAAFED7ABA203D0AB989A
:10553E0000F0AB88AE5012001B6E1B50D8B402D0D8
:10554E00010E1200000E12001B6EC9509E961BC05B
:10555E00C9FF9EB61200FDD7040ECA6E000ECC6EA9
:10556E00010ECB6E1200948C948E000EAC6E000E5B
:10557E00AB6E12008A9ACDEC2AF01A6E1A501200F7
:10558E008A9AFF0EABEC2AF08A8A1200C968C7907D
:10559E00C7A0FED7C9501200000EC76E000EC66E11
:1055AE00C69A12001AC0D6FF1BC0D7FF1200BB0E40
:1055BE001A6E010E1B6E120001C0D6FF02C0D7FF7D
:1055CE001200D388D38AD38C12000101CB51120062
:0555DE00D75112005836
:10610000005443432D2D54454C454D5452494100B4
:106110000000464154454320535420414E445245CB
:106120000000002D303436333339343035302D30E3
:106130003436323934313437342D30343632393420
:10614000313437342D303436333339343035302D23
:106150003233333634363635332D32333336343604
:106160003635332D3233343035393634322D3233FF
:10617000343035393634327625733B6C7425733BB5
:106180006C6F25733B72303B63303B6B303B682553
:10619000733B644E2F413B6625733B0A006F2053CF
:1061A000697374656D6120646520617271756976CB
:1061B0006F00496E73697261206F20436172746170
:1061C0006F004572726F20616F206D6F6E74617227
:1061D000004572726F20616F2063726961720065A1
:1061E000787466656E63652E747874004147554116
:1061F0005244452E2E2E004D4D43205665722E20C2
:10620000330053656D2043617274616F005665728F
:10621000696669717565006F206172717569766F65
:10622000005344205645522E20310042313A464513
:106230004E4345006F2063617274616F0042323AD1
:106240004C544C4F0046454E43453A0044454E544D
:10625000524F004750474741004750524D43004678
:1062600049583A00464F5241002E746C6D006C6FD5
:106270003A006C743A00464154000D0A007C00005C
:020000040020DA
:08000000FFFFFFFFFFFFFFFF00
:020000040030CA
:0E00000000051F1FFF8385FF0FC00FE00F409C
:00000001FF
