:0400000007EF00F016
:100008004682B1ED1DF002EF22F0B1C0C2F0B4514A
:10001800D96EDA6A000EDE6E000EDD6E20EE04F098
:10002800AF51D926B051DA22DECF20F0DDCF21F052
:10003800AFC0D9FFB0C0DAFFDECF22F0DDCF23F0AA
:1000480070EC29F00001C16FC151D8A4120020EE54
:1000580002F0AF51D926B051DA22DFBE120020EEED
:1000680002F0AF51D926B051DA22DFA2120020EEF9
:100078000AF0AF51D926B051DA2210EE0AF0AF518A
:10008800E126B051E222E6CFB9F0E6CFBAF0E6CFEA
:10009800BBF0E6CFBCF0B251B925BD6FB351BA2160
:1000A800BE6F000EBB21BF6F000EBC21C06FDE50BB
:1000B800BD5DDE50BE59DE50BF59DE50C059D8A0D4
:1000C80012002AD220EE06F0AF51D926B051DA221A
:1000D800FF0EDE14B56F010EDE14B66F000EDE14CF
:1000E800B76F000EDE14B86FB551B611B711B8115D
:1000F800D8A45CD120EE04F0AF51D926B051DA2251
:1001080010EE1DF0DE50E126DD50E22220EE03F075
:10011800AF51D926B051DA22E650DE5CD8A06BD0B8
:1001280020EE06F0AF51D926B051DA22DE50DE10AB
:10013800DE10DE10D8A423D020EE0EF0AF51D92661
:10014800B051DA22DECFC9F0DDCFCAF0C951CA11E9
:10015800D8A425D0000EA26F000EA16F75EC18F080
:10016800A1C0C9F0A2C0CAF020EE0EF0AF51D92646
:10017800B051DA22C9C0DEFFCAC0DDFF10D020EEC0
:1001880010F0AF51D926B051DA22DECFA1F0DDCF81
:10019800A2F075EC18F0A1C0C9F0A2C0CAF0C9510C
:1001A800CA11D8B4BDD1C905CA11D8B4ECD120EE52
:1001B80004F0AF51D926B051DA2210EE16F0DE5015
:1001C800E126DD50E222E650C95DE650CA59D8B0B2
:1001D800DAD120EE10F0AF51D926B051DA22C9C0D9
:1001E800DEFFCAC0DDFF20EE03F0AF51D926B051C3
:1001F800DA22000EDF6E20EE10F0AF51D926B05192
:10020800DA22DECF26F0DDCF27F052EC21F0000114
:1002180020EE03F0AF51D926B051DA22DF50B56F86
:10022800B5512624C36F000E2720C46F000E282066
:10023800C56F000E2920C66FB2C0B5F0B3C0B6F0C6
:10024800090EB76FD890B633B533B72FFBD7B5C003
:10025800C7F0B6C0C8F0C751C811D8B469D020EEED
:1002680003F0AF51D926B051DA22DF50B56FB5513E
:10027800C725B66F000EC821B76F20EE04F0AF5146
:10028800D926B051DA2210EE1DF0DE50E126DD50FD
:10029800E222E750B86FB96BB651B85DB751B9599A
:1002A800D8B01CD020EE04F0AF51D926B051DA22D4
:1002B80010EE1DF0DE50E126DD50E222E750B56F6A
:1002C80020EE03F0AF51D926B051DA22DF50B66FD5
:1002D800B651B55DC76FC86BD8A0C807C2C068F073
:1002E800696BC3C06AF0C4C06BF0C5C06CF0C6C00F
:1002F8006DF0C7C06EF0000E00EC29F00009D8A41C
:1003080042D120EE03F0AF51D926B051DA22C751BD
:10031800DF26C7C0B5F0C8C0B6F0090ED890B5370B
:10032800B637E82EFBD7B5C0CBF0B6C0CCF0DAD0E4
:1003380020EE0AF0AF51D926B051DA2210EE06F0BD
:10034800AF51E126B051E222DE50E65CDE50E658BD
:10035800DE50E658DE50E658D8A021D0000E746F63
:10036800000E756F000E766F000E776FA0EC17F019
:100378000009D8B408D120EE04F0AF51D926B05105
:10038800DA2210EE04F0DE50E126DD50E222C3C08E
:10039800E6FFC4C0E6FFC5C0E6FFC6C0E6FF20EE24
:1003A80003F0AF51D926B051DA22DF2A20EE10F03F
:1003B800AF51D926B051DA22DECF26F0DDCF27F0B3
:1003C80052EC21F0000120EE03F0AF51D926B051D4
:1003D800DA22DF50B56FB5512624B66F000E2720FC
:1003E800B76F000E2820B86F000E2920B96FFF0ED6
:1003F800B625C36FFF0EB721C46FFF0EB821C56FB6
:10040800FF0EB921C66FC3C074F0C4C075F0C5C073
:1004180076F0C6C077F0A0EC17F00009D8B4B3D0D6
:10042800FF0EB56F010EB66F20EE06F0AF51D9265C
:10043800B051DA22DECFB7F0DDCFB8F0B551B7173B
:10044800B651B817B7510008CB6FB851D8A0E82AF1
:100458000208CC6FCB51B25DCC51B359D8B004D09F
:10046800B2C0CBF0B3C0CCF0FF0EB56F010EB66FC3
:1004780020EE06F0AF51D926B051DA22DECFB7F020
:10048800DDCFB8F0B551B717B651B81720EE04F064
:10049800AF51D926B051DA22DECFB9F0DDCFBAF0AC
:1004A800B751B927B851BA23200EB9251A6E000ED4
:1004B800BA211B6EC2C01CF01D6ACBC01EF0CCC096
:1004C8001FF0FBEC29F0000120EE04F0AF51D92613
:1004D800B051DA2210EE1FF0DE50E126DD50E222A4
:1004E800010EE76ECB51C22720EE06F0AF51D92698
:1004F800B051DA22CB51DE26CC51DE22000EDE22AC
:10050800DE22B451D96EDA6ACB51DE26CC51DD2217
:10051800CB51B25FCC51B35BB251B311D8A4D2D591
:1005280020EE06F0AF51D926B051DA2210EE0AF0CB
:10053800AF51E126B051E222DE50E65CDE50E658CB
:10054800DE50E658DE50E658D8B014D020EE06F05B
:10055800AF51D926B051DA2210EE0AF0AF51E12698
:10056800B051E222DECFE6FFDECFE6FFDECFE6FFC8
:10057800DECFE6FF20EE02F0AF51D926B051DA22E5
:10058800000EDB8A120020EE02F0AF51D926B051DE
:10059800DA22000EDB8E12007C51D96EDA6ADECFC9
:1005A800A0F0DDCFA1F003D00001A04BA12BA0C08B
:1005B800F6FFA1C0F7FFF86A070EF76403D008003A
:1005C800F55005D0F6CFE1FFF7CFE2FFE750200A5C
:1005D800D8B4EAD7A0C0F6FFA1C0F7FFF86A070EA3
:1005E800F76403D00800F55005D0F6CFE1FFF7CF48
:1005F800E2FFE7502F0AD8A403D00001A04BA12B9B
:1006080000017C51D96EDA6AA0C0DEFFA1C0DDFF0F
:1006180036C0A8F037C0A9F0A851A911D8A402D0B3
:100628000A0E120020EE1CF0A851D926A951DA2290
:10063800DF50D8B40FD0000E11EC2BF00001A36FDF
:10064800A3B108D07D51D8A4A3A502D0090E1200E9
:10065800000E1200A8C01AF0A9C01BF0000E1D6EF3
:10066800000E1C6E020E1F6E200E1E6E40EC2BF04C
:10067800000E93EC2BF00001A36FA3A102D0010E92
:1006880012007D51D8B402D0A3B5E0D7000E986F00
:10069800000E996F000E9A6F000E9B6F98C074F051
:1006A80099C075F09AC076F09BC077F0A1EC24F061
:1006B8000001A26FA205D8A423D021EEE2F0A85130
:1006C800D926A951DA22DF50D8B41AD021EEE6F0A3
:1006D800A851D926A951DA22DECF98F0DECF99F0B9
:1006E800DECF9AF0DECF9BF098C074F099C075F019
:1006F8009AC076F09BC077F0A1EC24F00001A26FBD
:10070800A251D8A40CD020EE2BF0A851D926A9517B
:10071800DA22DE5004E1020EDE18D8B402D00B0E45
:10072800120020EE36F0A851D926A951DA22DECFE0
:100738007EF0DDCF7FF07EC0A4F07FC0A5F0A66B71
:10074800A76BA451A511A611A711D8A40ED020EE0D
:1007580044F0A851D926A951DA22DECFA4F0DECF81
:10076800A5F0DECFA6F0DECFA7F020EE14F0A8515A
:10077800D926A951DA22A4C0DEFFA5C0DDFF20EEEC
:1007880030F0A851D926A951DA2210EE1EF0A8514E
:10079800E126A951E222DFCFE7FFA4C01AF0A5C0E5
:1007A8001BF0A6C01CF0A7C01DF020EE1EF0A8513B
:1007B800D926A951DA22DF507E6F7E511E6E1F6A3C
:1007C800206A216A30EC28F01AC0A4F01BC0A5F0FA
:1007D8001CC0A6F01DC0A7F0000120EE2EF0A85105
:1007E800D926A951DA22DECF7EF0DDCF7FF07E5107
:1007F8009825806F7F519921816F000E9A21826F11
:10080800000E9B21836F20EE08F0A851D926A9512C
:10081800DA2280C0DEFF81C0DEFF82C0DEFF83C037
:10082800DEFF20EE2DF0A851D926A951DA2210EECC
:100838001DF0A851E126A951E222DFCFE7FF20EE03
:1008480031F0A851D926A951DA2210EE02F0A851A8
:10085800E126A951E222DECFE6FFDDCFE5FF20EE5B
:1008680033F0A851D926A951DA22DECF7EF0DDCFA8
:100878007FF07EC09CF07FC09DF09E6B9F6B9C516B
:100888009D119E119F11D8A40ED020EE40F0A851C2
:10089800D926A951DA22DECF9CF0DECF9DF0DECF3B
:1008A8009EF0DECF9FF020EE02F0A851D926A95184
:1008B800DA22DECF7EF0DDCF7FF0040E806FD89095
:1008C8007F337E33802FFBD77E51816F7F51826FBC
:1008D800836B846B20EE2EF0A851D926A951DA2219
:1008E800DECF85F0DDCF86F08551876F8651886F22
:1008F800896B8A6B871F881F891F8A1F872B000EA9
:10090800882389238A23A451875D8B6FA551885931
:100918008C6FA65189598D6FA7518A598E6F815155
:100928008B5D8F6F82518C59906F83518D59916F68
:1009380084518E59926F9C518F251A6E9D5190212A
:100948001B6E9E5191211C6E9F5192211D6E20EEAF
:100958001DF0A851D926A951DA22DF50936F93517F
:100968001E6E1F6A206A216AE2EC24F0020E1A2425
:100978000001946F000E1B20956F000E1C20966FCF
:10098800000E1D20976F20EE16F0A851D926A95108
:10099800DA2294C0DEFF95C0DDFF010EA26F9751E9
:1009A800961106E1F70E945D0F0E9559D8A002D066
:1009B800020EA26F9751961107E1F70E945DFF0E94
:1009C8009559D8B0ACD601D0AAD620EE08F0A851D7
:1009D800D926A951DA22DECF7EF0DECF7FF0DECF36
:1009E80080F0DECF81F0A4517E25826FA5517F2152
:1009F800836FA6518021846FA7518121856F20EED6
:100A08000CF0A851D926A951DA2282C0DEFF83C092
:100A1800DEFF84C0DEFF85C0DEFF20EE08F0A851AF
:100A2800D926A951DA22DECF7EF0DECF7FF0DECFE5
:100A380080F0DECF81F020EE02F0A851D926A9512E
:100A4800DA22DECF82F0DDCF83F0040E846FD890F7
:100A580083338233842FFBD782517E25856F835160
:100A68007F21866F000E8021876F000E8121886F9D
:100A7800A4518525896FA55186218A6FA6518721A2
:100A88008B6FA75188218C6F20EE10F0A851D926C2
:100A9800A951DA2289C0DEFF8AC0DEFF8BC0DEFFE3
:100AA8008CC0DEFF20EE1AF0A851D926A951DA220F
:100AB800FF0EDE6EFF0EDD6E20EE1CF0A851D9266B
:100AC800A951DA22A2C0DFFF0101504B512BA8C067
:100AD800D9FFA9C0DAFF50C1DEFF51C1DDFF000E0A
:100AE800120020EE04F0AF51D926B051DA22DECF41
:100AF80020F0DDCF21F0AFC0D9FFB0C0DAFFDECFE4
:100B080022F0DDCF23F070EC29F00001C56FC5514C
:100B1800D8A4120020EE02F0AF51D926B051DA2243
:100B2800DFBE120020EE0AF0AF51D926B051DA220A
:100B3800B151DE5CB251DE58B351DE58B451DE58C3
:100B4800D8B016D020EE02F0AF51D926B051DA2233
:100B5800DFB20ED020EE0AF0AF51D926B051DA221A
:100B6800DECFB1F0DECFB2F0DECFB3F0DECFB4F03F
:100B780020EE06F0AF51D926B051DA22DECFC6F00A
:100B8800DECFC7F0DECFC8F0DECFC9F020EE06F02A
:100B9800AF51D926B051DA22DE6ADE6ADE6ADD6A32
:100BA80020EE03F0AF51D926B051DA22FF0EDF6EE6
:100BB800B151B211B311B411D8B49CD120EE04F0E4
:100BC800AF51D926B051DA2210EE1DF0DE50E126E1
:100BD800DD50E222E750B56FB5C0B6F0B76BB86B21
:100BE800B96B090ED890B637B737B837B937E82E8A
:100BF800F9D7B6C0CAF0B7C0CBF0B8C0CCF0B9C00E
:100C0800CDF0C651C711C811C911D8B493D0FF0E81
:100C1800B1251A6EFF0EB2211B6EFF0EB3211C6E9A
:100C2800FF0EB4211D6ECAC01EF0CBC01FF0CCC091
:100C380020F0CDC021F0E2EC24F01AC0B5F01BC0C2
:100C4800B6F01CC0B7F01DC0B8F0FF0E0001C625F5
:100C58001A6EFF0EC7211B6EFF0EC8211C6EFF0EF9
:100C6800C9211D6ECAC01EF0CBC01FF0CCC020F039
:100C7800CDC021F0E2EC24F01A500001B55D1B5004
:100C8800B6591C50B7591D50B859D8A053D0FF0EAB
:100C9800CA25B56FFF0ECB21B66FFF0ECC21B76FFB
:100CA800FF0ECD21B86FB51DB96FB61DBA6FB71D50
:100CB800BB6FB81DBC6FFF0EC625BD6FFF0EC721E9
:100CC800BE6FFF0EC821BF6FFF0EC921C06FB9519B
:100CD800BD15C16FBA51BE15C26FBB51BF15C36FE9
:100CE800BC51C015C46F20EE06F0AF51D926B051E3
:100CF800DA22C1C0DEFFC2C0DEFFC3C0DEFFC4C04F
:100D0800DEFF20EE06F0AF51D926B051DA22DE50D0
:100D1800B15FDE50B25BDE50B35BDD50B45B20EEFA
:100D280010F0AF51D926B051DA22DECFCEF0DDCFA8
:100D3800CFF030D020EE0EF0AF51D926B051DA22E4
:100D4800DECFCEF0DDCFCFF0CE51CF11D8A418D062
:100D5800000EA26F000EA16F75EC18F0A1C0CEF0C6
:100D6800A2C0CFF0CE05CF11D8B4F7D020EE0EF048
:100D7800AF51D926B051DA22CEC0DEFFCFC0DDFF99
:100D880020EE10F0AF51D926B051DA22CEC0DEFFE6
:100D9800CFC0DDFFCE51CF11D8A462D0ABD020EEAA
:100DA80002F0AF51D926B051DA22DFA217D0CEC057
:100DB800A1F0CFC0A2F075EC18F0A1C0CEF0A2C08F
:100DC800CFF0CE51CF11D8A413D0CAC0B1F0CBC048
:100DD800B2F0CCC0B3F0CDC0B4F04CD0CEC089F0E6
:100DE800CFC08AF0B4EC15F089C0CEF08AC0CFF03D
:100DF800CF5104E1020ECE5DD8A0AFD020EE04F0B2
:100E0800AF51D926B051DA2210EE16F0DE50E126A5
:100E1800DD50E222E650CE5DE650CF59D8B09DD0E5
:100E280020EE10F0AF51D926B051DA22CEC0DEFF45
:100E3800CFC0DDFF20EE06F0AF51D926B051DA223F
:100E4800CA51DE26CB51DE22CC51DE22CD51DE2224
:100E5800CA51B15FCB51B25BCC51B35BCD51B45BDE
:100E6800B151CA5DB251CB59B351CC59B451CD59D6
:100E7800D8A095D720EE06F0AF51D926B051DA2286
:100E8800B151DE26B251DE22B351DE22B451DE2248
:100E980020EE03F0AF51D926B051DA22B1C0B5F037
:100EA800B2C0B6F0B3C0B7F0B4C0B8F00A0E05D0FF
:100EB800D890B833B733B633B533E82EF9D7B55130
:100EC800DF6EFF0EB115B56F010EB215B66F000ECD
:100ED800B315B76F000EB415B86FB551B611B71189
:100EE800B811D8B407D020EE03F0AF51D926B051CD
:100EF800DA22DF2A20EE06F0AF51D926B051DA22E5
:100F080010EE0AF0AF51E126B051E222DE50E65C65
:100F1800DE50E658DE50E658DE50E658D8B01200EB
:100F280020EE06F0AF51D926B051DA2210EE0AF0C1
:100F3800AF51E126B051E222DECFE6FFDECFE6FF79
:100F4800DECFE6FFDECFE6FF20EE02F0AF51D92676
:100F5800B051DA22000EDB8A120020EE02F0AF5107
:100F6800D926B051DA22000EDB8E1200236E20C083
:100F78001AF021C01BF03EEC2AF0B6D1000E246E08
:100F880020C0F6FF21C0F7FFF86A070EF76403D008
:100F98000800F55005D0F6CFE1FFF7CFE2FFE750A4
:100FA8000009D8B42AD020C0F6FF21C0F7FFF86A9C
:100FB800070EF76403D00800F55005D0F6CFE1FF1F
:100FC800F7CFE2FFE7502E0AD8B417D020C0F6FFBB
:100FD80021C0F7FFF86ACB0E2424D96EDA6A010E15
:100FE800DA22070EF76403D00800F55005D0F6CFD3
:100FF800E1FFF7CFE2FFE750DF6E204A212A242ADB
:10100800050E2464BDD71200000E246E20C0F6FF22
:1010180021C0F7FFF86A070EF76403D00800F550FF
:1010280005D0F6CFE1FFF7CFE2FFE7500009D8B4CB
:1010380017D020C0F6FF21C0F7FFF86A230E24243A
:10104800D96EDA6A010EDA22070EF76403D00800B7
:10105800F55005D0F6CFE1FFF7CFE2FFE750DF6E9E
:10106800204A212A242A050E2464D0D71200000E13
:10107800246E20C0F6FF21C0F7FFF86A070EF76458
:1010880003D00800F55005D0F6CFE1FFF7CFE2FF17
:10109800E7500009D8B417D020C0F6FF21C0F7FFE9
:1010A800F86A8E0E2424D96EDA6A010EDA22070E47
:1010B800F76403D00800F55005D0F6CFE1FFF7CF6D
:1010C800E2FFE750DF6E204A212A242A0A0E246410
:1010D800D0D7000E1D6E010E21EC27F08E0E1D6E6E
:1010E800010E1E6EAFEC28F01200000E246E20C018
:1010F800F6FF21C0F7FFF86A070EF76403D008006F
:10110800F55005D0F6CFE1FFF7CFE2FFE750000931
:10111800D8B417D020C0F6FF21C0F7FFF86A740EC4
:101128002424D96EDA6A010EDA22070EF76403D096
:101138000800F55005D0F6CFE1FFF7CFE2FFE75002
:10114800DF6E204A212A242A0B0E2464D0D71200ED
:10115800000E246E20C0F6FF21C0F7FFF86A070EC4
:10116800F76403D00800F55005D0F6CFE1FFF7CFBC
:10117800E2FFE750200AD8B42AD020C0F6FF21C0E9
:10118800F7FFF86A070EF76403D00800F55005D09A
:10119800F6CFE1FFF7CFE2FFE7500009D8B417D048
:1011A80020C0F6FF21C0F7FFF86ABD0E2424D96ECF
:1011B800DA6A010EDA22070EF76403D00800F55048
:1011C80005D0F6CFE1FFF7CFE2FFE750DF6E204A08
:1011D800212A242A050E2464BDD71200000E246E8D
:1011E80020C0F6FF21C0F7FFF86A8F0E2424D96EBD
:1011F800DA6A020EDA22070EF76403D00800F55007
:1012080005D0F6CFE1FFF7CFE2FFE750DF6E204AC7
:10121800212A242A030E2464E3D71200000E246E28
:1012280020C0F6FF21C0F7FFF86A8D0E2424D96E7E
:10123800DA6A020EDA22070EF76403D00800F550C6
:1012480005D0F6CFE1FFF7CFE2FFE750DF6E204A87
:10125800212A242A030E2464E3D71200000E246EE8
:1012680020C0F6FF21C0F7FFF86A070EF76403D025
:101278000800F55005D0F6CFE1FFF7CFE2FFE750C1
:10128800200AD8B42AD020C0F6FF21C0F7FFF86A98
:10129800070EF76403D00800F55005D0F6CFE1FF3C
:1012A800F7CFE2FFE7500009D8B417D020C0F6FF07
:1012B80021C0F7FFF86AD10E2424D96EDA6A010E2C
:1012C800DA22070EF76403D00800F55005D0F6CFF0
:1012D800E1FFF7CFE2FFE750DF6E204A212A242AF8
:1012E800050E2464BDD712002350000AD8B446D690
:1012F800010AD8B489D6030AD8B4B9D6010AD8B431
:10130800F4D6070AD8B424D7010AD8B467D7030A91
:10131800D8B484D7010AD8A41200A0D7DF0E0201DE
:10132800D56F000ECA6F000EC96FC9C2D6F2CAC205
:10133800D7F2D62903E1D729D8B41200DDC0F6FFC9
:10134800DEC0F7FF0800F5CFDAF20001DD4BDE2B37
:101358000201DA51D8B41200250EDA19D8B419D01E
:10136800DAC2CDF00001CE6BDBC0CFF0DCC0D0F02C
:101378005FEC2AF0CDC0D6F2CEC0D7F20201D62952
:1013880003E1D729D8B484D1000ED76F010ED66FE8
:101398007FD1000ECF6FCFC2CDF2CE6BDDC0F6FF8E
:1013A800DEC0F7FF0800F5CFDAF20001DD4BDE2BD7
:1013B800300E0201DA19D8A423D0010ECF6FDDC098
:1013C800F6FFDEC0F7FF0800F5CFDAF20001DD4BCB
:1013D800DE2B16D0CDC21AF0CEC21BF0000E1D6E49
:1013E8000A0E1C6EA6EC2BF00201DA511A26000E2A
:1013F8001B22D00E1A24CD6FFF0E1B20CE6FDFD715
:101408002F0E0201DA6503D0390EDA65E3D76C0EC8
:10141800DA19D8A40BD0CF83DDC0F6FFDEC0F7FF02
:101428000800F5CFDAF20001DD4BDE2B730E020166
:10143800DA19D8A415D0D551D96EDA6ADECFD4F02E
:10144800DDCFD5F0DBC0D6F0DCC0D7F0AAEC27F0B2
:10145800D4C0D6F2D5C0D7F2020E0201D52718D1D2
:10146800630EDA19D8A41DD0D551D96EDA6ADF50C7
:101478000001E56FE551CD6FCE6BDBC0CFF0DCC06E
:10148800D0F05FEC2AF0CDC0D6F2CEC0D7F2020E73
:101498000201D527D62904E1D729D8A475D7F8D0D1
:1014A80073D7000ED06F640EDA19D8A402D00A0ED2
:1014B800D06F750EDA19D8A402D00A0ED06F580E64
:1014C800DA19D8A402D0100ED06FD051D8B41200B7
:1014D800CFA30DD0D551D96EDA6ADECFD1F2DECFE7
:1014E800D2F2DECFD3F2DECFD4F2040E1FD0640ED8
:1014F800DA19D8B40ED0D551D96EDA6ADECFE5F054
:10150800DDCFE6F0E5C0D1F2E6C0D2F2D36BD46B02
:101518000CD0D551D96EDA6ADECFD1F2DDCFD2F256
:10152800000ED2BFFF0ED36FD46F020ED527640E04
:10153800DA19D8A40ED0800ED45DD8A00AD0D16D07
:10154800D21FD8B0D22BD31FD8B0D32B000ED4576C
:10155800CF85000ED96F0F0ED86F000EC86FD1C29D
:101568001AF0D2C21BF0D3C21CF0D4C21DF0D05165
:101578001E6E1F6A206A216ABCEC26F01A50300FD2
:101588000201DA6F390EDA6502D0070EDA27D807BA
:10159800D8A0D907B90ED825D96E020ED921DA6E8E
:1015A800DAC2DFFFD1C21AF0D2C21BF0D3C21CF0DC
:1015B800D4C21DF0D0511E6E1F6A206A216AE2EC67
:1015C80024F01AC0D1F21BC0D2F21CC0D3F21DC045
:1015D800D4F20201D851D911D8B406D0D151D211C0
:1015E800D311D411D8A4BBD7D851D911D8A4CFA519
:1015F8000BD0D807D8A0D907B90ED825D96E020EB6
:10160800D921DA6E2D0EDF6ECD510F08CD6FCE5178
:10161800D8A0E82A0008CE6F16D00201CFB104D0B6
:10162800000ECC6F200E03D0000ECC6F300ECB6FA7
:10163800D807D8A0D907B90ED825D96E020ED92156
:10164800DA6ECBC2DFFFD851D911D8B40DD0D8513A
:10165800CD5DCE51800A0001E56F0201D951800AA3
:101668000001E559D8A0D9D7B90E0201D825000143
:10167800D46F020E0201D9210001D56FDBC0D6F06C
:10168800DCC0D7F0AAEC27F0D4C0D6F2D5C0D7F288
:101698000201D651C927D751CA234BD620EE04F0F0
:1016A800C151D926C251DA22000EDE6E000EDD6E5F
:1016B8001F0EC517C30E7C6FC5511E0B7D6FD0EC76
:1016C80002F00001DC6FDC51D8B402D0DC5112000A
:1016D800DF0EAA6FCA0EAB6FC3C0ACF0C4C0ADF0CA
:1016E800DD0EAE6FADEC0FF0DC6FC5C0C6F01C0EA2
:1016F800C617D8B4DDD0DC51D8B434D0020EDC190A
:10170800D8A4E4D7DF0EAF6FDD0EB06FEAEC10F0AF
:10171800DC6FDC51D8A4DAD7DDC01AF0DEC01BF0CC
:10172800000E1D6E000E1C6E000E1F6E200E1E6E2B
:1017380040EC2BF0DDC01AF0DEC01BF0CA0E1C6EA8
:101748001D6A000E1F6E0B0E1E6EFBEC29F00001C9
:1017580020EE0CF0DD51D926DE51DA22D5C0DFFFAC
:10176800C5877AD0C5A502D0070E1200DD51DE115B
:10177800D8B40CD020EE0BF0DD51D926DE51DA2298
:10178800DF50C66F110EC617D8B402D0060E12006D
:10179800C5A762D020EE1AF0DD51D926DE51DA2233
:1017A800DECFD6F0DDCFD7F020EE1AF0DD51D92606
:1017B800DE51DA22000EDE6E000EDD6E20EE1CF029
:1017C800DD51D926DE51DA22DE6ADE6ADE6ADD6A9A
:1017D80020EE1FF0E351D926E451DA22010EDF6E24
:1017E80020EE04F0E351D926E451DA22DECFD8F016
:1017F800DECFD9F0DECFDAF0DECFDBF0D6C0A1F055
:10180800D7C0A2F0F4EC22F00009D8B40DD0D8C0AB
:1018180074F0D9C075F0DAC076F0DBC077F0A0ECD0
:1018280017F00009D8A402D0080E1200FF0EC66FE8
:10183800FF0EC76FD6C0C8F0D7C0C9F0C651C827B9
:10184800C751C92320EE18F0E351D926E451DA2212
:10185800C8C0DEFFC9C0DDFFC5A745D020EE0BF02C
:10186800DD51D926DE51DA22000EDF6E4DEC1BF079
:101878001EC0D8F01FC0D9F020C0DAF021C0DBF0BC
:1018880020EE0EF0DD51D926DE51DA22D8C0DEFF77
:10189800D9C0DEFFDAC0DEFFDBC0DEFF20EE1FF0BE
:1018A800E351D926E451DA22010EDF6EC58B1BD035
:1018B800DC51D8A40BD7DD51DE11D8B408D020EE06
:1018C8000BF0DD51D926DE51DA22DFA802D0020E54
:1018D8001200C5A308D020EE0BF0DD51D926DE5149
:1018E800DA22DFB053D720EE04F0E351D926E451D1
:1018F800DA2210EE16F0C151E126C251E222DECF03
:10190800E6FFDECFE6FFDECFE6FFDECFE6FF20EE26
:101918001AF0C151D926C251DA22DDC0DEFFDEC07D
:10192800DDFF20EE02F0C151D926C251DA22C5C02E
:10193800DFFF20EE1AF0DD51D926DE51DA2210EE53
:101948000EF0C151E126C251E222DECFE6FFDDCF23
:10195800E5FF20EE1CF0DD51D926DE51DA2210EE2B
:101968000AF0C151E126C251E222DECFE6FFDECF06
:10197800E6FFDECFE6FFDECFE6FF20EE06F0C15140
:10198800D926C251DA22DE6ADE6ADE6ADD6A20EE14
:1019980003F0C151D926C251DA22FF0EDF6E20EEC4
:1019A80004F0C151D926C251DA22E3C0DEFFE4C0F7
:1019B800DDFFE3C0D9FFE4C0DAFFC1C0E1FFC2C068
:1019C800E2FFDECFE6FFDDCFE5FF000E1200000EDE
:1019D8000001646F000E636F000E6A6F000E696F7E
:1019E800000E6B6F100E2D6E940EE82EFED72D2E66
:1019F800FCD700D0640EBCEC2AF08BEC23F0AA0EC6
:101A08001F6E010E206E000E216E000E226E870ED4
:101A1800236E480ED7EC27F00AEC2DF004EC2DF0DD
:101A28000001676F6705D8A404D06751666F656BBE
:101A380006D0AA0E6719D8A402D067516513634B64
:101A4800642BAA0E651903E16605D8B408D064BFF3
:101A5800E5D7E80E635D030E6459D8A0DFD7AA0E58
:101A6800651902E16605D8A49ED0000E6A6F000EC3
:101A7800696F0A0EBCEC2AF0000E1F6E000E206E75
:101A8800000E216E000E226E000E236E770ED7EC2C
:101A980027F00AEC2DF004EC2DF000016B6F694B78
:101AA8006A2B6B05D8B408D06ABFF5D76A5104E130
:101AB8000A0E695DD8A0EFD7000E6A6F000E696F35
:101AC8000A0EBCEC2AF0000E1F6E000E206E000EEF
:101AD800216E400E226E000E236E690ED7EC27F0A1
:101AE8000AEC2DF004EC2DF000016B6F694B6A2BAA
:101AF8006B51D8A4BED70A0EBCEC2AF0000E1F6E9C
:101B0800000E206E000E216E000E226EFF0E236E58
:101B18007A0ED7EC27F00AEC2DF004EC2DF000013A
:101B28006B6F6B516B25800B686F694B6A2B685123
:101B3800D8B40BD06805D8B408D06ABFEED76A51BC
:101B480004E10A0E695DD8A0E8D76851D8B403D07B
:101B58006805D8A48AD7100E2D6E940EE82EFED7ED
:101B68002D2EFCD700D0000E0001626F6851D8A45A
:101B7800ACD00A0EBCEC2AF0000E1F6E020E206ECE
:101B8800000E216E000E226EFF0E236E500ED7EC53
:101B980027F00AEC2DF004EC2DF000016B6F6B516F
:101BA800D8B493D0F8D7000E6A6F000E696F010E93
:101BB800BCEC2AF0000E1F6E000E206E000E216E87
:101BC800000E226EFF0E236E690ED7EC27F00AEC8A
:101BD8002DF004EC2DF000016B6F694B6A2B6B51F3
:101BE800D8A40BD0000E1D6E010E21EC27F0140EA8
:101BF8001D6E620E1E6EAFEC28F0100E2D6E940E48
:101C0800E82EFED72D2EFCD700D000016B51D8B49A
:101C180008D06ABFDED7100E695D270E6A59D8A0B2
:101C2800D8D70A0E69196A11D8A436D0000E6A6F7F
:101C3800000E696F0A0EBCEC2AF0000E1F6E000E33
:101C4800206E000E216E000E226EFF0E236E410ED6
:101C5800D7EC27F00AEC2DF004EC2DF000016B6FA7
:101C6800694B6A2B6B51D8A40BD0000E1D6E010E68
:101C780021EC27F0E00E1D6E610E1E6EAFEC28F011
:101C880000016B51D8B408D06ABFE6D7100E695D61
:101C9800270E6A59D8A0E0D70A0EBCEC2AF0000E2D
:101CA8001F6E020E206E000E216E000E226EFF0EB9
:101CB800236E500ED7EC27F00AEC2DF004EC2DF033
:101CC80000016B6F6B51D8A4F9D7625112000B6EEB
:101CD8000BC00CF033D14304D8A405D0000E010189
:101CE800556F010E546F020E4318D8A405D0000E8C
:101CF8000101536F010E526F010154515511D8B4AF
:101D0800120052515311D8B41200000E536F000E36
:101D1800526F52C154F153C155F11200000E446E76
:101D280044C042F01200A60E4424D96EDA6A010EAD
:101D3800DA22000EDF6E4250D8A432D0A60E016E11
:101D4800010E026EDD0E036E010E046E000E066EAD
:101D5800000E056E050E076E94EC29F0DD0E016E7F
:101D6800010E026E590E036E620E046E27EC29F006
:101D780001500210D8A402D0010E11D0DD0E016E60
:101D8800010E026E530E036E620E046E27EC29F0EC
:101D980001500210D8A402D0020E01D0030E436EE7
:101DA8004204D8A415D04304D8A412D0A60E016EBC
:101DB800010E026EB20E036E010E046E000E066E68
:101DC800000E056E060E076E94EC29F001012F81B6
:101DD800030E4218D8A41AD04304D8A417D0310E41
:101DE8000101E319D8A410D0A60E016E010E026EEF
:101DF8009A0E036E010E046E000E066E010E056E3D
:101E08000B0E076E94EC29F001013081040E421884
:101E1800D8A40CD04304D8A409D04E0E0101A619A9
:101E2800D8A402D0300E01D02D0E9A6F050E42189C
:101E3800D8A41AD04304D8A417D0310E0101E3194D
:101E4800D8A410D0A60E016E010E026E810E036E8C
:101E5800010E046E000E066E010E056E0B0E076E67
:101E680094EC29F001013181060E4218D8A40CD057
:101E78004304D8A409D0450E0101A619D8A402D05C
:101E8800300E01D02D0E816F070E4218D8A415D040
:101E98004304D8A412D0A60E016E010E026ED70E0E
:101EA800036E010E046E000E066E000E056E030E24
:101EB800076E94EC29F001013481090E4218D8A468
:101EC80015D04304D8A412D0A60E016E010E026EDE
:101ED800C40E036E010E046E000E066E000E056E33
:101EE800060E076E94EC29F001013281060E4218A5
:101EF800D8A416D0020E4318D8A412D0A60E016E8C
:101F0800010E026EE30E036E010E046E000E066EE5
:101F1800000E056E020E076E94EC29F00101338164
:101F2800422A000E446E1200A60E4424D96EDA6AC4
:101F3800010EDA220CC0DFFF442A12000C500D0AF1
:101F4800D8B4C9D6290AD8B4E9D6080AD8B4EBD681
:101F5800EBD736C0B7F037C0B8F0AA51D96EDA6AF5
:101F6800040ED926B7C0DEFFB8C0DDFF20EE0CF0A6
:101F7800B751D926B851DA22DECFB9F0DDCFBAF0A1
:101F8800AA51D96EDA6A060ED926000EDE6E000E48
:101F9800DD6EAA51E16EE26A080EE126DECFE6FFA9
:101FA800DDCFE5FFB951AF6FBA51B06FB16BB26B0E
:101FB800AA51D96EDA6A0A0ED926AFC0DEFFB0C0C0
:101FC800DEFFB1C0DEFFB2C0DEFFAA51D96EDA6A09
:101FD800020ED926000EDE6E000EDD6EACC0F6FFD6
:101FE800ADC0F7FFF86A070EF76403D00800F55094
:101FF80005D0F6CFE1FFF7CFE2FFE7500009D8A4FC
:102008000AD00001AE51D96EDA6A000EDE6E000EFB
:10201800DD6E000E1200AC0E226EABC023F0A0ECF9
:102028001AF00001BB6FBB05D8A402D0040E120041
:10203800AA51D96EDA6A0A0ED926DECF74F0DECF3D
:1020480075F0DECF76F0DECF77F0A0EC17F0000960
:10205800D8A402D0080E1200AA51D96EDA6A020E6C
:10206800D926DECFAFF0DDCFB0F00F0EAF17000EE0
:10207800B017050ED890AF37B037E82EFBD7B7C0EA
:10208800B1F0B8C0B2F0AF51B127B051B223200EB1
:10209800B125BC6F000EB221BD6FBCC0D9FFBDC059
:1020A800DAFFDF50D8A40DD0BB51D8B404D0000E4D
:1020B800B46F030E03D0000EB46F020EB36FB351AA
:1020C8001200BCC0D9FFBDC0DAFFE50EDE18D8B4D7
:1020D80019D020EE0BF0BC51D926BD51DA22DFB65B
:1020E80011D0BCC01AF0BDC01BF0ABC01CF01D6AFB
:1020F800000E1F6E0B0E1E6E42EC23F01A501B10C2
:10210800D8B414D0AAC09EF03BEC19F00009D8A4AA
:102118008FD7BB51D8B404D0000EB66F030E03D0CE
:10212800000EB66F020EB56FB55112000001BB511B
:10213800D8A408D0AE51D96EDA6ABCC0DEFFBDC0E3
:10214800DDFF67D720EE0BF0BC51D926BD51DA224E
:10215800DFB802D0030E120020EE1AF0BC51D926C7
:10216800BD51DA22DECFB9F0DDCFBAF0AA51D96E6F
:10217800DA6A060ED926B9C0DEFFBAC0DDFFAA5159
:10218800E16EE26A080EE126DECFE6FFDDCFE5FF6D
:10219800B9C026F0BAC027F052EC21F00001AA51CC
:1021A800D96EDA6A0A0ED92626C0DEFF27C0DEFFFE
:1021B80028C0DEFF29C0DEFFAA51D96EDA6A020EF6
:1021C800D926020EDE6E000EDD6E25D7AF51D96E10
:1021D800DA6A040ED926DECFBFF0DDCFC0F0AF51EA
:1021E800D96EDA6A060ED926DECFBDF0DDCFBEF095
:1021F800BD51BE11D8B41ED0AF51D96EDA6A080EDF
:10220800D926BDC0DEFFBEC0DDFFBDC026F0BEC002
:1022180027F052EC21F00001AF51D96EDA6A0A0EAC
:10222800D92626C0DEFF27C0DEFF28C0DEFF29C072
:10223800DEFF13D020EE0CF0BF51D926C051DA22B0
:10224800AF51E16EE26A0A0EE126DECFE6FFDECF8D
:10225800E6FFDECFE6FFDECFE6FFAF51D96EDA6AE2
:10226800020ED926000EDE6E000EDD6EAF51D96E5D
:10227800DA6A0A0ED926DECF74F0DECF75F0DECF2B
:1022880076F0DECF77F0A0EC17F00009D8A402D0E2
:10229800080E1200AF51D96EDA6A020ED926DECFC7
:1022A800B1F0DDCFB2F00F0EB117000EB217050E68
:1022B800D890B137B237E82EFBD7BFC0B3F0C0C053
:1022C800B4F0B151B327B251B423200EB325BA6F7D
:1022D800000EB421BB6FBAC0D9FFBBC0DAFFDF5014
:1022E800BC6FBC51D8B404D0E50EBC19D8A409D031
:1022F800B051D96EDA6ABAC0DEFFBBC0DDFF000E8E
:102308001200AFC09EF03BEC19F00009D8A4AED77C
:10231800BD51BE11D8B413D0AF51D96EDA6A080EC8
:10232800D926DECFA1F0DDCFA2F075EC18F0A1C060
:10233800BDF0A2C0BEF0BD51BE11D8A402D0060E99
:102348001200BD05BE11D8B4A3D7000E746F000EDD
:10235800756F000E766F000E776FA0EC17F000090E
:10236800D8B496D7BDC026F0BEC027F052EC21F0F5
:1023780026C0B5F027C0B6F028C0B7F029C0B8F01D
:10238800000120EE04F0BF51D926C051DA22B5C0B1
:10239800DEFFB6C0DEFFB7C0DEFFB8C0DEFF200E2E
:1023A800BF251A6E000EC0211B6E000E1D6E000E9A
:1023B8001C6E020E1F6E000E1E6E40EC2BF000010C
:1023C80020EE1DF0BF51D926C051DA22DF50B96F77
:1023D8001DD0200EBF25686F000EC021696FB5C0E3
:1023E8006AF0B6C06BF0B7C06CF0B8C06DF0010E03
:1023F8006E6F000E00EC29F00009D8A449D7010E31
:10240800B527000EB623B723B823B907B951D8A406
:10241800E0D720EE1FF0BF51D926C051DA22010EB5
:10242800DF6E200EBF25B16F000EC021B26FB05114
:10243800D96EDA6AB1C0DEFFB2C0DDFF60D784A012
:1024480003D03904D8A4D6D034503510D8A45BD0E2
:1024580033B00CD0080E1D6E010E21EC27F03F0E94
:102468001D6E620E1E6EAFEC28F03CD0080E1D6E7D
:10247800010E21EC27F0640E1D6E620E1E6EAFEC8D
:1024880028F00D0E1D6E010E21EC27F031A003D0AF
:102498002F6A2F2A01D02F6A2F5000016C6F6D6BA5
:1024A8006E6B6F6B7FEC2AF00E0E1D6E010E21EC29
:1024B80027F07D0E1D6E620E1E6EAFEC28F00F0E1B
:1024C8001D6E010E21EC27F032A003D02F6A2F2AAF
:1024D80001D02F6A2F5000016C6F6D6B6E6B6F6BA4
:1024E8007FEC2AF0080E1D6E020E21EC27F034EC6A
:1024F8002DF01AC01DF01BC01EF0AFEC28F0270EFF
:10250800356E100E346E3804D8B472D0010E396EA0
:10251800010E19EC24F0000E1D6E010E21EC27F0BF
:10252800380E1D6E620E1E6EAFEC28F033B00CD064
:10253800080E1D6E010E21EC27F03F0E1D6E620E77
:102548001E6EAFEC28F03CD0080E1D6E010E21EC7B
:1025580027F0640E1D6E620E1E6EAFEC28F00D0E95
:102568001D6E010E21EC27F031A003D02F6A2F2A0F
:1025780001D02F6A2F5000016C6F6D6B6E6B6F6B03
:102588007FEC2AF00E0E1D6E010E21EC27F07D0E59
:102598001D6E620E1E6EAFEC28F00F0E1D6E010E42
:1025A80021EC27F032A003D02F6A2F2A01D02F6AFE
:1025B8002F5000016C6F6D6B6E6B6F6B7FEC2AF0A8
:1025C800000E1D6E020E21EC27F05F0E1D6E620ECE
:1025D8001E6EAFEC28F0080E1D6E020E21EC27F0DF
:1025E80034EC2DF01AC01DF01BC01EF0AFEC28F023
:1025F800010E386E84A204D0020E3918D8A431D046
:1026080034503510D8A408D042EC2CF029EC2BF02B
:10261800070E356ED00E346E020E3818D8B41FD09F
:10262800020E396E010E19EC24F0000E1D6E010E1B
:1026380021EC27F0720E1D6E620E1E6EAFEC28F0B4
:10264800000E1D6E020E21EC27F06E0E1D6E620E3E
:102658001E6EAFEC28F042EC2CF029EC2BF0020EA9
:10266800386E3950D8A41200040E3818D8B419D0CE
:10267800010E19EC24F0000E1D6E010E21EC27F05E
:102688001E0E1D6E620E1E6EAFEC28F0000E1D6E43
:10269800020E21EC27F0300E1D6E620E1E6EAFEC9E
:1026A80028F0040E386E120036C09FF037C0A0F034
:1026B80020EE08F09F51D926A051DA22DECF97F0FC
:1026C800DECF98F0DECF99F0DECF9AF008D189C03E
:1026D8001AF08AC01BF0000E1D6E030E1C6EA6ECCD
:1026E8002BF0D8901B3000018D6F1A309B6F8DC076
:1026F8009CF09BC08DF09CC08EF0090E8F6FD89017
:102708008E338D338F2FFBD78D519725746F8E5154
:102718009821756F000E9921766F000E9A21776FB8
:10272800A0EC17F00009D8A402D0000E1200FF0E8A
:102738008D6F010E8E6F9BC08FF09CC090F08D51F5
:102748008F178E5190179FC091F0A0C092F08F51B3
:10275800912790519223200E91259D6F000E922172
:102768009E6F89B104D08BC093F0946B1AD08B51B3
:102778008D6F8E6B8D3B8E3BF00E8E178D510F0B30
:102788008E13F00E8D179DC0D9FF9EC0DAFFDF5063
:102798000F0B8F6F906B8D518F11936F8E5190111E
:1027A800946F9DC0D9FF9EC0DAFF93C0DFFF9B4B9B
:1027B8009C2B20EE1FF09F51D926A051DA22010E42
:1027C800DF6E9BC08DF09CC08EF0090E8F6FD89085
:1027D8008E338D338F2FFBD78D519725746F8E5184
:1027E8009821756F000E9921766F000E9A21776FE8
:1027F800A0EC17F00009D8B498D7FF0E8D6F010E22
:102808008E6F9BC08FF09CC090F08D518F178E51AA
:1028180090179FC091F0A0C092F08F5191279051CE
:102828009223200E91259D6F000E92219E6F89B1F3
:102838000ED08CC08DF00F0E8D179DC0D9FF9EC095
:10284800DAFFDF50F00B8D118E6F8E510CD08BC0DC
:102858008DF08CC08EF0040E8F6FD8908E338D3330
:102868008F2FFBD78D51956F966B9DC0D9FF9EC05A
:10287800DAFF95C0DFFF41D08A519725746F000EAB
:102888009821756F000E9921766F000E9A21776F47
:10289800A0EC17F00009D8B448D7FF0E8D6F010ED1
:1028A8008E6F89C08FF08AC090F0D8908F3790379C
:1028B8008D518F178E5190179FC091F0A0C092F044
:1028C8008F51912790519223200E9125D96E000E99
:1028D8009221DA6E8BC0DEFF8CC0DDFF0ED020EEB9
:1028E8001CF09F51D926A051DA22DF50010AD8B432
:1028F800EED6030AD8B4C0D718D720EE1FF09F51E0
:10290800D926A051DA22010EDF6E010E1200320E16
:102918000001956F000E966F2FEC2DF01AC044F150
:102928001BC045F104EC28F0020E0001FF654CD0F5
:10293800000E01014D6F000E4C6F0001FD51060D98
:10294800570EF324206E020EF420216E000EBAEC0E
:1029580007F00001FD51060D450EF324206E020E0E
:10296800F420216E010EBAEC07F00001FD510B0DA9
:10297800240EF324206E020EF420216E020EBAEC0F
:1029880007F00001FD510C0D000EF324206E020E1D
:10299800F420216E030EBAEC07F00001FD51060D7C
:1029A800690EF324206E020EF420216E070EBAEC95
:1029B80007F00001FD2B020EFD6506D0000EFD6F2D
:1029C800000EFF6F000EFE6F330E2E6E390E2F6E47
:1029D800430E306E44C120F045C121F01FEC20F0B9
:1029E80020C027F021C028F0DAEC2AF027C02BF00D
:1029F80028C02CF029C02DF0C2EC1EF02BC069F0C5
:102A08002CC06AF02DC06BF0B4EC1FF069C035F132
:102A18006AC036F16BC037F16CC038F1750E206EA4
:102A2800020E216E1FEC20F020C090F021C091F022
:102A3800000E000191BFFF0E926F936F0101355197
:102A48000001905D01013651000191590101375192
:102A5800000192590101385100019359D8B0120070
:102A6800030EFF611200FE51060D690EF324206E5D
:102A7800020EF420216E1FEC20F020C090F021C03F
:102A880091F0000E000191BFFF0E926F936F01014C
:102A980035510001905D0101365100019159010144
:102AA8003751000192590101385100019359D8B0AA
:102AB80052D0FF51060D690EF3241C6E020EF4204D
:102AC8001D6E44C11EF045C11FF0B7EC29F000018E
:102AD800FF510B0D240EF3241C6E020EF4201D6E04
:102AE8002AEC2DF01AC01EF01BC01FF0B7EC29F01D
:102AF8000001FF510C0D000EF3241C6E020EF42091
:102B08001D6E25EC2DF01AC01EF01BC01FF0B7EC8F
:102B180029F00001FF51060D570EF3241C6E020E1A
:102B2800F4201D6E1BEC2DF01AC01EF01BC01FF008
:102B3800B7EC29F00001FF51060D450EF3241C6E79
:102B4800020EF4201D6E20EC2DF01AC01EF01BC0E2
:102B58001FF0B7EC29F0FFC0FEF00001FF2B1200B8
:102B680036C09CF037C09DF08A5104E1020E895DA1
:102B7800D8A002D120EE16F09C51D9269D51DA2218
:102B8800DE50895DDE508A59D8B0F6D020EE08F0C4
:102B98009C51D9269D51DA22DECF96F0DECF97F0F0
:102BA800DECF98F0DECF99F0DAD089C01AF08AC06B
:102BB8001BF0000E1D6E030E1C6EA6EC2BF0D890B9
:102BC8001B3000018B6F1A309A6F8BC09BF09AC034
:102BD8008BF09BC08CF0090E8D6FD8908C338B33A3
:102BE8008D2FFBD78B519625746F8C519721756F5C
:102BF800000E9821766F000E9921776FA0EC17F0E0
:102C08000009D8B4B9D0FF0E8B6F010E8C6F9AC033
:102C18008DF09BC08EF08B518D178C518E179CC0F8
:102C28008FF09DC090F08D518F278E519023200EEC
:102C38008F25D96E000E9021DA6EDF50916F915179
:102C4800946F956B9A4B9B2B9AC08BF09BC08CF022
:102C5800090E8D6FD8908C338B338D2FFBD78B510A
:102C68009625746F8C519721756F000E9821766F99
:102C7800000E9921776FA0EC17F00009D8B47CD02A
:102C8800FF0E8B6F010E8C6F9AC08DF09BC08EF07B
:102C98008B518D178C518E179CC08FF09DC090F072
:102CA8008D518F278E519023200E8F25D96E000EBF
:102CB8009021DA6EDF50916F9151936F926B925120
:102CC80094139351951389B107D0FF0E9415896F0A
:102CD8000F0E95158A6F120094C08BF095C08CF07A
:102CE800040E8D6FD8908C338B338D2FFBD78BC010
:102CF80089F08CC08AF012008A519625746F000EF4
:102D08009721756F000E9821766F000E9921776FC5
:102D1800A0EC17F00009D8B42FD0FF0E8B6F010E6E
:102D28008C6F89C08DF08AC08EF0D8908D378E3721
:102D38008B518D178C518E179CC08FF09DC090F0D1
:102D48008D518F278E519023200E8F25D96E000E1E
:102D58009021DA6EDECF89F0DDCF8AF0120020EE06
:102D68001CF09C51D9269D51DA22DF50010AD8B4B3
:102D78001CD7030AD8B4C0D7000E8A6F010E896F1A
:102D88001200000E0001636F000E626F010E2C64CA
:102D980069D08B9E8A9A0A0EBCEC2AF02C501F6EC2
:102DA800206A216A226AFF0E236E570ED7EC27F09D
:102DB8000AEC2DF004EC2DF00001676F6751D8A4E0
:102DC800F9D70A0EBCEC2AF028C02DF029C02EF045
:102DD8002AC02FF02BC030F0090ED8902D362E3691
:102DE8002F363036E82EF9D72DC01FF02EC020F030
:102DF8002FC021F030C022F0FF0E236E590ED7EC01
:102E080027F00AEC2DF004EC2DF00001676F6751F4
:102E1800D8A4F9D7010EBCEC2AF0FC0EE6EC2CF095
:102E2800000E0001666F000E656F26C0D9FF27C02F
:102E3800DAFFDF50E6EC2CF0264A272A0001654B22
:102E4800662B66BFF2D7020E665DD8A0EED710ECEF
:102E58002DF010EC2DF0010EBCEC2AF0FD0EE6EC86
:102E68002CF067D08B9E8A9A0A0EBCEC2AF028C0F8
:102E78002DF029C02EF02AC02FF02BC030F0090EFB
:102E8800D8902D362E362F363036E82EF9D72DC06D
:102E98001FF02EC020F02FC021F030C022F0000E0D
:102EA800236E580ED7EC27F00AEC2DF004EC2DF029
:102EB8000001676F6751D8A4F9D78A9A8B9E010ED3
:102EC800BCEC2AF0FE0EE6EC2CF0000E0001666F5A
:102ED800000E656F26C0D9FF27C0DAFFDF50E6EC89
:102EE8002CF0264A272A0001654B662B66BFF2D7CD
:102EF800020E665DD8A0EED710EC2DF010EC2DF088
:102F08000A0EBCEC2AF0000E1F6E000E206E000E9A
:102F1800216E000E226E000E236E4D0ED7EC27F0A8
:102F28000AEC2DF004EC2DF00001676F6751D8A46E
:102F3800F9D700016451120036C087F037C088F015
:102F480020EE04F08751D9268851DA22DECF83F0AB
:102F5800DECF84F0DECF85F0DECF86F074518319A2
:102F68000AE17551841907E17651851904E1775111
:102F78008619D8B4B4D020EE1FF08751D9268851CD
:102F8800DA22DF50D8B481D0200E8725686F000E72
:102F98008821696F83C06AF084C06BF085C06CF0CB
:102FA80086C06DF0010E6E6F000E00EC29F000096E
:102FB800D8B402D0000E120020EE1FF08751D92697
:102FC8008851DA22000EDF6E20EE08F08751D926EC
:102FD8008851DA22DECF78F0DECF79F0DECF7AF0D2
:102FE800DECF7BF020EE14F08751D9268851DA2203
:102FF800DECF7CF0DDCF7DF07C5178257E6F7D5172
:1030080079217F6F000E7A21806F000E7B21816FFE
:103018007E51835D7F5184598051855981518659EC
:10302800D8B033D020EE1EF08751D9268851DA2245
:10303800DF50826F020E826101D027D020EE14F09B
:103048008751D9268851DA22DECF78F0DDCF79F0A2
:103058007851832779518423000E8523000E862317
:10306800200E8725686F000E8821696F83C06AF07B
:1030780084C06BF085C06CF086C06DF0010E6E6F79
:10308800000E00EC29F08207D5D77451751176111E
:103098007711D8B424D0200E8725686F000E8821B8
:1030A800696F74C06AF075C06BF076C06CF077C059
:1030B8006DF0010E6E6F000E4FEC26F00009D8A4DB
:1030C80079D720EE04F08751D9268851DA2274C0C6
:1030D800DEFF75C0DEFF76C0DEFF77C0DEFF010EC3
:1030E800120036C0A7F037C0A8F020EE16F0A7519E
:1030F800D926A851DA22DECFA5F0DDCFA6F0A1515E
:10310800A211D8A41BD020EE18F0A751D926A85197
:10311800DA22DECFABF0DDCFACF0AC5104E1020E29
:10312800AB5DD8A006D0A551AB5DA651AC59D8A0CF
:1031380029D0000EAC6F010EAB6F24D0A1C089F06E
:10314800A2C08AF0B4EC15F089C0A9F08AC0AAF030
:10315800AA5109E1020EA95DD8B005D0000EA26FF0
:10316800010EA16F1200A551A95DA651AA59D8B0A8
:1031780005D0A9C0A1F0AAC0A2F01200A1C0ABF06E
:10318800A2C0ACF0ABC0ADF0ACC0AEF0AD4BAE2B56
:10319800A551AD5DA651AE59D8A00FD0000EAE6FA7
:1031A800020EAD6FAC5109E1020EAB5DD8B005D08F
:1031B800000EA26F000EA16F1200ADC089F0AEC064
:1031C8008AF0B4EC15F089C0A9F08AC0AAF0A95118
:1031D800AA11D8B40CD0A905AA11D8B4BFD7AB513D
:1031E800AD19D4E1AC51AE19D8B4E2D7CFD7ADC040
:1031F80089F0AEC08AF0FF0E8C6F8B6958EC13F023
:103208000009D8B4ABD7A151A211D8B40DD0A1C030
:1032180089F0A2C08AF0ADC08BF0AEC08CF058EC3B
:1032280013F00009D8B49AD720EE18F0A751D92680
:10323800A851DA22ADC0DEFFAEC0DDFF20EE1AF0E5
:10324800A751D926A851DA22DE2803E1DE28D8B40E
:1032580009D020EE1AF0A751D926A851DA22DE06A5
:10326800000EDD5AADC0A1F0AEC0A2F01200000100
:103278009E51D96EDA6A020ED926DECF9FF0DDCFD5
:10328800A0F0010E9F25A86F000EA021A96FA8C06D
:103298009FF00F0E9F17D8A492D09E51D96EDA6A6C
:1032A8000A0ED926DE2A000EDE22DE22DE229E51FA
:1032B800D96EDA6A080ED926DE50DE10D8A413D0EB
:1032C8009E51D96EDA6A040ED92610EE02F0DE504D
:1032D800E126DD50E222E650A85DE650A959D8A0C3
:1032E8006ED0000E1200A8C09FF0A9C0A0F0040E76
:1032F800A16FD890A0339F33A12FFBD7FF0EA26FE9
:10330800FF0EA36F9E51D96EDA6A040ED92610EE0D
:103318001DF0DE50E126DD50E222E750A46FA56BD8
:10332800A251A427A351A5239F51A417A051A517C3
:10333800A451A511D8A443D09E51D96EDA6A080EBB
:10334800D926DECF89F0DDCF8AF0B4EC15F089C03C
:10335800A6F08AC0A7F0A75104E1020EA65DD8A086
:10336800C0D79E51D96EDA6A040ED92610EE16F02F
:10337800DE50E126DD50E222E650A65DE650A75970
:10338800D8B0AFD79E51D96EDA6A080ED926A6C032
:10339800DEFFA7C0DDFFA6C026F0A7C027F052ECCD
:1033A80021F000019E51D96EDA6A0A0ED92626C08C
:1033B800DEFF27C0DEFF28C0DEFF29C0DEFF9E51EA
:1033C800D96EDA6A020ED926A8C0DEFFA9C0DDFFD1
:1033D800010E1200DB0E1A6E020E1B6E000E4CEC74
:1033E80029F03F50D8A41FD0200E01012319D8B4CA
:1033F8001AD0200ECB19D8B416D0A50E1C6E020E0A
:103408001D6E460E1E6E620E1F6EB7EC29F0A50EDD
:103418001A6E020E1B6E690E1C6E620E1D6ED9ECC2
:1034280029F0010E3F6E3F50D8B41200580E00012B
:10343800C16F010EC26FA50EC36F020EC46F020EDC
:10344800C56F52EC0BF00009D8A469D0580EAF6FC5
:10345800010EB06F62C1B1F063C1B2F064C1B3F0E4
:1034680065C1B4F075EC05F0000E1D6E020E21EC7E
:1034780027F08E0E1D6E010E1E6EAFEC28F0580E52
:103488000001DB6F010EDC6F9C0EDD6F610EDE6FDD
:10349800D10EDF6F010EE06F8E0EE16F010EE26F4D
:1034A800740EE36F010EE46F92EC09F0580E000100
:1034B800DB6F010EDC6FA00EDD6F610EDE6F8E0E0E
:1034C800DF6F010EE06F740EE16F010EE26F92EC98
:1034D80009F0580E0001DB6F010EDC6FF60EDD6F90
:1034E800610EDE6FCB0EDF6F010EE06F92EC09F01C
:1034F800580E0001DB6F010EDC6F4D0EDD6F620EA2
:10350800DE6FBD0EDF6F010EE06F92EC09F0580E12
:103518000001946F010E956F56EC2BF01200580EB7
:10352800C16F010EC26FA50EC36F020EC46F080EE5
:10353800C56F52EC0BF0EBD723C01AF01B6A000ED4
:103548001D6E200E1C6E000E1F6E0B0E1E6E40ECC4
:103558002BF0000E2A6E180E286E000E2B6E080E29
:10356800296E2250D96EDA6ADFCF24F0010EDE26EA
:10357800DFCF25F0000EDD2224C0F6FF25C0F7FFBF
:10358800F86A070EF76403D00800F55005D0F6CFA7
:10359800E1FFF7CFE2FFE7502C6E2C50D8B404D0EF
:1035A8002F0E2C18D8A412D02B50D8B470D02A5073
:1035B8002814246E2450266E276A2350D96EDA6A9E
:1035C8000B0ED92626C0DFFF2C501200200E2C64CB
:1035D8005ED07F0E2C18D8B45AD02E0E2C18D8A432
:1035E8000CD02AB054D02B50D8B451D0090E2B602F
:1035F8004ED0080E2B6E0B0EB3D7220E2C18D8B453
:1036080046D02A0E2C6001D035D02D0E2C6001D06A
:103618003ED03A0E2C6001D02DD0400E2C6001D047
:1036280036D02AB027D07C0E2C18D8B430D05A0EF9
:103638002C6404D05E0E2C6001D029D0400E2C647E
:103648000AD05B0E2C6007D0080E2918D8A402D027
:10365800289601D02898600E2C640CD07B0E2C6024
:1036680009D0200E2C5E080E2918D8A402D02A866C
:1036780001D02A882A9029502B5CD8B008D0235032
:103688002B24D96EDA6A2CC0DFFF2B2A6AD7010EE9
:103698001200B9EC2BF0FD0E1A24226EFF0E1B202F
:1036A800236EFEEC2BF01AC024F01BC025F0EDECC5
:1036B8002BF01AC026F01BC027F031EC2CF0D00EEE
:1036C8001A242A6E070E1B202B6E0FEC2CF01A50B2
:1036D800296E20EC2CF01A50286ED8902730000163
:1036E800616F2630606F2450626F2550636F646B82
:1036F800656B050ED8906237633764376537E82EF7
:10370800F9D72250666F2350676F686B696B0B0E91
:10371800D8906637673768376937E82EF9D728C0F1
:103728006AF06B6B6C6B6D6B6BC06DF06AC06CF0A4
:103738006B6B6A6B29C06EF06F6B706B716B150EDB
:10374800D8906E376F3770377137E82EF9D7C40EB7
:103758002A24726FFF0E2B20736F746B756B190E12
:10376800D8907237733774377537E82EF9D76E519A
:103778007211766F6F517311776F70517411786F82
:1037880071517511796F6A5176117A6F6B51771192
:103798007B6F6C5178117C6F6D5179117D6F66511B
:1037A8007A117E6F67517B117F6F68517C11806F32
:1037B80069517D11816F62517E11826F63517F1152
:1037C800836F64518011846F65518111856F6051D9
:1037D80082111E6E615183111F6E000E8411206EBE
:1037E800000E8511216E120026C0F6FF27C0F7FFD4
:1037F800F86A070EF76403D00800F55005D0F6CF35
:10380800E1FFF7CFE2FFE7500001656F264A272A5C
:10381800200E6519D8B4E8D7090E6519D8B4E4D7CD
:10382800000E616F000E626F000E636F000E646F12
:10383800000E606F2D0E6519D8A416D0602B26C017
:10384800F6FF27C0F7FFF86A070EF76403D00800F1
:10385800F55005D0F6CFE1FFF7CFE2FFE7500001C2
:10386800656F264A272A29D02B0E6519D8B4E7D7C1
:1038780024D061C01AF062C01BF063C01CF064C0A1
:103888001DF00A0E1E6E000E1F6E000E206E000E3A
:10389800216E30EC28F065C02AF0D00E2A262A5076
:1038A8001A240001616F000E1B20626F000E1C209D
:1038B800636F000E1D20646FC2D7655172EC2CF047
:1038C800D8B0D7D700016051D8B41AD061C02AF057
:1038D80062C02BF063C02CF064C02DF02A1E2B1E92
:1038E8002C1E2D1E2A2A000E2B222C222D222AC005
:1038F80026F02BC027F02CC028F02DC029F012008C
:1039080061C026F062C027F063C028F064C029F0C7
:10391800120020EE04F08B51D9268C51DA22DECF2A
:1039280020F0DDCF21F08BC0D9FF8CC0DAFFDECFCD
:1039380022F0DDCF23F070EC29F00001916F915156
:10394800D8A477D020EE02F08B51D9268C51DA22F8
:10395800DFAA6FD020EE16F08B51D9268C51DA22CF
:10396800DECF74F0DECF75F0DECF76F0DECF77F005
:10397800A0EC17F00009D8A402D0080E120020EE1F
:103988001AF08B51D9268C51DA22DECF92F0DDCF96
:1039980093F020EE0BF09251D9269351DA22000EC3
:1039A800DB8A20EE0AF08B51D9268C51DA2210EEF0
:1039B8001CF09251E1269351E222DECFE6FFDECFE2
:1039C800E6FFDECFE6FFDECFE6FF20EE0EF08B51FE
:1039D800D9268C51DA2210EE1AF09251E126935131
:1039E800E222DECFE6FFDDCFE5FF4DEC1BF01EC087
:1039F8008DF01FC08EF020C08FF021C090F020EE17
:103A080016F09251D9269351DA228DC0DEFF8EC06E
:103A1800DEFF8FC0DEFF90C0DEFF20EE02F08B518C
:103A2800D9268C51DA22DF0EDF1686EC28F0000149
:103A3800916F915112000A0EBCEC2AF028C02DF0AB
:103A480029C02EF02AC02FF02BC030F0090ED890D4
:103A58002D362E362F363036E82EF9D72DC061F0A8
:103A68002EC062F02FC063F030C064F02804291023
:103A78002A102B10D8B41CD00A0EBCEC2AF061C056
:103A88001FF062C020F063C021F064C022F0000E75
:103A9800236E520ED7EC27F00AEC2DF004EC2DF033
:103AA8000001676F6751D8A4F9D70AEC2DF01ED032
:103AB8000A0EBCEC2AF028C01FF029C020F02AC04A
:103AC80021F02BC022F0000E236E510ED7EC27F008
:103AD8000AEC2DF004EC2DF00001676F6751D8B4A3
:103AE800E4D7F8D704EC2DF00001676FFE0E000153
:103AF8006719D8A4F7D7000E666F000E656F0CD053
:103B080065512624D96E66512720DA6E04EC2DF013
:103B1800DF6E0001654B662B66BFF2D7020E665D4D
:103B2800D8A0EED70A0EBCEC2AF0000E1F6E000ECD
:103B3800206E000E216E000E226E000E236E4C0EBB
:103B4800D7EC27F00AEC2DF004EC2DF00001676F9C
:103B58006729D8A4F9D7000E12000600E1CF0FF0AC
:103B6800E2CF10F0D9CF11F0DACF12F0F3CF13F083
:103B7800F4CF14F0F6CF15F0F7CF16F0F8CF17F012
:103B8800F5CF18F09DBA9EAA14D09E9AD5EC2CF0C9
:103B98003D6E3D506BEC0EF081B403D00D6A0D2ADA
:103BA80001D00D6A0D460D4681500D18FB0B0D18FE
:103BB800816EF2B4F2A443D0F294010E3C6E000E72
:103BC800196E1950020D110EF324D96E010EF4204E
:103BD800DA6EDE50DE10D8B40BD01950020D110E7B
:103BE800F324D96E010EF420DA6EDE06000EDD5ADB
:103BF800192A020E1964E5D701014C514D11D8B4A8
:103C080003D04C07D8A04D0734503510D8B403D092
:103C18003406D8A035063B04D8A40BD04E07D8A04C
:103C28004F074E514F11D8A404D0000EFA6E000E63
:103C3800F96E000E026E450E016E39EC2DF0F2B2EF
:103C4800F2A801D0F29218C0F5FF17C0F8FF16C00D
:103C5800F7FF15C0F6FF14C0F4FF13C0F3FF12C03E
:103C6800DAFF11C0D9FF10C0E2FF0FC0E1FF469292
:103C7800110028C060F029C061F02AC062F02BC092
:103C880063F0060ED89000016037613762376337FA
:103C9800E82EF8D7605100081A6E6C0E61551B6E3D
:103CA800DC0E62551C6E020E63551D6E28C064F052
:103CB80029C065F02AC066F02BC067F0060ED890C0
:103CC8006437653766376737E82EF9D764C01EF062
:103CD80065C01FF066C020F067C021F0ECEC20F052
:103CE8001AC02CF01BC02DF02D04D8A03BD028C042
:103CF80060F029C061F02AC062F02BC063F0040EA6
:103D0800D8906037613762376337E82EF9D760514A
:103D180000081A6E6C0E61551B6EDC0E62551C6E27
:103D2800020E63551D6E28C064F029C065F02AC0D4
:103D380066F02BC067F0040ED89064376537663795
:103D48006737E82EF9D764C01EF065C01FF066C05B
:103D580020F067C021F0ECEC20F01AC02CF01BC05A
:103D68002DF0AC842D04D8B012002CC0AFFFAC9855
:103D7800AB8E948E949CAB88AC8A12002DC060F0F8
:103D88000001616B626B2C34603701E36181605123
:103D9800636F6351D8A407D0000E2B6E000E2C6EF3
:103DA800000E2D6E120030C060F0616B626B2F3414
:103DB800603701E361816051686F6851D8A407D00A
:103DC800000E2B6E000E2C6E000E2D6E1200685128
:103DD8007B0F63272DC068F03050681B800E681772
:103DE8002C8E2F8EFF0E2E16FF0E2F16000E30165D
:103DF800000E646F000E656F000E666F070E676F2A
:103E08002BA006D02E5064272F50652330506623F0
:103E1800D8902D322C322B32D8902E362F36303681
:103E2800672FEED7090E676F2BA006D02E50642798
:103E38002F50652330506623D8902D322C322B32E8
:103E4800D890663365336433672FEED764C01AF0B1
:103E580065C01BF066C01CF063C01DF068C01EF092
:103E6800ABEC21F01AC02BF01BC02CF01CC02DF0BD
:103E7800120028C060F029C061F02AC062F02BC08F
:103E880063F060C01AF061C01BF062C01CF063C030
:103E98001DF02CC01EF02DC01FF0000E1FBEFF0E1F
:103EA800206E216EE2EC24F01AC060F01BC061F0B5
:103EB8001CC062F01DC063F0272A00016051611127
:103EC80062116311D8A4DDD72750D96EDA6A000EC3
:103ED800DF6E270628C01AF029C01BF02AC01CF084
:103EE8002BC01DF02CC01EF02DC01FF0000E1FBEF1
:103EF800FF0E206E216EBCEC26F01A500001646F94
:103F080028C01AF029C01BF02AC01CF02BC01DF0D5
:103F18002CC01EF02DC01FF0000E1FBEFF0E206E1D
:103F2800216EE2EC24F01AC028F01BC029F01CC056
:103F38002AF01DC02BF0090E0001646502D0070E9F
:103F48006427300E64272750D96EDA6A64C0DFFF11
:103F58002706285029102A102B10D8B41200BAD7D7
:103F68006BC06DF000016E6B6F6B6A356D3701E3E6
:103F78006E816D51776F7751D8A409D0000E696FA3
:103F8800000E6A6F000E6B6F000E6C6F1200170E3A
:103F98006D6F69C06EF06AC06FF06BC070F06D290C
:103FA800716F04D0D89070336F336E33712FFAD796
:103FB80000016E51726F6A8FFF0E6917FF0E6A1744
:103FC800000E6B176951736F6A51746F6B51756F7F
:103FD800766B8E0E775F77AF0DD07751800A8F0F93
:103FE800D8A0CCD7D8907633753374337333773FF2
:103FF800F9D70DD0170E776507D0C0D7D89073378B
:1040080074377537763777077751D8A4F7D7725151
:10401800D8B408D0761F751F741F736D000E7423F3
:104028007523762373C069F074C06AF075C06BF0AD
:1040380076C06CF0120002D0204A212A20C0D9FF95
:1040480021C0DAFF200EDE18D8B4F6D720C0D9FF79
:1040580021C0DAFF090EDE18D8B4EED7000E266E9E
:10406800000E256E000E246E20C0D9FF21C0DAFF95
:104078002D0EDE18D8A402D0242A08D020C0D9FFDB
:1040880021C0DAFF2B0EDE18D8A41ED0204A212A20
:104098001BD025C01AF026C01BF0000E1D6E0A0E9C
:1040A8001C6EA6EC2BF020C0D9FF21C0DAFFDF5030
:1040B800226E22501A26000E1B22D00E1A24256EBC
:1040C800FF0E1B20266EE2D720C0D9FF21C0DAFFE1
:1040D800DF5072EC2CF0D8B0DCD72450D8B40DD017
:1040E80025C022F026C023F0221E231E224A232A9E
:1040F80022C020F023C021F0120025C020F026C0E5
:1041080021F01200776F5ED07DEC27F066C078F062
:1041180067C079F068C07AF069C07BF04F0E666FAF
:10412800610E676FCBEC2BF07851665DED6F7951BE
:104138006759EE6F7A516859EF6F7B516959F06F83
:10414800630E666F610E676FCBEC2BF07851665D7E
:10415800F56F79516759F66F7A516859F76F7B5146
:104168006959F86F120050EC27F066C07CF067C000
:104178007DF068C07EF069C07FF0230E666F610E27
:10418800676FCBEC2BF07C51665DF16F7D51675901
:10419800F26F7E516859F36F7F516959F46F390E88
:1041A800666F610E676FCBEC2BF07C51665DF96F23
:1041B8007D516759FA6F7E516859FB6F7F51695974
:1041C800FC6F120000017751010AD8B49DD7CBD7F4
:1041D800000E236E21AE0AD0211E201E1F1E1E6C4B
:1041E800000E1F2220222122010E236E1DAE0AD0AE
:1041F8001D1E1C1E1B1E1A6C000E1B221C221D22BB
:10420800010E231A000E246E000E256E000E266E77
:10421800000E276E1E501F1020102110D8B42AD06F
:10422800010E226E06D0D8901E361F362036213653
:10423800222A21AEF8D7D8902436253626362736B6
:104248001E501A5C1F501B5820501C5821501D58D6
:10425800D8A009D01E501A5E1F501B5A20501C5A55
:1042680021501D5A2480D890213220321F321E320C
:10427800222EE1D72350D8B408D0271E261E251E8B
:10428800246C000E25222622272224C01AF025C0DD
:104298001BF026C01CF027C01DF0120036C02FF0FE
:1042A80037C030F0020E265E000E275AFE0E2A6E28
:1042B800FF0E2B6E20EE16F02F50D9263050DA2242
:1042C800DECF2CF0DDCF2DF02A502C262B502D22BE
:1042D8002C50265C2D502758D8A009D0000E266EE9
:1042E800000E276E000E286E000E296E120020EEBA
:1042F80010F02F50D9263050DA22DECF2AF0DECF48
:104308002BF0DECF2CF0DECF2DF026C01AF027C020
:104318001BF01C6A1D6A20EE1DF02F50D926305064
:10432800DA22DF502E6E2E501E6E1F6A206A216A16
:1043380030EC28F02A501A24266E2B501B20276EAA
:104348002C501C20286E2D501D20296E12001D5047
:10435800D8B405D01A501B101C10D8A40CD0000ECD
:104368001A6E000E1B6E000E1C6E12001D2AD890CD
:104378001C321B321A32000E1A141F6E000E1B1448
:10438800206EFE0E1C14216E1F5020102110D8B470
:104398000CD0ECD71D2A010E1A26000E1B22000E87
:1043A8001C22D8901C321B321A32000E1A141F6EAF
:1043B800000E1B14206EFF0E1C14216E1F502010BF
:1043C8002110D8B406D0E6D71D06D8901A361B3669
:1043D8001C361BBE03D0020E1D60F6D71DA01B9E07
:1043E800D8901D321D501C121E50D8A41C8E1AC005
:1043F8001AF01BC01BF01CC01CF01200460EF66E13
:104408004A0EF76E000EF86E02EE00F010EE7BF02A
:104418000900F5CFEEFFE550E150FAE1EC0EF66E3B
:10442800590EF76E000EF86E01EEE5F010EE0EF084
:104438000900F5CFEEFFE550E150FAE1900EF66E77
:104448005A0EF76E000EF86E0900F5CF45F002EE31
:10445800DBF012EE20F0EE6AE550E150FCE1E250AC
:10446800FAE102EE7BF03E0EEE6AE806FDE101EEAF
:1044780000F0E50EEE6AE806FDE100EEEDF0130E41
:10448800EE6AE806FDE100EE31F0140EEE6AE80689
:10449800FDE146904692000EF86E00016BEF2BF09E
:1044A800000E0101F86FF851020D1D0EF324D96EAC
:1044B800010EF420DA6EDE50DE10D8B43DD0F8518B
:1044C800020D110EF324D96E010EF420DA6EDE50BF
:1044D800DE10D8A431D0010E3B6EFD0E4F6FE80EF2
:1044E8004E6FF851020D1D0EF324D96E010EF42003
:1044F800DA6E01D80AD00500FA6EDE50FD6EDE5085
:10450800FE6EF850FF6EFA501200000E3B6E01016D
:10451800F851020D170EF324D96E010EF420DA6E4D
:10452800F851020D110EF324E16E010EF420E26E33
:10453800DECFE6FFDDCFE5FFF82B020EF865B3D737
:1045480012009594959295909598959A959C959E1C
:10455800839483928390839E839C838A8388EA0EC4
:104568001D6EC30EE82EFED71D2EFCD700F08380EB
:1045780081EC2CF0839081EC2CF04E0E1D6EEB0E2E
:10458800E82EFED71D2EFCD700F0838081EC2CF09E
:10459800839081EC2CF04E0E1D6EEB0EE82EFED7AC
:1045A8001D2EFCD700F0838081EC2CF0839081ECE9
:1045B8002CF0839E839C838A8398838081EC2CF0E3
:1045C800839081EC2CF0280E19EC24F0060E19ECDF
:1045D80024F00E0E19EC24F0010E19EC24F0120050
:1045E80036C0A7F037C0A8F035D0A1C089F0A2C066
:1045F8008AF0B4EC15F089C0A5F08AC0A6F0A5052C
:10460800A611D8A402D0000E1200A1C089F0A2C041
:104618008AF0000E8C6F000E8B6F58EC13F00009B7
:10462800D8B4F1D720EE1AF0A751D926A851DA222A
:10463800DE2803E1DE28D8B409D020EE1AF0A7510D
:10464800D926A851DA22DE2A000EDD22A5C0A1F063
:10465800A6C0A2F0A25104E1020EA15DD8A00CD020
:1046680020EE16F0A751D926A851DA22DE50A15D16
:10467800DE50A259D8A0B9D7010E12003BD01AC0FB
:10468800D9FF1BC0DAFFDF50206E1CC0F6FF1DC02B
:10469800F7FFF86A070EF76403D00800F55005D055
:1046A800F6CFE1FFF7CFE2FFE7502018D8B41ED0CD
:1046B8001AC0D9FF1BC0DAFFDF50206E1CC0F6FFFE
:1046C8001DC0F7FFF86A070EF76403D00800F5501D
:1046D80005D0F6CFE1FFF7CFE2FFE750216E21507A
:1046E800205C1A6E1B6AD8A01B0612001A4A1B2AE5
:1046F8001C4A1D2A1E06D8A01F061E28C0E11F2816
:10470800D8A4BDD7000E1B6E000E1A6E1200000E44
:104718002B6E000E2A6E000E296E000E286E000EFB
:104728001F6E000E206E000E216E000E226E950E7A
:10473800236E400ED7EC27F00AEC2DF004EC2DF098
:104748002C6E2A4A2B2A2C04D8B408D02BBEF6D7B4
:104758002B5004E10A0E2A5CD8A0F0D7000E2B6E6D
:10476800000E2A6E2C04D8B416D0000E1D6E010E51
:1047780021EC27F0EB0E1D6E610E1E6EAFEC28F0DB
:10478800000E1D6E020E21EC27F08C0E1D6E610EC0
:104798001E6EAFEC28F02C04D8B41200C0D7120E4D
:1047A800F66E610EF76E20EE60F0100E0900F5CF80
:1047B800DEFFE806FBE2010EF66E610EF76E20EEF4
:1047C80071F0100E0900F5CFDEFFE806FBE2000EDF
:1047D8001D6E010E21EC27F0600E1D6E1E6AAFECF7
:1047E80028F0000E1D6E020E21EC27F0710E1D6ED2
:1047F8001E6AAFEC28F03D0E216EE10E206E400ED1
:10480800E82EFED7202EFCD7212EFAD7010E19EC60
:1048180024F0000E1D6E010E21EC27F0D50E1D6E42
:10482800610E1E6EAFEC28F012001C6E839483920A
:1048380083901CA802D0838801D083981CAA02D038
:10484800838A01D0839A1CAC02D0838C01D0839CCC
:104858001CAE02D0838E01D0839E838081EC2CF025
:10486800839081EC2CF01CA002D0838801D083981F
:104878001CA202D0838A01D0839A1CA402D0838C04
:1048880001D0839C1CA602D0838E01D0839E838096
:1048980081EC2CF0839081EC2CF01C04D8B408D067
:1048A800020E1C18D8B404D0030E1C18D8A4120089
:1048B80081EC2CF0120038D0000E806F000E816F52
:1048C8002E50D96EDA6ADF50D8B40CD02E50D96E7B
:1048D800DA6A000E8025E16EE26A010EE222DFCF7D
:1048E800E7FF802B2E2A812B090E8165E9D721D07D
:1048F800000E806F000E816F2E50D96EDA6ADF507D
:10490800D8B40CD02E50D96EDA6A000E8025E16E2C
:10491800E26A010EE222DFCFE7FF802B2E2A812BED
:104928000A0E8165E9D705D02F50010AD8B4C4D73B
:10493800DFD72F5086EC20F0120036C07AF037C04F
:104948007BF0200E7A25686F000E7B21696F74C09A
:104958006AF075C06BF076C06CF077C06DF0010E30
:104968006E6F000E4FEC26F00009D8B402D0020E8C
:10497800120022EE1EF07A51D9267B51DA22550E0A
:10498800DE18F5E1AA0EDE18D8A4F1D7560E7A255E
:104998001A6E000E7B211B6E760E1C6E620E1D6E4B
:1049A800000E1F6E030E1E6E42EC23F01A501B10F1
:1049B800D8A402D0000E1200010E1200000E226EC2
:1049C800000E236E000E246E000E256E1E501F1062
:1049D80020102110D8B42AD0010E266E06D0D89007
:1049E8001E361F3620362136262A21AEF8D7D89013
:1049F80022362336243625361E501A5C1F501B5883
:104A080020501C5821501D58D8A009D01E501A5E9D
:104A18001F501B5A20501C5A21501D5A2280D890D2
:104A2800213220321F321E32262EE1D722C01AF040
:104A380023C01BF024C01CF025C01DF0120030302C
:104A4800303030303030303030303030303030305E
:104A5800303030303030303030303030303030304E
:104A6800303030303030303030303030003030306E
:104A7800303030303030300030303030303030305E
:104A8800303000303030303030303030303030304E
:104A9800303030303030303030303030303030300E
:104AA80030303030303030303030303030303030FE
:094AB80030303030303030303045
:104AC200000E00018D6F000E8E6F810E8E25D96E45
:104AD200DA6A010EDA22DF50D8B424D0810E8E2594
:104AE200D96EDA6A010EDA222D0EDE18D8B41AD087
:104AF200810E8E25D96EDA6A010EDA222E0EDE18AA
:104B0200D8B410D00A0E8D610DD0810E8E25D96ECB
:104B1200DA6A010EDA228D51820FE16EE26ADFCF8C
:104B2200E7FF8D2B8E2B0B0E8E65CFD7820E2E6E4E
:104B3200000E2F6E5FEC24F0120045EC2DF01A6E81
:104B420033D00001F0BF07D0F051EF11EE1107E1B1
:104B5200ED05D8B004D0F8BF02D0000E1200ED511E
:104B6200EE11EF11F011D8B4F8D7F551F611F71193
:104B7200F811D8B4F2D7010E12000001F0BF09D02B
:104B8200F8BFEBD7F851F711F61103E1F505D8A0FC
:104B9200E4D7F0BFF8BFE1D7F851F711F611DFE122
:104BA200F505D8A0DAD7DBD71A502D0AD8B4C9D761
:104BB200E4D7000E8B6F000E8C6F9A0E8C25D96E87
:104BC200DA6A010EDA22DF50D8B424D09A0E8C258C
:104BD200D96EDA6A010EDA222D0EDE18D8B41AD096
:104BE2009A0E8C25D96EDA6A010EDA222E0EDE18A2
:104BF200D8B410D0090E8B610DD09A0E8C25D96EC7
:104C0200DA6A010EDA228B51820FE16EE26ADFCF9D
:104C1200E7FF8B2B8C2B0B0E8C65CFD7820E2E6E63
:104C2200010E2F6E5FEC24F012001C6E83948382BF
:104C320083901CA802D0838801D083981CAA02D03A
:104C4200838A01D0839A1CAC02D0838C01D0839CCE
:104C52001CAE02D0838E01D0839E838081EC2CF027
:104C6200839081EC2CF01CA002D0838801D0839821
:104C72001CA202D0838A01D0839A1CA402D0838C06
:104C820001D0839C1CA602D0838E01D0839E838098
:104C920081EC2CF0839081EC2CF01200706F29D003
:104CA20068C026F069C027F06AC028F06BC029F0FE
:104CB2006CC02AF06DC02BF06EC02CF01FEC1DF002
:104CC2006F6F6F51716F726B71C073F0735112001D
:104CD20068C026F069C027F06AC028F06BC029F0CE
:104CE2006CC02AF06DC02BF06EC02CF01FEC1DF0D2
:104CF200E7D700017051000AD8B4D2D7010AD8B45C
:104D0200E7D7030AD8B4E2D7040E12001C6E8394CC
:104D120083928390838E1CA802D0838801D08398CB
:104D22001CAA02D0838A01D0839A1CAC02D0838C45
:104D320001D0839C838081EC2CF0839081EC2CF059
:104D42001CA002D0838801D083981CA202D0838A3F
:104D520001D0839A1CA402D0838C01D0839C1CA610
:104D620002D0838E01D0839E838081EC2CF08390CD
:104D720081EC2CF012001E501F1020102110D8B40C
:104D820024D0010E226E06D0D8901E361F36203651
:104D92002136222A21AEF8D71E501A5C1F501B580A
:104DA20020501C5821501D58D8A008D01E501A5E01
:104DB2001F501B5A20501C5A21501D5AD890213284
:104DC20020321F321E32222EE7D71AC01AF01BC021
:104DD2001BF01CC01CF01DC01DF0120042EC2DF097
:104DE2001A6E29D00001F4BF0BD0FCBF07D0FC51D2
:104DF200FB11FA1105E1F905D8B002D0000E12003C
:104E0200F151F211F311F411D8B4F8D7F951FA11A2
:104E1200FB11FC11D8B4F2D7010E12000001F4BF4D
:104E220007D0F451F311F211EBE1F105D8B0E8D754
:104E3200FCAFE4D7E5D71A502D0AD8B4D3D7EED7B2
:104E42001E6E110E1D6012001BD01DC01FF01F50E0
:104E520087EC26F022D01D50400F1F6E1F5087ECAA
:104E620026F01BD01D50140F1F6E1F5087EC26F02A
:104E720014D01D50540F1F6E1F5087EC26F00DD01A
:104E82001E50010AD8B4E1D7030AD8B4E4D7010A04
:104E9200D8B4E8D7070AD8B4ECD71D2A1200000EFE
:104EA2000001746F000E756F000E7525D96EDA6AF7
:104EB200010EDA22DF50D8B40DD0000E7525D96E5E
:104EC200DA6A010EDA2274516A0FE16EE26ADFCF0A
:104ED200E7FF742B752B090E7565E6D76A0E266EF1
:104EE200276AF8EC1BF026C066F027C067F028C0DE
:104EF20068F029C069F01200000E0001756F000E03
:104F0200766F000E7625D96EDA6A010EDA22DF504C
:104F1200D8B40DD0000E7625D96EDA6A010EDA22E7
:104F220075516A0FE16EE26ADFCFE7FF752B762BD0
:104F3200090E7665E6D76A0E266E276AF8EC1BF034
:104F420026C066F027C067F028C068F029C069F063
:104F52001200000E0001DA6F000ED96F1BD0D4C010
:104F6200D9FFD5C0DAFFDF50D86FD851CD6FCE6BE5
:104F7200D6C0CFF0D7C0D0F05FEC2AF0CD2906E141
:104F8200CE29D8A403D0D469D5691200D44BD52B2D
:104F9200D94BDA2BD4C0D9FFD5C0DAFFDF50D8A461
:104FA200DED7D9C0D4F0DAC0D5F01200246EF6EC08
:104FB2002AF0FF0AD8A404D008D00A0EBCEC2AF0CA
:104FC200F6EC2AF0FF0AD8A4F8D7FF0EE6EC2CF094
:104FD2002450E6EC2CF022C025F02550E6EC2CF013
:104FE20021C025F02550E6EC2CF020C025F02550FC
:104FF200E6EC2CF01FC025F02550E6EC2CF02350F7
:10500200E6EC2CF0120042EC2CF061EC25F0DAEC2C
:1050120025F0EFEC26F08F6F31508F19FE0B8F19B0
:10502200316E9EEC25F08F6F32508F19FE0B8F1967
:10503200326E31B002D032A009D03380640E206EBD
:10504200620E216E040EBAEC07F0120033903F0E8E
:10505200206E620E216E040EBAEC07F01200000EF2
:10506200226E000E236E000E246E000E256E1AA014
:1050720008D01E5022261F502322205024222150C5
:105082002522D8901E361F3620362136D8901D3262
:105092001C321B321A321A501B101C101D10D8A4BD
:1050A200E6D722C01AF023C01BF024C01CF025C092
:1050B2001DF01200B20E206E010E216E000EBAEC2F
:1050C20007F0C40E206E010E216E010EBAEC07F03D
:1050D2009A0E206E010E216E020EBAEC07F0810EBE
:1050E200206E010E216E030EBAEC07F0B20E206E96
:1050F200010E216E050EBAEC07F0C40E206E010EF1
:10510200216E060EBAEC07F0120036C089F037C0E5
:105112008AF020EE1FF08951D9268A51DA22010E37
:10512200DF6E000E746F000E756F000E766F000E4C
:10513200776FA0EC17F00009D8A402D0080E120075
:10514200000E1A6E000E1B6E000E1C6E000E62EC3C
:105152002CF00009D8A4F2D7000E120014D01DC002
:10516200F6FF1EC0F7FFF86A070EF76403D00800C7
:10517200F55005D0F6CFE1FFF7CFE2FFE75016EC8E
:1051820026F01D4A1E2A1DC0F6FF1EC0F7FFF86A50
:10519200070EF76403D00800F55005D0F6CFE1FF03
:1051A200F7CFE2FFE7500009D8B41200D8D7160EA5
:1051B20001011D6F290E1E6F3C0E1F6F550E206FD1
:1051C200460E216F240E226F010E186FF40E176F18
:1051D200030E1A6FE80E196F130E1C6F880E1B6FE9
:1051E200010E126FF40E116F030E146FE80E136F9F
:1051F200130E166F880E156F000E3B6E1200706F45
:1052020018D068C026F069C027F06AC028F06BC0C9
:1052120029F06CC02AF06DC02BF06EC02CF0C5ECEA
:1052220016F06F6F6F51716F726B71C073F07351C3
:10523200120000017051000AD8B4E3D7010AD8B4B1
:10524200E0D7030AD8B4F3D7040E120004D0014AFF
:10525200022A034A042A03C0F6FF04C0F7FF08002B
:10526200F5CF05F001C0D9FF02C0DAFFDF50066EAC
:105272000550065C076E0750D8A407D001C0D9FFBD
:1052820002C0DAFFDF50D8A4E2D70750016E026AEB
:1052920001BE020612001C6E1C50D8B402D0050ECC
:1052A200120036503710D8B408D020EE1CF0365019
:1052B200D9263750DA22000EDF6E1AC036F01BC034
:1052C20037F01A501B10D8B408D020EE1CF01A5038
:1052D200D9261B50DA22000EDF6E000E120020507B
:1052E2002110D8B414D020EE1CF02050D926215021
:1052F200DA22DF50D8B40BD020C0D9FF21C0DAFFA8
:105302002250DE1804E12350DE18D8B402D00C0E6D
:105312001200000E11EC2BF0246E24A002D0010E1C
:105322001200000E1200000E0A6E0A500124D96EFD
:10533200000E0220DA6E0A500324086E000E0420CA
:10534200096E05500824E16E06500920E26EDFCF97
:10535200E7FF0A2A0A04086E08500124D96E000EDB
:105362000220DA6EDF50D8B41200DFD71CC020F062
:105372001DC021F004D0204A212A1E4A1F2A1EC025
:10538200F6FF1FC0F7FFF86A20C0D9FF21C0DAFF7D
:10539200070EF76403D00800F55005D0F6CFE1FF01
:1053A200F7CFE2FFE750DF6EDF50D8B41200E3D749
:1053B2001AC01EF01BC01FF002D01E4A1F2A1EC0B8
:1053C200D9FF1FC0DAFFDF50D8B405D0F6D71E4A86
:1053D2001F2A1C4A1D2A1CC0F6FF1DC0F7FF1EC053
:1053E200D9FF1FC0DAFF0800F5CFDFFFDF50D8B4C6
:1053F2001200EDD71CC023F01DC024F01AC021F00A
:105402001BC022F010D023C0D9FF24C0DAFFDF5026
:10541200206E234A242A21C0D9FF22C0DAFF20C0ED
:10542200DFFF214A222A1E06D8A01F061E28EBE112
:105432001F28D8B41200E7D769AF0ED06551D96ED4
:10544200DA6A2D0EDF6E652B691F681F671F666D96
:10545200000E67236823692365C027F066C028F021
:1054620067C029F068C02AF069C02BF06AC02CF02E
:105472006BC02DF03DEC1FF012001AC01CF01BC0D7
:105482001DF002D01C4A1D2A1CC0F6FF1DC0F7FFEA
:10549200F86A070EF76403D00800F55005D0F6CF7E
:1054A200E1FFF7CFE2FFE7500009D8A4EBD71A508B
:1054B2001C5C1A6E1B501D581B6E1200CF51D0116E
:1054C200D8A405D0CDC0CDF0CEC0CEF01200CDC054
:1054D200D1F0CFC0AFF0D0C0B0F0D10EB16F000E9E
:1054E200B36F010EB26FD20EB46F09EC00F0D2515D
:1054F200D311D8A4E7D7CD69CE69120021EEECF022
:1055020010EE70F0060EDBCFE3FFE806FCE2700E51
:10551200656F6CC066F06DC067F06EC068F06FC0FA
:1055220069F0000E6B6F0A0E6A6F1DEC2AF0700EA6
:105532001D6E1E6AAFEC28F012004C514D11D8A41A
:10554200120034EC2DF01AC0F4F11BC0F5F1F4C1D5
:10555200D9FFF5C1DAFF300EDE18D8A406D042EC2E
:105562002CF05BEC28F0ABEC2CF0030E01014D6F3C
:10557200E80E4C6F12001C6E100E1A6E940EE82E7E
:10558200FED71A2EFCD700D0000E1E6E000E1D6E26
:1055920006D08A8A10EC2DF08A9A1D4A1E2A1C50C7
:1055A2001A6E1B6A1A501D5C1B501E58D8B012008E
:1055B200F0D7000E2A6E28AE06D0276C281ED8B06F
:1055C200282A010E2A6E27C01AF028C01BF01C6A76
:1055D2008E0E1D6E2AC01EF0ABEC21F01AC027F011
:1055E2001BC028F01CC029F01200FF0E1A6E7F0E9D
:1055F2001B6E000E1C6E000E1D6E10EC2DF01E6E4A
:105602001E28D8B40BD01A06000E1B5A1C5A1D5A5B
:105612001A501B101C101D10D8A4EFD71E501200D8
:105622001E6E0AD01E50DEEC2CF01F6E1F501200B0
:105632001E50DEEC2CF0FAD71E50000AD8B4F2D776
:10564200010AD8B4F5D7030AD8B4F0D7010E120074
:10565200040E1D6E010E21EC27F09A0E1D6E010E36
:105662001E6EAFEC28F0040E1D6E020E21EC27F028
:10567200810E1D6E010E1E6EAFEC28F012001AC0D4
:1056820020F01BC021F008D020C0D9FF21C0DAFFD2
:105692001CC0DFFF204A212A1E06D8A01F061E2892
:1056A200F3E11F28D8B41200EFD794C08BF095C055
:1056B2008CF08DEC1CF0966F9651D8A4120020EE5F
:1056C20004F09451D9269551DA22000EDE6E000EB6
:1056D200DD6E1200B8EC2CF0D59EA5EC22F0D3ECD6
:1056E20023F0D8EC28F0DCEC2BF0D58E3C04D8A4C7
:1056F200FDD7000E3C6E54EC22F0F8D701012FB119
:1057020030A10ED031B132A10BD033B134A108D0C7
:105712002F9130913191329133913491010E1200D7
:10572200000E12002E6E05D0EBEC0CF02F6E2F50F7
:1057320012002E50000AD8B4F7D7010AD8B4F4D711
:10574200030AD8B4F4D7010E12001A501C02F3CF88
:105752001EF0F4CF1FF01A501D02F3501F261B50EB
:105762001C02F3501F261EC01AF01FC01BF01200AD
:105772000101B2510A0DF3CF1CF0F4CF1DF0B35169
:105782001C26000E1D22F00E1C241A6EFD0E1D207A
:105792001B6E1200664B672B66C026F067C027F0AF
:1057A200F8EC1BF026C066F027C067F028C068F04E
:1057B20029C069F01200949C949E800E286E250EDA
:1057C200296E000E2A6E000E2B6E3DEC1EF0200E8E
:1057D200AC6E900EAB6E1200B6510A0DF3CF1CF0F8
:1057E200F4CF1DF0B7511C26000E1D22F00E1C2412
:1057F2001A6EFD0E1D201B6E1200B4510A0DF3CF5E
:105802001CF0F4CF1DF0B5511C26000E1D22F00E27
:105812001C241A6EFD0E1D201B6E1200C6510A0DAD
:10582200F3CF1CF0F4CF1DF0C7511C26000E1D2231
:10583200F00E1C241A6EFD0E1D201B6E1200C451A8
:105842000A0DF3CF1CF0F4CF1DF0C5511C26000E3B
:105852001D22F00E1C241A6EFD0E1D201B6E12005E
:10586200C8510A0DF3CF1CF0F4CF1DF0C9511C260C
:10587200000E1D22F00E1C241A6EFD0E1D201B6E42
:105882001200000E1A6E0A0E1B6E04D07FEC2BF073
:105892001A6E1B061A50D8A412001B50D8B412005C
:1058A200F5D79392939A9380949E8A8A3F0EC71655
:1058B200000EC66EC79EC78CC698030EC66EC68AF9
:1058C20012001D6E02D01E5012001D50000AD8B4E4
:1058D200FAD7010AD8B4F7D7030AD8B4F4D7040E1A
:1058E20012001C6E000E1B6E3A0E1C6005D02F0EAD
:1058F2001C6402D0010E1B6E1BC01AF01A3012007B
:10590200000E1A6E00F0000E1B6E00F01B2A310E04
:105912001B64FBD71A2A630E1A64F4D712000F0E07
:10592200C16E010E936E8A68000E956E070E926E1E
:10593200110E946E070E966E1200C50ED56E000EF5
:10594200656E000E636E000E1B6E450E1A6E16EC2F
:105952002DF012008196CCEC2CF052EC2CF0EEECF7
:1059620019F0EEEC2CF0DCEC2BF0818612003EEC10
:105972002DF090EC2CF09EEC2CF0FDEC2CF0C3EC16
:105982002CF01200B00EF26E000EF16E000EF06EF0
:10599200280E9D6E1200948C948E000EAC6E000E3A
:1059A200AB6E000EAE6E12009EAAFED7ABA203D063
:1059B200AB9800F0AB88AE5012001B6E1B50D8B4EF
:1059C20002D0010E1200000E12001B6EC9509E96EC
:1059D2001BC0C9FF9EB61200FDD7000EC76E000E97
:1059E200C66EC69A000EC96E1200303030303030AA
:1059F2000030303030303000040ECA6E000ECC6EF3
:105A0200010ECB6E12008A9A10EC2DF01A6E1A500B
:105A120012008A9AFF0EE6EC2CF08A8A1200C968FC
:105A2200C790C7A0FED7C95012001AC0D6FF1BC02C
:105A3200D7FF1200B20E1A6E010E1B6E1200C40EB8
:105A42001A6E010E1B6E1200810E1A6E010E1B6E73
:105A520012009A0E1A6E010E1B6E1200D70E1A6EEB
:105A6200010E1B6E1200E30E1A6E010E1B6E120067
:105A720001C0D6FF02C0D7FF1200D388D38AD38CCD
:0F5A8200120001018151120001019A51120058C6
:10610000005443432D2D54454C454D5452494100B4
:106110000000464154454320535420414E445245CB
:106120000000002D303436333339343035302D30E3
:106130003436323934313437342D30343632393420
:10614000313437342D303436333339343035302D23
