:0400000007EF00F016
:100008004782F6ED1DF007EF21F022EE30F010EEFA
:1000180090F02B0EDBCFE3FFE806FCE222EE00F0C7
:1000280010EE60F02F0EDBCFE3FFE806FCE222EED5
:1000380068F010EEC8F00A0EDBCFE3FFE806FCE23A
:1000480022EE5CF010EEBCF00B0EDBCFE3FFE8060F
:10005800FCE2000EDE6F000EDF6F000EDB6F000E9D
:10006800DC6F0FEC2AF00AEC2AF03DD1010EE06FAC
:10007800DF51D8B404D0020EDF19D8A447D0020E3D
:10008800DF19D8A403D0DC51D8B4DC2B000EDD6F07
:10009800050EE06501D03AD0E051BC0FD96EDA6A9E
:1000A800DC513E0D200E266E010E276E100E262600
:1000B800000E2722F3502626F4502722DD5126244D
:1000C800E16E000E2720E26EDFCFE7FFDF510C0D57
:1000D800F350600FE025D96EDA6ADC513E0D200E30
:1000E800266E010E276E050E2626000E2722F350D7
:1000F8002626F4502722DD512624E16E000E272003
:10010800E26EDFCFE7FFE02BDD2BC2D7E02B050E39
:10011800E065AED7010EE06FDF51D8B404D0020E0F
:10012800DF19D8A443D0020EDF19D8A403D0DB51BD
:10013800D8B4DB2B000EDD6F040EE06501D036D09D
:10014800E051C80FD96EDA6ADB513E0D200E266EDB
:10015800010E276E0B0E2626000E2722F3502626A8
:10016800F4502722DD512624E16E000E2720E26E8E
:10017800DFCFE7FFDF510B0DF350900FE025D96E6D
:10018800DA6ADB513E0D200E266E010E276EF35003
:100198002626F4502722DD512624E16E000E272062
:1001A800E26EDFCFE7FFE02BDD2BC6D7E02B040E96
:1001B800E065B2D7DF51D8B404D0020EDF19D8A455
:1001C80091D0DE513E0D2B0EF3241F6E010EF4204C
:1001D800206E8EEC1FF01FC0D7F020C0D8F00001B1
:1001E800000ED8BFFF0ED96FDA6FDE513E0D200E1C
:1001F800F3241F6E010EF420206E8EEC1FF01FC03A
:1002080026F020C027F0000E27BEFF0E286E296EAC
:100218000001DE513E0D360EF324D96E010EF42096
:10022800DA6E26C0DEFF27C0DEFF28C0DEFF29C049
:10023800DEFFDE513E0D360EF324D96E010EF4209A
:10024800DA6ED751DE5ED851DE5AD951DE5ADA510C
:10025800DE5ADE513E0D300EF3241F6E010EF420DF
:10026800206E8EEC1FF01FC0D7F020C0D8F0000120
:10027800000ED8BFFF0ED96FDA6FDE513E0D250E86
:10028800F3241F6E010EF420206E8EEC1FF01FC0A9
:1002980026F020C027F0000E27BEFF0E286E296E1C
:1002A8000001DE513E0D3A0EF324D96E010EF42002
:1002B800DA6E26C0DEFF27C0DEFF28C0DEFF29C0B9
:1002C800DEFFDE513E0D3A0EF324D96E010EF42006
:1002D800DA6ED751DE5ED851DE5AD951DE5ADA517C
:1002E800DE5ADE2BDF2B030E0001DF65BFD6000EC2
:1002F800DF6F000EDE6F000EDB6F000EDC6F3DD18E
:10030800060EE06FDF51D8B404D0020EDF19D8A46E
:1003180056D0020EDF19D8A403D0DB51D8B4DB2B9A
:10032800E051C80FD96EDA6ADF510B0DF350900F08
:10033800E025E16EE26ADE50E618D8B442D0000E3D
:10034800DD6F0A0EE06501D03CD0DF510B0DF35094
:10035800900FE025D96EDA6ADB513E0D200E266E2D
:10036800010E276E1E0E2626000E2722F350262683
:10037800F4502722DD512624E16E000E2720E26E7C
:10038800DFCFE7FFE051C80FD96EDA6ADB513E0DC7
:10039800200E266E010E276E2A0E2626000E272214
:1003A800F3502626F4502722DD512624E16E000E54
:1003B8002720E26EDFCFE7FFE02BDD2BC2D70B0E45
:1003C800E06FE02B0A0EE0659DD7070EE06FDF5166
:1003D800D8B404D0020EDF19D8A456D0020EDF1903
:1003E800D8A403D0DC51D8B4DC2BE051BC0FD96EB3
:1003F800DA6ADF510C0DF350600FE025E16EE26A16
:10040800DE50E618D8B442D0000EDD6F0B0EE06562
:1004180001D03CD0DF510C0DF350600FE025D96EB0
:10042800DA6ADC513E0D200E266E010E276E240E70
:100438002626000E2722F3502626F4502722DD51C7
:100448002624E16E000E2720E26EDFCFE7FFE051A1
:10045800BC0FD96EDA6ADC513E0D200E266E010EF5
:10046800276E300E2626000E2722F3502626F4503B
:100478002722DD512624E16E000E2720E26EDFCF11
:10048800E7FFE02BDD2BC2D70B0EE06FE02B0B0E46
:10049800E0659DD7DF51D8B404D0020EDF19D8A487
:1004A8006BD0DE513E0D3E0EF3241F6E010EF4207C
:1004B800206E8EEC1FF01FC026F020C027F0000130
:1004C800DE513E0D4A0EF3241F6E010EF420206EFD
:1004D8008EEC1FF01F50265C286E20502758296E7E
:1004E8002A6A29BE2A062A502B6E0001DE513E0DCB
:1004F800560EF324D96E010EF420DA6E28C0DEFF02
:1005080029C0DEFF2AC0DEFF2BC0DEFFDE513E0D14
:10051800440EF3241F6E010EF420206E8EEC1FF0A3
:100528001FC026F020C027F00001DE513E0D500EFE
:10053800F3241F6E010EF420206E8EEC1FF01F5066
:10054800265C286E20502758296E2A6A29BE2A065A
:100558002A502B6E0001DE513E0D5A0EF324D96E3F
:10056800010EF420DA6E28C0DEFF29C0DEFF2AC0A3
:10057800DEFF2BC0DEFFDE2BDF2B030EDF65C0D6D0
:10058800000EDF6F53D001015DBF17D09BBF07D0AE
:100598009B519A11991111E19805D8B00ED03DBF21
:1005A8000CD07BBF07D07B517A11791106E1780511
:1005B800D8B003D00001F69191D05A515B115C116B
:1005C8005D11D8B406D0985199119A119B11D8A4ED
:1005D8000CD03A513B113C113D11D8B4EBD77851AE
:1005E80079117A117B11D8B4E5D70001F68176D05C
:1005F80001015DBF07D05D515C115B1110E15A0527
:10060800D8B00DD09BBF0BD039BF07D039513811A6
:10061800371105E13605D8B002D077AFCBD75A519C
:100628005B115C115D11D8A4CED7D3D7BC512D0A6C
:10063800D8B4A9D7DDD7010159BF07D059515811EE
:10064800571113E15605D8B010D097BF0ED039BF57
:1006580007D039513811371108E13605D8B005D01F
:1006680077BF03D00001F7913ED05651571158116A
:100678005911D8B406D09451951196119711D8A450
:100688000CD03651371138113911D8B4EBD7745111
:10069800751176117711D8B4E5D70001F78123D009
:1006A800010159BF14D097BF07D0975196119511E2
:1006B8000EE19405D8B00BD039BF09D077BFD2D797
:1006C80077517611751103E17405D8A0CBD756512F
:1006D800571158115911D8A4CED7D3D7C8512D0ABC
:1006E800D8B4A9D7DDD7F6B102D0F7A102D0F881E6
:1006F8001200F8911200B0C0C1F0B351D96EDA6A95
:10070800000EDE6E000EDD6E20EE04F0AE51D9262E
:10071800AF51DA22DECF1FF0DDCF20F0AEC0D9FF17
:10072800AFC0DAFFDECF21F0DDCF22F0D5EC26F026
:100738000001C06FC051D8A4120020EE02F0AE51E3
:10074800D926AF51DA22DFBE120020EE02F0AE51F8
:10075800D926AF51DA22DFA2120020EE0AF0AE51FC
:10076800D926AF51DA2210EE0AF0AE51E126AF5188
:10077800E222E6CFB8F0E6CFB9F0E6CFBAF0E6CF9E
:10078800BBF0B151B825BC6FB251B921BD6F000E95
:10079800BA21BE6F000EBB21BF6FDE50BC5DDE50BC
:1007A800BD59DE50BE59DE50BF59D8A0120028D21C
:1007B80020EE06F0AE51D926AF51DA22FF0EDE1434
:1007C800B46F010EDE14B56F000EDE14B66F000EA6
:1007D800DE14B76FB451B511B611B711D8A45BD1F7
:1007E80020EE04F0AE51D926AF51DA2210EE1DF0FA
:1007F800DE50E126DD50E22220EE03F0AE51D9268C
:10080800AF51DA22E650DE5CD8A06BD020EE06F0BD
:10081800AE51D926AF51DA22DE50DE10DE10DE10DE
:10082800D8A423D020EE0EF0AE51D926AF51DA224B
:10083800DECFC8F0DDCFC9F0C851C911D8A425D082
:10084800000EA16F000EA06F6CEC19F0A0C0C8F0EC
:10085800A1C0C9F020EE0EF0AE51D926AF51DA2270
:10086800C8C0DEFFC9C0DDFF10D020EE10F0AE51C9
:10087800D926AF51DA22DECFA0F0DDCFA1F06CECA3
:1008880019F0A0C0C8F0A1C0C9F0C851C911D8B4A6
:10089800BBD1C805C911D8B4EAD120EE04F0AE51D5
:1008A800D926AF51DA2210EE16F0DE50E126DD50DF
:1008B800E222E650C85DE650C959D8B0D8D120EE3A
:1008C80010F0AE51D926AF51DA22C8C0DEFFC9C038
:1008D800DDFF20EE03F0AE51D926AF51DA22000E2B
:1008E800DF6E20EE10F0AE51D926AF51DA22DECFFE
:1008F80025F0DDCF26F05BEC20F020EE03F0AE51C2
:10090800D926AF51DA22DF50B46FB4512524C26F13
:10091800000E2620C36F000E2720C46F000E28206B
:10092800C56FB1C0B4F0B2C0B5F0090EB66FD890BB
:10093800B533B433B62FFBD7B4C0C6F0B5C0C7F0D3
:10094800C651C711D8B469D020EE03F0AE51D926EC
:10095800AF51DA22DF50B46FB451C625B56F000E1F
:10096800C721B66F20EE04F0AE51D926AF51DA2276
:1009780010EE1DF0DE50E126DD50E222E750B76FA1
:10098800B86BB551B75DB651B859D8B01CD020EE88
:1009980004F0AE51D926AF51DA2210EE1DF0DE5028
:1009A800E126DD50E222E750B46F20EE03F0AE51AD
:1009B800D926AF51DA22DF50B56FB551B45DC66F95
:1009C800C76BD8A0C707C1C068F0696BC2C06AF01E
:1009D800C3C06BF0C4C06CF0C5C06DF0C6C06EF08B
:1009E800000E65EC26F00009D8A441D120EE03F0F2
:1009F800AE51D926AF51DA22C651DF26C6C0B4F0AF
:100A0800C7C0B5F0090ED890B437B537E82EFBD774
:100A1800B4C0CAF0B5C0CBF0D9D020EE0AF0AE51C0
:100A2800D926AF51DA2210EE06F0AE51E126AF51C9
:100A3800E222DE50E65CDE50E658DE50E658DE5034
:100A4800E658D8A021D0000E736F000E746F000E08
:100A5800756F000E766F97EC18F00009D8B407D1BF
:100A680020EE04F0AE51D926AF51DA2210EE04F090
:100A7800DE50E126DD50E222C2C0E6FFC3C0E6FF39
:100A8800C4C0E6FFC5C0E6FF20EE03F0AE51D9268C
:100A9800AF51DA22DF2A20EE10F0AE51D926AF513D
:100AA800DA22DECF25F0DDCF26F05BEC20F020EE59
:100AB80003F0AE51D926AF51DA22DF50B46FB451EA
:100AC8002524B56F000E2620B66F000E2720B76FBD
:100AD800000E2820B86FFF0EB525C26FFF0EB62195
:100AE800C36FFF0EB721C46FFF0EB821C56FC2C018
:100AF80073F0C3C074F0C4C075F0C5C076F097EC4D
:100B080018F00009D8B4B3D0FF0EB46F010EB56F5A
:100B180020EE06F0AE51D926AF51DA22DECFB6F07C
:100B2800DDCFB7F0B451B617B551B717B6510008B5
:100B3800CA6FB751D8A0E82A0208CB6FCA51B15D75
:100B4800CB51B259D8B004D0B1C0CAF0B2C0CBF0C2
:100B5800FF0EB46F010EB56F20EE06F0AE51D92628
:100B6800AF51DA22DECFB6F0DDCFB7F0B451B61709
:100B7800B551B71720EE04F0AE51D926AF51DA229D
:100B8800DECFB8F0DDCFB9F0B651B827B751B923E9
:100B9800200EB825196E000EB9211A6EC1C01BF0BF
:100BA8001C6ACAC01DF0CBC01EF03EEC27F0000145
:100BB80020EE04F0AE51D926AF51DA2210EE1FF024
:100BC800DE50E126DD50E222010EE76ECA51C12750
:100BD80020EE06F0AE51D926AF51DA22CA51DE26F0
:100BE800CB51DE22000EDE22DE22B351D96EDA6A44
:100BF800CA51DE26CB51DD22CA51B15FCB51B25B5F
:100C0800B151B211D8A4D4D520EE06F0AE51D926F0
:100C1800AF51DA2210EE0AF0AE51E126AF51E222CE
:100C2800DE50E65CDE50E658DE50E658DE50E65808
:100C3800D8B014D020EE06F0AE51D926AF51DA2242
:100C480010EE0AF0AE51E126AF51E222DECFE6FF08
:100C5800DECFE6FFDECFE6FFDECFE6FF20EE02F0D6
:100C6800AE51D926AF51DA22000EDB8A120020EEEF
:100C780002F0AE51D926AF51DA22000EDB8E1200F7
:100C88007951D96EDA6ADECF9DF0DDCF9EF003D0C0
:100C980000019D4B9E2B9DC0F6FF9EC0F7FFF86A92
:100CA800070EF76403D00800F55005D0F6CFE1FF32
:100CB800F7CFE2FFE750200AD8B4EAD79DC0F6FF85
:100CC8009EC0F7FFF86A070EF76403D00800F550D6
:100CD80005D0F6CFE1FFF7CFE2FFE7502F0AD8A4FF
:100CE80003D000019D4B9E2B00017951D96EDA6A21
:100CF8009DC0DEFF9EC0DDFF39C0A5F03AC0A6F05A
:100D0800A551A611D8A402D00A0E120020EE1CF09C
:100D1800A551D926A651DA22DF50D8B40FD0000E3B
:100D28002BEC28F00001A06FA0B108D07A51D8A40C
:100D3800A0A502D0090E1200000E1200A5C019F0DD
:100D4800A6C01AF0000E1C6E000E1B6E020E1E6E60
:100D5800200E1D6E70EC28F0000EB0EC28F000019B
:100D6800A06FA0A102D0010E12007A51D8B402D00F
:100D7800A0B5E0D7000E956F000E966F000E976F26
:100D8800000E986F95C073F096C074F097C075F018
:100D980098C076F05CEC23F000019F6F9F05D8A403
:100DA80023D021EEE2F0A551D926A651DA22DF5050
:100DB800D8B41AD021EEE6F0A551D926A651DA22E8
:100DC800DECF95F0DECF96F0DECF97F0DECF98F04D
:100DD80095C073F096C074F097C075F098C076F01F
:100DE8005CEC23F000019F6F9F51D8A40CD020EE3B
:100DF8002BF0A551D926A651DA22DE5004E1020EC5
:100E0800DE18D8B402D00B0E120020EE36F0A55131
:100E1800D926A651DA22DECF7BF0DDCF7CF07BC06D
:100E2800A1F07CC0A2F0A36BA46BA151A211A311E5
:100E3800A411D8A40ED020EE44F0A551D926A6516D
:100E4800DA22DECFA1F0DECFA2F0DECFA3F0DECF34
:100E5800A4F020EE14F0A551D926A651DA22A1C09B
:100E6800DEFFA2C0DDFF20EE30F0A551D926A65145
:100E7800DA2210EE1EF0A551E126A651E222DFCFBC
:100E8800E7FFA1C019F0A2C01AF0A3C01BF0A4C0CC
:100E98001CF020EE1EF0A551D926A651DA22DF500B
:100EA8007B6F7B511D6E1E6A1F6A206ABFEC25F09E
:100EB80019C0A1F01AC0A2F01BC0A3F01CC0A4F076
:100EC80020EE2EF0A551D926A651DA22DECF7BF0EE
:100ED800DDCF7CF07B5195257D6F7C5196217E6F0F
:100EE800000E97217F6F000E9821806F20EE08F08A
:100EF800A551D926A651DA227DC0DEFF7EC0DEFFCD
:100F08007FC0DEFF80C0DEFF20EE2DF0A551D92680
:100F1800A651DA2210EE1DF0A551E126A651E222D3
:100F2800DFCFE7FF20EE31F0A551D926A651DA220E
:100F380010EE02F0A551E126A651E222DECFE6FF2F
:100F4800DDCFE5FF20EE33F0A551D926A651DA22F0
:100F5800DECF7BF0DDCF7CF07BC099F07CC09AF0CF
:100F68009B6B9C6B99519A119B119C11D8A40ED024
:100F780020EE40F0A551D926A651DA22DECF99F00D
:100F8800DECF9AF0DECF9BF0DECF9CF020EE02F0B1
:100F9800A551D926A651DA22DECF7BF0DDCF7CF031
:100FA800040E7D6FD8907C337B337D2FFBD77B512C
:100FB8007E6F7C517F6F806B816B20EE2EF0A55188
:100FC800D926A651DA22DECF82F0DDCF83F0825116
:100FD800846F8351856F866B876B841F851F861F7F
:100FE800871F842B000E852386238723A151845DC8
:100FF800886FA2518559896FA35186598A6FA45168
:1010080087598B6F7E51885D8C6F7F5189598D6FA1
:1010180080518A598E6F81518B598F6F99518C25C8
:10102800196E9A518D211A6E9B518E211B6E9C51FF
:101038008F211C6E20EE1DF0A551D926A651DA226B
:10104800DF50906F90511D6E1E6A1F6A206A9DECDA
:1010580023F0020E19240001916F000E1A20926FDE
:10106800000E1B20936F000E1C20946F20EE16F0CC
:10107800A551D926A651DA2291C0DEFF92C0DDFF24
:10108800010E9F6F9451931106E1F70E915D0F0EBB
:101098009259D8A002D0020E9F6F9451931107E184
:1010A800F70E915DFF0E9259D8B0ADD601D0ABD6F0
:1010B80020EE08F0A551D926A651DA22DECF7BF022
:1010C800DECF7CF0DECF7DF0DECF7EF0A1517B2538
:1010D8007F6FA2517C21806FA3517D21816FA45124
:1010E8007E21826F20EE0CF0A551D926A651DA2276
:1010F8007FC0DEFF80C0DEFF81C0DEFF82C0DEFF72
:1011080020EE08F0A551D926A651DA22DECF7BF0D1
:10111800DECF7CF0DECF7DF0DECF7EF020EE02F079
:10112800A551D926A651DA22DECF7FF0DDCF80F097
:10113800040E816FD89080337F33812FFBD77F5186
:101148007B25826F80517C21836F000E7D21846F07
:10115800000E7E21856FA1518225866FA2518321C1
:10116800876FA3518421886FA4518521896F20EE50
:1011780010F0A551D926A651DA2286C0DEFF87C015
:10118800DEFF88C0DEFF89C0DEFF20EE1AF0A55121
:10119800D926A651DA22FF0EDE6EFF0EDD6E20EE96
:1011A8001CF0A551D926A651DA229FC0DFFF010104
:1011B8001A4B1B2BA5C0D9FFA6C0DAFF1AC1DEFF48
:1011C8001BC1DDFF000E120020EE04F0AE51D9263F
:1011D800AF51DA22DECF1FF0DDCF20F0AEC0D9FF4D
:1011E800AFC0DAFFDECF21F0DDCF22F0D5EC26F05C
:1011F8000001C46FC451D8A4120020EE02F0AE5111
:10120800D926AF51DA22DFBE120020EE0AF0AE5125
:10121800D926AF51DA22B051DE5CB151DE58B25155
:10122800DE58B351DE58D8B016D020EE02F0AE51D9
:10123800D926AF51DA22DFB20ED020EE0AF0AE5135
:10124800D926AF51DA22DECFB0F0DECFB1F0DECF53
:10125800B2F0DECFB3F020EE06F0AE51D926AF5192
:10126800DA22DECFC5F0DECFC6F0DECFC7F0DECFA4
:10127800C8F020EE06F0AE51D926AF51DA22DE6A68
:10128800DE6ADE6ADD6A20EE03F0AE51D926AF5180
:10129800DA22FF0EDF6EB051B111B211B311D8B41A
:1012A8009CD120EE04F0AE51D926AF51DA2210EECF
:1012B8001DF0DE50E126DD50E222E750B46FB4C0E5
:1012C800B5F0B66BB76BB86B090ED890B537B637B3
:1012D800B737B837E82EF9D7B5C0C9F0B6C0CAF0E5
:1012E800B7C0CBF0B8C0CCF0C551C611C711C811F2
:1012F800D8B493D0FF0EB025196EFF0EB1211A6E27
:10130800FF0EB2211B6EFF0EB3211C6EC9C01DF06B
:10131800CAC01EF0CBC01FF0CCC020F09DEC23F05B
:1013280019C0B4F01AC0B5F01BC0B6F01CC0B7F0B5
:10133800FF0E0001C525196EFF0EC6211A6EFF0E9D
:10134800C7211B6EFF0EC8211C6EC9C01DF0CAC084
:101358001EF0CBC01FF0CCC020F09DEC23F019503C
:101368000001B45D1A50B5591B50B6591C50B759F5
:10137800D8A053D0FF0EC925B46FFF0ECA21B56F90
:10138800FF0ECB21B66FFF0ECC21B76FB41DB86F1F
:10139800B51DB96FB61DBA6FB71DBB6FFF0EC5255A
:1013A800BC6FFF0EC621BD6FFF0EC721BE6FFF0EBB
:1013B800C821BF6FB851BC15C06FB951BD15C16FF9
:1013C800BA51BE15C26FBB51BF15C36F20EE06F0F0
:1013D800AE51D926AF51DA22C0C0DEFFC1C0DEFF50
:1013E800C2C0DEFFC3C0DEFF20EE06F0AE51D92634
:1013F800AF51DA22DE50B05FDE50B15BDE50B25B37
:10140800DD50B35B20EE10F0AE51D926AF51DA2291
:10141800DECFCDF0DDCFCEF030D020EE0EF0AE51E5
:10142800D926AF51DA22DECFCDF0DDCFCEF0CD51C7
:10143800CE11D8A418D0000EA16F000EA06F6CECCE
:1014480019F0A0C0CDF0A1C0CEF0CD05CE11D8B412
:10145800F7D020EE0EF0AE51D926AF51DA22CDC02A
:10146800DEFFCEC0DDFF20EE10F0AE51D926AF5121
:10147800DA22CDC0DEFFCEC0DDFFCD51CE11D8A41B
:1014880062D0ABD020EE02F0AE51D926AF51DA22AD
:10149800DFA217D0CDC0A0F0CEC0A1F06CEC19F03F
:1014A800A0C0CDF0A1C0CEF0CD51CE11D8A413D09C
:1014B800C9C0B0F0CAC0B1F0CBC0B2F0CCC0B3F074
:1014C8004CD0CDC031F0CEC032F0ABEC16F031C00C
:1014D800CDF032C0CEF0CE5104E1020ECD5DD8A0E1
:1014E800AFD020EE04F0AE51D926AF51DA2210EE7B
:1014F80016F0DE50E126DD50E222E650CD5DE650E2
:10150800CE59D8B09DD020EE10F0AE51D926AF51AB
:10151800DA22CDC0DEFFCEC0DDFF20EE06F0AE51F0
:10152800D926AF51DA22C951DE26CA51DE22CB5163
:10153800DE22CC51DE22C951B05FCA51B15BCB511A
:10154800B25BCC51B35BB051C95DB151CA59B2510C
:10155800CB59B351CC59D8A095D720EE06F0AE514F
:10156800D926AF51DA22B051DE26B151DE22B2516E
:10157800DE22B351DE2220EE03F0AE51D926AF5160
:10158800DA22B0C0B4F0B1C0B5F0B2C0B6F0B3C0A2
:10159800B7F00A0E05D0D890B733B633B533B433A5
:1015A800E82EF9D7B451DF6EFF0EB015B46F010EF7
:1015B800B115B56F000EB215B66F000EB315B76F43
:1015C800B451B511B611B711D8B407D020EE03F055
:1015D800AE51D926AF51DA22DF2A20EE06F0AE51FD
:1015E800D926AF51DA2210EE0AF0AE51E126AF51FA
:1015F800E222DE50E65CDE50E658DE50E658DE5069
:10160800E658D8B0120020EE06F0AE51D926AF51F8
:10161800DA2210EE0AF0AE51E126AF51E222DECF17
:10162800E6FFDECFE6FFDECFE6FFDECFE6FF20EE09
:1016380002F0AE51D926AF51DA22000EDB8A120031
:1016480020EE02F0AE51D926AF51DA22000EDB8E21
:101658001200DE0E03011C6F000E116F000E106FDA
:1016680010C31DF311C31EF31D2903E11E29D8B4AD
:101678001200DCC0F6FFDDC0F7FF0800F5CF21F34C
:101688000001DC4BDD2B03012151D8B41200250EDB
:101698002119D8B419D021C3CCF00001CD6BDAC020
:1016A800CEF0DBC0CFF081EC27F0CCC01DF3CDC06D
:1016B8001EF303011D2903E11E29D8B483D1000EAE
:1016C8001E6F010E1D6F7ED1000E166F16C314F328
:1016D800156BDCC0F6FFDDC0F7FF0800F5CF21F37E
:1016E8000001DC4BDD2B300E03012119D8A423D0D7
:1016F800010E166FDCC0F6FFDDC0F7FF0800F5CF5E
:1017080021F30001DC4BDD2B16D014C319F015C3EF
:101718001AF0000E1C6E0A0E1B6EC3EC28F00301B3
:1017280021511926000E1A22D00E1924146FFF0E0B
:101738001A20156FDFD72F0E0301216503D0390E4C
:101748002165E3D76C0E2119D8A40BD01683DCC011
:10175800F6FFDDC0F7FF0800F5CF21F30001DC4BF1
:10176800DD2B730E03012119D8A415D01C51D96E95
:10177800DA6ADECFD3F0DDCFD4F0DAC0D5F0DBC043
:10178800D6F017EC23F0D3C01DF3D4C01EF3020E1D
:1017980003011C2717D1630E2119D8A41DD01C5191
:1017A800D96EDA6ADF500001EE6FEE51CC6FCD6B67
:1017B800DAC0CEF0DBC0CFF081EC27F0CCC01DF34F
:1017C800CDC01EF3020E03011C271D2904E11E29AA
:1017D800D8A475D7F7D073D7000E176F640E2119E8
:1017E800D8A402D00A0E176F750E2119D8A402D0FA
:1017F8000A0E176F580E2119D8A402D0100E176FB1
:101808001751D8B4120016A30DD01C51D96EDA6A3C
:10181800DECF18F3DECF19F3DECF1AF3DECF1BF3DA
:10182800040E1FD0640E2119D8B40ED01C51D96EE5
:10183800DA6ADECFEEF0DDCFEFF0EEC018F3EFC0DE
:1018480019F31A6B1B6B0CD01C51D96EDA6ADECFF8
:1018580018F3DDCF19F3000E19BFFF0E1A6F1B6FB7
:10186800020E1C27640E2119D8A40ED0800E1B5D11
:10187800D8A00AD0186D191FD8B0192B1A1FD8B0C4
:101888001A2B000E1B571685000E206F0F0E1F6FA8
:10189800000E0F6F18C319F019C31AF01AC31BF002
:1018A8001BC31CF017511D6E1E6A1F6A206A30EC9C
:1018B80025F01950300F216F390E216502D0070E1F
:1018C80021271F07D8A02007000E1F25D96E030E59
:1018D8002021DA6E21C3DFFF18C319F019C31AF0EB
:1018E8001AC31BF01BC31CF017511D6E1E6A1F6A1A
:1018F800206A9DEC23F019C018F31AC019F31BC015
:101908001AF31CC01BF303011F512011D8B406D0D1
:10191800185119111A111B11D8A4BCD71F51201125
:10192800D8A416A50BD01F07D8A02007000E1F2586
:10193800D96E030E2021DA6E2D0EDF6E14510F08BA
:10194800146F1551D8A0E82A0008156F16D00301A6
:1019580016B104D0000E136F200E03D0000E136FC3
:10196800300E126F1F07D8A02007000E1F25D96E52
:10197800030E2021DA6E12C3DFFF1F512011D8B4E5
:101988000DD01F51145D1551800A0001EE6F03013F
:101998002051800A0001EE59D8A0D9D7000E0301C2
:1019A8001F250001D36F030E030120210001D46F0E
:1019B800DAC0D5F0DBC0D6F017EC23F0D3C01DF3A6
:1019C800D4C01EF303011D5110271E5111234CD6FC
:1019D8008DD184B002D0F8A103D03C04D8A442D061
:1019E80035503610D8A411D0060E1C6E020E63ECCA
:1019F80025F014EC2AF019C01CF01AC01DF013ECE5
:101A080026F0270E366E100E356E3B04D8B428D05B
:101A1800010E3C6E010ED1EC22F0000E1C6E010E80
:101A280063EC25F0630E1C6E620E1D6E13EC26F03F
:101A3800000E1C6E020E63EC25F05E0E1C6E620E2C
:101A48001D6E13EC26F0060E1C6E020E63EC25F0DC
:101A580014EC2AF019C01CF01AC01DF013EC26F083
:101A6800010E3B6E84B203D00001F8A104D0020E2F
:101A78003C18D8A46DD035503610D8A426D00FEC19
:101A88002AF019C033F01AC034F00AEC2AF019C051
:101A9800F9F01AC0FAF0040E1C6E010E63EC25F082
:101AA80033C01CF034C01DF013EC26F0040E1C6E7D
:101AB800020E63EC25F0F9C01CF0FAC01DF013EC1F
:101AC80026F0070E366ED00E356E020E3B18D8B4CF
:101AD8003DD0020E3C6E010ED1EC22F00FEC2AF044
:101AE80019C033F01AC034F00AEC2AF019C0F9F022
:101AF8001AC0FAF0000E1C6E010E63EC25F0710E90
:101B08001C6E620E1D6E13EC26F0040E1C6E010E88
:101B180063EC25F033C01CF034C01DF013EC26F044
:101B2800000E1C6E020E63EC25F06D0E1C6E620E2C
:101B38001D6E13EC26F0040E1C6E020E63EC25F0ED
:101B4800F9C01CF0FAC01DF013EC26F0020E3B6E33
:101B580084B227D03C50D8B424D00001F8B121D0A9
:101B6800040E3B18D8B41BD0010ED1EC22F0000EA5
:101B78003C6E000E1C6E010E63EC25F07E0E1C6E92
:101B8800610E1D6E13EC26F0000E1C6E020E63EC47
:101B980025F0430E1C6E620E1D6E13EC26F0040E2B
:101BA8003B6E3C50D8A412000001F8B11200040E9C
:101BB8003B18D8B419D0010ED1EC22F0000E1C6EDF
:101BC800010E63EC25F05C0E1C6E610E1D6E13ECAD
:101BD80026F0000E1C6E020E63EC25F0430E1C6E00
:101BE800620E1D6E13EC26F0040E3B6E1200F8B167
:101BF80004D0030E3C18D8A4120035503610D8A4CF
:101C080026D0070E1C6E020E63EC25F00001F6A12B
:101C180003D0306A302A01D0306A30502E6E2F6AD5
:101C2800DCEC27F0090E1C6E020E63EC25F00001B7
:101C3800F7A103D0306A302A01D0306A30502E6EB6
:101C48002F6ADCEC27F0270E366E100E356E030E69
:101C58003B18D8B448D0030E3C6E010ED1EC22F0EC
:101C6800000E1C6E010E63EC25F0DD0E1C6E610E7D
:101C78001D6E13EC26F0000E1C6E020E63EC25F0B0
:101C88004B0E1C6E620E1D6E13EC26F0070E1C6EBA
:101C9800020E63EC25F00001F6A103D0306A302A69
:101CA80001D0306A30502E6E2F6ADCEC27F0080E17
:101CB8001C6E020E63EC25F07C0E1C6E620E1D6E0F
:101CC80013EC26F0090E1C6E020E63EC25F00001E1
:101CD800F7A103D0306A302A01D0306A30502E6E16
:101CE8002F6ADCEC27F0030E3B6E1200F8B102D02D
:101CF800010E01D0000E306E316A3150000AD8A4AE
:101D080076D73050010AD8B464D671D720EE04F0E3
:101D1800C051D926C151DA22000EDE6E000EDD6EEA
:101D28001F0EC417C20E796FC4511E0B7A6F44EC94
:101D380006F00001DB6FDB51D8B402D0DB51120092
:101D4800DE0EA76FC90EA86FC2C0A9F0C3C0AAF063
:101D5800DC0EAB6F05EC13F0DB6FC4C0C5F01C0ED6
:101D6800C517D8B4DDD0DB51D8B434D0020EDB1996
:101D7800D8A4E4D7DE0EAE6FDC0EAF6F41EC14F0E2
:101D8800DB6FDB51D8A4DAD7DCC019F0DDC01AF05C
:101D9800000E1C6E000E1B6E000E1E6E200E1D6EB9
:101DA80070EC28F0DCC019F0DDC01AF0C90E1B6E0B
:101DB8001C6A000E1E6E0B0E1D6E3EEC27F0000115
:101DC80020EE0CF0DC51D926DD51DA22D4C0DFFF39
:101DD800C4877AD0C4A502D0070E1200DC51DD11E9
:101DE800D8B40CD020EE0BF0DC51D926DD51DA2224
:101DF800DF50C56F110EC517D8B402D0060E1200F9
:101E0800C4A762D020EE1AF0DC51D926DD51DA22BF
:101E1800DECFD5F0DDCFD6F020EE1AF0DC51D92692
:101E2800DD51DA22000EDE6E000EDD6E20EE1CF0B3
:101E3800DC51D926DD51DA22DE6ADE6ADE6ADD6A25
:101E480020EE1FF0E251D926E351DA22010EDF6EAF
:101E580020EE04F0E251D926E351DA22DECFD7F0A2
:101E6800DECFD8F0DECFD9F0DECFDAF0D5C0A0F0E3
:101E7800D6C0A1F0A8EC21F00009D8B40DD0D7C085
:101E880073F0D8C074F0D9C075F0DAC076F097EC6A
:101E980018F00009D8A402D0080E1200FF0EC56F72
:101EA800FF0EC66FD5C0C7F0D6C0C8F0C551C7274A
:101EB800C651C82320EE18F0E251D926E351DA22A0
:101EC800C7C0DEFFC8C0DDFFC4A745D020EE0BF0B9
:101ED800DC51D926DD51DA22000EDF6E91EC1BF0C1
:101EE8001DC0D7F01EC0D8F01FC0D9F020C0DAF04E
:101EF80020EE0EF0DC51D926DD51DA22D7C0DEFF04
:101F0800D8C0DEFFD9C0DEFFDAC0DEFF20EE1FF04A
:101F1800E251D926E351DA22010EDF6EC48B1BD0C1
:101F2800DB51D8A40BD7DC51DD11D8B408D020EE92
:101F38000BF0DC51D926DD51DA22DFA802D0020EDF
:101F48001200C4A308D020EE0BF0DC51D926DD51D5
:101F5800DA22DFB053D720EE04F0E251D926E3515C
:101F6800DA2210EE16F0C051E126C151E222DECF8E
:101F7800E6FFDECFE6FFDECFE6FFDECFE6FF20EEB0
:101F88001AF0C051D926C151DA22DCC0DEFFDDC00B
:101F9800DDFF20EE02F0C051D926C151DA22C4C0BB
:101FA800DFFF20EE1AF0DC51D926DD51DA2210EEDF
:101FB8000EF0C051E126C151E222DECFE6FFDDCFAF
:101FC800E5FF20EE1CF0DC51D926DD51DA2210EEB7
:101FD8000AF0C051E126C151E222DECFE6FFDECF92
:101FE800E6FFDECFE6FFDECFE6FF20EE06F0C051CB
:101FF800D926C151DA22DE6ADE6ADE6ADD6A20EE9F
:1020080003F0C051D926C151DA22FF0EDF6E20EE4F
:1020180004F0C051D926C151DA22E2C0DEFFE3C084
:10202800DDFFE2C0D9FFE3C0DAFFC0C0E1FFC1C0F5
:10203800E2FFDECFE6FFDDCFE5FF000E1200000E67
:102048000001646F000E636F000E6A6F000E696F07
:10205800000E6B6F100E2C6E940EE82EFED72C2EF1
:10206800FCD700D0640EA1EC27F089EC22F0AA0E70
:102078001E6E010E1F6E000E206E000E216E870E62
:10208800226E480E92EC25F0F3EC29F0EDEC29F0E5
:102098000001676F6705D8A404D06751666F656B48
:1020A80006D0AA0E6719D8A402D067516513634BEE
:1020B800642BAA0E651903E16605D8B408D064BF7D
:1020C800E5D7E80E635D030E6459D8A0DFD7AA0EE2
:1020D800651902E16605D8A49ED0000E6A6F000E4D
:1020E800696F0A0EA1EC27F0000E1E6E000E1F6E1F
:1020F800000E206E000E216E000E226E770E92ECFE
:1021080025F0F3EC29F0EDEC29F000016B6F694B39
:102118006A2B6B05D8B408D06ABFF5D76A5104E1B9
:102128000A0E695DD8A0EFD7000E6A6F000E696FBE
:102138000A0EA1EC27F0000E1E6E000E1F6E000E98
:10214800206E400E216E000E226E690E92EC25F074
:10215800F3EC29F0EDEC29F000016B6F694B6A2B69
:102168006B51D8A4BED70A0EA1EC27F0000E1E6E44
:10217800000E1F6E000E206E000E216EFF0E226EE6
:102188007A0E92EC25F0F3EC29F0EDEC29F0000141
:102198006B6F6B516B25800B686F694B6A2B6851AD
:1021A800D8B40BD06805D8B408D06ABFEED76A5146
:1021B80004E10A0E695DD8A0E8D76851D8B403D005
:1021C8006805D8A48AD7100E2C6E940EE82EFED778
:1021D8002C2EFCD700D0000E0001626F6851D8A4E5
:1021E800ACD00A0EA1EC27F0000E1E6E020E1F6E78
:1021F800000E206E000E216EFF0E226E500E92EC25
:1022080025F0F3EC29F0EDEC29F000016B6F6B5130
:10221800D8B493D0F8D7000E6A6F000E696F010E1C
:10222800A1EC27F0000E1E6E000E1F6E000E206E31
:10223800000E216EFF0E226E690E92EC25F0F3EC73
:1022480029F0EDEC29F000016B6F694B6A2B6B519B
:10225800D8A40BD0000E1C6E010E63EC25F0300ED6
:102268001C6E620E1D6E13EC26F0100E2C6E940E72
:10227800E82EFED72C2EFCD700D000016B51D8B425
:1022880008D06ABFDED7100E695D270E6A59D8A03C
:10229800D8D70A0E69196A11D8A436D0000E6A6F09
:1022A800000E696F0A0EA1EC27F0000E1E6E000EDC
:1022B8001F6E000E206E000E216EFF0E226E410E64
:1022C80092EC25F0F3EC29F0EDEC29F000016B6FAE
:1022D800694B6A2B6B51D8A40BD0000E1C6E010EF3
:1022E80063EC25F0060E1C6E620E1D6E13EC26F0D4
:1022F80000016B51D8B408D06ABFE6D7100E695DEB
:10230800270E6A59D8A0E0D70A0EA1EC27F0000ED4
:102318001E6E020E1F6E000E206E000E216EFF0E46
:10232800226E500E92EC25F0F3EC29F0EDEC29F03A
:1023380000016B6F6B51D8A4F9D7625112000A6E75
:102348000AC00BF053D14404D8A405D0000E0001F4
:10235800FC6F010EFB6F020E4418D8A405D0000EC6
:1023680001011D6F010E1C6F0001FB51FC11D8B457
:10237800120001011C511D11D8B41200000E1D6F6E
:10238800000E1C6F1CC1FBF01DC1FCF01200000EFA
:10239800456E45C043F01200B80E4524D96EDA6A7E
:1023A800010EDA22000EDF6E4350D8A430D0B80EEA
:1023B800016E010E026EE90E036E010E046E000E30
:1023C800066E000E056EF9EC26F0E90E016E010EA0
:1023D800026E580E036E620E046E8CEC26F00150ED
:1023E8000210D8A402D0010E11D0E90E016E010E20
:1023F800026E520E036E620E046E8CEC26F00150D3
:102408000210D8A402D0020E01D0030E446E430479
:10241800D8A411D04404D8A40ED0B80E016E010E71
:10242800026EC40E036E010E046E000E066E000EE0
:10243800056EF9EC26F0030E4318D8A411D0440415
:10244800D8A40ED0B80E016E010E026EE50E036E12
:10245800020E046E000E066E010E056EF9EC26F0F3
:10246800040E4318D8A40DD04404D8A40AD04E0EA4
:102478000101B819D8A402D0300E01D02D0E0201E6
:10248800E56F050E4318D8A411D04404D8A40ED083
:10249800B80E016E010E026ED80E036E020E046EA7
:1024A800000E066E010E056EF9EC26F0060E4318B6
:1024B800D8A40DD04404D8A40AD0450E0101B819F7
:1024C800D8A402D0300E01D02D0E0201D86F070E0D
:1024D8004318D8A411D04404D8A40ED0B80E016E65
:1024E800010E026EE30E036E010E046E000E066E00
:1024F800000E056EF9EC26F0080E4318D8A411D08A
:102508004404D8A40ED0B80E016E010E026EDD0E82
:10251800036E010E046E000E066E000E056EF9ECD9
:1025280026F0090E4318D8A411D04404D8A40ED01C
:10253800B80E016E010E026ED60E036E010E046E09
:10254800000E066E000E056EF9EC26F0070E431815
:10255800D8A412D0020E4418D8A40ED0B80E016E1A
:10256800010E026EEF0E036E010E046E000E066E73
:10257800000E056EF9EC26F0090E4318D8A412D007
:10258800020E4418D8A40ED0B80E016E010E026EC9
:10259800CF0E036E010E046E000E066E000E056E61
:1025A800F9EC26F0060E4318D8A412D0020E4418EF
:1025B800D8A40ED0B80E016E010E026EF20E036E94
:1025C800010E046E000E066E000E056EF9EC26F084
:1025D800432A000E456E1200B80E4524D96EDA6AF9
:1025E800010EDA220BC0DFFF452A12000B500D0A3C
:1025F800D8B4A9D6290AD8B4CAD6080AD8B4CCD629
:10260800EBD739C0B4F03AC0B5F0A751D96EDA6A41
:10261800040ED926B4C0DEFFB5C0DDFF20EE0CF0F5
:10262800B451D926B551DA22DECFB6F0DDCFB7F0F6
:10263800A751D96EDA6A060ED926000EDE6E000E94
:10264800DD6EA751E16EE26A080EE126DECFE6FFF5
:10265800DDCFE5FFB651AC6FB751AD6FAE6BAF6B69
:10266800A751D96EDA6A0A0ED926ACC0DEFFADC012
:10267800DEFFAEC0DEFFAFC0DEFFA751D96EDA6A5B
:10268800020ED926000EDE6E000EDD6EA9C0F6FF22
:10269800AAC0F7FFF86A070EF76403D00800F550E0
:1026A80005D0F6CFE1FFF7CFE2FFE7500009D8A445
:1026B8000AD00001AB51D96EDA6A000EDE6E000E48
:1026C800DD6E000E1200A90E216EA8C022F0E4EC07
:1026D8001AF00001B86FB805D8A402D0040E120091
:1026E800A751D96EDA6A0A0ED926DECF73F0DECF8B
:1026F80074F0DECF75F0DECF76F097EC18F00009B5
:10270800D8A402D0080E1200A751D96EDA6A020EB8
:10271800D926DECFACF0DDCFADF00F0EAC17000E32
:10272800AD17050ED890AC37AD37E82EFBD7B4C03F
:10273800AEF0B5C0AFF0AC51AE27AD51AF23200E0F
:10274800AE25B96F000EAF21BA6FB9C0D9FFBAC0B4
:10275800DAFFDF50D8A40DD0B851D8B404D0000E99
:10276800B16F030E03D0000EB16F020EB06FB051FF
:102778001200B9C0D9FFBAC0DAFFE50EDE18D8B426
:1027880019D020EE0BF0B951D926BA51DA22DFB6AA
:1027980011D0B9C019F0BAC01AF0A8C01BF01C6A51
:1027A800000E1E6E0B0E1D6E40EC22F019501A1012
:1027B800D8B414D0A7C09BF032EC1AF00009D8A402
:1027C8008FD7B851D8B404D0000EB36F030E03D01E
:1027D800000EB36F020EB26FB25112000001B85171
:1027E800D8A408D0AB51D96EDA6AB9C0DEFFBAC036
:1027F800DDFF67D720EE0BF0B951D926BA51DA229E
:10280800DFB802D0030E120020EE1AF0B951D92613
:10281800BA51DA22DECFB6F0DDCFB7F0A751D96EC4
:10282800DA6A060ED926B6C0DEFFB7C0DDFFA751AB
:10283800E16EE26A080EE126DECFE6FFDDCFE5FFB6
:10284800B6C025F0B7C026F05BEC20F0A751D96ED2
:10285800DA6A0A0ED92625C0DEFF26C0DEFF27C0A9
:10286800DEFF28C0DEFFA751D96EDA6A020ED9262C
:10287800020EDE6E000EDD6E26D7AE51D96EDA6A14
:10288800040ED926DECFBEF0DDCFBFF0AE51D96E33
:10289800DA6A060ED926DECFBCF0DDCFBDF0BC511A
:1028A800BD11D8B41DD0AE51D96EDA6A080ED9263A
:1028B800BCC0DEFFBDC0DDFFBCC025F0BDC026F03A
:1028C8005BEC20F0AE51D96EDA6A0A0ED92625C023
:1028D800DEFF26C0DEFF27C0DEFF28C0DEFF13D0E4
:1028E80020EE0CF0BE51D926BF51DA22AE51E16E6E
:1028F800E26A0A0EE126DECFE6FFDECFE6FFDECF94
:10290800E6FFDECFE6FFAE51D96EDA6A020ED926AF
:10291800000EDE6E000EDD6EAE51D96EDA6A0A0E5A
:10292800D926DECF73F0DECF74F0DECF75F0DECFC0
:1029380076F097EC18F00009D8A402D0080E12001F
:10294800AE51D96EDA6A020ED926DECFB0F0DDCFED
:10295800B1F00F0EB017000EB117050ED890B037B2
:10296800B137E82EFBD7BEC0B2F0BFC0B3F0B0514C
:10297800B227B151B323200EB225B96F000EB3218F
:10298800BA6FB9C0D9FFBAC0DAFFDF50BB6FBB510D
:10299800D8B404D0E50EBB19D8A409D0AF51D96E6C
:1029A800DA6AB9C0DEFFBAC0DDFF000E1200AEC0A1
:1029B8009BF032EC1AF00009D8A4AED7BC51BD1177
:1029C800D8B413D0AE51D96EDA6A080ED926DECF44
:1029D800A0F0DDCFA1F06CEC19F0A0C0BCF0A1C054
:1029E800BDF0BC51BD11D8A402D0060E1200BC0522
:1029F800BD11D8B4A3D7000E736F000E746F000E0C
:102A0800756F000E766F97EC18F00009D8B496D75A
:102A1800BCC025F0BDC026F05BEC20F025C0B4F0AA
:102A280026C0B5F027C0B6F028C0B7F020EE04F0F5
:102A3800BE51D926BF51DA22B4C0DEFFB5C0DEFFD1
:102A4800B6C0DEFFB7C0DEFF200EBE25196E000E31
:102A5800BF211A6E000E1C6E000E1B6E020E1E6E3B
:102A6800000E1D6E70EC28F0000120EE1DF0BE5126
:102A7800D926BF51DA22DF50B86F1DD0200EBE25EF
:102A8800686F000EBF21696FB4C06AF0B5C06BF003
:102A9800B6C06CF0B7C06DF0010E6E6F000E65EC3D
:102AA80026F00009D8A44AD7010EB427000EB52392
:102AB800B623B723B807B851D8A4E0D720EE1FF043
:102AC800BE51D926BF51DA22010EDF6E200EBE2577
:102AD800B06F000EBF21B16FAF51D96EDA6AB0C0C6
:102AE800DEFFB1C0DDFF61D739C09EF03AC09FF06C
:102AF80020EE08F09E51D9269F51DA22DECF96F0BB
:102B0800DECF97F0DECF98F0DECF99F008D188C0FD
:102B180019F089C01AF0000E1C6E030E1B6EC3EC70
:102B280028F0D8901A3000018C6F19309A6F8CC039
:102B38009BF09AC08CF09BC08DF0090E8E6FD890D8
:102B48008D338C338E2FFBD78C519625736F8D5117
:102B58009721746F000E9821756F000E9921766F7A
:102B680097EC18F00009D8A402D0000E1200FF0E4E
:102B78008C6F010E8D6F9AC08EF09BC08FF08C51B8
:102B88008E178D518F179EC090F09FC091F08E5177
:102B980090278F519123200E90259C6F000E912134
:102BA8009D6F88B104D08AC092F0936B1AD08A5175
:102BB8008C6F8D6B8C3B8D3BF00E8D178C510F0BF2
:102BC8008D13F00E8C179CC0D9FF9DC0DAFFDF5023
:102BD8000F0B8E6F8F6B8C518E11926F8D518F11E1
:102BE800936F9CC0D9FF9DC0DAFF92C0DFFF9A4B5C
:102BF8009B2B20EE1FF09E51D9269F51DA22010E01
:102C0800DF6E9AC08CF09BC08DF0090E8E6FD89045
:102C18008D338C338E2FFBD78C519625736F8D5146
:102C28009721746F000E9821756F000E9921766FA9
:102C380097EC18F00009D8B498D7FF0E8C6F010EE6
:102C48008D6F9AC08EF09BC08FF08C518E178D516E
:102C58008F179EC090F09FC091F08E5190278F5192
:102C68009123200E90259C6F000E91219D6F88B1B5
:102C78000ED08BC08CF00F0E8C179CC0D9FF9DC056
:102C8800DAFFDF50F00B8C118D6F8D510CD08AC09C
:102C98008CF08BC08DF0040E8E6FD8908D338C33F2
:102CA8008E2FFBD78C51946F956B9CC0D9FF9DC01C
:102CB800DAFF94C0DFFF41D089519625736F000E6B
:102CC8009721746F000E9821756F000E9921766F09
:102CD80097EC18F00009D8B448D7FF0E8C6F010E96
:102CE8008D6F88C08EF089C08FF0D8908E378F375F
:102CF8008C518E178D518F179EC090F09FC091F008
:102D08008E5190278F519123200E9025D96E000E59
:102D18009121DA6E8AC0DEFF8BC0DDFF0ED020EE77
:102D28001CF09E51D9269F51DA22DF50010AD8B4EF
:102D3800EED6030AD8B4C0D718D720EE1FF09E519C
:102D4800D9269F51DA22010EDF6E010E120039C01A
:102D580099F03AC09AF0325004E1020E315CD8A0E2
:102D680002D120EE16F09951D9269A51DA22DE5076
:102D7800315CDE503258D8B0F6D020EE08F09951C8
:102D8800D9269A51DA22DECF93F0DECF94F0DECF47
:102D980095F0DECF96F0DAD031C019F032C01AF0D3
:102DA800000E1C6E030E1B6EC3EC28F0D8901A3070
:102DB8000001886F1930976F88C098F097C088F025
:102DC80098C089F0090E8A6FD890893388338A2F82
:102DD800FBD788519325736F89519421746F000E26
:102DE8009521756F000E9621766F97EC18F0000903
:102DF800D8B4B9D0FF0E886F010E896F97C08AF0DA
:102E080098C08BF088518A1789518B1799C08CF01C
:102E18009AC08DF08A518C278B518D23200E8C25DA
:102E2800D96E000E8D21DA6EDF508E6F8E51916F44
:102E3800926B974B982B97C088F098C089F0090E31
:102E48008A6FD890893388338A2FFBD78851932586
:102E5800736F89519421746F000E9521756F000E60
:102E68009621766F97EC18F00009D8B47CD0FF0E45
:102E7800886F010E896F97C08AF098C08BF08851CF
:102E88008A1789518B1799C08CF09AC08DF08A5196
:102E98008C278B518D23200E8C25D96E000E8D2109
:102EA800DA6EDF508E6F8E51906F8F6B8F5191134A
:102EB8009051921331B007D0FF0E9115316E0F0E5D
:102EC8009215326E120091C088F092C089F0040EFB
:102ED8008A6FD890893388338A2FFBD788C031F01E
:102EE80089C032F0120032509325736F000E94217E
:102EF800746F000E9521756F000E9621766F97EC12
:102F080018F00009D8B42FD0FF0E886F010E896F12
:102F180031C08AF032C08BF0D8908A378B3788510D
:102F28008A1789518B1799C08CF09AC08DF08A51F5
:102F38008C278B518D23200E8C25D96E000E8D2168
:102F4800DA6EDECF31F0DDCF32F0120020EE1CF069
:102F58009951D9269A51DA22DF50010AD8B41CD7E0
:102F6800030AD8B4C0D7000E326E010E316E1200BB
:102F7800000E0001636F000E626F010E2B6469D0B2
:102F88008B9E8A980A0EA1EC27F02B501E6E1F6AA2
:102F9800206A216AFF0E226E570E92EC25F0F3ECA0
:102FA80029F0EDEC29F00001676F6751D8A4F9D733
:102FB8000A0EA1EC27F027C02CF028C02DF029C05C
:102FC8002EF02AC02FF0090ED8902C362D362E362A
:102FD8002F36E82EF9D72CC01EF02DC01FF02EC0BA
:102FE80020F02FC021F0FF0E226E590E92EC25F032
:102FF800F3EC29F0EDEC29F00001676F6751D8A4D4
:10300800F9D7010EA1EC27F0FC0ED7EC29F0000E41
:103018000001666F000E656F25C0D9FF26C0DAFF74
:10302800DF50D7EC29F0254A262A0001654B662B8C
:1030380066BFF2D7020E665DD8A0EED7F9EC29F08C
:10304800F9EC29F0010EA1EC27F0FD0ED7EC29F0E0
:1030580067D08B9E8A980A0EA1EC27F027C02CF027
:1030680028C02DF029C02EF02AC02FF0090ED890C4
:103078002C362D362E362F36E82EF9D72CC01EF0DA
:103088002DC01FF02EC020F02FC021F0000E226EA0
:10309800580E92EC25F0F3EC29F0EDEC29F0000144
:1030A800676F6751D8A4F9D78A988B9E010EA1EC57
:1030B80027F0FE0ED7EC29F0000E0001666F000E17
:1030C800656F25C0D9FF26C0DAFFDF50D7EC29F09D
:1030D800254A262A0001654B662B66BFF2D7020EE9
:1030E800665DD8A0EED7F9EC29F0F9EC29F00A0EC4
:1030F800A1EC27F0000E1E6E000E1F6E000E206E53
:10310800000E216E000E226E4D0E92EC25F0F3ECAF
:1031180029F0EDEC29F00001676F6751D8A4F9D7C1
:1031280000016451120039C086F03AC087F020EEE1
:1031380004F08651D9268751DA22DECF82F0DECF1D
:1031480083F0DECF84F0DECF85F0735182190AE177
:103158007451831907E17551841904E17651851971
:10316800D8B4B4D020EE1FF08651D9268751DA2280
:10317800DF50D8B481D0200E8625686F000E8721D5
:10318800696F82C06AF083C06BF084C06CF085C040
:103198006DF0010E6E6F000E65EC26F00009D8B4D4
:1031A80002D0000E120020EE1FF08651D92687515A
:1031B800DA22000EDF6E20EE08F08651D9268751FC
:1031C800DA22DECF77F0DECF78F0DECF79F0DECF0F
:1031D8007AF020EE14F08651D9268751DA22DECF14
:1031E8007BF0DDCF7CF07B5177257D6F7C5178219A
:1031F8007E6F000E79217F6F000E7A21806F7D51DE
:10320800825D7E5183597F51845980518559D8B048
:1032180033D020EE1EF08651D9268751DA22DF50AE
:10322800816F020E816101D027D020EE14F0865103
:10323800D9268751DA22DECF77F0DDCF78F07751C3
:10324800822778518323000E8423000E8523200EC5
:103258008625686F000E8721696F82C06AF083C077
:103268006BF084C06CF085C06DF0010E6E6F000EBF
:1032780065EC26F08107D5D7735174117511761155
:10328800D8B424D0200E8625686F000E8721696F78
:1032980073C06AF074C06BF075C06CF076C06DF0E6
:1032A800010E6E6F000E8FEC24F00009D8A479D7B8
:1032B80020EE04F08651D9268751DA2273C0DEFF4A
:1032C80074C0DEFF75C0DEFF76C0DEFF010E12009F
:1032D80039C0A6F03AC0A7F020EE16F0A651D926BC
:1032E800A751DA22DECFA4F0DDCFA5F0A051A111BD
:1032F800D8A41BD020EE18F0A651D926A751DA225F
:10330800DECFAAF0DDCFABF0AB5104E1020EAA5D2F
:10331800D8A006D0A451AA5DA551AB59D8A029D0F0
:10332800000EAB6F010EAA6F24D0A0C031F0A1C06F
:1033380032F0ABEC16F031C0A8F032C0A9F0A951B8
:1033480009E1020EA85DD8B005D0000EA16F010EEC
:10335800A06F1200A451A85DA551A959D8B005D0F5
:10336800A8C0A0F0A9C0A1F01200A0C0AAF0A1C0F6
:10337800ABF0AAC0ACF0ABC0ADF0AC4BAD2BA451D8
:10338800AC5DA551AD59D8A00FD0000EAD6F020E9F
:10339800AC6FAB5109E1020EAA5DD8B005D0000EA2
:1033A800A16F000EA06F1200ACC031F0ADC032F0BA
:1033B800ABEC16F031C0A8F032C0A9F0A851A911A1
:1033C800D8B40CD0A805A911D8B4BFD7AA51AC1944
:1033D800D4E1AB51AD19D8B4E2D7CFD7ACC088F09F
:1033E800ADC089F0FF0E8B6F8A6978EC15F0000983
:1033F800D8B4ABD7A051A111D8B40DD0A0C088F0D3
:10340800A1C089F0ACC08AF0ADC08BF078EC15F0A3
:103418000009D8B49AD720EE18F0A651D926A7519A
:10342800DA22ACC0DEFFADC0DDFF20EE1AF0A651F7
:10343800D926A751DA22DE2803E1DE28D8B409D03C
:1034480020EE1AF0A651D926A751DA22DE06000E80
:10345800DD5AACC0A0F0ADC0A1F0120000019B5134
:10346800D96EDA6A020ED926DECF9CF0DDCF9DF048
:10347800010E9C25A56F000E9D21A66FA5C09CF08E
:103488000F0E9C17D8A491D09B51D96EDA6A0A0EF8
:10349800D926DE2A000EDE22DE22DE229B51D96EDC
:1034A800DA6A080ED926DE50DE10D8A413D09B5154
:1034B800D96EDA6A040ED92610EE02F0DE50E12643
:1034C800DD50E222E650A55DE650A659D8A06DD0A1
:1034D800000E1200A5C09CF0A6C09DF0040E9E6FC1
:1034E800D8909D339C339E2FFBD7FF0E9F6FFF0E06
:1034F800A06F9B51D96EDA6A040ED92610EE1DF022
:10350800DE50E126DD50E222E750A16FA26B9F5109
:10351800A127A051A2239C51A1179D51A217A151E7
:10352800A211D8A442D09B51D96EDA6A080ED926C6
:10353800DECF31F0DDCF32F0ABEC16F031C0A3F0C6
:1035480032C0A4F0A45104E1020EA35DD8A0C0D7F4
:103558009B51D96EDA6A040ED92610EE16F0DE50A9
:10356800E126DD50E222E650A35DE650A459D8B02A
:10357800AFD79B51D96EDA6A080ED926A3C0DEFFF1
:10358800A4C0DDFFA3C025F0A4C026F05BEC20F0AA
:103598009B51D96EDA6A0A0ED92625C0DEFF26C0ED
:1035A800DEFF27C0DEFF28C0DEFF9B51D96EDA6A36
:1035B800020ED926A5C0DEFFA6C0DDFF010E12004F
:1035C80022C019F01A6A000E1C6E200E1B6E000E27
:1035D8001E6E0B0E1D6E70EC28F0000E296E180E74
:1035E800276E000E2A6E080E286E2150D96EDA6AF0
:1035F800DFCF23F0010EDE26DFCF24F0000EDD2220
:1036080023C0F6FF24C0F7FFF86A070EF76403D05B
:103618000800F55005D0F6CFE1FFF7CFE2FFE750FD
:103628002B6E2B50D8B404D02F0E2B18D8A412D040
:103638002A50D8B470D029502714236E2350256EF1
:10364800266A2250D96EDA6A0B0ED92625C0DFFF0A
:103658002B501200200E2B645ED07F0E2B18D8B48E
:103668005AD02E0E2B18D8A40CD029B054D02A50DA
:10367800D8B451D0090E2A604ED0080E2A6E0B0E0F
:10368800B3D7220E2B18D8B446D02A0E2B6001D0FF
:1036980035D02D0E2B6001D03ED03A0E2B6001D0D4
:1036A8002DD0400E2B6001D036D029B027D07C0E0B
:1036B8002B18D8B430D05A0E2B6404D05E0E2B6071
:1036C80001D029D0400E2B640AD05B0E2B6007D0A6
:1036D800080E2818D8A402D0279601D02798600E83
:1036E8002B640CD07B0E2B6009D0200E2B5E080EAD
:1036F8002818D8A402D0298601D0298829902850D2
:103708002A5CD8B008D022502A24D96EDA6A2BC095
:10371800DFFF2A2A6AD7010E1200D6EC28F0FD0E28
:103728001924216EFF0E1A20226E2CEC29F019C0E4
:1037380023F01AC024F00AEC29F019C025F01AC0A9
:1037480026F0F9EC28F0D00E1924296E070E1A205D
:103758002A6E1BEC29F01950286E3DEC29F01950FF
:10376800276ED89026300001616F2530606F235096
:10377800626F2450636F646B656B050ED890623777
:10378800633764376537E82EF9D72150666F2250C2
:10379800676F686B696B0B0ED89066376737683749
:1037A8006937E82EF9D727C06AF06B6B6C6B6D6BC5
:1037B8006BC06DF06AC06CF06B6B6A6B28C06EF002
:1037C8006F6B706B716B150ED8906E376F377037E3
:1037D8007137E82EF9D7C40E2924726FFF0E2A20FC
:1037E800736F746B756B190ED890723773377437A3
:1037F8007537E82EF9D76E517211766F6F517311C4
:10380800776F70517411786F71517511796F6A51B2
:1038180076117A6F6B5177117B6F6C5178117C6FD1
:103828006D5179117D6F66517A117E6F67517B11E9
:103838007F6F68517C11806F69517D11816F625172
:103848007E11826F63517F11836F64518011846F81
:1038580065518111856F605182111D6E615183110F
:103868001E6E000E84111F6E000E8511206E120050
:103878008196E6EC29F04EEC29F0220E196E030E23
:103888001A6E000EB1EC26F014EC2AF019C0F1F013
:103898001AC0F2F0F1C0D9FFF2C0DAFF310EDE181B
:1038A800D8A476D00001FD51D8A416D0C90E196E3F
:1038B800020E1A6E7A0E1B6E020E1C6E43EC28F076
:1038C800C90E196E020E1A6E680E1B6E620E1C6E01
:1038D8001CEC27F0010EFD6F9C0EC06F010EC16F2E
:1038E800C90EC26F020EC36F020EC46F8AEC0EF0CF
:1038F8000009D8A440D09C0EAE6F010EAF6FA6C1D0
:10390800B0F0A7C1B1F0A8C1B2F0A9C1B3F0E8EC1A
:1039180008F09C0EDA6F010EDB6F090EDC6F610E8A
:10392800DD6F9E0EDE6F610EDF6F8C0EE06F020E94
:10393800E16F990EE26F020EE36FAE0EE46F610E57
:10394800E56F6D0EE66F610EE76F2C0EE86F610E86
:10395800E96F810EEA6F020EEB6F8E0EEC6F610E4F
:10396800ED6F2DEC0BF09C0E0001916F010E926F24
:1039780086EC28F00DD09C0EC06F010EC16FC90EE9
:10398800C26F020EC36F080EC46F8AEC0EF0EBD73D
:103998008186FFEC29F0E8EC28F0120020EE04F014
:1039A8008851D9268951DA22DECF1FF0DDCF20F0E9
:1039B80088C0D9FF89C0DAFFDECF21F0DDCF22F041
:1039C800D5EC26F000018E6F8E51D8A477D020EE6A
:1039D80002F08851D9268951DA22DFAA6FD020EE69
:1039E80016F08851D9268951DA22DECF73F0DECF5E
:1039F80074F0DECF75F0DECF76F097EC18F00009A2
:103A0800D8A402D0080E120020EE1AF08851D92648
:103A18008951DA22DECF8FF0DDCF90F020EE0BF067
:103A28008F51D9269051DA22000EDB8A20EE0AF057
:103A38008851D9268951DA2210EE1CF08F51E126DF
:103A48009051E222DECFE6FFDECFE6FFDECFE6FFD3
:103A5800DECFE6FF20EE0EF08851D9268951DA2212
:103A680010EE1AF08F51E1269051E222DECFE6FFE8
:103A7800DDCFE5FF91EC1BF01DC08AF01EC08BF076
:103A88001FC08CF020C08DF020EE16F08F51D92683
:103A98009051DA228AC0DEFF8BC0DEFF8CC0DEFFC9
:103AA8008DC0DEFF20EE02F08851D9268951DA2236
:103AB800DF0EDF163CEC26F000018E6F8E511200EF
:103AC8000A0EA1EC27F027C02CF028C02DF029C041
:103AD8002EF02AC02FF0090ED8902C362D362E360F
:103AE8002F36E82EF9D72CC061F02DC062F02EC019
:103AF80063F02FC064F02704281029102A10D8B4C6
:103B08001CD00A0EA1EC27F061C01EF062C01FF0A5
:103B180063C020F064C021F0000E226E520E92ECB9
:103B280025F0F3EC29F0EDEC29F00001676F6751FF
:103B3800D8A4F9D7F3EC29F01ED00A0EA1EC27F08F
:103B480027C01EF028C01FF029C020F02AC021F08D
:103B5800000E226E510E92EC25F0F3EC29F0EDECFC
:103B680029F00001676F6751D8B4E4D7F8D7EDECB6
:103B780029F00001676FFE0E00016719D8A4F7D776
:103B8800000E666F000E656F0CD065512524D96E46
:103B980066512620DA6EEDEC29F0DF6E0001654BE8
:103BA800662B66BFF2D7020E665DD8A0EED70A0E66
:103BB800A1EC27F0000E1E6E000E1F6E000E206E88
:103BC800000E216E000E226E4C0E92EC25F0F3ECE6
:103BD80029F0EDEC29F00001676F6729D8A4F9D71F
:103BE800000E12000600E1CF0EF0E2CF0FF0D9CFA1
:103BF80010F0DACF11F0F3CF12F0F4CF13F0F6CFC4
:103C080014F0F7CF15F0F8CF16F0F5CF17F09DBAEE
:103C18009EAA14D09E9AC6EC29F03F6E3F50A3ECA2
:103C280011F081B403D00C6A0C2A01D00C6A0C463E
:103C38000C4681500C18FB0B0C18816EF2B4F2A4E0
:103C480043D0F294010E3E6E000E186E1850020D0D
:103C5800000EF324D96E010EF420DA6EDE50DE1069
:103C6800D8B40BD01850020D000EF324D96E010EF3
:103C7800F420DA6EDE06000EDD5A182A030E1864E8
:103C8800E5D737503810D8B403D03706D8A038064F
:103C980035503610D8B403D03506D8A036063D04C2
:103CA800D8A40CD001011807D8A019071851191168
:103CB800D8A404D0000EFA6E000EF96E000E026E43
:103CC800450E016E19EC2AF0F2B2F2A801D0F29278
:103CD80017C0F5FF16C0F8FF15C0F7FF14C0F6FFB0
:103CE80013C0F4FF12C0F3FF11C0DAFF10C0D9FFF0
:103CF8000FC0E2FF0EC0E1FF4792110027C02BF072
:103D080028C02CF029C02DF02AC02EF0060ED8901D
:103D18002B362C362D362E36E82EF9D72B500008A8
:103D2800196E6C0E2C541A6EDC0E2D541B6E020E7E
:103D38002E541C6E27C02FF028C030F029C031F057
:103D48002AC032F0060ED8902F3630363136323649
:103D5800E82EF9D72FC01DF030C01EF031C01FF07B
:103D680032C020F0F5EC1FF019C060F01AC061F005
:103D780000016105D8A03BD027C02BF028C02CF04B
:103D880029C02DF02AC02EF0040ED8902B362C36E0
:103D98002D362E36E82EF9D72B500008196E6C0EEA
:103DA8002C541A6EDC0E2D541B6E020E2E541C6EF3
:103DB80027C02FF028C030F029C031F02AC032F0D7
:103DC800040ED8902F36303631363236E82EF9D7F1
:103DD8002FC01DF030C01EF031C01FF032C020F0DF
:103DE800F5EC1FF019C060F01AC061F0AC84000156
:103DF8006105D8B0120060C0AFFFAC98AB8E948E4E
:103E0800949CAB88AC8A12001F6E1DC019F01EC0AE
:103E18001AF09BEC28F01950206E6BD0000E216E22
:103E28001DC0D9FF1EC0DAFF810E2124E16EE26AAF
:103E3800020EE222DFCFE7FF1D4A1E2A212A050EC5
:103E48002164EED71200000E216E1DC0D9FF1EC0DE
:103E5800DAFF7A0E2124E16EE26A020EE222DFCF57
:103E6800E7FF1D4A1E2A212A050E2164EED71200FB
:103E7800000E216E1DC0D9FF1EC0DAFF8C0E212452
:103E8800E16EE26A020EE222DFCFE7FF1D4A1E2A38
:103E9800212A0C0E2164EED71200000E216E1DC0DF
:103EA800D9FF1EC0DAFF990E2124E16EE26A020EE4
:103EB800E222DFCFE7FF1D4A1E2A212A0C0E2164C9
:103EC800EED71200000E216E0FD01DC0D9FF1EC004
:103ED800DAFF990E2124E16EE26A020EE222DFCFB8
:103EE800E7FF1D4A1E2A212A2050215CD8B0120063
:103EF800ECD71F50000AD8B491D7010AD8B4A3D779
:103F0800030AD8B4B5D7010AD8B4C7D7070AD8A4C2
:103F18001200D8D702D01F4A202A1FC0D9FF20C0BC
:103F2800DAFF200EDE18D8B4F6D71FC0D9FF20C09C
:103F3800DAFF090EDE18D8B4EED7000E256E000E93
:103F4800246E000E236E1FC0D9FF20C0DAFF2D0E8D
:103F5800DE18D8A402D0232A08D01FC0D9FF20C059
:103F6800DAFF2B0EDE18D8A41ED01F4A202A1BD039
:103F780024C019F025C01AF0000E1C6E0A0E1B6E24
:103F8800C3EC28F01FC0D9FF20C0DAFFDF50216E34
:103F980021501926000E1A22D00E1924246EFF0E65
:103FA8001A20256EE2D71FC0D9FF20C0DAFFDF50E4
:103FB8006EEC29F0D8B0DCD72350D8B40DD024C08B
:103FC80021F025C022F0211E221E214A222A21C0CA
:103FD8001FF022C020F0120024C01FF025C020F0DE
:103FE8001200000E226E20AE0AD0201E1F1E1E1EBA
:103FF8001D6C000E1E221F222022010E226E1CAEF6
:104008000AD01C1E1B1E1A1E196C000E1A221B2217
:104018001C22010E221A000E236E000E246E000EC2
:10402800256E000E266E1D501E101F102010D8B4CD
:104038002AD0010E216E06D0D8901D361E361F36A6
:104048002036212A20AEF8D7D890233624362536B4
:1040580026361D50195C1E501A581F501B582050E8
:104068001C58D8A009D01D50195E1E501A5A1F504E
:104078001B5A20501C5A2380D89020321F321E32DF
:104088001D32212EE1D72250D8B408D0261E251E75
:10409800241E236C000E24222522262223C019F078
:1040A80024C01AF025C01BF026C01CF0120039C02D
:1040B8002EF03AC02FF0020E255E000E265AFE0E94
:1040C800296EFF0E2A6E20EE16F02E50D9262F509C
:1040D800DA22DECF2BF0DDCF2CF029502B262A5008
:1040E8002C222B50255C2C502658D8A009D0000E25
:1040F800256E000E266E000E276E000E286E12002A
:1041080020EE10F02E50D9262F50DA22DECF29F0DB
:10411800DECF2AF0DECF2BF0DECF2CF025C019F051
:1041280026C01AF01B6A1C6A20EE1DF02E50D926F4
:104138002F50DA22DF502D6E2D501D6E1E6A1F6A19
:10414800206ABFEC25F029501924256E2A501A2020
:10415800266E2B501B20276E2C501C20286E120018
:10416800000E0001F56FF551020D100EF324D96E03
:10417800010EF420DA6EDE50DE10D8B43FD0F551CF
:10418800020D000EF324D96E010EF420DA6EDE5013
:10419800DE10D8A433D0010E3D6E1B0E0101196F3D
:1041A800580E186F0001F551020D100EF324D96E48
:1041B800010EF420DA6E01D80AD00500FA6EDE503E
:1041C800FD6EDE50FE6EF850FF6EFA501200000EC3
:1041D8003D6E0001F551020D080EF324D96E010E53
:1041E800F420DA6EF551020D000EF324E16E010E93
:1041F800F420E26EDECFE6FFDDCFE5FFF52B030E00
:10420800F565B1D71200BC0EF66E470EF76E000EBC
:10421800F86E02EE00F010EE7AF00900F5CFEEFF2E
:10422800E550E150FAE1440EF66E540EF76E000EBA
:10423800F86E01EEF4F010EE07F00900F5CFEEFF8E
:10424800E550E150FAE14E0EF66E540EF76E000E90
:10425800F86E0900F5CF46F003EE22F012EE20F0DA
:10426800EE6AE550E150FCE1E250FAE102EE7AF044
:10427800780EEE6AE806FDE101EE00F0F40EEE6A53
:10428800E806FDE100EEF6F0080EEE6AE806FDE14C
:1042980000EE33F0130EEE6AE806FDE14790479210
:1042A800000EF86E00015AEF28F0959495929590BB
:1042B8009598959A959C959E839483928390839ED6
:1042C800839C838A8388EA0E1C6EC30EE82EFED771
:1042D8001C2EFCD700F083807DEC29F083907DECC8
:1042E80029F04E0E1C6EEB0EE82EFED71C2EFCD7C6
:1042F80000F083807DEC29F083907DEC29F04E0E50
:104308001C6EEB0EE82EFED71C2EFCD700F0838027
:104318007DEC29F083907DEC29F0839E839C838A31
:10432800839883807DEC29F083907DEC29F0280E1A
:10433800D1EC22F0060ED1EC22F00E0ED1EC22F0D8
:10434800010ED1EC22F0120039C0A6F03AC0A7F055
:1043580035D0A0C031F0A1C032F0ABEC16F031C0BE
:10436800A4F032C0A5F0A405A511D8A402D0000E6F
:104378001200A0C088F0A1C089F0000E8B6F000E5B
:104388008A6F78EC15F00009D8B4F1D720EE1AF04E
:10439800A651D926A751DA22DE2803E1DE28D8B4AF
:1043A80009D020EE1AF0A651D926A751DA22DE2A22
:1043B800000EDD22A4C0A0F0A5C0A1F0A15104E127
:1043C800020EA05DD8A00CD020EE16F0A651D9267A
:1043D800A751DA22DE50A05DDE50A159D8A0B9D786
:1043E800010E120021C025F022C026F025C019F0C8
:1043F80026C01AF023C01BF024C01CF0EAEC25F0FC
:1044080019C025F01AC026F0202A25502610D8A455
:10441800EDD72050D96EDA6A000EDF6E200621C073
:1044280019F022C01AF023C01BF024C01CF060EC65
:1044380027F01950276E21C019F022C01AF023C0A6
:104448001BF024C01CF0EAEC25F019C021F01AC0BA
:1044580022F0090E276402D0070E2726300E2726E1
:104468002050D96EDA6A27C0DFFF200621502210BB
:10447800D8A4D5D7202A12003BD019C0D9FF1AC01A
:10448800DAFFDF501F6E1BC0F6FF1CC0F7FFF86A8B
:10449800070EF76403D00800F55005D0F6CFE1FF0A
:1044A800F7CFE2FFE7501F18D8B41ED019C0D9FFC4
:1044B8001AC0DAFFDF501F6E1BC0F6FF1CC0F7FFE3
:1044C800F86A070EF76403D00800F55005D0F6CF58
:1044D800E1FFF7CFE2FFE750206E20501F5C196E16
:1044E8001A6AD8A01A061200194A1A2A1B4A1C2A44
:1044F8001D06D8A01E061D28C0E11E28D8A4BDD7B9
:10450800000E1A6E000E196E1200000E2A6E000EB2
:10451800296E000E286E000E276E000E1E6E000E0D
:104528001F6E000E206E000E216E950E226E400E3C
:1045380092EC25F0F3EC29F0EDEC29F02B6E294AEA
:104548002A2A2B04D8B408D02ABEF6D72A5004E168
:104558000A0E295CD8A0F0D7000E2A6E000E296E2C
:104568002B04D8B416D0000E1C6E010E63EC25F097
:10457800110E1C6E620E1D6E13EC26F0000E1C6EE2
:10458800020E63EC25F0BE0E1C6E610E1D6E13EC60
:1045980026F02B04D8B41200C0D71B6E83948392E4
:1045A80083901BA802D0838801D083981BAA02D0CD
:1045B800838A01D0839A1BAC02D0838C01D0839C60
:1045C8001BAE02D0838E01D0839E83807DEC29F0C0
:1045D80083907DEC29F01BA002D0838801D08398BA
:1045E8001BA202D0838A01D0839A1BA402D0838C99
:1045F80001D0839C1BA602D0838E01D0839E83802A
:104608007DEC29F083907DEC29F01B04D8B408D008
:10461800020E1B18D8B404D0030E1B18D8A412001D
:104628007DEC29F01200000E0001D96F000ED86F42
:1046380027D0D3C0F6FFD4C0F7FFF86A070EF76497
:1046480003D00800F55005D0F6CFE1FFF7CFE2FF21
:10465800E7500001D76FD751CC6FCD6BD5C0CEF0E6
:10466800D6C0CFF081EC27F0CC2906E1CD29D8A41B
:1046780003D0D369D4691200D34BD42BD84BD92B90
:10468800D3C0F6FFD4C0F7FFF86A070EF76403D06B
:104698000800F55005D0F6CFE1FFF7CFE2FFE7506D
:1046A8000009D8A4C6D7D8C0D3F0D9C0D4F0120016
:1046B80039C077F03AC078F0200E7725686F000E81
:1046C8007821696F73C06AF074C06BF075C06CF0C4
:1046D80076C06DF0010E6E6F000E8FEC24F00009AD
:1046E800D8B402D0020E120022EE1EF07751D9265D
:1046F8007851DA22550EDE18F5E1AA0EDE18D8A494
:10470800F1D7560E7725196E000E78211A6E750EA0
:104718001B6E620E1C6E000E1E6E030E1D6E40ECAC
:1047280022F019501A10D8A402D0000E1200010E5F
:104738001200000E216E000E226E000E236E000E77
:10474800246E1D501E101F102010D8B42AD0010E40
:10475800256E06D0D8901D361E361F362036252ADF
:1047680020AEF8D7D89021362236233624361D506D
:10477800195C1E501A581F501B5820501C58D8A09E
:1047880009D01D50195E1E501A5A1F501B5A20502E
:104798001C5A2180D89020321F321E321D32252EFD
:1047A800E1D721C019F022C01AF023C01BF024C0A1
:1047B8001CF012002D30343632392E373334373767
:1047C8002D30343632392E36383630312D303436B5
:1047D80032392E36383630312D30343632392E379C
:1047E800333437372D323334322E30373131322D9E
:1047F800323334322E30373131322D323334322E97
:1048080031313738342D323334322E313137383470
:104818002D30343632392E37333437372D3233345E
:10482800322E303731313230303030303000F80EFF
:10483800F66E600EF76E20EE60F0100E0900F5CFF0
:10484800DEFFE806FBE2E70EF66E600EF76E20EE7E
:1048580071F0100E0900F5CFDEFFE806FBE2000E4E
:104868001C6E010E63EC25F0600E1C6E1D6A13ECC5
:1048780026F0000E1C6E020E63EC25F0710E1C6E05
:104888001D6A13EC26F03D0E206EE10E1F6E400EE1
:10489800E82EFED71F2EFCD7202EFAD7010ED1EC1A
:1048A80022F012001B6E8394838283901BA802D08F
:1048B800838801D083981BAA02D0838A01D0839A67
:1048C8001BAC02D0838C01D0839C1BAE02D0838E9C
:1048D80001D0839E83807DEC29F083907DEC29F0C4
:1048E8001BA002D0838801D083981BA202D0838AA0
:1048F80001D0839A1BA402D0838C01D0839C1BA671
:1049080002D0838E01D0839E83807DEC29F0839032
:104918007DEC29F012006F6F29D068C025F069C0BE
:1049280026F06AC027F06BC028F06CC029F06DC073
:104938002AF06EC02BF064EC1DF0306E3050706FB2
:10494800716B70C072F07251120068C025F069C0B6
:1049580026F06AC027F06BC028F06CC029F06DC043
:104968002AF06EC02BF064EC1DF0E7D700016F5100
:10497800000AD8B4D2D7010AD8B4E7D7030AD8B402
:10498800E2D7040E12001B6E839483928390838E69
:104998001BA802D0838801D083981BAA02D0838ADF
:1049A80001D0839A1BAC02D0838C01D0839C838076
:1049B8007DEC29F083907DEC29F01BA002D0838840
:1049C80001D083981BA202D0838A01D0839A1BA4AA
:1049D80002D0838C01D0839C1BA602D0838E01D089
:1049E800839E83807DEC29F083907DEC29F0120072
:1049F8004C0E0101106F540E116F640E126F530E9E
:104A0800136F120E146F000E156FD80E166F190E55
:104A1800176F000E096F640E086F000E0B6F640E9F
:104A28000A6F030E0D6FE80E0C6F000E0F6F640E09
:104A38000E6F000E016F640E006F000E036F640EA0
:104A4800026F030E056FE80E046F030E076FE80E82
:104A5800066F000E3D6E12001D501E101F10201014
:104A6800D8B424D0010E216E06D0D8901D361E363B
:104A78001F362036212A20AEF8D71D50195C1E504B
:104A88001A581F501B5820501C58D8A008D01D5029
:104A9800195E1E501A5A1F501B5A20501C5AD89083
:104AA80020321F321E321D32212EE7D719C019F0CD
:104AB8001AC01AF01BC01BF01CC01CF012001D6E9F
:104AC800110E1C6012001BD01CC01EF01E50C7EC3B
:104AD80024F022D01C50400F1E6E1E50C7EC24F04C
:104AE8001BD01C50140F1E6E1E50C7EC24F014D09F
:104AF8001C50540F1E6E1E50C7EC24F00DD01D50D4
:104B0800010AD8B4E1D7030AD8B4E4D7010AD8B463
:104B1800E8D7070AD8B4ECD71C2A1200236EF7ECA2
:104B280027F0FF0AD8A404D008D00A0EA1EC27F079
:104B3800F7EC27F0FF0AD8A4F8D7FF0ED7EC29F036
:104B48002350D7EC29F021C024F02450D7EC29F0C9
:104B580020C024F02450D7EC29F01FC024F02450A2
:104B6800D7EC29F01EC024F02450D7EC29F02250AD
:104B7800D7EC29F01200000E216E000E226E000EF6
:104B8800236E000E246E19A008D01D5021261E5039
:104B980022221F50232220502422D8901D361E3650
:104BA8001F362036D8901C321B321A32193219504F
:104BB8001A101B101C10D8A4E6D721C019F022C067
:104BC8001AF023C01BF024C01CF01200000E1F6E48
:104BD800000E1E6E1B501C10D8B41CD0010E1D6E8A
:104BE80004D0D8901B361C361D2A1CAEFAD7D89094
:104BF8001E361F361B50195C1C501A58D8A005D0F9
:104C08001B50195E1C501A5A1E80D8901C321B3239
:104C18001D2EEDD71EC019F01FC01AF0120014D0B7
:104C28001CC0F6FF1DC0F7FFF86A070EF76403D033
:104C38000800F55005D0F6CFE1FFF7CFE2FFE750C7
:104C480056EC24F01C4A1D2A1CC0F6FF1DC0F7FFB5
:104C5800F86A070EF76403D00800F55005D0F6CFC0
:104C6800E1FFF7CFE2FFE7500009D8B41200D8D728
:104C780039C031F03AC032F020EE1FF03150D92659
:104C88003250DA22010EDF6E000E736F000E746F61
:104C9800000E756F000E766F97EC18F00009D8A417
:104CA80002D0080E1200000E196E000E1A6E000EC9
:104CB8001B6E000E5EEC29F00009D8A4F2D7000E96
:104CC80012006F6F18D068C025F069C026F06AC05E
:104CD80027F06BC028F06CC029F06DC02AF06EC0B8
:104CE8002BF0BCEC17F0306E3050706F716B70C0E9
:104CF80072F07251120000016F51000AD8B4E3D764
:104D0800010AD8B4E0D7030AD8B4F3D7040E1200C6
:104D180004D0014A022A034A042A03C0F6FF04C049
:104D2800F7FF0800F5CF05F001C0D9FF02C0DAFF90
:104D3800DF50066E0550065C076E0750D8A407D0F2
:104D480001C0D9FF02C0DAFFDF50D8A4E2D707506C
:104D5800016E026A01BE020612001B6E1B50D8B417
:104D680002D0050E120039503A10D8B408D020EEFF
:104D78001CF03950D9263A50DA22000EDF6E19C0DD
:104D880039F01AC03AF019501A10D8B408D020EEE9
:104D98001CF01950D9261A50DA22000EDF6E000EC8
:104DA80012001F502010D8B414D020EE1CF01F5051
:104DB800D9262050DA22DF50D8B40BD01FC0D9FF33
:104DC80020C0DAFF2150DE1804E12250DE18D8B4E2
:104DD80002D00C0E1200000E2BEC28F0236E23A03C
:104DE80002D0010E1200000E1200000E096E0950CA
:104DF8000124D96E000E0220DA6E09500324076ED2
:104E0800000E0420086E05500724E16E06500820A5
:104E1800E26EDFCFE7FF092A0904076E0750012475
:104E2800D96E000E0220DA6EDF50D8B41200DFD738
:104E380019C01DF01AC01EF002D01D4A1E2A1DC03E
:104E4800D9FF1EC0DAFFDF50D8B405D0F6D71D4A07
:104E58001E2A1B4A1C2A1BC0F6FF1CC0F7FF1DC0D8
:104E6800D9FF1EC0DAFF0800F5CFDFFFDF50D8B446
:104E78001200EDD71BC022F01CC023F019C020F08F
:104E88001AC021F010D022C0D9FF23C0DAFFDF50AA
:104E98001F6E224A232A20C0D9FF21C0DAFF1FC073
:104EA800DFFF204A212A1D06D8A01E061D28EBE197
:104EB8001E28D8B41200E7D71B501C10D8B418D03D
:104EC800010E1D6E04D0D8901B361C361D2A1CAE50
:104ED800FAD71B50195C1C501A58D8A004D01B5084
:104EE800195E1C501A5AD8901C321B321D2EF1D74D
:104EF80019C019F01AC01AF01200CE51CF11D8A457
:104F080005D0CCC0CCF0CDC0CDF01200CCC0D0F0D4
:104F1800CEC0AEF0CFC0AFF0D00EB06F000EB26F03
:104F2800010EB16FD10EB36F7FEC03F0D151D211E6
:104F3800D8A4E7D7CC69CD6912001B6E100E196E84
:104F4800940EE82EFED7192EFCD700D0000E1D6E49
:104F5800000E1C6E06D08A88F9EC29F08A981C4A43
:104F68001D2A1B50196E1A6A19501C5C1A501D58BC
:104F7800D8B01200F0D7C40E1D6E010E1E6E000EC2
:104F880008EC1FF0D60E1D6E010E1E6E010E08EC09
:104F98001FF0E50E1D6E020E1E6E020E08EC1FF0CD
:104FA800D80E1D6E020E1E6E030E08EC1FF01200C6
:104FB80021EEF4F010EE60F0060EDBCFE3FFE8061A
:104FC800FCE2600E286E2EC029F02FC02AF0000ED9
:104FD8002C6E0A0E2B6E12EC28F0600E1C6E1D6AE9
:104FE80013EC26F01200FF0E196E7F0E1A6E000EDB
:104FF8001B6E000E1C6EF9EC29F01D6E1D28D8B42E
:105008000BD01906000E1A5A1B5A1C5A19501A109E
:105018001B101C10D8A4EFD71D5012002AAE0AD0BE
:105028002850D96EDA6A2D0EDF6E282A296C2A1EBE
:10503800D8B02A2A28C020F029C021F02AC022F09E
:105048002BC023F02CC024F0F6EC21F012001D6ECA
:105058000AD01D50CFEC29F01E6E1E5012001D50B4
:10506800CFEC29F0FAD71D50000AD8B4F2D7010ABC
:10507800D8B4F5D7030AD8B4F0D7010E120019C076
:105088001DF01AC01EF004D01D4A1E2A1B4A1C2AF5
:105098001BC0D9FF1CC0DAFF1DC0E1FF1EC0E2FF24
:1050A800DFCFE7FFE750D8B41200EED7A7EC29F01E
:1050B800D59E59EC21F01BEC24F0FCEC24F0E8EC34
:1050C80028F0D58E3E04D8A404D0000E3E6EB4EC71
:1050D80020F0BFEC27F0F6D719C01FF01AC020F057
:1050E80008D01FC0D9FF20C0DAFF1BC0DFFF1F4A4E
:1050F800202A1D06D8A01E061D28F3E11E28D8B4B4
:105108001200EFD791C088F092C089F0D2EC1CF061
:10511800936F9351D8A4120020EE04F09151D92630
:105128009251DA22000EDE6E000EDD6E120019C0FA
:105138001BF01AC01CF002D01B4A1C2A1BC0D9FF46
:105148001CC0DAFFDF50D8A4F7D719501B5C196EC2
:105158001A501C581A6E12002D6E05D023EC10F050
:105168002E6E2E5012002D50000AD8B4F7D7010A1F
:10517800D8B4F4D7030AD8B4F4D7010E12001950E2
:105188001B02F3CF1DF0F4CF1EF019501C02F35090
:105198001E261A501B02F3501E261DC019F01EC0F1
:1051A8001AF012000101C4510A0DF3CF1BF0F4CF1D
:1051B8001CF0C5511B26000E1C22F00E1B24196E74
:1051C800FD0E1C201A6E1200949C949E800E276E71
:1051D800250E286E000E296E000E2A6E82EC1EF037
:1051E800200EAC6E900EAB6E1200DA510A0DF3CFA2
:1051F8001BF0F4CF1CF0DB511B26000E1C22F00E16
:105208001B24196EFD0E1C201A6E1200C8510A0DBF
:10521800F3CF1BF0F4CF1CF0C9511B26000E1C2243
:10522800F00E1B24196EFD0E1C201A6E1200D851A8
:105238000A0DF3CF1BF0F4CF1CF0D9511B26000E3A
:105248001C22F00E1B24196EFD0E1C201A6E120073
:10525800C6510A0DF3CF1BF0F4CF1CF0C7511B2623
:10526800000E1C22F00E1B24196EFD0E1C201A6E57
:105278001200D6510A0DF3CF1BF0F4CF1CF0D75112
:105288001B26000E1C22F00E1B24196EFD0E1C207E
:105298001A6E1200939293989380949E8A883F0E78
:1052A800C716000EC66EC79EC78CC698030EC66E7C
:1052B800C68A12001C6E02D01D5012001C50000A33
:1052C800D8B4FAD7010AD8B4F7D7030AD8B4F4D7B0
:1052D800040E12001B6E000E1A6E3A0E1B6005D0EB
:1052E8002F0E1B6402D0010E1A6E1AC019F0193065
:1052F8001200000E196E00F0000E1A6E00F01A2A45
:10530800310E1A64FBD7192A630E1964F4D71200F8
:105318000F0EC16E010E936E8A68000E956E070E11
:10532800926E110E946E030E966E1200C50ED56E17
:10533800000E656E000E636E000E1A6E450E196E35
:1053480005EC2AF012001EEC2AF08CEC29F09AECFD
:1053580029F0DFEC29F0BDEC29F0120037503810A5
:10536800D8A412003CEC1CF0030E386EE80E376E21
:105378001200B00EF26E000EF16E000EF06E280EE6
:105388009D6E12009EAAFED7ABA203D0AB9800F088
:10539800AB88AE5012001A6E1A50D8B402D0010E63
:1053A8001200000E12001A6EC9509E961AC0C9FF4C
:1053B8009EB61200FDD7040ECA6E000ECC6E010E0A
:1053C800CB6E1200948C948E000EAC6E000EAB6EF9
:1053D80012008A98F9EC29F0196E195012008A986F
:1053E800FF0ED7EC29F08A881200C968C790C7A0B9
:1053F800FED7C9501200000EC76E000EC66EC69AC0
:10540800120019C0D6FF1AC0D7FF1200D80E196EA5
:10541800020E1A6E1200E50E196E020E1A6E1200B6
:10542800F20E196E010E1A6E120001C0D6FF02C0EC
:10543800D7FF1200D388D38AD38C12003030303093
:0354480030300001
:03544C00120058F3
:1060E600005443432D2D54454C454D5452494100CF
:1060F6000000464154454320535420414E445245E6
:106106000000000A7625733B6C7425733B6C6F2583
:10611600733B7225733B6325733B6B25733B682585
:10612600733B64257300737472696E675F646164A0
:106136006F2E6F646F6D6574726F5F746F74616CD0
:10614600006F2053697374656D6120646520617208
:10615600717569766F0042313A52504D20204232B5
:106166003A46454E434500737472696E675F6461D3
:10617600646F2E636F6D620042313A52504D204279
:10618600323A46454E434500737472696E675F64E2
:1061960061646F2E64746300737472696E675F6402
:1061A60061646F2E76656C00737472696E675F64E6
:1061B60061646F2E72706D00496E73697261206F33
:1061C6002043617274616F004572726F20616F20A7
:1061D6006D6F6E7461720052454749414F204E45BE
:1061E60047414441004572726F20616F20637269B6
:1061F60061720065787466656E63652E74787400E6
:106206004D4D43205665722E20330053656D204355
:10621600617274616F0056657269666971756500B1
:106226006F206172717569766F005344205645522E
:106236002E2031006F2063617274616F0042323A22
:10624600484F4D45004C4F2D4C543A004750474758
:1062560041004750524D430056454C3A0052504D6E
:106266003A002E746C6D006C6F3A006C743A0046FE
:096276004154000D0A002D000046
:020000040020DA
:08000000FFFFFFFFFFFFFFFF00
:020000040030CA
:0E00000000051F1FFF8385FF0FC00FE00F409C
:00000001FF
