:0400000007EF00F016
:100008004682BCED1FF08DEF27F0A1C0D9FFA2C03A
:10001800DAFF000EDE6E000EDD6EA3C01AF0A4C07B
:100028001BF0D3EC1DF01AC020F21BC021F2020114
:1000380021AF02D00B0E1200D8902035D96E213591
:10004800DA6EF50ED926000EDA22DECF38F2DDCFD1
:1000580039F238513911D8A402D00C0E1200A1C0BF
:10006800D9FFA2C0DAFF38C2DEFF39C2DDFF38C2CD
:10007800D9FF39C2DAFFDF50D8B418D020EE01F02A
:100088003851D9263951DA22DF5025EC2AF00201FD
:100098002C6F2CB10BD00001A551D8B405D00201AA
:1000A8002CA502D00A0E1200000E120038C2D9FF89
:1000B80039C2DAFF000EDF6E020120EE01F038517E
:1000C800D9263951DA2220C2DFFF20EE01F038515B
:1000D800D9263951DA22DF5063EC2AF002012C6F5D
:1000E8002CA102D0030E12000001A551D8B405D0EE
:1000F80002012CA502D00A0E1200000E0201316F77
:10010800000E326F000E336F000E346F38C297F056
:1001180039C298F031C299F032C29AF033C29BF0DA
:1001280034C29CF0CAEC20F00201376F3705D8A41E
:10013800BBD0000E366F000E356F365162E1040EEB
:10014800355DD8B05ED0EC0E0001A66F010EA76F2A
:1001580035C2A8F036C2A9F0A83BA93BF00EA917F2
:10016800A8510F0BA913F00EA817A651A827A7513D
:10017800A923A851020138251A6F0001A9510201CB
:1001880039211B6F20EE04F01A51D9261B51DA22AF
:10019800DF50D8A409D0000E106F000E116F000EAA
:1001A800126F000E136F0ED020EE08F01A51D926E8
:1001B8001B51DA22DECF10F2DECF11F2DECF12F2BF
:1001C800DECF13F2000E0001A66F020EA76FD890C3
:1001D80002013535D96E3635DA6ED890D936DA3629
:1001E8000001A651D926A751DA2210C2DEFF11C29A
:1001F800DEFF12C2DEFF13C2DEFF0201354B362BD3
:100208009CD7000E366F000E356F35513611D8B4B5
:1002180003D03507D8A03607000E0001A66F020EDE
:10022800A76FD89002013535D96E3635DA6ED89079
:10023800D936DA360001A651D926A751DA22DECFFF
:1002480031F2DECF32F2DECF33F2DECF34F202010A
:100258003151321133113411D8A405D0000E156F65
:10026800020E146F14D038C297F039C298F031C218
:1002780099F032C29AF033C29BF034C29CF0CAECB7
:1002880020F00001A66FA6510201146F156B14C26D
:1002980037F23751D8B408D0354B362B365104E1F4
:1002A800040E355DD8A0B8D7030E3719D8A402D0EC
:1002B800010E12003751D8B402D00D0E120020EEF4
:1002C80039F03851D9263951DA22DE5004E1020ECC
:1002D800DE18D8B402D00D0E120020EE44F03851CA
:1002E800D9263951DA22DECFA6F0DDCFA7F0A6C095
:1002F8002DF2A7C02EF22F6B306B2D512E112F111E
:100308003011D8A40ED020EE52F03851D9263951E8
:10031800DA22DECF2DF2DECF2EF2DECF2FF2DECFC5
:1003280030F220EE16F03851D9263951DA222DC292
:10033800DEFF2EC2DEFF2FC2DEFF30C2DEFF20EE60
:100348003EF03851D9263951DA2210EE03F03851EF
:10035800E1263951E222DFCFE7FF20EE03F03851E2
:10036800D9263951DA22DE04D8B40CD020EE03F0B5
:100378003851D9263951DA22020EDE18D8B402D003
:100388000D0E12002DC21AF02EC21BF02FC21CF047
:1003980030C21DF020EE03F03851D9263951DA2247
:1003A800DF500001A66FA6511E6E1F6A206A216ADF
:1003B80003EC29F01AC02DF21BC02EF21CC02FF23C
:1003C8001DC030F2020120EE3BF03851D9263951D8
:1003D800DA2210EE02F03851E1263951E222DFCF5D
:1003E800E7FF20EE02F03851D9263951DA22DF50E2
:1003F800D8B426D0FF0E0001A66FFF0EA76F02012A
:1004080020EE02F03851D9263951DA22DF500001A6
:10041800A86FA96BA651A827A751A923020120EE0E
:1004280002F03851D9263951DA22DF500001AA6F7B
:10043800AA51A817000EA917A851A911D8B402D01B
:100448000D0E1200020120EE3FF03851D926395125
:10045800DA2210EE08F03851E1263951E222DECFD7
:10046800E6FFDDCFE5FF20EE08F03851D9263951F7
:10047800DA22DECFA6F0DDCFA7F00F0E0001A61717
:10048800000EA717A651A711D8B402D00D0E12005E
:10049800020120EE41F03851D9263951DA22DECF57
:1004A800A6F0DDCFA7F0A6C024F2A7C025F2266BE0
:1004B800276B2451251126112711D8A40ED020EE20
:1004C8004EF03851D9263951DA22DECF24F2DECF68
:1004D80025F2DECF26F2DECF27F220EE3CF03851AF
:1004E800D9263951DA22DECF22F2DDCF23F222518A
:1004F8002311D8A402D00D0E120020EE08F03851B6
:10050800D9263951DA22DECFA6F0DDCFA7F0040EC6
:100518000001A86FD890A733A633A82FFBD70201F4
:1005280022510001A625A96F020123510001A7212C
:10053800AA6FAB6BD8B0AB2BAC6B02012D5100018D
:10054800A92502011C6F2E510001AA2102011D6F6D
:100558002F510001AB2102011E6F30510001AC2167
:1005680002011F6F1C51245D1D5125591E5126592A
:100578001F512759D8B002D00D0E12001CC2A6F088
:100588001DC2A7F01EC2A8F01FC2A9F00001A61F35
:10059800A71FA81FA91FA62B000EA723A823A923BE
:1005A800020124510001A6251A6E020125510001FD
:1005B800A7211B6E020126510001A8211C6E020111
:1005C80027510001A9211D6E020120EE02F03851C9
:1005D800D9263951DA22DF500001AA6FAA511E6EBE
:1005E8001F6A206A216A94EC26F01AC028F21BC000
:1005F80029F21CC02AF21DC02BF202012851291130
:100608002A112B11D8A402D00D0E1200010E376F3B
:100618002B512A1106E1F60E285D0F0E2959D8A094
:1006280002D0020E376F2B512A1106E1F60E285D13
:10063800FF0E2959D8A002D0030E376F020E2825C5
:100648000001A66F000E020129210001A76F000E0C
:1006580002012A210001A86F000E02012B210001CE
:10066800A96F020120EE12F03851D9263951DA2249
:10067800A6C0DEFFA7C0DEFFA8C0DEFFA9C0DEFF60
:1006880020EE1AF03851D9263951DA2231C2DEFF6C
:1006980032C2DEFF33C2DEFF34C2DEFF2251312513
:1006A8000001A66F0201235132210001A76F000E3D
:1006B800020133210001A86F000E0201342100015C
:1006C800A96F020120EE1EF03851D9263951DA22DD
:1006D800A6C0DEFFA7C0DEFFA8C0DEFFA9C0DEFF00
:1006E8001C5131250001A66F02011D513221000164
:1006F800A76F02011E5133210001A86F02011F518B
:1007080034210001A96F020120EE26F03851D926C4
:100718003951DA22A6C0DEFFA7C0DEFFA8C0DEFF7F
:10072800A9C0DEFF030E3719D8A440D020EE08F088
:100738003851D9263951DA22DE50DE10D8B402D029
:100748000D0E120020EE5AF03851D9263951DA220E
:1007580010EE22F03851E1263951E222DECFE6FFD1
:10076800DECFE6FFDECFE6FFDECFE6FF20EE12F0BB
:100778003851D9263951DA22DECFA6F0DECFA7F0DC
:10078800DECFA8F0DECFA9F0020ED8900001A63780
:10079800A737A837A937E82EF8D7A6C016F2A7C0FA
:1007A80017F2A8C018F2A9C019F2ACD0020120EEC5
:1007B80008F03851D9263951DA22DE50DE10D8A493
:1007C80002D00D0E120020EE1EF03851D9263951F4
:1007D800DA22DECFA6F0DECFA7F0DECFA8F0DECF9C
:1007E800A9F02D510001A625AA6F02012E51000182
:1007F800A721AB6F02012F510001A821AC6F0201A4
:1008080030510001A921AD6F020120EE22F03851CC
:10081800D9263951DA22AAC0DEFFABC0DEFFACC050
:10082800DEFFADC0DEFF020E3719D8B44CD020EE83
:1008380012F03851D9263951DA22DECFA6F0DECFB0
:10084800A7F0DECFA8F0DECFA9F0010E0001A615B3
:10085800AA6F000EA715AB6F000EA815AC6F000E9F
:10086800A915AD6F020120EE12F03851D926395181
:10087800DA22DECF1AF0DECF1BF0DECF1CF0DECF9F
:100888001DF0030E1E6E000E1F6E000E206E000E71
:10089800216E03EC29F0D8901D321C321B321A321B
:1008A8000001AA511A240201166F0001AB511B2046
:1008B8000201176F0001AC511C200201186F0001E2
:1008C800AD511D201DD020EE12F03851D9263951D6
:1008D800DA22DECFA6F0DECFA7F0DECFA8F0DECF9B
:1008E800A9F0D8900001A6350201166F0001A735BE
:1008F8000201176F0001A8350201186F0001A93520
:100908000201196FFF0E020116250001A66F010EE4
:10091800020117210001A76F000E02011821000132
:10092800A86F000E020119210001A96F0A0E05D057
:10093800D890A933A833A733A633E82EF9D70201F4
:1009480020EE16F03851D9263951DA220001A65185
:10095800DE5CA751DE58A851DE58A951DE58D8B040
:1009680002D00D0E1200020120EE0EF03851D926E9
:100978003951DA22FF0EDE6EFF0EDE6EFF0EDE6EDE
:10098800FF0EDD6EDD52DD5210EE0AF03851E12621
:100998003951E222DECFE6FFDECFE6FFDECFE6FF0B
:1009A800DECFE6FF20EE05F03851D9263951DA229C
:1009B800800EDF6E030E3719D8A48AD020EE5EF0C1
:1009C8003851D9263951DA22DE04DE10D8A480D075
:1009D80038C28CF039C28DF0010E312500018E6FBE
:1009E800000E0201322100018F6F000E0201332137
:1009F8000001906F000E020134210001916FCAECD2
:100A080024F00009D8A464D0020120EE05F0385182
:100A1800D9263951DA22000EDF6E22EE2CF0385139
:100A2800D9263951DA22550EDE1852E1AA0EDE18FF
:100A3800D8A44ED020EE2EF03851D9263951DA22DA
:100A4800520EDE1845E1520EDE1842E1610EDE1844
:100A58003FE1410EDE18D8A43BD022EE12F0385107
:100A6800D9263951DA22720EDE1832E1720EDE18FA
:100A78002FE1410EDE182CE1610EDE18D8A428D033
:100A880022EE16F03851D9263951DA2210EE0EF03E
:100A98003851E1263951E222DECFE6FFDECFE6FF0C
:100AA800DECFE6FFDECFE6FF22EE1AF03851D92678
:100AB8003951DA2210EE0AF03851E1263951E22292
:100AC800DECFE6FFDECFE6FFDECFE6FFDECFE6FFD6
:100AD80038C2D9FF39C2DAFF37C2DFFF0001F34B52
:100AE800F42B020120EE06F03851D9263951DA22CA
:100AF800F3C0DEFFF4C0DDFF000E1200CBC0D0F162
:100B0800CCC0D1F1CFC0D9FFD0C0DAFF000EDE6E65
:100B1800000EDD6EC9C021F0CAC022F0C0EC25F07D
:100B28000101CF6FCF51D8A41200000120EE05F0CB
:100B3800C951D926CA51DA22DF50D8A4120020EEB2
:100B480004F0C951D926CA51DA22DFA2120020EED8
:100B580006F0C951D926CA51DA2210EE06F0C95159
:100B6800E126CA51E222E6CFD5F0E6CFD6F0E6CFAD
:100B7800D7F0E6CFD8F0CD51D525D96FCE51D621B3
:100B8800DA6F000ED721DB6F000ED821DC6FDE5044
:100B9800D95DDE50DA59DE50DB59DE50DC59D8B069
:100BA80071D3000ECE6F000ECD6F6CD320EE06F021
:100BB800C951D926CA51DA22FF0EDE14D16F010EAF
:100BC800DE14D26F000EDE14D36F000EDE14D46F65
:100BD800D151D211D311D411D8A4A5D220EE06F048
:100BE800C951D926CA51DA22DECFD1F0DECFD2F0F0
:100BF800DECFD3F0DECFD4F00A0E05D0D890D433B0
:100C0800D333D233D133E82EF9D7C9C0D9FFCAC0FC
:100C1800DAFF10EE02F0DE50E126DD50E222E75066
:100C2800D56FD505D1150101D26FD251D8A4ABD05B
:100C3800000120EE06F0C951D926CA51DA22DE5049
:100C4800DE10DE10DE10D8A429D020EE0EF0C95137
:100C5800D926CA51DA22DECFD9F1DECFDAF1DECFDA
:100C6800DBF1DECFDCF10101D951DA11DB11DC1146
:100C7800D8A435D0C9C0D9FFCAC0DAFFDECFB2F0D8
:100C8800DDCFB3F0000E0001B46F000EB56F000E9B
:100C9800B66F000EB76F4DEC16F019D0C9C0D9FF6A
:100CA800CAC0DAFFDECFB2F0DDCFB3F0000120EE2C
:100CB80012F0C951D926CA51DA22DECFB4F0DECFFC
:100CC800B5F0DECFB6F0DECFB7F04DEC16F0B2C01F
:100CD800D9F1B3C0DAF1B4C0DBF1B5C0DCF1010180
:100CE800D951DA11DB11DC11D8B4D0D2D905DA1117
:100CF800DB11DC11D8A40AD0000120EE05F0C9519F
:100D0800D926CA51DA22020EDF6E12000101D92952
:100D180011E1DA290FE1DB290DE1DC29D8A40AD099
:100D2800000120EE05F0C951D926CA51DA22010E78
:100D3800DF6E1200000120EE12F0C951D926CA5107
:100D4800DA22D9C1DEFFDAC1DEFFDBC1DEFFDCC19A
:100D5800DEFF20EE0EF0C951D926CA51DA22DE5044
:100D6800DE10DE10DE10D8A40ED020EE0EF0C95131
:100D7800D926CA51DA22D9C1DEFFDAC1DEFFDBC1CA
:100D8800DEFFDCC1DEFF000120EE16F0C951D926D6
:100D9800CA51DA22C9C0E1FFCAC0E2FF00EE2AF058
:100DA800E650E926E550EA22DE50EE1821E1DE5051
:100DB800EE181EE1DE50EE181BE1DE50EE18D8A446
:100DC80017D0C9C0D9FFCAC0DAFFDECF77F0DDCFB0
:100DD80078F071EC1CF00009D8B40AD0000120EEBC
:100DE80005F0C951D926CA51DA22010EDF6E120068
:100DF800C9C0D9FFCAC0DAFFDECF26F0DDCF27F0A1
:100E0800000120EE12F0C951D926CA51DA22DECFEC
:100E180028F0DECF29F0DECF2AF0DECF2BF003EC6E
:100E280023F026C0D5F127C0D6F128C0D7F129C0B4
:100E3800D8F10101D551D611D711D811D8A40AD0AB
:100E4800000120EE05F0C951D926CA51DA22020E56
:100E5800DF6E12000101D251D527000ED623D72309
:100E6800D823CDC0D1F0CEC0D2F0090E0001D36F87
:100E7800D890D233D133D32FFBD7D1C0D3F1D2C03E
:100E8800D4F10101D351D411D8B4FED0D251D32515
:100E98000001D16F000E0101D4210001D26FC9C039
:100EA800D9FFCAC0DAFF10EE02F0DE50E126DD50AD
:100EB800E222E750D36FD46BD151D35DD251D459CC
:100EC800D8B01ED00101D2510001D16FD26BD11F11
:100ED800D21FD14BD22BC9C0D9FFCAC0DAFF10EE3E
:100EE80002F0DE50E126DD50E222E750D36FD35105
:100EF800D1250101D36F000E0001D2210101D46F69
:100F0800D0C16CF0D1C16DF0D5C16EF0D6C16FF013
:100F1800D7C170F0D8C171F0D3C172F0C9C0D9FF80
:100F2800CAC0DAFF10EE01F0DE50E126DD50E22201
:100F3800E75050EC26F00009D8B40AD0000120EEA2
:100F480005F0C951D926CA51DA22010EDF6E120006
:100F58000101D3510001D16F0101D4510001D26FB9
:100F6800D36BD46BC9C0D9FFCAC0DAFF10EE2AF020
:100F7800DE50E126DD50E222E6CFD5F0E6CFD6F00E
:100F8800E6CFD7F0E6CFD8F0D5C1D9F0D6C1DAF0A0
:100F9800D7C1DBF0D8C1DCF0D91FDA1FDB1FDC1F9B
:100FA800D92B000EDA23DB23DC23D551D925DD6FBD
:100FB800D651DA21DE6FD751DB21DF6FD851DC2122
:100FC800E06FD151DD5DD251DE59D351DF59D45193
:100FD800E059D8B049D0C9C0D9FFCAC0DAFFDECFBE
:100FE800D1F0DDCFD2F02E0ED1251A6E000ED2210F
:100FF8001B6EC9C0D9FFCAC0DAFF10EE2AF0DE5056
:10100800E126DD50E222E6CFD3F0E5CFD4F0D5C11A
:10101800D5F0D6C1D6F0D51FD61FD54BD62BD35178
:10102800D527D451D623090ED890D537D637E82EF0
:10103800FBD7D5510101D0251C6E0001D651010105
:10104800D1211D6E020E1F6E000E1E6E62EC23F083
:10105800C9C0D9FFCAC0DAFF10EE04F0DE50E1269D
:10106800DD50E222000EE76ED3C1D1F0D4C1D2F038
:10107800090ED8900001D137D237E82EFAD7D1C05F
:10108800DDF1D2C0DEF1DBD0000120EE0AF0C9515B
:10109800D926CA51DA2210EE06F0C951E126CA5102
:1010A800E222DE50E65CDE50E658DE50E658DE50BE
:1010B800E658D8A029D0C9C0D9FFCAC0DAFFDECF08
:1010C80077F0DDCF78F071EC1CF00009D8B40AD0C5
:1010D800000120EE05F0C951D926CA51DA22010EC5
:1010E800DF6E1200C9C0D9FFCAC0DAFF10EE2AF0BD
:1010F800DE50E126DD50E222D5C1E6FFD6C1E6FF8B
:10110800D7C1E6FFD8C1E6FF000120EE16F0C951AD
:10111800D926CA51DA22D5C1DEFFD6C1DEFFD7C132
:10112800DEFFD8C1DEFFFF0ED16F010ED26F20EEB9
:1011380006F0C951D926CA51DA22DECFD3F0DDCF65
:10114800D4F0D151D317D251D417D31FD41FD34BB6
:10115800D42B000ED3250101DD6F020E0001D4212E
:101168000101DE6FDD510001CD5D0101DE5100019D
:10117800CE59D8B004D0CDC0DDF1CEC0DEF1C9C0A3
:10118800D9FFCAC0DAFFDECF8CF0DDCF8DF020EEBC
:1011980016F0C951D926CA51DA22DECF8EF0DECF39
:1011A8008FF0DECF90F0DECF91F0CAEC24F000098A
:1011B800D8B40AD0000120EE05F0C951D926CA5189
:1011C800DA22010EDF6E1200FF0E0001D16F010E50
:1011D800D26F20EE06F0C951D926CA51DA22DECFE5
:1011E800D3F0DDCFD4F0D151D317D251D4172E0E6E
:1011F800D327000ED423C9C0D9FFCAC0DAFFDECF77
:10120800D5F0DDCFD6F0D351D5251A6ED451D621DD
:101218001B6ED0C11CF0D1C11DF0DDC11EF0DEC1B6
:101228001FF062EC23F0C9C0D9FFCAC0DAFF10EE84
:1012380004F0DE50E126DD50E222010EE76E0101E6
:10124800DD51D027DE51D123000120EE06F0C9512F
:10125800D926CA51DA220101DD51DE26DE51DE220D
:10126800000EDE22DE22CFC0D9FFD0C0DAFFDD516A
:10127800DE26DE51DD22DD510001CD5F0101DE51A8
:101288000001CE5BCD51CE11D8A490D4000120EE40
:1012980006F0C951D926CA51DA2210EE0AF0C9510E
:1012A800E126CA51E222DE50E65CDE50E658DE5006
:1012B800E658DE50E658D8B014D020EE06F0C951F2
:1012C800D926CA51DA2210EE0AF0C951E126CA51CC
:1012D800E222DECFE6FFDECFE6FFDECFE6FFDECF9F
:1012E800E6FF20EE04F0C951D926CA51DA22000ED1
:1012F800DB8A1200C9C021F0CAC022F0C0EC25F078
:101308000101D36FD351D8B402D0D35112000001D8
:1013180020EE05F0C951D926CA51DA22DF50D8B4D7
:1013280008D020EE05F0C951D926CA51DA22DF507B
:10133800120020EE0AF0C951D926CA51DA22CB513F
:10134800DE5CCC51DE58CD51DE58CE51DE58D8B0D7
:1013580016D020EE04F0C951D926CA51DA22DFB2DC
:101368000ED020EE0AF0C951D926CA51DA22DECFB2
:10137800CBF0DECFCCF0DECFCDF0DECFCEF020EE5E
:1013880006F0C951D926CA51DA22DECFCFF1DECF15
:10139800D0F1DECFD1F1DECFD2F1000E0101D46F52
:1013A800000ED56F000ED66F000ED76F000120EE2D
:1013B80006F0C951D926CA51DA22D4C1DEFFD5C1F7
:1013C800DEFFD6C1DEFFD7C1DEFFCB51CC11CD1178
:1013D800CE11D8B481D2C9C0D9FFCAC0DAFF10EE85
:1013E80002F0DE50E126DD50E222E750CF6FCFC099
:1013F800D0F0D16BD26BD36B090ED890D037D137E0
:10140800D237D337E82EF9D7D0C0D8F1D1C0D9F127
:10141800D2C0DAF1D3C0DBF10101CF51D011D11123
:10142800D211D8B4A4D0FF0E0001CB251A6EFF0E3E
:10143800CC211B6EFF0ECD211C6EFF0ECE211D6E22
:10144800D8C11EF0D9C11FF0DAC120F0DBC121F0EC
:1014580094EC26F01AC0CFF01BC0D0F01CC0D1F01D
:101468001DC0D2F0FF0E0101CF251A6EFF0ED0214C
:101478001B6EFF0ED1211C6EFF0ED2211D6ED8C12E
:101488001EF0D9C11FF0DAC120F0DBC121F094ECC5
:1014980026F01A500001CF5D1B50D0591C50D1596D
:1014A8001D50D259D8A063D0FF0E0101D8250001E4
:1014B800CF6FFF0E0101D9210001D06FFF0E01018E
:1014C800DA210001D16FFF0E0101DB210001D26F8B
:1014D800CF1FD01FD11FD21FFF0E0101CF25000142
:1014E800D36FFF0E0101D0210001D46FFF0E01015F
:1014F800D1210001D56FFF0E0101D2210001D66F65
:10150800CF51D315D76FD051D415D86FD151D51528
:10151800D96FD251D615DA6F20EE06F0C951D92607
:10152800CA51DA22D7C0DEFFD8C0DEFFD9C0DEFF3D
:10153800DAC0DEFF20EE06F0C951D926CA51DA22F8
:10154800DE50CB5FDE50CC5BDE50CD5BDD50CE5B3A
:1015580020EE12F0C951D926CA51DA22DECFDCF1C9
:10156800DECFDDF1DECFDEF1DECFDFF176D00001B8
:1015780020EE0EF0C951D926CA51DA22DECFDCF1AD
:10158800DECFDDF1DECFDEF1DECFDFF10101DC51B0
:10159800DD11DE11DF11D8A451D0C9C0D9FFCAC0EE
:1015A800DAFFDECFB2F0DDCFB3F0000E0001B46F8A
:1015B800000EB56F000EB66F000EB76F4DEC16F04B
:1015C800B2C0DCF1B3C0DDF1B4C0DEF1B5C0DFF10B
:1015D8000101DC05DD11DE11DF11D8A40BD00001FB
:1015E80020EE05F0C951D926CA51DA22020EDF6E63
:1015F800020E12000101DC2912E1DD2910E1DE29C9
:101608000EE1DF29D8A40BD0000120EE05F0C95166
:10161800D926CA51DA22010EDF6E010E120000012E
:1016280020EE0EF0C951D926CA51DA22DCC1DEFFFC
:10163800DDC1DEFFDEC1DEFFDFC1DEFF000120EE1F
:1016480012F0C951D926CA51DA22DCC1DEFFDDC148
:10165800DEFFDEC1DEFFDFC1DEFF0101DC51DD118F
:10166800DE11DF11D8A4B8D037D1000120EE04F084
:10167800C951D926CA51DA22DFA22AD0C9C0D9FF56
:10168800CAC0DAFFDECFB2F0DDCFB3F0DCC1B4F010
:10169800DDC1B5F0DEC1B6F0DFC1B7F04DEC16F034
:1016A800B2C0DCF1B3C0DDF1B4C0DEF1B5C0DFF12A
:1016B8000101DC51DD11DE11DF11D8A423D0D8C11E
:1016C800CBF0D9C1CCF0DAC1CDF0DBC1CEF096D0E9
:1016D800C9C0D9FFCAC0DAFFDECF97F0DDCF98F0D6
:1016E800DCC199F0DDC19AF0DEC19BF0DFC19CF04E
:1016F800EAEC12F097C0DCF198C0DDF199C0DEF198
:101708009AC0DFF10101DC2912E1DD2910E1DE29AF
:101718000EE1DF29D8A40BD0000120EE05F0C95155
:10172800D926CA51DA22010EDF6E010E120001011C
:10173800DF51DE11DD1104E1020EDC5DD8A014D00A
:10174800C9C0D9FFCAC0DAFF10EE12F0DE50E12698
:10175800DD50E222E650DC5DE650DD59E650DE5908
:10176800E650DF59D8A00BD0000120EE05F0C95192
:10177800D926CA51DA22020EDF6E020E12000001CB
:1017880020EE12F0C951D926CA51DA22DCC1DEFF97
:10179800DDC1DEFFDEC1DEFFDFC1DEFF20EE06F0C9
:1017A800C951D926CA51DA220101D851DE26D951A8
:1017B800DE22DA51DE22DB51DE22D8510001CB5F76
:1017C8000101D9510001CC5B0101DA510001CD5B67
:1017D8000101DB510001CE5B0001CB510101D85D55
:1017E8000001CC510101D9590001CD510101DA594B
:1017F8000001CE510101DB59D8A037D7000120EEF6
:1018080006F0C951D926CA51DA22CB51DE26CC516D
:10181800DE22CD51DE22CE51DE22FF0ECB15CF6F58
:10182800010ECC15D06F000ECD15D16F000ECE1560
:10183800D26FCF51D011D111D211D8B44DD0C9C067
:10184800D9FFCAC0DAFFDECF26F0DDCF27F0DCC132
:1018580028F0DDC129F0DEC12AF0DFC12BF003EC4E
:1018680023F026C0D4F127C0D5F128C0D6F129C06D
:10187800D7F10101D451D511D611D711D8A40BD065
:10188800000120EE05F0C951D926CA51DA22020E0C
:10189800DF6E020E1200CBC0CFF0CCC0D0F0CDC0AE
:1018A800D1F0CEC0D2F00A0E06D00001D890D233C3
:1018B800D133D033CF33E82EF8D7CF510101D42715
:1018C8000001D0510101D5230001D1510101D623D6
:1018D8000001D2510101D723000120EE06F0C951C1
:1018E800D926CA51DA22FF0EDE14CF6F010EDE149C
:1018F800D06F000EDE14D16F000EDE14D26FCF5100
:10190800D011D111D211D8B423D020EE16F0C9517C
:10191800D926CA51DA220101D451DE180AE1D5517B
:10192800DE1807E1D651DE1804E1D751DE18D8B425
:101938000FD0000120EE16F0C951D926CA51DA227B
:10194800D4C1DEFFD5C1DEFFD6C1DEFFD7C1DEFFC1
:10195800000120EE06F0C951D926CA51DA2210EE4C
:101968000AF0C951E126CA51E222DE50E65CDE5097
:10197800E658DE50E658DE50E658D8B01CD020EEC7
:1019880006F0C951D926CA51DA2210EE0AF0C95117
:10199800E126CA51E222DECFE6FFDECFE6FFDECF48
:1019A800E6FFDECFE6FF20EE04F0C951D926CA5182
:1019B800DA22000EDB8A0101D3511200000120EE69
:1019C80004F0C951D926CA51DA22DECFCDF0DDCFD5
:1019D800CEF0010ECD25D66F000ECE21D76FD65191
:1019E800D711D8B40CD020EE0EF0C951D926CA515F
:1019F800DA22DE50DE10DE10DE10D8A402D0040E8B
:101A080012000F0ED615CD6F000ED715CE6FCD5123
:101A1800CE11D8A4AFD120EE0EF0C951D926CA51A3
:101A2800DA22DE2A000EDE22DE22DE2220EE0AF094
:101A3800C951D926CA51DA22DE50DE10DE10DE1076
:101A4800D8A412D0C9C0D9FFCAC0DAFF10EE08F076
:101A5800DE50E126DD50E222E650D65DE650D75949
:101A6800D8A088D1040E1200D6C0CDF0D7C0CEF0D1
:101A7800040ECF6FD890CE33CD33CF2FFBD7FF0EC8
:101A8800D06FFF0ED16FC9C0D9FFCAC0DAFF10EE00
:101A980002F0DE50E126DD50E222E750D26FD36B30
:101AA800D051D227D151D323CD51D217CE51D317EC
:101AB800D251D311D8A45ED1C9C0D9FFCAC0DAFFA8
:101AC800DECF97F0DDCF98F020EE0AF0C951D92685
:101AD800CA51DA22DECF99F0DECF9AF0DECF9BF042
:101AE800DECF9CF0EAEC12F097C0D8F098C0D9F09D
:101AF80099C0DAF09AC0DBF00001DB51DA11D91194
:101B080006E1020ED85DD8B002D0020E1200D82924
:101B180009E1D92907E1DA2905E1DB29D8A402D0AE
:101B2800010E1200C9C0D9FFCAC0DAFF10EE12F0C8
:101B3800DE50E126DD50E222E650D85DE650D95964
:101B4800E650DA59E650DB59D8A0E5D0CB51CC1194
:101B5800D8A402D0040E1200C9C0D9FFCAC0DAFF47
:101B6800DECFB2F0DDCFB3F020EE0AF0C951D926AE
:101B7800CA51DA22DECFB4F0DECFB5F0DECFB6F050
:101B8800DECFB7F04DEC16F0B2C0D8F0B3C0D9F044
:101B9800B4C0DAF0B5C0DBF00001D851D911DA11C0
:101BA800DB11D8A402D0070E1200D805D911DA111A
:101BB800DB11D8A402D0020E1200D82909E1D929D4
:101BC80007E1DA2905E1DB29D8A402D0010E1200C9
:101BD800C9C0D9FFCAC0DAFFDECF77F0DDCF78F011
:101BE80071EC1CF00009D8B402D0010E1200C9C073
:101BF800D9FFCAC0DAFFDECFCDF0DDCFCEF02E0E92
:101C08000001CD251A6E000ECE211B6E000E1D6E32
:101C1800000E1C6E020E1F6E000E1E6ED5EC2AF012
:101C2800C9C0D9FFCAC0DAFFDECF26F0DDCF27F062
:101C3800D8C028F0D9C029F0DAC02AF0DBC02BF0D0
:101C480003EC23F0C9C0D9FFCAC0DAFF10EE2AF0AE
:101C5800DE50E126DD50E22226C0E6FF27C0E6FF7F
:101C680028C0E6FF29C0E6FF000E0001D56F000E70
:101C7800D46F2DD0C9C0D9FFCAC0DAFF10EE04F066
:101C8800DE50E126DD50E222010EE76EC9C0D9FF21
:101C9800CAC0DAFFDECF77F0DDCF78F071EC1CF048
:101CA8000009D8B402D0010E1200C9C0D9FFCAC0B9
:101CB800DAFF10EE2AF0DE50E126DD50E222E62AB5
:101CC800000EE622E622E6220001D44BD52BC9C03D
:101CD800D9FFCAC0DAFF10EE02F0DE50E126DD506F
:101CE800E222E750CD6FCE6BCD51D45DCE51D559A0
:101CF800D8A0C0D7C9C0D9FFCAC0DAFF10EE2AF0F1
:101D0800DE50E126DD50E222D451E65ED551E65A96
:101D1800000EE65AE65A20EE0AF0C951D926CA51F1
:101D2800DA22D8C0DEFFD9C0DEFFDAC0DEFFDBC0B2
:101D3800DEFFC9C0D9FFCAC0DAFFDECF26F0DDCF8B
:101D480027F0D8C028F0D9C029F0DAC02AF0DBC0C3
:101D58002BF003EC23F0000120EE0EF0C951D92638
:101D6800CA51DA2226C0DEFF27C0DEFF28C0DEFF08
:101D780029C0DEFF20EE04F0C951D926CA51DA2263
:101D8800D6C0DEFFD7C0DDFF0F0ED615CD6F000E13
:101D9800D715CE6F050ED890CD37CE37E82EFBD7A6
:101DA8002E0ECD27000ECE23C9C0D9FFCAC0DAFF38
:101DB800DECFCFF0DDCFD0F0CD51CF27CE51D0231D
:101DC80020EE12F0C951D926CA51DA22CFC0DEFF5F
:101DD800D0C0DDFF000E120000019C519B119A112A
:101DE80004E1020E995DD8A0E7D120EE12F09751D8
:101DF800D9269851DA22DE50995DDE509A59DE5084
:101E08009B59DE509C59D8A0DAD1D6D199C0ADF0F3
:101E18009AC0AEF0D890AE31A26FAD31A16FA1518A
:101E2800AD27A251AE2397C08CF098C08DF020EE5C
:101E38001EF09751D9269851DA22DECFA1F0DECFD5
:101E4800A2F0DECFA3F0DECFA4F0ADC0A5F0AEC007
:101E5800A6F0090EA76FD890A633A533A72FFBD7F6
:101E6800A551A1258E6FA651A2218F6F000EA32127
:101E7800906F000EA421916FCAEC24F00001AF6F9F
:101E8800AF51D8A4ABD1FF0EA16F010EA26FADC0A8
:101E9800A3F0AEC0A4F0A151A317A251A4172E0E0F
:101EA800A327000EA423A3519725B06FA45198210E
:101EB800B16FAD4BAE2B99B104D09DC0A9F0AA6B00
:101EC8001AD09D51A16FA26BA13BA23BF00EA217A5
:101ED800A1510F0BA213F00EA117B0C0D9FFB1C0CA
:101EE800DAFFDF500F0BA36FA46BA151A311A96FE9
:101EF800A251A411AA6FB0C0D9FFB1C0DAFFA9C01E
:101F0800DFFF20EE04F09751D9269851DA22010E0E
:101F1800DF6E97C08CF098C08DF020EE1EF09751C0
:101F2800D9269851DA22DECFA1F0DECFA2F0DECF9B
:101F3800A3F0DECFA4F0ADC0A5F0AEC0A6F0090EA8
:101F4800A76FD890A633A533A72FFBD7A551A125F6
:101F58008E6FA651A2218F6F000EA321906F000EE5
:101F6800A421916FCAEC24F00001AF6FAF51D8A43F
:101F780035D1FF0EA16F010EA26FADC0A3F0AEC0A8
:101F8800A4F0A151A317A251A4172E0EA327000E47
:101F9800A423A3519725B06FA4519821B16F99B18B
:101FA8001BD09DC0A1F09EC0A2F09FC0A3F0A0C00E
:101FB800A4F0A2C0A1F0A3C0A2F0A4C0A3F0A46B97
:101FC8000F0EA117B0C0D9FFB1C0DAFFDF50F00B78
:101FD800A111A56FA55112D09DC0A1F09EC0A2F07D
:101FE8009FC0A3F0A0C0A4F0050E05D0D890A433DC
:101FF800A333A233A133E82EF9D7A151AB6FAC6B51
:10200800B0C0D9FFB1C0DAFFABC0DFFFCCD097C0FA
:102018008CF098C08DF020EE1EF09751D92698517B
:10202800DA22DECFA1F0DECFA2F0DECFA3F0DECF42
:10203800A4F099C0A5F09AC0A6F09BC0A7F09CC0D8
:10204800A8F0A6C0A5F0A7C0A6F0A8C0A7F0A86BE6
:10205800A151A5258E6FA251A6218F6FA351A7214B
:10206800906FA451A821916FCAEC24F00001AF6FC2
:10207800AF51D8A4B3D0FF0EA16F010EA26F99C0C3
:10208800A3F09AC0A4F0D890A337A437A151A317FE
:10209800A251A4172E0EA327000EA423A3519725FF
:1020A800B06FA4519821B16FB0C0D9FFB1C0DAFFA9
:1020B8009DC0DEFF9EC0DDFF76D097C08CF098C033
:1020C8008DF020EE1EF09751D9269851DA22DECFF6
:1020D800A1F0DECFA2F0DECFA3F0DECFA4F099C04E
:1020E800A5F09AC0A6F09BC0A7F09CC0A8F0080E67
:1020F80005D0D890A833A733A633A533E82EF9D74F
:10210800A151A5258E6FA251A6218F6FA351A7219A
:10211800906FA451A821916FCAEC24F00001AF6F11
:10212800AF51D8A45BD0FF0EA16F010EA26F99C06A
:10213800A3F09AC0A4F0D890A337A437D890A337B7
:10214800A437A151A317A251A4172E0EA327000E3E
:10215800A423A3519725B06FA4519821B16FB0C0A3
:10216800D9FFB1C0DAFF000EDE14A16F000EDE1435
:10217800A26F000EDE14A36FF00EDE14A46FA1513F
:102188009D13A2519E13A3519F13A451A013B0C035
:10219800D9FFB1C0DAFF9DC0DEFF9EC0DEFF9FC041
:1021A800DEFFA0C0DEFF20EE04F09751D92698513B
:1021B800DA22010EDF6E12D0020EAF6F0FD097C079
:1021C800D9FF98C0DAFFDF50010AD8B41FD6030A36
:1021D800D8B41DD7010AD8B470D7EED7AF511200C2
:1021E8000101D351D411D8A402D0090E1200D3C1D1
:1021F800D9FFD4C1DAFF000EDE6E000EDD6EF5C029
:1022080051F2F6C052F21F0ED717510E0001A16FFE
:10221800020EA26FD50EA36F010EA46F0101D75154
:10222800FE0B0001A56F09EC00F002014E6F4E5144
:10223800D8A4C9D13A0E656F020E666F510E00011F
:10224800E26F020EE36FD5C1E4F0D6C1E5F0A5EC6C
:102258001BF002014E6F63C24FF264C250F24E513E
:10226800D8A406D04F515011D8A402D0060E4E6FF4
:10227800D7C1D8F11C0E0101D817D8B4EDD002018E
:102288004E51D8B414D0040E4E19D8A409D0510E0A
:102298000101CF6F020ED06F35EC22F002014E6FB4
:1022A8000101D78763C24FF264C250F215D0020110
:1022B80020EE0BF04F51D9265051DA22DF500101A0
:1022C800D86F110ED817D8B402D0070E03D0D7A5EF
:1022D80003D0080E02014E6F02014E51D8A4D8D087
:1022E8000101D7A7D5D0000E02014A6F000E4B6F2F
:1022F800210E4C6F460E4D6F20EE0EF04F51D92631
:102308005051DA224AC2DEFF4BC2DEFF4CC2DEFF6A
:102318004DC2DEFF20EE16F04F51D9265051DA2279
:102328004AC2DEFF4BC2DEFF4CC2DEFF4DC2DEFFFB
:1023380020EE0BF04F51D9265051DA22000EDF6EF5
:1023480020EE1CF04F51D9265051DA22DE6ADE6A9F
:10235800DE6ADD6A51C21AF052C21BF04FC21CF08D
:1023680050C21DF0D5EC26F01AC046F21BC047F249
:102378001CC048F21DC049F24FC21AF050C21BF0EF
:10238800000E1C6E000E1D6E000E1E6E000E1F6EDF
:10239800EBEC2AF0020120EE04F05151D9265251FB
:1023A800DA22010EDF6E4651471148114911D8B49F
:1023B8006FD020EE2AF05151D9265251DA22DECFC1
:1023C8004AF2DECF4BF2DECF4CF2DECF4DF251C2F5
:1023D800B2F052C2B3F046C2B4F047C2B5F048C238
:1023E800B6F049C2B7F078EC1EF002014E6F4E51BC
:1023F800D8A44ED0FF0E46250101D86FFF0E02016A
:1024080047210101D96FFF0E020148210101DA6F4E
:10241800FF0E020149210101DB6F020120EE0AF0E3
:102428005151D9265251DA22D8C1DEFFD9C1DEFF77
:10243800DAC1DEFFDBC1DEFF51C28CF052C28DF083
:102448004AC28EF04BC28FF04CC290F04DC291F050
:10245800CAEC24F002011BD002014E51D8A418D0B6
:1024680020EE0BF04F51D9265051DA22DFA802D0C6
:10247800040E0DD00101D7A30BD0020120EE0BF002
:102488004F51D9265051DA22DFA002D0070E4E6FE5
:1024980002014E51D8A423D00101D7B7D78B02012E
:1024A80020EE2AF05151D9265251DA22010110EEBC
:1024B8001AF0D351E126D451E222DECFE6FFDECF77
:1024C800E6FFDECFE6FFDECFE6FF20EE1EF0D351BB
:1024D800D926D451DA224FC2DEFF50C2DDFF0201F5
:1024E8004E51D8A470D0010120EE04F0D351D92662
:1024F800D451DA22D7C1DFFF20EE05F0D351D92617
:10250800D451DA22000EDF6E51C21AF052C21BF00B
:102518004FC21CF050C21DF0D5EC26F0010120EE90
:102528000EF0D351D926D451DA221AC0DEFF1BC0CF
:10253800DEFF1CC0DEFF1DC0DEFF020120EE1CF026
:102548004F51D9265051DA22010110EE0AF0D35129
:10255800E126D451E222DECFE6FFDECFE6FFDECF72
:10256800E6FFDECFE6FF20EE06F0D351D926D451A0
:10257800DA22DE6ADE6ADE6ADD6A20EE16F0D35100
:10258800D926D451DA22DE6ADE6ADE6ADD6AD3C170
:10259800D9FFD4C1DAFF51C2DEFF52C2DDFFD3C179
:1025A800D9FFD4C1DAFF10EE06F0DE50E126DD5087
:1025B800E22220EE02F0D351D926D451DA22E6CF16
:1025C800DEFFE5CFDDFF02014E51120000019C51F4
:1025D8009B119A1104E1020E995DD8A095D120EEC5
:1025E80012F09751D9269851DA22DE50995DDE50C3
:1025F8009A59DE509B59DE509C59D8B085D1AB69A9
:10260800AC69AD69AE6989D199C0AFF09AC0B0F034
:10261800D890B0319E6FAF319D6F9D51AF279E51BD
:10262800B02397C08CF098C08DF020EE1EF0975123
:10263800D9269851DA22DECF9DF0DECF9EF0DECF8C
:102648009FF0DECFA0F0AFC0A1F0B0C0A2F0090E9D
:10265800A36FD890A233A133A32FFBD7A1519D25F7
:102668008E6FA2519E218F6F000E9F21906F000EDA
:10267800A021916FCAEC24F00009D8A45DD1FF0E07
:1026880000019D6F010E9E6FAFC09FF0B0C0A0F01B
:102698009D519F179E51A0172E0E9F27000EA02315
:1026A8009F519725D96EA0519821DA6EDF50A16FFE
:1026B800A151A76FA86BAF4BB02B97C08CF098C0F7
:1026C8008DF020EE1EF09751D9269851DA22DECFF0
:1026D8009DF0DECF9EF0DECF9FF0DECFA0F0AFC042
:1026E800A1F0B0C0A2F0090EA36FD890A233A13315
:1026F800A32FFBD7A1519D258E6FA2519E218F6FCD
:10270800000E9F21906F000EA021916FCAEC24F05B
:102718000009D8A411D1FF0E00019D6F010E9E6F14
:10272800AFC09FF0B0C0A0F09D519F179E51A01759
:102738002E0E9F27000EA0239F519725D96EA051DA
:102748009821DA6EDF50A16FA151A36FA26BA2513D
:10275800A713A351A81399B107D0FF0EA715A56F0A
:102768000F0EA815A66F0FD0A7C09DF0A8C09EF0A9
:10277800040E9F6FD8909E339D339F2FFBD79DC02B
:10278800A5F09EC0A6F0A5C0ABF0A6C0ACF058D08E
:1027980097C08CF098C08DF020EE1EF09751D92686
:1027A8009851DA22DECF9DF0DECF9EF0DECF9FF08B
:1027B800DECFA0F099C0A1F09AC0A2F09BC0A3F010
:1027C8009CC0A4F0A2C0A1F0A3C0A2F0A4C0A3F032
:1027D800A46B9D51A1258E6F9E51A2218F6F9F5191
:1027E800A321906FA051A421916FCAEC24F0000995
:1027F800D8A4A2D0FF0E00019D6F010E9E6F99C054
:102808009FF09AC0A0F0D8909F37A0379D519F178E
:102818009E51A0172E0E9F27000EA0239F5197258B
:10282800A96FA0519821AA6FA9C0D9FFAAC0DAFF41
:10283800DECF9DF0DDCF9EF09DC0ABF09EC0ACF02A
:10284800AD6BAE6B79D097C08CF098C08DF020EE50
:102858001EF09751D9269851DA22DECF9DF0DECFAF
:102868009EF0DECF9FF0DECFA0F099C0A1F09AC015
:10287800A2F09BC0A3F09CC0A4F0080E05D0D8908D
:10288800A433A333A233A133E82EF9D79D51A12550
:102898008E6F9E51A2218F6F9F51A321906FA051DF
:1028A800A421916FCAEC24F00009D8A445D0FF0EEA
:1028B80000019D6F010E9E6F99C09FF09AC0A0F015
:1028C800D8909F37A037D8909F37A0379D519F1732
:1028D8009E51A0172E0E9F27000EA0239F519725CB
:1028E800A96FA0519821AA6FA9C0D9FFAAC0DAFF81
:1028F800FF0EDE14AB6FFF0EDE14AC6FFF0EDE149E
:10290800AD6F0F0EDE1407D0010EAB6F000EAC6F6B
:10291800000EAD6F000EAE6F0FD097C0D9FF98C0F4
:10292800DAFFDF50010AD8B46FD6030AD8B430D71B
:10293800010AD8B488D7E8D7ABC097F0ACC098F0F4
:10294800ADC099F0AEC09AF01200000E00016F6F92
:10295800000E6E6F000E726F000E716F000E786FB2
:10296800000E776F000E796F100E00016D6F940ED8
:10297800E82EFED76D2FFCD700F0640E81EC2AF00C
:1029880072EC24F0AA0E1F6E010E206E000E216E4E
:10299800000E226E870E236E480ED6EC28F0B6EC99
:1029A8002BF0B0EC2BF00001756F7505D8A404D09E
:1029B8007551746F736B06D0AA0E7519D8A402D01E
:1029C80075517313714B722BAA0E731903E17405B9
:1029D800D8B408D072BFE5D7E80E715D030E7259FE
:1029E800D8A0DFD7AA0E731902E17405D8A4B8D00D
:1029F800000E726F000E716F000E786F000E776F09
:102A080079690A0E81EC2AF0000E1F6E000E206E06
:102A1800000E216E000E226E000E236E770ED6EC8D
:102A280028F000017969B6EC2BF0B0EC2BF000012E
:102A3800796F774B782B7905D8B408D078BFF5D75C
:102A4800785104E10A0E775DD8A0EFD7000E786FB1
:102A5800000E776F0A0E81EC2AF0000E1F6E000E32
:102A6800206E000E216E400E226E000E236E690E3F
:102A7800D6EC28F0B6EC2BF0B0EC2BF00001796F17
:102A8800774B782B7951D8A4BCD779690A0E81EC99
:102A98002AF0000E1F6E000E206E000E216E000E32
:102AA800226EFF0E236E7A0ED6EC28F0B6EC2BF0D1
:102AB800B0EC2BF00001796F79517925800B766F96
:102AC800000E1D6E020E37EC28F076C02CF02D6A31
:102AD80044EC2AF00001774B782B7651D8B40BD010
:102AE8007605D8B408D078BFE3D7785104E10A0E48
:102AF800775DD8A0DDD77651D8B403D07605D8A4B1
:102B08007BD7000E726F000E716F100E00016D6F93
:102B1800940EE82EFED76D2FFCD700F0000E0001B2
:102B2800706F7651D8A4B3D00A0E81EC2AF0000E4B
:102B38001F6E020E206E000E216E000E226EFF0E1A
:102B4800236E500ED6EC28F0B6EC2BF00001796914
:102B5800B0EC2BF00001796F7951D8B498D0F8D740
:102B6800000E786F000E776F7969010E81EC2AF0FC
:102B7800000E1F6E000E206E000E216E000E226EDB
:102B8800FF0E236E690ED6EC28F0B6EC2BF0B0ECF5
:102B98002BF00001796F774B782B7951D8A40BD0A3
:102BA800000E1D6E010E37EC28F0480E1D6E620EE9
:102BB8001E6E57EC29F0100E00016D6F940EE82E72
:102BC800FED76D2FFCD700F000017951D8B408D09A
:102BD80078BFDDD7100E775D270E7859D8A0D7D7E4
:102BE80079690A0E77197811D8A436D0000E786F53
:102BF800000E776F0A0E81EC2AF0000E1F6E000E91
:102C0800206E000E216E000E226EFF0E236E410E06
:102C1800D6EC28F0B6EC2BF0B0EC2BF00001796F75
:102C2800774B782B7951D8A40BD0000E1D6E010E6E
:102C380037EC28F0270E1D6E620E1E6E57EC29F039
:102C480000017951D8B408D078BFE6D7100E775D67
:102C5800270E7859D8A0E0D70A0E81EC2AF0000E8A
:102C68001F6E020E206E000E216E000E226EFF0EE9
:102C7800236E500ED6EC28F0B6EC2BF000017969E3
:102C8800B0EC2BF00001796F7951D8A4F9D77051C5
:102C980012000001B451B511B611B711D8A42DD046
:102CA80020EE0AF0B251D926B351DA22DECFBDF0B8
:102CB800DECFBEF0DECFBFF0DECFC0F0BD51BE111B
:102CC800BF11C011D8B410D020EE12F0B251D926DD
:102CD800B351DA22DE50BD5DDE50BE59DE50BF5919
:102CE800DE50C059D8A064D0010EBD6F000EBE6F73
:102CF800000EBF6F000EC06F5BD0B2C097F0B3C0BC
:102D080098F0B4C099F0B5C09AF0B6C09BF0B7C0BF
:102D18009CF0EAEC12F097C0C5F098C0C6F099C0D4
:102D2800C7F09AC0C8F00001C851C711C6110DE11B
:102D3800020EC55DD8B009D0010EB26F000EB36F98
:102D4800000EB46F000EB56F1200C52910E1C62938
:102D58000EE1C7290CE1C829D8A409D0C5C0B2F032
:102D6800C6C0B3F0C7C0B4F0C8C0B5F0120020EEBA
:102D780012F0B251D926B351DA22DE50C55DDE50C9
:102D8800C659DE50C759DE50C859D8B009D0C5C099
:102D9800B2F0C6C0B3F0C7C0B4F0C8C0B5F01200F6
:102DA800B4C0BDF0B5C0BEF0B6C0BFF0B7C0C0F08B
:102DB800BDC0C1F0BEC0C2F0BFC0C3F0C0C0C4F047
:102DC800010EC127000EC223C323C42320EE12F034
:102DD800B251D926B351DA22DE50C15DDE50C25954
:102DE800DE50C359DE50C459D8A01BD0020EC16FA3
:102DF800000EC26F000EC36F000EC46FC151BD5DDF
:102E0800C251BE59C351BF59C451C059D8B009D0D5
:102E1800000EB26F000EB36F000EB46F000EB56FE8
:102E28001200B2C097F0B3C098F0C1C099F0C2C008
:102E38009AF0C3C09BF0C4C09CF0EAEC12F097C0B3
:102E4800C5F098C0C6F099C0C7F09AC0C8F0000194
:102E5800C551C611C711C811D8B42ED0C52907E16C
:102E6800C62905E1C72903E1C829D8B406D0C50594
:102E7800C611C711C811D8A409D0C5C0B2F0C6C0C0
:102E8800B3F0C7C0B4F0C8C0B5F01200BD51C11945
:102E980097E1BE51C21994E1BF51C31991E1C051E4
:102EA800C419D8A48DD7000EB26F000EB36F000EF0
:102EB800B46F000EB56F1200B2C097F0B3C098F0AF
:102EC800C1C099F0C2C09AF0C3C09BF0C4C09CF0C6
:102ED800FF0E9D6FFF0E9E6FFF0E9F6F0F0EA06F70
:102EE800F0EC0EF00001BC6FBC51D8A41ED0B45158
:102EF800B511B611B711D8B418D0B2C097F0B3C095
:102F080098F0B4C099F0B5C09AF0B6C09BF0B7C0BD
:102F18009CF0C1C09DF0C2C09EF0C3C09FF0C4C069
:102F2800A0F0F0EC0EF00001BC6FBC51D8A431D079
:102F380020EE0AF0B251D926B351DA22C1C0DEFF21
:102F4800C2C0DEFFC3C0DEFFC4C0DEFF20EE0EF04D
:102F5800B251D926B351DA22DE2807E1DE2805E18D
:102F6800DE2803E1DE28D8B424D020EE0EF0B251DA
:102F7800D926B351DA22DE06000EDE5ADE5ADE5AB0
:102F880020EE05F0B251D926B351DA22000EDB80CB
:102F980010D0BC05D8B409D0010EC16F000EC26FA5
:102FA800000EC36F000EC46F04D0C169C269C36943
:102FB800C469C1C0B2F0C2C0B3F0C3C0B4F0C4C0E9
:102FC800B5F0120024C0D9FF25C0DAFFDECF68F0C3
:102FD800DDCF69F003D00001684B692B68C0F6FFAC
:102FE80069C0F7FFF86A070EF76403D00800F550C8
:102FF80005D0F6CFE9FFF7CFEAFFEF502F0AD8B494
:10300800EAD768C0F6FF69C0F7FFF86A070EF764E9
:1030180003D00800F55005D0F6CFE9FFF7CFEAFF57
:10302800EF505C0AD8B4D7D720EE14F02250D92636
:103038002350DA22DECF6AF0DDCF6BF06AC01AF0D7
:103048006BC01BF0000E1D6E200E1C6E000E1F6E56
:103058000B0E1E6ED5EC2AF0000E0001646F64C0E2
:103068006CF06D6B6CC062F06DC063F0000E666F43
:10307800080E656F62516825266E63516921276EB7
:1030880026C0F6FF27C0F7FFF86A070EF76403D0DB
:103098000800F55005D0F6CFE9FFF7CFEAFFEF506B
:1030A80000016E6F624B632B200E6E65B4D02F0E3D
:1030B8006E19D8B4B0D05C0E6E19D8B4ACD02E0E40
:1030C8006E19D8B406D065516C5D66516D59D8A09B
:1030D80018D0080E65196611D8A404D02E0E6E19E2
:1030E800D8B402D0060E1200000E6D6F080E6C6F79
:1030F800000E666F0B0E656FD8906437D8906437F2
:10310800B9D77F0E6E6502D0030E6413800E6E650C
:1031180003D09F0E6E6506D0DF0E6E6550D0FD0E93
:103128006E614DD062516825266E63516921276E04
:1031380026C0F6FF27C0F7FFF86A070EF76403D02A
:103148000800F55005D0F6CFE9FFF7CFEAFFEF50BA
:103158000001676F624B632B3F0E676503D07E0EDD
:10316800676506D07F0E676515D0FD0E676112D0C2
:10317800FF0E266EFF0E276E65C028F066C029F088
:10318800265028262750292228506C5D29506D5931
:10319800D8A002D0060E12006C516A25D96E6D5166
:1031A8006B21DA6E6EC0DFFF6C4B6D2B6C516A259C
:1031B800D96E6D516B21DA6E67C0DFFF29D0180E0A
:1031C8001A6E620E1B6E6EC01CF01D6A80EC29F030
:1031D8001A501B10D8B402D0060E1200400E00017F
:1031E8006E6505D05B0E6E6102D0648309D0600EF7
:1031F8006E6506D07B0E6E6103D06481200E6E5F13
:103208006C516A25D96E6D516B21DA6E6EC0DFFF85
:103218006C4B6D2B2FD762516825266E635169213F
:10322800276E24C0D9FF25C0DAFF26C0DEFF27C0DD
:10323800DDFF200E6E6504D0000E616F000E03D016
:10324800000E616F040E606F60C06EF06C516D11FE
:10325800D8A402D0060E12006AC0D9FF6BC0DAFFEC
:10326800E50EDE18D8A406D06AC0D9FF6BC0DAFF15
:10327800050EDF6E080E65196611D8A404D0D89023
:103288006437D89064376451030BE806D8B46E8964
:1032980064510C0B040AD8B46E8720EE0BF06A5107
:1032A800D9266B51DA226EC0DFFF000E1200000132
:1032B80020EE04F0B151D926B251DA22B3C0DEFFB4
:1032C800B4C0DDFF20EE06F0B151D926B251DA22A2
:1032D800DECFC2F0DECFC3F0DECFC4F0DECFC5F064
:1032E800C205C311C411C511D8B414D0B1C0D9FFD7
:1032F800B2C0DAFF10EE12F0DE50E126DD50E22215
:10330800E650C25DE650C359E650C459E650C55967
:10331800D8A002D0020E1200C251C311C411C511A7
:10332800D8A422D0B1C0D9FFB2C0DAFFDECFB5F041
:10333800DDCFB6F0B5C0D9FFB6C0DAFF030EDE1890
:10334800D8A412D0B1C0D9FFB2C0DAFF10EE22F073
:10335800DE50E126DD50E222E6CFC2F0E6CFC3F030
:10336800E6CFC4F0E6CFC5F0C251C311C411C511F0
:10337800D8A425D0B1C0D9FFB2C0DAFF10EE08F04A
:10338800DE50E126DD50E222E650B35DE650B45946
:10339800D8A002D0020E1200B1C0D9FFB2C0DAFF25
:1033A80010EE22F0DE50E126DD50E222E6CFBEF03C
:1033B800E6CFBFF0E6CFC0F0E6CFC1F07BD0B1C01A
:1033C800D9FFB2C0DAFF10EE02F0DE50E126DD5080
:1033D800E222E750B56FB551100DF3CFBCF0F4CF32
:1033E800BDF048D0B1C0D9FFB2C0DAFFDECF97F048
:1033F800DDCF98F0C2C099F0C3C09AF0C4C09BF06A
:10340800C5C09CF0EAEC12F097C0C2F098C0C3F0B7
:1034180099C0C4F09AC0C5F00001C22909E1C329C6
:1034280007E1C42905E1C529D8A402D0010E12007C
:10343800C551C411C31104E1020EC25DD8A014D055
:10344800B1C0D9FFB2C0DAFF10EE12F0DE50E126AB
:10345800DD50E222E650C25DE650C359E650C45939
:10346800E650C559D8A002D0020E1200BC51B35F75
:10347800BD51B45BBC51B35DBD51B459D8B0B2D7DE
:10348800B1C0D9FFB2C0DAFFDECF26F0DDCF27F01A
:10349800C2C028F0C3C029F0C4C02AF0C5C02BF0B0
:1034A80003EC23F026C0BEF027C0BFF028C0C0F050
:1034B80029C0C1F0000120EE0AF0B151D926B2515D
:1034C800DA22C2C0DEFFC3C0DEFFC4C0DEFFC5C053
:1034D800DEFFBE51BF11C011C111D8A402D0020E27
:1034E8001200B3C0B5F0B4C0B6F0040EB76FD890F0
:1034F800B633B533B72FFBD7B551BE25B86FB65124
:10350800BF21B96F000EC021BA6F000EC121BB6F79
:1035180020EE0EF0B151D926B251DA22B8C0DEFF42
:10352800B9C0DEFFBAC0DEFFBBC0DEFF0F0EB315A9
:10353800B56F000EB415B66F050ED890B537B6370F
:10354800E82EFBD72E0EB527000EB623B1C0D9FF43
:10355800B2C0DAFFDECFB7F0DDCFB8F0B551B7278C
:10356800B651B82320EE12F0B151D926B251DA2261
:10357800B7C0DEFFB8C0DDFF000E12008CC077F0C8
:103588008DC078F071EC1CF00001966F9651D8A4AC
:10359800D5D08CC0D9FF8DC0DAFF030EDE18D8A4B1
:1035A800B8D020EE05F08C51D9268D51DA22DE04F0
:1035B800D8A4AFD02E0E8C251A6E000E8D211B6E4E
:1035C800000E1D6E000E1C6E020E1F6E000E1E6E8B
:1035D800D5EC2AF0000122EE2CF08C51D9268D5121
:1035E800DA22550EDE6EAA0EDD6E20EE2EF08C511C
:1035F800D9268D51DA22520EDE6E520EDE6E610E23
:10360800DE6E410EDD6E22EE12F08C51D9268D5100
:10361800DA22720EDE6E720EDE6E410EDE6E610E04
:10362800DD6E20EE0EF08C51D9268D51DA2212EE85
:1036380016F08C51E1268D51E222DECFE6FFDECF77
:10364800E6FFDECFE6FFDECFE6FF20EE0AF08C5184
:10365800D9268D51DA2212EE1AF08C51E1268D51BD
:10366800E222DECFE6FFDECFE6FFDECFE6FFDECFEB
:10367800E6FF20EE1AF08C51D9268D51DA22DECFE2
:103688008EF0DECF8FF0DECF90F0DECF91F0010E1E
:103698008E25926F000E8F21936F000E9021946FEC
:1036A800000E9121956F20EE2AF08C51D9268D516C
:1036B800DA2292C0DEFF93C0DEFF94C0DEFF95C021
:1036C800DEFF2E0E8C256C6F000E8D216D6F20EEA7
:1036D8002AF08C51D9268D51DA22DECF6EF0DECF5A
:1036E8006FF0DECF70F0DECF71F0010E726F20EE5A
:1036F80001F08C51D9268D51DA22DF5050EC26F09A
:10370800000120EE05F08C51D9268D51DA22000EE9
:10371800DF6E000E1A6E000E1B6E000E1C6E20EE81
:1037280001F08C51D9268D51DA22DF5014EC2BF0A0
:103738000009D8B403D0010E0001966F000196511C
:103748001200E4C0F6FFE5C0F7FFF86A070EF76459
:1037580003D00800F55005D0F6CFE9FFF7CFEAFF10
:10376800EF502F0AD8B413D0E4C0F6FFE5C0F7FF36
:10377800F86A070EF76403D00800F55005D0F6CFB5
:10378800E9FFF7CFEAFFEF505C0AD8A403D00001A5
:10379800E44BE52B000120EE06F0E251D926E35177
:1037A800DA22DE6ADE6ADE6ADD6AE4C0F6FFE5C0B8
:1037B800F7FFF86A070EF76403D00800F55005D044
:1037C800F6CFE9FFF7CFEAFFEF500001E66F200ED2
:1037D800E66118D0E2C0B1F0E3C0B2F0000EB46FF9
:1037E800000EB36F5BEC19F00101D26F000120EEFF
:1037F80012F0E251D926E351DA22000EDE6E000EF5
:10380800DD6E68D0E2C022F0E3C023F0E40E246E3F
:10381800000E256EE6EC17F00101D26FD251D8A444
:1038280059D0E2C0DCF0E3C0DDF0BDEC21F00101CD
:10383800D26F000120EE14F0E251D926E351DA22CA
:1038480010EE0BF0DE50E126DD50E222E7500101D8
:10385800D16FD251D8B408D0040ED219D8B4D1B58A
:1038680039D018D0D26F36D0D1B534D0000120EE7F
:1038780012F0E251D926E351DA22DECFCFF1DDCFC3
:10388800D0F1010120EE0BF0CF51D926D051DA2228
:10389800DFB802D0050EE6D7E2C0D9FFE3C0DAFFF1
:1038A800DECF1AF0DDCF1BF0CFC11CF0D0C11DF068
:1038B800D5EC26F0000120EE06F0E251D926E351BE
:1038C800DA221AC0DEFF1BC0DEFF1CC0DEFF1DC0EF
:1038D800DEFF98D70101D2511200000E0001856F5A
:1038E80020EE04F07751D9267851DA22DF50D8B487
:1038F800A7D020EE2AF07751D9267851DA22DECFE8
:1039080088F0DECF89F0DECF8AF0DECF8BF02E0E86
:1039180077256C6F000E78216D6F88C06EF089C0B6
:103928006FF08AC070F08BC071F0010E726F20EEDC
:1039380001F07751D9267851DA22DF5050EC26F081
:103948000009D8B404D0010E0001856F79D00001B8
:1039580020EE04F07751D9267851DA22000EDF6E76
:1039680020EE16F07751D9267851DA2210EE1EF0A3
:103978007751E1267851E222E6CF7DF0E6CF7EF05E
:10398800E6CF7FF0E6CF80F07D1F7E1F7F1F801F70
:103998007D2B000E7E237F23802388517D25816F18
:1039A80089517E21826F8A517F21836F8B518021BB
:1039B800846FDE50815DDE508259DE508359DE50BF
:1039C8008459D8B03DD020EE03F07751D9267851EC
:1039D800DA22DF50796F7951866F876B875104E15E
:1039E800020E865DD8A02CD020EE16F07751D9268D
:1039F8007851DA22DE508827DE508923DE508A2368
:103A0800DD508B232E0E77256C6F000E78216D6F9D
:103A180088C06EF089C06FF08AC070F08BC071F0FA
:103A2800010E726F20EE01F07751D9267851DA2213
:103A3800DF5050EC26F000018607D8A08707CED7C4
:103A48008551120097C021F098C022F0C0EC25F0F3
:103A580000019D6F9D51D8A4A0D020EE04F097518D
:103A6800D9269851DA22DFAA98D097C0D9FF98C0F2
:103A7800DAFFDECF8CF0DDCF8DF020EE1AF0975113
:103A8800D9269851DA22DECF8EF0DECF8FF0DECF46
:103A980090F0DECF91F0CAEC24F000019D6F9D51AB
:103AA800D8A47BD020EE1EF09751D9269851DA225F
:103AB800DECF9EF0DDCF9FF020EE0BF09E51D92691
:103AC8009F51DA22000EDB8A20EE0AF09751D926A0
:103AD8009851DA2210EE1CF09E51E1269F51E22205
:103AE800DECFE6FFDECFE6FFDECFE6FFDECFE6FF86
:103AF8009EC01AF09FC01BF020EE0EF09751D926F9
:103B08009851DA22DECF1CF0DECF1DF0DECF1EF09A
:103B1800DECF1FF0EBEC2AF0000E0001996F000ECB
:103B28009A6F210E9B6F460E9C6F20EE16F09E51E9
:103B3800D9269F51DA2299C0DEFF9AC0DEFF9BC0CA
:103B4800DEFF9CC0DEFF20EE12F09E51D9269F5169
:103B5800DA22000EDE6E000EDD6E20EE04F09751C4
:103B6800D9269851DA22DF0EDF1697C0D9FF98C000
:103B7800DAFF10EE04F0DE50E126DD50E222010EFD
:103B8800E76E97C0D9FF98C0DAFFDECF8CF0DDCFA3
:103B98008DF0C2EC1AF000019D6F9D511200226851
:103BA80023681AC0D9FF1BC0DAFFDE50DE10D8B474
:103BB80096D01AC0D9FF1BC0DAFFDECF26F0DDCFC2
:103BC80027F002D0264A272A000E1F6E210E1E6EED
:103BD80026C0F6FF27C0F7FFF86A070EF76403D080
:103BE8000800F55005D0F6CFE9FFF7CFEAFFEF5010
:103BF8001C6E1D6A1E501C5C1F501D58D8A013D087
:103C080026C0F6FF27C0F7FFF86A070EF76403D04F
:103C18000800F55005D0F6CFE9FFF7CFEAFFEF50DF
:103C28003A0AD8A4CFD726C0F6FF27C0F7FFF86A0C
:103C3800070EF76403D00800F55005D0F6CFE9FF6A
:103C4800F7CFEAFFEF503A0AD8A445D01AC0D9FFF7
:103C58001BC0DAFFDECF20F0DDCF21F020C0F6FF59
:103C680021C0F7FFF86A070EF76403D00800F55083
:103C780005D0F6CFE9FFF7CFEAFFEF501C6ED00E64
:103C88001C24246E256AFF0E2522204A212A25504D
:103C98001DE10A0E245CD8B019D02650201816E170
:103CA80027502118D8A412D024502510D8A40ED0FB
:103CB80024C022F025C023F0264A272A1AC0D9FF9B
:103CC8001BC0DAFF26C0DEFF27C0DDFF22C01AF0C6
:103CD80023C01BF01200000E236E000E226E22C0BD
:103CE8001AF023C01BF012000001B751B611B5112C
:103CF80004E1020EB45DD8A036D020EE12F0B25125
:103D0800D926B351DA22DE50B45DDE50B559DE5003
:103D1800B659DE50B759D8B026D0000EBC6F76D051
:103D2800B2C097F0B3C098F0B4C099F0B5C09AF09B
:103D3800B6C09BF0B7C09CF0EAEC12F097C0BDF09B
:103D480098C0BEF099C0BFF09AC0C0F00001BD5144
:103D5800BE11BF11C011D8B469D0BD05BE11BF11C5
:103D6800C011D8A402D0020E0AD0BD290AE1BE298A
:103D780008E1BF2906E1C029D8A403D0010EBC6F11
:103D880055D0B2C097F0B3C098F0B4C099F0B5C0A0
:103D98009AF0B6C09BF0B7C09CF0000E9D6F000E65
:103DA8009E6F000E9F6F000EA06FF0EC0EF00001EA
:103DB800BC6FBC51D8A43AD020EE0EF0B251D9262F
:103DC800B351DA22DE2807E1DE2805E1DE2803E127
:103DD800DE28D8B413D020EE0EF0B251D926B35154
:103DE800DA22DE2A000EDE22DE22DE2220EE05F0B6
:103DF800B251D926B351DA22000EDB80BDC0B4F02F
:103E0800BEC0B5F0BFC0B6F0C0C0B7F020EE12F02B
:103E1800B251D926B351DA22DE50B45DDE50B5591D
:103E2800DE50B659DE50B759D8A07AD7BC51120027
:103E3800000E0001646F0A0E81EC2AF028C060F0C1
:103E480029C061F02AC062F02BC063F0090ED89037
:103E580000016037613762376337E82EF8D760C0F2
:103E680065F061C066F062C067F063C068F028045E
:103E780029102A102B10D8B41CD00A0E81EC2AF075
:103E880065C01FF066C020F067C021F068C022F04E
:103E9800000E236E520ED6EC28F0B6EC2BF0B0ECE8
:103EA8002BF000016B6F6B51D8A4F9D7B6EC2BF04F
:103EB80020D00A0E81EC2AF028C01FF029C020F07B
:103EC8002AC021F02BC022F0000E236E510ED6EC32
:103ED80028F0B6EC2BF0B0EC2BF000016B6F6B51B7
:103EE800D8A4F9D7B6EC2BF004D0B0EC2BF0000135
:103EF8006B6FFE0E00016B19D8A4F7D7000E6A6F1E
:103F0800000E696F0CD069512624D96E6A5127209A
:103F1800DA6EB0EC2BF0DF6E0001694B6A2B6ABFDA
:103F2800F2D7020E6A5DD8A0EED7000E6A6F000EB7
:103F3800696F0A0E81EC2AF0000E1F6E000E206ECB
:103F4800000E216E000E226E000E236E4C0ED6EC73
:103F580028F0B6EC2BF0B0EC2BF000016B6F6B295E
:103F6800D8A4F9D7000E6A6F000E696F000E120010
:103F78000600FACF07F0FBCF08F0E9CF09F0EACF47
:103F88000AF0E1CF0BF0E2CF0CF0D9CF0DF0DACF89
:103F98000EF0F3CF0FF0F4CF10F0F6CF11F0F7CF0B
:103FA80012F0F8CF13F0F5CF14F046C015F047C063
:103FB80016F048C017F049C018F09DBA9EAA04D060
:103FC800A0EC2BF0456E9E9AF2B4F2A436D0F2948F
:103FD800010E446E000E196E010E196401D019D03D
:103FE8001950020DE70EF324D96E000EF420DA6E94
:103FF800DE50DE10D8B40BD01950020DE70EF324B2
:10400800D96E000EF420DA6EDE06000EDD5A192A8B
:10401800E3D74304D8A40BD03806D8A039063850C3
:104028003910D8A404D0000EFA6E000EF96E000EF6
:10403800026E830E016E97EC2BF0F2B2F2A801D05B
:10404800F29218C049F017C048F016C047F015C0E2
:1040580046F014C0F5FF13C0F8FF12C0F7FF11C0F7
:10406800F6FF10C0F4FF0FC0F3FF0EC0DAFF0DC05B
:10407800D9FF0CC0E2FF0BC0E1FF0AC0EAFF09C08C
:10408800E9FF08C0FBFF07C0FAFF46921100000EC7
:104098000001656F000E646F000E676F000E666F9B
:1040A8008B9E8A980A0E81EC2AF028C060F029C0FD
:1040B80061F02AC062F02BC063F0090ED8900001AD
:1040C8006037613762376337E82EF8D760C01FF072
:1040D80061C020F062C021F063C022F0000E236EA0
:1040E800580ED6EC28F0B6EC2BF0B0EC2BF0000113
:1040F8006B6F6B51D8A4F9D78A988B9E010E81EC0F
:104108002AF0FE0E8EEC2BF0000E00016A6F000EF6
:10411800696F6ABF04D0020E6A5DD8B018D026C095
:10412800F6FF27C0F7FFF86A070EF76403D0080008
:10413800F55005D0F6CFE9FFF7CFEAFFEF508EEC48
:104148002BF0264A272A0001694B6A2BE2D7BCECE0
:104158002BF0BCEC2BF00A0E81EC2AF0000E1F6E3F
:10416800000E206E000E216E000E226E000E236ED1
:104178004D0ED6EC28F0B6EC2BF0B0EC2BF000018D
:104188006B6F6B51D8A4F9D768511200000120EE6B
:1041980004F09751D9269851DA22000EDF6E20EEEE
:1041A8002AF09751D9269851DA22FF0EDE6EFF0EBB
:1041B800DE6EFF0EDE6EFF0EDD6E97C08CF098C0CF
:1041C8008DF099C08EF09AC08FF09BC090F09CC083
:1041D80091F0CAEC24F00009D8B402D0030E120002
:1041E800000122EE2CF09751D9269851DA22550E6B
:1041F800DE1804E1AA0EDE18D8B402D0020E1200AE
:1042080020EE64F09751D9269851DA22FF0EDE1479
:104218009D6FFF0EDE149E6FFF0EDE149F6F000E63
:10422800DE14A06F460E9D190AE1410E9E1907E1A2
:10423800540E9F19A011D8A402D0000E120020EE2F
:1042480080F09751D9269851DA22FF0EDE149D6F1F
:10425800FF0EDE149E6FFF0EDE149F6F000EDE143D
:10426800A06F460E9D190AE1410E9E1907E1540EF2
:104278009F19A011D8A402D0000E1200010E12003E
:10428800DCC0B1F0DDC0B2F0000E0001B46F000E6A
:10429800B36F5BEC19F00001E56FE551D8A461D06C
:1042A800000EE46F000EE36FDCC0D9FFDDC0DAFF5B
:1042B800DECF8CF0DDCF8DF020EE0EF0DC51D9266C
:1042C800DD51DA22DECF8EF0DECF8FF0DECF90F038
:1042D800DECF91F0CAEC24F00001E56FE551D8A4D7
:1042E80040D020EE12F0DC51D926DD51DA22DECFA3
:1042F800E0F0DDCFE1F0E0C0D9FFE1C0DAFFE50E84
:10430800DE18D8B411D020EE12F0DC51D926DD51D8
:10431800DA22DECFE0F0DDCFE1F0E0C0D9FFE1C086
:10432800DAFFDF50D8A40AD0E34BE42BDE51E319BF
:1043380009E1DF51E419D8B414D004D0000EE46FB9
:10434800000EE36FDCC0C9F0DDC0CAF0000ECC6F10
:10435800010ECB6FE2EC0CF00001E56FE551D8B42B
:10436800A3D7040EE519D8A402D0070EE56FE551CE
:104378001200DCC0B1F0DDC0B2F0000E0001B46F75
:10438800000EB36F5BEC19F00001E16FE151D8B496
:1043980002D0E1511200DCC0D9FFDDC0DAFFDECF68
:1043A8008CF0DDCF8DF020EE0EF0DC51D926DD51FA
:1043B800DA22DECF8EF0DECF8FF0DECF90F0DECFC8
:1043C80091F0CAEC24F00001E16FE151D8A446D085
:1043D80020EE12F0DC51D926DD51DA22DECFDFF0F3
:1043E800DDCFE0F0DFC0D9FFE0C0DAFFDF50DE6FDD
:1043F800DE51D8A403D0040EE16F30D020EE0BF0CC
:10440800DF51D926E051DA22DFB618D0DFC01AF022
:10441800E0C01BF020EE14F0DC51D926DD51DA2281
:10442800DECF1CF0DDCF1DF0000E1F6E0B0E1E6ED2
:10443800FFEC27F01A501B10D8B410D0DCC0C9F01C
:10444800DDC0CAF0000E0001CC6F000ECB6FE2ECAD
:104458000CF00001E16FE151D8B49DD70001E151A2
:104468001200CFC1DCF0D0C1DDF0000E0001DF6F1B
:10447800010EDE6F44EC21F00001E66FE651D8A48E
:104488005AD0CFC1D9FFD0C1DAFFDECF8CF0DDCF53
:104498008DF0010120EE0EF0CF51D926D051DA224D
:1044A800DECF8EF0DECF8FF0DECF90F0DECF91F052
:1044B800CAEC24F00001E66FE651D8A43CD0010113
:1044C80020EE12F0CF51D926D051DA22DECF1AF0E1
:1044D800DDCF1BF0000E1D6E000E1C6E000E1F6E51
:1044E800200E1E6ED5EC2AF0010120EE12F0CF51FD
:1044F800D926D051DA22DECF1AF0DDCF1BF020EE1C
:1045080014F0CF51D926D051DA22DECF1CF0DDCFFE
:104518001DF0000E1F6E0B0E1E6E62EC23F0CFC155
:10452800D9FFD0C1DAFF10EE04F0DE50E126DD50ED
:10453800E222010EE76E0001E65112000001766FDB
:1045480051D06DC026F06EC027F06FC028F070C043
:1045580029F071C02AF072C02BF073C02CF01CEC4B
:104568001FF00001746F7451776F786B77C079F022
:10457800795112006DC026F06EC027F06FC028F088
:1045880070C029F071C02AF072C02BF073C02CF0F3
:104598001CEC1FF00001746F7451776F786B000E7C
:1045A8001D6E010E37EC28F077C02CF078C02DF086
:1045B80044EC2AF07A0E0001756FC10E746F810EFB
:1045C800E82EFED7742FFCD7752FFAD700D077C006
:1045D80079F0F7C06DF0F8C06EF000017951120063
:1045E8007951120000017651000AD8B4AAD7010AFD
:1045F800D8B4C0D7030AD8B4F3D7040E1200020EF9
:10460800285E000E295A2A5A2B5A20EE12F02650FC
:10461800D9262750DA22FE0EDE240001606FFF0E35
:10462800DE20616FFF0EDE20626FFF0EDE20636FFB
:104638006051285C6151295862512A5863512B589E
:10464800D8A009D0000E266E000E276E000E286E28
:10465800000E296E120020EE26F02650D92627508B
:10466800DA22DECF60F0DECF61F0DECF62F0DECF9F
:1046780063F020EE02F02650D9262750DA22DF50C8
:10468800646F64511A6E1B6A1C6A1D6A28C01EF08A
:1046980029C01FF02AC020F02BC021F003EC29F01C
:1046A800000160511A24266E61511B20276E625149
:1046B8001C20286E63511D20296E12001AC022F09A
:1046C8001BC023F01CC024F01DC025F02BD024C033
:1046D800F6FF25C0F7FFF86A070EF76407D0090050
:1046E800F5CF20F00900F5CF21F008D0F6CFE9FF8B
:1046F800F7CFEAFFEECF20F0EECF21F022C0D9FFAE
:1047080023C0DAFF20C0DEFF21C0DDFF020E222613
:10471800000E2322020E2426000E2522020E1E5E03
:10472800000E1F5A1F50D3E1020E1E5CD8A01AD0EB
:10473800CED724C0F6FF25C0F7FFF86A22C0D9FFFC
:1047480023C0DAFF070EF76403D00800F55005D040
:10475800F6CFE9FFF7CFEAFFEF50DF6E244A252AAC
:10476800224A232A1E06D8A01F061E28E2E11F2877
:10477800D8B41200DED7B0C0B6F0B1C0B7F0B60EEC
:104788001A6E000E1B6ED3EC1DF01AC0B8F01BC0D9
:10479800B9F00001B9AF02D00B0E1200D890B835AD
:1047A800D96EB935DA6EF50ED926000EDA22DECFCB
:1047B800B4F0DDCFB5F0B451B511D8B406D0B4C05B
:1047C800D9FFB5C0DAFF000EDF6EAE51AF11D8B415
:1047D80006D0AEC0D9FFAFC0DAFF000EDF6ED890AA
:1047E800B835D96EB935DA6EF50ED926000EDA224B
:1047F800AEC0DEFFAFC0DDFFAE51AF11D8B403D0FD
:10480800B205D8B402D0000E1200AE0EA16F000E91
:10481800A26FB00EA36F000EA46F000EA56F09EC77
:1048280000F00001B36FB3511200D59E000E0101D4
:10483800E66F000EE56FB6EC2BF0AD0E0001AE6F23
:10484800020EAF6F7C0EB06F620EB16F010EB26FC9
:10485800BFEC23F00009D8A41200790E0101D36F30
:10486800010ED46FC00ED56F010ED66F130ED76F21
:10487800F4EC10F00009D8A41200790E0101E06FE1
:10488800010EE16FC00EE26F010EE36FA4EC28F099
:10489800790E0001C96F010ECA6F5B0ECB6F620EF5
:1048A800CC6F000ECE6F140ECD6FE70ECF6F010EDA
:1048B800D06F82EC05F0790E0001A06F010EA16F98
:1048C80006EC2AF0000E1D6E010E37EC28F03D0EA6
:1048D8001D6E620E1E6E57EC29F01200000E276E38
:1048E800000E266E000E2B6E000E2A6E000E296E2C
:1048F800000E286E000E1F6E000E206E000E216E38
:10490800000E226E950E236E400ED6EC28F0B6EC03
:104918002BF0B0EC2BF02C6E2A4A2B2A2C04D8B49E
:1049280008D02BBEF6D72B5004E10A0E2A5CD8A07B
:10493800F0D7000E2B6E000E2A6E2C04D8B417D0B8
:10494800000E1D6E010E37EC28F0320E1D6E620E41
:104958001E6E57EC29F0000E1D6E020E37EC28F083
:10496800F80E1D6E610E1E6E57EC29F00BD0000E6E
:104978001D6E010E37EC28F0080E1D6E620E1E6EBD
:1049880057EC29F02C04D8B41200B4D7000E00015B
:10499800966F20EE2AF08C51D9268D51DA228E514D
:1049A800DE180AE18F51DE1807E19051DE1804E1A4
:1049B8009151DE18D8B43DD08CC077F08DC078F016
:1049C80071EC1CF00001966F9651D8A432D02E0ECF
:1049D8008C256D6F000E8D216E6F8EC06FF08FC0AD
:1049E80070F090C071F091C072F0010E736F20EEFC
:1049F80001F08C51D9268D51DA22DF50A2EC22F039
:104A08000009D8B407D000018E698F69906991694F
:104A1800010E966F000120EE2AF08C51D9268D5197
:104A2800DA228EC0DEFF8FC0DEFF90C0DEFF91C0AD
:104A3800DEFF9651120023C027F024C028F027C0BB
:104A48001AF028C01BF025C01CF026C01DF02EEC63
:104A580029F01AC027F01BC028F0214A222A275023
:104A68002810D8A4ECD721C0D9FF22C0DAFF000E45
:104A7800DF6E2106D8A0220623C01AF024C01BF03E
:104A880025C01CF026C01DF0C6EC29F01A50296E6E
:104A980023C01AF024C01BF025C01CF026C01DF04E
:104AA8002EEC29F01AC023F01BC024F0090E29644B
:104AB80002D0070E2926300E292621C0D9FF22C090
:104AC800DAFF29C0DFFF2106D8A0220623502410D0
:104AD800D8A4D2D7214A222A12009594959295906B
:104AE8009598959A959C959E839483928390839E9E
:104AF800839C838A8388EA0E1D6EC30EE82EFED738
:104B08001D2EFCD700F083803CEC2BF083903CEC0E
:104B18002BF04E0E1D6EEB0EE82EFED71D2EFCD789
:104B280000F083803CEC2BF083903CEC2BF04E0E95
:104B38001D6EEB0EE82EFED71D2EFCD700F08380ED
:104B48003CEC2BF083903CEC2BF0839E839C838A77
:104B5800839883803CEC2BF083903CEC2BF0280E60
:104B68000AEC26F0060E0AEC26F00E0E0AEC26F0E9
:104B7800010E0AEC26F0120021C027F022C028F00E
:104B880027502810D8B43ED027C0D9FF28C0DAFF54
:104B9800DE50DE10D8B436D027C0D9FF28C0DAFFDF
:104BA800DECF23F0DDCF24F023C0D9FF24C0DAFF05
:104BB800DF50D8B427D020EE02F02750D92628504D
:104BC800DA2227C0E1FF28C0E2FF00EE06F0E65037
:104BD800E926E550EA22DE50EE1814E1DE50EE1820
:104BE800D8A410D027C0D9FF28C0DAFF10EE01F0F2
:104BF800DE50E126DD50E222E75025EC2AF0236E54
:104C080023A002D0090E1200000E12001C6E83941D
:104C1800839283901CA802D0838801D083981CAA11
:104C280002D0838A01D0839A1CAC02D0838C01D035
:104C3800839C1CAE02D0838E01D0839E83803CEC83
:104C48002BF083903CEC2BF01CA002D0838801D081
:104C580083981CA202D0838A01D0839A1CA402D014
:104C6800838C01D0839C1CA602D0838E01D0839EA6
:104C780083803CEC2BF083903CEC2BF01C04D8B4E4
:104C880008D0020E1C18D8B404D0030E1C18D8A4DF
:104C980012003CEC2BF012000001736F34D06CC092
:104CA80026F06DC027F06EC028F06FC029F070C0E4
:104CB8002AF071C02BF072C02CF04BEC20F02D6E56
:104CC8002D500001746F756B74C076F07651120028
:104CD8006CC026F06DC027F06EC028F06FC029F0B8
:104CE80070C02AF071C02BF072C02CF04BEC20F091
:104CF8002D6E2D500001746F756B74C076F076516F
:104D080012007651120000017351000AD8B4C7D7B7
:104D1800010AD8B4DDD7030AD8B4F3D7040E1200B9
:104D2800000E226E000E236E000E246E000E256EFD
:104D38001E501F1020102110D8B42AD0010E266E44
:104D480006D0D8901E361F3620362136262A21AEA8
:104D5800F8D7D89022362336243625361E501A5CCA
:104D68001F501B5820501C5821501D58D8A009D03E
:104D78001E501A5E1F501B5A20501C5A21501D5A93
:104D88002280D890213220321F321E32262EE1D7BF
:104D980022C01AF023C01BF024C01CF025C01DF04F
:104DA80012001A0E1C24D96E000E1D20DA6EDECFFA
:104DB8001EF0DDCF1FF01EC024F01FC025F0266AAC
:104DC800276A1AC0D9FF1BC0DAFF030EDE18D8A461
:104DD8001ED0140E1C24D96E000E1D20DA6EDECFF4
:104DE8001EF0DDCF1FF01E50206E1F50216E226A6C
:104DF800236A21C023F020C022F0216A206A2050B3
:104E0800241221502512225026122350271224C082
:104E18001AF025C01BF026C01CF027C01DF0120098
:104E2800D60EF66E610EF76E20EE60F0100E0900D9
:104E3800F5CFDEFFE806FBE2C50EF66E610EF76EF3
:104E480020EE71F0100E0900F5CFDEFFE806FBE258
:104E5800000E1D6E010E37EC28F0600E1D6E000E60
:104E68001E6E57EC29F0000E1D6E020E37EC28F06E
:104E7800710E1D6E000E1E6E57EC29F03D0E216E50
:104E8800E10E206E400EE82EFED7202EFCD7212EF4
:104E9800FAD7010E0AEC26F01200000E1C6E010E65
:104EA8001C6401D012001C50020DEF0EF324D96EC1
:104EB800000EF420DA6EDE50DE10D8B428D01C5074
:104EC800020DE70EF324D96E000EF420DA6EDE50E0
:104ED800DE10D8A41CD0010E436EFD0E396EE80E0C
:104EE800386E000E436E1C50020DEB0EF324D96E83
:104EF800000EF420DA6E1C50020DE70EF324E16E6A
:104F0800000EF420E26EDECFE6FFDDCFE5FF1C2ABF
:104F1800C6D7500EF66E560EF76E000EF86E01EEFE
:104F2800A8F010EE27F00900F5CFEEFFE550E150AC
:104F3800FAE102EEADF012EE2EF0EE6AE550E15025
:104F4800FCE1E250FAE102EE67F0460EEE6AE8068E
:104F5800FDE101EE00F0A80EEE6AE806FDE100EEC4
:104F6800E7F0190EEE6AE806FDE100EE2EF0180EE5
:104F7800EE6AE806FDE146904692000EF86E0001E2
:104F88009FEF2AF01C6E8394838283901CA802D022
:104F9800838801D083981CAA02D0838A01D0839A7F
:104FA8001CAC02D0838C01D0839C1CAE02D0838EB3
:104FB80001D0839E83803CEC2BF083903CEC2BF05B
:104FC8001CA002D0838801D083981CA202D0838AB7
:104FD80001D0839A1CA402D0838C01D0839C1CA688
:104FE80002D0838E01D0839E83803CEC2BF083908B
:104FF8003CEC2BF012001AC023F01BC024F01CC09C
:1050080025F01DC026F0000E286E000E276E1E0625
:10501800D8A01F061E2803E11F28D8B41FD025C01A
:10502800D9FF26C0DAFF254A262ADF50206E216ADA
:10503800201E211E204A212A23C0D9FF24C0DAFFBE
:10504800234A242ADF50226E22502024276E000E85
:105058002120286E27502810D8B4D9D727C01AF095
:1050680028C01BF012001E6E000E1F6E110E1D6070
:105078002FD01ED01DC01FF01F506FEC28F026D077
:105088001D50400F1F6E1F506FEC28F01FD01D5091
:10509800140F1F6E1F506FEC28F018D01D50540FBE
:1050A8001F6E1F506FEC28F011D0000E1F6E0ED02F
:1050B8001E50010AD8B4DED7030AD8B4E1D7010AD2
:1050C800D8B4E5D7070AD8B4E9D7EFD71D2A120014
:1050D800000E1F6E12001C6E839483928390838E41
:1050E8001CA802D0838801D083981CAA02D0838A86
:1050F80001D0839A1CAC02D0838C01D0839C83801E
:105108003CEC2BF083903CEC2BF01CA002D0838865
:1051180001D083981CA202D0838A01D0839A1CA450
:1051280002D0838C01D0839C1CA602D0838E01D030
:10513800839E83803CEC2BF083903CEC2BF0120098
:10514800E0C1D3F1E1C1D4F1E2C1D5F1E3C1D6F1B7
:10515800120E0101D76FF4EC10F00101E46FE45175
:10516800D8A41200E0C1C9F0E1C1CAF020EE0AF0EB
:10517800E051D926E151DA22DECFCBF0DECFCCF0F8
:10518800DECFCDF0DECFCEF07EEC09F00101E46F8A
:10519800E451D8B41200E0C1A0F0E1C1A1F006ECDE
:1051A8002AF01200246EBAEC2AF0FF0AD8A404D020
:1051B80008D00A0E81EC2AF0BAEC2AF0FF0AD8A42B
:1051C800F8D7FF0E8EEC2BF024508EEC2BF022C07B
:1051D80025F025508EEC2BF021C025F025508EECC3
:1051E8002BF020C025F025508EEC2BF01FC025F0A9
:1051F80025508EEC2BF023508EEC2BF01200000E75
:10520800226E000E236E000E246E000E256E1AA06C
:1052180008D01E5022261F5023222050242221501D
:105228002522D8901E361F3620362136D8901D32BA
:105238001C321B321A321A501B101C101D10D8A415
:10524800E6D722C01AF023C01BF024C01CF025C0EA
:105258001DF01200000E206E000E1F6E1C501D1057
:10526800D8B41CD0010E1E6E04D0D8901C361D3642
:105278001E2A1DAEFAD7D8901F3620361C501A5C4D
:105288001D501B58D8A005D01C501A5E1D501B5A23
:105298001F80D8901D321C321E2EEDD71FC01AF069
:1052A80020C01BF0120014D01DC0F6FF1EC0F7FF6F
:1052B800F86A070EF76403D00800F55005D0F6CF5A
:1052C800E9FFF7CFEAFFEF50C6EC27F01D4A1E2A88
:1052D8001DC0F6FF1EC0F7FFF86A070EF76403D07B
:1052E8000800F55005D0F6CFE9FFF7CFEAFFEF50F9
:1052F8000009D8B41200D8D702D01A4A1B2A1AC0FB
:10530800F6FF1BC0F7FF0800F5500009D8B40FD00E
:105318001AC0F6FF1BC0F7FF0800F5501E6E1F6A83
:105328001C501E18EAE11D501F18D8A4E6D71AC051
:10533800F6FF1BC0F7FF0800F5501A6E1B6A120033
:1053480060C02AF061C02BF0000163AF0CD060C0D0
:10535800D9FF61C0DAFF2D0EDF6E604B612B626DE5
:10536800631FD8B0632B60C021F061C022F062C017
:1053780023F063C024F064C025F065C026F01FEC5C
:1053880025F012001C501D10D8B418D0010E1E6E46
:1053980004D0D8901C361D361E2A1DAEFAD71C50D4
:1053A8001A5C1D501B58D8A004D01C501A5E1D5002
:1053B8001B5AD8901D321C321E2EF1D71AC01AF073
:1053C8001BC01BF01200939293989380949E8A8836
:1053D8003F0EC716000EC66EC79EC78CC698030E32
:1053E800C66E8A88C68A010E1D6E010E37EC28F03B
:1053F800E70E1D6E610E1E6E57EC29F0010E0AECC9
:1054080026F01200A0C097F0A1C098F026EC1DF07D
:105418000001A26FA251D8A41200A0C021F0A1C01F
:1054280022F0C0EC25F00001A26FA251D8A412000E
:10543800A0C0D9FFA1C0DAFF000EDE6E000EDD6E3F
:1054480012001F6E11D01F5072EC2BF0206E2050EE
:1054580012001F5072EC2BF01C6E1C501D6E1E6A41
:1054680020501200205012001F50000AD8B4EBD769
:10547800010AD8B4EED7030AD8B4F4D7010E120043
:1054880021EEB9F010EE66F0060EDBCFE3FFE8067A
:10549800FCE2660E0001606F000E616F2CC062F0C6
:1054A8002DC063F0000E656F0A0E646FA4EC29F03E
:1054B800660E1D6E000E1E6E57EC29F012000001DC
:1054C8007A6F0ED0A9EC14F000017B6F7B511200AB
:1054D800A9EC14F000017B6F7B5112007B51120084
:1054E80000017A51000AD8B4EDD7010AD8B4F0D730
:1054F800030AD8B4F3D7010E12001C6E100E1A6EF0
:10550800940EE82EFED71A2EFCD700D0000E1E6E81
:10551800000E1D6E06D08A88BCEC2BF08A981D4AB6
:105528001E2A1C501A6E1B6A1A501D5C1B501E58EE
:10553800D8B01200F0D767EC2BF071EC25F014EC22
:1055480027F000EC2BF0030E206E010E216E000EEA
:10555800E7EC29F00F0EC16E19EC24F04404D8A42E
:10556800FDD7000E446E51EC27F0F8D7FF0E1A6EE7
:105578007F0E1B6E000E1C6E000E1D6EBCEC2BF019
:105588001E6E1E28D8B40BD01A06000E1B5A1C5AC1
:105598001D5A1A501B101C101D10D8A4EFD71E50EE
:1055A80012001AC020F01BC021F008D020C0D9FF7B
:1055B80021C0DAFF1CC0DFFF204A212A1E06D8A01E
:1055C8001F061E28F3E11F28D8B41200EFD720EEDB
:1055D8001AF01A50D9261B50DA221CC0DEFF1DC053
:1055E800DDFF20EE14F01A50D9261B50DA221EC017
:1055F800DEFF1FC0DDFF1200130E0001EC6F880EE6
:10560800EB6F130EEE6F880EED6F130EE86F880EBA
:10561800E76F130EEA6F880EE96F000E436E1200F3
:105628001D6E06D01E5012001E5012001E50120091
:105638001D50000AD8B4F6D7010AD8B4F5D7030A22
:10564800D8B4F4D7040E120066656C6970650A0058
:105658000000303030303030003030303030300002
:0F566800636865636B2E747874000000000000A7
:10567800000E1A6E630E1A6401D0120000F0000EBC
:105688001B6E310E1B6401D003D000F01B2AF9D722
:105698001A2AF0D7C30ED56E000E656E000E636E23
:1056A800000E1B6E830E1A6E85EC2BF01200210E75
:1056B800936E8A68000E956E070E926E110E946EA8
:1056C800030E966E1200C1EC2BF05BEC2BF04EEC47
:1056D8002BF0A9EC2BF07CEC2BF012001B6E000ECB
:1056E8001A6E1B50D8B402D0010E1200000E120020
:1056F800B00EF26E000EF16E000EF06E080E9D6E8A
:1057080012001AC01CF01BC01DF01DC0D7FF1CC022
:10571800D6FF12001B6EC9CF1AF09E961BC0C9FF98
:105728009EB61200FDD701C003F002C004F004C009
:10573800D7FF03C0D6FF12009EAAFED7ABA203D0A4
:10574800AB9800F0AB88AE501200040ECA6E000E83
:10575800CC6E010ECB6E12008A98BCEC2BF01A6E40
:105768001A5012008A98FF0E8EEC2BF08A881200CD
:10577800C968C7A0FED7C9501200D388D38AD38C72
:0257880012000D
:10614E0000010000000A00000064000000E80300E7
:10615E000010270000A086010040420F0080969894
:10616E000000E1F50500CA9A3B00803F0020410087
:10617E00C842007A44401C4650C3472474499718BD
:10618E004BBCBE4C6B6E4E03155079AD60F349712E
:10619E0000803FCDCC3DD7233C12833AB7D138C6D1
:1061AE002737388635C0D633CC2B32708930E7DBB3
:1061BE002EE53C1E42A20D2031382F30312F3230C9
:1061CE003232202020000000534443617264204983
:1061DE006E697420202000000053504920636F6EBA
:1061EE0066696775726164612100496E73697261D7
:1061FE00206F2043617274616F0043617274616F2E
:10620E0020496E73657269646F00222A2B2C3A3B0B
:10621E003C3D3E3F5B5D7C7F004D4D43205665729D
:10622E002E20330053656D2043617274616F0045FB
:10623E00736372697461204F4B005344205645526C
:10624E002E20310025643A25643A25640066656C7B
:10625E006970652100486F72613A00446174613A59
:10626E0000252E303766004C6F6E3A000D0A007C0A
:02627E0000001E
:020000040020DA
:08000000FFFFFFFFFFFFFFFF00
:020000040030CA
:0E00000000051F1FFF8385FF0FC00FE00F409C
:00000001FF
